{
  "contractName": "SyndicateClosedEndFundManagerLogicV0",
  "abi": [
    {
      "inputs": [
        {
          "internalType": "address",
          "name": "storeAddress",
          "type": "address"
        }
      ],
      "stateMutability": "nonpayable",
      "type": "constructor"
    },
    {
      "anonymous": false,
      "inputs": [
        {
          "indexed": true,
          "internalType": "address",
          "name": "previousOwner",
          "type": "address"
        },
        {
          "indexed": true,
          "internalType": "address",
          "name": "newOwner",
          "type": "address"
        }
      ],
      "name": "OwnershipTransferred",
      "type": "event"
    },
    {
      "anonymous": false,
      "inputs": [
        {
          "indexed": false,
          "internalType": "address",
          "name": "account",
          "type": "address"
        }
      ],
      "name": "Paused",
      "type": "event"
    },
    {
      "anonymous": false,
      "inputs": [
        {
          "indexed": false,
          "internalType": "address",
          "name": "account",
          "type": "address"
        }
      ],
      "name": "Unpaused",
      "type": "event"
    },
    {
      "anonymous": false,
      "inputs": [
        {
          "indexed": true,
          "internalType": "address",
          "name": "syndicateAddress",
          "type": "address"
        },
        {
          "indexed": false,
          "internalType": "uint256",
          "name": "managerManagementFeeBasisPoints",
          "type": "uint256"
        },
        {
          "indexed": false,
          "internalType": "uint256",
          "name": "managerPerformanceFeeBasisPoints",
          "type": "uint256"
        },
        {
          "indexed": false,
          "internalType": "uint256",
          "name": "syndicateProfitShareBasisPoints",
          "type": "uint256"
        },
        {
          "indexed": false,
          "internalType": "uint256",
          "name": "numMembersMax",
          "type": "uint256"
        },
        {
          "indexed": true,
          "internalType": "address",
          "name": "depositERC20Address",
          "type": "address"
        },
        {
          "indexed": false,
          "internalType": "uint256",
          "name": "depositMinMember",
          "type": "uint256"
        },
        {
          "indexed": false,
          "internalType": "uint256",
          "name": "depositMaxMember",
          "type": "uint256"
        },
        {
          "indexed": false,
          "internalType": "uint256",
          "name": "depositMaxTotal",
          "type": "uint256"
        },
        {
          "indexed": false,
          "internalType": "uint256",
          "name": "dateCreation",
          "type": "uint256"
        },
        {
          "indexed": false,
          "internalType": "uint256",
          "name": "dateClose",
          "type": "uint256"
        },
        {
          "indexed": false,
          "internalType": "bool",
          "name": "allowlistEnabled",
          "type": "bool"
        },
        {
          "indexed": false,
          "internalType": "bool",
          "name": "modifiable",
          "type": "bool"
        },
        {
          "indexed": false,
          "internalType": "bool",
          "name": "transferable",
          "type": "bool"
        }
      ],
      "name": "createdSyndicate",
      "type": "event"
    },
    {
      "anonymous": false,
      "inputs": [
        {
          "indexed": true,
          "internalType": "address",
          "name": "syndicateAddress",
          "type": "address"
        },
        {
          "indexed": true,
          "internalType": "address",
          "name": "memberAddress",
          "type": "address"
        }
      ],
      "name": "managerAllowedAddresses",
      "type": "event"
    },
    {
      "anonymous": false,
      "inputs": [
        {
          "indexed": true,
          "internalType": "address",
          "name": "syndicateAddress",
          "type": "address"
        },
        {
          "indexed": false,
          "internalType": "uint256",
          "name": "managementFeeAmount",
          "type": "uint256"
        },
        {
          "indexed": false,
          "internalType": "uint256",
          "name": "timestamp",
          "type": "uint256"
        }
      ],
      "name": "managerAssessedManagementFee",
      "type": "event"
    },
    {
      "anonymous": false,
      "inputs": [
        {
          "indexed": true,
          "internalType": "address",
          "name": "syndicateAddress",
          "type": "address"
        },
        {
          "indexed": true,
          "internalType": "address",
          "name": "memberAddress",
          "type": "address"
        }
      ],
      "name": "managerBlockedAddress",
      "type": "event"
    },
    {
      "anonymous": false,
      "inputs": [
        {
          "indexed": true,
          "internalType": "address",
          "name": "syndicateAddress",
          "type": "address"
        },
        {
          "indexed": false,
          "internalType": "uint256",
          "name": "timestamp",
          "type": "uint256"
        }
      ],
      "name": "managerClosedSyndicate",
      "type": "event"
    },
    {
      "anonymous": false,
      "inputs": [
        {
          "indexed": true,
          "internalType": "address",
          "name": "syndicateAddress",
          "type": "address"
        },
        {
          "indexed": true,
          "internalType": "address",
          "name": "managerCurrent",
          "type": "address"
        },
        {
          "indexed": false,
          "internalType": "bytes32",
          "name": "hexadecimalHash",
          "type": "bytes32"
        },
        {
          "indexed": false,
          "internalType": "uint8",
          "name": "hashFunction",
          "type": "uint8"
        },
        {
          "indexed": false,
          "internalType": "uint8",
          "name": "hashSize",
          "type": "uint8"
        },
        {
          "indexed": false,
          "internalType": "uint256",
          "name": "timestamp",
          "type": "uint256"
        }
      ],
      "name": "managerEmittedMemo",
      "type": "event"
    },
    {
      "anonymous": false,
      "inputs": [
        {
          "indexed": true,
          "internalType": "address",
          "name": "syndicateAddress",
          "type": "address"
        },
        {
          "indexed": true,
          "internalType": "address",
          "name": "oldManager",
          "type": "address"
        },
        {
          "indexed": true,
          "internalType": "address",
          "name": "newManager",
          "type": "address"
        }
      ],
      "name": "managerPendingConfirmed",
      "type": "event"
    },
    {
      "anonymous": false,
      "inputs": [
        {
          "indexed": true,
          "internalType": "address",
          "name": "syndicateAddress",
          "type": "address"
        },
        {
          "indexed": false,
          "internalType": "uint256",
          "name": "dateclose",
          "type": "uint256"
        }
      ],
      "name": "managerSetterDateClose",
      "type": "event"
    },
    {
      "anonymous": false,
      "inputs": [
        {
          "indexed": true,
          "internalType": "address",
          "name": "syndicateAddress",
          "type": "address"
        },
        {
          "indexed": true,
          "internalType": "address",
          "name": "managerFeeAddress",
          "type": "address"
        }
      ],
      "name": "managerSetterManagerFeeAddress",
      "type": "event"
    },
    {
      "anonymous": false,
      "inputs": [
        {
          "indexed": true,
          "internalType": "address",
          "name": "syndicateAddress",
          "type": "address"
        },
        {
          "indexed": false,
          "internalType": "uint256",
          "name": "managerManagementFeeBasisPoints",
          "type": "uint256"
        },
        {
          "indexed": false,
          "internalType": "uint256",
          "name": "managerPerformanceFeeBasisPoints",
          "type": "uint256"
        }
      ],
      "name": "managerSetterManagerFees",
      "type": "event"
    },
    {
      "anonymous": false,
      "inputs": [
        {
          "indexed": true,
          "internalType": "address",
          "name": "syndicateAddress",
          "type": "address"
        },
        {
          "indexed": true,
          "internalType": "address",
          "name": "managerPendingAddress",
          "type": "address"
        }
      ],
      "name": "managerSetterManagerPending",
      "type": "event"
    },
    {
      "anonymous": false,
      "inputs": [
        {
          "indexed": true,
          "internalType": "address",
          "name": "syndicateAddress",
          "type": "address"
        },
        {
          "indexed": false,
          "internalType": "string",
          "name": "metadataKey",
          "type": "string"
        },
        {
          "indexed": false,
          "internalType": "string",
          "name": "metadataValue",
          "type": "string"
        }
      ],
      "name": "managerSetterMetadata",
      "type": "event"
    },
    {
      "anonymous": false,
      "inputs": [
        {
          "indexed": true,
          "internalType": "address",
          "name": "syndicateAddress",
          "type": "address"
        },
        {
          "indexed": false,
          "internalType": "uint256",
          "name": "numMembersMax",
          "type": "uint256"
        },
        {
          "indexed": false,
          "internalType": "uint256",
          "name": "numMembersCurrent",
          "type": "uint256"
        }
      ],
      "name": "managerSetterNumMembersMax",
      "type": "event"
    },
    {
      "anonymous": false,
      "inputs": [
        {
          "indexed": true,
          "internalType": "address",
          "name": "syndicateAddress",
          "type": "address"
        },
        {
          "indexed": false,
          "internalType": "uint256",
          "name": "syndicateProfitShareBasisPoints",
          "type": "uint256"
        }
      ],
      "name": "managerSetterSyndicateProfitShare",
      "type": "event"
    },
    {
      "anonymous": false,
      "inputs": [
        {
          "indexed": false,
          "internalType": "address",
          "name": "owner",
          "type": "address"
        }
      ],
      "name": "ownerRenouncedPause",
      "type": "event"
    },
    {
      "anonymous": false,
      "inputs": [
        {
          "indexed": true,
          "internalType": "address",
          "name": "contractFeeAddress",
          "type": "address"
        },
        {
          "indexed": false,
          "internalType": "uint256",
          "name": "timestamp",
          "type": "uint256"
        }
      ],
      "name": "ownerSetterSyndicateFeeAddress",
      "type": "event"
    },
    {
      "inputs": [],
      "name": "BASIS_POINTS_DENOMINATOR",
      "outputs": [
        {
          "internalType": "uint256",
          "name": "",
          "type": "uint256"
        }
      ],
      "stateMutability": "view",
      "type": "function"
    },
    {
      "inputs": [],
      "name": "owner",
      "outputs": [
        {
          "internalType": "address",
          "name": "",
          "type": "address"
        }
      ],
      "stateMutability": "view",
      "type": "function"
    },
    {
      "inputs": [],
      "name": "ownerPauseContract",
      "outputs": [],
      "stateMutability": "nonpayable",
      "type": "function"
    },
    {
      "inputs": [],
      "name": "ownerRenounceOwnership",
      "outputs": [],
      "stateMutability": "nonpayable",
      "type": "function"
    },
    {
      "inputs": [],
      "name": "ownerRenouncePause",
      "outputs": [],
      "stateMutability": "nonpayable",
      "type": "function"
    },
    {
      "inputs": [
        {
          "internalType": "address",
          "name": "feeAddress",
          "type": "address"
        }
      ],
      "name": "ownerSetSyndicateFeeAddress",
      "outputs": [],
      "stateMutability": "nonpayable",
      "type": "function"
    },
    {
      "inputs": [
        {
          "internalType": "address",
          "name": "newOwner",
          "type": "address"
        }
      ],
      "name": "ownerTransferOwnership",
      "outputs": [],
      "stateMutability": "nonpayable",
      "type": "function"
    },
    {
      "inputs": [],
      "name": "ownerUnpauseContract",
      "outputs": [],
      "stateMutability": "nonpayable",
      "type": "function"
    },
    {
      "inputs": [],
      "name": "paused",
      "outputs": [
        {
          "internalType": "bool",
          "name": "",
          "type": "bool"
        }
      ],
      "stateMutability": "view",
      "type": "function"
    },
    {
      "inputs": [],
      "name": "renounceOwnership",
      "outputs": [],
      "stateMutability": "nonpayable",
      "type": "function"
    },
    {
      "inputs": [
        {
          "internalType": "address",
          "name": "newOwner",
          "type": "address"
        }
      ],
      "name": "transferOwnership",
      "outputs": [],
      "stateMutability": "nonpayable",
      "type": "function"
    },
    {
      "inputs": [
        {
          "internalType": "uint256",
          "name": "managerManagementFeeBasisPoints",
          "type": "uint256"
        },
        {
          "internalType": "uint256",
          "name": "managerPerformanceFeeBasisPoints",
          "type": "uint256"
        },
        {
          "internalType": "uint256",
          "name": "syndicateProfitShareBasisPoints",
          "type": "uint256"
        },
        {
          "internalType": "uint256",
          "name": "numMembersMax",
          "type": "uint256"
        },
        {
          "internalType": "address",
          "name": "depositERC20Address",
          "type": "address"
        },
        {
          "internalType": "uint256",
          "name": "depositMinMember",
          "type": "uint256"
        },
        {
          "internalType": "uint256",
          "name": "depositMaxMember",
          "type": "uint256"
        },
        {
          "internalType": "uint256",
          "name": "depositMaxTotal",
          "type": "uint256"
        },
        {
          "internalType": "uint256",
          "name": "dateClose",
          "type": "uint256"
        },
        {
          "internalType": "bool",
          "name": "allowlistEnabled",
          "type": "bool"
        },
        {
          "internalType": "bool",
          "name": "modifiable",
          "type": "bool"
        },
        {
          "internalType": "bool",
          "name": "transferable",
          "type": "bool"
        }
      ],
      "name": "createSyndicate",
      "outputs": [],
      "stateMutability": "nonpayable",
      "type": "function"
    },
    {
      "inputs": [
        {
          "internalType": "address",
          "name": "syndicateAddress",
          "type": "address"
        },
        {
          "internalType": "address",
          "name": "managerPendingAddress",
          "type": "address"
        }
      ],
      "name": "managerSetManagerPending",
      "outputs": [],
      "stateMutability": "nonpayable",
      "type": "function"
    },
    {
      "inputs": [
        {
          "internalType": "address",
          "name": "syndicateAddress",
          "type": "address"
        },
        {
          "internalType": "address",
          "name": "managerFeeAddress",
          "type": "address"
        }
      ],
      "name": "managerPendingConfirmAndSetManagerFeeAddress",
      "outputs": [],
      "stateMutability": "nonpayable",
      "type": "function"
    },
    {
      "inputs": [
        {
          "internalType": "address",
          "name": "syndicateAddress",
          "type": "address"
        }
      ],
      "name": "managerPendingConfirm",
      "outputs": [],
      "stateMutability": "nonpayable",
      "type": "function"
    },
    {
      "inputs": [
        {
          "internalType": "address",
          "name": "syndicateAddress",
          "type": "address"
        },
        {
          "internalType": "address",
          "name": "managerFeeAddress",
          "type": "address"
        }
      ],
      "name": "managerSetManagerFeeAddress",
      "outputs": [],
      "stateMutability": "nonpayable",
      "type": "function"
    },
    {
      "inputs": [
        {
          "internalType": "address",
          "name": "syndicateAddress",
          "type": "address"
        },
        {
          "internalType": "uint256",
          "name": "managerManagementFeeBasisPoints",
          "type": "uint256"
        },
        {
          "internalType": "uint256",
          "name": "managerPerformanceFeeBasisPoints",
          "type": "uint256"
        }
      ],
      "name": "managerSetManagerFees",
      "outputs": [],
      "stateMutability": "nonpayable",
      "type": "function"
    },
    {
      "inputs": [
        {
          "internalType": "address",
          "name": "syndicateAddress",
          "type": "address"
        },
        {
          "internalType": "uint256",
          "name": "syndicateProfitShareBasisPoints",
          "type": "uint256"
        }
      ],
      "name": "managerSetSyndicateProfitShare",
      "outputs": [],
      "stateMutability": "nonpayable",
      "type": "function"
    },
    {
      "inputs": [
        {
          "internalType": "address",
          "name": "syndicateAddress",
          "type": "address"
        },
        {
          "internalType": "address",
          "name": "feeERC20Address",
          "type": "address"
        },
        {
          "internalType": "uint256",
          "name": "amount",
          "type": "uint256"
        }
      ],
      "name": "managerAssessManagementFee",
      "outputs": [],
      "stateMutability": "nonpayable",
      "type": "function"
    },
    {
      "inputs": [
        {
          "internalType": "address",
          "name": "syndicateAddress",
          "type": "address"
        },
        {
          "internalType": "uint256",
          "name": "numMembersMax",
          "type": "uint256"
        }
      ],
      "name": "managerSetNumMembersMax",
      "outputs": [],
      "stateMutability": "nonpayable",
      "type": "function"
    },
    {
      "inputs": [
        {
          "internalType": "address",
          "name": "syndicateAddress",
          "type": "address"
        }
      ],
      "name": "managerSetNumMembersMaxToCurrent",
      "outputs": [],
      "stateMutability": "nonpayable",
      "type": "function"
    },
    {
      "inputs": [
        {
          "internalType": "address",
          "name": "syndicateAddress",
          "type": "address"
        },
        {
          "internalType": "uint256",
          "name": "dateClose",
          "type": "uint256"
        }
      ],
      "name": "managerSetDateClose",
      "outputs": [],
      "stateMutability": "nonpayable",
      "type": "function"
    },
    {
      "inputs": [
        {
          "internalType": "address",
          "name": "syndicateAddress",
          "type": "address"
        }
      ],
      "name": "managerCloseSyndicate",
      "outputs": [],
      "stateMutability": "nonpayable",
      "type": "function"
    },
    {
      "inputs": [
        {
          "internalType": "address",
          "name": "syndicateAddress",
          "type": "address"
        },
        {
          "internalType": "bool",
          "name": "allowlistEnabled",
          "type": "bool"
        }
      ],
      "name": "managerSetAllowlistEnabled",
      "outputs": [],
      "stateMutability": "nonpayable",
      "type": "function"
    },
    {
      "inputs": [
        {
          "internalType": "address",
          "name": "syndicateAddress",
          "type": "address"
        },
        {
          "internalType": "address[]",
          "name": "memberAddresses",
          "type": "address[]"
        }
      ],
      "name": "managerAllowAddresses",
      "outputs": [],
      "stateMutability": "nonpayable",
      "type": "function"
    },
    {
      "inputs": [
        {
          "internalType": "address",
          "name": "syndicateAddress",
          "type": "address"
        },
        {
          "internalType": "address[]",
          "name": "memberAddresses",
          "type": "address[]"
        }
      ],
      "name": "managerBlockAddresses",
      "outputs": [],
      "stateMutability": "nonpayable",
      "type": "function"
    },
    {
      "inputs": [
        {
          "internalType": "address",
          "name": "syndicateAddress",
          "type": "address"
        },
        {
          "internalType": "string[]",
          "name": "metadataKeys",
          "type": "string[]"
        },
        {
          "internalType": "string[]",
          "name": "metadataValues",
          "type": "string[]"
        }
      ],
      "name": "managerSetMetadata",
      "outputs": [],
      "stateMutability": "nonpayable",
      "type": "function"
    },
    {
      "inputs": [
        {
          "internalType": "address",
          "name": "syndicateAddress",
          "type": "address"
        },
        {
          "internalType": "bytes32",
          "name": "hexadecimalHash",
          "type": "bytes32"
        },
        {
          "internalType": "uint8",
          "name": "hashFunction",
          "type": "uint8"
        },
        {
          "internalType": "uint8",
          "name": "hashSize",
          "type": "uint8"
        }
      ],
      "name": "managerEmitMemo",
      "outputs": [],
      "stateMutability": "nonpayable",
      "type": "function"
    }
  ],
  "bytecode": "0x6080604052600280546001600160a81b0319167340db79f7f18c468c6552538b488c58b5e72bf4d91790553480156200003757600080fd5b5060405162003b4d38038062003b4d8339810160408190526200005a91620000d6565b6001600081815581546001600160a01b0319163390811790925560405183929182917f8be0079c531659141344cd1fd0a4f28419497f9722a3daafe3b4186f6b6457e0908290a3506001805460ff60a01b19169055600380546001600160a01b0319166001600160a01b03929092169190911790555062000108565b600060208284031215620000e957600080fd5b81516001600160a01b03811681146200010157600080fd5b9392505050565b613a3580620001186000396000f3fe608060405234801561001057600080fd5b50600436106101c45760003560e01c806386afa44e116100f9578063cfa498a311610097578063dac128ad11610071578063dac128ad14610382578063f05a76951461038a578063f2fde38b1461039d578063f6eadbf1146103b057600080fd5b8063cfa498a314610345578063d8162e6d1461035c578063d8a57ad71461036f57600080fd5b8063997842dc116100d3578063997842dc146102f9578063a09cca931461030c578063bd4edf0e1461031f578063bfd9a7e11461033257600080fd5b806386afa44e146102b85780638da5cb5b146102cb57806393eb34e1146102e657600080fd5b806342fb029a116101665780635c975abb116101405780635c975abb1461027e578063715018a6146102a057806379f90d6c146102a857806381abf408146102b057600080fd5b806342fb029a14610245578063430e8fac146102585780634f7317ab1461026b57600080fd5b806316937373116101a257806316937373146101f95780631e9b0ad81461020c5780633dfd91f71461021f578063416f5a391461023257600080fd5b80631022d0db146101c957806312285d40146101de57806315b1a646146101e6575b600080fd5b6101dc6101d736600461348d565b6103c3565b005b6101dc6105ef565b6101dc6101f4366004613507565b610623565b6101dc61020736600461365c565b61076d565b6101dc61021a36600461365c565b61090b565b6101dc61022d36600461355c565b610a10565b6101dc61024036600461360d565b610bb4565b6101dc61025336600461344c565b610c1b565b6101dc61026636600461344c565b610d5d565b6101dc61027936600461348d565b610df8565b600154600160a01b900460ff1660405190151581526020015b60405180910390f35b6101dc610e0f565b6101dc610e83565b6101dc610f01565b6101dc6102c63660046135df565b610f4d565b6001546040516001600160a01b039091168152602001610297565b6101dc6102f43660046134c6565b610fcb565b6101dc61030736600461344c565b611423565b6101dc61031a36600461344c565b6119a1565b6101dc61032d366004613507565b6119d7565b6101dc61034036600461344c565b611b18565b61034e61271081565b604051908152602001610297565b6101dc61036a36600461348d565b611b96565b6101dc61037d3660046136f3565b611e99565b6101dc6129bf565b6101dc610398366004613688565b612a4c565b6101dc6103ab36600461344c565b612ddf565b6101dc6103be36600461365c565b612eca565b816103cd81612ff9565b6001600160a01b038216158015906104735750600354604051630e8aef6f60e41b81526001600160a01b0385811660048301529091169063e8aef6f09060240160206040518083038186803b15801561042557600080fd5b505afa158015610439573d6000803e3d6000fd5b505050506040513d601f19601f8201168201806040525081019061045d9190613470565b6001600160a01b0316826001600160a01b031614155b801561050d5750600354604051630f93eb8960e21b81526001600160a01b03858116600483015290911690633e4fae249060240160206040518083038186803b1580156104bf57600080fd5b505afa1580156104d3573d6000803e3d6000fd5b505050506040513d601f19601f820116820180604052508101906104f79190613470565b6001600160a01b0316826001600160a01b031614155b61054b5760405162461bcd60e51b815260206004820152600a60248201526904645455f414444523d360b41b60448201526064015b60405180910390fd5b6003546040516323dff5ef60e11b81526001600160a01b0385811660048301528481166024830152909116906347bfebde90604401600060405180830381600087803b15801561059a57600080fd5b505af11580156105ae573d6000803e3d6000fd5b50506040516001600160a01b038086169350861691507f6860129b9a820a5967cb5117e5c59ab8086b5ccc2e80e7887b5211fc2e1add2f90600090a3505050565b6001546001600160a01b031633146106195760405162461bcd60e51b8152600401610542906138c1565b6106216130c4565b565b8261062d81612ff9565b836106378161315c565b8461064181613212565b60005b84811015610764576003546001600160a01b031663078de6f088888885818110610670576106706139c6565b9050602002016020810190610685919061344c565b6040516001600160e01b031960e085901b1681526001600160a01b0392831660048201529116602482015260016044820152606401600060405180830381600087803b1580156106d457600080fd5b505af11580156106e8573d6000803e3d6000fd5b505050508585828181106106fe576106fe6139c6565b9050602002016020810190610713919061344c565b6001600160a01b0316876001600160a01b03167fa5d420bd4553cabdb3fbd03760f639f7d4d95158a6415d5e854b7fbb8216951860405160405180910390a38061075c81613995565b915050610644565b50505050505050565b8161077781612ff9565b60328210156107b75760405162461bcd60e51b815260206004820152600c60248201526b53594e5f4645453c302e352560a01b6044820152606401610542565b60035460405163168ee49560e11b81526001600160a01b03858116600483015290911690632d1dc92a9060240160206040518083038186803b1580156107fc57600080fd5b505afa158015610810573d6000803e3d6000fd5b505050506040513d601f19601f8201168201806040525081019061083491906136da565b6108409061271061397e565b82111561085f5760405162461bcd60e51b81526004016105429061389e565b600354604051632590f4cb60e21b81526001600160a01b0390911690639643d32c906108919086908690600401613829565b600060405180830381600087803b1580156108ab57600080fd5b505af11580156108bf573d6000803e3d6000fd5b50505050826001600160a01b03167f602535cd5660ef20cdb2c211f5d1bb5deb146c894cfa9f0e4754bf6ce8dbb414836040516108fe91815260200190565b60405180910390a2505050565b8161091581612ff9565b8261091f8161315c565b4283116109635760405162461bcd60e51b8152602060048201526012602482015271504153545f4e45575f434c4f53454441544560701b6044820152606401610542565b60035460405163b3e15a2360e01b81526001600160a01b039091169063b3e15a23906109959087908790600401613829565b600060405180830381600087803b1580156109af57600080fd5b505af11580156109c3573d6000803e3d6000fd5b50505050836001600160a01b03167f3f7606b4ebf72d8cfa99be6f458f0e5a15d2ba51957b767587393f712608a8dc84604051610a0291815260200190565b60405180910390a250505050565b84610a1a81612ff9565b838214610a605760405162461bcd60e51b815260206004820152601460248201527320a92920acafa622a723aa2429afa224a32322a960611b6044820152606401610542565b60005b84811015610764576003546001600160a01b031663eb3b0cba88888885818110610a8f57610a8f6139c6565b9050602002810190610aa191906138f6565b888887818110610ab357610ab36139c6565b9050602002810190610ac591906138f6565b6040518663ffffffff1660e01b8152600401610ae59594939291906137e5565b600060405180830381600087803b158015610aff57600080fd5b505af1158015610b13573d6000803e3d6000fd5b50505050866001600160a01b03167f87967a444a5b438e3ebd721e9e61eb4aa9209bfe3408c6a4d3af15b493f7112c878784818110610b5457610b546139c6565b9050602002810190610b6691906138f6565b878786818110610b7857610b786139c6565b9050602002810190610b8a91906138f6565b604051610b9a9493929190613842565b60405180910390a280610bac81613995565b915050610a63565b83610bbe81612ff9565b6040805185815260ff8581166020830152841681830152426060820152905133916001600160a01b038816917f4c26c36f3c256b76601843d12c6cc7ce9c4813245fe2f0939660fbbc76caab699181900360800190a35050505050565b600154600160a01b900460ff1615610c455760405162461bcd60e51b815260040161054290613874565b80610c4f81612ff9565b81610c598161315c565b6003546040516362d8decf60e01b81526001600160a01b03909116906362d8decf90610c8c9086906000906004016137ca565b600060405180830381600087803b158015610ca657600080fd5b505af1158015610cba573d6000803e3d6000fd5b505060035460405163b3e15a2360e01b81526001600160a01b03909116925063b3e15a239150610cf09086904290600401613829565b600060405180830381600087803b158015610d0a57600080fd5b505af1158015610d1e573d6000803e3d6000fd5b50505050826001600160a01b03167f99394e28c861ab4bcf173ef954498b658f9eff6f7f0fbb7dc84dd91b6eed5e4f426040516108fe91815260200190565b80610d6781612ff9565b81610d718161315c565b60035460405163e396ae9b60e01b81526001600160a01b038086166004830152610df392869291169063e396ae9b9060240160206040518083038186803b158015610dbb57600080fd5b505afa158015610dcf573d6000803e3d6000fd5b505050506040513d601f19601f820116820180604052508101906103be91906136da565b505050565b610e0182611423565b610e0b82826103c3565b5050565b6001546001600160a01b03163314610e395760405162461bcd60e51b8152600401610542906138c1565b6001546040516000916001600160a01b0316907f8be0079c531659141344cd1fd0a4f28419497f9722a3daafe3b4186f6b6457e0908390a3600180546001600160a01b0319169055565b6001546001600160a01b03163314610ead5760405162461bcd60e51b8152600401610542906138c1565b600254600160a01b900460ff1615610ef95760405162461bcd60e51b815260206004820152600f60248201526e14105554d157d4915393d55390d151608a1b6044820152606401610542565b6106216132d0565b6001546001600160a01b03163314610f2b5760405162461bcd60e51b8152600401610542906138c1565b600154600160a01b900460ff1615610f4557610f456105ef565b610621610e0f565b81610f5781612ff9565b82610f618161315c565b60035460405163b1e315bf60e01b81526001600160a01b039091169063b1e315bf90610f9390879087906004016137ca565b600060405180830381600087803b158015610fad57600080fd5b505af1158015610fc1573d6000803e3d6000fd5b5050505050505050565b600154600160a01b900460ff1615610ff55760405162461bcd60e51b815260040161054290613874565b82610fff81612ff9565b8361100981613335565b600083116110425760405162461bcd60e51b815260206004820152600660248201526504645453c3d360d41b6044820152606401610542565b600354604051630dc35bbb60e41b81526001600160a01b038781166004830152600092169063dc35bbb09060240160206040518083038186803b15801561108857600080fd5b505afa15801561109c573d6000803e3d6000fd5b505050506040513d601f19601f820116820180604052508101906110c09190613470565b6001600160a01b0316141561110a5760405162461bcd60e51b815260206004820152601060248201526f11915157d051111497d393d517d4d15560821b6044820152606401610542565b600354604051636a01efab60e01b81526001600160a01b03878116600483015260009261271092911690636a01efab9060240160206040518083038186803b15801561115557600080fd5b505afa158015611169573d6000803e3d6000fd5b505050506040513d601f19601f8201168201806040525081019061118d91906136da565b611197908661395f565b6111a1919061393d565b905060006111af828661397e565b600354604051630e8aef6f60e41b81526001600160a01b038a811660048301529293508892808416926323b872dd9291169063e8aef6f09060240160206040518083038186803b15801561120257600080fd5b505afa158015611216573d6000803e3d6000fd5b505050506040513d601f19601f8201168201806040525081019061123a9190613470565b60025460405160e084901b6001600160e01b03191681526001600160a01b0392831660048201529116602482015260448101869052606401602060405180830381600087803b15801561128c57600080fd5b505af11580156112a0573d6000803e3d6000fd5b505050506040513d601f19601f820116820180604052508101906112c491906136bd565b50600354604051630dc35bbb60e41b81526001600160a01b038a81166004830152838116926323b872dd9233929091169063dc35bbb09060240160206040518083038186803b15801561131657600080fd5b505afa15801561132a573d6000803e3d6000fd5b505050506040513d601f19601f8201168201806040525081019061134e9190613470565b6040516001600160e01b031960e085901b1681526001600160a01b0392831660048201529116602482015260448101859052606401602060405180830381600087803b15801561139d57600080fd5b505af11580156113b1573d6000803e3d6000fd5b505050506040513d601f19601f820116820180604052508101906113d591906136bd565b50604080518781524260208201526001600160a01b038a16917fa52f6a31c2685016b8122ce10ff05478119e019e84baf68e7cb6c14a51c5401a910160405180910390a25050505050505050565b600354604051630e8aef6f60e41b81526001600160a01b038381166004830152600092169063e8aef6f09060240160206040518083038186803b15801561146957600080fd5b505afa15801561147d573d6000803e3d6000fd5b505050506040513d601f19601f820116820180604052508101906114a19190613470565b600354604051630f93eb8960e21b81526001600160a01b03858116600483015292935060009290911690633e4fae249060240160206040518083038186803b1580156114ec57600080fd5b505afa158015611500573d6000803e3d6000fd5b505050506040513d601f19601f820116820180604052508101906115249190613470565b9050336001600160a01b038216146115705760405162461bcd60e51b815260206004820152600f60248201526e29a2292fa727aa2fa82223afa6a3a960891b6044820152606401610542565b60035460405163f3ae241560e01b81526001600160a01b0383811660048301529091169063f3ae24159060240160206040518083038186803b1580156115b557600080fd5b505afa1580156115c9573d6000803e3d6000fd5b505050506040513d601f19601f820116820180604052508101906115ed91906136bd565b156116285760405162461bcd60e51b815260206004820152600b60248201526a20a62922a0a22cafa6a3a960a91b6044820152606401610542565b600354604051630dc35bbb60e41b81526001600160a01b0385811660048301529091169063dc35bbb09060240160206040518083038186803b15801561166d57600080fd5b505afa158015611681573d6000803e3d6000fd5b505050506040513d601f19601f820116820180604052508101906116a59190613470565b6001600160a01b0316336001600160a01b031614156116f95760405162461bcd60e51b815260206004820152601060248201526f282223afa6a3a91ea322a2afa0a2222960811b6044820152606401610542565b600354604051630181a99d60e41b81526001600160a01b0385811660048301523360248301529091169063181a99d09060440160206040518083038186803b15801561174457600080fd5b505afa158015611758573d6000803e3d6000fd5b505050506040513d601f19601f8201168201806040525081019061177c91906136da565b156117bb5760405162461bcd60e51b815260206004820152600f60248201526e05044475f4d47525f4841535f44455608c1b6044820152606401610542565b60035460405163e0d612f560e01b81526001600160a01b03858116600483015283811660248301529091169063e0d612f590604401600060405180830381600087803b15801561180a57600080fd5b505af115801561181e573d6000803e3d6000fd5b505060035460405163026767f960e41b81526001600160a01b0390911692506326767f9091506118559084906001906004016137ca565b600060405180830381600087803b15801561186f57600080fd5b505af1158015611883573d6000803e3d6000fd5b50506003546040516315a43f9760e21b81526001600160a01b038781166004830152600060248301529091169250635690fe5c9150604401600060405180830381600087803b1580156118d557600080fd5b505af11580156118e9573d6000803e3d6000fd5b505060035460405163026767f960e41b81526001600160a01b0390911692506326767f9091506119209085906000906004016137ca565b600060405180830381600087803b15801561193a57600080fd5b505af115801561194e573d6000803e3d6000fd5b50505050806001600160a01b0316826001600160a01b0316846001600160a01b03167f7f57149aeba78202d638dd093439ad6dce0cec8d901ab629f4de822dfda4cf6060405160405180910390a4505050565b6001546001600160a01b031633146119cb5760405162461bcd60e51b8152600401610542906138c1565b6119d481612ddf565b50565b826119e181612ff9565b836119eb8161315c565b846119f581613212565b60005b84811015610764576003546001600160a01b031663078de6f088888885818110611a2457611a246139c6565b9050602002016020810190611a39919061344c565b6040516001600160e01b031960e085901b1681526001600160a01b0392831660048201529116602482015260006044820152606401600060405180830381600087803b158015611a8857600080fd5b505af1158015611a9c573d6000803e3d6000fd5b50505050858582818110611ab257611ab26139c6565b9050602002016020810190611ac7919061344c565b6001600160a01b0316876001600160a01b03167fd2711d35377abbd0a62543245eb8360be9cc3d1296ec87370e0f77c2e9dbb70860405160405180910390a380611b1081613995565b9150506119f8565b6001546001600160a01b03163314611b425760405162461bcd60e51b8152600401610542906138c1565b600280546001600160a01b0319166001600160a01b0383169081179091556040514281527f1a49e1bcd954390033d0a77f7090e458f8d292a5dca5ff1424c84446d37690f99060200160405180910390a250565b81611ba081612ff9565b600354604051630e8aef6f60e41b81526001600160a01b03858116600483015284811692169063e8aef6f09060240160206040518083038186803b158015611be757600080fd5b505afa158015611bfb573d6000803e3d6000fd5b505050506040513d601f19601f82011682018060405250810190611c1f9190613470565b6001600160a01b03161415611c645760405162461bcd60e51b815260206004820152600b60248201526a20a62922a0a22cafa6a3a960a91b6044820152606401610542565b60035460405163f3ae241560e01b81526001600160a01b0384811660048301529091169063f3ae24159060240160206040518083038186803b158015611ca957600080fd5b505afa158015611cbd573d6000803e3d6000fd5b505050506040513d601f19601f82011682018060405250810190611ce191906136bd565b15611d245760405162461bcd60e51b8152602060048201526013602482015272282223afa6a3a92fa0a62922a0a22cafa6a3a960691b6044820152606401610542565b600354604051630dc35bbb60e41b81526001600160a01b0385811660048301529091169063dc35bbb09060240160206040518083038186803b158015611d6957600080fd5b505afa158015611d7d573d6000803e3d6000fd5b505050506040513d601f19601f82011682018060405250810190611da19190613470565b6001600160a01b0316826001600160a01b03161415611df55760405162461bcd60e51b815260206004820152601060248201526f282223afa6a3a91ea322a2afa0a2222960811b6044820152606401610542565b6003546040516315a43f9760e21b81526001600160a01b038581166004830152848116602483015290911690635690fe5c90604401600060405180830381600087803b158015611e4457600080fd5b505af1158015611e58573d6000803e3d6000fd5b50506040516001600160a01b038086169350861691507fc5a835adfe39f09a618f1c4a6effd6c0769bf1d3b3f3b202b32481170f6fe25c90600090a3505050565b600354604051630e8aef6f60e41b81523360048201526000916001600160a01b03169063e8aef6f09060240160206040518083038186803b158015611edd57600080fd5b505afa158015611ef1573d6000803e3d6000fd5b505050506040513d601f19601f82011682018060405250810190611f159190613470565b6001600160a01b0316148015611fa357506003546040516367d2f74b60e11b81523360048201526001600160a01b039091169063cfa5ee969060240160206040518083038186803b158015611f6957600080fd5b505afa158015611f7d573d6000803e3d6000fd5b505050506040513d601f19601f82011682018060405250810190611fa191906136da565b155b611fe45760405162461bcd60e51b815260206004820152601260248201527153594e5f414c52454144595f45584953545360701b6044820152606401610542565b60035460405163f3ae241560e01b81523360048201526001600160a01b039091169063f3ae24159060240160206040518083038186803b15801561202757600080fd5b505afa15801561203b573d6000803e3d6000fd5b505050506040513d601f19601f8201168201806040525081019061205f91906136bd565b1561209e5760405162461bcd60e51b815260206004820152600f60248201526e29a2292fa0a62922a0a22cafa6a3a960891b6044820152606401610542565b60328a10156120de5760405162461bcd60e51b815260206004820152600c60248201526b53594e5f4645453c302e352560a01b6044820152606401610542565b6120ea8a61271061397e565b8b11156121095760405162461bcd60e51b81526004016105429061389e565b6001600160a01b03881661214c5760405162461bcd60e51b815260206004820152600a60248201526904445505f414444523d360b41b6044820152606401610542565b8587111561219c5760405162461bcd60e51b815260206004820152601760248201527f4d41585f4d42525f4445503c4d494e5f4d42525f4445500000000000000000006044820152606401610542565b848611156121ec5760405162461bcd60e51b815260206004820152601760248201527f4d41585f4d42525f4445503e4d41585f544f545f4445500000000000000000006044820152606401610542565b4284116122305760405162461bcd60e51b8152602060048201526012602482015271504153545f4e45575f434c4f53454441544560701b6044820152606401610542565b60035460405163e0d612f560e01b81523360048201819052602482015242916001600160a01b03169063e0d612f590604401600060405180830381600087803b15801561227c57600080fd5b505af1158015612290573d6000803e3d6000fd5b50505050600360009054906101000a90046001600160a01b03166001600160a01b03166324664318338f6040518363ffffffff1660e01b81526004016122d7929190613829565b600060405180830381600087803b1580156122f157600080fd5b505af1158015612305573d6000803e3d6000fd5b50505050600360009054906101000a90046001600160a01b03166001600160a01b0316639f864296338e6040518363ffffffff1660e01b815260040161234c929190613829565b600060405180830381600087803b15801561236657600080fd5b505af115801561237a573d6000803e3d6000fd5b5050600354604051632590f4cb60e21b81526001600160a01b039091169250639643d32c91506123b09033908f90600401613829565b600060405180830381600087803b1580156123ca57600080fd5b505af11580156123de573d6000803e3d6000fd5b505060035460405163017977f760e51b81526001600160a01b039091169250632f2efee091506124149033908e90600401613829565b600060405180830381600087803b15801561242e57600080fd5b505af1158015612442573d6000803e3d6000fd5b50506003546040516316846a4160e11b81523360048201526001600160a01b038d811660248301529091169250632d08d4829150604401600060405180830381600087803b15801561249357600080fd5b505af11580156124a7573d6000803e3d6000fd5b505060035460405163097b803560e41b81526001600160a01b0390911692506397b8035091506124dd9033908c90600401613829565b600060405180830381600087803b1580156124f757600080fd5b505af115801561250b573d6000803e3d6000fd5b5050600354604051635251ba9760e01b81526001600160a01b039091169250635251ba9791506125419033908b90600401613829565b600060405180830381600087803b15801561255b57600080fd5b505af115801561256f573d6000803e3d6000fd5b505060035460405163ba3cc07960e01b81526001600160a01b03909116925063ba3cc07991506125a59033908a90600401613829565b600060405180830381600087803b1580156125bf57600080fd5b505af11580156125d3573d6000803e3d6000fd5b5050600354604051636587783b60e01b81526001600160a01b039091169250636587783b91506126099033908590600401613829565b600060405180830381600087803b15801561262357600080fd5b505af1158015612637573d6000803e3d6000fd5b505060035460405163b3e15a2360e01b81526001600160a01b03909116925063b3e15a23915061266d9033908990600401613829565b600060405180830381600087803b15801561268757600080fd5b505af115801561269b573d6000803e3d6000fd5b50506003546040516362d8decf60e01b81526001600160a01b0390911692506362d8decf91506126d29033906001906004016137ca565b600060405180830381600087803b1580156126ec57600080fd5b505af1158015612700573d6000803e3d6000fd5b50506003546040516365fc5f8b60e11b81526001600160a01b03909116925063cbf8bf1691506127379033906000906004016137ca565b600060405180830381600087803b15801561275157600080fd5b505af1158015612765573d6000803e3d6000fd5b505060035460405163b1e315bf60e01b81526001600160a01b03909116925063b1e315bf915061279b90339088906004016137ca565b600060405180830381600087803b1580156127b557600080fd5b505af11580156127c9573d6000803e3d6000fd5b505060035460405163b50a24a960e01b81526001600160a01b03909116925063b50a24a991506127ff90339087906004016137ca565b600060405180830381600087803b15801561281957600080fd5b505af115801561282d573d6000803e3d6000fd5b5050600354604051630574647160e11b81526001600160a01b039091169250630ae8c8e2915061286390339086906004016137ca565b600060405180830381600087803b15801561287d57600080fd5b505af1158015612891573d6000803e3d6000fd5b505060035460405163026767f960e41b81526001600160a01b0390911692506326767f9091506128c89033906001906004016137ca565b600060405180830381600087803b1580156128e257600080fd5b505af11580156128f6573d6000803e3d6000fd5b50505050886001600160a01b0316336001600160a01b03167f899f30b9cfc8abc7c5ddb4e4adf9f024aa30cc7d5bd8764a70ba9dad01c1ec148f8f8f8f8e8e8e8a8f8f8f8f6040516129a89c9b9a999897969594939291909b8c5260208c019a909a5260408b019890985260608a0196909652608089019490945260a088019290925260c087015260e08601526101008501521515610120840152151561014083015215156101608201526101800190565b60405180910390a350505050505050505050505050565b6001546001600160a01b031633146129e95760405162461bcd60e51b8152600401610542906138c1565b600154600160a01b900460ff1615612a0357612a036105ef565b6002805460ff60a01b1916600160a01b1790556040513381527f8d464c3056e69b8da97814dbfddc04a614af8e35b3f030ba6ac9fbc881f2a35b906020015b60405180910390a1565b82612a5681612ff9565b600354604051636a01efab60e01b81526001600160a01b03868116600483015290911690636a01efab9060240160206040518083038186803b158015612a9b57600080fd5b505afa158015612aaf573d6000803e3d6000fd5b505050506040513d601f19601f82011682018060405250810190612ad391906136da565b612adf9061271061397e565b821115612afe5760405162461bcd60e51b81526004016105429061389e565b60035460405163e32bf38d60e01b81526001600160a01b0386811660048301524292169063e32bf38d9060240160206040518083038186803b158015612b4357600080fd5b505afa158015612b57573d6000803e3d6000fd5b505050506040513d601f19601f82011682018060405250810190612b7b91906136da565b1180612c8a57506003546040516377d5adcb60e11b81526001600160a01b0386811660048301529091169063efab5b969060240160206040518083038186803b158015612bc757600080fd5b505afa158015612bdb573d6000803e3d6000fd5b505050506040513d601f19601f82011682018060405250810190612bff91906136da565b8311158015612c8a575060035460405163168ee49560e11b81526001600160a01b03868116600483015290911690632d1dc92a9060240160206040518083038186803b158015612c4e57600080fd5b505afa158015612c62573d6000803e3d6000fd5b505050506040513d601f19601f82011682018060405250810190612c8691906136da565b8211155b612cd65760405162461bcd60e51b815260206004820152601e60248201527f4e45575f4645453e4f4c445f46454526504153545f434c4f53454441544500006044820152606401610542565b60035460405163048cc86360e31b81526001600160a01b0390911690632466431890612d089087908790600401613829565b600060405180830381600087803b158015612d2257600080fd5b505af1158015612d36573d6000803e3d6000fd5b5050600354604051634fc3214b60e11b81526001600160a01b039091169250639f8642969150612d6c9087908690600401613829565b600060405180830381600087803b158015612d8657600080fd5b505af1158015612d9a573d6000803e3d6000fd5b505060408051868152602081018690526001600160a01b03881693507fe855b322bf4b2766e59ddf4b7399331535f5a3b3a68cfd2929d9ffd23c5e537d925001610a02565b6001546001600160a01b03163314612e095760405162461bcd60e51b8152600401610542906138c1565b6001600160a01b038116612e6e5760405162461bcd60e51b815260206004820152602660248201527f4f776e61626c653a206e6577206f776e657220697320746865207a65726f206160448201526564647265737360d01b6064820152608401610542565b6001546040516001600160a01b038084169216907f8be0079c531659141344cd1fd0a4f28419497f9722a3daafe3b4186f6b6457e090600090a3600180546001600160a01b0319166001600160a01b0392909216919091179055565b81612ed481612ff9565b82612ede8161315c565b60035460405163017977f760e51b81526001600160a01b0390911690632f2efee090612f109087908790600401613829565b600060405180830381600087803b158015612f2a57600080fd5b505af1158015612f3e573d6000803e3d6000fd5b505060035460405163e396ae9b60e01b81526001600160a01b038881166004830181905294507f40c2e23cd1767d65dac1fcf96c8e132ea1a63130595432bcb7332354ec10e23d93508792169063e396ae9b9060240160206040518083038186803b158015612fac57600080fd5b505afa158015612fc0573d6000803e3d6000fd5b505050506040513d601f19601f82011682018060405250810190612fe491906136da565b60408051928352602083019190915201610a02565b600354604051630e8aef6f60e41b81526001600160a01b0383811660048301529091169063e8aef6f09060240160206040518083038186803b15801561303e57600080fd5b505afa158015613052573d6000803e3d6000fd5b505050506040513d601f19601f820116820180604052508101906130769190613470565b6001600160a01b0316336001600160a01b0316146119d45760405162461bcd60e51b815260206004820152600b60248201526a29a2292fa727aa2fa6a3a960a91b6044820152606401610542565b600154600160a01b900460ff166131145760405162461bcd60e51b815260206004820152601460248201527314185d5cd8589b194e881b9bdd081c185d5cd95960621b6044820152606401610542565b6001805460ff60a01b191690557f5db9ee0a495bf2e6ff9c91a7834c1ba4fdd244a5e8aa4e537bd38aeae4b073aa335b6040516001600160a01b039091168152602001612a42565b60035460405163172a8c1f60e31b81526001600160a01b0383811660048301529091169063b95460f89060240160206040518083038186803b1580156131a157600080fd5b505afa1580156131b5573d6000803e3d6000fd5b505050506040513d601f19601f820116820180604052508101906131d991906136bd565b6119d45760405162461bcd60e51b815260206004820152600a60248201526914d65397d0d313d4d15160b21b6044820152606401610542565b6003546040516331dcbbdb60e21b81526001600160a01b0383811660048301529091169063c772ef6c9060240160206040518083038186803b15801561325757600080fd5b505afa15801561326b573d6000803e3d6000fd5b505050506040513d601f19601f8201168201806040525081019061328f91906136bd565b6119d45760405162461bcd60e51b815260206004820152601260248201527110531313d5d31254d517d11254d05093115160721b6044820152606401610542565b600154600160a01b900460ff16156132fa5760405162461bcd60e51b815260040161054290613874565b6001805460ff60a01b1916600160a01b1790557f62e78cea01bee320cd4e420270b5ea74000d11b0c9f74754ebdbfc544b05a2586131443390565b60035460405163172a8c1f60e31b81526001600160a01b0383811660048301529091169063b95460f89060240160206040518083038186803b15801561337a57600080fd5b505afa15801561338e573d6000803e3d6000fd5b505050506040513d601f19601f820116820180604052508101906133b291906136bd565b156119d45760405162461bcd60e51b815260206004820152600860248201526729aca72fa7a822a760c11b6044820152606401610542565b60008083601f8401126133fc57600080fd5b50813567ffffffffffffffff81111561341457600080fd5b6020830191508360208260051b850101111561342f57600080fd5b9250929050565b803560ff8116811461344757600080fd5b919050565b60006020828403121561345e57600080fd5b8135613469816139dc565b9392505050565b60006020828403121561348257600080fd5b8151613469816139dc565b600080604083850312156134a057600080fd5b82356134ab816139dc565b915060208301356134bb816139dc565b809150509250929050565b6000806000606084860312156134db57600080fd5b83356134e6816139dc565b925060208401356134f6816139dc565b929592945050506040919091013590565b60008060006040848603121561351c57600080fd5b8335613527816139dc565b9250602084013567ffffffffffffffff81111561354357600080fd5b61354f868287016133ea565b9497909650939450505050565b60008060008060006060868803121561357457600080fd5b853561357f816139dc565b9450602086013567ffffffffffffffff8082111561359c57600080fd5b6135a889838a016133ea565b909650945060408801359150808211156135c157600080fd5b506135ce888289016133ea565b969995985093965092949392505050565b600080604083850312156135f257600080fd5b82356135fd816139dc565b915060208301356134bb816139f1565b6000806000806080858703121561362357600080fd5b843561362e816139dc565b93506020850135925061364360408601613436565b915061365160608601613436565b905092959194509250565b6000806040838503121561366f57600080fd5b823561367a816139dc565b946020939093013593505050565b60008060006060848603121561369d57600080fd5b83356136a8816139dc565b95602085013595506040909401359392505050565b6000602082840312156136cf57600080fd5b8151613469816139f1565b6000602082840312156136ec57600080fd5b5051919050565b6000806000806000806000806000806000806101808d8f03121561371657600080fd5b8c359b5060208d01359a5060408d0135995060608d0135985060808d013561373d816139dc565b975060a08d0135965060c08d0135955060e08d013594506101008d013593506101208d013561376b816139f1565b92506101408d013561377c816139f1565b91506101608d013561378d816139f1565b809150509295989b509295989b509295989b565b81835281816020850137506000828201602090810191909152601f909101601f19169091010190565b6001600160a01b039290921682521515602082015260400190565b6001600160a01b038616815260606020820181905260009061380a90830186886137a1565b828103604084015261381d8185876137a1565b98975050505050505050565b6001600160a01b03929092168252602082015260400190565b6040815260006138566040830186886137a1565b82810360208401526138698185876137a1565b979650505050505050565b60208082526010908201526f14185d5cd8589b194e881c185d5cd95960821b604082015260600190565b602080825260099082015268464545533e3130302560b81b604082015260600190565b6020808252818101527f4f776e61626c653a2063616c6c6572206973206e6f7420746865206f776e6572604082015260600190565b6000808335601e1984360301811261390d57600080fd5b83018035915067ffffffffffffffff82111561392857600080fd5b60200191503681900382131561342f57600080fd5b60008261395a57634e487b7160e01b600052601260045260246000fd5b500490565b6000816000190483118215151615613979576139796139b0565b500290565b600082821015613990576139906139b0565b500390565b60006000198214156139a9576139a96139b0565b5060010190565b634e487b7160e01b600052601160045260246000fd5b634e487b7160e01b600052603260045260246000fd5b6001600160a01b03811681146119d457600080fd5b80151581146119d457600080fdfea2646970667358221220c2a7445ac40fc8a9d5fcff1242fddfca6cd08ba4366ab04fd1c41289d04fa75664736f6c63430008050033",
  "immutableReferences": {},
  "source": "// SPDX-License-Identifier: UNLICENSED\n\npragma solidity ^0.8.0;\n\nimport \"@openzeppelin/contracts/token/ERC20/utils/SafeERC20.sol\";\nimport \"./SyndicateClosedEndFundLogic.sol\";\n\n/// @author Syndicate Inc.\n/// @notice General syndicate manager controls\ncontract SyndicateClosedEndFundManagerLogicV0 is SyndicateClosedEndFundLogic {\n    using SafeERC20 for IERC20;\n\n    /// @notice Used to initialize the Syndicate contract.\n    constructor(address storeAddress)\n        SyndicateClosedEndFundLogic(storeAddress)\n    {}\n\n    // Events-------------------------------------------------------------------\n\n    /// @notice Emit an event when a manager creates a Syndicate\n    /// @dev This event can be used to list all Syndicates on the platform\n    event createdSyndicate(\n        address indexed syndicateAddress,\n        uint256 managerManagementFeeBasisPoints,\n        uint256 managerPerformanceFeeBasisPoints,\n        uint256 syndicateProfitShareBasisPoints,\n        uint256 numMembersMax,\n        address indexed depositERC20Address,\n        uint256 depositMinMember,\n        uint256 depositMaxMember,\n        uint256 depositMaxTotal,\n        uint256 dateCreation,\n        uint256 dateClose,\n        bool allowlistEnabled,\n        bool modifiable,\n        bool transferable\n    );\n\n    /// @notice Emit an event when a manager sets a new pending manager\n    event managerSetterManagerPending(\n        address indexed syndicateAddress,\n        address indexed managerPendingAddress\n    );\n\n    /// @notice Emit an event when a pending manager confirms management of a\n    /// Syndicate\n    event managerPendingConfirmed(\n        address indexed syndicateAddress,\n        address indexed oldManager,\n        address indexed newManager\n    );\n\n    /// @notice Emit an event when a manager sets a new fee address\n    event managerSetterManagerFeeAddress(\n        address indexed syndicateAddress,\n        address indexed managerFeeAddress\n    );\n\n    /// @notice Emit an event when a manager sets new manager fees\n    event managerSetterManagerFees(\n        address indexed syndicateAddress,\n        uint256 managerManagementFeeBasisPoints,\n        uint256 managerPerformanceFeeBasisPoints\n    );\n\n    /// @notice Emit an event when a manager sets a new Syndicate profit share\n    event managerSetterSyndicateProfitShare(\n        address indexed syndicateAddress,\n        uint256 syndicateProfitShareBasisPoints\n    );\n\n    /// @notice Emit an event when a manager assesses a management fee\n    event managerAssessedManagementFee(\n        address indexed syndicateAddress,\n        uint256 managementFeeAmount,\n        uint256 timestamp\n    );\n\n    /// @notice Emit an event when a manager sets a new maximum number of\n    /// allowed members\n    event managerSetterNumMembersMax(\n        address indexed syndicateAddress,\n        uint256 numMembersMax,\n        uint256 numMembersCurrent\n    );\n\n    /// @notice Emit an event when a manager adds a member's wallet address to\n    /// the allowlist\n    /// @dev These events can be used to notify a member off-chain that their\n    /// address is now allowed\n    /// @dev The timestamp is not critical here and in the below events, so it\n    /// is not included to save on gas costs. When a timestamp is necessary, it\n    /// can be pulled by evaluating the block that an event was contained in\n    /// (since the timestamp is just the block.timestamp)\n    event managerAllowedAddresses(\n        address indexed syndicateAddress,\n        address indexed memberAddress\n    );\n\n    /// @notice Emit an event when a manager removes a member's wallet address\n    /// from the allowlist\n    /// @dev These events can be used to notify a member off-chain that their\n    /// address is now blocked (e.g. removed from the allowlist)\n    event managerBlockedAddress(\n        address indexed syndicateAddress,\n        address indexed memberAddress\n    );\n\n    /// @notice Emit an event when a manager sets metadata for a Syndicate\n    event managerSetterMetadata(\n        address indexed syndicateAddress,\n        string metadataKey,\n        string metadataValue\n    );\n\n    /// @notice Emit an event when a manager associates a memo with a Syndicate\n    /// @dev Memos emitted via this event are not stored in the Syndicate.\n    /// Values that need to be stored should instead be passed to\n    /// `managerSetMetadata()`, which also emits the metadata as an event.\n    event managerEmittedMemo(\n        address indexed syndicateAddress,\n        address indexed managerCurrent,\n        bytes32 hexadecimalHash,\n        uint8 hashFunction,\n        uint8 hashSize,\n        uint256 timestamp\n    );\n\n    /// @notice Emit an event when a manager changes the close date\n    event managerSetterDateClose(\n        address indexed syndicateAddress,\n        uint256 dateclose\n    );\n\n    // Functions----------------------------------------------------------------\n\n    /// @notice Used to create a Syndicate with the address of `msg.sender` and\n    /// initialize `msg.sender` as the Syndicate manager.\n    /// @param managerManagementFeeBasisPoints The management fee in basis\n    /// points. A standard structure would be a 2% management fee (200 basis\n    /// points). This is displayed in the UI as \"Expected Annual Operating Fees\"\n    /// on the Create Syndicate page.\n    /// @param managerPerformanceFeeBasisPoints The performance fee in basis\n    /// points. A standard structure would be a 20% performance fee (2000 basis\n    /// points). This is displayed in the UI as \"Profit Share to Syndicate Lead\"\n    /// on the Create Syndicate page.\n    /// @param syndicateProfitShareBasisPoints The profit share that is sent to\n    /// the Syndicate treasury. All fees are entered in basis points, or\n    /// fractional units of the BASIS_POINTS_DENOMINATOR (set to 10000). For\n    /// example, the minimum profit share of 0.50% should be passed in as 50\n    /// basis points (since it is 0.50% * 10000). This means that the max\n    /// precision is 0.01% (1 basis point).\n    /// @param numMembersMax The max number of members that the Syndicate can\n    /// accept as depositors\n    /// @param depositERC20Address The address of the ERC20 used for\n    /// deposits (e.g. DAI or USDC's contract addresses) and withdrawals.\n    /// Stablecoins are strongly recommended, especially for funds that are open\n    /// for an extended period of time. (Otherwise one member could deposit 1\n    /// token when it is priced at $100 and another member could deposit 1\n    /// token when it is priced at $200, but their percent ownership of the\n    /// fund would be the same. Stablecoins prevent this because their value is\n    /// consistent.)\n    /// @param depositMinMember The min deposit per member wallet address.\n    /// @param depositMaxMember The max deposit per member wallet address.\n    /// @param depositMaxTotal The max deposit amount for the fund/Syndicate.\n    /// @param dateClose The date that the Syndicate will automatically close in\n    /// UNIX time, in seconds.\n    /// @param allowlistEnabled True if the Syndicate ONLY allows deposits\n    /// from allowed addresses. False if any (accredited) member can deposit.\n    /// Even if this is false, the manager can always reject a contribution\n    /// before a Syndicate closes with `rejectDepositFormember()`.\n    /// @param modifiable True if a manager can manually modify members'\n    /// deposit and distribution amounts. False if these values can only be\n    /// altered by the contract deposit and withdrawal functions.\n    /// A manager may wish to manually modify these values to reconcile\n    /// off-chain agreements (e.g. advisory shares, which do not have a deposit\n    /// associated with them) or to correct for user error (for example, a user\n    /// sends their deposit to the manager's wallet directly instead of using\n    /// the smart contract). This choice is permanent--once set at creation, it\n    /// cannot be changed.\n    /// True is recommended for smaller syndicates where every member trusts\n    /// the manager, or for cases where a Syndicate is used as a cap table to\n    /// track ownership agreements without necessarily exchanging deposits.\n    /// False is recommended for large Syndicates where the members may desire\n    /// more transparency, or if a smart contract is being used in place of a\n    /// manager's wallet and trustless operation is desired.\n    /// @param transferable True if a member can transfer a portion of their\n    /// deposit to another address without manager approval. False if transfers\n    /// can only be initiated by the manager of a modifiable Syndicate.\n    /// All transfers must occur before distributions are set such that we only\n    /// update values in deposit mapping structs. A manager's ability to initiate\n    /// a transfer is determined by `modifiable` and is independent to\n    /// `transferable`. Member-initiated transfers may have regulatory\n    /// concerns (e.g. by allowing a transfer to a non-accredited investor),\n    /// while manager-initiated transfers are safe for internal bookkeeping.\n    /// True is recommended for Syndicates that want to grant greater control\n    /// over holdings to its members.\n    /// False is recommended for Syndicates that are under external regulations\n    /// that make ownership transfers legally problematic and require manager\n    /// oversight.\n    /// @notice The `msg.sender` address calling `createSyndicate()`\n    /// becomes permanently associated with the Syndicate. Transferring\n    /// management of the Syndicate later will change the `managerCurrent` and\n    /// the address at which deposits are received, but will NOT change the\n    /// `syndicateAddress`, which permanently identifies the fund.\n    /// @notice Syndicate does **not** support tokens that rebalance (e.g.\n    /// Ampleforth). This is because Syndicate requires that the deposit token's\n    /// units are constant.\n    /// @notice For tokens that take fees, Syndicate uses the after-fee amounts\n    /// for recording deposits and the before-fee amounts for recording\n    /// withdrawals.\n    function createSyndicate(\n        uint256 managerManagementFeeBasisPoints,\n        uint256 managerPerformanceFeeBasisPoints,\n        uint256 syndicateProfitShareBasisPoints,\n        uint256 numMembersMax,\n        address depositERC20Address,\n        uint256 depositMinMember,\n        uint256 depositMaxMember,\n        uint256 depositMaxTotal,\n        uint256 dateClose,\n        bool allowlistEnabled,\n        bool modifiable,\n        bool transferable\n    ) public {\n        // This requirement is only in place for a Certora Prover check; the\n        // condition should never be met when the contract is deployed to a\n        // real network.\n        // require(msg.sender != address(0), \"ERR_CANT_HOLD_FUNDS_AT_ZERO\");\n\n        // address(0) is the default value for an address in Solidity and 0 is\n        // the default value for a uint256 in Solidity. These values are\n        // overwritten when a Syndicate is created for the first time.\n        // Therefore, if these values have not been overwritten and are still\n        // address(0) and 0 respectively, the Syndicate has not yet been\n        // created.\n        // HIGH RISK: Without this line, a Syndicate can be overwritten and the\n        // deposits can be redirected\n        require(\n            store.managerCurrent(msg.sender) == address(0) &&\n                store.dateCreation(msg.sender) == 0,\n            \"SYN_ALREADY_EXISTS\"\n        );\n\n        // A manager can only manage one Syndicate total. If this value is true,\n        // they are already managing a Syndicate.\n        require(store.isManager(msg.sender) == false, \"SDR_ALREADY_MGR\");\n\n        // Check that the minimum profit share (0.50%, or 50 basis points) to\n        // Syndicate Protocol is met\n        require(syndicateProfitShareBasisPoints >= 50, \"SYN_FEE<0.5%\");\n\n        // Check that the maximum profit share (99.5%, or 9950 basis points) to\n        // the manager is respected\n        require(\n            managerPerformanceFeeBasisPoints <=\n                BASIS_POINTS_DENOMINATOR - syndicateProfitShareBasisPoints,\n            \"FEES>100%\"\n        );\n\n        // Make sure that a depositERC20Address is set, as it cannot be changed\n        // after Syndicate creation\n        require(depositERC20Address != address(0), \"DEP_ADDR=0\");\n\n        // Check that depositMinMember <= depositMaxMember <= depositMaxTotal\n        require(depositMinMember <= depositMaxMember, \"MAX_MBR_DEP<MIN_MBR_DEP\");\n        require(depositMaxMember <= depositMaxTotal, \"MAX_MBR_DEP>MAX_TOT_DEP\");\n\n        // Check that the dateClose is in the future\n        require(dateClose > block.timestamp, \"PAST_NEW_CLOSEDATE\");\n\n        // We'll reuse this block.timestamp in both the syndicateValues struct\n        // and the event, so it's helpful to store it here for consistency\n        uint256 dateCreation = block.timestamp;\n\n        // Initialize applicable attributes in syndicateValues\n        store.setManagerCurrent(msg.sender, msg.sender);\n        store.setManagerManagementFeeBasisPoints(\n            msg.sender,\n            managerManagementFeeBasisPoints\n        );\n        store.setManagerPerformanceFeeBasisPoints(\n            msg.sender,\n            managerPerformanceFeeBasisPoints\n        );\n        store.setSyndicateProfitShareBasisPoints(\n            msg.sender,\n            syndicateProfitShareBasisPoints\n        );\n        store.setNumMembersMax(msg.sender, numMembersMax);\n        store.setDepositERC20Address(msg.sender, depositERC20Address);\n        store.setDepositMinMember(msg.sender, depositMinMember);\n        store.setDepositMaxMember(msg.sender, depositMaxMember);\n        store.setDepositMaxTotal(msg.sender, depositMaxTotal);\n        store.setDateCreation(msg.sender, dateCreation);\n        store.setDateClose(msg.sender, dateClose);\n        store.setOpen(msg.sender, true);\n        store.setDistributing(msg.sender, false);\n        store.setAllowlistEnabled(msg.sender, allowlistEnabled);\n        store.setModifiable(msg.sender, modifiable);\n        store.setTransferable(msg.sender, transferable);\n        store.setIsManager(msg.sender, true);\n\n        emit createdSyndicate(\n            msg.sender,\n            managerManagementFeeBasisPoints,\n            managerPerformanceFeeBasisPoints,\n            syndicateProfitShareBasisPoints,\n            numMembersMax,\n            depositERC20Address,\n            depositMinMember,\n            depositMaxMember,\n            depositMaxTotal,\n            dateCreation,\n            dateClose,\n            allowlistEnabled,\n            modifiable,\n            transferable\n        );\n    }\n\n    /// @notice Used by the current manager to nominate a new manager\n    /// @param syndicateAddress The address of the Syndicate\n    /// @param managerPendingAddress The address of the new manager\n    /// @notice The new manager will be pending until they call\n    /// `managerPendingConfirm()`. This ensures that they have control over\n    /// their wallet and actively agree to manage the fund.\n    /// @notice Changing a manager does not change the `syndicateAddress`. The\n    /// `syndicateAddress` is permanent but has no effect beyond acting as an\n    /// identifier.\n    /// @notice To reset a `managerPending` request, just set the\n    /// `managerPending` to be `address(0)`. This is the default value for all\n    /// addresses.\n    function managerSetManagerPending(\n        address syndicateAddress,\n        address managerPendingAddress\n    ) public onlyManager(syndicateAddress) {\n        // The current manager cannot set themselves as the pending manager.\n        // They already manage the Syndicate, so this action would be\n        // unnecessary\n        require(\n            store.managerCurrent(syndicateAddress) != managerPendingAddress,\n            \"ALREADY_MGR\"\n        );\n\n        // Every manager can only manage one Syndicate\n        require(store.isManager(managerPendingAddress) == false, \"PDG_MGR_ALREADY_MGR\");\n\n        // The manager must set a fee address that is different from the\n        // manager's address. This is to avoid commingling the Syndicate's\n        // assets with the manager's profits\n        require(\n            managerPendingAddress != store.managerFeeAddress(syndicateAddress),\n            \"PDG_MGR=FEE_ADDR\"\n        );\n\n        store.setManagerPending(syndicateAddress, managerPendingAddress);\n\n        emit managerSetterManagerPending(\n            syndicateAddress,\n            managerPendingAddress\n        );\n    }\n\n    /// @notice This is a helper function that can be used by a pending manager\n    /// to simultaneously confirm management of a Syndicate and update the\n    /// manager fee address. This ensures that there is no gap in setting a new\n    /// fee address after taking ownership of a Syndicate.\n    /// @param syndicateAddress The address of the Syndicate.\n    /// @param managerFeeAddress The address where manager fees should be sent.\n    function managerPendingConfirmAndSetManagerFeeAddress(\n        address syndicateAddress,\n        address managerFeeAddress\n    ) public {\n        // Will fail if `msg.sender` is not the `managerPending` of the\n        // Syndicate\n        managerPendingConfirm(syndicateAddress);\n        // `managerSetManagerFeeAddress()` has a `onlyManager()`\n        // modifier so this will fail if `msg.sender` was not made the\n        // `managerCurrent` in the previous step.\n        managerSetManagerFeeAddress(syndicateAddress, managerFeeAddress);\n    }\n\n    /// @notice Used by the pending manager to claim current manager status\n    /// @param syndicateAddress The address of the Syndicate\n    /// @notice The pending manager is identified by `msg.sender`, which proves\n    /// that they have control over their address\n    /// @notice Changing a manager does not change the syndicateAddress. The\n    /// syndicateAddress is permanent but has no effect beyond acting as an\n    /// identifier.\n    function managerPendingConfirm(address syndicateAddress) public {\n        // Local variables with a value type (like addresses) are stored in\n        // memory. We don't need to (and in fact, cannot) specify this\n        // explicitly for addresses\n        address oldCurrentManager = store.managerCurrent(syndicateAddress);\n        address newCurrentManager = store.managerPending(syndicateAddress);\n\n        // HIGH RISK: Without this line, anyone could steal a Syndicate from a\n        // managerPending\n        require(msg.sender == newCurrentManager, \"SDR_NOT_PDG_MGR\");\n\n        // These checks were already performed when the managerPending was\n        // nominated, but it's worth ensuring that they still hold (a\n        // managerPending could have been eligible at nomination, but may have\n        // become the manager of another Syndicate before confirmation, for\n        // example).\n        require(store.isManager(newCurrentManager) == false, \"ALREADY_MGR\");\n        require(msg.sender != store.managerFeeAddress(syndicateAddress), \"PDG_MGR=FEE_ADDR\");\n\n        // If the `managerPending` made deposits to the Syndicate previously,\n        // they must withdraw all of their funds before they become the manager.\n        // `managerCurrent` is blocked from accessing `memberDeposit()`\n        // and `memberWithdraw()` to prevent modification of ownership\n        // stakes without transferring capital.\n        require(store.depositMember(syndicateAddress, msg.sender) == 0, \"PDG_MGR_HAS_DEP\");\n\n        // We confirm the manager as `syndicateValues[syndicateAddress].\n        // managerPending` (stored as `newCurrentManager`) instead of\n        // `msg.sender` in order to prevent the fund being stolen by\n        // `msg.sender` in the case that our checks above were insufficient.\n        store.setManagerCurrent(syndicateAddress, newCurrentManager);\n        store.setIsManager(newCurrentManager, true);\n\n        // Cleanup/bookkeeping: reset the `managerPending` value and remove the\n        // old manager from the current manager list\n        store.setManagerPending(syndicateAddress, address(0));\n        store.setIsManager(oldCurrentManager, false);\n\n        emit managerPendingConfirmed(\n            syndicateAddress,\n            oldCurrentManager,\n            newCurrentManager\n        );\n    }\n\n    /// @notice Used by a manager to set the address where fees should be sent\n    /// @param syndicateAddress The address of the Syndicate\n    /// @param managerFeeAddress The address where manager fees should be sent.\n    /// This cannot be the current or pending Syndicate manager\n    function managerSetManagerFeeAddress(\n        address syndicateAddress,\n        address managerFeeAddress\n    ) public onlyManager(syndicateAddress) {\n        // The manager must set a fee address that is different from the\n        // manager's address. This is to avoid commingling the Syndicate's\n        // assets with the manager's profits. The fee address cannot be 0.\n        require(\n            managerFeeAddress != address(0) &&\n                managerFeeAddress != store.managerCurrent(syndicateAddress) &&\n                managerFeeAddress != store.managerPending(syndicateAddress),\n            \"FEE_ADDR=0\"\n        );\n        store.setManagerFeeAddress(syndicateAddress, managerFeeAddress);\n        emit managerSetterManagerFeeAddress(\n            syndicateAddress,\n            managerFeeAddress\n        );\n    }\n\n    /// @notice Used by a manager to set their management and performance fees\n    /// @param syndicateAddress The address of the Syndicate to set fees for\n    /// @param managerManagementFeeBasisPoints The management fee of a Syndicate\n    /// manager, calculated per year (e.g. 2% per year, which would be passed in\n    /// as 200 basis points because the fees are adjusted by\n    /// BASIS_POINTS_DENOMINATOR, which is set to 10000)\n    /// @param managerPerformanceFeeBasisPoints The performance fee of a\n    /// Syndicate manager, received when a member makes a withdrawal (e.g. 20%\n    /// percent per distribution upon withdrawal, which would be passed in as\n    /// 2000 basis points)\n    /// @dev Manager fee INCREASES are only accepted while the Syndicate is\n    /// open; after the Syndicate is closed, fees can only be decreased. This\n    /// is to prevent managers from changing fees on members without giving\n    /// them recourse to act on those fee changes (i.e. the opportunity to\n    /// revoke their deposit).\n    /// @dev In the future, we will include a timelock on all changes to raise\n    /// fees. Since the current architecture requires trust in a manager because\n    /// the manager holds the funds, this risk is one that we are willing to\n    /// accept in the short-term.\n    /// @dev For the current version of this contract, the management fee must\n    /// be assessed manually by `managerAssessManagementFee()`. In\n    /// the future, the management fee will be automatically assessed yearly\n    /// (or another specified time interval) at the rate specified by\n    /// `managerManagementFeeBasisPoints` once we support asset management via\n    /// smart contracts.\n    function managerSetManagerFees(\n        address syndicateAddress,\n        uint256 managerManagementFeeBasisPoints,\n        uint256 managerPerformanceFeeBasisPoints\n    ) public onlyManager(syndicateAddress) {\n        // Check that the maximum profit share (99.5%, or 9950 basis points) to\n        // the manager is respected\n        require(\n            managerPerformanceFeeBasisPoints <=\n                BASIS_POINTS_DENOMINATOR -\n                    store.syndicateProfitShareBasisPoints(syndicateAddress),\n            \"FEES>100%\"\n        );\n\n        // If either of the fees is being increased, the Syndicate must still\n        // be open.\n        require(\n            store.dateClose(syndicateAddress) > block.timestamp ||\n                (managerManagementFeeBasisPoints <=\n                    store.managerManagementFeeBasisPoints(syndicateAddress) &&\n                    managerPerformanceFeeBasisPoints <=\n                    store.managerPerformanceFeeBasisPoints(syndicateAddress)),\n            \"NEW_FEE>OLD_FEE&PAST_CLOSEDATE\"\n        );\n\n        store.setManagerManagementFeeBasisPoints(\n            syndicateAddress,\n            managerManagementFeeBasisPoints\n        );\n        store.setManagerPerformanceFeeBasisPoints(\n            syndicateAddress,\n            managerPerformanceFeeBasisPoints\n        );\n\n        emit managerSetterManagerFees(\n            syndicateAddress,\n            managerManagementFeeBasisPoints,\n            managerPerformanceFeeBasisPoints\n        );\n    }\n\n    /// @notice Used by a manager to set the profit share that goes to Syndicate\n    /// @param syndicateAddress The address of the Syndicate to set fees for\n    /// @param syndicateProfitShareBasisPoints The profit share that is sent to\n    /// the Syndicate treasury. All fees are entered in basis points, or\n    /// fractional units of the BASIS_POINTS_DENOMINATOR (set to 10000). For\n    /// example, the minimum profit share of 0.50% should be passed in as 50\n    /// basis points (since it is 0.50% * 10000). This means that the max\n    /// precision is 0.01% (1 basis point).\n    /// @notice The Syndicate profit share must be at least 0.50% (50 basis\n    /// points) and at most 100% (10000 basis points) - the manager's\n    /// performance fee.\n    function managerSetSyndicateProfitShare(\n        address syndicateAddress,\n        uint256 syndicateProfitShareBasisPoints\n    ) public onlyManager(syndicateAddress) {\n        // Check that the minimum profit share (0.50%, or 50 basis points) to\n        // Syndicate Protocol is met\n        require(syndicateProfitShareBasisPoints >= 50, \"SYN_FEE<0.5%\");\n\n        // Check that the profit share to Syndicate + the profit share to the\n        // manager does not exceed 100%, i.e. 10000 basis points\n        require(\n            syndicateProfitShareBasisPoints <=\n                BASIS_POINTS_DENOMINATOR -\n                    store.managerPerformanceFeeBasisPoints(syndicateAddress),\n            \"FEES>100%\"\n        );\n\n        store.setSyndicateProfitShareBasisPoints(\n            syndicateAddress,\n            syndicateProfitShareBasisPoints\n        );\n\n        emit managerSetterSyndicateProfitShare(\n            syndicateAddress,\n            syndicateProfitShareBasisPoints\n        );\n    }\n\n    /// @notice Used by a manager to assess a management fee. This can be used\n    /// to compensate a manager (in addition to the performance fee, which is\n    /// triggered automatically) or to pay expenses for a Syndicate.\n    /// @param syndicateAddress The address of the Syndicate\n    /// @param amount The management fee that should be deducted\n    /// from the Syndicate's holdings of the specified token. Note that this\n    /// management fee is a specific amount, not a percentage.\n    /// @dev This function is purely for transparency. A manager could also\n    /// assess a management fee by transferring assets directly from the\n    /// manager's wallet to the management fee address, but that can be seen as\n    /// less transparent because no event is emitted via the Syndicate contract.\n    /// @dev This management fee currently does **not** leverage\n    /// `managerManagementFeeBasisPoints` in any way. For now, the manager\n    /// should calculate and assess the management fee manually based on their\n    /// agreement with members. In the future, once we have asset management\n    /// built into our contract, we can assess management fees automatically\n    /// every year (or other specified time interval).\n    /// @dev Assessed management fees are not stored in the contract and should\n    /// instead be reconstructed from the events\n    function managerAssessManagementFee(\n        address syndicateAddress,\n        address feeERC20Address,\n        uint256 amount\n    )\n        public\n        whenNotPaused()\n        onlyManager(syndicateAddress)\n        onlyClosed(syndicateAddress)\n    {\n        // The manager cannot assess a management fee of 0\n        require(amount > 0, \"FEE<=0\");\n        \n        // The manager fee address must be set prior to assessing a management fee\n        require(store.managerFeeAddress(syndicateAddress) != address(0), \"FEE_ADDR_NOT_SET\");\n\n        uint256 amountToSyndicate = (amount *\n            store.syndicateProfitShareBasisPoints(syndicateAddress)) /\n            BASIS_POINTS_DENOMINATOR;\n\n        uint256 amountToManager = amount - amountToSyndicate;\n\n        IERC20 feeERC20 = IERC20(feeERC20Address);\n\n        // Syndicate Protocol should get paid first, then the manager. If the\n        // manager wants to get paid, they need to set a proper allowance and\n        // not let the first transfer fail. Note that if any one transfer\n        // reverts, the entire transaction will safely revert. This ordering\n        // just accounts for ERC-20s that might have used a custom\n        // implementation and not revert upon a `transferFrom()` that exceeds\n        // the balance or the allowance.\n        // HIGH RISK: If we did not use `msg.sender`, this function could be\n        // used to divert funds to users other than the manager. Because the\n        // `onlyManager()` modifier is used, `msg.sender` will\n        // always be the `managerCurrent`. If we referenced the managerCurrent\n        // here instead of the `msg.sender`, then a user who managed to assign\n        // someone else as the `managerCurrent` could steal funds from them.\n        // While this should be impossible because of the claim process for\n        // pending managers, referencing `msg.sender` instead provides a second\n        // line of defense as an attacker can then only send funds from\n        // themselves to the manager fee address.\n\n        // We don't need a return statement on `transferFrom()`. From the\n        // SafeERC20 documentation at https://github.com/OpenZeppelin/openzeppelin-contracts-upgradeable/blob/master/contracts/token/ERC20/utils/SafeERC20Upgradeable.sol\n        // Wrappers around ERC20 operations that throw on failure (when the\n        // token contract returns false). Tokens that return no value (and\n        // instead revert or throw on failure) are also supported, non-reverting\n        // calls are assumed to be successful.\n        feeERC20.transferFrom(\n            store.managerCurrent(syndicateAddress),\n            syndicateFeeAddress,\n            amountToSyndicate\n        );\n        feeERC20.transferFrom(\n            msg.sender,\n            store.managerFeeAddress(syndicateAddress),\n            amountToManager\n        );\n        emit managerAssessedManagementFee(\n            syndicateAddress,\n            amount,\n            block.timestamp\n        );\n    }\n\n    /// @notice Set the maximum members that can contribute to the Syndicate\n    /// @param syndicateAddress The address of the Syndicate\n    /// @param numMembersMax The maximum number of members\n    function managerSetNumMembersMax(\n        address syndicateAddress,\n        uint256 numMembersMax\n    ) public onlyManager(syndicateAddress) onlyOpen(syndicateAddress) {\n        store.setNumMembersMax(syndicateAddress, numMembersMax);\n\n        emit managerSetterNumMembersMax(\n            syndicateAddress,\n            numMembersMax,\n            store.numMembersCurrent(syndicateAddress)\n        );\n    }\n\n    /// @notice This is a helper function that can be used by a manager to\n    /// freeze deposits from new members (allowing only supplemental deposits\n    /// from current members) while allowing replacements if existing members\n    /// drop out.\n    /// @param syndicateAddress The address of the Syndicate\n    function managerSetNumMembersMaxToCurrent(address syndicateAddress)\n        public\n        onlyManager(syndicateAddress)\n        onlyOpen(syndicateAddress)\n    {\n        managerSetNumMembersMax(\n            syndicateAddress,\n            store.numMembersCurrent(syndicateAddress)\n        );\n    }\n\n    /// @notice Used by a manager to change the close date of a Syndicate.\n    /// @param syndicateAddress The address of the Syndicate\n    /// @param dateClose The new close date, which must be in the future.\n    /// @notice After `dateClose`, member deposits and withdrawals are\n    /// disabled, but the manager can still reject member deposits or override\n    /// member deposits (in the case of a modifiable Syndicate). However,\n    /// distributions cannot be claimed until the Syndicate is closed by a call\n    /// to `managerCloseSyndicate()`.\n    /// @notice Until the manager closes the Syndicate to enable distributions,\n    /// `dateClose` can be pushed into the future, which will reallow member\n    /// deposits and withdrawals.\n    function managerSetDateClose(address syndicateAddress, uint256 dateClose)\n        public\n        onlyManager(syndicateAddress)\n        onlyOpen(syndicateAddress)\n    {\n        // Check that the dateClose is in the future\n        require(dateClose > block.timestamp, \"PAST_NEW_CLOSEDATE\");\n\n        store.setDateClose(syndicateAddress, dateClose);\n\n        emit managerSetterDateClose(syndicateAddress, dateClose);\n    }\n\n    /// @notice Used by a manager to close a Syndicate to new deposits.\n    /// @param syndicateAddress The address of the Syndicate\n    /// @notice A Syndicate must be closed before distributions can be enabled.\n    /// Further, once a Syndicate is closed, it cannot be opened again. This is\n    /// to prevent issues with redeeming distributions interacting with new\n    /// deposits (e.g. a user with a 10% stake performs a withdrawal, and then\n    /// a deposit occurs that dilutes them down to a 1% stake. From that point\n    /// onward, they would only be entitled to 1% of the distributions).\n    /// @dev Closing a Syndicate updates the dateClose to `block.timestamp`.\n    /// This can be used for calculating management fees or determining how\n    /// long the Syndicate has been in distribution.\n    function managerCloseSyndicate(address syndicateAddress)\n        public\n        whenNotPaused()\n        onlyManager(syndicateAddress)\n        onlyOpen(syndicateAddress)\n    {\n        // This is the ONLY function that should ever modify `open`!\n        store.setOpen(syndicateAddress, false);\n\n        // Update the dateClose timestamp.\n        store.setDateClose(syndicateAddress, block.timestamp);\n\n        emit managerClosedSyndicate(syndicateAddress, block.timestamp);\n    }\n\n    /// @notice Used by a manager to turn the allowlist on or off\n    /// @param syndicateAddress The address of the Syndicate\n    /// @param allowlistEnabled True if the Syndicate ONLY accepts deposits\n    /// from allowed addresses. False if any (accredited) member can make a\n    /// deposit.\n    /// @notice This setter can only be called when the Syndicate is open, as\n    /// it only limits future deposits. To retroactively remove deposits that\n    /// have been made by members who may not have been on the allowlist, a\n    /// manager should use `managerRejectDepositForMember()`.\n    function managerSetAllowlistEnabled(\n        address syndicateAddress,\n        bool allowlistEnabled\n    ) public onlyManager(syndicateAddress) onlyOpen(syndicateAddress) {\n        store.setAllowlistEnabled(syndicateAddress, allowlistEnabled);\n    }\n\n    /// @notice Used by a manager to add an array of member addresses to the\n    /// allowlist and emit an event to allow for easy searching.\n    /// @param syndicateAddress The address of the Syndicate to accept the\n    /// allowedAdresses\n    /// @param memberAddresses An array of addresses to be allowed by the\n    /// Syndicate\n    /// @notice This function is only relevant when the manager has turned the\n    /// allowlist on (`SyndicateValues.allowlistEnabled == true`). If the\n    /// allowlist is off, anyone can make a deposit to the Syndicate without the\n    /// manager specifically allowing their address.\n    /// @dev Allowing a single address costs 31527 in gas without an array and\n    /// 32445 in gas with an array. This is a difference in cost of $0.17 at\n    /// current gas prices, which is a worthwhile trade off considering that (a)\n    /// allowing only one address will be less common than allowing multiple\n    /// addresses and (b) having two different allowAddress functions poses a\n    /// security risk if we forget to reconcile changes between them\n    function managerAllowAddresses(\n        address syndicateAddress,\n        address[] calldata memberAddresses\n    )\n        public\n        onlyManager(syndicateAddress)\n        onlyOpen(syndicateAddress)\n        onlyAllowlistEnabled(syndicateAddress)\n    {\n        // Loop through all memberAddresses and change status to True for allowed.\n        for (uint256 i = 0; i < memberAddresses.length; i++) {\n            store.setAddressAllowed(syndicateAddress, memberAddresses[i], true);\n            // Emit an event that a member can listen to so that they can know\n            // when their address has been added to an allowlist\n            emit managerAllowedAddresses(syndicateAddress, memberAddresses[i]);\n        }\n    }\n\n    /// @notice Used by a manager to remove a previously-allowed member address\n    /// from the allowlist\n    /// @param syndicateAddress The address of the Syndicate that contains the\n    /// allowlist\n    /// @param memberAddresses The array of member addresses to remove.\n    /// @notice This function only proceeds when the allowlist is enabled, as\n    /// it is ineffective to maintain a blocklist of possible member addresses.\n    /// A manager who wishes to reverse a deposit into their fund should\n    /// instead use `managerRejectDepositForMembers()`.\n    /// @notice Blocking a member address that has previously been allowed does\n    /// not reject or return their prior deposits. The deposit is still kept\n    /// in the syndicate.\n    function managerBlockAddresses(\n        address syndicateAddress,\n        address[] calldata memberAddresses\n    )\n        public\n        onlyManager(syndicateAddress)\n        onlyOpen(syndicateAddress)\n        onlyAllowlistEnabled(syndicateAddress)\n    {\n        for (uint256 i = 0; i < memberAddresses.length; i++) {\n            store.setAddressAllowed(\n                syndicateAddress,\n                memberAddresses[i],\n                false\n            );\n\n            emit managerBlockedAddress(syndicateAddress, memberAddresses[i]);\n        }\n    }\n\n    /// @notice Used by a manager to store values within the struct\n    /// @param metadataKeys The array of keys to store and access the metadata\n    /// @param metadataValues The arrays of values for metadata to be set\n    /// @notice The index of each key must be the same as the index of each\n    /// value\n    function managerSetMetadata(\n        address syndicateAddress,\n        string[] calldata metadataKeys,\n        string[] calldata metadataValues\n    ) public onlyManager(syndicateAddress) {\n        // All three passed-in arrays must have the same length\n        require(metadataKeys.length == metadataValues.length, \"ARRAY_LENGTHS_DIFFER\");\n\n        for (uint256 i = 0; i < metadataKeys.length; i++) {\n            store.setMetadata(\n                syndicateAddress,\n                metadataKeys[i],\n                metadataValues[i]\n            );\n\n            emit managerSetterMetadata(\n                syndicateAddress,\n                metadataKeys[i],\n                metadataValues[i]\n            );\n        }\n    }\n\n    /// @notice Emit an event that references a memo stored as 64 byte hash.\n    /// @param syndicateAddress The address of the Syndicate\n    /// @param hexadecimalHash Hexadecimal hash\n    /// @param hashFunction The hash function being used ie 0x20, 256-bits long\n    /// @param hashSize The hash size being used in our case 32 bytes\n    /// @notice IPFS is recommended.\n    /// Opted for the `SHA256` hash.\n    /// @notice This can be used to store a fund thesis or describe a\n    /// transaction that a fund manager made in their wallet. This provides\n    /// transparency by notifying members of transactions and allowing them to\n    /// verify the proper use of funds.\n    /// @dev While testing pre-pend 0x on the first of the hash.\n    /// That's because the value has to be 32 bytes long in the new layout, like:\n    /// 0x6c00000000000000000000000000000000000000000000000000000000000000\n    /// For More info see\n    /// https://ethereum.stackexchange.com/questions/17094/how-to-store-ipfs-hash-using-bytes32\n    function managerEmitMemo(\n        address syndicateAddress,\n        bytes32 hexadecimalHash,\n        uint8 hashFunction,\n        uint8 hashSize\n    ) public onlyManager(syndicateAddress) {\n        emit managerEmittedMemo(\n            syndicateAddress,\n            msg.sender,\n            hexadecimalHash,\n            hashFunction,\n            hashSize,\n            block.timestamp\n        );\n    }\n}\n",
  "sourcePath": "/home/will/Syndicate/contracts/SyndicateClosedEndFundManagerLogicV0.sol",
  "compiler": {
    "name": "solc",
    "version": "0.8.5+commit.a4f2e591.Emscripten.clang"
  },
  "schemaVersion": "3.4.0",
  "updatedAt": "2021-06-21T04:55:02.338Z",
  "devdoc": {
    "author": "Syndicate Inc.",
    "events": {
      "createdSyndicate(address,uint256,uint256,uint256,uint256,address,uint256,uint256,uint256,uint256,uint256,bool,bool,bool)": {
        "details": "This event can be used to list all Syndicates on the platform"
      },
      "managerAllowedAddresses(address,address)": {
        "details": "These events can be used to notify a member off-chain that their address is now allowedThe timestamp is not critical here and in the below events, so it is not included to save on gas costs. When a timestamp is necessary, it can be pulled by evaluating the block that an event was contained in (since the timestamp is just the block.timestamp)"
      },
      "managerBlockedAddress(address,address)": {
        "details": "These events can be used to notify a member off-chain that their address is now blocked (e.g. removed from the allowlist)"
      },
      "managerEmittedMemo(address,address,bytes32,uint8,uint8,uint256)": {
        "details": "Memos emitted via this event are not stored in the Syndicate. Values that need to be stored should instead be passed to `managerSetMetadata()`, which also emits the metadata as an event."
      }
    },
    "kind": "dev",
    "methods": {
      "createSyndicate(uint256,uint256,uint256,uint256,address,uint256,uint256,uint256,uint256,bool,bool,bool)": {
        "params": {
          "allowlistEnabled": "True if the Syndicate ONLY allows deposits from allowed addresses. False if any (accredited) member can deposit. Even if this is false, the manager can always reject a contribution before a Syndicate closes with `rejectDepositFormember()`.",
          "dateClose": "The date that the Syndicate will automatically close in UNIX time, in seconds.",
          "depositERC20Address": "The address of the ERC20 used for deposits (e.g. DAI or USDC's contract addresses) and withdrawals. Stablecoins are strongly recommended, especially for funds that are open for an extended period of time. (Otherwise one member could deposit 1 token when it is priced at $100 and another member could deposit 1 token when it is priced at $200, but their percent ownership of the fund would be the same. Stablecoins prevent this because their value is consistent.)",
          "depositMaxMember": "The max deposit per member wallet address.",
          "depositMaxTotal": "The max deposit amount for the fund/Syndicate.",
          "depositMinMember": "The min deposit per member wallet address.",
          "managerManagementFeeBasisPoints": "The management fee in basis points. A standard structure would be a 2% management fee (200 basis points). This is displayed in the UI as \"Expected Annual Operating Fees\" on the Create Syndicate page.",
          "managerPerformanceFeeBasisPoints": "The performance fee in basis points. A standard structure would be a 20% performance fee (2000 basis points). This is displayed in the UI as \"Profit Share to Syndicate Lead\" on the Create Syndicate page.",
          "modifiable": "True if a manager can manually modify members' deposit and distribution amounts. False if these values can only be altered by the contract deposit and withdrawal functions. A manager may wish to manually modify these values to reconcile off-chain agreements (e.g. advisory shares, which do not have a deposit associated with them) or to correct for user error (for example, a user sends their deposit to the manager's wallet directly instead of using the smart contract). This choice is permanent--once set at creation, it cannot be changed. True is recommended for smaller syndicates where every member trusts the manager, or for cases where a Syndicate is used as a cap table to track ownership agreements without necessarily exchanging deposits. False is recommended for large Syndicates where the members may desire more transparency, or if a smart contract is being used in place of a manager's wallet and trustless operation is desired.",
          "numMembersMax": "The max number of members that the Syndicate can accept as depositors",
          "syndicateProfitShareBasisPoints": "The profit share that is sent to the Syndicate treasury. All fees are entered in basis points, or fractional units of the BASIS_POINTS_DENOMINATOR (set to 10000). For example, the minimum profit share of 0.50% should be passed in as 50 basis points (since it is 0.50% * 10000). This means that the max precision is 0.01% (1 basis point).",
          "transferable": "True if a member can transfer a portion of their deposit to another address without manager approval. False if transfers can only be initiated by the manager of a modifiable Syndicate. All transfers must occur before distributions are set such that we only update values in deposit mapping structs. A manager's ability to initiate a transfer is determined by `modifiable` and is independent to `transferable`. Member-initiated transfers may have regulatory concerns (e.g. by allowing a transfer to a non-accredited investor), while manager-initiated transfers are safe for internal bookkeeping. True is recommended for Syndicates that want to grant greater control over holdings to its members. False is recommended for Syndicates that are under external regulations that make ownership transfers legally problematic and require manager oversight."
        }
      },
      "managerAllowAddresses(address,address[])": {
        "details": "Allowing a single address costs 31527 in gas without an array and 32445 in gas with an array. This is a difference in cost of $0.17 at current gas prices, which is a worthwhile trade off considering that (a) allowing only one address will be less common than allowing multiple addresses and (b) having two different allowAddress functions poses a security risk if we forget to reconcile changes between them",
        "params": {
          "memberAddresses": "An array of addresses to be allowed by the Syndicate",
          "syndicateAddress": "The address of the Syndicate to accept the allowedAdresses"
        }
      },
      "managerAssessManagementFee(address,address,uint256)": {
        "details": "This function is purely for transparency. A manager could also assess a management fee by transferring assets directly from the manager's wallet to the management fee address, but that can be seen as less transparent because no event is emitted via the Syndicate contract.This management fee currently does **not** leverage `managerManagementFeeBasisPoints` in any way. For now, the manager should calculate and assess the management fee manually based on their agreement with members. In the future, once we have asset management built into our contract, we can assess management fees automatically every year (or other specified time interval).Assessed management fees are not stored in the contract and should instead be reconstructed from the events",
        "params": {
          "amount": "The management fee that should be deducted from the Syndicate's holdings of the specified token. Note that this management fee is a specific amount, not a percentage.",
          "syndicateAddress": "The address of the Syndicate"
        }
      },
      "managerBlockAddresses(address,address[])": {
        "params": {
          "memberAddresses": "The array of member addresses to remove.",
          "syndicateAddress": "The address of the Syndicate that contains the allowlist"
        }
      },
      "managerCloseSyndicate(address)": {
        "details": "Closing a Syndicate updates the dateClose to `block.timestamp`. This can be used for calculating management fees or determining how long the Syndicate has been in distribution.",
        "params": {
          "syndicateAddress": "The address of the Syndicate"
        }
      },
      "managerEmitMemo(address,bytes32,uint8,uint8)": {
        "details": "While testing pre-pend 0x on the first of the hash. That's because the value has to be 32 bytes long in the new layout, like: 0x6c00000000000000000000000000000000000000000000000000000000000000 For More info see https://ethereum.stackexchange.com/questions/17094/how-to-store-ipfs-hash-using-bytes32",
        "params": {
          "hashFunction": "The hash function being used ie 0x20, 256-bits long",
          "hashSize": "The hash size being used in our case 32 bytes",
          "hexadecimalHash": "Hexadecimal hash",
          "syndicateAddress": "The address of the Syndicate"
        }
      },
      "managerPendingConfirm(address)": {
        "params": {
          "syndicateAddress": "The address of the Syndicate"
        }
      },
      "managerPendingConfirmAndSetManagerFeeAddress(address,address)": {
        "params": {
          "managerFeeAddress": "The address where manager fees should be sent.",
          "syndicateAddress": "The address of the Syndicate."
        }
      },
      "managerSetAllowlistEnabled(address,bool)": {
        "params": {
          "allowlistEnabled": "True if the Syndicate ONLY accepts deposits from allowed addresses. False if any (accredited) member can make a deposit.",
          "syndicateAddress": "The address of the Syndicate"
        }
      },
      "managerSetDateClose(address,uint256)": {
        "params": {
          "dateClose": "The new close date, which must be in the future.",
          "syndicateAddress": "The address of the Syndicate"
        }
      },
      "managerSetManagerFeeAddress(address,address)": {
        "params": {
          "managerFeeAddress": "The address where manager fees should be sent. This cannot be the current or pending Syndicate manager",
          "syndicateAddress": "The address of the Syndicate"
        }
      },
      "managerSetManagerFees(address,uint256,uint256)": {
        "details": "Manager fee INCREASES are only accepted while the Syndicate is open; after the Syndicate is closed, fees can only be decreased. This is to prevent managers from changing fees on members without giving them recourse to act on those fee changes (i.e. the opportunity to revoke their deposit).In the future, we will include a timelock on all changes to raise fees. Since the current architecture requires trust in a manager because the manager holds the funds, this risk is one that we are willing to accept in the short-term.For the current version of this contract, the management fee must be assessed manually by `managerAssessManagementFee()`. In the future, the management fee will be automatically assessed yearly (or another specified time interval) at the rate specified by `managerManagementFeeBasisPoints` once we support asset management via smart contracts.",
        "params": {
          "managerManagementFeeBasisPoints": "The management fee of a Syndicate manager, calculated per year (e.g. 2% per year, which would be passed in as 200 basis points because the fees are adjusted by BASIS_POINTS_DENOMINATOR, which is set to 10000)",
          "managerPerformanceFeeBasisPoints": "The performance fee of a Syndicate manager, received when a member makes a withdrawal (e.g. 20% percent per distribution upon withdrawal, which would be passed in as 2000 basis points)",
          "syndicateAddress": "The address of the Syndicate to set fees for"
        }
      },
      "managerSetManagerPending(address,address)": {
        "params": {
          "managerPendingAddress": "The address of the new manager",
          "syndicateAddress": "The address of the Syndicate"
        }
      },
      "managerSetMetadata(address,string[],string[])": {
        "params": {
          "metadataKeys": "The array of keys to store and access the metadata",
          "metadataValues": "The arrays of values for metadata to be set"
        }
      },
      "managerSetNumMembersMax(address,uint256)": {
        "params": {
          "numMembersMax": "The maximum number of members",
          "syndicateAddress": "The address of the Syndicate"
        }
      },
      "managerSetNumMembersMaxToCurrent(address)": {
        "params": {
          "syndicateAddress": "The address of the Syndicate"
        }
      },
      "managerSetSyndicateProfitShare(address,uint256)": {
        "params": {
          "syndicateAddress": "The address of the Syndicate to set fees for",
          "syndicateProfitShareBasisPoints": "The profit share that is sent to the Syndicate treasury. All fees are entered in basis points, or fractional units of the BASIS_POINTS_DENOMINATOR (set to 10000). For example, the minimum profit share of 0.50% should be passed in as 50 basis points (since it is 0.50% * 10000). This means that the max precision is 0.01% (1 basis point)."
        }
      },
      "owner()": {
        "details": "Returns the address of the current owner."
      },
      "ownerSetSyndicateFeeAddress(address)": {
        "params": {
          "feeAddress": "The owner's new contract fee address"
        }
      },
      "ownerTransferOwnership(address)": {
        "params": {
          "newOwner": "The new owner's address."
        }
      },
      "paused()": {
        "details": "Returns true if the contract is paused, and false otherwise."
      },
      "renounceOwnership()": {
        "details": "Leaves the contract without owner. It will not be possible to call `onlyOwner` functions anymore. Can only be called by the current owner. NOTE: Renouncing ownership will leave the contract without an owner, thereby removing any functionality that is only available to the owner."
      },
      "transferOwnership(address)": {
        "details": "Transfers ownership of the contract to a new account (`newOwner`). Can only be called by the current owner."
      }
    },
    "version": 1
  },
  "userdoc": {
    "events": {
      "createdSyndicate(address,uint256,uint256,uint256,uint256,address,uint256,uint256,uint256,uint256,uint256,bool,bool,bool)": {
        "notice": "Emit an event when a manager creates a Syndicate"
      },
      "managerAllowedAddresses(address,address)": {
        "notice": "Emit an event when a manager adds a member's wallet address to the allowlist"
      },
      "managerAssessedManagementFee(address,uint256,uint256)": {
        "notice": "Emit an event when a manager assesses a management fee"
      },
      "managerBlockedAddress(address,address)": {
        "notice": "Emit an event when a manager removes a member's wallet address from the allowlist"
      },
      "managerClosedSyndicate(address,uint256)": {
        "notice": "Emit an event when a manager closes a Syndicate"
      },
      "managerEmittedMemo(address,address,bytes32,uint8,uint8,uint256)": {
        "notice": "Emit an event when a manager associates a memo with a Syndicate"
      },
      "managerPendingConfirmed(address,address,address)": {
        "notice": "Emit an event when a pending manager confirms management of a Syndicate"
      },
      "managerSetterDateClose(address,uint256)": {
        "notice": "Emit an event when a manager changes the close date"
      },
      "managerSetterManagerFeeAddress(address,address)": {
        "notice": "Emit an event when a manager sets a new fee address"
      },
      "managerSetterManagerFees(address,uint256,uint256)": {
        "notice": "Emit an event when a manager sets new manager fees"
      },
      "managerSetterManagerPending(address,address)": {
        "notice": "Emit an event when a manager sets a new pending manager"
      },
      "managerSetterMetadata(address,string,string)": {
        "notice": "Emit an event when a manager sets metadata for a Syndicate"
      },
      "managerSetterNumMembersMax(address,uint256,uint256)": {
        "notice": "Emit an event when a manager sets a new maximum number of allowed members"
      },
      "managerSetterSyndicateProfitShare(address,uint256)": {
        "notice": "Emit an event when a manager sets a new Syndicate profit share"
      },
      "ownerRenouncedPause(address)": {
        "notice": "Emit an event when the owner renounces ability to pause the contract"
      },
      "ownerSetterSyndicateFeeAddress(address,uint256)": {
        "notice": "Emit an event when the owner of the contract sets a new contract fee address"
      }
    },
    "kind": "user",
    "methods": {
      "constructor": {
        "notice": "Used to initialize the Syndicate contract."
      },
      "createSyndicate(uint256,uint256,uint256,uint256,address,uint256,uint256,uint256,uint256,bool,bool,bool)": {
        "notice": "Used to create a Syndicate with the address of `msg.sender` and initialize `msg.sender` as the Syndicate manager.The `msg.sender` address calling `createSyndicate()` becomes permanently associated with the Syndicate. Transferring management of the Syndicate later will change the `managerCurrent` and the address at which deposits are received, but will NOT change the `syndicateAddress`, which permanently identifies the fund.Syndicate does **not** support tokens that rebalance (e.g. Ampleforth). This is because Syndicate requires that the deposit token's units are constant.For tokens that take fees, Syndicate uses the after-fee amounts for recording deposits and the before-fee amounts for recording withdrawals."
      },
      "managerAllowAddresses(address,address[])": {
        "notice": "Used by a manager to add an array of member addresses to the allowlist and emit an event to allow for easy searching.This function is only relevant when the manager has turned the allowlist on (`SyndicateValues.allowlistEnabled == true`). If the allowlist is off, anyone can make a deposit to the Syndicate without the manager specifically allowing their address."
      },
      "managerAssessManagementFee(address,address,uint256)": {
        "notice": "Used by a manager to assess a management fee. This can be used to compensate a manager (in addition to the performance fee, which is triggered automatically) or to pay expenses for a Syndicate."
      },
      "managerBlockAddresses(address,address[])": {
        "notice": "Used by a manager to remove a previously-allowed member address from the allowlistThis function only proceeds when the allowlist is enabled, as it is ineffective to maintain a blocklist of possible member addresses. A manager who wishes to reverse a deposit into their fund should instead use `managerRejectDepositForMembers()`.Blocking a member address that has previously been allowed does not reject or return their prior deposits. The deposit is still kept in the syndicate."
      },
      "managerCloseSyndicate(address)": {
        "notice": "Used by a manager to close a Syndicate to new deposits.A Syndicate must be closed before distributions can be enabled. Further, once a Syndicate is closed, it cannot be opened again. This is to prevent issues with redeeming distributions interacting with new deposits (e.g. a user with a 10% stake performs a withdrawal, and then a deposit occurs that dilutes them down to a 1% stake. From that point onward, they would only be entitled to 1% of the distributions)."
      },
      "managerEmitMemo(address,bytes32,uint8,uint8)": {
        "notice": "Emit an event that references a memo stored as 64 byte hash.IPFS is recommended. Opted for the `SHA256` hash.This can be used to store a fund thesis or describe a transaction that a fund manager made in their wallet. This provides transparency by notifying members of transactions and allowing them to verify the proper use of funds."
      },
      "managerPendingConfirm(address)": {
        "notice": "Used by the pending manager to claim current manager statusThe pending manager is identified by `msg.sender`, which proves that they have control over their addressChanging a manager does not change the syndicateAddress. The syndicateAddress is permanent but has no effect beyond acting as an identifier."
      },
      "managerPendingConfirmAndSetManagerFeeAddress(address,address)": {
        "notice": "This is a helper function that can be used by a pending manager to simultaneously confirm management of a Syndicate and update the manager fee address. This ensures that there is no gap in setting a new fee address after taking ownership of a Syndicate."
      },
      "managerSetAllowlistEnabled(address,bool)": {
        "notice": "Used by a manager to turn the allowlist on or offThis setter can only be called when the Syndicate is open, as it only limits future deposits. To retroactively remove deposits that have been made by members who may not have been on the allowlist, a manager should use `managerRejectDepositForMember()`."
      },
      "managerSetDateClose(address,uint256)": {
        "notice": "Used by a manager to change the close date of a Syndicate.After `dateClose`, member deposits and withdrawals are disabled, but the manager can still reject member deposits or override member deposits (in the case of a modifiable Syndicate). However, distributions cannot be claimed until the Syndicate is closed by a call to `managerCloseSyndicate()`.Until the manager closes the Syndicate to enable distributions, `dateClose` can be pushed into the future, which will reallow member deposits and withdrawals."
      },
      "managerSetManagerFeeAddress(address,address)": {
        "notice": "Used by a manager to set the address where fees should be sent"
      },
      "managerSetManagerFees(address,uint256,uint256)": {
        "notice": "Used by a manager to set their management and performance fees"
      },
      "managerSetManagerPending(address,address)": {
        "notice": "Used by the current manager to nominate a new managerThe new manager will be pending until they call `managerPendingConfirm()`. This ensures that they have control over their wallet and actively agree to manage the fund.Changing a manager does not change the `syndicateAddress`. The `syndicateAddress` is permanent but has no effect beyond acting as an identifier.To reset a `managerPending` request, just set the `managerPending` to be `address(0)`. This is the default value for all addresses."
      },
      "managerSetMetadata(address,string[],string[])": {
        "notice": "Used by a manager to store values within the structThe index of each key must be the same as the index of each value"
      },
      "managerSetNumMembersMax(address,uint256)": {
        "notice": "Set the maximum members that can contribute to the Syndicate"
      },
      "managerSetNumMembersMaxToCurrent(address)": {
        "notice": "This is a helper function that can be used by a manager to freeze deposits from new members (allowing only supplemental deposits from current members) while allowing replacements if existing members drop out."
      },
      "managerSetSyndicateProfitShare(address,uint256)": {
        "notice": "Used by a manager to set the profit share that goes to SyndicateThe Syndicate profit share must be at least 0.50% (50 basis points) and at most 100% (10000 basis points) - the manager's performance fee."
      },
      "ownerPauseContract()": {
        "notice": "Emergency pause function that can only be triggered by the contract ownerIts purpose is to pause functions with the whenNotPaused() modifier.  All other functions will work when paused"
      },
      "ownerRenounceOwnership()": {
        "notice": "Renounce ownership of the contractIf necessary, unpauses the contract before ownership is renounced to ensure that functions with the whenNotPaused() modifier are not locked"
      },
      "ownerRenouncePause()": {
        "notice": "Used by the owner to renounce ability to pause the contractIf necessary, unpauses the contract before ownership is renounced to ensure that functions with the whenNotPaused() modifier are not locked"
      },
      "ownerSetSyndicateFeeAddress(address)": {
        "notice": "set a new fee address for the contract function that can only be triggered by the contract owner."
      },
      "ownerTransferOwnership(address)": {
        "notice": "Transfers ownership to the provided address."
      },
      "ownerUnpauseContract()": {
        "notice": "Emergency unpause function that can only be triggered by the contract ownerIts purpose is to unpause functions with the whenNotPaused() modifier.  All other functions will work when paused"
      }
    },
    "notice": "General syndicate manager controls",
    "version": 1
  }
}