{
  "contractName": "SyndicateClosedEndFundDepositLogicV0",
  "abi": [
    {
      "inputs": [
        {
          "internalType": "address",
          "name": "storeAddress",
          "type": "address"
        }
      ],
      "stateMutability": "nonpayable",
      "type": "constructor"
    },
    {
      "anonymous": false,
      "inputs": [
        {
          "indexed": true,
          "internalType": "address",
          "name": "previousOwner",
          "type": "address"
        },
        {
          "indexed": true,
          "internalType": "address",
          "name": "newOwner",
          "type": "address"
        }
      ],
      "name": "OwnershipTransferred",
      "type": "event"
    },
    {
      "anonymous": false,
      "inputs": [
        {
          "indexed": false,
          "internalType": "address",
          "name": "account",
          "type": "address"
        }
      ],
      "name": "Paused",
      "type": "event"
    },
    {
      "anonymous": false,
      "inputs": [
        {
          "indexed": false,
          "internalType": "address",
          "name": "account",
          "type": "address"
        }
      ],
      "name": "Unpaused",
      "type": "event"
    },
    {
      "anonymous": false,
      "inputs": [
        {
          "indexed": true,
          "internalType": "address",
          "name": "syndicateAddress",
          "type": "address"
        },
        {
          "indexed": false,
          "internalType": "uint256",
          "name": "timestamp",
          "type": "uint256"
        }
      ],
      "name": "managerClosedSyndicate",
      "type": "event"
    },
    {
      "anonymous": false,
      "inputs": [
        {
          "indexed": true,
          "internalType": "address",
          "name": "syndicateAddress",
          "type": "address"
        },
        {
          "indexed": true,
          "internalType": "address",
          "name": "memberAddress",
          "type": "address"
        },
        {
          "indexed": true,
          "internalType": "address",
          "name": "depositERC20Address",
          "type": "address"
        },
        {
          "indexed": false,
          "internalType": "uint256",
          "name": "amountWithdrawn",
          "type": "uint256"
        },
        {
          "indexed": false,
          "internalType": "uint256",
          "name": "timestamp",
          "type": "uint256"
        }
      ],
      "name": "managerRejectedDepositForMember",
      "type": "event"
    },
    {
      "anonymous": false,
      "inputs": [
        {
          "indexed": true,
          "internalType": "address",
          "name": "syndicateAddress",
          "type": "address"
        },
        {
          "indexed": true,
          "internalType": "address",
          "name": "memberAddress",
          "type": "address"
        },
        {
          "indexed": false,
          "internalType": "uint256",
          "name": "depositMember",
          "type": "uint256"
        },
        {
          "indexed": false,
          "internalType": "uint256",
          "name": "timestamp",
          "type": "uint256"
        }
      ],
      "name": "managerSetterDepositForMember",
      "type": "event"
    },
    {
      "anonymous": false,
      "inputs": [
        {
          "indexed": true,
          "internalType": "address",
          "name": "syndicateAddress",
          "type": "address"
        },
        {
          "indexed": false,
          "internalType": "uint256",
          "name": "depositMaxMember",
          "type": "uint256"
        }
      ],
      "name": "managerSetterDepositMaxMember",
      "type": "event"
    },
    {
      "anonymous": false,
      "inputs": [
        {
          "indexed": true,
          "internalType": "address",
          "name": "syndicateAddress",
          "type": "address"
        },
        {
          "indexed": false,
          "internalType": "uint256",
          "name": "depositMaxTotal",
          "type": "uint256"
        }
      ],
      "name": "managerSetterDepositMaxTotal",
      "type": "event"
    },
    {
      "anonymous": false,
      "inputs": [
        {
          "indexed": true,
          "internalType": "address",
          "name": "syndicateAddress",
          "type": "address"
        },
        {
          "indexed": false,
          "internalType": "uint256",
          "name": "depositMinMember",
          "type": "uint256"
        }
      ],
      "name": "managerSetterDepositMinMember",
      "type": "event"
    },
    {
      "anonymous": false,
      "inputs": [
        {
          "indexed": true,
          "internalType": "address",
          "name": "syndicateAddress",
          "type": "address"
        },
        {
          "indexed": true,
          "internalType": "address",
          "name": "memberAddress",
          "type": "address"
        },
        {
          "indexed": false,
          "internalType": "uint256",
          "name": "amountDeposited",
          "type": "uint256"
        },
        {
          "indexed": false,
          "internalType": "uint256",
          "name": "timestamp",
          "type": "uint256"
        }
      ],
      "name": "memberDeposited",
      "type": "event"
    },
    {
      "anonymous": false,
      "inputs": [
        {
          "indexed": true,
          "internalType": "address",
          "name": "syndicateAddress",
          "type": "address"
        },
        {
          "indexed": true,
          "internalType": "address",
          "name": "memberAddress",
          "type": "address"
        },
        {
          "indexed": true,
          "internalType": "address",
          "name": "depositERC20Address",
          "type": "address"
        },
        {
          "indexed": false,
          "internalType": "uint256",
          "name": "amountWithdrawn",
          "type": "uint256"
        },
        {
          "indexed": false,
          "internalType": "uint256",
          "name": "timestamp",
          "type": "uint256"
        }
      ],
      "name": "memberWithdrewDeposit",
      "type": "event"
    },
    {
      "anonymous": false,
      "inputs": [
        {
          "indexed": false,
          "internalType": "address",
          "name": "owner",
          "type": "address"
        }
      ],
      "name": "ownerRenouncedPause",
      "type": "event"
    },
    {
      "anonymous": false,
      "inputs": [
        {
          "indexed": true,
          "internalType": "address",
          "name": "contractFeeAddress",
          "type": "address"
        },
        {
          "indexed": false,
          "internalType": "uint256",
          "name": "timestamp",
          "type": "uint256"
        }
      ],
      "name": "ownerSetterSyndicateFeeAddress",
      "type": "event"
    },
    {
      "inputs": [],
      "name": "BASIS_POINTS_DENOMINATOR",
      "outputs": [
        {
          "internalType": "uint256",
          "name": "",
          "type": "uint256"
        }
      ],
      "stateMutability": "view",
      "type": "function"
    },
    {
      "inputs": [],
      "name": "owner",
      "outputs": [
        {
          "internalType": "address",
          "name": "",
          "type": "address"
        }
      ],
      "stateMutability": "view",
      "type": "function"
    },
    {
      "inputs": [],
      "name": "ownerPauseContract",
      "outputs": [],
      "stateMutability": "nonpayable",
      "type": "function"
    },
    {
      "inputs": [],
      "name": "ownerRenounceOwnership",
      "outputs": [],
      "stateMutability": "nonpayable",
      "type": "function"
    },
    {
      "inputs": [],
      "name": "ownerRenouncePause",
      "outputs": [],
      "stateMutability": "nonpayable",
      "type": "function"
    },
    {
      "inputs": [
        {
          "internalType": "address",
          "name": "feeAddress",
          "type": "address"
        }
      ],
      "name": "ownerSetSyndicateFeeAddress",
      "outputs": [],
      "stateMutability": "nonpayable",
      "type": "function"
    },
    {
      "inputs": [
        {
          "internalType": "address",
          "name": "newOwner",
          "type": "address"
        }
      ],
      "name": "ownerTransferOwnership",
      "outputs": [],
      "stateMutability": "nonpayable",
      "type": "function"
    },
    {
      "inputs": [],
      "name": "ownerUnpauseContract",
      "outputs": [],
      "stateMutability": "nonpayable",
      "type": "function"
    },
    {
      "inputs": [],
      "name": "paused",
      "outputs": [
        {
          "internalType": "bool",
          "name": "",
          "type": "bool"
        }
      ],
      "stateMutability": "view",
      "type": "function"
    },
    {
      "inputs": [],
      "name": "renounceOwnership",
      "outputs": [],
      "stateMutability": "nonpayable",
      "type": "function"
    },
    {
      "inputs": [
        {
          "internalType": "address",
          "name": "newOwner",
          "type": "address"
        }
      ],
      "name": "transferOwnership",
      "outputs": [],
      "stateMutability": "nonpayable",
      "type": "function"
    },
    {
      "inputs": [
        {
          "internalType": "address",
          "name": "syndicateAddress",
          "type": "address"
        },
        {
          "internalType": "uint256",
          "name": "depositMinMember",
          "type": "uint256"
        }
      ],
      "name": "managerSetDepositMinMember",
      "outputs": [],
      "stateMutability": "nonpayable",
      "type": "function"
    },
    {
      "inputs": [
        {
          "internalType": "address",
          "name": "syndicateAddress",
          "type": "address"
        },
        {
          "internalType": "uint256",
          "name": "depositMaxMember",
          "type": "uint256"
        }
      ],
      "name": "managerSetDepositMaxMember",
      "outputs": [],
      "stateMutability": "nonpayable",
      "type": "function"
    },
    {
      "inputs": [
        {
          "internalType": "address",
          "name": "syndicateAddress",
          "type": "address"
        },
        {
          "internalType": "uint256",
          "name": "depositMaxTotal",
          "type": "uint256"
        }
      ],
      "name": "managerSetDepositMaxTotal",
      "outputs": [],
      "stateMutability": "nonpayable",
      "type": "function"
    },
    {
      "inputs": [
        {
          "internalType": "address",
          "name": "syndicateAddress",
          "type": "address"
        },
        {
          "internalType": "uint256",
          "name": "amount",
          "type": "uint256"
        }
      ],
      "name": "memberDeposit",
      "outputs": [],
      "stateMutability": "nonpayable",
      "type": "function"
    },
    {
      "inputs": [
        {
          "internalType": "address",
          "name": "syndicateAddress",
          "type": "address"
        },
        {
          "internalType": "uint256",
          "name": "amount",
          "type": "uint256"
        }
      ],
      "name": "memberWithdraw",
      "outputs": [],
      "stateMutability": "nonpayable",
      "type": "function"
    },
    {
      "inputs": [
        {
          "internalType": "address",
          "name": "syndicateAddress",
          "type": "address"
        },
        {
          "internalType": "address[]",
          "name": "memberAddresses",
          "type": "address[]"
        }
      ],
      "name": "managerRejectDepositForMembers",
      "outputs": [],
      "stateMutability": "nonpayable",
      "type": "function"
    },
    {
      "inputs": [
        {
          "internalType": "address",
          "name": "syndicateAddress",
          "type": "address"
        },
        {
          "internalType": "address[]",
          "name": "memberAddresses",
          "type": "address[]"
        },
        {
          "internalType": "uint256[]",
          "name": "amounts",
          "type": "uint256[]"
        }
      ],
      "name": "managerSetDepositForMembers",
      "outputs": [],
      "stateMutability": "nonpayable",
      "type": "function"
    }
  ],
  "bytecode": "0x6080604052600280546001600160a81b0319167340db79f7f18c468c6552538b488c58b5e72bf4d91790553480156200003757600080fd5b5060405162003c0d38038062003c0d8339810160408190526200005a91620000d6565b6001600081815581546001600160a01b0319163390811790925560405183929182917f8be0079c531659141344cd1fd0a4f28419497f9722a3daafe3b4186f6b6457e0908290a3506001805460ff60a01b19169055600380546001600160a01b0319166001600160a01b03929092169190911790555062000108565b600060208284031215620000e957600080fd5b81516001600160a01b03811681146200010157600080fd5b9392505050565b613af580620001186000396000f3fe608060405234801561001057600080fd5b50600436106101165760003560e01c8063a09cca93116100a2578063c7bc2a6311610071578063c7bc2a63146101ff578063cfa498a314610212578063dac128ad14610229578063f2fde38b14610231578063fdf0c4a71461024457600080fd5b8063a09cca93146101b3578063bbea6ddb146101c6578063bc72f86e146101d9578063bfd9a7e1146101ec57600080fd5b8063715018a6116100e9578063715018a61461016d57806379f90d6c146101755780637aae909f1461017d57806381abf408146101905780638da5cb5b1461019857600080fd5b806312285d401461011b578063313a3e78146101255780634d2f73d9146101385780635c975abb1461014b575b600080fd5b610123610257565b005b610123610133366004613917565b610294565b610123610146366004613917565b610421565b600154600160a01b900460ff1660405190151581526020015b60405180910390f35b610123610448565b6101236104bc565b61012361018b36600461383f565b61053a565b61012361067c565b6001546040516001600160a01b039091168152602001610164565b6101236101c13660046137fe565b6106c8565b6101236101d4366004613894565b6106fe565b6101236101e7366004613917565b6107d3565b6101236101fa3660046137fe565b610a1e565b61012361020d366004613917565b610a9c565b61021b61271081565b604051908152602001610164565b610123610b1e565b61012361023f3660046137fe565b610bab565b610123610252366004613917565b610c96565b6001546001600160a01b0316331461028a5760405162461bcd60e51b8152600401610281906139ff565b60405180910390fd5b610292610e15565b565b8161029e81610ead565b826102a881610f78565b6003546040516342c7102b60e01b81526001600160a01b038681166004830152909116906342c7102b9060240160206040518083038186803b1580156102ed57600080fd5b505afa158015610301573d6000803e3d6000fd5b505050506040513d601f19601f820116820180604052508101906103259190613965565b8310156103745760405162461bcd60e51b815260206004820152601760248201527f4d41585f544f545f4445503c4d41585f4d42525f4445500000000000000000006044820152606401610281565b60035460405163ba3cc07960e01b81526001600160a01b039091169063ba3cc079906103a690879087906004016139bc565b600060405180830381600087803b1580156103c057600080fd5b505af11580156103d4573d6000803e3d6000fd5b50505050836001600160a01b03167fd7963b64b90bfad9e1f0789f1b29f4d0d24f6deb2f508e53f08215b77f7e8da78460405161041391815260200190565b60405180910390a250505050565b8161042b8161102e565b8261043581610f78565b61044284338560006110fa565b50505050565b6001546001600160a01b031633146104725760405162461bcd60e51b8152600401610281906139ff565b6001546040516000916001600160a01b0316907f8be0079c531659141344cd1fd0a4f28419497f9722a3daafe3b4186f6b6457e0908390a3600180546001600160a01b0319169055565b6001546001600160a01b031633146104e65760405162461bcd60e51b8152600401610281906139ff565b600254600160a01b900460ff16156105325760405162461bcd60e51b815260206004820152600f60248201526e14105554d157d4915393d55390d151608a1b6044820152606401610281565b610292611b25565b8261054481610ead565b600154600160a01b900460ff161561056e5760405162461bcd60e51b8152600401610281906139d5565b8361057881610f78565b60005b83811015610674576003546000906001600160a01b031663181a99d0888888868181106105aa576105aa613a94565b90506020020160208101906105bf91906137fe565b6040518363ffffffff1660e01b81526004016105dc92919061397e565b60206040518083038186803b1580156105f457600080fd5b505afa158015610608573d6000803e3d6000fd5b505050506040513d601f19601f8201168201806040525081019061062c9190613965565b90506106618787878581811061064457610644613a94565b905060200201602081019061065991906137fe565b8360016110fa565b508061066c81613a63565b91505061057b565b505050505050565b6001546001600160a01b031633146106a65760405162461bcd60e51b8152600401610281906139ff565b600154600160a01b900460ff16156106c0576106c0610257565b610292610448565b6001546001600160a01b031633146106f25760405162461bcd60e51b8152600401610281906139ff565b6106fb81610bab565b50565b8461070881610ead565b8561071281610f78565b8661071c81611b8a565b8584146107625760405162461bcd60e51b815260206004820152601460248201527320a92920acafa622a723aa2429afa224a32322a960611b6044820152606401610281565b60005b868110156107c8576107b68989898481811061078357610783613a94565b905060200201602081019061079891906137fe565b8888858181106107aa576107aa613a94565b90506020020135611c48565b806107c081613a63565b915050610765565b505050505050505050565b816107dd81610ead565b826107e781610f78565b60035460405163aaee68af60e01b81526001600160a01b0386811660048301529091169063aaee68af9060240160206040518083038186803b15801561082c57600080fd5b505afa158015610840573d6000803e3d6000fd5b505050506040513d601f19601f820116820180604052508101906108649190613965565b8310156108b35760405162461bcd60e51b815260206004820152601760248201527f4d41585f4d42525f4445503c4d494e5f4d42525f4445500000000000000000006044820152606401610281565b60035460405163d63f866360e01b81526001600160a01b0386811660048301529091169063d63f86639060240160206040518083038186803b1580156108f857600080fd5b505afa15801561090c573d6000803e3d6000fd5b505050506040513d601f19601f820116820180604052508101906109309190613965565b83111561097f5760405162461bcd60e51b815260206004820152601760248201527f4d41585f4d42525f4445503e4d41585f544f545f4445500000000000000000006044820152606401610281565b600354604051635251ba9760e01b81526001600160a01b0390911690635251ba97906109b190879087906004016139bc565b600060405180830381600087803b1580156109cb57600080fd5b505af11580156109df573d6000803e3d6000fd5b50505050836001600160a01b03167fd2e9dd650118e3f8f6c1c18c360a4eae89be7d5a98424f58a82191b9d542a9648460405161041391815260200190565b6001546001600160a01b03163314610a485760405162461bcd60e51b8152600401610281906139ff565b600280546001600160a01b0319166001600160a01b0383169081179091556040514281527f1a49e1bcd954390033d0a77f7090e458f8d292a5dca5ff1424c84446d37690f99060200160405180910390a250565b60026000541415610aef5760405162461bcd60e51b815260206004820152601f60248201527f5265656e7472616e637947756172643a207265656e7472616e742063616c6c006044820152606401610281565b600260005581610afe8161102e565b82610b08816126b3565b610b1384338561276e565b505060016000555050565b6001546001600160a01b03163314610b485760405162461bcd60e51b8152600401610281906139ff565b600154600160a01b900460ff1615610b6257610b62610257565b6002805460ff60a01b1916600160a01b1790556040513381527f8d464c3056e69b8da97814dbfddc04a614af8e35b3f030ba6ac9fbc881f2a35b906020015b60405180910390a1565b6001546001600160a01b03163314610bd55760405162461bcd60e51b8152600401610281906139ff565b6001600160a01b038116610c3a5760405162461bcd60e51b815260206004820152602660248201527f4f776e61626c653a206e6577206f776e657220697320746865207a65726f206160448201526564647265737360d01b6064820152608401610281565b6001546040516001600160a01b038084169216907f8be0079c531659141344cd1fd0a4f28419497f9722a3daafe3b4186f6b6457e090600090a3600180546001600160a01b0319166001600160a01b0392909216919091179055565b81610ca081610ead565b82610caa81610f78565b6003546040516342c7102b60e01b81526001600160a01b038681166004830152909116906342c7102b9060240160206040518083038186803b158015610cef57600080fd5b505afa158015610d03573d6000803e3d6000fd5b505050506040513d601f19601f82011682018060405250810190610d279190613965565b831115610d765760405162461bcd60e51b815260206004820152601760248201527f4d494e5f4d42525f4445503e4d41585f4d42525f4445500000000000000000006044820152606401610281565b60035460405163097b803560e41b81526001600160a01b03909116906397b8035090610da890879087906004016139bc565b600060405180830381600087803b158015610dc257600080fd5b505af1158015610dd6573d6000803e3d6000fd5b50505050836001600160a01b03167f4af07b503b5ca41b3216d1f189430a32f793a0f9bf0cef41dbec32f0b056ca7e8460405161041391815260200190565b600154600160a01b900460ff16610e655760405162461bcd60e51b815260206004820152601460248201527314185d5cd8589b194e881b9bdd081c185d5cd95960621b6044820152606401610281565b6001805460ff60a01b191690557f5db9ee0a495bf2e6ff9c91a7834c1ba4fdd244a5e8aa4e537bd38aeae4b073aa335b6040516001600160a01b039091168152602001610ba1565b600354604051630e8aef6f60e41b81526001600160a01b0383811660048301529091169063e8aef6f09060240160206040518083038186803b158015610ef257600080fd5b505afa158015610f06573d6000803e3d6000fd5b505050506040513d601f19601f82011682018060405250810190610f2a9190613822565b6001600160a01b0316336001600160a01b0316146106fb5760405162461bcd60e51b815260206004820152600b60248201526a29a2292fa727aa2fa6a3a960a91b6044820152606401610281565b60035460405163172a8c1f60e31b81526001600160a01b0383811660048301529091169063b95460f89060240160206040518083038186803b158015610fbd57600080fd5b505afa158015610fd1573d6000803e3d6000fd5b505050506040513d601f19601f82011682018060405250810190610ff59190613943565b6106fb5760405162461bcd60e51b815260206004820152600a60248201526914d65397d0d313d4d15160b21b6044820152606401610281565b600354604051630e8aef6f60e41b81526001600160a01b0383811660048301529091169063e8aef6f09060240160206040518083038186803b15801561107357600080fd5b505afa158015611087573d6000803e3d6000fd5b505050506040513d601f19601f820116820180604052508101906110ab9190613822565b6001600160a01b0316336001600160a01b031614156106fb5760405162461bcd60e51b815260206004820152600b60248201526a29a2292fa727aa2fa6a12960a91b6044820152606401610281565b600082116111335760405162461bcd60e51b815260206004820152600660248201526505754483c3d360d41b6044820152606401610281565b600354604051630181a99d60e41b81526001600160a01b039091169063181a99d090611165908790879060040161397e565b60206040518083038186803b15801561117d57600080fd5b505afa158015611191573d6000803e3d6000fd5b505050506040513d601f19601f820116820180604052508101906111b59190613965565b8211156111ee5760405162461bcd60e51b815260206004820152600760248201526615d5120f90905360ca1b6044820152606401610281565b60035460405163aaee68af60e01b81526001600160a01b0386811660048301529091169063aaee68af9060240160206040518083038186803b15801561123357600080fd5b505afa158015611247573d6000803e3d6000fd5b505050506040513d601f19601f8201168201806040525081019061126b9190613965565b600354604051630181a99d60e41b815284916001600160a01b03169063181a99d09061129d908990899060040161397e565b60206040518083038186803b1580156112b557600080fd5b505afa1580156112c9573d6000803e3d6000fd5b505050506040513d601f19601f820116820180604052508101906112ed9190613965565b6112f79190613a4c565b10158061138d5750600354604051630181a99d60e41b815283916001600160a01b03169063181a99d090611331908890889060040161397e565b60206040518083038186803b15801561134957600080fd5b505afa15801561135d573d6000803e3d6000fd5b505050506040513d601f19601f820116820180604052508101906113819190613965565b61138b9190613a4c565b155b6113cd5760405162461bcd60e51b81526020600482015260116024820152700303c42414c3c4d494e5f4d42525f44455607c1b6044820152606401610281565b600354604051630181a99d60e41b81526000916001600160a01b03169063181a99d090611400908890889060040161397e565b60206040518083038186803b15801561141857600080fd5b505afa15801561142c573d6000803e3d6000fd5b505050506040513d601f19601f820116820180604052508101906114509190613965565b6003546040516335869d0960e11b81526001600160a01b03888116600483015292935060009290911690636b0d3a129060240160206040518083038186803b15801561149b57600080fd5b505afa1580156114af573d6000803e3d6000fd5b505050506040513d601f19601f820116820180604052508101906114d39190613965565b600354604051630181a99d60e41b81529192506001600160a01b031690631e0dbc9f90889088908890859063181a99d090611514908690869060040161397e565b60206040518083038186803b15801561152c57600080fd5b505afa158015611540573d6000803e3d6000fd5b505050506040513d601f19601f820116820180604052508101906115649190613965565b61156e9190613a4c565b6040518463ffffffff1660e01b815260040161158c93929190613998565b600060405180830381600087803b1580156115a657600080fd5b505af11580156115ba573d6000803e3d6000fd5b50506003546040516335869d0960e11b81526001600160a01b038a81166004830152909116925063220912849150889087908490636b0d3a129060240160206040518083038186803b15801561160f57600080fd5b505afa158015611623573d6000803e3d6000fd5b505050506040513d601f19601f820116820180604052508101906116479190613965565b6116519190613a4c565b6040518363ffffffff1660e01b815260040161166e9291906139bc565b600060405180830381600087803b15801561168857600080fd5b505af115801561169c573d6000803e3d6000fd5b5050600354604051630181a99d60e41b81526001600160a01b03909116925063181a99d091506116d2908990899060040161397e565b60206040518083038186803b1580156116ea57600080fd5b505afa1580156116fe573d6000803e3d6000fd5b505050506040513d601f19601f820116820180604052508101906117229190613965565b61180a5760035460405163e396ae9b60e01b81526001600160a01b038881166004830152909116906303d457c4908890600190849063e396ae9b9060240160206040518083038186803b15801561177857600080fd5b505afa15801561178c573d6000803e3d6000fd5b505050506040513d601f19601f820116820180604052508101906117b09190613965565b6117ba9190613a4c565b6040518363ffffffff1660e01b81526004016117d79291906139bc565b600060405180830381600087803b1580156117f157600080fd5b505af1158015611805573d6000803e3d6000fd5b505050505b600354604051630181a99d60e41b815261189991849187916001600160a01b03169063181a99d090611842908c908c9060040161397e565b60206040518083038186803b15801561185a57600080fd5b505afa15801561186e573d6000803e3d6000fd5b505050506040513d601f19601f820116820180604052508101906118929190613965565b6000613705565b6003546040516335869d0960e11b81526001600160a01b0388811660048301526118d3928492889290911690636b0d3a1290602401611842565b600354604051631c79211f60e11b81526001600160a01b03888116600483015260009216906338f2423e9060240160206040518083038186803b15801561191957600080fd5b505afa15801561192d573d6000803e3d6000fd5b505050506040513d601f19601f820116820180604052508101906119519190613822565b600354604051630e8aef6f60e41b81526001600160a01b038a811660048301529293508392808416926323b872dd9291169063e8aef6f09060240160206040518083038186803b1580156119a457600080fd5b505afa1580156119b8573d6000803e3d6000fd5b505050506040513d601f19601f820116820180604052508101906119dc9190613822565b89896040518463ffffffff1660e01b81526004016119fc93929190613998565b602060405180830381600087803b158015611a1657600080fd5b505af1158015611a2a573d6000803e3d6000fd5b505050506040513d601f19601f82011682018060405250810190611a4e9190613943565b508415611aba57816001600160a01b0316876001600160a01b0316896001600160a01b03167f507ca70e325824637258a1ed69013eefca2106ef802c85e16308137f75edae9b8942604051611aad929190918252602082015260400190565b60405180910390a4611b1b565b816001600160a01b0316876001600160a01b0316896001600160a01b03167f8db37cc72f229b72f193ddff49f87ddb68288b3b2351f1dd3111d313ac35028e8942604051611b12929190918252602082015260400190565b60405180910390a45b5050505050505050565b600154600160a01b900460ff1615611b4f5760405162461bcd60e51b8152600401610281906139d5565b6001805460ff60a01b1916600160a01b1790557f62e78cea01bee320cd4e420270b5ea74000d11b0c9f74754ebdbfc544b05a258610e953390565b60035460405163adc1017f60e01b81526001600160a01b0383811660048301529091169063adc1017f9060240160206040518083038186803b158015611bcf57600080fd5b505afa158015611be3573d6000803e3d6000fd5b505050506040513d601f19601f82011682018060405250810190611c079190613943565b6106fb5760405162461bcd60e51b815260206004820152601260248201527153594e5f4e4f545f4d4f4449464941424c4560701b6044820152606401610281565b336001600160a01b0383161415611c8f5760405162461bcd60e51b815260206004820152600b60248201526a29a2292fa727aa2fa6a12960a91b6044820152606401610281565b600354604051630181a99d60e41b81526001600160a01b039091169063181a99d090611cc1908690869060040161397e565b60206040518083038186803b158015611cd957600080fd5b505afa158015611ced573d6000803e3d6000fd5b505050506040513d601f19601f82011682018060405250810190611d119190613965565b6003546040516335869d0960e11b81526001600160a01b03868116600483015290911690636b0d3a129060240160206040518083038186803b158015611d5657600080fd5b505afa158015611d6a573d6000803e3d6000fd5b505050506040513d601f19601f82011682018060405250810190611d8e9190613965565b611d9a90600019613a4c565b611da49190613a4c565b8110611ddb5760405162461bcd60e51b815260206004820152600660248201526504445503c3d360d41b6044820152606401610281565b80611e9a57600354604051630181a99d60e41b81526001600160a01b039091169063181a99d090611e12908690869060040161397e565b60206040518083038186803b158015611e2a57600080fd5b505afa158015611e3e573d6000803e3d6000fd5b505050506040513d601f19601f82011682018060405250810190611e629190613965565b611e9a5760405162461bcd60e51b81526020600482015260096024820152684e4f5f4348414e474560b81b6044820152606401610281565b600354604051630181a99d60e41b81526000916001600160a01b03169063181a99d090611ecd908790879060040161397e565b60206040518083038186803b158015611ee557600080fd5b505afa158015611ef9573d6000803e3d6000fd5b505050506040513d601f19601f82011682018060405250810190611f1d9190613965565b6003546040516335869d0960e11b81526001600160a01b03878116600483015292935060009290911690636b0d3a129060240160206040518083038186803b158015611f6857600080fd5b505afa158015611f7c573d6000803e3d6000fd5b505050506040513d601f19601f82011682018060405250810190611fa09190613965565b600354604051631e0dbc9f60e01b81529192506001600160a01b031690631e0dbc9f90611fd590889088908890600401613998565b600060405180830381600087803b158015611fef57600080fd5b505af1158015612003573d6000803e3d6000fd5b505050506000838311156122255761201b8484613a4c565b6003546040516335869d0960e11b81526001600160a01b038981166004830152929350911690632209128490889084908490636b0d3a129060240160206040518083038186803b15801561206e57600080fd5b505afa158015612082573d6000803e3d6000fd5b505050506040513d601f19601f820116820180604052508101906120a69190613965565b6120b09190613a4c565b6040518363ffffffff1660e01b81526004016120cd9291906139bc565b600060405180830381600087803b1580156120e757600080fd5b505af11580156120fb573d6000803e3d6000fd5b50506003546040516335869d0960e11b81526001600160a01b038a81166004830152612137945086935085921690636b0d3a1290602401611842565b836122205760035460405163e396ae9b60e01b81526001600160a01b038881166004830152909116906303d457c4908890600190849063e396ae9b9060240160206040518083038186803b15801561218e57600080fd5b505afa1580156121a2573d6000803e3d6000fd5b505050506040513d601f19601f820116820180604052508101906121c69190613965565b6121d09190613a4c565b6040518363ffffffff1660e01b81526004016121ed9291906139bc565b600060405180830381600087803b15801561220757600080fd5b505af115801561221b573d6000803e3d6000fd5b505050505b612663565b83831015612663576122378385613a4c565b6003546040516335869d0960e11b81526001600160a01b038981166004830152929350911690632209128490889084908490636b0d3a129060240160206040518083038186803b15801561228a57600080fd5b505afa15801561229e573d6000803e3d6000fd5b505050506040513d601f19601f820116820180604052508101906122c29190613965565b6122cc9190613a34565b6040518363ffffffff1660e01b81526004016122e99291906139bc565b600060405180830381600087803b15801561230357600080fd5b505af1158015612317573d6000803e3d6000fd5b50506003546040516335869d0960e11b81526001600160a01b038a811660048301526123a6945086935085921690636b0d3a12906024015b60206040518083038186803b15801561236757600080fd5b505afa15801561237b573d6000803e3d6000fd5b505050506040513d601f19601f8201168201806040525081019061239f9190613965565b6001613705565b826126635760035460405163e396ae9b60e01b81526001600160a01b038881166004830152909116906303d457c4908890839063e396ae9b9060240160206040518083038186803b1580156123fa57600080fd5b505afa15801561240e573d6000803e3d6000fd5b505050506040513d601f19601f820116820180604052508101906124329190613965565b61243d906001613a34565b6040518363ffffffff1660e01b815260040161245a9291906139bc565b600060405180830381600087803b15801561247457600080fd5b505af1158015612488573d6000803e3d6000fd5b5050600354604051631b1187f760e11b81526001600160a01b038a8116600483015290911692506336230fee915060240160206040518083038186803b1580156124d157600080fd5b505afa1580156124e5573d6000803e3d6000fd5b505050506040513d601f19601f820116820180604052508101906125099190613965565b60035460405163e396ae9b60e01b81526001600160a01b0389811660048301529091169063e396ae9b9060240160206040518083038186803b15801561254e57600080fd5b505afa158015612562573d6000803e3d6000fd5b505050506040513d601f19601f820116820180604052508101906125869190613965565b11156126635760035460405163e396ae9b60e01b81526001600160a01b03888116600483015290911690632f2efee0908890839063e396ae9b9060240160206040518083038186803b1580156125db57600080fd5b505afa1580156125ef573d6000803e3d6000fd5b505050506040513d601f19601f820116820180604052508101906126139190613965565b6040518363ffffffff1660e01b81526004016126309291906139bc565b600060405180830381600087803b15801561264a57600080fd5b505af115801561265e573d6000803e3d6000fd5b505050505b604080518581524260208201526001600160a01b0380881692908916917fd0b1a246f69f68af340b7dd41a9f2fe571db82a3ac19656cf8fc8488a2a467e8910160405180910390a3505050505050565b60035460405163e32bf38d60e01b81526001600160a01b0383811660048301524292169063e32bf38d9060240160206040518083038186803b1580156126f857600080fd5b505afa15801561270c573d6000803e3d6000fd5b505050506040513d601f19601f820116820180604052508101906127309190613965565b116106fb5760405162461bcd60e51b815260206004820152600e60248201526d504153545f434c4f53454441544560901b6044820152606401610281565b600154600160a01b900460ff16156127985760405162461bcd60e51b8152600401610281906139d5565b600081116127d15760405162461bcd60e51b815260206004820152600660248201526504445503c3d360d41b6044820152606401610281565b6003546040516331dcbbdb60e21b81526001600160a01b0385811660048301529091169063c772ef6c9060240160206040518083038186803b15801561281657600080fd5b505afa15801561282a573d6000803e3d6000fd5b505050506040513d601f19601f8201168201806040525081019061284e9190613943565b15806128d7575060035460405163dfbd56f560e01b81526001600160a01b039091169063dfbd56f590612887908690869060040161397e565b60206040518083038186803b15801561289f57600080fd5b505afa1580156128b3573d6000803e3d6000fd5b505050506040513d601f19601f820116820180604052508101906128d79190613943565b6129155760405162461bcd60e51b815260206004820152600f60248201526e13509497d393d517d0531313d5d151608a1b6044820152606401610281565b6003546040516335869d0960e11b81526001600160a01b03858116600483015283921690636b0d3a129060240160206040518083038186803b15801561295a57600080fd5b505afa15801561296e573d6000803e3d6000fd5b505050506040513d601f19601f820116820180604052508101906129929190613965565b61299c9190613a34565b60035460405163d63f866360e01b81526001600160a01b0386811660048301529091169063d63f86639060240160206040518083038186803b1580156129e157600080fd5b505afa1580156129f5573d6000803e3d6000fd5b505050506040513d601f19601f82011682018060405250810190612a199190613965565b1015612a595760405162461bcd60e51b815260206004820152600f60248201526e04445503e4d41585f544f545f44455608c1b6044820152606401610281565b600354604051630181a99d60e41b81526001600160a01b039091169063181a99d090612a8b908690869060040161397e565b60206040518083038186803b158015612aa357600080fd5b505afa158015612ab7573d6000803e3d6000fd5b505050506040513d601f19601f82011682018060405250810190612adb9190613965565b612c1957600354604051631b1187f760e11b81526001600160a01b038581166004830152909116906336230fee9060240160206040518083038186803b158015612b2457600080fd5b505afa158015612b38573d6000803e3d6000fd5b505050506040513d601f19601f82011682018060405250810190612b5c9190613965565b60035460405163e396ae9b60e01b81526001600160a01b0386811660048301529091169063e396ae9b9060240160206040518083038186803b158015612ba157600080fd5b505afa158015612bb5573d6000803e3d6000fd5b505050506040513d601f19601f82011682018060405250810190612bd99190613965565b10612c195760405162461bcd60e51b815260206004820152601060248201526f13505617d3509494d7d4915050d2115160821b6044820152606401610281565b600354604051630181a99d60e41b815282916001600160a01b03169063181a99d090612c4b908790879060040161397e565b60206040518083038186803b158015612c6357600080fd5b505afa158015612c77573d6000803e3d6000fd5b505050506040513d601f19601f82011682018060405250810190612c9b9190613965565b612ca59190613a34565b60035460405163aaee68af60e01b81526001600160a01b0386811660048301529091169063aaee68af9060240160206040518083038186803b158015612cea57600080fd5b505afa158015612cfe573d6000803e3d6000fd5b505050506040513d601f19601f82011682018060405250810190612d229190613965565b1115612d645760405162461bcd60e51b81526020600482015260116024820152700303c42414c3c4d494e5f4d42525f44455607c1b6044820152606401610281565b600354604051630181a99d60e41b815282916001600160a01b03169063181a99d090612d96908790879060040161397e565b60206040518083038186803b158015612dae57600080fd5b505afa158015612dc2573d6000803e3d6000fd5b505050506040513d601f19601f82011682018060405250810190612de69190613965565b612df09190613a34565b6003546040516342c7102b60e01b81526001600160a01b038681166004830152909116906342c7102b9060240160206040518083038186803b158015612e3557600080fd5b505afa158015612e49573d6000803e3d6000fd5b505050506040513d601f19601f82011682018060405250810190612e6d9190613965565b1015612ead5760405162461bcd60e51b815260206004820152600f60248201526e042414c3e4d41585f4d42525f44455608c1b6044820152606401610281565b600354604051631c79211f60e11b81526001600160a01b03858116600483015260009216906338f2423e9060240160206040518083038186803b158015612ef357600080fd5b505afa158015612f07573d6000803e3d6000fd5b505050506040513d601f19601f82011682018060405250810190612f2b9190613822565b600354604051630e8aef6f60e41b81526001600160a01b038781166004830152929350600092808516926370a082319291169063e8aef6f09060240160206040518083038186803b158015612f7f57600080fd5b505afa158015612f93573d6000803e3d6000fd5b505050506040513d601f19601f82011682018060405250810190612fb79190613822565b6040516001600160e01b031960e084901b1681526001600160a01b03909116600482015260240160206040518083038186803b158015612ff657600080fd5b505afa15801561300a573d6000803e3d6000fd5b505050506040513d601f19601f8201168201806040525081019061302e9190613965565b600354604051630e8aef6f60e41b81526001600160a01b038881166004830152929350848316926323b872dd92889291169063e8aef6f09060240160206040518083038186803b15801561308157600080fd5b505afa158015613095573d6000803e3d6000fd5b505050506040513d601f19601f820116820180604052508101906130b99190613822565b866040518463ffffffff1660e01b81526004016130d893929190613998565b602060405180830381600087803b1580156130f257600080fd5b505af1158015613106573d6000803e3d6000fd5b505050506040513d601f19601f8201168201806040525081019061312a9190613943565b50600354604051630e8aef6f60e41b81526001600160a01b038781166004830152600092858216926370a08231929091169063e8aef6f09060240160206040518083038186803b15801561317d57600080fd5b505afa158015613191573d6000803e3d6000fd5b505050506040513d601f19601f820116820180604052508101906131b59190613822565b6040516001600160e01b031960e084901b1681526001600160a01b03909116600482015260240160206040518083038186803b1580156131f457600080fd5b505afa158015613208573d6000803e3d6000fd5b505050506040513d601f19601f8201168201806040525081019061322c9190613965565b90508181116132715760405162461bcd60e51b815260206004820152601160248201527011115417d11150d4915054d15117d09053607a1b6044820152606401610281565b600061327d8383613a4c565b600354604051630181a99d60e41b81529192506000916001600160a01b039091169063181a99d0906132b5908b908b9060040161397e565b60206040518083038186803b1580156132cd57600080fd5b505afa1580156132e1573d6000803e3d6000fd5b505050506040513d601f19601f820116820180604052508101906133059190613965565b6003546040516335869d0960e11b81526001600160a01b038b8116600483015292935060009290911690636b0d3a129060240160206040518083038186803b15801561335057600080fd5b505afa158015613364573d6000803e3d6000fd5b505050506040513d601f19601f820116820180604052508101906133889190613965565b600354604051630181a99d60e41b81529192506001600160a01b031690631e0dbc9f908b908b908790859063181a99d0906133c9908690869060040161397e565b60206040518083038186803b1580156133e157600080fd5b505afa1580156133f5573d6000803e3d6000fd5b505050506040513d601f19601f820116820180604052508101906134199190613965565b6134239190613a34565b6040518463ffffffff1660e01b815260040161344193929190613998565b600060405180830381600087803b15801561345b57600080fd5b505af115801561346f573d6000803e3d6000fd5b50506003546040516335869d0960e11b81526001600160a01b038d811660048301529091169250632209128491508b9086908490636b0d3a129060240160206040518083038186803b1580156134c457600080fd5b505afa1580156134d8573d6000803e3d6000fd5b505050506040513d601f19601f820116820180604052508101906134fc9190613965565b6135069190613a34565b6040518363ffffffff1660e01b81526004016135239291906139bc565b600060405180830381600087803b15801561353d57600080fd5b505af1158015613551573d6000803e3d6000fd5b5050505081600014156136405760035460405163e396ae9b60e01b81526001600160a01b038b81166004830152909116906303d457c4908b90839063e396ae9b9060240160206040518083038186803b1580156135ad57600080fd5b505afa1580156135c1573d6000803e3d6000fd5b505050506040513d601f19601f820116820180604052508101906135e59190613965565b6135f0906001613a34565b6040518363ffffffff1660e01b815260040161360d9291906139bc565b600060405180830381600087803b15801561362757600080fd5b505af115801561363b573d6000803e3d6000fd5b505050505b600354604051630181a99d60e41b815261367891849186916001600160a01b03169063181a99d09061234f908f908f9060040161397e565b6003546040516335869d0960e11b81526001600160a01b038b811660048301526136b2928492879290911690636b0d3a129060240161234f565b604080518481524260208201526001600160a01b03808b1692908c16917f7d2af6303d5fb7f085f9644c4ca9a8f1d649a71903203613cc53a3b7fdc16a6d910160405180910390a3505050505050505050565b801561376157816137168486613a34565b1461375c5760405162461bcd60e51b81526020600482015260166024820152751093d3d2d2d15154125391d7d0511117d1905253115160521b6044820152606401610281565b610442565b8161376c8486613a4c565b146104425760405162461bcd60e51b81526020600482015260166024820152751093d3d2d2d15154125391d7d4d55097d1905253115160521b6044820152606401610281565b60008083601f8401126137c457600080fd5b50813567ffffffffffffffff8111156137dc57600080fd5b6020830191508360208260051b85010111156137f757600080fd5b9250929050565b60006020828403121561381057600080fd5b813561381b81613aaa565b9392505050565b60006020828403121561383457600080fd5b815161381b81613aaa565b60008060006040848603121561385457600080fd5b833561385f81613aaa565b9250602084013567ffffffffffffffff81111561387b57600080fd5b613887868287016137b2565b9497909650939450505050565b6000806000806000606086880312156138ac57600080fd5b85356138b781613aaa565b9450602086013567ffffffffffffffff808211156138d457600080fd5b6138e089838a016137b2565b909650945060408801359150808211156138f957600080fd5b50613906888289016137b2565b969995985093965092949392505050565b6000806040838503121561392a57600080fd5b823561393581613aaa565b946020939093013593505050565b60006020828403121561395557600080fd5b8151801515811461381b57600080fd5b60006020828403121561397757600080fd5b5051919050565b6001600160a01b0392831681529116602082015260400190565b6001600160a01b039384168152919092166020820152604081019190915260600190565b6001600160a01b03929092168252602082015260400190565b60208082526010908201526f14185d5cd8589b194e881c185d5cd95960821b604082015260600190565b6020808252818101527f4f776e61626c653a2063616c6c6572206973206e6f7420746865206f776e6572604082015260600190565b60008219821115613a4757613a47613a7e565b500190565b600082821015613a5e57613a5e613a7e565b500390565b6000600019821415613a7757613a77613a7e565b5060010190565b634e487b7160e01b600052601160045260246000fd5b634e487b7160e01b600052603260045260246000fd5b6001600160a01b03811681146106fb57600080fdfea264697066735822122049f41ebf84a522b3d8a2cac5251013c111be6865dee9089993be96114e96537f64736f6c63430008050033",
  "immutableReferences": {},
  "source": "// SPDX-License-Identifier: UNLICENSED\n\npragma solidity ^0.8.0;\n\nimport \"@openzeppelin/contracts/token/ERC20/utils/SafeERC20.sol\";\nimport \"./SyndicateClosedEndFundLogic.sol\";\n\n/// @author Syndicate Inc.\n/// @notice Handle member deposit accounting and ERC20 transfers\ncontract SyndicateClosedEndFundDepositLogicV0 is SyndicateClosedEndFundLogic {\n    using SafeERC20 for IERC20;\n\n    // Storage------------------------------------------------------------------\n\n    /// @notice Used to initialize the Syndicate contract.\n    constructor(address storeAddress)\n        SyndicateClosedEndFundLogic(storeAddress)\n    {}\n\n    // Events-------------------------------------------------------------------\n\n    /// @notice Emit an event when a manager sets a new minimum deposit amount\n    /// per wallet address\n    event managerSetterDepositMinMember(\n        address indexed syndicateAddress,\n        uint256 depositMinMember\n    );\n\n    /// @notice Emit an event when a manager sets a new maximum deposit amount\n    /// per wallet address\n    event managerSetterDepositMaxMember(\n        address indexed syndicateAddress,\n        uint256 depositMaxMember\n    );\n\n    /// @notice Emit an event when a manager sets a new maximum total deposit\n    /// amount\n    event managerSetterDepositMaxTotal(\n        address indexed syndicateAddress,\n        uint256 depositMaxTotal\n    );\n\n    /// @notice Emit an event when a member deposits to a Syndicate\n    /// @dev This is the only way to search for a member's Syndicates. The\n    /// Syndicates on chain rely on a mapping, so they are not iterable.\n    /// Instead, it's necessary to search through an indexed memberAddress\n    /// off-chain to get a list of a member's Syndicates for screens such as the\n    /// My Syndicates screen.\n    /// @dev This must be reconciled with `memberWithdrewDeposit` events to get\n    /// a list of all Syndicates for which a member has a nonzero deposit.\n    event memberDeposited(\n        address indexed syndicateAddress,\n        address indexed memberAddress,\n        uint256 amountDeposited,\n        uint256 timestamp\n    );\n\n    /// @notice Emit an event when a member withdraws a deposit from a\n    /// Syndicate. If a member withdraws the full amount that they originally\n    /// deposited, then they no longer have any holdings in that Syndicate.\n    /// @dev A different event is emitted for withdrawing distributions\n    event memberWithdrewDeposit(\n        address indexed syndicateAddress,\n        address indexed memberAddress,\n        address indexed depositERC20Address,\n        uint256 amountWithdrawn,\n        uint256 timestamp\n    );\n\n    /// @notice Emit an event when a manager overrides a member's balance\n    /// with a new value. Applicable to `modifiable` Syndicates only.\n    /// @dev The balance emitted is the new value, not the change in value\n    event managerSetterDepositForMember(\n        address indexed syndicateAddress,\n        address indexed memberAddress,\n        uint256 depositMember,\n        uint256 timestamp\n    );\n\n    /// @notice Emit an event when a manager rejects a member's deposit\n    event managerRejectedDepositForMember(\n        address indexed syndicateAddress,\n        address indexed memberAddress,\n        address indexed depositERC20Address,\n        uint256 amountWithdrawn,\n        uint256 timestamp\n    );\n\n    // Functions----------------------------------------------------------------\n\n    /// @notice Set the minimum deposit per wallet address. This is the minimum\n    /// that a single member can contribute to the Syndicate\n    /// @param syndicateAddress The address of the Syndicate\n    /// @param depositMinMember The minimum deposit amount per member. Must not\n    /// exceed the current `depositMaxMember`.\n    function managerSetDepositMinMember(\n        address syndicateAddress,\n        uint256 depositMinMember\n    ) public onlyManager(syndicateAddress) onlyOpen(syndicateAddress) {\n        require(\n            depositMinMember <= store.depositMaxMember(syndicateAddress),\n            \"MIN_MBR_DEP>MAX_MBR_DEP\"\n        );\n\n        store.setDepositMinMember(syndicateAddress, depositMinMember);\n\n        emit managerSetterDepositMinMember(syndicateAddress, depositMinMember);\n    }\n\n    /// @notice Set the maximum deposit per wallet address. This is the maximum\n    /// that a single member can contribute to the Syndicate\n    /// @param syndicateAddress The address of the Syndicate\n    /// @param depositMaxMember The maximum deposit amount per user. Must be at\n    /// least the current `depositMinMember`, and cannot exceed the current\n    /// `depositMaxTotal`.\n    function managerSetDepositMaxMember(\n        address syndicateAddress,\n        uint256 depositMaxMember\n    ) public onlyManager(syndicateAddress) onlyOpen(syndicateAddress) {\n        require(\n            depositMaxMember >= store.depositMinMember(syndicateAddress),\n            \"MAX_MBR_DEP<MIN_MBR_DEP\"\n        );\n        require(\n            depositMaxMember <= store.depositMaxTotal(syndicateAddress),\n            \"MAX_MBR_DEP>MAX_TOT_DEP\"\n        );\n\n        store.setDepositMaxMember(syndicateAddress, depositMaxMember);\n\n        emit managerSetterDepositMaxMember(syndicateAddress, depositMaxMember);\n    }\n\n    /// @notice Set the maximum total deposit amount. This is the maximum\n    /// that all members combined can contribute to the Syndicate\n    /// @param syndicateAddress The address of the Syndicate\n    /// @param depositMaxTotal The maximum total number of deposits. Must be\n    /// at least the current `depositMaxMember`.\n    /// @notice `depositMaxTotal` is not required to be at least `depositTotal`.\n    /// Setting `depositMaxTotal` to be less than `depositTotal` can be thought\n    /// of as a simple way to cut off deposits if the Syndicate has grown too\n    /// large.\n    function managerSetDepositMaxTotal(\n        address syndicateAddress,\n        uint256 depositMaxTotal\n    ) public onlyManager(syndicateAddress) onlyOpen(syndicateAddress) {\n        require(\n            depositMaxTotal >= store.depositMaxMember(syndicateAddress),\n            \"MAX_TOT_DEP<MAX_MBR_DEP\"\n        );\n\n        store.setDepositMaxTotal(syndicateAddress, depositMaxTotal);\n\n        emit managerSetterDepositMaxTotal(syndicateAddress, depositMaxTotal);\n    }\n\n    /// @notice Used by a member to make a deposit to an open Syndicate.\n    /// @param syndicateAddress The Syndicate that a member is depositing to\n    /// @param amount The amount of the deposit (note that this is calculated\n    /// using the Syndicate's primary ERC20 token)\n    /// @notice If a manager is issuing a Syndicate under SEC Rule 506(b) of\n    /// Regulation D, a manager should only add a member's address(es) to the\n    /// allowlist if the member attests that they are an accredited investor.\n    /// This is also highlighted in the web interface, but it is not a\n    /// requirement of the smart contract since not all Syndicates are\n    /// securities, nor are all Syndicates that are securities necessarily\n    /// 506(b) offerings (they could be 506(c) offerings for example).\n    /// @notice Under Rule 506(b), up to 35 non-accredited investors can invest\n    /// in a private placement. These non-accredited investors must have\n    /// sufficient knowledge and experience, which is difficult to verify in a\n    /// decentralized context. As a result, we leave it up to the Syndicate\n    /// manager to track their own list of up to 35 non-accredited investors and\n    /// add them to the allowlist. The Syndicate manager must provide\n    /// disclosures to non-accredited investors that comply with Regulation A\n    /// offerings, give non-accredited investors financial statement\n    /// information specified in Rule 506, and be available to answer questions\n    /// from potential members who are non-accredited investors. This\n    /// responsibility rests with the Syndicate manager. See\n    /// https://www.sec.gov/smallbusiness/exemptofferings/rule506b\n    /// @notice Nothing in this documentation should be considered legal\n    /// advice. If you are seeking any clarification, please email us at\n    /// hello[at]syndicateprotocol.org.\n    /// @dev The member's deposit is associated to the address of `msg.sender`.\n    /// Functionality to transfer member balances to new owners will likely be\n    /// added in the future.\n    function memberDeposit(address syndicateAddress, uint256 amount)\n        public\n        nonReentrant()\n        onlyNotManager(syndicateAddress)\n        onlyBeforeDateClose(syndicateAddress)\n    {\n        _deposit(syndicateAddress, msg.sender, amount);\n    }\n\n    /// @notice Used by a member to withdraw a deposit from an open Syndicate\n    /// or a distribution from a closed Syndicate.\n    /// @param syndicateAddress The Syndicate that a member will withdraw from.\n    /// @param amount The amount of tokens to be withdrawn which are of the same\n    /// ERC20 as the deposit token.\n    /// @notice Withdrawal options are different depending on the Syndicate's\n    /// progression through its life cycle. When the Syndicate is open, a member\n    /// can make a withdrawal in the deposit ERC20 token (essentially refunding\n    /// their deposit).\n    /// @dev Withdrawals are processed before any fees that any ERC20 token may\n    /// assess. The amount that all users receive may be lower if an ERC20\n    /// token takes a fee upon a transfer.\n    /// @dev memberWithdraw() follows the Checks-Effects-Interactions pattern\n    function memberWithdraw(address syndicateAddress, uint256 amount)\n        public\n        onlyNotManager(syndicateAddress)\n        onlyOpen(syndicateAddress)\n    {\n        _withdraw(syndicateAddress, msg.sender, amount, false);\n    }\n\n    /// @notice Used by a manager to reject a member's deposit\n    /// @param syndicateAddress The Syndicate that the member deposited in\n    /// @param memberAddresses The members whose WHOLE contribution is being\n    /// returned\n    /// @dev The `onlyManager()` modifier must be listed first for it to be\n    /// marked as `virtual` by the Certora Prover harness script\n    function managerRejectDepositForMembers(\n        address syndicateAddress,\n        address[] calldata memberAddresses\n    )\n        public\n        onlyManager(syndicateAddress)\n        whenNotPaused()\n        onlyOpen(syndicateAddress)\n    {\n        for (uint256 i = 0; i < memberAddresses.length; i++) {\n            uint256 returnAmount = store.depositMember(\n                syndicateAddress,\n                memberAddresses[i]\n            );\n\n            _withdraw(syndicateAddress, memberAddresses[i], returnAmount, true);\n        }\n    }\n\n    /// @notice Used by a manager to manually adjust the deposit amount for\n    /// multiple member address (e.g. in response to off-chain transactions).\n    /// This function **does not** enforce constraints on `depositMinMember`,\n    /// `depositMaxMember`, `depositMaxTotal`, or `numMembersMax`. However, it\n    /// **does** update bookkeeping of `depositTotal` and `numMembersCurrent`.\n    /// @param syndicateAddress The address of the Syndicate\n    /// @param memberAddresses The addresses of the member whose deposit is\n    /// being adjusted\n    /// @param amounts The new deposit amount to be set for the corresponding\n    /// index in the memberAddresses array. These arrays must be the same\n    /// length. Note that the new amount completely replaces the prior deposit\n    /// amount for the member. It does not add or subtract from it.\n    /// @notice This function can only be called if the Syndicate is modifiable.\n    /// The modifiable boolean is set by the manager on creation and cannot be\n    /// changed after the Syndicate is created.\n    /// @notice This function can only be called before distributions have been\n    /// enabled (though the Syndicate may be closed to deposits). If\n    /// distributions have already been enabled, then changing deposit amounts\n    /// could affect the ownership share of unclaimed distributions and create\n    /// significant problems for other members.\n    function managerSetDepositForMembers(\n        address syndicateAddress,\n        address[] calldata memberAddresses,\n        uint256[] calldata amounts\n    )\n        public\n        onlyManager(syndicateAddress)\n        onlyOpen(syndicateAddress)\n        onlyModifiable(syndicateAddress)\n    {\n        require(memberAddresses.length == amounts.length, \"ARRAY_LENGTHS_DIFFER\");\n\n        for (uint256 i = 0; i < memberAddresses.length; i++) {\n            _setDeposit(syndicateAddress, memberAddresses[i], amounts[i]);\n        }\n    }\n\n    // Internal functions-------------------------------------------------------\n\n    /// @notice Process a deposit to a Syndicate.\n    /// @param syndicateAddress The address of the Syndicate\n    /// @param memberAddress The address of the member who is depositing\n    /// @param amount The amount that `memberAddress` is depositing, in the\n    /// token defined by the Syndicate's depositERC20Address\n    /// @dev This function is high risk. If the `.transferFrom` line can be\n    /// redirected elsewhere, deposits could be stolen. In addition, if the\n    /// deposits are not properly tracked, a user could withdraw more than their\n    /// allocated share of the distributions.\n    /// @dev We check the difference between balances to determine the after-fee\n    /// amount of a deposit.\n    function _deposit(\n        address syndicateAddress,\n        address memberAddress,\n        uint256 amount\n    ) internal whenNotPaused() {\n        // deposit amounts must be greater than zero\n        // member is on allowlist (if enabled)\n        // member's resulting deposit does not exceed fund's depositMaxTotal\n        // number of members does not exceed fund's numMembersMax\n        // member's resulting deposit above depositMinMember\n        // member's resulting deposit below depositMaxMember\n        // event emission memberDeposited\n        // member count increments if member has not previously deposited\n        // member deposit value and total deposit value increment by deposit amount\n        // ERC20s move from member's wallet to manager's wallet\n\n        // Without this line, a member could spam deposits of 0. It is\n        // additionally necessary to protect `_processDeposit` from\n        // incrementing `numMembersCurrent` when a member with a deposit of 0\n        // deposits 0.\n        require(amount > 0, \"DEP<=0\");\n\n        // If the allowlist is enabled and `memberAddress` has not been\n        // allowed, the member cannot make a deposit.\n        require(\n            !store.allowlistEnabled(syndicateAddress) ||\n                store.addressAllowed(syndicateAddress, memberAddress),\n            \"MBR_NOT_ALLOWED\"\n        );\n\n        // Check that this deposit will not surpass the fund's depositMaxTotal\n        require(\n            store.depositMaxTotal(syndicateAddress) >=\n                store.depositTotal(syndicateAddress) + amount,\n            \"DEP>MAX_TOT_DEP\"\n        );\n\n        // If this is the member's first deposit to the Syndicate, check that\n        // the Syndicate has not already received deposits from its maximum\n        // number of members\n        if (store.depositMember(syndicateAddress, memberAddress) == 0) {\n            require(\n                store.numMembersCurrent(syndicateAddress) <\n                    store.numMembersMax(syndicateAddress),\n                \"MAX_MBRS_REACHED\"\n            );\n        }\n\n        // Check that the member's balance will not be below `depositMinMember`\n        // AFTER the execution of this deposit\n        require(\n            store.depositMinMember(syndicateAddress) <=\n                store.depositMember(syndicateAddress, memberAddress) + amount,\n            \"0<BAL<MIN_MBR_DEP\"\n        );\n\n        // Check that this deposit will not cause the member to surpass\n        // `depositMaxMember`\n        require(\n            store.depositMaxMember(syndicateAddress) >=\n                store.depositMember(syndicateAddress, memberAddress) + amount,\n            \"BAL>MAX_MBR_DEP\"\n        );\n\n        // Cannot follow the Checks-Effects-Interactions-Pattern to prevent\n        // reentrancy attacks because we do not know the balance of the token\n        // until after the transfer (to handle tokens that take a fee).\n        // Instead, we use a nonReentrant() modifier via ReentrancyGuard on\n        // memberDeposit()\n        IERC20 depositERC20 = IERC20(\n            store.depositERC20Address(syndicateAddress)\n        );\n\n        // Keep track of the old balance to determine whether a token takes fees\n        uint256 oldBalance = depositERC20.balanceOf(\n            store.managerCurrent(syndicateAddress)\n        );\n\n        depositERC20.transferFrom(\n            memberAddress,\n            store.managerCurrent(syndicateAddress),\n            amount\n        );\n\n        // After the transfer, increase the deposit amount by the difference\n        // in the balances. Solidity transactions are synchronous under the hood\n        // so there is no risk of the balance changing during this transaction.\n        // We check the difference between the old and new balance to account\n        // for tokens that might have taken a fee upon transfer.\n        uint256 newBalance = depositERC20.balanceOf(\n            store.managerCurrent(syndicateAddress)\n        );\n\n        require(newBalance > oldBalance, \"DEP_DECREASED_BAL\");\n\n        uint256 balanceDiff = newBalance - oldBalance;\n\n        uint256 oldDeposit = store.depositMember(\n            syndicateAddress,\n            memberAddress\n        );\n        uint256 oldDepositTotal = store.depositTotal(syndicateAddress);\n\n        store.setDepositMember(\n            syndicateAddress,\n            memberAddress,\n            store.depositMember(syndicateAddress, memberAddress) + balanceDiff\n        );\n\n        store.setDepositTotal(\n            syndicateAddress,\n            store.depositTotal(syndicateAddress) + balanceDiff\n        );\n\n        // if this is a first-time depositor, increment number of members\n        if (oldDeposit == 0) {\n            store.setNumMembersCurrent(\n                syndicateAddress,\n                store.numMembersCurrent(syndicateAddress) + 1\n            );\n        }\n\n        // Checks that oldDeposit + balanceDiff = depositMember[memberAddress]\n        _checkBookkeeping(\n            oldDeposit,\n            balanceDiff,\n            store.depositMember(syndicateAddress, memberAddress),\n            true\n        );\n        // Checks that oldDepositTotal + balanceDiff = depositTotal\n        _checkBookkeeping(\n            oldDepositTotal,\n            balanceDiff,\n            store.depositTotal(syndicateAddress),\n            true\n        );\n\n        emit memberDeposited(\n            syndicateAddress,\n            memberAddress,\n            balanceDiff,\n            block.timestamp\n        );\n    }\n\n    /// @notice Process a withdrawal from a Syndicate\n    /// @param syndicateAddress The address of the Syndicate\n    /// @param memberAddress The address of the member who is depositing\n    /// @param amount The amount that `memberAddress` is depositing, in the\n    /// token defined by the Syndicate's depositERC20Address\n    /// @param calledByManager If this method is called by a manager\n    function _withdraw(\n        address syndicateAddress,\n        address memberAddress,\n        uint256 amount,\n        bool calledByManager\n    ) internal {\n        // Without this line, a member could spam withdrawals of 0. It is\n        // additionally necessary to protect `_processWithdrawalOpen` from\n        // decrementing `numMembersCurrent` when a member with a deposit of 0\n        // withdraws 0.\n        require(amount > 0, \"WTH<=0\");\n\n        // HIGH RISK: Without this line, a member could withdraw more than\n        // they put into the fund.\n        require(\n            amount <= store.depositMember(syndicateAddress, memberAddress),\n            \"WTH>BAL\"\n        );\n\n        // HIGH RISK: Without this line, a member could withdraw below\n        // the minDepositLP (withdrawal of the entire balance is allowed).\n        require(\n            store.depositMember(syndicateAddress, memberAddress) - amount >=\n                store.depositMinMember(syndicateAddress) ||\n                store.depositMember(syndicateAddress, memberAddress) - amount ==\n                0,\n            \"0<BAL<MIN_MBR_DEP\"\n        );\n\n        uint256 oldDeposit = store.depositMember(\n            syndicateAddress,\n            memberAddress\n        );\n        uint256 oldDepositTotal = store.depositTotal(syndicateAddress);\n\n        store.setDepositMember(\n            syndicateAddress,\n            memberAddress,\n            store.depositMember(syndicateAddress, memberAddress) - amount\n        );\n\n        store.setDepositTotal(\n            syndicateAddress,\n            store.depositTotal(syndicateAddress) - amount\n        );\n\n        // if member withdraws all their deposits, decrement number of members\n        if (store.depositMember(syndicateAddress, memberAddress) == 0) {\n            store.setNumMembersCurrent(\n                syndicateAddress,\n                store.numMembersCurrent(syndicateAddress) - 1\n            );\n        }\n\n        // Checks that oldDeposit - amount = depositMember[memberAddress]\n        _checkBookkeeping(\n            oldDeposit,\n            amount,\n            store.depositMember(syndicateAddress, memberAddress),\n            false\n        );\n        // Checks that oldDepositTotal - amount = depositTotal\n        _checkBookkeeping(\n            oldDepositTotal,\n            amount,\n            store.depositTotal(syndicateAddress),\n            false\n        );\n\n        // Decreasing the amounts before calling transferFrom is *critical* for\n        // preventing re-entrancy attacks. See SYN-143 for more details.\n        // Now that we've decreased the amounts, we can allow the transferFrom\n        // to proceed. If the transferFrom fails, the entire function will\n        // revert. transferFrom ensures that a non-reverting call was\n        // successful and that a revert indicates failure, which removes the\n        // need for a require statement around the ERC-20 call.\n        // See https://ethereum.stackexchange.com/questions/28985/does-revert-require-revert-changes-made-to-other-contracts\n        // Also see https://docs.soliditylang.org/en/v0.7.6/control-structures.html\n\n        address ERC20Address = store.depositERC20Address(syndicateAddress);\n\n        IERC20 withdrawalERC20 = IERC20(ERC20Address);\n\n        // HIGH RISK: If we did not use `memberAddress`, this could be used to\n        // redirect funds from users other than the wallet holder (or smart\n        // contract owner, if a DAO is making the withdrawal).\n        withdrawalERC20.transferFrom(\n            store.managerCurrent(syndicateAddress),\n            memberAddress,\n            amount\n        );\n\n        if (calledByManager) {\n            emit managerRejectedDepositForMember(\n                syndicateAddress,\n                memberAddress,\n                ERC20Address,\n                amount,\n                block.timestamp\n            );\n        } else {\n            emit memberWithdrewDeposit(\n                syndicateAddress,\n                memberAddress,\n                ERC20Address,\n                amount,\n                block.timestamp\n            );\n        }\n    }\n\n    /// @notice Set the deposit amount for a single member.\n    /// @param syndicateAddress The address of the Syndicate\n    /// @param memberAddress The address of the member\n    /// @param amount The new deposit amount to set for the member.\n    /// @dev This function makes setting a large number of deposit amounts\n    /// slightly more gas efficient by calling each of the parent function's.\n    /// modifiers only once. Importantly, that means the parent is responsible\n    /// for enforcing these constraints and CANNOT rely on this helper function\n    /// to do so.\n    function _setDeposit(\n        address syndicateAddress,\n        address memberAddress,\n        uint256 amount\n    ) internal {\n        // A manager cannot make deposits to their own Syndicate, as they would\n        // receive an ownership stake without transferring capital\n        require(msg.sender != memberAddress, \"SDR_NOT_MBR\");\n\n        // Ensure the new `depositTotal` does not exceed bookkeeping\n        // capacities, in order to prevent reversion of other operations such\n        // as `getDistributionUnclaimedMember()` later.\n        require(\n            amount <\n                type(uint256).max -\n                    store.depositTotal(syndicateAddress) -\n                    store.depositMember(syndicateAddress, memberAddress),\n            \"DEP<=0\"\n        );\n\n        // Safeguard against a successful call to this function without any\n        // change of state, which could increase the likelihood of manager\n        // error (e.g. a manager thinking they have successfully removed all\n        // funds for a member when they in fact used the wrong address).\n        if (amount == 0) {\n            require(\n                store.depositMember(syndicateAddress, memberAddress) != 0,\n                \"NO_CHANGE\"\n            );\n        }\n\n        // Store the previous deposit amounts for bookkeeping\n        uint256 oldDepositAmount = store.depositMember(\n            syndicateAddress,\n            memberAddress\n        );\n        uint256 oldDepositTotal = store.depositTotal(syndicateAddress);\n\n        // Set the member's new balance\n        store.setDepositMember(syndicateAddress, memberAddress, amount);\n\n        // Check if the old or new balance is greater before subtracting to\n        // avoid overflows\n        uint256 amountChanged;\n\n        // If the modification effectively DECREASES the member's deposit total:\n        if (oldDepositAmount > amount) {\n            amountChanged = oldDepositAmount - amount;\n            // Sets the Syndicate's new `depositTotal`\n            store.setDepositTotal(\n                syndicateAddress,\n                store.depositTotal(syndicateAddress) - amountChanged\n            );\n            // Checks that oldDepositTotal - amountChanged = newTotalDeposits\n            _checkBookkeeping(\n                oldDepositTotal,\n                amountChanged,\n                store.depositTotal(syndicateAddress),\n                false\n            );\n            // If the member's new deposit is 0, decrease the numMembersCurrent counter\n            if (amount == 0) {\n                store.setNumMembersCurrent(\n                    syndicateAddress,\n                    store.numMembersCurrent(syndicateAddress) - 1\n                );\n            }\n        }\n        // If the modification effectively INCREASES the member's deposit total:\n        else if (oldDepositAmount < amount) {\n            amountChanged = amount - oldDepositAmount;\n            // Sets the Syndicate's new `depositTotal`\n            store.setDepositTotal(\n                syndicateAddress,\n                store.depositTotal(syndicateAddress) + amountChanged\n            );\n            // Checks that oldDepositTotal + amountChanged = newTotalDeposits\n            _checkBookkeeping(\n                oldDepositTotal,\n                amountChanged,\n                store.depositTotal(syndicateAddress),\n                true\n            );\n            // If the member's previous deposit was 0, increment\n            // `numMembersCurrent`\n            if (oldDepositAmount == 0) {\n                store.setNumMembersCurrent(\n                    syndicateAddress,\n                    store.numMembersCurrent(syndicateAddress) + 1\n                );\n                // Ensure `numMembersCurrent <= numMembersMax` at all times\n\n                if (\n                    store.numMembersCurrent(syndicateAddress) >\n                    store.numMembersMax(syndicateAddress)\n                ) {\n                    store.setNumMembersMax(\n                        syndicateAddress,\n                        store.numMembersCurrent(syndicateAddress)\n                    );\n                }\n            }\n        }\n        emit managerSetterDepositForMember(\n            syndicateAddress,\n            memberAddress,\n            amount,\n            block.timestamp\n        );\n    }\n}\n",
  "sourcePath": "/home/will/Syndicate/contracts/SyndicateClosedEndFundDepositLogicV0.sol",
  "compiler": {
    "name": "solc",
    "version": "0.8.5+commit.a4f2e591.Emscripten.clang"
  },
  "schemaVersion": "3.4.0",
  "updatedAt": "2021-06-21T04:55:02.101Z",
  "devdoc": {
    "author": "Syndicate Inc.",
    "events": {
      "managerSetterDepositForMember(address,address,uint256,uint256)": {
        "details": "The balance emitted is the new value, not the change in value"
      },
      "memberDeposited(address,address,uint256,uint256)": {
        "details": "This is the only way to search for a member's Syndicates. The Syndicates on chain rely on a mapping, so they are not iterable. Instead, it's necessary to search through an indexed memberAddress off-chain to get a list of a member's Syndicates for screens such as the My Syndicates screen.This must be reconciled with `memberWithdrewDeposit` events to get a list of all Syndicates for which a member has a nonzero deposit."
      },
      "memberWithdrewDeposit(address,address,address,uint256,uint256)": {
        "details": "A different event is emitted for withdrawing distributions"
      }
    },
    "kind": "dev",
    "methods": {
      "managerRejectDepositForMembers(address,address[])": {
        "details": "The `onlyManager()` modifier must be listed first for it to be marked as `virtual` by the Certora Prover harness script",
        "params": {
          "memberAddresses": "The members whose WHOLE contribution is being returned",
          "syndicateAddress": "The Syndicate that the member deposited in"
        }
      },
      "managerSetDepositForMembers(address,address[],uint256[])": {
        "params": {
          "amounts": "The new deposit amount to be set for the corresponding index in the memberAddresses array. These arrays must be the same length. Note that the new amount completely replaces the prior deposit amount for the member. It does not add or subtract from it.",
          "memberAddresses": "The addresses of the member whose deposit is being adjusted",
          "syndicateAddress": "The address of the Syndicate"
        }
      },
      "managerSetDepositMaxMember(address,uint256)": {
        "params": {
          "depositMaxMember": "The maximum deposit amount per user. Must be at least the current `depositMinMember`, and cannot exceed the current `depositMaxTotal`.",
          "syndicateAddress": "The address of the Syndicate"
        }
      },
      "managerSetDepositMaxTotal(address,uint256)": {
        "params": {
          "depositMaxTotal": "The maximum total number of deposits. Must be at least the current `depositMaxMember`.",
          "syndicateAddress": "The address of the Syndicate"
        }
      },
      "managerSetDepositMinMember(address,uint256)": {
        "params": {
          "depositMinMember": "The minimum deposit amount per member. Must not exceed the current `depositMaxMember`.",
          "syndicateAddress": "The address of the Syndicate"
        }
      },
      "memberDeposit(address,uint256)": {
        "details": "The member's deposit is associated to the address of `msg.sender`. Functionality to transfer member balances to new owners will likely be added in the future.",
        "params": {
          "amount": "The amount of the deposit (note that this is calculated using the Syndicate's primary ERC20 token)",
          "syndicateAddress": "The Syndicate that a member is depositing to"
        }
      },
      "memberWithdraw(address,uint256)": {
        "details": "Withdrawals are processed before any fees that any ERC20 token may assess. The amount that all users receive may be lower if an ERC20 token takes a fee upon a transfer.memberWithdraw() follows the Checks-Effects-Interactions pattern",
        "params": {
          "amount": "The amount of tokens to be withdrawn which are of the same ERC20 as the deposit token.",
          "syndicateAddress": "The Syndicate that a member will withdraw from."
        }
      },
      "owner()": {
        "details": "Returns the address of the current owner."
      },
      "ownerSetSyndicateFeeAddress(address)": {
        "params": {
          "feeAddress": "The owner's new contract fee address"
        }
      },
      "ownerTransferOwnership(address)": {
        "params": {
          "newOwner": "The new owner's address."
        }
      },
      "paused()": {
        "details": "Returns true if the contract is paused, and false otherwise."
      },
      "renounceOwnership()": {
        "details": "Leaves the contract without owner. It will not be possible to call `onlyOwner` functions anymore. Can only be called by the current owner. NOTE: Renouncing ownership will leave the contract without an owner, thereby removing any functionality that is only available to the owner."
      },
      "transferOwnership(address)": {
        "details": "Transfers ownership of the contract to a new account (`newOwner`). Can only be called by the current owner."
      }
    },
    "version": 1
  },
  "userdoc": {
    "events": {
      "managerClosedSyndicate(address,uint256)": {
        "notice": "Emit an event when a manager closes a Syndicate"
      },
      "managerRejectedDepositForMember(address,address,address,uint256,uint256)": {
        "notice": "Emit an event when a manager rejects a member's deposit"
      },
      "managerSetterDepositForMember(address,address,uint256,uint256)": {
        "notice": "Emit an event when a manager overrides a member's balance with a new value. Applicable to `modifiable` Syndicates only."
      },
      "managerSetterDepositMaxMember(address,uint256)": {
        "notice": "Emit an event when a manager sets a new maximum deposit amount per wallet address"
      },
      "managerSetterDepositMaxTotal(address,uint256)": {
        "notice": "Emit an event when a manager sets a new maximum total deposit amount"
      },
      "managerSetterDepositMinMember(address,uint256)": {
        "notice": "Emit an event when a manager sets a new minimum deposit amount per wallet address"
      },
      "memberDeposited(address,address,uint256,uint256)": {
        "notice": "Emit an event when a member deposits to a Syndicate"
      },
      "memberWithdrewDeposit(address,address,address,uint256,uint256)": {
        "notice": "Emit an event when a member withdraws a deposit from a Syndicate. If a member withdraws the full amount that they originally deposited, then they no longer have any holdings in that Syndicate."
      },
      "ownerRenouncedPause(address)": {
        "notice": "Emit an event when the owner renounces ability to pause the contract"
      },
      "ownerSetterSyndicateFeeAddress(address,uint256)": {
        "notice": "Emit an event when the owner of the contract sets a new contract fee address"
      }
    },
    "kind": "user",
    "methods": {
      "constructor": {
        "notice": "Used to initialize the Syndicate contract."
      },
      "managerRejectDepositForMembers(address,address[])": {
        "notice": "Used by a manager to reject a member's deposit"
      },
      "managerSetDepositForMembers(address,address[],uint256[])": {
        "notice": "Used by a manager to manually adjust the deposit amount for multiple member address (e.g. in response to off-chain transactions). This function **does not** enforce constraints on `depositMinMember`, `depositMaxMember`, `depositMaxTotal`, or `numMembersMax`. However, it **does** update bookkeeping of `depositTotal` and `numMembersCurrent`.This function can only be called if the Syndicate is modifiable. The modifiable boolean is set by the manager on creation and cannot be changed after the Syndicate is created.This function can only be called before distributions have been enabled (though the Syndicate may be closed to deposits). If distributions have already been enabled, then changing deposit amounts could affect the ownership share of unclaimed distributions and create significant problems for other members."
      },
      "managerSetDepositMaxMember(address,uint256)": {
        "notice": "Set the maximum deposit per wallet address. This is the maximum that a single member can contribute to the Syndicate"
      },
      "managerSetDepositMaxTotal(address,uint256)": {
        "notice": "Set the maximum total deposit amount. This is the maximum that all members combined can contribute to the Syndicate`depositMaxTotal` is not required to be at least `depositTotal`. Setting `depositMaxTotal` to be less than `depositTotal` can be thought of as a simple way to cut off deposits if the Syndicate has grown too large."
      },
      "managerSetDepositMinMember(address,uint256)": {
        "notice": "Set the minimum deposit per wallet address. This is the minimum that a single member can contribute to the Syndicate"
      },
      "memberDeposit(address,uint256)": {
        "notice": "Used by a member to make a deposit to an open Syndicate.If a manager is issuing a Syndicate under SEC Rule 506(b) of Regulation D, a manager should only add a member's address(es) to the allowlist if the member attests that they are an accredited investor. This is also highlighted in the web interface, but it is not a requirement of the smart contract since not all Syndicates are securities, nor are all Syndicates that are securities necessarily 506(b) offerings (they could be 506(c) offerings for example).Under Rule 506(b), up to 35 non-accredited investors can invest in a private placement. These non-accredited investors must have sufficient knowledge and experience, which is difficult to verify in a decentralized context. As a result, we leave it up to the Syndicate manager to track their own list of up to 35 non-accredited investors and add them to the allowlist. The Syndicate manager must provide disclosures to non-accredited investors that comply with Regulation A offerings, give non-accredited investors financial statement information specified in Rule 506, and be available to answer questions from potential members who are non-accredited investors. This responsibility rests with the Syndicate manager. See https://www.sec.gov/smallbusiness/exemptofferings/rule506bNothing in this documentation should be considered legal advice. If you are seeking any clarification, please email us at hello[at]syndicateprotocol.org."
      },
      "memberWithdraw(address,uint256)": {
        "notice": "Used by a member to withdraw a deposit from an open Syndicate or a distribution from a closed Syndicate.Withdrawal options are different depending on the Syndicate's progression through its life cycle. When the Syndicate is open, a member can make a withdrawal in the deposit ERC20 token (essentially refunding their deposit)."
      },
      "ownerPauseContract()": {
        "notice": "Emergency pause function that can only be triggered by the contract ownerIts purpose is to pause functions with the whenNotPaused() modifier.  All other functions will work when paused"
      },
      "ownerRenounceOwnership()": {
        "notice": "Renounce ownership of the contractIf necessary, unpauses the contract before ownership is renounced to ensure that functions with the whenNotPaused() modifier are not locked"
      },
      "ownerRenouncePause()": {
        "notice": "Used by the owner to renounce ability to pause the contractIf necessary, unpauses the contract before ownership is renounced to ensure that functions with the whenNotPaused() modifier are not locked"
      },
      "ownerSetSyndicateFeeAddress(address)": {
        "notice": "set a new fee address for the contract function that can only be triggered by the contract owner."
      },
      "ownerTransferOwnership(address)": {
        "notice": "Transfers ownership to the provided address."
      },
      "ownerUnpauseContract()": {
        "notice": "Emergency unpause function that can only be triggered by the contract ownerIts purpose is to unpause functions with the whenNotPaused() modifier.  All other functions will work when paused"
      }
    },
    "notice": "Handle member deposit accounting and ERC20 transfers",
    "version": 1
  }
}