{
  "contractName": "SyndicateClosedEndFundGetterLogicV0",
  "abi": [
    {
      "inputs": [
        {
          "internalType": "address",
          "name": "storeAddress",
          "type": "address"
        }
      ],
      "stateMutability": "nonpayable",
      "type": "constructor"
    },
    {
      "anonymous": false,
      "inputs": [
        {
          "indexed": true,
          "internalType": "address",
          "name": "previousOwner",
          "type": "address"
        },
        {
          "indexed": true,
          "internalType": "address",
          "name": "newOwner",
          "type": "address"
        }
      ],
      "name": "OwnershipTransferred",
      "type": "event"
    },
    {
      "anonymous": false,
      "inputs": [
        {
          "indexed": false,
          "internalType": "address",
          "name": "account",
          "type": "address"
        }
      ],
      "name": "Paused",
      "type": "event"
    },
    {
      "anonymous": false,
      "inputs": [
        {
          "indexed": false,
          "internalType": "address",
          "name": "account",
          "type": "address"
        }
      ],
      "name": "Unpaused",
      "type": "event"
    },
    {
      "anonymous": false,
      "inputs": [
        {
          "indexed": true,
          "internalType": "address",
          "name": "syndicateAddress",
          "type": "address"
        },
        {
          "indexed": false,
          "internalType": "uint256",
          "name": "timestamp",
          "type": "uint256"
        }
      ],
      "name": "managerClosedSyndicate",
      "type": "event"
    },
    {
      "anonymous": false,
      "inputs": [
        {
          "indexed": false,
          "internalType": "address",
          "name": "owner",
          "type": "address"
        }
      ],
      "name": "ownerRenouncedPause",
      "type": "event"
    },
    {
      "anonymous": false,
      "inputs": [
        {
          "indexed": true,
          "internalType": "address",
          "name": "contractFeeAddress",
          "type": "address"
        },
        {
          "indexed": false,
          "internalType": "uint256",
          "name": "timestamp",
          "type": "uint256"
        }
      ],
      "name": "ownerSetterSyndicateFeeAddress",
      "type": "event"
    },
    {
      "inputs": [],
      "name": "BASIS_POINTS_DENOMINATOR",
      "outputs": [
        {
          "internalType": "uint256",
          "name": "",
          "type": "uint256"
        }
      ],
      "stateMutability": "view",
      "type": "function"
    },
    {
      "inputs": [],
      "name": "owner",
      "outputs": [
        {
          "internalType": "address",
          "name": "",
          "type": "address"
        }
      ],
      "stateMutability": "view",
      "type": "function"
    },
    {
      "inputs": [],
      "name": "ownerPauseContract",
      "outputs": [],
      "stateMutability": "nonpayable",
      "type": "function"
    },
    {
      "inputs": [],
      "name": "ownerRenounceOwnership",
      "outputs": [],
      "stateMutability": "nonpayable",
      "type": "function"
    },
    {
      "inputs": [],
      "name": "ownerRenouncePause",
      "outputs": [],
      "stateMutability": "nonpayable",
      "type": "function"
    },
    {
      "inputs": [
        {
          "internalType": "address",
          "name": "feeAddress",
          "type": "address"
        }
      ],
      "name": "ownerSetSyndicateFeeAddress",
      "outputs": [],
      "stateMutability": "nonpayable",
      "type": "function"
    },
    {
      "inputs": [
        {
          "internalType": "address",
          "name": "newOwner",
          "type": "address"
        }
      ],
      "name": "ownerTransferOwnership",
      "outputs": [],
      "stateMutability": "nonpayable",
      "type": "function"
    },
    {
      "inputs": [],
      "name": "ownerUnpauseContract",
      "outputs": [],
      "stateMutability": "nonpayable",
      "type": "function"
    },
    {
      "inputs": [],
      "name": "paused",
      "outputs": [
        {
          "internalType": "bool",
          "name": "",
          "type": "bool"
        }
      ],
      "stateMutability": "view",
      "type": "function"
    },
    {
      "inputs": [],
      "name": "renounceOwnership",
      "outputs": [],
      "stateMutability": "nonpayable",
      "type": "function"
    },
    {
      "inputs": [
        {
          "internalType": "address",
          "name": "newOwner",
          "type": "address"
        }
      ],
      "name": "transferOwnership",
      "outputs": [],
      "stateMutability": "nonpayable",
      "type": "function"
    },
    {
      "inputs": [
        {
          "internalType": "address",
          "name": "syndicateAddress",
          "type": "address"
        }
      ],
      "name": "getSyndicateValues",
      "outputs": [
        {
          "components": [
            {
              "internalType": "address",
              "name": "managerCurrent",
              "type": "address"
            },
            {
              "internalType": "address",
              "name": "managerPending",
              "type": "address"
            },
            {
              "internalType": "address",
              "name": "managerFeeAddress",
              "type": "address"
            },
            {
              "internalType": "uint256",
              "name": "managerManagementFeeBasisPoints",
              "type": "uint256"
            },
            {
              "internalType": "uint256",
              "name": "managerPerformanceFeeBasisPoints",
              "type": "uint256"
            },
            {
              "internalType": "uint256",
              "name": "syndicateProfitShareBasisPoints",
              "type": "uint256"
            },
            {
              "internalType": "uint256",
              "name": "numMembersMax",
              "type": "uint256"
            },
            {
              "internalType": "uint256",
              "name": "numMembersCurrent",
              "type": "uint256"
            },
            {
              "internalType": "address",
              "name": "depositERC20Address",
              "type": "address"
            },
            {
              "internalType": "uint256",
              "name": "depositMinMember",
              "type": "uint256"
            },
            {
              "internalType": "uint256",
              "name": "depositMaxMember",
              "type": "uint256"
            },
            {
              "internalType": "uint256",
              "name": "depositMaxTotal",
              "type": "uint256"
            },
            {
              "internalType": "uint256",
              "name": "depositTotal",
              "type": "uint256"
            },
            {
              "internalType": "uint256",
              "name": "dateCreation",
              "type": "uint256"
            },
            {
              "internalType": "uint256",
              "name": "dateClose",
              "type": "uint256"
            },
            {
              "internalType": "bool",
              "name": "open",
              "type": "bool"
            },
            {
              "internalType": "bool",
              "name": "distributing",
              "type": "bool"
            },
            {
              "internalType": "bool",
              "name": "allowlistEnabled",
              "type": "bool"
            },
            {
              "internalType": "bool",
              "name": "modifiable",
              "type": "bool"
            },
            {
              "internalType": "bool",
              "name": "transferable",
              "type": "bool"
            }
          ],
          "internalType": "struct SyndicateClosedEndFundGetterLogicV0.SyndicateValues",
          "name": "",
          "type": "tuple"
        }
      ],
      "stateMutability": "view",
      "type": "function"
    },
    {
      "inputs": [
        {
          "internalType": "address",
          "name": "syndicateAddress",
          "type": "address"
        },
        {
          "internalType": "address",
          "name": "memberAddress",
          "type": "address"
        }
      ],
      "name": "getMemberInfo",
      "outputs": [
        {
          "components": [
            {
              "internalType": "uint256",
              "name": "deposit",
              "type": "uint256"
            },
            {
              "internalType": "uint256",
              "name": "claimedDistributionPrimary",
              "type": "uint256"
            },
            {
              "internalType": "bool",
              "name": "addressAllowed",
              "type": "bool"
            }
          ],
          "internalType": "struct SyndicateClosedEndFundGetterLogicV0.MemberInfo",
          "name": "",
          "type": "tuple"
        }
      ],
      "stateMutability": "view",
      "type": "function"
    },
    {
      "inputs": [
        {
          "internalType": "address",
          "name": "syndicateAddress",
          "type": "address"
        },
        {
          "internalType": "string",
          "name": "metadataKey",
          "type": "string"
        }
      ],
      "name": "getMetadata",
      "outputs": [
        {
          "internalType": "string",
          "name": "",
          "type": "string"
        }
      ],
      "stateMutability": "view",
      "type": "function"
    }
  ],
  "bytecode": "0x6080604052600280546001600160a81b0319167340db79f7f18c468c6552538b488c58b5e72bf4d917905534801561003657600080fd5b50604051611a77380380611a77833981016040819052610055916100d0565b6001600081815581546001600160a01b0319163390811790925560405183929182917f8be0079c531659141344cd1fd0a4f28419497f9722a3daafe3b4186f6b6457e0908290a3506001805460ff60a01b19169055600380546001600160a01b0319166001600160a01b039290921691909117905550610100565b6000602082840312156100e257600080fd5b81516001600160a01b03811681146100f957600080fd5b9392505050565b6119688061010f6000396000f3fe608060405234801561001057600080fd5b50600436106100ea5760003560e01c80638da5cb5b1161008c578063cfa498a311610066578063cfa498a3146101cb578063dac128ad146101e2578063f064e8fa146101ea578063f2fde38b1461020a57600080fd5b80638da5cb5b1461018a578063a09cca93146101a5578063bfd9a7e1146101b857600080fd5b80635c975abb116100c85780635c975abb14610155578063715018a61461017257806379f90d6c1461017a57806381abf4081461018257600080fd5b806312285d40146100ef57806336048d5f146100f95780633b70401814610135575b600080fd5b6100f761021d565b005b61010c610107366004611568565b61025a565b604080518251815260208084015190820152918101511515908201526060015b60405180910390f35b610148610143366004611527565b6104be565b60405161012c91906117b6565b600154600160a01b900460ff16604051901515815260200161012c565b6100f761100c565b6100f7611080565b6100f76110fe565b6001546040516001600160a01b03909116815260200161012c565b6100f76101b3366004611527565b61114a565b6100f76101c6366004611527565b611180565b6101d461271081565b60405190815260200161012c565b6100f76111fe565b6101fd6101f83660046115a1565b61128b565b60405161012c919061174e565b6100f7610218366004611527565b61131c565b6001546001600160a01b031633146102505760405162461bcd60e51b815260040161024790611781565b60405180910390fd5b610258611407565b565b610280604051806060016040528060008152602001600081526020016000151581525090565b604080516060810191829052600354630181a99d60e41b9092526001600160a01b0385811660648301528481166084830152909182911663181a99d060a4830160206040518083038186803b1580156102d857600080fd5b505afa1580156102ec573d6000803e3d6000fd5b505050506040513d601f19601f8201168201806040525081019061031091906116f5565b8152600354604051631c79211f60e11b81526001600160a01b0387811660048301526020909301929091169063a948191b90879083906338f2423e9060240160206040518083038186803b15801561036757600080fd5b505afa15801561037b573d6000803e3d6000fd5b505050506040513d601f19601f8201168201806040525081019061039f919061154b565b6040516001600160e01b031960e085901b1681526001600160a01b0392831660048201529082166024820152908716604482015260640160206040518083038186803b1580156103ee57600080fd5b505afa158015610402573d6000803e3d6000fd5b505050506040513d601f19601f8201168201806040525081019061042691906116f5565b815260035460405163dfbd56f560e01b81526001600160a01b03878116600483015286811660248301526020909301929091169063dfbd56f59060440160206040518083038186803b15801561047b57600080fd5b505afa15801561048f573d6000803e3d6000fd5b505050506040513d601f19601f820116820180604052508101906104b39190611626565b151590529392505050565b61058860405180610280016040528060006001600160a01b0316815260200160006001600160a01b0316815260200160006001600160a01b03168152602001600081526020016000815260200160008152602001600081526020016000815260200160006001600160a01b031681526020016000815260200160008152602001600081526020016000815260200160008152602001600081526020016000151581526020016000151581526020016000151581526020016000151581526020016000151581525090565b60408051610280810191829052600354630e8aef6f60e41b9092526001600160a01b03848116610284830152909182911663e8aef6f06102a4830160206040518083038186803b1580156105db57600080fd5b505afa1580156105ef573d6000803e3d6000fd5b505050506040513d601f19601f82011682018060405250810190610613919061154b565b6001600160a01b039081168252600354604051630f93eb8960e21b81528683166004820152602090930192911690633e4fae249060240160206040518083038186803b15801561066257600080fd5b505afa158015610676573d6000803e3d6000fd5b505050506040513d601f19601f8201168201806040525081019061069a919061154b565b6001600160a01b039081168252600354604051630dc35bbb60e41b8152868316600482015260209093019291169063dc35bbb09060240160206040518083038186803b1580156106e957600080fd5b505afa1580156106fd573d6000803e3d6000fd5b505050506040513d601f19601f82011682018060405250810190610721919061154b565b6001600160a01b0390811682526003546040516377d5adcb60e11b8152868316600482015260209093019291169063efab5b969060240160206040518083038186803b15801561077057600080fd5b505afa158015610784573d6000803e3d6000fd5b505050506040513d601f19601f820116820180604052508101906107a891906116f5565b815260035460405163168ee49560e11b81526001600160a01b03868116600483015260209093019290911690632d1dc92a9060240160206040518083038186803b1580156107f557600080fd5b505afa158015610809573d6000803e3d6000fd5b505050506040513d601f19601f8201168201806040525081019061082d91906116f5565b8152600354604051636a01efab60e01b81526001600160a01b03868116600483015260209093019290911690636a01efab9060240160206040518083038186803b15801561087a57600080fd5b505afa15801561088e573d6000803e3d6000fd5b505050506040513d601f19601f820116820180604052508101906108b291906116f5565b8152600354604051631b1187f760e11b81526001600160a01b038681166004830152602090930192909116906336230fee9060240160206040518083038186803b1580156108ff57600080fd5b505afa158015610913573d6000803e3d6000fd5b505050506040513d601f19601f8201168201806040525081019061093791906116f5565b815260035460405163e396ae9b60e01b81526001600160a01b0386811660048301526020909301929091169063e396ae9b9060240160206040518083038186803b15801561098457600080fd5b505afa158015610998573d6000803e3d6000fd5b505050506040513d601f19601f820116820180604052508101906109bc91906116f5565b8152600354604051631c79211f60e11b81526001600160a01b038681166004830152602090930192909116906338f2423e9060240160206040518083038186803b158015610a0957600080fd5b505afa158015610a1d573d6000803e3d6000fd5b505050506040513d601f19601f82011682018060405250810190610a41919061154b565b6001600160a01b03908116825260035460405163aaee68af60e01b8152868316600482015260209093019291169063aaee68af9060240160206040518083038186803b158015610a9057600080fd5b505afa158015610aa4573d6000803e3d6000fd5b505050506040513d601f19601f82011682018060405250810190610ac891906116f5565b81526003546040516342c7102b60e01b81526001600160a01b038681166004830152602090930192909116906342c7102b9060240160206040518083038186803b158015610b1557600080fd5b505afa158015610b29573d6000803e3d6000fd5b505050506040513d601f19601f82011682018060405250810190610b4d91906116f5565b815260035460405163d63f866360e01b81526001600160a01b0386811660048301526020909301929091169063d63f86639060240160206040518083038186803b158015610b9a57600080fd5b505afa158015610bae573d6000803e3d6000fd5b505050506040513d601f19601f82011682018060405250810190610bd291906116f5565b81526003546040516335869d0960e11b81526001600160a01b03868116600483015260209093019290911690636b0d3a129060240160206040518083038186803b158015610c1f57600080fd5b505afa158015610c33573d6000803e3d6000fd5b505050506040513d601f19601f82011682018060405250810190610c5791906116f5565b81526003546040516367d2f74b60e11b81526001600160a01b0386811660048301526020909301929091169063cfa5ee969060240160206040518083038186803b158015610ca457600080fd5b505afa158015610cb8573d6000803e3d6000fd5b505050506040513d601f19601f82011682018060405250810190610cdc91906116f5565b815260035460405163e32bf38d60e01b81526001600160a01b0386811660048301526020909301929091169063e32bf38d9060240160206040518083038186803b158015610d2957600080fd5b505afa158015610d3d573d6000803e3d6000fd5b505050506040513d601f19601f82011682018060405250810190610d6191906116f5565b815260035460405163172a8c1f60e31b81526001600160a01b0386811660048301526020909301929091169063b95460f89060240160206040518083038186803b158015610dae57600080fd5b505afa158015610dc2573d6000803e3d6000fd5b505050506040513d601f19601f82011682018060405250810190610de69190611626565b15158152600354604051630622493160e41b81526001600160a01b0386811660048301526020909301929091169063622493109060240160206040518083038186803b158015610e3557600080fd5b505afa158015610e49573d6000803e3d6000fd5b505050506040513d601f19601f82011682018060405250810190610e6d9190611626565b151581526003546040516331dcbbdb60e21b81526001600160a01b0386811660048301526020909301929091169063c772ef6c9060240160206040518083038186803b158015610ebc57600080fd5b505afa158015610ed0573d6000803e3d6000fd5b505050506040513d601f19601f82011682018060405250810190610ef49190611626565b1515815260035460405163adc1017f60e01b81526001600160a01b0386811660048301526020909301929091169063adc1017f9060240160206040518083038186803b158015610f4357600080fd5b505afa158015610f57573d6000803e3d6000fd5b505050506040513d601f19601f82011682018060405250810190610f7b9190611626565b1515815260035460405163acb1e61f60e01b81526001600160a01b0386811660048301526020909301929091169063acb1e61f9060240160206040518083038186803b158015610fca57600080fd5b505afa158015610fde573d6000803e3d6000fd5b505050506040513d601f19601f820116820180604052508101906110029190611626565b1515905292915050565b6001546001600160a01b031633146110365760405162461bcd60e51b815260040161024790611781565b6001546040516000916001600160a01b0316907f8be0079c531659141344cd1fd0a4f28419497f9722a3daafe3b4186f6b6457e0908390a3600180546001600160a01b0319169055565b6001546001600160a01b031633146110aa5760405162461bcd60e51b815260040161024790611781565b600254600160a01b900460ff16156110f65760405162461bcd60e51b815260206004820152600f60248201526e14105554d157d4915393d55390d151608a1b6044820152606401610247565b61025861149f565b6001546001600160a01b031633146111285760405162461bcd60e51b815260040161024790611781565b600154600160a01b900460ff16156111425761114261021d565b61025861100c565b6001546001600160a01b031633146111745760405162461bcd60e51b815260040161024790611781565b61117d8161131c565b50565b6001546001600160a01b031633146111aa5760405162461bcd60e51b815260040161024790611781565b600280546001600160a01b0319166001600160a01b0383169081179091556040514281527f1a49e1bcd954390033d0a77f7090e458f8d292a5dca5ff1424c84446d37690f99060200160405180910390a250565b6001546001600160a01b031633146112285760405162461bcd60e51b815260040161024790611781565b600154600160a01b900460ff16156112425761124261021d565b6002805460ff60a01b1916600160a01b1790556040513381527f8d464c3056e69b8da97814dbfddc04a614af8e35b3f030ba6ac9fbc881f2a35b906020015b60405180910390a1565b60035460405163087280b760e21b81526060916001600160a01b0316906321ca02dc906112c09087908790879060040161170e565b60006040518083038186803b1580156112d857600080fd5b505afa1580156112ec573d6000803e3d6000fd5b505050506040513d6000823e601f3d908101601f191682016040526113149190810190611648565b949350505050565b6001546001600160a01b031633146113465760405162461bcd60e51b815260040161024790611781565b6001600160a01b0381166113ab5760405162461bcd60e51b815260206004820152602660248201527f4f776e61626c653a206e6577206f776e657220697320746865207a65726f206160448201526564647265737360d01b6064820152608401610247565b6001546040516001600160a01b038084169216907f8be0079c531659141344cd1fd0a4f28419497f9722a3daafe3b4186f6b6457e090600090a3600180546001600160a01b0319166001600160a01b0392909216919091179055565b600154600160a01b900460ff166114575760405162461bcd60e51b815260206004820152601460248201527314185d5cd8589b194e881b9bdd081c185d5cd95960621b6044820152606401610247565b6001805460ff60a01b191690557f5db9ee0a495bf2e6ff9c91a7834c1ba4fdd244a5e8aa4e537bd38aeae4b073aa335b6040516001600160a01b039091168152602001611281565b600154600160a01b900460ff16156114ec5760405162461bcd60e51b815260206004820152601060248201526f14185d5cd8589b194e881c185d5cd95960821b6044820152606401610247565b6001805460ff60a01b1916600160a01b1790557f62e78cea01bee320cd4e420270b5ea74000d11b0c9f74754ebdbfc544b05a2586114873390565b60006020828403121561153957600080fd5b81356115448161191d565b9392505050565b60006020828403121561155d57600080fd5b81516115448161191d565b6000806040838503121561157b57600080fd5b82356115868161191d565b915060208301356115968161191d565b809150509250929050565b6000806000604084860312156115b657600080fd5b83356115c18161191d565b9250602084013567ffffffffffffffff808211156115de57600080fd5b818601915086601f8301126115f257600080fd5b81358181111561160157600080fd5b87602082850101111561161357600080fd5b6020830194508093505050509250925092565b60006020828403121561163857600080fd5b8151801515811461154457600080fd5b60006020828403121561165a57600080fd5b815167ffffffffffffffff8082111561167257600080fd5b818401915084601f83011261168657600080fd5b81518181111561169857611698611907565b604051601f8201601f19908116603f011681019083821181831017156116c0576116c0611907565b816040528281528760208487010111156116d957600080fd5b6116ea8360208301602088016118d7565b979650505050505050565b60006020828403121561170757600080fd5b5051919050565b6001600160a01b03841681526040602082018190528101829052818360608301376000818301606090810191909152601f909201601f1916010192915050565b602081526000825180602084015261176d8160408501602087016118d7565b601f01601f19169190910160400192915050565b6020808252818101527f4f776e61626c653a2063616c6c6572206973206e6f7420746865206f776e6572604082015260600190565b81516001600160a01b03168152610280810160208301516117e260208401826001600160a01b03169052565b5060408301516117fd60408401826001600160a01b03169052565b50606083015160608301526080830151608083015260a083015160a083015260c083015160c083015260e083015160e08301526101008084015161184b828501826001600160a01b03169052565b505061012083810151908301526101408084015190830152610160808401519083015261018080840151908301526101a080840151908301526101c080840151908301526101e080840151151590830152610200808401511515908301526102208084015115159083015261024080840151151590830152610260928301511515929091019190915290565b60005b838110156118f25781810151838201526020016118da565b83811115611901576000848401525b50505050565b634e487b7160e01b600052604160045260246000fd5b6001600160a01b038116811461117d57600080fdfea264697066735822122094dd5cc0345b78e223cd307953cc21dc373b74b8e7e91a836ee13fac90510fc364736f6c63430008050033",
  "immutableReferences": {},
  "source": "// SPDX-License-Identifier: UNLICENSED\n\npragma solidity ^0.8.0;\n\nimport \"./SyndicateClosedEndFundLogic.sol\";\n\n/// @author Syndicate Inc.\n/// @notice General public controls and getters\ncontract SyndicateClosedEndFundGetterLogicV0 is SyndicateClosedEndFundLogic {\n    /// @notice Used to initialize the Syndicate contract.\n    constructor(address storeAddress)\n        SyndicateClosedEndFundLogic(storeAddress)\n    {}\n\n    /// @dev All PRs that modify this struct *must* be coordinated with an\n    /// engineer on the Web3 dashboard, because it is returned directly by\n    /// `getSyndicateValues()`\n    struct SyndicateValues {\n        address managerCurrent;\n        address managerPending;\n        address managerFeeAddress;\n        uint256 managerManagementFeeBasisPoints;\n        uint256 managerPerformanceFeeBasisPoints;\n        uint256 syndicateProfitShareBasisPoints;\n        uint256 numMembersMax;\n        uint256 numMembersCurrent;\n        address depositERC20Address;\n        uint256 depositMinMember;\n        uint256 depositMaxMember;\n        uint256 depositMaxTotal;\n        uint256 depositTotal;\n        uint256 dateCreation;\n        uint256 dateClose;\n        bool open;\n        bool distributing;\n        bool allowlistEnabled;\n        bool modifiable;\n        bool transferable;\n    }\n\n    struct MemberInfo {\n        uint256 deposit;\n        // member's claimed distributions (withdrawals) from the *primary* ERC20\n        uint256 claimedDistributionPrimary;\n        bool addressAllowed;\n    }\n\n    // Functions----------------------------------------------------------------\n\n    /// @notice Get the values for a Syndicate\n    /// @param syndicateAddress The address of the Syndicate\n    /// @return SyndicateValues struct\n    /// @dev This function **must** be kept up to date with the web3 UI when\n    /// making changes. All PRs that change this function or the\n    /// SyndicateValues struct **must** be coordinated with an engineer on the\n    /// Web3 Dashboard.\n    function getSyndicateValues(address syndicateAddress)\n        public\n        view\n        returns (SyndicateValues memory)\n    {\n        return\n            SyndicateValues({\n                managerCurrent: store.managerCurrent(syndicateAddress),\n                managerPending: store.managerPending(syndicateAddress),\n                managerFeeAddress: store.managerFeeAddress(syndicateAddress),\n                managerManagementFeeBasisPoints: store\n                    .managerManagementFeeBasisPoints(syndicateAddress),\n                managerPerformanceFeeBasisPoints: store\n                    .managerPerformanceFeeBasisPoints(syndicateAddress),\n                syndicateProfitShareBasisPoints: store\n                    .syndicateProfitShareBasisPoints(syndicateAddress),\n                numMembersMax: store.numMembersMax(syndicateAddress),\n                numMembersCurrent: store.numMembersCurrent(syndicateAddress),\n                depositERC20Address: store.depositERC20Address(\n                    syndicateAddress\n                ),\n                depositMinMember: store.depositMinMember(syndicateAddress),\n                depositMaxMember: store.depositMaxMember(syndicateAddress),\n                depositMaxTotal: store.depositMaxTotal(syndicateAddress),\n                depositTotal: store.depositTotal(syndicateAddress),\n                dateCreation: store.dateCreation(syndicateAddress),\n                dateClose: store.dateClose(syndicateAddress),\n                open: store.open(syndicateAddress),\n                distributing: store.distributing(syndicateAddress),\n                allowlistEnabled: store.allowlistEnabled(syndicateAddress),\n                modifiable: store.modifiable(syndicateAddress),\n                transferable: store.transferable(syndicateAddress)\n            });\n    }\n\n    /// @notice Get the member info for a Syndicate\n    /// @param syndicateAddress The address of the Syndicate\n    /// @param memberAddress The address of the member whose info is being\n    /// queried\n    /// @return MemberInfo struct\n    /// @notice To get the claimed distributions for another ERC20, use\n    /// `getDistributionClaimedMember()`\n    /// @dev This function **must** be kept up to date with the Web3 UI when\n    /// making changes. All PRs that change this function **must** be\n    /// coordinated with an engineer on the Web3 Dashboard.\n    function getMemberInfo(address syndicateAddress, address memberAddress)\n        public\n        view\n        returns (MemberInfo memory)\n    {\n        return\n            MemberInfo({\n                deposit: store.depositMember(syndicateAddress, memberAddress),\n                claimedDistributionPrimary: store.distributionClaimedMember(\n                    syndicateAddress,\n                    store.depositERC20Address(syndicateAddress),\n                    memberAddress\n                ),\n                addressAllowed: store.addressAllowed(\n                    syndicateAddress,\n                    memberAddress\n                )\n            });\n    }\n\n    /// @notice Get the metadata for a given key within a Syndicate\n    /// @param syndicateAddress The address of the Syndicate\n    /// @param metadataKey The string that is the key of the metadata to look up\n    /// @return metadataValue as a string\n    function getMetadata(address syndicateAddress, string calldata metadataKey)\n        public\n        view\n        returns (string memory)\n    {\n        return store.metadata(syndicateAddress, metadataKey);\n    }\n}\n",
  "sourcePath": "/home/will/Syndicate/contracts/SyndicateClosedEndFundGetterLogicV0.sol",
  "compiler": {
    "name": "solc",
    "version": "0.8.5+commit.a4f2e591.Emscripten.clang"
  },
  "schemaVersion": "3.4.0",
  "updatedAt": "2021-06-21T04:55:02.295Z",
  "devdoc": {
    "author": "Syndicate Inc.",
    "kind": "dev",
    "methods": {
      "getMemberInfo(address,address)": {
        "details": "This function **must** be kept up to date with the Web3 UI when making changes. All PRs that change this function **must** be coordinated with an engineer on the Web3 Dashboard.",
        "params": {
          "memberAddress": "The address of the member whose info is being queried",
          "syndicateAddress": "The address of the Syndicate"
        },
        "returns": {
          "_0": "MemberInfo struct"
        }
      },
      "getMetadata(address,string)": {
        "params": {
          "metadataKey": "The string that is the key of the metadata to look up",
          "syndicateAddress": "The address of the Syndicate"
        },
        "returns": {
          "_0": "metadataValue as a string"
        }
      },
      "getSyndicateValues(address)": {
        "details": "This function **must** be kept up to date with the web3 UI when making changes. All PRs that change this function or the SyndicateValues struct **must** be coordinated with an engineer on the Web3 Dashboard.",
        "params": {
          "syndicateAddress": "The address of the Syndicate"
        },
        "returns": {
          "_0": "SyndicateValues struct"
        }
      },
      "owner()": {
        "details": "Returns the address of the current owner."
      },
      "ownerSetSyndicateFeeAddress(address)": {
        "params": {
          "feeAddress": "The owner's new contract fee address"
        }
      },
      "ownerTransferOwnership(address)": {
        "params": {
          "newOwner": "The new owner's address."
        }
      },
      "paused()": {
        "details": "Returns true if the contract is paused, and false otherwise."
      },
      "renounceOwnership()": {
        "details": "Leaves the contract without owner. It will not be possible to call `onlyOwner` functions anymore. Can only be called by the current owner. NOTE: Renouncing ownership will leave the contract without an owner, thereby removing any functionality that is only available to the owner."
      },
      "transferOwnership(address)": {
        "details": "Transfers ownership of the contract to a new account (`newOwner`). Can only be called by the current owner."
      }
    },
    "version": 1
  },
  "userdoc": {
    "events": {
      "managerClosedSyndicate(address,uint256)": {
        "notice": "Emit an event when a manager closes a Syndicate"
      },
      "ownerRenouncedPause(address)": {
        "notice": "Emit an event when the owner renounces ability to pause the contract"
      },
      "ownerSetterSyndicateFeeAddress(address,uint256)": {
        "notice": "Emit an event when the owner of the contract sets a new contract fee address"
      }
    },
    "kind": "user",
    "methods": {
      "constructor": {
        "notice": "Used to initialize the Syndicate contract."
      },
      "getMemberInfo(address,address)": {
        "notice": "Get the member info for a SyndicateTo get the claimed distributions for another ERC20, use `getDistributionClaimedMember()`"
      },
      "getMetadata(address,string)": {
        "notice": "Get the metadata for a given key within a Syndicate"
      },
      "getSyndicateValues(address)": {
        "notice": "Get the values for a Syndicate"
      },
      "ownerPauseContract()": {
        "notice": "Emergency pause function that can only be triggered by the contract ownerIts purpose is to pause functions with the whenNotPaused() modifier.  All other functions will work when paused"
      },
      "ownerRenounceOwnership()": {
        "notice": "Renounce ownership of the contractIf necessary, unpauses the contract before ownership is renounced to ensure that functions with the whenNotPaused() modifier are not locked"
      },
      "ownerRenouncePause()": {
        "notice": "Used by the owner to renounce ability to pause the contractIf necessary, unpauses the contract before ownership is renounced to ensure that functions with the whenNotPaused() modifier are not locked"
      },
      "ownerSetSyndicateFeeAddress(address)": {
        "notice": "set a new fee address for the contract function that can only be triggered by the contract owner."
      },
      "ownerTransferOwnership(address)": {
        "notice": "Transfers ownership to the provided address."
      },
      "ownerUnpauseContract()": {
        "notice": "Emergency unpause function that can only be triggered by the contract ownerIts purpose is to unpause functions with the whenNotPaused() modifier.  All other functions will work when paused"
      }
    },
    "notice": "General public controls and getters",
    "version": 1
  }
}