{
  "contractName": "SyndicateOwnerLogic",
  "abi": [
    {
      "inputs": [],
      "stateMutability": "nonpayable",
      "type": "constructor"
    },
    {
      "anonymous": false,
      "inputs": [
        {
          "indexed": true,
          "internalType": "address",
          "name": "previousOwner",
          "type": "address"
        },
        {
          "indexed": true,
          "internalType": "address",
          "name": "newOwner",
          "type": "address"
        }
      ],
      "name": "OwnershipTransferred",
      "type": "event"
    },
    {
      "anonymous": false,
      "inputs": [
        {
          "indexed": false,
          "internalType": "address",
          "name": "account",
          "type": "address"
        }
      ],
      "name": "Paused",
      "type": "event"
    },
    {
      "anonymous": false,
      "inputs": [
        {
          "indexed": false,
          "internalType": "address",
          "name": "account",
          "type": "address"
        }
      ],
      "name": "Unpaused",
      "type": "event"
    },
    {
      "anonymous": false,
      "inputs": [
        {
          "indexed": false,
          "internalType": "address",
          "name": "owner",
          "type": "address"
        }
      ],
      "name": "ownerRenouncedPause",
      "type": "event"
    },
    {
      "anonymous": false,
      "inputs": [
        {
          "indexed": true,
          "internalType": "address",
          "name": "contractFeeAddress",
          "type": "address"
        },
        {
          "indexed": false,
          "internalType": "uint256",
          "name": "timestamp",
          "type": "uint256"
        }
      ],
      "name": "ownerSetterSyndicateFeeAddress",
      "type": "event"
    },
    {
      "inputs": [],
      "name": "BASIS_POINTS_DENOMINATOR",
      "outputs": [
        {
          "internalType": "uint256",
          "name": "",
          "type": "uint256"
        }
      ],
      "stateMutability": "view",
      "type": "function"
    },
    {
      "inputs": [],
      "name": "owner",
      "outputs": [
        {
          "internalType": "address",
          "name": "",
          "type": "address"
        }
      ],
      "stateMutability": "view",
      "type": "function"
    },
    {
      "inputs": [],
      "name": "paused",
      "outputs": [
        {
          "internalType": "bool",
          "name": "",
          "type": "bool"
        }
      ],
      "stateMutability": "view",
      "type": "function"
    },
    {
      "inputs": [],
      "name": "renounceOwnership",
      "outputs": [],
      "stateMutability": "nonpayable",
      "type": "function"
    },
    {
      "inputs": [
        {
          "internalType": "address",
          "name": "newOwner",
          "type": "address"
        }
      ],
      "name": "transferOwnership",
      "outputs": [],
      "stateMutability": "nonpayable",
      "type": "function"
    },
    {
      "inputs": [
        {
          "internalType": "address",
          "name": "feeAddress",
          "type": "address"
        }
      ],
      "name": "ownerSetSyndicateFeeAddress",
      "outputs": [],
      "stateMutability": "nonpayable",
      "type": "function"
    },
    {
      "inputs": [],
      "name": "ownerRenouncePause",
      "outputs": [],
      "stateMutability": "nonpayable",
      "type": "function"
    },
    {
      "inputs": [],
      "name": "ownerPauseContract",
      "outputs": [],
      "stateMutability": "nonpayable",
      "type": "function"
    },
    {
      "inputs": [],
      "name": "ownerUnpauseContract",
      "outputs": [],
      "stateMutability": "nonpayable",
      "type": "function"
    },
    {
      "inputs": [
        {
          "internalType": "address",
          "name": "newOwner",
          "type": "address"
        }
      ],
      "name": "ownerTransferOwnership",
      "outputs": [],
      "stateMutability": "nonpayable",
      "type": "function"
    },
    {
      "inputs": [],
      "name": "ownerRenounceOwnership",
      "outputs": [],
      "stateMutability": "nonpayable",
      "type": "function"
    }
  ],
  "bytecode": "0x6080604052600180546001600160a81b0319167340db79f7f18c468c6552538b488c58b5e72bf4d917905534801561003657600080fd5b50600080546001600160a01b031916339081178255604051909182917f8be0079c531659141344cd1fd0a4f28419497f9722a3daafe3b4186f6b6457e0908290a3506000805460ff60a01b191690556106c6806100946000396000f3fe608060405234801561001057600080fd5b50600436106100a95760003560e01c80638da5cb5b116100715780638da5cb5b146100f2578063a09cca931461010d578063bfd9a7e114610120578063cfa498a314610133578063dac128ad1461014a578063f2fde38b1461015257600080fd5b806312285d40146100ae5780635c975abb146100b8578063715018a6146100da57806379f90d6c146100e257806381abf408146100ea575b600080fd5b6100b6610165565b005b600054600160a01b900460ff1660405190151581526020015b60405180910390f35b6100b66101a2565b6100b6610216565b6100b6610294565b6000546040516001600160a01b0390911681526020016100d1565b6100b661011b36600461062b565b6102e0565b6100b661012e36600461062b565b610316565b61013c61271081565b6040519081526020016100d1565b6100b6610394565b6100b661016036600461062b565b610421565b6000546001600160a01b031633146101985760405162461bcd60e51b815260040161018f9061065b565b60405180910390fd5b6101a061050b565b565b6000546001600160a01b031633146101cc5760405162461bcd60e51b815260040161018f9061065b565b600080546040516001600160a01b03909116907f8be0079c531659141344cd1fd0a4f28419497f9722a3daafe3b4186f6b6457e0908390a3600080546001600160a01b0319169055565b6000546001600160a01b031633146102405760405162461bcd60e51b815260040161018f9061065b565b600154600160a01b900460ff161561028c5760405162461bcd60e51b815260206004820152600f60248201526e14105554d157d4915393d55390d151608a1b604482015260640161018f565b6101a06105a3565b6000546001600160a01b031633146102be5760405162461bcd60e51b815260040161018f9061065b565b600054600160a01b900460ff16156102d8576102d8610165565b6101a06101a2565b6000546001600160a01b0316331461030a5760405162461bcd60e51b815260040161018f9061065b565b61031381610421565b50565b6000546001600160a01b031633146103405760405162461bcd60e51b815260040161018f9061065b565b600180546001600160a01b0319166001600160a01b0383169081179091556040514281527f1a49e1bcd954390033d0a77f7090e458f8d292a5dca5ff1424c84446d37690f99060200160405180910390a250565b6000546001600160a01b031633146103be5760405162461bcd60e51b815260040161018f9061065b565b600054600160a01b900460ff16156103d8576103d8610165565b6001805460ff60a01b1916600160a01b1790556040513381527f8d464c3056e69b8da97814dbfddc04a614af8e35b3f030ba6ac9fbc881f2a35b906020015b60405180910390a1565b6000546001600160a01b0316331461044b5760405162461bcd60e51b815260040161018f9061065b565b6001600160a01b0381166104b05760405162461bcd60e51b815260206004820152602660248201527f4f776e61626c653a206e6577206f776e657220697320746865207a65726f206160448201526564647265737360d01b606482015260840161018f565b600080546040516001600160a01b03808516939216917f8be0079c531659141344cd1fd0a4f28419497f9722a3daafe3b4186f6b6457e091a3600080546001600160a01b0319166001600160a01b0392909216919091179055565b600054600160a01b900460ff1661055b5760405162461bcd60e51b815260206004820152601460248201527314185d5cd8589b194e881b9bdd081c185d5cd95960621b604482015260640161018f565b6000805460ff60a01b191690557f5db9ee0a495bf2e6ff9c91a7834c1ba4fdd244a5e8aa4e537bd38aeae4b073aa335b6040516001600160a01b039091168152602001610417565b600054600160a01b900460ff16156105f05760405162461bcd60e51b815260206004820152601060248201526f14185d5cd8589b194e881c185d5cd95960821b604482015260640161018f565b6000805460ff60a01b1916600160a01b1790557f62e78cea01bee320cd4e420270b5ea74000d11b0c9f74754ebdbfc544b05a25861058b3390565b60006020828403121561063d57600080fd5b81356001600160a01b038116811461065457600080fd5b9392505050565b6020808252818101527f4f776e61626c653a2063616c6c6572206973206e6f7420746865206f776e657260408201526060019056fea2646970667358221220fe588d9e2e063264e110d5655785686617cfce98203a43b27de15427645ebb7c64736f6c63430008050033",
  "immutableReferences": {},
  "source": "// SPDX-License-Identifier: UNLICENSED\n\npragma solidity ^0.8.0;\n\nimport \"@openzeppelin/contracts/access/Ownable.sol\";\nimport \"@openzeppelin/contracts/security/Pausable.sol\";\n\n/// @author Syndicate Inc.\n/// @notice Core module for owner functionality\ncontract SyndicateOwnerLogic is Ownable, Pausable {\n    // Use a consistent denominator for basis point calculations\n    uint256 public constant BASIS_POINTS_DENOMINATOR = 10000;\n    // Address of the Gnosis Safe where the Syndicate profit share is collected.\n    address syndicateFeeAddress = 0x40dB79f7f18C468c6552538b488c58B5E72bf4D9;\n    bool pausingRenounced = false;\n\n    /// @notice Used to initialize the SyndicateOwnershipLogic contract.\n    constructor() Ownable() {}\n\n    // Events------------------------------------------------------------------\n\n    /// @notice Emit an event when the owner of the contract sets a new\n    /// contract fee address\n    event ownerSetterSyndicateFeeAddress(\n        address indexed contractFeeAddress,\n        uint256 timestamp\n    );\n\n    /// @notice Emit an event when the owner renounces ability to pause\n    /// the contract\n    event ownerRenouncedPause(address owner);\n\n    // Owner functions----------------------------------------------------------\n\n    /// @notice set a new fee address for the contract function that can only\n    /// be triggered by the contract owner.\n    /// @param feeAddress The owner's new contract fee address\n    function ownerSetSyndicateFeeAddress(address feeAddress) public onlyOwner {\n        syndicateFeeAddress = feeAddress;\n\n        emit ownerSetterSyndicateFeeAddress(feeAddress, block.timestamp);\n    }\n\n    /// @notice Used by the owner to renounce ability to pause the contract\n    /// @notice If necessary, unpauses the contract before ownership is\n    /// renounced to ensure that functions with the whenNotPaused() modifier\n    /// are not locked\n    function ownerRenouncePause() public onlyOwner {\n        if (paused()) {\n            ownerUnpauseContract();\n        }\n        pausingRenounced = true;\n        emit ownerRenouncedPause(msg.sender);\n    }\n\n    /// @notice Emergency pause function that can only be triggered by the\n    /// contract owner\n    /// @notice Its purpose is to pause functions with the whenNotPaused() modifier.\n    ///  All other functions will work when paused\n    function ownerPauseContract() public onlyOwner {\n        require(!pausingRenounced, \"PAUSE_RENOUNCED\");\n        _pause();\n    }\n\n    /// @notice Emergency unpause function that can only be triggered by the\n    /// contract owner\n    /// @notice Its purpose is to unpause functions with the whenNotPaused() modifier.\n    ///  All other functions will work when paused\n    function ownerUnpauseContract() public onlyOwner {\n        _unpause();\n    }\n\n    /// @notice Transfers ownership to the provided address.\n    /// @param newOwner The new owner's address.\n    function ownerTransferOwnership(address newOwner) public onlyOwner {\n        transferOwnership(newOwner);\n    }\n\n    /// @notice Renounce ownership of the contract\n    /// @notice If necessary, unpauses the contract before ownership is\n    /// renounced to ensure that functions with the whenNotPaused() modifier\n    /// are not locked\n    function ownerRenounceOwnership() public onlyOwner {\n        if (paused()) {\n            ownerUnpauseContract();\n        }\n        super.renounceOwnership();\n    }\n}\n",
  "sourcePath": "/home/will/Syndicate/contracts/SyndicateOwnerLogic.sol",
  "compiler": {
    "name": "solc",
    "version": "0.8.5+commit.a4f2e591.Emscripten.clang"
  },
  "schemaVersion": "3.4.0",
  "updatedAt": "2021-06-21T04:55:02.431Z",
  "devdoc": {
    "author": "Syndicate Inc.",
    "kind": "dev",
    "methods": {
      "owner()": {
        "details": "Returns the address of the current owner."
      },
      "ownerSetSyndicateFeeAddress(address)": {
        "params": {
          "feeAddress": "The owner's new contract fee address"
        }
      },
      "ownerTransferOwnership(address)": {
        "params": {
          "newOwner": "The new owner's address."
        }
      },
      "paused()": {
        "details": "Returns true if the contract is paused, and false otherwise."
      },
      "renounceOwnership()": {
        "details": "Leaves the contract without owner. It will not be possible to call `onlyOwner` functions anymore. Can only be called by the current owner. NOTE: Renouncing ownership will leave the contract without an owner, thereby removing any functionality that is only available to the owner."
      },
      "transferOwnership(address)": {
        "details": "Transfers ownership of the contract to a new account (`newOwner`). Can only be called by the current owner."
      }
    },
    "version": 1
  },
  "userdoc": {
    "events": {
      "ownerRenouncedPause(address)": {
        "notice": "Emit an event when the owner renounces ability to pause the contract"
      },
      "ownerSetterSyndicateFeeAddress(address,uint256)": {
        "notice": "Emit an event when the owner of the contract sets a new contract fee address"
      }
    },
    "kind": "user",
    "methods": {
      "constructor": {
        "notice": "Used to initialize the SyndicateOwnershipLogic contract."
      },
      "ownerPauseContract()": {
        "notice": "Emergency pause function that can only be triggered by the contract ownerIts purpose is to pause functions with the whenNotPaused() modifier.  All other functions will work when paused"
      },
      "ownerRenounceOwnership()": {
        "notice": "Renounce ownership of the contractIf necessary, unpauses the contract before ownership is renounced to ensure that functions with the whenNotPaused() modifier are not locked"
      },
      "ownerRenouncePause()": {
        "notice": "Used by the owner to renounce ability to pause the contractIf necessary, unpauses the contract before ownership is renounced to ensure that functions with the whenNotPaused() modifier are not locked"
      },
      "ownerSetSyndicateFeeAddress(address)": {
        "notice": "set a new fee address for the contract function that can only be triggered by the contract owner."
      },
      "ownerTransferOwnership(address)": {
        "notice": "Transfers ownership to the provided address."
      },
      "ownerUnpauseContract()": {
        "notice": "Emergency unpause function that can only be triggered by the contract ownerIts purpose is to unpause functions with the whenNotPaused() modifier.  All other functions will work when paused"
      }
    },
    "notice": "Core module for owner functionality",
    "version": 1
  }
}