{
  "contractName": "SyndicateClosedEndFundDistributionLogicV0",
  "abi": [
    {
      "inputs": [
        {
          "internalType": "address",
          "name": "storeAddress",
          "type": "address"
        }
      ],
      "stateMutability": "nonpayable",
      "type": "constructor"
    },
    {
      "anonymous": false,
      "inputs": [
        {
          "indexed": true,
          "internalType": "address",
          "name": "previousOwner",
          "type": "address"
        },
        {
          "indexed": true,
          "internalType": "address",
          "name": "newOwner",
          "type": "address"
        }
      ],
      "name": "OwnershipTransferred",
      "type": "event"
    },
    {
      "anonymous": false,
      "inputs": [
        {
          "indexed": false,
          "internalType": "address",
          "name": "account",
          "type": "address"
        }
      ],
      "name": "Paused",
      "type": "event"
    },
    {
      "anonymous": false,
      "inputs": [
        {
          "indexed": false,
          "internalType": "address",
          "name": "account",
          "type": "address"
        }
      ],
      "name": "Unpaused",
      "type": "event"
    },
    {
      "anonymous": false,
      "inputs": [
        {
          "indexed": true,
          "internalType": "address",
          "name": "syndicateAddress",
          "type": "address"
        },
        {
          "indexed": false,
          "internalType": "uint256",
          "name": "timestamp",
          "type": "uint256"
        }
      ],
      "name": "managerClosedSyndicate",
      "type": "event"
    },
    {
      "anonymous": false,
      "inputs": [
        {
          "indexed": true,
          "internalType": "address",
          "name": "syndicateAddress",
          "type": "address"
        },
        {
          "indexed": true,
          "internalType": "address",
          "name": "distributionERC20Address",
          "type": "address"
        },
        {
          "indexed": false,
          "internalType": "uint256",
          "name": "amountToMembers",
          "type": "uint256"
        },
        {
          "indexed": false,
          "internalType": "uint256",
          "name": "amountToSyndicate",
          "type": "uint256"
        },
        {
          "indexed": false,
          "internalType": "uint256",
          "name": "amountToManager",
          "type": "uint256"
        }
      ],
      "name": "managerSetterDistribution",
      "type": "event"
    },
    {
      "anonymous": false,
      "inputs": [
        {
          "indexed": true,
          "internalType": "address",
          "name": "syndicateAddress",
          "type": "address"
        },
        {
          "indexed": true,
          "internalType": "address",
          "name": "memberAddress",
          "type": "address"
        },
        {
          "indexed": true,
          "internalType": "address",
          "name": "distributionERC20Address",
          "type": "address"
        },
        {
          "indexed": false,
          "internalType": "uint256",
          "name": "distributionClaimedMember",
          "type": "uint256"
        },
        {
          "indexed": false,
          "internalType": "uint256",
          "name": "timestamp",
          "type": "uint256"
        }
      ],
      "name": "managerSetterDistributionClaimedForMember",
      "type": "event"
    },
    {
      "anonymous": false,
      "inputs": [
        {
          "indexed": true,
          "internalType": "address",
          "name": "syndicateAddress",
          "type": "address"
        },
        {
          "indexed": true,
          "internalType": "address",
          "name": "distributionERC20Address",
          "type": "address"
        }
      ],
      "name": "managerSetterDistributionERC20Address",
      "type": "event"
    },
    {
      "anonymous": false,
      "inputs": [
        {
          "indexed": true,
          "internalType": "address",
          "name": "syndicateAddress",
          "type": "address"
        },
        {
          "indexed": true,
          "internalType": "address",
          "name": "memberAddress",
          "type": "address"
        },
        {
          "indexed": true,
          "internalType": "address",
          "name": "distributionERC20Address",
          "type": "address"
        },
        {
          "indexed": false,
          "internalType": "uint256",
          "name": "amountWithdrawn",
          "type": "uint256"
        },
        {
          "indexed": false,
          "internalType": "uint256",
          "name": "timestamp",
          "type": "uint256"
        }
      ],
      "name": "memberClaimedDistribution",
      "type": "event"
    },
    {
      "anonymous": false,
      "inputs": [
        {
          "indexed": false,
          "internalType": "address",
          "name": "owner",
          "type": "address"
        }
      ],
      "name": "ownerRenouncedPause",
      "type": "event"
    },
    {
      "anonymous": false,
      "inputs": [
        {
          "indexed": true,
          "internalType": "address",
          "name": "contractFeeAddress",
          "type": "address"
        },
        {
          "indexed": false,
          "internalType": "uint256",
          "name": "timestamp",
          "type": "uint256"
        }
      ],
      "name": "ownerSetterSyndicateFeeAddress",
      "type": "event"
    },
    {
      "inputs": [],
      "name": "BASIS_POINTS_DENOMINATOR",
      "outputs": [
        {
          "internalType": "uint256",
          "name": "",
          "type": "uint256"
        }
      ],
      "stateMutability": "view",
      "type": "function"
    },
    {
      "inputs": [],
      "name": "owner",
      "outputs": [
        {
          "internalType": "address",
          "name": "",
          "type": "address"
        }
      ],
      "stateMutability": "view",
      "type": "function"
    },
    {
      "inputs": [],
      "name": "ownerPauseContract",
      "outputs": [],
      "stateMutability": "nonpayable",
      "type": "function"
    },
    {
      "inputs": [],
      "name": "ownerRenounceOwnership",
      "outputs": [],
      "stateMutability": "nonpayable",
      "type": "function"
    },
    {
      "inputs": [],
      "name": "ownerRenouncePause",
      "outputs": [],
      "stateMutability": "nonpayable",
      "type": "function"
    },
    {
      "inputs": [
        {
          "internalType": "address",
          "name": "feeAddress",
          "type": "address"
        }
      ],
      "name": "ownerSetSyndicateFeeAddress",
      "outputs": [],
      "stateMutability": "nonpayable",
      "type": "function"
    },
    {
      "inputs": [
        {
          "internalType": "address",
          "name": "newOwner",
          "type": "address"
        }
      ],
      "name": "ownerTransferOwnership",
      "outputs": [],
      "stateMutability": "nonpayable",
      "type": "function"
    },
    {
      "inputs": [],
      "name": "ownerUnpauseContract",
      "outputs": [],
      "stateMutability": "nonpayable",
      "type": "function"
    },
    {
      "inputs": [],
      "name": "paused",
      "outputs": [
        {
          "internalType": "bool",
          "name": "",
          "type": "bool"
        }
      ],
      "stateMutability": "view",
      "type": "function"
    },
    {
      "inputs": [],
      "name": "renounceOwnership",
      "outputs": [],
      "stateMutability": "nonpayable",
      "type": "function"
    },
    {
      "inputs": [
        {
          "internalType": "address",
          "name": "newOwner",
          "type": "address"
        }
      ],
      "name": "transferOwnership",
      "outputs": [],
      "stateMutability": "nonpayable",
      "type": "function"
    },
    {
      "inputs": [
        {
          "internalType": "address",
          "name": "syndicateAddress",
          "type": "address"
        },
        {
          "internalType": "address[]",
          "name": "distributionERC20Addresses",
          "type": "address[]"
        },
        {
          "internalType": "uint256[]",
          "name": "amounts",
          "type": "uint256[]"
        }
      ],
      "name": "managerSetDistributions",
      "outputs": [],
      "stateMutability": "nonpayable",
      "type": "function"
    },
    {
      "inputs": [
        {
          "internalType": "address",
          "name": "syndicateAddress",
          "type": "address"
        },
        {
          "internalType": "address[]",
          "name": "memberAddresses",
          "type": "address[]"
        },
        {
          "internalType": "address[]",
          "name": "distributionERC20Addresses",
          "type": "address[]"
        },
        {
          "internalType": "uint256[]",
          "name": "amounts",
          "type": "uint256[]"
        }
      ],
      "name": "managerSetDistributionClaimedForMembers",
      "outputs": [],
      "stateMutability": "nonpayable",
      "type": "function"
    },
    {
      "inputs": [
        {
          "internalType": "address",
          "name": "syndicateAddress",
          "type": "address"
        },
        {
          "internalType": "address",
          "name": "ERC20Address",
          "type": "address"
        },
        {
          "internalType": "uint256",
          "name": "amount",
          "type": "uint256"
        }
      ],
      "name": "memberClaimDistribution",
      "outputs": [],
      "stateMutability": "nonpayable",
      "type": "function"
    },
    {
      "inputs": [
        {
          "internalType": "address",
          "name": "syndicateAddress",
          "type": "address"
        },
        {
          "internalType": "address",
          "name": "distributionERC20Address",
          "type": "address"
        }
      ],
      "name": "getDistributionTotal",
      "outputs": [
        {
          "internalType": "uint256",
          "name": "",
          "type": "uint256"
        }
      ],
      "stateMutability": "view",
      "type": "function"
    },
    {
      "inputs": [
        {
          "internalType": "address",
          "name": "syndicateAddress",
          "type": "address"
        },
        {
          "internalType": "address",
          "name": "memberAddress",
          "type": "address"
        },
        {
          "internalType": "address",
          "name": "distributionERC20Address",
          "type": "address"
        }
      ],
      "name": "getDistributionClaimedMember",
      "outputs": [
        {
          "internalType": "uint256",
          "name": "",
          "type": "uint256"
        }
      ],
      "stateMutability": "view",
      "type": "function"
    },
    {
      "inputs": [
        {
          "internalType": "address",
          "name": "syndicateAddress",
          "type": "address"
        },
        {
          "internalType": "address",
          "name": "memberAddress",
          "type": "address"
        },
        {
          "internalType": "address",
          "name": "distributionERC20Address",
          "type": "address"
        }
      ],
      "name": "getDistributionUnclaimedMember",
      "outputs": [
        {
          "internalType": "uint256",
          "name": "",
          "type": "uint256"
        }
      ],
      "stateMutability": "view",
      "type": "function"
    },
    {
      "inputs": [
        {
          "internalType": "address",
          "name": "syndicateAddress",
          "type": "address"
        },
        {
          "internalType": "address",
          "name": "distributionERC20Address",
          "type": "address"
        }
      ],
      "name": "getDistributionClaimedTotal",
      "outputs": [
        {
          "internalType": "uint256",
          "name": "",
          "type": "uint256"
        }
      ],
      "stateMutability": "view",
      "type": "function"
    },
    {
      "inputs": [
        {
          "internalType": "uint256",
          "name": "depositMember",
          "type": "uint256"
        },
        {
          "internalType": "uint256",
          "name": "totalContributions",
          "type": "uint256"
        },
        {
          "internalType": "uint256",
          "name": "distributionClaimedMember",
          "type": "uint256"
        },
        {
          "internalType": "uint256",
          "name": "distributionTotal",
          "type": "uint256"
        }
      ],
      "name": "calculateEligibleDistributions",
      "outputs": [
        {
          "internalType": "uint256",
          "name": "",
          "type": "uint256"
        }
      ],
      "stateMutability": "pure",
      "type": "function"
    },
    {
      "inputs": [
        {
          "internalType": "uint256",
          "name": "amount",
          "type": "uint256"
        },
        {
          "internalType": "uint256",
          "name": "syndicateProfitShareBasisPoints",
          "type": "uint256"
        },
        {
          "internalType": "uint256",
          "name": "managerProfitShareBasisPoints",
          "type": "uint256"
        }
      ],
      "name": "calculateProfitShare",
      "outputs": [
        {
          "internalType": "uint256",
          "name": "",
          "type": "uint256"
        },
        {
          "internalType": "uint256",
          "name": "",
          "type": "uint256"
        },
        {
          "internalType": "uint256",
          "name": "",
          "type": "uint256"
        }
      ],
      "stateMutability": "pure",
      "type": "function"
    }
  ],
  "bytecode": "0x6080604052600280546001600160a81b0319167340db79f7f18c468c6552538b488c58b5e72bf4d91790553480156200003757600080fd5b5060405162002806380380620028068339810160408190526200005a91620000d6565b6001600081815581546001600160a01b0319163390811790925560405183929182917f8be0079c531659141344cd1fd0a4f28419497f9722a3daafe3b4186f6b6457e0908290a3506001805460ff60a01b19169055600380546001600160a01b0319166001600160a01b03929092169190911790555062000108565b600060208284031215620000e957600080fd5b81516001600160a01b03811681146200010157600080fd5b9392505050565b6126ee80620001186000396000f3fe608060405234801561001057600080fd5b506004361061012c5760003560e01c8063a0939f25116100ad578063c8c09b6511610071578063c8c09b6514610264578063cfa498a314610277578063dac128ad14610280578063f2fde38b14610288578063f8e5aa951461029b57600080fd5b8063a0939f2514610205578063a09cca9314610218578063a61554461461022b578063bd0b65141461023e578063bfd9a7e11461025157600080fd5b806361829dfe116100f457806361829dfe146101bf578063715018a6146101d257806379f90d6c146101da57806381abf408146101e25780638da5cb5b146101ea57600080fd5b80630bff3a791461013157806312285d4014610157578063141a7a5f146101615780632b0ff23a1461018f5780635c975abb146101a2575b600080fd5b61014461013f366004612301565b6102ae565b6040519081526020015b60405180910390f35b61015f61033b565b005b61017461016f3660046124f8565b610378565b6040805193845260208401929092529082015260600161014e565b61014461019d366004612524565b61042c565b600154600160a01b900460ff16604051901515815260200161014e565b6101446101cd3660046122c8565b6104ab565b61015f610535565b61015f6105a9565b61015f610627565b6001546040516001600160a01b03909116815260200161014e565b61015f61021336600461238d565b610673565b61015f61022636600461228e565b61077e565b61015f61023936600461234c565b6107b4565b61015f61024c36600461243a565b6107dd565b61015f61025f36600461228e565b610a57565b6101446102723660046122c8565b610ad5565b61014461271081565b61015f610b07565b61015f61029636600461228e565b610b94565b6101446102a9366004612301565b610c7f565b60035460405163a948191b60e01b81526000916001600160a01b03169063a948191b906102e390879086908890600401612570565b60206040518083038186803b1580156102fb57600080fd5b505afa15801561030f573d6000803e3d6000fd5b505050506040513d601f19601f8201168201806040525081019061033391906124df565b949350505050565b6001546001600160a01b0316331461036e5760405162461bcd60e51b8152600401610365906125b7565b60405180910390fd5b610376610dbc565b565b600080808061271061038a8789612626565b6103949190612604565b905060006127106103a5878a612626565b6103af9190612604565b90506000826103be838b612645565b6103c89190612645565b9050816103d584836125ec565b6103df91906125ec565b891461041f5760405162461bcd60e51b815260206004820152600f60248201526e11915157d0d05310d7d19052531151608a1b6044820152606401610365565b9891975095509350505050565b60008361043b57506000610333565b600083856104498589612626565b6104539190612604565b61045d9190612645565b9050600081116104a25760405162461bcd60e51b815260206004820152601060248201526f1393d7d1531251d250931157d11254d560821b6044820152606401610365565b95945050505050565b6003546040516308d2205560e31b81526000916001600160a01b03169063469102a8906104de9086908690600401612556565b60206040518083038186803b1580156104f657600080fd5b505afa15801561050a573d6000803e3d6000fd5b505050506040513d601f19601f8201168201806040525081019061052e91906124df565b9392505050565b6001546001600160a01b0316331461055f5760405162461bcd60e51b8152600401610365906125b7565b6001546040516000916001600160a01b0316907f8be0079c531659141344cd1fd0a4f28419497f9722a3daafe3b4186f6b6457e0908390a3600180546001600160a01b0319169055565b6001546001600160a01b031633146105d35760405162461bcd60e51b8152600401610365906125b7565b600254600160a01b900460ff161561061f5760405162461bcd60e51b815260206004820152600f60248201526e14105554d157d4915393d55390d151608a1b6044820152606401610365565b610376610e54565b6001546001600160a01b031633146106515760405162461bcd60e51b8152600401610365906125b7565b600154600160a01b900460ff161561066b5761066b61033b565b610376610535565b8661067d81610edc565b8761068781610fa7565b886106918161105c565b878414801561069f57508584145b6106e25760405162461bcd60e51b815260206004820152601460248201527320a92920acafa622a723aa2429afa224a32322a960611b6044820152606401610365565b60005b888110156107715761075f8b8b8b848181106107035761070361268d565b9050602002016020810190610718919061228e565b8a8a8581811061072a5761072a61268d565b905060200201602081019061073f919061228e565b8989868181106107515761075161268d565b90506020020135600161111a565b806107698161265c565b9150506106e5565b5050505050505050505050565b6001546001600160a01b031633146107a85760405162461bcd60e51b8152600401610365906125b7565b6107b181610b94565b50565b826107be81611a37565b836107c881610fa7565b6107d685338686600061111a565b5050505050565b846107e781610edc565b856107f181610fa7565b8483146108375760405162461bcd60e51b815260206004820152601460248201527320a92920acafa622a723aa2429afa224a32322a960611b6044820152606401610365565b600354604051630622493160e41b81526001600160a01b0389811660048301529091169063622493109060240160206040518083038186803b15801561087c57600080fd5b505afa158015610890573d6000803e3d6000fd5b505050506040513d601f19601f820116820180604052508101906108b491906124bd565b6109e757600354604051630dc35bbb60e41b81526001600160a01b038981166004830152600092169063dc35bbb09060240160206040518083038186803b1580156108fe57600080fd5b505afa158015610912573d6000803e3d6000fd5b505050506040513d601f19601f8201168201806040525081019061093691906122ab565b6001600160a01b031614156109805760405162461bcd60e51b815260206004820152601060248201526f11915157d051111497d393d517d4d15560821b6044820152606401610365565b6003546040516365fc5f8b60e11b81526001600160a01b038981166004830152600160248301529091169063cbf8bf1690604401600060405180830381600087803b1580156109ce57600080fd5b505af11580156109e2573d6000803e3d6000fd5b505050505b60005b85811015610a4d57610a3b88888884818110610a0857610a0861268d565b9050602002016020810190610a1d919061228e565b878785818110610a2f57610a2f61268d565b90506020020135611b03565b80610a458161265c565b9150506109ea565b5050505050505050565b6001546001600160a01b03163314610a815760405162461bcd60e51b8152600401610365906125b7565b600280546001600160a01b0319166001600160a01b0383169081179091556040514281527f1a49e1bcd954390033d0a77f7090e458f8d292a5dca5ff1424c84446d37690f99060200160405180910390a250565b60035460405162c0219760e51b81526000916001600160a01b03169063180432e0906104de9086908690600401612556565b6001546001600160a01b03163314610b315760405162461bcd60e51b8152600401610365906125b7565b600154600160a01b900460ff1615610b4b57610b4b61033b565b6002805460ff60a01b1916600160a01b1790556040513381527f8d464c3056e69b8da97814dbfddc04a614af8e35b3f030ba6ac9fbc881f2a35b906020015b60405180910390a1565b6001546001600160a01b03163314610bbe5760405162461bcd60e51b8152600401610365906125b7565b6001600160a01b038116610c235760405162461bcd60e51b815260206004820152602660248201527f4f776e61626c653a206e6577206f776e657220697320746865207a65726f206160448201526564647265737360d01b6064820152608401610365565b6001546040516001600160a01b038084169216907f8be0079c531659141344cd1fd0a4f28419497f9722a3daafe3b4186f6b6457e090600090a3600180546001600160a01b0319166001600160a01b0392909216919091179055565b600354604051630181a99d60e41b815260009182918291829182916001600160a01b03169063181a99d090610cba908b908b90600401612556565b60206040518083038186803b158015610cd257600080fd5b505afa158015610ce6573d6000803e3d6000fd5b505050506040513d601f19601f82011682018060405250810190610d0a91906124df565b6003546040516335869d0960e11b81526001600160a01b038b81166004830152929650911690636b0d3a129060240160206040518083038186803b158015610d5157600080fd5b505afa158015610d65573d6000803e3d6000fd5b505050506040513d601f19601f82011682018060405250810190610d8991906124df565b9250610d968888886102ae565b9150610da28887610ad5565b9050610db08484848461042c565b98975050505050505050565b600154600160a01b900460ff16610e0c5760405162461bcd60e51b815260206004820152601460248201527314185d5cd8589b194e881b9bdd081c185d5cd95960621b6044820152606401610365565b6001805460ff60a01b191690557f5db9ee0a495bf2e6ff9c91a7834c1ba4fdd244a5e8aa4e537bd38aeae4b073aa335b6040516001600160a01b039091168152602001610b8a565b600154600160a01b900460ff1615610ea15760405162461bcd60e51b815260206004820152601060248201526f14185d5cd8589b194e881c185d5cd95960821b6044820152606401610365565b6001805460ff60a01b1916600160a01b1790557f62e78cea01bee320cd4e420270b5ea74000d11b0c9f74754ebdbfc544b05a258610e3c3390565b600354604051630e8aef6f60e41b81526001600160a01b0383811660048301529091169063e8aef6f09060240160206040518083038186803b158015610f2157600080fd5b505afa158015610f35573d6000803e3d6000fd5b505050506040513d601f19601f82011682018060405250810190610f5991906122ab565b6001600160a01b0316336001600160a01b0316146107b15760405162461bcd60e51b815260206004820152600b60248201526a29a2292fa727aa2fa6a3a960a91b6044820152606401610365565b60035460405163172a8c1f60e31b81526001600160a01b0383811660048301529091169063b95460f89060240160206040518083038186803b158015610fec57600080fd5b505afa158015611000573d6000803e3d6000fd5b505050506040513d601f19601f8201168201806040525081019061102491906124bd565b156107b15760405162461bcd60e51b815260206004820152600860248201526729aca72fa7a822a760c11b6044820152606401610365565b60035460405163adc1017f60e01b81526001600160a01b0383811660048301529091169063adc1017f9060240160206040518083038186803b1580156110a157600080fd5b505afa1580156110b5573d6000803e3d6000fd5b505050506040513d601f19601f820116820180604052508101906110d991906124bd565b6107b15760405162461bcd60e51b815260206004820152601260248201527153594e5f4e4f545f4d4f4449464941424c4560701b6044820152606401610365565b600354604051630622493160e41b81526001600160a01b0387811660048301529091169063622493109060240160206040518083038186803b15801561115f57600080fd5b505afa158015611173573d6000803e3d6000fd5b505050506040513d601f19601f8201168201806040525081019061119791906124bd565b6111da5760405162461bcd60e51b815260206004820152601460248201527353594e5f4e4f545f444953545249425554494e4760601b6044820152606401610365565b60035460405163653414e160e01b81526001600160a01b039091169063653414e19061120c9088908790600401612556565b60206040518083038186803b15801561122457600080fd5b505afa158015611238573d6000803e3d6000fd5b505050506040513d601f19601f8201168201806040525081019061125c91906124bd565b61129b5760405162461bcd60e51b815260206004820152601060248201526f04e4f5f444953545f41545f45524332360841b6044820152606401610365565b600082116112d55760405162461bcd60e51b81526020600482015260076024820152660444953543c3d360cc1b6044820152606401610365565b60035460405163a948191b60e01b81526000916001600160a01b03169063a948191b9061130a90899088908a90600401612570565b60206040518083038186803b15801561132257600080fd5b505afa158015611336573d6000803e3d6000fd5b505050506040513d601f19601f8201168201806040525081019061135a91906124df565b600354604051630181a99d60e41b81529192506114e1916001600160a01b039091169063181a99d090611393908a908a90600401612556565b60206040518083038186803b1580156113ab57600080fd5b505afa1580156113bf573d6000803e3d6000fd5b505050506040513d601f19601f820116820180604052508101906113e391906124df565b6003546040516335869d0960e11b81526001600160a01b038a8116600483015290911690636b0d3a129060240160206040518083038186803b15801561142857600080fd5b505afa15801561143c573d6000803e3d6000fd5b505050506040513d601f19601f8201168201806040525081019061146091906124df565b60035460405162c0219760e51b815285916001600160a01b03169063180432e090611491908d908c90600401612556565b60206040518083038186803b1580156114a957600080fd5b505afa1580156114bd573d6000803e3d6000fd5b505050506040513d601f19601f8201168201806040525081019061019d91906124df565b8311156115205760405162461bcd60e51b815260206004820152600d60248201526c444953543e454c494749424c4560981b6044820152606401610365565b6003546040516308d2205560e31b81526000916001600160a01b03169063469102a890611553908a908990600401612556565b60206040518083038186803b15801561156b57600080fd5b505afa15801561157f573d6000803e3d6000fd5b505050506040513d601f19601f820116820180604052508101906115a391906124df565b60035460405163a948191b60e01b81529192506001600160a01b03169063da375d1790899088908a908990869063a948191b906115e890879087908790600401612570565b60206040518083038186803b15801561160057600080fd5b505afa158015611614573d6000803e3d6000fd5b505050506040513d601f19601f8201168201806040525081019061163891906124df565b61164291906125ec565b6040516001600160e01b031960e087901b1681526001600160a01b0394851660048201529284166024840152921660448201526064810191909152608401600060405180830381600087803b15801561169a57600080fd5b505af11580156116ae573d6000803e3d6000fd5b50506003546040516308d2205560e31b81526001600160a01b03909116925063e58eb85c9150899088908890859063469102a8906116f29086908690600401612556565b60206040518083038186803b15801561170a57600080fd5b505afa15801561171e573d6000803e3d6000fd5b505050506040513d601f19601f8201168201806040525081019061174291906124df565b61174c91906125ec565b6040518463ffffffff1660e01b815260040161176a93929190612593565b600060405180830381600087803b15801561178457600080fd5b505af1158015611798573d6000803e3d6000fd5b505060035460405163a948191b60e01b815261182d935085925087916001600160a01b03169063a948191b906117d6908d908c908e90600401612570565b60206040518083038186803b1580156117ee57600080fd5b505afa158015611802573d6000803e3d6000fd5b505050506040513d601f19601f8201168201806040525081019061182691906124df565b600161218f565b6003546040516308d2205560e31b815261186591839187916001600160a01b03169063469102a8906117d6908d908c90600401612556565b82156118d057846001600160a01b0316866001600160a01b0316886001600160a01b03167f656aaaff8ce11df88baaf318f5d60a1a39855affa1bbbd7a7bda3bc9c933dd9c87426040516118c3929190918252602082015260400190565b60405180910390a4611a2e565b600354604051630e8aef6f60e41b81526001600160a01b0389811660048301528792818416926323b872dd929091169063e8aef6f09060240160206040518083038186803b15801561192157600080fd5b505afa158015611935573d6000803e3d6000fd5b505050506040513d601f19601f8201168201806040525081019061195991906122ab565b89886040518463ffffffff1660e01b815260040161197993929190612593565b602060405180830381600087803b15801561199357600080fd5b505af11580156119a7573d6000803e3d6000fd5b505050506040513d601f19601f820116820180604052508101906119cb91906124bd565b50856001600160a01b0316876001600160a01b0316896001600160a01b03167ff5824bda1cdc854f02d182069addb0933d008b9279bcdc047d0837cf977141a38842604051611a24929190918252602082015260400190565b60405180910390a4505b50505050505050565b600354604051630e8aef6f60e41b81526001600160a01b0383811660048301529091169063e8aef6f09060240160206040518083038186803b158015611a7c57600080fd5b505afa158015611a90573d6000803e3d6000fd5b505050506040513d601f19601f82011682018060405250810190611ab491906122ab565b6001600160a01b0316336001600160a01b031614156107b15760405162461bcd60e51b815260206004820152600b60248201526a29a2292fa727aa2fa6a12960a91b6044820152606401610365565b600154600160a01b900460ff1615611b505760405162461bcd60e51b815260206004820152601060248201526f14185d5cd8589b194e881c185d5cd95960821b6044820152606401610365565b60035460405163653414e160e01b815283916001600160a01b03169063653414e190611b829087908590600401612556565b60206040518083038186803b158015611b9a57600080fd5b505afa158015611bae573d6000803e3d6000fd5b505050506040513d601f19601f82011682018060405250810190611bd291906124bd565b611c7d57600354604051635170da1760e11b81526001600160a01b0386811660048301528581166024830152600160448301529091169063a2e1b42e90606401600060405180830381600087803b158015611c2c57600080fd5b505af1158015611c40573d6000803e3d6000fd5b50506040516001600160a01b038087169350871691507f1b6df86839d1d274fe10825460c3207138fcaca50eb340fb7ab52109d2c5830e90600090a35b600354604051636a01efab60e01b81526001600160a01b03868116600483015260009283928392611d83928892911690636a01efab9060240160206040518083038186803b158015611cce57600080fd5b505afa158015611ce2573d6000803e3d6000fd5b505050506040513d601f19601f82011682018060405250810190611d0691906124df565b60035460405163168ee49560e11b81526001600160a01b038c8116600483015290911690632d1dc92a9060240160206040518083038186803b158015611d4b57600080fd5b505afa158015611d5f573d6000803e3d6000fd5b505050506040513d601f19601f8201168201806040525081019061016f91906124df565b60035460405162c0219760e51b815293965091945092506000916001600160a01b039091169063180432e090611dbf908b908b90600401612556565b60206040518083038186803b158015611dd757600080fd5b505afa158015611deb573d6000803e3d6000fd5b505050506040513d601f19601f82011682018060405250810190611e0f91906124df565b6003549091506001600160a01b03166314551a768989611e2f88866125ec565b6040518463ffffffff1660e01b8152600401611e4d93929190612593565b600060405180830381600087803b158015611e6757600080fd5b505af1158015611e7b573d6000803e3d6000fd5b505060035460405162c0219760e51b8152611eb6935084925087916001600160a01b03169063180432e0906117d6908e908e90600401612556565b600354604051630e8aef6f60e41b81526001600160a01b038a81166004830152878116926323b872dd9291169063e8aef6f09060240160206040518083038186803b158015611f0457600080fd5b505afa158015611f18573d6000803e3d6000fd5b505050506040513d601f19601f82011682018060405250810190611f3c91906122ab565b6002546040516001600160e01b031960e085901b168152611f6c92916001600160a01b0316908890600401612593565b602060405180830381600087803b158015611f8657600080fd5b505af1158015611f9a573d6000803e3d6000fd5b505050506040513d601f19601f82011682018060405250810190611fbe91906124bd565b50600354604051630e8aef6f60e41b81526001600160a01b038a81166004830152878116926323b872dd9291169063e8aef6f09060240160206040518083038186803b15801561200d57600080fd5b505afa158015612021573d6000803e3d6000fd5b505050506040513d601f19601f8201168201806040525081019061204591906122ab565b600354604051630dc35bbb60e41b81526001600160a01b038d811660048301529091169063dc35bbb09060240160206040518083038186803b15801561208a57600080fd5b505afa15801561209e573d6000803e3d6000fd5b505050506040513d601f19601f820116820180604052508101906120c291906122ab565b856040518463ffffffff1660e01b81526004016120e193929190612593565b602060405180830381600087803b1580156120fb57600080fd5b505af115801561210f573d6000803e3d6000fd5b505050506040513d601f19601f8201168201806040525081019061213391906124bd565b5060408051858152602081018590529081018390526001600160a01b0380891691908a16907f1d1312f54cfc1804c88ed78cffc7ff25d92b7eca9a1663d31b12e405af4f4df89060600160405180910390a35050505050505050565b80156121eb57816121a084866125ec565b146121e65760405162461bcd60e51b81526020600482015260166024820152751093d3d2d2d15154125391d7d0511117d1905253115160521b6044820152606401610365565b61223c565b816121f68486612645565b1461223c5760405162461bcd60e51b81526020600482015260166024820152751093d3d2d2d15154125391d7d4d55097d1905253115160521b6044820152606401610365565b50505050565b60008083601f84011261225457600080fd5b50813567ffffffffffffffff81111561226c57600080fd5b6020830191508360208260051b850101111561228757600080fd5b9250929050565b6000602082840312156122a057600080fd5b813561052e816126a3565b6000602082840312156122bd57600080fd5b815161052e816126a3565b600080604083850312156122db57600080fd5b82356122e6816126a3565b915060208301356122f6816126a3565b809150509250929050565b60008060006060848603121561231657600080fd5b8335612321816126a3565b92506020840135612331816126a3565b91506040840135612341816126a3565b809150509250925092565b60008060006060848603121561236157600080fd5b833561236c816126a3565b9250602084013561237c816126a3565b929592945050506040919091013590565b60008060008060008060006080888a0312156123a857600080fd5b87356123b3816126a3565b9650602088013567ffffffffffffffff808211156123d057600080fd5b6123dc8b838c01612242565b909850965060408a01359150808211156123f557600080fd5b6124018b838c01612242565b909650945060608a013591508082111561241a57600080fd5b506124278a828b01612242565b989b979a50959850939692959293505050565b60008060008060006060868803121561245257600080fd5b853561245d816126a3565b9450602086013567ffffffffffffffff8082111561247a57600080fd5b61248689838a01612242565b9096509450604088013591508082111561249f57600080fd5b506124ac88828901612242565b969995985093965092949392505050565b6000602082840312156124cf57600080fd5b8151801515811461052e57600080fd5b6000602082840312156124f157600080fd5b5051919050565b60008060006060848603121561250d57600080fd5b505081359360208301359350604090920135919050565b6000806000806080858703121561253a57600080fd5b5050823594602084013594506040840135936060013592509050565b6001600160a01b0392831681529116602082015260400190565b6001600160a01b0393841681529183166020830152909116604082015260600190565b6001600160a01b039384168152919092166020820152604081019190915260600190565b6020808252818101527f4f776e61626c653a2063616c6c6572206973206e6f7420746865206f776e6572604082015260600190565b600082198211156125ff576125ff612677565b500190565b60008261262157634e487b7160e01b600052601260045260246000fd5b500490565b600081600019048311821515161561264057612640612677565b500290565b60008282101561265757612657612677565b500390565b600060001982141561267057612670612677565b5060010190565b634e487b7160e01b600052601160045260246000fd5b634e487b7160e01b600052603260045260246000fd5b6001600160a01b03811681146107b157600080fdfea2646970667358221220b3bf0ad858ce20c5892c825d5d6dead45513f36003d48e53befbd7c99f7b578464736f6c63430008050033",
  "immutableReferences": {},
  "source": "// SPDX-License-Identifier: UNLICENSED\n\npragma solidity ^0.8.0;\n\nimport \"@openzeppelin/contracts/token/ERC20/utils/SafeERC20.sol\";\nimport \"./SyndicateClosedEndFundLogic.sol\";\n\n/// @author Syndicate Inc.\n/// @notice Handle member distribution accounting and ERC20 transfers\ncontract SyndicateClosedEndFundDistributionLogicV0 is\n    SyndicateClosedEndFundLogic\n{\n    // Contract constants-------------------------------------------------------\n\n    using SafeERC20 for IERC20;\n\n    // Storage------------------------------------------------------------------\n\n    /// @notice Used to initialize the Syndicate contract.\n    constructor(address storeAddress)\n        SyndicateClosedEndFundLogic(storeAddress)\n    {}\n\n    // Events-------------------------------------------------------------------\n\n    /// @notice Emit an event when a manager sets a distribution\n    event managerSetterDistribution(\n        address indexed syndicateAddress,\n        address indexed distributionERC20Address,\n        uint256 amountToMembers,\n        uint256 amountToSyndicate,\n        uint256 amountToManager\n    );\n\n    /// @notice Emit an event when a manager sets a distribution for a new\n    /// ERC20 address. This is called by `managerSetDistributions()` the first\n    /// time a distribution is set for a particular ERC20 address.\n    event managerSetterDistributionERC20Address(\n        address indexed syndicateAddress,\n        address indexed distributionERC20Address\n    );\n\n    /// @notice Emit an event when a manager overrides a member's claimed\n    /// distributions. Applicable to `modifiable` Syndicates only.\n    /// @dev The balance emitted is the new value, not the change in\n    /// value--reconcile with `memberClaimedDistribution` events accordingly\n    event managerSetterDistributionClaimedForMember(\n        address indexed syndicateAddress,\n        address indexed memberAddress,\n        address indexed distributionERC20Address,\n        uint256 distributionClaimedMember,\n        uint256 timestamp\n    );\n\n    /// @notice Emit an event when a member withdraws a distribution\n    /// @dev A different event is emitted for withdrawing deposits\n    event memberClaimedDistribution(\n        address indexed syndicateAddress,\n        address indexed memberAddress,\n        address indexed distributionERC20Address,\n        uint256 amountWithdrawn,\n        uint256 timestamp\n    );\n\n    // Functions----------------------------------------------------------------\n\n    /// @notice Used by a manager to initialize or increase the available\n    /// distributions for multiple ERC20 tokens after a Syndicate has been\n    /// closed.\n    /// @param syndicateAddress The address of the Syndicate\n    /// @param distributionERC20Addresses The ERC20 contract addresses of the\n    /// distributions. Distributions can be set for any ERC20 token, including\n    /// the deposit token.\n    /// @param amounts The amounts to be added to the available distributions\n    /// of each ERC20 token indexed in `distributionERC20Addresses`. This array\n    /// must have the same length as `distributionERC20Addresses`.\n    /// @notice Managers only receive performance fees when a user withdraws a\n    /// distribution, not when the manager sets the distribution. This prevents\n    /// managers from setting a high allowance, taking their fee, and then\n    /// cutting off the allowance and not allowing members to withdraw.\n    function managerSetDistributions(\n        address syndicateAddress,\n        address[] calldata distributionERC20Addresses,\n        uint256[] calldata amounts\n    ) public onlyManager(syndicateAddress) onlyClosed(syndicateAddress) {\n        // Both passed-in arrays must have the same length\n        require(distributionERC20Addresses.length == amounts.length, \"ARRAY_LENGTHS_DIFFER\");\n\n        // Enable distributions if they are currently disabled\n        if (!store.distributing(syndicateAddress)) {\n            require(\n                store.managerFeeAddress(syndicateAddress) != address(0),\n                \"FEE_ADDR_NOT_SET\"\n            );\n            store.setDistributing(syndicateAddress, true);\n        }\n\n        for (uint256 i = 0; i < distributionERC20Addresses.length; i++) {\n            _setDistribution(\n                syndicateAddress,\n                distributionERC20Addresses[i],\n                amounts[i]\n            );\n        }\n    }\n\n    /// @notice Used by a manager to modify the claimed distribution amount for\n    /// a given member address\n    /// @param syndicateAddress The address of the Syndicate\n    /// @param memberAddresses The addresses of the members whose info is being\n    /// set.\n    /// @param distributionERC20Addresses The ERC20 contract addresses of the\n    /// distribution.\n    /// @param amounts The amounts to increase the claimed distribution of the\n    /// corresponding index in memberAddresses. All paramter arrays must match\n    /// exactly in length.\n    /// @notice This function can only be called if the Syndicate is modifiable.\n    /// The modifiable boolean is set by the manager on creation and cannot be\n    /// changed after the Syndicate is created.\n    /// @notice Claimed distributions can only be raised. If we allowed a\n    /// manager to lower a member's claimed distributions, the manager's token\n    /// allowance and token balance may not be enough to cover all future\n    /// distributions.\n    /// @notice Claimed distributions cannot exceed the member's eligible\n    /// distributions as calculated from their deposit. If we allowed a manager\n    /// to raise a member's claimed distributions above their eligible\n    /// distributions, we would have to adjust `distributionTotal` accordingly\n    /// and this would result in every other member being eligible for an\n    /// additional distribution, which the manager may not have a sufficient\n    /// allowance/balance to cover.\n    /// @notice This function can only be called after distributions are\n    /// enabled. Before distributions are enabled, there is no reason to call\n    /// this function since there are no distributions available to claim.\n    function managerSetDistributionClaimedForMembers(\n        address syndicateAddress,\n        address[] calldata memberAddresses,\n        address[] calldata distributionERC20Addresses,\n        uint256[] calldata amounts\n    )\n        public\n        onlyManager(syndicateAddress)\n        onlyClosed(syndicateAddress)\n        onlyModifiable(syndicateAddress)\n    {\n        // All three passed-in arrays must have the same length\n        require(memberAddresses.length == amounts.length && distributionERC20Addresses.length == amounts.length, \"ARRAY_LENGTHS_DIFFER\");\n\n        for (uint256 i = 0; i < memberAddresses.length; i++) {\n            _claimDistribution(\n                syndicateAddress,\n                memberAddresses[i],\n                distributionERC20Addresses[i],\n                amounts[i],\n                true\n            );\n        }\n    }\n\n    /// @notice Used by a member to claim a distribution from a closed Syndicate.\n    /// @param syndicateAddress The Syndicate that a member will withdraw from.\n    /// @param ERC20Address Specifies the token type to be transferred\n    /// from the Syndicate to the member. For withdrawals from an open\n    /// Syndicate, this **must** match the Syndicate's `depositERC20Address`.\n    /// @param amount The amount of tokens (of type specified by\n    /// `ERC20Address`) to be withdrawn\n    /// @notice The member is identified via `msg.sender`. This call must be\n    /// made from the member address that originally called `memberDeposit` until\n    /// the functionality to transfer member balances is added.\n    /// @notice Withdrawal options are different depending on the Syndicate's\n    /// progression through its life cycle. After the Syndicate is closed, no\n    /// withdrawals of any kind can be made until the manager sets a distribution.\n    /// After that point, any allowed distribution token can be withdrawn.\n    /// @dev Withdrawals are restricted to the primary or secondary ERC20\n    /// contract addresses. If we allowed any arbitrary ERC20 address, we would\n    /// also need to track ownership percentages across all arbitrary ERC20\n    /// addresses. This is significantly outside of the scope of the Syndicate\n    /// contract and should be saved for future asset management contracts.\n    /// @dev Withdrawals are processed before any fees that any ERC-20 token may\n    /// assess. The amount that all users receive may be lower if an ERC-20\n    /// token takes a fee upon a transfer.\n    /// @dev memberWithdraw() follows the Checks-Effects-Interactions pattern\n    function memberClaimDistribution(\n        address syndicateAddress,\n        address ERC20Address,\n        uint256 amount\n    ) public onlyNotManager(syndicateAddress) onlyClosed(syndicateAddress) {\n        _claimDistribution(\n            syndicateAddress,\n            msg.sender,\n            ERC20Address,\n            amount,\n            false\n        );\n    }\n\n    /// @notice Get a Syndicate's total distributions for a given ERC20\n    /// @param syndicateAddress The address of the Syndicate\n    /// @param distributionERC20Address The ERC20 address of the token whose\n    /// distributions are being queried\n    /// @return The `distributionTotal` for a given `distributionERC20Address`\n    function getDistributionTotal(\n        address syndicateAddress,\n        address distributionERC20Address\n    ) public view returns (uint256) {\n        return\n            store.distributionTotal(syndicateAddress, distributionERC20Address);\n    }\n\n    /// @notice Get a member's claimed distributions for a given ERC20\n    /// @param syndicateAddress The address of the Syndicate\n    /// @param memberAddress The address of the member whose info is being\n    /// queried\n    /// @param distributionERC20Address The ERC20 address of the token whose\n    /// distributions are being queried\n    /// @return The distribution claimed by a member for a given\n    /// `distributionERC20Address`\n    function getDistributionClaimedMember(\n        address syndicateAddress,\n        address memberAddress,\n        address distributionERC20Address\n    ) public view returns (uint256) {\n        return\n            store.distributionClaimedMember(\n                syndicateAddress,\n                distributionERC20Address,\n                memberAddress\n            );\n    }\n\n    /// @notice Get a member's unclaimed distribution for a given ERC20\n    /// @param syndicateAddress The address of the Syndicate\n    /// @param memberAddress The address of the member whose info is being\n    /// queried\n    /// @param distributionERC20Address The ERC20 address of the token whose\n    /// distributions are being queried\n    /// @return The unclaimed distribution for a member for a given\n    /// `distributionERC20Address`\n    function getDistributionUnclaimedMember(\n        address syndicateAddress,\n        address memberAddress,\n        address distributionERC20Address\n    ) public view returns (uint256) {\n        uint256 depositMember;\n        uint256 totalContributions;\n        uint256 distributionClaimedMember;\n        uint256 distributionTotal;\n\n        depositMember = store.depositMember(syndicateAddress, memberAddress);\n        totalContributions = store.depositTotal(syndicateAddress);\n        distributionClaimedMember = getDistributionClaimedMember(\n            syndicateAddress,\n            memberAddress,\n            distributionERC20Address\n        );\n        distributionTotal = getDistributionTotal(\n            syndicateAddress,\n            distributionERC20Address\n        );\n\n        return\n            calculateEligibleDistributions(\n                depositMember,\n                totalContributions,\n                distributionClaimedMember,\n                distributionTotal\n            );\n    }\n\n    /// @notice Get a Syndicate's total claimed distributions for a given ERC20\n    /// @param syndicateAddress The address of the Syndicate\n    /// @param distributionERC20Address The ERC20 address of the token whose\n    /// distributions are being queried\n    /// @return The `distributionTotal` for a given `distributionERC20Address`\n    function getDistributionClaimedTotal(\n        address syndicateAddress,\n        address distributionERC20Address\n    ) public view returns (uint256) {\n        return\n            store.distributionClaimedTotal(\n                syndicateAddress,\n                distributionERC20Address\n            );\n    }\n\n    /// @notice Calculates the maximum value in distribution tokens (in either\n    /// primary or secondary ERC20) that a member can withdraw based on their\n    /// percentage ownership at the moment that the fund closed and the\n    /// distributions that they have already received.\n    /// @param depositMember Total user has deposited to the fund\n    /// @param totalContributions Total contributions (from anyone) to the fund\n    /// @param distributionClaimedMember Value in distributions that user has\n    /// withdrawn from the fund already.  Make sure this matches the token type\n    /// (primary or secondary) passed in for distributionTotal.\n    /// @param distributionTotal Total distributions available from the fund,\n    /// claimed or not.  Make sure this matches the token type (primary or\n    /// secondary) passed in for distributionClaimedMember.\n    /// @return Value in distributions that user is eligible to withdraw\n    /// @dev HIGH RISK: If this calculation is incorrect, a user could withdraw\n    /// more or less than they are entitled to.\n    function calculateEligibleDistributions(\n        uint256 depositMember,\n        uint256 totalContributions,\n        uint256 distributionClaimedMember,\n        uint256 distributionTotal\n    ) public pure returns (uint256) {\n        // If the fund is empty, we need to return to prevent division by 0\n        if (totalContributions == 0) return 0;\n        // Solves this equation for eligibleDistributions:\n        // depositMember / totalContributions = (eligibleDistributions +\n        //      distributionClaimedMember) / distributionTotal\n        uint256 eligibleDistributions =\n            (((depositMember * distributionTotal) / totalContributions) -\n                distributionClaimedMember);\n        require(eligibleDistributions > 0, \"NO_ELIGIBLE_DIST\");\n        return eligibleDistributions;\n    }\n\n    /// @notice Calculates the fees to be deducted upon the withdrawal of a\n    /// distribution from a closed Syndicate.\n    /// @param amount Total amount to be withdrawn, including fees.\n    /// @param syndicateProfitShareBasisPoints Profit share to Syndicate in\n    /// basis points (i.e. as a fraction divided by 10000)\n    /// @param managerProfitShareBasisPoints Profit share to the Syndicate\n    /// manager in basis points (i.e. as a fraction divided by 10000)\n    /// @return Tuple of the amounts (toUser, toSyndicate, toManager) that will\n    /// be transferred, together adding up to the passed amount.\n    function calculateProfitShare(\n        uint256 amount,\n        uint256 syndicateProfitShareBasisPoints,\n        uint256 managerProfitShareBasisPoints\n    )\n        public\n        pure\n        returns (\n            uint256,\n            uint256,\n            uint256\n        )\n    {\n        uint256 toSyndicate = (amount * syndicateProfitShareBasisPoints) /\n            BASIS_POINTS_DENOMINATOR;\n        uint256 toManager = (amount * managerProfitShareBasisPoints) /\n            BASIS_POINTS_DENOMINATOR;\n        uint256 toMembers = amount - toManager - toSyndicate;\n\n        // I believe that there are cases where this can fail (e.g. if\n        // there is wei left over from truncating the division). We can\n        // catch this during formal verification and determine whether\n        // we want to make amount >= instead of == or just give the\n        // remaining wei to the user\n        require(amount == toMembers + toSyndicate + toManager, \"FEE_CALC_FAILED\");\n\n        return (toMembers, toSyndicate, toManager);\n    }\n\n    // Internal functions-------------------------------------------------------\n\n    /// @notice Initalize or increase a distribution for a Syndicate\n    /// @param syndicateAddress The address of the Syndicate\n    /// @param distributionERC20Address The ERC20 contract address of the\n    /// distribution\n    /// @param amount The amount by which the available distribution should be\n    /// increased.\n    /// @notice Syndicate and Manager fees are assessed when a distribution is\n    /// set by a manager, not when a distribution is claimed by a user. This\n    /// ensures that unclaimed distributions do not prevent Syndicate and\n    /// managers from receiving their portion of the fees, and in general makes\n    /// receiving fees much more predictable.\n    /// @notice This function does not verify that the manager has set an\n    /// appropriate allowance for the desired balance. It is the responsibility\n    /// of the manager to do so, since any allowance checks that could occur in\n    /// this function would be vulnerable to front-running.\n    /// @dev Note that distribution amount available to users is after Syndicate\n    /// and manager fees are assessed. For example, if a manager sets a\n    /// distribution of 1000 DAI and the profit share to Syndicate is 0.50% (50\n    /// basis points) and the manager's performance fee is 2.00% (200 basis\n    /// points), the amount available for distribution to users would be 97.5%\n    /// of 1000 -- i.e. 975 USDC.\n    /// @dev This function makes setting large number of distributions slightly\n    /// more gas efficient by creating an internal setDistribution function that\n    /// skips the modifier check.\n    function _setDistribution(\n        address syndicateAddress,\n        address distributionERC20Address,\n        uint256 amount\n    ) internal whenNotPaused() {\n        IERC20 distributionERC20 = IERC20(distributionERC20Address);\n\n        // Checks\n\n        // If the ERC20 address has not already been set for distribution in\n        // `SyndicateMappings`, mark it as available, and emit an event\n        // broadcasting that a new token is available for distribution.\n        if (\n            !store.distributionERC20Addresses(\n                syndicateAddress,\n                distributionERC20Address\n            )\n        ) {\n            store.setDistributionERC20Addresses(\n                syndicateAddress,\n                distributionERC20Address,\n                true\n            );\n            emit managerSetterDistributionERC20Address(\n                syndicateAddress,\n                distributionERC20Address\n            );\n        }\n\n        // Effects\n        uint256 amountToMembers;\n        uint256 amountToSyndicate;\n        uint256 amountToManager;\n\n        (\n            amountToMembers,\n            amountToSyndicate,\n            amountToManager\n        ) = calculateProfitShare(\n            amount,\n            store.syndicateProfitShareBasisPoints(syndicateAddress),\n            store.managerPerformanceFeeBasisPoints(syndicateAddress)\n        );\n\n        uint256 oldTotalDistributions = store.distributionTotal(\n            syndicateAddress,\n            distributionERC20Address\n        );\n\n        // Increment the distribution total and emit an event\n        store.setDistributionTotal(\n            syndicateAddress,\n            distributionERC20Address,\n            oldTotalDistributions + amountToMembers\n        );\n\n        _checkBookkeeping(\n            oldTotalDistributions,\n            amountToMembers,\n            store.distributionTotal(syndicateAddress, distributionERC20Address),\n            true\n        );\n\n        // Interactions\n        distributionERC20.transferFrom(\n            store.managerCurrent(syndicateAddress),\n            syndicateFeeAddress,\n            amountToSyndicate\n        );\n\n        distributionERC20.transferFrom(\n            store.managerCurrent(syndicateAddress),\n            store.managerFeeAddress(syndicateAddress),\n            amountToManager\n        );\n\n        emit managerSetterDistribution(\n            syndicateAddress,\n            distributionERC20Address,\n            amountToMembers,\n            amountToSyndicate,\n            amountToManager\n        );\n    }\n\n    function _claimDistribution(\n        address syndicateAddress,\n        address memberAddress,\n        address ERC20Address,\n        uint256 amount,\n        bool calledByManager\n    ) internal {\n        // If the Syndicate is closed but distributions have not been enabled,\n        // the Syndicate manager may be using the funds for investment.\n        // Therefore, withdrawals are unavailable until distributions are\n        // enabled.\n        require(store.distributing(syndicateAddress), \"SYN_NOT_DISTRIBUTING\");\n        // If the Syndicate is closed and distributions are enabled, funds can\n        // be withdrawn in the primary or secondary ERC20 token. This is added\n        // to the sender's claimed distribution totals to track the remaining\n        // amount they are eligible to withdraw. Fees are sent to the manager\n        // and Syndicate upon withdrawal.\n\n        // Distribution ERC20 must be enabled for withdrawals by manager.\n        require(\n            store.distributionERC20Addresses(syndicateAddress, ERC20Address),\n            \"NO_DIST_AT_ERC20\"\n        );\n\n        // Without this line, a member could spam withdrawals of 0. It is\n        // additionally necessary to protect `_processWithdrawalOpen` from\n        // decrementing `numMembersCurrent` when a member with a deposit of 0\n        // withdraws 0.\n        require(amount > 0, \"DIST<=0\");\n\n        uint256 oldDistributionClaimedMember = store.distributionClaimedMember(\n            syndicateAddress,\n            ERC20Address,\n            memberAddress\n        );\n\n        // The withdrawal amount must not exceed the member's profit share\n        // in the Syndicate less the distributions they have already\n        // claimed.\n        // HIGH RISK: Without this check, a user could withdraw more than\n        // they are eligible to.\n        require(\n            amount <=\n                calculateEligibleDistributions(\n                    store.depositMember(syndicateAddress, memberAddress),\n                    store.depositTotal(syndicateAddress),\n                    oldDistributionClaimedMember,\n                    store.distributionTotal(syndicateAddress, ERC20Address)\n                ),\n            \"DIST>ELIGIBLE\"\n        );\n\n        uint256 oldDistributionClaimedTotal = store.distributionClaimedTotal(\n            syndicateAddress,\n            ERC20Address\n        );\n\n        // Effects\n        // Increase the member's claimed distributions\n        store.setDistributionClaimedMember(\n            syndicateAddress,\n            ERC20Address,\n            memberAddress,\n            store.distributionClaimedMember(\n                syndicateAddress,\n                ERC20Address,\n                memberAddress\n            ) + amount\n        );\n\n        // Increase total claimed distributions\n        store.setDistributionClaimedTotal(\n            syndicateAddress,\n            ERC20Address,\n            store.distributionClaimedTotal(syndicateAddress, ERC20Address) +\n                amount\n        );\n\n        // Checks that oldClaimedDistributions + amount = the member's\n        // distributionClaimedMember of that ERC20\n        _checkBookkeeping(\n            oldDistributionClaimedMember,\n            amount,\n            store.distributionClaimedMember(\n                syndicateAddress,\n                ERC20Address,\n                memberAddress\n            ),\n            true\n        );\n\n        // Checks that oldDistributionClaimedTotal + amount =\n        // distributionClaimedTotal\n        _checkBookkeeping(\n            oldDistributionClaimedTotal,\n            amount,\n            store.distributionClaimedTotal(syndicateAddress, ERC20Address),\n            true\n        );\n\n        if (calledByManager) {\n            emit managerSetterDistributionClaimedForMember(\n                syndicateAddress,\n                memberAddress,\n                ERC20Address,\n                amount,\n                block.timestamp\n            );\n        } else {\n            IERC20 withdrawalERC20 = IERC20(ERC20Address);\n\n            // The user should get paid first, then Syndicate, then the\n            // manager. This is because the manager controls the allowance --\n            // otherwise the manager could stop someone from getting paid by\n            // lowering the allowance below the distribution amount. If the\n            // manager wants to get paid, they need to set a proper\n            // allowance and not have any of these transfers fail.\n            // Note that if any one transfer reverts, the entire transaction\n            // will safely revert. This ordering just accounts for ERC-20s that\n            // might have used a custom implementation and not revert upon a\n            // `transferFrom()` that exceeds the balance or the allowance\n            // HIGH RISK: If we did not use `msg.sender`, this could be\n            // used to redirect funds from users other than the wallet\n            // holder (or smart contract owner, if a DAO is making the\n            // withdrawal).\n            withdrawalERC20.transferFrom(\n                store.managerCurrent(syndicateAddress),\n                memberAddress,\n                amount\n            );\n\n            emit memberClaimedDistribution(\n                syndicateAddress,\n                memberAddress,\n                ERC20Address,\n                amount,\n                block.timestamp\n            );\n        }\n    }\n}\n",
  "sourcePath": "/home/will/Syndicate/contracts/SyndicateClosedEndFundDistributionLogicV0.sol",
  "compiler": {
    "name": "solc",
    "version": "0.8.5+commit.a4f2e591.Emscripten.clang"
  },
  "schemaVersion": "3.4.0",
  "updatedAt": "2021-06-21T04:55:02.258Z",
  "devdoc": {
    "author": "Syndicate Inc.",
    "events": {
      "managerSetterDistributionClaimedForMember(address,address,address,uint256,uint256)": {
        "details": "The balance emitted is the new value, not the change in value--reconcile with `memberClaimedDistribution` events accordingly"
      },
      "memberClaimedDistribution(address,address,address,uint256,uint256)": {
        "details": "A different event is emitted for withdrawing deposits"
      }
    },
    "kind": "dev",
    "methods": {
      "calculateEligibleDistributions(uint256,uint256,uint256,uint256)": {
        "details": "HIGH RISK: If this calculation is incorrect, a user could withdraw more or less than they are entitled to.",
        "params": {
          "depositMember": "Total user has deposited to the fund",
          "distributionClaimedMember": "Value in distributions that user has withdrawn from the fund already.  Make sure this matches the token type (primary or secondary) passed in for distributionTotal.",
          "distributionTotal": "Total distributions available from the fund, claimed or not.  Make sure this matches the token type (primary or secondary) passed in for distributionClaimedMember.",
          "totalContributions": "Total contributions (from anyone) to the fund"
        },
        "returns": {
          "_0": "Value in distributions that user is eligible to withdraw"
        }
      },
      "calculateProfitShare(uint256,uint256,uint256)": {
        "params": {
          "amount": "Total amount to be withdrawn, including fees.",
          "managerProfitShareBasisPoints": "Profit share to the Syndicate manager in basis points (i.e. as a fraction divided by 10000)",
          "syndicateProfitShareBasisPoints": "Profit share to Syndicate in basis points (i.e. as a fraction divided by 10000)"
        },
        "returns": {
          "_0": "Tuple of the amounts (toUser, toSyndicate, toManager) that will be transferred, together adding up to the passed amount."
        }
      },
      "getDistributionClaimedMember(address,address,address)": {
        "params": {
          "distributionERC20Address": "The ERC20 address of the token whose distributions are being queried",
          "memberAddress": "The address of the member whose info is being queried",
          "syndicateAddress": "The address of the Syndicate"
        },
        "returns": {
          "_0": "The distribution claimed by a member for a given `distributionERC20Address`"
        }
      },
      "getDistributionClaimedTotal(address,address)": {
        "params": {
          "distributionERC20Address": "The ERC20 address of the token whose distributions are being queried",
          "syndicateAddress": "The address of the Syndicate"
        },
        "returns": {
          "_0": "The `distributionTotal` for a given `distributionERC20Address`"
        }
      },
      "getDistributionTotal(address,address)": {
        "params": {
          "distributionERC20Address": "The ERC20 address of the token whose distributions are being queried",
          "syndicateAddress": "The address of the Syndicate"
        },
        "returns": {
          "_0": "The `distributionTotal` for a given `distributionERC20Address`"
        }
      },
      "getDistributionUnclaimedMember(address,address,address)": {
        "params": {
          "distributionERC20Address": "The ERC20 address of the token whose distributions are being queried",
          "memberAddress": "The address of the member whose info is being queried",
          "syndicateAddress": "The address of the Syndicate"
        },
        "returns": {
          "_0": "The unclaimed distribution for a member for a given `distributionERC20Address`"
        }
      },
      "managerSetDistributionClaimedForMembers(address,address[],address[],uint256[])": {
        "params": {
          "amounts": "The amounts to increase the claimed distribution of the corresponding index in memberAddresses. All paramter arrays must match exactly in length.",
          "distributionERC20Addresses": "The ERC20 contract addresses of the distribution.",
          "memberAddresses": "The addresses of the members whose info is being set.",
          "syndicateAddress": "The address of the Syndicate"
        }
      },
      "managerSetDistributions(address,address[],uint256[])": {
        "params": {
          "amounts": "The amounts to be added to the available distributions of each ERC20 token indexed in `distributionERC20Addresses`. This array must have the same length as `distributionERC20Addresses`.",
          "distributionERC20Addresses": "The ERC20 contract addresses of the distributions. Distributions can be set for any ERC20 token, including the deposit token.",
          "syndicateAddress": "The address of the Syndicate"
        }
      },
      "memberClaimDistribution(address,address,uint256)": {
        "details": "Withdrawals are restricted to the primary or secondary ERC20 contract addresses. If we allowed any arbitrary ERC20 address, we would also need to track ownership percentages across all arbitrary ERC20 addresses. This is significantly outside of the scope of the Syndicate contract and should be saved for future asset management contracts.Withdrawals are processed before any fees that any ERC-20 token may assess. The amount that all users receive may be lower if an ERC-20 token takes a fee upon a transfer.memberWithdraw() follows the Checks-Effects-Interactions pattern",
        "params": {
          "ERC20Address": "Specifies the token type to be transferred from the Syndicate to the member. For withdrawals from an open Syndicate, this **must** match the Syndicate's `depositERC20Address`.",
          "amount": "The amount of tokens (of type specified by `ERC20Address`) to be withdrawn",
          "syndicateAddress": "The Syndicate that a member will withdraw from."
        }
      },
      "owner()": {
        "details": "Returns the address of the current owner."
      },
      "ownerSetSyndicateFeeAddress(address)": {
        "params": {
          "feeAddress": "The owner's new contract fee address"
        }
      },
      "ownerTransferOwnership(address)": {
        "params": {
          "newOwner": "The new owner's address."
        }
      },
      "paused()": {
        "details": "Returns true if the contract is paused, and false otherwise."
      },
      "renounceOwnership()": {
        "details": "Leaves the contract without owner. It will not be possible to call `onlyOwner` functions anymore. Can only be called by the current owner. NOTE: Renouncing ownership will leave the contract without an owner, thereby removing any functionality that is only available to the owner."
      },
      "transferOwnership(address)": {
        "details": "Transfers ownership of the contract to a new account (`newOwner`). Can only be called by the current owner."
      }
    },
    "version": 1
  },
  "userdoc": {
    "events": {
      "managerClosedSyndicate(address,uint256)": {
        "notice": "Emit an event when a manager closes a Syndicate"
      },
      "managerSetterDistribution(address,address,uint256,uint256,uint256)": {
        "notice": "Emit an event when a manager sets a distribution"
      },
      "managerSetterDistributionClaimedForMember(address,address,address,uint256,uint256)": {
        "notice": "Emit an event when a manager overrides a member's claimed distributions. Applicable to `modifiable` Syndicates only."
      },
      "managerSetterDistributionERC20Address(address,address)": {
        "notice": "Emit an event when a manager sets a distribution for a new ERC20 address. This is called by `managerSetDistributions()` the first time a distribution is set for a particular ERC20 address."
      },
      "memberClaimedDistribution(address,address,address,uint256,uint256)": {
        "notice": "Emit an event when a member withdraws a distribution"
      },
      "ownerRenouncedPause(address)": {
        "notice": "Emit an event when the owner renounces ability to pause the contract"
      },
      "ownerSetterSyndicateFeeAddress(address,uint256)": {
        "notice": "Emit an event when the owner of the contract sets a new contract fee address"
      }
    },
    "kind": "user",
    "methods": {
      "calculateEligibleDistributions(uint256,uint256,uint256,uint256)": {
        "notice": "Calculates the maximum value in distribution tokens (in either primary or secondary ERC20) that a member can withdraw based on their percentage ownership at the moment that the fund closed and the distributions that they have already received."
      },
      "calculateProfitShare(uint256,uint256,uint256)": {
        "notice": "Calculates the fees to be deducted upon the withdrawal of a distribution from a closed Syndicate."
      },
      "constructor": {
        "notice": "Used to initialize the Syndicate contract."
      },
      "getDistributionClaimedMember(address,address,address)": {
        "notice": "Get a member's claimed distributions for a given ERC20"
      },
      "getDistributionClaimedTotal(address,address)": {
        "notice": "Get a Syndicate's total claimed distributions for a given ERC20"
      },
      "getDistributionTotal(address,address)": {
        "notice": "Get a Syndicate's total distributions for a given ERC20"
      },
      "getDistributionUnclaimedMember(address,address,address)": {
        "notice": "Get a member's unclaimed distribution for a given ERC20"
      },
      "managerSetDistributionClaimedForMembers(address,address[],address[],uint256[])": {
        "notice": "Used by a manager to modify the claimed distribution amount for a given member addressThis function can only be called if the Syndicate is modifiable. The modifiable boolean is set by the manager on creation and cannot be changed after the Syndicate is created.Claimed distributions can only be raised. If we allowed a manager to lower a member's claimed distributions, the manager's token allowance and token balance may not be enough to cover all future distributions.Claimed distributions cannot exceed the member's eligible distributions as calculated from their deposit. If we allowed a manager to raise a member's claimed distributions above their eligible distributions, we would have to adjust `distributionTotal` accordingly and this would result in every other member being eligible for an additional distribution, which the manager may not have a sufficient allowance/balance to cover.This function can only be called after distributions are enabled. Before distributions are enabled, there is no reason to call this function since there are no distributions available to claim."
      },
      "managerSetDistributions(address,address[],uint256[])": {
        "notice": "Used by a manager to initialize or increase the available distributions for multiple ERC20 tokens after a Syndicate has been closed.Managers only receive performance fees when a user withdraws a distribution, not when the manager sets the distribution. This prevents managers from setting a high allowance, taking their fee, and then cutting off the allowance and not allowing members to withdraw."
      },
      "memberClaimDistribution(address,address,uint256)": {
        "notice": "Used by a member to claim a distribution from a closed Syndicate.The member is identified via `msg.sender`. This call must be made from the member address that originally called `memberDeposit` until the functionality to transfer member balances is added.Withdrawal options are different depending on the Syndicate's progression through its life cycle. After the Syndicate is closed, no withdrawals of any kind can be made until the manager sets a distribution. After that point, any allowed distribution token can be withdrawn."
      },
      "ownerPauseContract()": {
        "notice": "Emergency pause function that can only be triggered by the contract ownerIts purpose is to pause functions with the whenNotPaused() modifier.  All other functions will work when paused"
      },
      "ownerRenounceOwnership()": {
        "notice": "Renounce ownership of the contractIf necessary, unpauses the contract before ownership is renounced to ensure that functions with the whenNotPaused() modifier are not locked"
      },
      "ownerRenouncePause()": {
        "notice": "Used by the owner to renounce ability to pause the contractIf necessary, unpauses the contract before ownership is renounced to ensure that functions with the whenNotPaused() modifier are not locked"
      },
      "ownerSetSyndicateFeeAddress(address)": {
        "notice": "set a new fee address for the contract function that can only be triggered by the contract owner."
      },
      "ownerTransferOwnership(address)": {
        "notice": "Transfers ownership to the provided address."
      },
      "ownerUnpauseContract()": {
        "notice": "Emergency unpause function that can only be triggered by the contract ownerIts purpose is to unpause functions with the whenNotPaused() modifier.  All other functions will work when paused"
      }
    },
    "notice": "Handle member distribution accounting and ERC20 transfers",
    "version": 1
  }
}