{
  "contractName": "SyndicateClosedEndFundDepositTransferLogicV0",
  "abi": [
    {
      "inputs": [
        {
          "internalType": "address",
          "name": "storeAddress",
          "type": "address"
        }
      ],
      "stateMutability": "nonpayable",
      "type": "constructor"
    },
    {
      "anonymous": false,
      "inputs": [
        {
          "indexed": true,
          "internalType": "address",
          "name": "previousOwner",
          "type": "address"
        },
        {
          "indexed": true,
          "internalType": "address",
          "name": "newOwner",
          "type": "address"
        }
      ],
      "name": "OwnershipTransferred",
      "type": "event"
    },
    {
      "anonymous": false,
      "inputs": [
        {
          "indexed": false,
          "internalType": "address",
          "name": "account",
          "type": "address"
        }
      ],
      "name": "Paused",
      "type": "event"
    },
    {
      "anonymous": false,
      "inputs": [
        {
          "indexed": false,
          "internalType": "address",
          "name": "account",
          "type": "address"
        }
      ],
      "name": "Unpaused",
      "type": "event"
    },
    {
      "anonymous": false,
      "inputs": [
        {
          "indexed": true,
          "internalType": "address",
          "name": "syndicateAddress",
          "type": "address"
        },
        {
          "indexed": false,
          "internalType": "uint256",
          "name": "timestamp",
          "type": "uint256"
        }
      ],
      "name": "managerClosedSyndicate",
      "type": "event"
    },
    {
      "anonymous": false,
      "inputs": [
        {
          "indexed": true,
          "internalType": "address",
          "name": "syndicateAddress",
          "type": "address"
        },
        {
          "indexed": false,
          "internalType": "bool",
          "name": "transferable",
          "type": "bool"
        },
        {
          "indexed": false,
          "internalType": "uint256",
          "name": "timestamp",
          "type": "uint256"
        }
      ],
      "name": "managerSetterTransferable",
      "type": "event"
    },
    {
      "anonymous": false,
      "inputs": [
        {
          "indexed": true,
          "internalType": "address",
          "name": "syndicateAddress",
          "type": "address"
        },
        {
          "indexed": true,
          "internalType": "address",
          "name": "memberAddress",
          "type": "address"
        },
        {
          "indexed": true,
          "internalType": "address",
          "name": "targetAddress",
          "type": "address"
        },
        {
          "indexed": false,
          "internalType": "uint256",
          "name": "amount",
          "type": "uint256"
        },
        {
          "indexed": false,
          "internalType": "uint256",
          "name": "timestamp",
          "type": "uint256"
        }
      ],
      "name": "managerTransferredDeposit",
      "type": "event"
    },
    {
      "anonymous": false,
      "inputs": [
        {
          "indexed": true,
          "internalType": "address",
          "name": "syndicateAddress",
          "type": "address"
        },
        {
          "indexed": true,
          "internalType": "address",
          "name": "memberAddress",
          "type": "address"
        },
        {
          "indexed": true,
          "internalType": "address",
          "name": "targetAddress",
          "type": "address"
        },
        {
          "indexed": false,
          "internalType": "uint256",
          "name": "amount",
          "type": "uint256"
        },
        {
          "indexed": false,
          "internalType": "uint256",
          "name": "timestamp",
          "type": "uint256"
        }
      ],
      "name": "memberTransferredDeposit",
      "type": "event"
    },
    {
      "anonymous": false,
      "inputs": [
        {
          "indexed": false,
          "internalType": "address",
          "name": "owner",
          "type": "address"
        }
      ],
      "name": "ownerRenouncedPause",
      "type": "event"
    },
    {
      "anonymous": false,
      "inputs": [
        {
          "indexed": true,
          "internalType": "address",
          "name": "contractFeeAddress",
          "type": "address"
        },
        {
          "indexed": false,
          "internalType": "uint256",
          "name": "timestamp",
          "type": "uint256"
        }
      ],
      "name": "ownerSetterSyndicateFeeAddress",
      "type": "event"
    },
    {
      "inputs": [],
      "name": "BASIS_POINTS_DENOMINATOR",
      "outputs": [
        {
          "internalType": "uint256",
          "name": "",
          "type": "uint256"
        }
      ],
      "stateMutability": "view",
      "type": "function"
    },
    {
      "inputs": [],
      "name": "owner",
      "outputs": [
        {
          "internalType": "address",
          "name": "",
          "type": "address"
        }
      ],
      "stateMutability": "view",
      "type": "function"
    },
    {
      "inputs": [],
      "name": "ownerPauseContract",
      "outputs": [],
      "stateMutability": "nonpayable",
      "type": "function"
    },
    {
      "inputs": [],
      "name": "ownerRenounceOwnership",
      "outputs": [],
      "stateMutability": "nonpayable",
      "type": "function"
    },
    {
      "inputs": [],
      "name": "ownerRenouncePause",
      "outputs": [],
      "stateMutability": "nonpayable",
      "type": "function"
    },
    {
      "inputs": [
        {
          "internalType": "address",
          "name": "feeAddress",
          "type": "address"
        }
      ],
      "name": "ownerSetSyndicateFeeAddress",
      "outputs": [],
      "stateMutability": "nonpayable",
      "type": "function"
    },
    {
      "inputs": [
        {
          "internalType": "address",
          "name": "newOwner",
          "type": "address"
        }
      ],
      "name": "ownerTransferOwnership",
      "outputs": [],
      "stateMutability": "nonpayable",
      "type": "function"
    },
    {
      "inputs": [],
      "name": "ownerUnpauseContract",
      "outputs": [],
      "stateMutability": "nonpayable",
      "type": "function"
    },
    {
      "inputs": [],
      "name": "paused",
      "outputs": [
        {
          "internalType": "bool",
          "name": "",
          "type": "bool"
        }
      ],
      "stateMutability": "view",
      "type": "function"
    },
    {
      "inputs": [],
      "name": "renounceOwnership",
      "outputs": [],
      "stateMutability": "nonpayable",
      "type": "function"
    },
    {
      "inputs": [
        {
          "internalType": "address",
          "name": "newOwner",
          "type": "address"
        }
      ],
      "name": "transferOwnership",
      "outputs": [],
      "stateMutability": "nonpayable",
      "type": "function"
    },
    {
      "inputs": [
        {
          "internalType": "address",
          "name": "syndicateAddress",
          "type": "address"
        },
        {
          "internalType": "bool",
          "name": "transferable",
          "type": "bool"
        }
      ],
      "name": "managerSetTransferable",
      "outputs": [],
      "stateMutability": "nonpayable",
      "type": "function"
    },
    {
      "inputs": [
        {
          "internalType": "address",
          "name": "syndicateAddress",
          "type": "address"
        },
        {
          "internalType": "address",
          "name": "memberAddress",
          "type": "address"
        },
        {
          "internalType": "address",
          "name": "targetAddress",
          "type": "address"
        },
        {
          "internalType": "uint256",
          "name": "amount",
          "type": "uint256"
        }
      ],
      "name": "managerTransferDepositForMembers",
      "outputs": [],
      "stateMutability": "nonpayable",
      "type": "function"
    },
    {
      "inputs": [
        {
          "internalType": "address",
          "name": "syndicateAddress",
          "type": "address"
        },
        {
          "internalType": "address",
          "name": "targetAddress",
          "type": "address"
        },
        {
          "internalType": "uint256",
          "name": "amount",
          "type": "uint256"
        }
      ],
      "name": "memberTransfer",
      "outputs": [],
      "stateMutability": "nonpayable",
      "type": "function"
    }
  ],
  "bytecode": "0x6080604052600280546001600160a81b0319167340db79f7f18c468c6552538b488c58b5e72bf4d917905534801561003657600080fd5b50604051611d7a380380611d7a833981016040819052610055916100d0565b6001600081815581546001600160a01b0319163390811790925560405183929182917f8be0079c531659141344cd1fd0a4f28419497f9722a3daafe3b4186f6b6457e0908290a3506001805460ff60a01b19169055600380546001600160a01b0319166001600160a01b039290921691909117905550610100565b6000602082840312156100e257600080fd5b81516001600160a01b03811681146100f957600080fd5b9392505050565b611c6b8061010f6000396000f3fe608060405234801561001057600080fd5b50600436106100ea5760003560e01c80638da5cb5b1161008c578063bfd9a7e111610066578063bfd9a7e11461019a578063cfa498a3146101ad578063dac128ad146101c4578063f2fde38b146101cc57600080fd5b80638da5cb5b146101595780638e36015114610174578063a09cca931461018757600080fd5b80635c975abb116100c85780635c975abb1461011f578063715018a61461014157806379f90d6c1461014957806381abf4081461015157600080fd5b80630b8ea86d146100ef57806312285d401461010457806352b66ab71461010c575b600080fd5b6101026100fd366004611a7d565b6101df565b005b6101026103ed565b61010261011a366004611ace565b61042a565b600154600160a01b900460ff1660405190151581526020015b60405180910390f35b6101026104a6565b61010261051a565b610102610598565b6001546040516001600160a01b039091168152602001610138565b610102610182366004611b0f565b6105e4565b610102610195366004611a3c565b6106aa565b6101026101a8366004611a3c565b6106e0565b6101b661271081565b604051908152602001610138565b61010261075e565b6101026101da366004611a3c565b6107eb565b836101e9816108d6565b846101f3816109a1565b856101fd81610a5e565b6003546040516331dcbbdb60e21b81526001600160a01b0389811660048301529091169063c772ef6c9060240160206040518083038186803b15801561024257600080fd5b505afa158015610256573d6000803e3d6000fd5b505050506040513d601f19601f8201168201806040525081019061027a9190611b48565b8015610305575060035460405163dfbd56f560e01b81526001600160a01b039091169063dfbd56f5906102b3908a908990600401611b7e565b60206040518083038186803b1580156102cb57600080fd5b505afa1580156102df573d6000803e3d6000fd5b505050506040513d601f19601f820116820180604052508101906103039190611b48565b155b15610378576003546040516278de6f60e41b81526001600160a01b0389811660048301528781166024830152600160448301529091169063078de6f090606401600060405180830381600087803b15801561035f57600080fd5b505af1158015610373573d6000803e3d6000fd5b505050505b61038487878787610b1c565b846001600160a01b0316866001600160a01b0316886001600160a01b03167f470009de4b5139888475c3f205e3a3057d37b8ff1baa2e5cf3751a0ffdc8d18687426040516103dc929190918252602082015260400190565b60405180910390a450505050505050565b6001546001600160a01b031633146104205760405162461bcd60e51b815260040161041790611b98565b60405180910390fd5b6104286116dd565b565b8261043481611775565b8361043e81611841565b84610448816109a1565b61045486338787610b1c565b604080518581524260208201526001600160a01b03808816923392918a16917feff3f64876d65a0b1f774a56805bbee806be195fc62704b28d82ae6935d61576910160405180910390a4505050505050565b6001546001600160a01b031633146104d05760405162461bcd60e51b815260040161041790611b98565b6001546040516000916001600160a01b0316907f8be0079c531659141344cd1fd0a4f28419497f9722a3daafe3b4186f6b6457e0908390a3600180546001600160a01b0319169055565b6001546001600160a01b031633146105445760405162461bcd60e51b815260040161041790611b98565b600254600160a01b900460ff16156105905760405162461bcd60e51b815260206004820152600f60248201526e14105554d157d4915393d55390d151608a1b6044820152606401610417565b610428611901565b6001546001600160a01b031633146105c25760405162461bcd60e51b815260040161041790611b98565b600154600160a01b900460ff16156105dc576105dc6103ed565b6104286104a6565b816105ee816108d6565b826105f881610a5e565b600354604051630574647160e11b81526001600160a01b038681166004830152851515602483015290911690630ae8c8e290604401600060405180830381600087803b15801561064757600080fd5b505af115801561065b573d6000803e3d6000fd5b50506040805186151581524260208201526001600160a01b03881693507f783a0565aafdfad912e71a4f3da68ec2cd582acb62510b4af7e636524058a2d592500160405180910390a250505050565b6001546001600160a01b031633146106d45760405162461bcd60e51b815260040161041790611b98565b6106dd816107eb565b50565b6001546001600160a01b0316331461070a5760405162461bcd60e51b815260040161041790611b98565b600280546001600160a01b0319166001600160a01b0383169081179091556040514281527f1a49e1bcd954390033d0a77f7090e458f8d292a5dca5ff1424c84446d37690f99060200160405180910390a250565b6001546001600160a01b031633146107885760405162461bcd60e51b815260040161041790611b98565b600154600160a01b900460ff16156107a2576107a26103ed565b6002805460ff60a01b1916600160a01b1790556040513381527f8d464c3056e69b8da97814dbfddc04a614af8e35b3f030ba6ac9fbc881f2a35b906020015b60405180910390a1565b6001546001600160a01b031633146108155760405162461bcd60e51b815260040161041790611b98565b6001600160a01b03811661087a5760405162461bcd60e51b815260206004820152602660248201527f4f776e61626c653a206e6577206f776e657220697320746865207a65726f206160448201526564647265737360d01b6064820152608401610417565b6001546040516001600160a01b038084169216907f8be0079c531659141344cd1fd0a4f28419497f9722a3daafe3b4186f6b6457e090600090a3600180546001600160a01b0319166001600160a01b0392909216919091179055565b600354604051630e8aef6f60e41b81526001600160a01b0383811660048301529091169063e8aef6f09060240160206040518083038186803b15801561091b57600080fd5b505afa15801561092f573d6000803e3d6000fd5b505050506040513d601f19601f820116820180604052508101906109539190611a60565b6001600160a01b0316336001600160a01b0316146106dd5760405162461bcd60e51b815260206004820152600b60248201526a29a2292fa727aa2fa6a3a960a91b6044820152606401610417565b600354604051630622493160e41b81526001600160a01b0383811660048301529091169063622493109060240160206040518083038186803b1580156109e657600080fd5b505afa1580156109fa573d6000803e3d6000fd5b505050506040513d601f19601f82011682018060405250810190610a1e9190611b48565b156106dd5760405162461bcd60e51b815260206004820152601060248201526f53594e5f444953545249425554494e4760801b6044820152606401610417565b60035460405163adc1017f60e01b81526001600160a01b0383811660048301529091169063adc1017f9060240160206040518083038186803b158015610aa357600080fd5b505afa158015610ab7573d6000803e3d6000fd5b505050506040513d601f19601f82011682018060405250810190610adb9190611b48565b6106dd5760405162461bcd60e51b815260206004820152601260248201527153594e5f4e4f545f4d4f4449464941424c4560701b6044820152606401610417565b600154600160a01b900460ff1615610b695760405162461bcd60e51b815260206004820152601060248201526f14185d5cd8589b194e881c185d5cd95960821b6044820152606401610417565b60008111610ba25760405162461bcd60e51b815260206004820152600660248201526505446523c3d360d41b6044820152606401610417565b6003546040516331dcbbdb60e21b81526001600160a01b0386811660048301529091169063c772ef6c9060240160206040518083038186803b158015610be757600080fd5b505afa158015610bfb573d6000803e3d6000fd5b505050506040513d601f19601f82011682018060405250810190610c1f9190611b48565b15610ce45760035460405163dfbd56f560e01b81526001600160a01b039091169063dfbd56f590610c569087908690600401611b7e565b60206040518083038186803b158015610c6e57600080fd5b505afa158015610c82573d6000803e3d6000fd5b505050506040513d601f19601f82011682018060405250810190610ca69190611b48565b610ce45760405162461bcd60e51b815260206004820152600f60248201526e13509497d393d517d0531313d5d151608a1b6044820152606401610417565b600354604051630181a99d60e41b81526000916001600160a01b03169063181a99d090610d179088908890600401611b7e565b60206040518083038186803b158015610d2f57600080fd5b505afa158015610d43573d6000803e3d6000fd5b505050506040513d601f19601f82011682018060405250810190610d679190611b65565b905080821115610da35760405162461bcd60e51b81526020600482015260076024820152661511948f90905360ca1b6044820152606401610417565b80821415610ea25760035460405163e396ae9b60e01b81526001600160a01b038781166004830152909116906303d457c4908790600190849063e396ae9b9060240160206040518083038186803b158015610dfd57600080fd5b505afa158015610e11573d6000803e3d6000fd5b505050506040513d601f19601f82011682018060405250810190610e359190611b65565b610e3f9190611be5565b6040516001600160e01b031960e085901b1681526001600160a01b0390921660048301526024820152604401600060405180830381600087803b158015610e8557600080fd5b505af1158015610e99573d6000803e3d6000fd5b50505050610f6b565b60035460405163aaee68af60e01b81526001600160a01b0387811660048301529091169063aaee68af9060240160206040518083038186803b158015610ee757600080fd5b505afa158015610efb573d6000803e3d6000fd5b505050506040513d601f19601f82011682018060405250810190610f1f9190611b65565b610f298383611be5565b1015610f6b5760405162461bcd60e51b81526020600482015260116024820152700303c42414c3c4d494e5f4d42525f44455607c1b6044820152606401610417565b600354604051630181a99d60e41b81526000916001600160a01b03169063181a99d090610f9e9089908890600401611b7e565b60206040518083038186803b158015610fb657600080fd5b505afa158015610fca573d6000803e3d6000fd5b505050506040513d601f19601f82011682018060405250810190610fee9190611b65565b9050806111b35760035460405163e396ae9b60e01b81526001600160a01b038881166004830152909116906303d457c4908890839063e396ae9b9060240160206040518083038186803b15801561104457600080fd5b505afa158015611058573d6000803e3d6000fd5b505050506040513d601f19601f8201168201806040525081019061107c9190611b65565b611087906001611bcd565b6040516001600160e01b031960e085901b1681526001600160a01b0390921660048301526024820152604401600060405180830381600087803b1580156110cd57600080fd5b505af11580156110e1573d6000803e3d6000fd5b505060035460405163aaee68af60e01b81526001600160a01b038a81166004830152909116925063aaee68af915060240160206040518083038186803b15801561112a57600080fd5b505afa15801561113e573d6000803e3d6000fd5b505050506040513d601f19601f820116820180604052508101906111629190611b65565b61116c8483611bcd565b10156111ae5760405162461bcd60e51b81526020600482015260116024820152700303c42414c3c4d494e5f4d42525f44455607c1b6044820152606401610417565b61127a565b6003546040516342c7102b60e01b81526001600160a01b038881166004830152909116906342c7102b9060240160206040518083038186803b1580156111f857600080fd5b505afa15801561120c573d6000803e3d6000fd5b505050506040513d601f19601f820116820180604052508101906112309190611b65565b61123a8483611bcd565b111561127a5760405162461bcd60e51b815260206004820152600f60248201526e042414c3e4d41585f4d42525f44455608c1b6044820152606401610417565b600354604051631b1187f760e11b81526001600160a01b038881166004830152909116906336230fee9060240160206040518083038186803b1580156112bf57600080fd5b505afa1580156112d3573d6000803e3d6000fd5b505050506040513d601f19601f820116820180604052508101906112f79190611b65565b60035460405163e396ae9b60e01b81526001600160a01b0389811660048301529091169063e396ae9b9060240160206040518083038186803b15801561133c57600080fd5b505afa158015611350573d6000803e3d6000fd5b505050506040513d601f19601f820116820180604052508101906113749190611b65565b11156113b55760405162461bcd60e51b815260206004820152601060248201526f13505617d3509494d7d4915050d2115160821b6044820152606401610417565b600354604051630181a99d60e41b81526001600160a01b0390911690631e0dbc9f90889088908790859063181a99d0906113f59086908690600401611b7e565b60206040518083038186803b15801561140d57600080fd5b505afa158015611421573d6000803e3d6000fd5b505050506040513d601f19601f820116820180604052508101906114459190611b65565b61144f9190611be5565b6040516001600160e01b031960e086901b1681526001600160a01b0393841660048201529290911660248301526044820152606401600060405180830381600087803b15801561149e57600080fd5b505af11580156114b2573d6000803e3d6000fd5b5050600354604051630181a99d60e41b81526001600160a01b039091169250631e0dbc9f9150889087908790859063181a99d0906114f69086908690600401611b7e565b60206040518083038186803b15801561150e57600080fd5b505afa158015611522573d6000803e3d6000fd5b505050506040513d601f19601f820116820180604052508101906115469190611b65565b6115509190611bcd565b6040516001600160e01b031960e086901b1681526001600160a01b0393841660048201529290911660248301526044820152606401600060405180830381600087803b15801561159f57600080fd5b505af11580156115b3573d6000803e3d6000fd5b5050600354604051630181a99d60e41b8152611646935085925086916001600160a01b03169063181a99d0906115ef908c908c90600401611b7e565b60206040518083038186803b15801561160757600080fd5b505afa15801561161b573d6000803e3d6000fd5b505050506040513d601f19601f8201168201806040525081019061163f9190611b65565b6000611989565b600354604051630181a99d60e41b81526116d591839186916001600160a01b03169063181a99d09061167e908c908b90600401611b7e565b60206040518083038186803b15801561169657600080fd5b505afa1580156116aa573d6000803e3d6000fd5b505050506040513d601f19601f820116820180604052508101906116ce9190611b65565b6001611989565b505050505050565b600154600160a01b900460ff1661172d5760405162461bcd60e51b815260206004820152601460248201527314185d5cd8589b194e881b9bdd081c185d5cd95960621b6044820152606401610417565b6001805460ff60a01b191690557f5db9ee0a495bf2e6ff9c91a7834c1ba4fdd244a5e8aa4e537bd38aeae4b073aa335b6040516001600160a01b0390911681526020016107e1565b600354604051630e8aef6f60e41b81526001600160a01b0383811660048301529091169063e8aef6f09060240160206040518083038186803b1580156117ba57600080fd5b505afa1580156117ce573d6000803e3d6000fd5b505050506040513d601f19601f820116820180604052508101906117f29190611a60565b6001600160a01b0316336001600160a01b031614156106dd5760405162461bcd60e51b815260206004820152600b60248201526a29a2292fa727aa2fa6a12960a91b6044820152606401610417565b60035460405163acb1e61f60e01b81526001600160a01b0383811660048301529091169063acb1e61f9060240160206040518083038186803b15801561188657600080fd5b505afa15801561189a573d6000803e3d6000fd5b505050506040513d601f19601f820116820180604052508101906118be9190611b48565b6106dd5760405162461bcd60e51b815260206004820152601460248201527353594e5f4e4f545f5452414e5346455241424c4560601b6044820152606401610417565b600154600160a01b900460ff161561194e5760405162461bcd60e51b815260206004820152601060248201526f14185d5cd8589b194e881c185d5cd95960821b6044820152606401610417565b6001805460ff60a01b1916600160a01b1790557f62e78cea01bee320cd4e420270b5ea74000d11b0c9f74754ebdbfc544b05a25861175d3390565b80156119e5578161199a8486611bcd565b146119e05760405162461bcd60e51b81526020600482015260166024820152751093d3d2d2d15154125391d7d0511117d1905253115160521b6044820152606401610417565b611a36565b816119f08486611be5565b14611a365760405162461bcd60e51b81526020600482015260166024820152751093d3d2d2d15154125391d7d4d55097d1905253115160521b6044820152606401610417565b50505050565b600060208284031215611a4e57600080fd5b8135611a5981611c12565b9392505050565b600060208284031215611a7257600080fd5b8151611a5981611c12565b60008060008060808587031215611a9357600080fd5b8435611a9e81611c12565b93506020850135611aae81611c12565b92506040850135611abe81611c12565b9396929550929360600135925050565b600080600060608486031215611ae357600080fd5b8335611aee81611c12565b92506020840135611afe81611c12565b929592945050506040919091013590565b60008060408385031215611b2257600080fd5b8235611b2d81611c12565b91506020830135611b3d81611c27565b809150509250929050565b600060208284031215611b5a57600080fd5b8151611a5981611c27565b600060208284031215611b7757600080fd5b5051919050565b6001600160a01b0392831681529116602082015260400190565b6020808252818101527f4f776e61626c653a2063616c6c6572206973206e6f7420746865206f776e6572604082015260600190565b60008219821115611be057611be0611bfc565b500190565b600082821015611bf757611bf7611bfc565b500390565b634e487b7160e01b600052601160045260246000fd5b6001600160a01b03811681146106dd57600080fd5b80151581146106dd57600080fdfea2646970667358221220be4475a4e82fb25b20bb4bdcddc77c02774c30ff1a7bd9a0abfc8d71d74903b164736f6c63430008050033",
  "immutableReferences": {},
  "source": "// SPDX-License-Identifier: UNLICENSED\n\npragma solidity ^0.8.0;\n\nimport \"./SyndicateClosedEndFundLogic.sol\";\n\n/// @author Syndicate Inc.\n/// @notice Handle transferring member deposits between addresses\ncontract SyndicateClosedEndFundDepositTransferLogicV0 is\n    SyndicateClosedEndFundLogic\n{\n    // Storage------------------------------------------------------------------\n\n    /// @notice Used to initialize the Syndicate contract.\n    constructor(address storeAddress)\n        SyndicateClosedEndFundLogic(storeAddress)\n    {}\n\n    // Events-------------------------------------------------------------------\n\n    /// @notice Emit an event when a manager alters transferability\n    event managerSetterTransferable(\n        address indexed syndicateAddress,\n        bool transferable,\n        uint256 timestamp\n    );\n\n    /// @notice Emit an event when a manager transfers a deposit portion from\n    /// a member to another address.\n    /// @dev A different event is emitted for member-initiated transfers\n    event managerTransferredDeposit(\n        address indexed syndicateAddress,\n        address indexed memberAddress,\n        address indexed targetAddress,\n        uint256 amount,\n        uint256 timestamp\n    );\n\n    /// @notice Emit an event when a member transfers a deposit portion from\n    /// a member to another address.\n    /// @dev A different event is emitted for manager-initiated transfers\n    event memberTransferredDeposit(\n        address indexed syndicateAddress,\n        address indexed memberAddress,\n        address indexed targetAddress,\n        uint256 amount,\n        uint256 timestamp\n    );\n\n    // Functions----------------------------------------------------------------\n\n    /// @notice Used by a manager to change the transferability of a Syndicate.\n    /// @param syndicateAddress The address of the Syndicate\n    /// @param transferable The new value of transferability\n    function managerSetTransferable(address syndicateAddress, bool transferable)\n        public\n        onlyManager(syndicateAddress)\n        onlyModifiable(syndicateAddress)\n    {\n        store.setTransferable(syndicateAddress, transferable);\n\n        emit managerSetterTransferable(\n            syndicateAddress,\n            transferable,\n            block.timestamp\n        );\n    }\n\n    /// @notice Manager transfer portion of member's deposit to another address.\n    /// @param syndicateAddress Address of the Syndicate\n    /// @param memberAddress Address of member to transfer deposits **from**\n    /// @param targetAddress Address to transfer deposits **to**\n    /// @param amount Amount to transfer between member and target\n    function managerTransferDepositForMembers(\n        address syndicateAddress,\n        address memberAddress,\n        address targetAddress,\n        uint256 amount\n    )\n        public\n        onlyManager(syndicateAddress)\n        onlyBeforeDistributing(syndicateAddress)\n        onlyModifiable(syndicateAddress)\n    {\n        // if target is not on allowlist yet, add them before transferring\n        if (\n            store.allowlistEnabled(syndicateAddress) &&\n            !store.addressAllowed(syndicateAddress, targetAddress)\n        ) {\n            store.setAddressAllowed(syndicateAddress, targetAddress, true);\n        }\n\n        _transferDeposit(\n            syndicateAddress,\n            memberAddress,\n            targetAddress,\n            amount\n        );\n\n        emit managerTransferredDeposit(\n            syndicateAddress,\n            memberAddress,\n            targetAddress,\n            amount,\n            block.timestamp\n        );\n    }\n\n    /// @notice Member transfer portion of deposit to another address.\n    /// @param syndicateAddress Address of the Syndicate\n    /// @param targetAddress Address to transfer deposits to\n    /// @param amount Amount of deposit to transfer to targetAddress\n    function memberTransfer(\n        address syndicateAddress,\n        address targetAddress,\n        uint256 amount\n    )\n        public\n        onlyNotManager(syndicateAddress)\n        onlyTransferable(syndicateAddress)\n        onlyBeforeDistributing(syndicateAddress)\n    {\n        _transferDeposit(syndicateAddress, msg.sender, targetAddress, amount);\n\n        emit memberTransferredDeposit(\n            syndicateAddress,\n            msg.sender,\n            targetAddress,\n            amount,\n            block.timestamp\n        );\n    }\n\n    /// @notice Transfers deposits from one address to another.\n    /// @param syndicateAddress The address of the Syndicate\n    /// @param originAddress The address to transfer deposits **from**\n    /// @param targetAddress The address to transfer deposits **to**\n    /// @param amount Amount to transfer between origin and target\n    /// @notice Because this internal function can be called by both a member\n    /// and a manager, we leave the event emmission responsibility in their\n    /// respective public functions.\n    function _transferDeposit(\n        address syndicateAddress,\n        address originAddress,\n        address targetAddress,\n        uint256 amount\n    ) internal whenNotPaused() {\n        // prevent empty transfers\n        require(amount > 0, \"TFR<=0\");\n\n        // require target to be on allowlist (if enabled)\n        if (store.allowlistEnabled(syndicateAddress)) {\n            require(store.addressAllowed(syndicateAddress, targetAddress), \"MBR_NOT_ALLOWED\");\n        }\n\n        uint256 oldOriginDeposit = store.depositMember(\n            syndicateAddress,\n            originAddress\n        );\n\n        // prevent overdraft transfers\n        require(amount <= oldOriginDeposit, \"TFR>BAL\");\n\n        if (amount == oldOriginDeposit) {\n            // completely draining existing member address, removing them as a\n            // member of this Syndicate\n            store.setNumMembersCurrent(\n                syndicateAddress,\n                store.numMembersCurrent(syndicateAddress) - 1\n            );\n        } else {\n            // prevent remaining deposit below depositMinMember\n            require(\n                oldOriginDeposit - amount >=\n                    store.depositMinMember(syndicateAddress),\n                \"0<BAL<MIN_MBR_DEP\"\n            );\n        }\n\n        uint256 oldTargetDeposit = store.depositMember(\n            syndicateAddress,\n            targetAddress\n        );\n\n        if (oldTargetDeposit == 0) {\n            // target address was not previously a member, now adding them\n            // to this Syndicate\n            store.setNumMembersCurrent(\n                syndicateAddress,\n                store.numMembersCurrent(syndicateAddress) + 1\n            );\n\n            // prevent target address' deposit below depositMinMember\n            require(\n                oldTargetDeposit + amount >=\n                    store.depositMinMember(syndicateAddress),\n                \"0<BAL<MIN_MBR_DEP\"\n            );\n        } else {\n            // prevent target address' deposit above depositMaxMember\n            // only risk of violation if targetAddress has an existing deposit\n            require(\n                oldTargetDeposit + amount <=\n                    store.depositMaxMember(syndicateAddress),\n                \"BAL>MAX_MBR_DEP\"\n            );\n        }\n\n        // prevent member count from exceeding numMembersMax\n        // only risk of violation is if we partially transfer to a new address,\n        // therefore incrementing numMembersCurrent by 1 from previous value\n        require(\n            store.numMembersCurrent(syndicateAddress) <=\n                store.numMembersMax(syndicateAddress),\n            \"MAX_MBRS_REACHED\"\n        );\n\n        // decrease origin address deposit holdings\n        store.setDepositMember(\n            syndicateAddress,\n            originAddress,\n            store.depositMember(syndicateAddress, originAddress) - amount\n        );\n\n        // increase target address deposit holdings\n        store.setDepositMember(\n            syndicateAddress,\n            targetAddress,\n            store.depositMember(syndicateAddress, targetAddress) + amount\n        );\n\n        // check oldOriginDeposit - amount = originAddress's holdings\n        _checkBookkeeping(\n            oldOriginDeposit,\n            amount,\n            store.depositMember(syndicateAddress, originAddress),\n            false\n        );\n\n        // check oldTargetDeposit + amount = targetAddress's holdings\n        _checkBookkeeping(\n            oldTargetDeposit,\n            amount,\n            store.depositMember(syndicateAddress, targetAddress),\n            true\n        );\n    }\n}\n",
  "sourcePath": "/home/will/Syndicate/contracts/SyndicateClosedEndFundDepositTransferLogicV0.sol",
  "compiler": {
    "name": "solc",
    "version": "0.8.5+commit.a4f2e591.Emscripten.clang"
  },
  "schemaVersion": "3.4.0",
  "updatedAt": "2021-06-21T04:55:02.228Z",
  "devdoc": {
    "author": "Syndicate Inc.",
    "events": {
      "managerTransferredDeposit(address,address,address,uint256,uint256)": {
        "details": "A different event is emitted for member-initiated transfers"
      },
      "memberTransferredDeposit(address,address,address,uint256,uint256)": {
        "details": "A different event is emitted for manager-initiated transfers"
      }
    },
    "kind": "dev",
    "methods": {
      "managerSetTransferable(address,bool)": {
        "params": {
          "syndicateAddress": "The address of the Syndicate",
          "transferable": "The new value of transferability"
        }
      },
      "managerTransferDepositForMembers(address,address,address,uint256)": {
        "params": {
          "amount": "Amount to transfer between member and target",
          "memberAddress": "Address of member to transfer deposits **from**",
          "syndicateAddress": "Address of the Syndicate",
          "targetAddress": "Address to transfer deposits **to**"
        }
      },
      "memberTransfer(address,address,uint256)": {
        "params": {
          "amount": "Amount of deposit to transfer to targetAddress",
          "syndicateAddress": "Address of the Syndicate",
          "targetAddress": "Address to transfer deposits to"
        }
      },
      "owner()": {
        "details": "Returns the address of the current owner."
      },
      "ownerSetSyndicateFeeAddress(address)": {
        "params": {
          "feeAddress": "The owner's new contract fee address"
        }
      },
      "ownerTransferOwnership(address)": {
        "params": {
          "newOwner": "The new owner's address."
        }
      },
      "paused()": {
        "details": "Returns true if the contract is paused, and false otherwise."
      },
      "renounceOwnership()": {
        "details": "Leaves the contract without owner. It will not be possible to call `onlyOwner` functions anymore. Can only be called by the current owner. NOTE: Renouncing ownership will leave the contract without an owner, thereby removing any functionality that is only available to the owner."
      },
      "transferOwnership(address)": {
        "details": "Transfers ownership of the contract to a new account (`newOwner`). Can only be called by the current owner."
      }
    },
    "version": 1
  },
  "userdoc": {
    "events": {
      "managerClosedSyndicate(address,uint256)": {
        "notice": "Emit an event when a manager closes a Syndicate"
      },
      "managerSetterTransferable(address,bool,uint256)": {
        "notice": "Emit an event when a manager alters transferability"
      },
      "managerTransferredDeposit(address,address,address,uint256,uint256)": {
        "notice": "Emit an event when a manager transfers a deposit portion from a member to another address."
      },
      "memberTransferredDeposit(address,address,address,uint256,uint256)": {
        "notice": "Emit an event when a member transfers a deposit portion from a member to another address."
      },
      "ownerRenouncedPause(address)": {
        "notice": "Emit an event when the owner renounces ability to pause the contract"
      },
      "ownerSetterSyndicateFeeAddress(address,uint256)": {
        "notice": "Emit an event when the owner of the contract sets a new contract fee address"
      }
    },
    "kind": "user",
    "methods": {
      "constructor": {
        "notice": "Used to initialize the Syndicate contract."
      },
      "managerSetTransferable(address,bool)": {
        "notice": "Used by a manager to change the transferability of a Syndicate."
      },
      "managerTransferDepositForMembers(address,address,address,uint256)": {
        "notice": "Manager transfer portion of member's deposit to another address."
      },
      "memberTransfer(address,address,uint256)": {
        "notice": "Member transfer portion of deposit to another address."
      },
      "ownerPauseContract()": {
        "notice": "Emergency pause function that can only be triggered by the contract ownerIts purpose is to pause functions with the whenNotPaused() modifier.  All other functions will work when paused"
      },
      "ownerRenounceOwnership()": {
        "notice": "Renounce ownership of the contractIf necessary, unpauses the contract before ownership is renounced to ensure that functions with the whenNotPaused() modifier are not locked"
      },
      "ownerRenouncePause()": {
        "notice": "Used by the owner to renounce ability to pause the contractIf necessary, unpauses the contract before ownership is renounced to ensure that functions with the whenNotPaused() modifier are not locked"
      },
      "ownerSetSyndicateFeeAddress(address)": {
        "notice": "set a new fee address for the contract function that can only be triggered by the contract owner."
      },
      "ownerTransferOwnership(address)": {
        "notice": "Transfers ownership to the provided address."
      },
      "ownerUnpauseContract()": {
        "notice": "Emergency unpause function that can only be triggered by the contract ownerIts purpose is to unpause functions with the whenNotPaused() modifier.  All other functions will work when paused"
      }
    },
    "notice": "Handle transferring member deposits between addresses",
    "version": 1
  }
}