{
  "contractName": "SyndicateClosedEndFundGetterLogicV0",
  "abi": [
    {
      "inputs": [
        {
          "internalType": "address",
          "name": "owner",
          "type": "address"
        },
        {
          "internalType": "address",
          "name": "storeAddress",
          "type": "address"
        }
      ],
      "stateMutability": "nonpayable",
      "type": "constructor"
    },
    {
      "anonymous": false,
      "inputs": [
        {
          "indexed": true,
          "internalType": "address",
          "name": "previousOwner",
          "type": "address"
        },
        {
          "indexed": true,
          "internalType": "address",
          "name": "newOwner",
          "type": "address"
        }
      ],
      "name": "OwnershipTransferred",
      "type": "event"
    },
    {
      "anonymous": false,
      "inputs": [
        {
          "indexed": true,
          "internalType": "address",
          "name": "contractFeeAddress",
          "type": "address"
        }
      ],
      "name": "SyndicateFeeAddressUpdated",
      "type": "event"
    },
    {
      "inputs": [],
      "name": "BASIS_POINTS_DENOMINATOR",
      "outputs": [
        {
          "internalType": "uint256",
          "name": "",
          "type": "uint256"
        }
      ],
      "stateMutability": "view",
      "type": "function",
      "constant": true
    },
    {
      "inputs": [],
      "name": "getSyndicateFeeAddress",
      "outputs": [
        {
          "internalType": "address",
          "name": "",
          "type": "address"
        }
      ],
      "stateMutability": "view",
      "type": "function",
      "constant": true
    },
    {
      "inputs": [],
      "name": "owner",
      "outputs": [
        {
          "internalType": "address",
          "name": "",
          "type": "address"
        }
      ],
      "stateMutability": "view",
      "type": "function",
      "constant": true
    },
    {
      "inputs": [],
      "name": "ownerRenounceOwnership",
      "outputs": [],
      "stateMutability": "nonpayable",
      "type": "function"
    },
    {
      "inputs": [
        {
          "internalType": "address",
          "name": "feeAddress",
          "type": "address"
        }
      ],
      "name": "ownerSetSyndicateFeeAddress",
      "outputs": [],
      "stateMutability": "nonpayable",
      "type": "function"
    },
    {
      "inputs": [
        {
          "internalType": "address",
          "name": "newOwner",
          "type": "address"
        }
      ],
      "name": "ownerTransferOwnership",
      "outputs": [],
      "stateMutability": "nonpayable",
      "type": "function"
    },
    {
      "inputs": [],
      "name": "renounceOwnership",
      "outputs": [],
      "stateMutability": "nonpayable",
      "type": "function"
    },
    {
      "inputs": [
        {
          "internalType": "address",
          "name": "newOwner",
          "type": "address"
        }
      ],
      "name": "transferOwnership",
      "outputs": [],
      "stateMutability": "nonpayable",
      "type": "function"
    },
    {
      "inputs": [
        {
          "internalType": "address",
          "name": "syndicateAddress",
          "type": "address"
        }
      ],
      "name": "getSyndicateValues",
      "outputs": [
        {
          "components": [
            {
              "internalType": "address",
              "name": "managerCurrent",
              "type": "address"
            },
            {
              "internalType": "address",
              "name": "managerPending",
              "type": "address"
            },
            {
              "internalType": "address",
              "name": "managerFeeAddress",
              "type": "address"
            },
            {
              "internalType": "uint256",
              "name": "managerManagementFeeBasisPoints",
              "type": "uint256"
            },
            {
              "internalType": "uint256",
              "name": "managerDistributionShareBasisPoints",
              "type": "uint256"
            },
            {
              "internalType": "uint256",
              "name": "syndicateDistributionShareBasisPoints",
              "type": "uint256"
            },
            {
              "internalType": "uint256",
              "name": "numMembersMax",
              "type": "uint256"
            },
            {
              "internalType": "uint256",
              "name": "numMembersCurrent",
              "type": "uint256"
            },
            {
              "internalType": "address",
              "name": "depositERC20Address",
              "type": "address"
            },
            {
              "internalType": "uint256",
              "name": "depositMemberMin",
              "type": "uint256"
            },
            {
              "internalType": "uint256",
              "name": "depositMemberMax",
              "type": "uint256"
            },
            {
              "internalType": "uint256",
              "name": "depositTotalMax",
              "type": "uint256"
            },
            {
              "internalType": "uint256",
              "name": "depositTotal",
              "type": "uint256"
            },
            {
              "internalType": "uint256",
              "name": "dateCreated",
              "type": "uint256"
            },
            {
              "internalType": "uint256",
              "name": "dateClose",
              "type": "uint256"
            },
            {
              "internalType": "bool",
              "name": "open",
              "type": "bool"
            },
            {
              "internalType": "bool",
              "name": "distributing",
              "type": "bool"
            },
            {
              "internalType": "bool",
              "name": "modifiable",
              "type": "bool"
            },
            {
              "internalType": "bool",
              "name": "allowlistEnabled",
              "type": "bool"
            },
            {
              "internalType": "bool",
              "name": "transferable",
              "type": "bool"
            }
          ],
          "internalType": "struct ISyndicateClosedEndFundGetterLogicV0.SyndicateValues",
          "name": "",
          "type": "tuple"
        }
      ],
      "stateMutability": "view",
      "type": "function",
      "constant": true
    },
    {
      "inputs": [
        {
          "internalType": "address",
          "name": "syndicateAddress",
          "type": "address"
        },
        {
          "internalType": "address",
          "name": "memberAddress",
          "type": "address"
        }
      ],
      "name": "getMemberInfo",
      "outputs": [
        {
          "components": [
            {
              "internalType": "uint256",
              "name": "deposit",
              "type": "uint256"
            },
            {
              "internalType": "uint256",
              "name": "distributionClaimedDepositERC20",
              "type": "uint256"
            },
            {
              "internalType": "bool",
              "name": "isAllowlisted",
              "type": "bool"
            }
          ],
          "internalType": "struct ISyndicateClosedEndFundGetterLogicV0.MemberInfo",
          "name": "",
          "type": "tuple"
        }
      ],
      "stateMutability": "view",
      "type": "function",
      "constant": true
    },
    {
      "inputs": [
        {
          "internalType": "address",
          "name": "syndicateAddress",
          "type": "address"
        },
        {
          "internalType": "string",
          "name": "metadataKey",
          "type": "string"
        }
      ],
      "name": "getMetadata",
      "outputs": [
        {
          "internalType": "string",
          "name": "",
          "type": "string"
        }
      ],
      "stateMutability": "view",
      "type": "function",
      "constant": true
    }
  ],
  "bytecode": "0x6080604052600280546001600160a01b0319167340db79f7f18c468c6552538b488c58b5e72bf4d91790553480156200003757600080fd5b50604051620018ed380380620018ed8339810160408190526200005a91620001fa565b6001600081815581546001600160a01b03191633908117909255604051849284928492829190600080516020620018cd833981519152908290a350620000a081620000cb565b50600380546001600160a01b0319166001600160a01b03929092169190911790555062000232915050565b6001546001600160a01b031633146200012b5760405162461bcd60e51b815260206004820181905260248201527f4f776e61626c653a2063616c6c6572206973206e6f7420746865206f776e657260448201526064015b60405180910390fd5b6001600160a01b038116620001925760405162461bcd60e51b815260206004820152602660248201527f4f776e61626c653a206e6577206f776e657220697320746865207a65726f206160448201526564647265737360d01b606482015260840162000122565b6001546040516001600160a01b03808416921690600080516020620018cd83398151915290600090a3600180546001600160a01b0319166001600160a01b0392909216919091179055565b80516001600160a01b0381168114620001f557600080fd5b919050565b600080604083850312156200020e57600080fd5b6200021983620001dd565b91506200022960208401620001dd565b90509250929050565b61168b80620002426000396000f3fe608060405234801561001057600080fd5b50600436106100a95760003560e01c8063a09cca9311610071578063a09cca9314610141578063bfd9a7e114610154578063cad0a37314610167578063cfa498a314610178578063f064e8fa1461018f578063f2fde38b146101af57600080fd5b806336048d5f146100ae5780633b704018146100ea578063715018a61461010a57806381abf408146101145780638da5cb5b1461011c575b600080fd5b6100c16100bc36600461128b565b6101c2565b604080518251815260208084015190820152918101511515908201526060015b60405180910390f35b6100fd6100f836600461124a565b610426565b6040516100e191906114d9565b610112610f73565b005b610112610ff0565b6001546001600160a01b03165b6040516001600160a01b0390911681526020016100e1565b61011261014f36600461124a565b611024565b61011261016236600461124a565b61105a565b6002546001600160a01b0316610129565b61018161271081565b6040519081526020016100e1565b6101a261019d3660046112c4565b6110ce565b6040516100e19190611471565b6101126101bd36600461124a565b61115f565b6101e8604051806060016040528060008152602001600081526020016000151581525090565b604080516060810191829052600354630181a99d60e41b9092526001600160a01b0385811660648301528481166084830152909182911663181a99d060a4830160206040518083038186803b15801561024057600080fd5b505afa158015610254573d6000803e3d6000fd5b505050506040513d601f19601f820116820180604052508101906102789190611418565b8152600354604051631c79211f60e11b81526001600160a01b0387811660048301526020909301929091169063a948191b90879083906338f2423e9060240160206040518083038186803b1580156102cf57600080fd5b505afa1580156102e3573d6000803e3d6000fd5b505050506040513d601f19601f82011682018060405250810190610307919061126e565b6040516001600160e01b031960e085901b1681526001600160a01b0392831660048201529082166024820152908716604482015260640160206040518083038186803b15801561035657600080fd5b505afa15801561036a573d6000803e3d6000fd5b505050506040513d601f19601f8201168201806040525081019061038e9190611418565b815260035460405163d98c07b760e01b81526001600160a01b03878116600483015286811660248301526020909301929091169063d98c07b79060440160206040518083038186803b1580156103e357600080fd5b505afa1580156103f7573d6000803e3d6000fd5b505050506040513d601f19601f8201168201806040525081019061041b9190611349565b151590529392505050565b6104f060405180610280016040528060006001600160a01b0316815260200160006001600160a01b0316815260200160006001600160a01b03168152602001600081526020016000815260200160008152602001600081526020016000815260200160006001600160a01b031681526020016000815260200160008152602001600081526020016000815260200160008152602001600081526020016000151581526020016000151581526020016000151581526020016000151581526020016000151581525090565b60408051610280810191829052600354630e8aef6f60e41b9092526001600160a01b03848116610284830152909182911663e8aef6f06102a4830160206040518083038186803b15801561054357600080fd5b505afa158015610557573d6000803e3d6000fd5b505050506040513d601f19601f8201168201806040525081019061057b919061126e565b6001600160a01b039081168252600354604051630f93eb8960e21b81528683166004820152602090930192911690633e4fae249060240160206040518083038186803b1580156105ca57600080fd5b505afa1580156105de573d6000803e3d6000fd5b505050506040513d601f19601f82011682018060405250810190610602919061126e565b6001600160a01b039081168252600354604051630dc35bbb60e41b8152868316600482015260209093019291169063dc35bbb09060240160206040518083038186803b15801561065157600080fd5b505afa158015610665573d6000803e3d6000fd5b505050506040513d601f19601f82011682018060405250810190610689919061126e565b6001600160a01b0390811682526003546040516377d5adcb60e11b8152868316600482015260209093019291169063efab5b969060240160206040518083038186803b1580156106d857600080fd5b505afa1580156106ec573d6000803e3d6000fd5b505050506040513d601f19601f820116820180604052508101906107109190611418565b81526003546040516397cc677160e01b81526001600160a01b038681166004830152602090930192909116906397cc67719060240160206040518083038186803b15801561075d57600080fd5b505afa158015610771573d6000803e3d6000fd5b505050506040513d601f19601f820116820180604052508101906107959190611418565b815260035460405163deebf2eb60e01b81526001600160a01b0386811660048301526020909301929091169063deebf2eb9060240160206040518083038186803b1580156107e257600080fd5b505afa1580156107f6573d6000803e3d6000fd5b505050506040513d601f19601f8201168201806040525081019061081a9190611418565b8152600354604051631b1187f760e11b81526001600160a01b038681166004830152602090930192909116906336230fee9060240160206040518083038186803b15801561086757600080fd5b505afa15801561087b573d6000803e3d6000fd5b505050506040513d601f19601f8201168201806040525081019061089f9190611418565b815260035460405163e396ae9b60e01b81526001600160a01b0386811660048301526020909301929091169063e396ae9b9060240160206040518083038186803b1580156108ec57600080fd5b505afa158015610900573d6000803e3d6000fd5b505050506040513d601f19601f820116820180604052508101906109249190611418565b8152600354604051631c79211f60e11b81526001600160a01b038681166004830152602090930192909116906338f2423e9060240160206040518083038186803b15801561097157600080fd5b505afa158015610985573d6000803e3d6000fd5b505050506040513d601f19601f820116820180604052508101906109a9919061126e565b6001600160a01b039081168252600354604051631b7c9fad60e11b815286831660048201526020909301929116906336f93f5a9060240160206040518083038186803b1580156109f857600080fd5b505afa158015610a0c573d6000803e3d6000fd5b505050506040513d601f19601f82011682018060405250810190610a309190611418565b8152600354604051631acd19c760e01b81526001600160a01b03868116600483015260209093019290911690631acd19c79060240160206040518083038186803b158015610a7d57600080fd5b505afa158015610a91573d6000803e3d6000fd5b505050506040513d601f19601f82011682018060405250810190610ab59190611418565b815260035460405163b4cba69b60e01b81526001600160a01b0386811660048301526020909301929091169063b4cba69b9060240160206040518083038186803b158015610b0257600080fd5b505afa158015610b16573d6000803e3d6000fd5b505050506040513d601f19601f82011682018060405250810190610b3a9190611418565b81526003546040516335869d0960e11b81526001600160a01b03868116600483015260209093019290911690636b0d3a129060240160206040518083038186803b158015610b8757600080fd5b505afa158015610b9b573d6000803e3d6000fd5b505050506040513d601f19601f82011682018060405250810190610bbf9190611418565b815260035460405162e21c1f60e11b81526001600160a01b038681166004830152602090930192909116906301c4383e9060240160206040518083038186803b158015610c0b57600080fd5b505afa158015610c1f573d6000803e3d6000fd5b505050506040513d601f19601f82011682018060405250810190610c439190611418565b815260035460405163e32bf38d60e01b81526001600160a01b0386811660048301526020909301929091169063e32bf38d9060240160206040518083038186803b158015610c9057600080fd5b505afa158015610ca4573d6000803e3d6000fd5b505050506040513d601f19601f82011682018060405250810190610cc89190611418565b815260035460405163172a8c1f60e31b81526001600160a01b0386811660048301526020909301929091169063b95460f89060240160206040518083038186803b158015610d1557600080fd5b505afa158015610d29573d6000803e3d6000fd5b505050506040513d601f19601f82011682018060405250810190610d4d9190611349565b15158152600354604051630622493160e41b81526001600160a01b0386811660048301526020909301929091169063622493109060240160206040518083038186803b158015610d9c57600080fd5b505afa158015610db0573d6000803e3d6000fd5b505050506040513d601f19601f82011682018060405250810190610dd49190611349565b1515815260035460405163adc1017f60e01b81526001600160a01b0386811660048301526020909301929091169063adc1017f9060240160206040518083038186803b158015610e2357600080fd5b505afa158015610e37573d6000803e3d6000fd5b505050506040513d601f19601f82011682018060405250810190610e5b9190611349565b151581526003546040516331dcbbdb60e21b81526001600160a01b0386811660048301526020909301929091169063c772ef6c9060240160206040518083038186803b158015610eaa57600080fd5b505afa158015610ebe573d6000803e3d6000fd5b505050506040513d601f19601f82011682018060405250810190610ee29190611349565b1515815260035460405163acb1e61f60e01b81526001600160a01b0386811660048301526020909301929091169063acb1e61f9060240160206040518083038186803b158015610f3157600080fd5b505afa158015610f45573d6000803e3d6000fd5b505050506040513d601f19601f82011682018060405250810190610f699190611349565b1515905292915050565b6001546001600160a01b03163314610fa65760405162461bcd60e51b8152600401610f9d906114a4565b60405180910390fd5b6001546040516000916001600160a01b0316907f8be0079c531659141344cd1fd0a4f28419497f9722a3daafe3b4186f6b6457e0908390a3600180546001600160a01b0319169055565b6001546001600160a01b0316331461101a5760405162461bcd60e51b8152600401610f9d906114a4565b611022610f73565b565b6001546001600160a01b0316331461104e5760405162461bcd60e51b8152600401610f9d906114a4565b6110578161115f565b50565b6001546001600160a01b031633146110845760405162461bcd60e51b8152600401610f9d906114a4565b600280546001600160a01b0319166001600160a01b0383169081179091556040517fcf41d0875fade187fa408cd5e4f56e25cda2fae1cff91d42f08c1db396349a2d90600090a250565b60035460405163087280b760e21b81526060916001600160a01b0316906321ca02dc9061110390879087908790600401611431565b60006040518083038186803b15801561111b57600080fd5b505afa15801561112f573d6000803e3d6000fd5b505050506040513d6000823e601f3d908101601f19168201604052611157919081019061136b565b949350505050565b6001546001600160a01b031633146111895760405162461bcd60e51b8152600401610f9d906114a4565b6001600160a01b0381166111ee5760405162461bcd60e51b815260206004820152602660248201527f4f776e61626c653a206e6577206f776e657220697320746865207a65726f206160448201526564647265737360d01b6064820152608401610f9d565b6001546040516001600160a01b038084169216907f8be0079c531659141344cd1fd0a4f28419497f9722a3daafe3b4186f6b6457e090600090a3600180546001600160a01b0319166001600160a01b0392909216919091179055565b60006020828403121561125c57600080fd5b813561126781611640565b9392505050565b60006020828403121561128057600080fd5b815161126781611640565b6000806040838503121561129e57600080fd5b82356112a981611640565b915060208301356112b981611640565b809150509250929050565b6000806000604084860312156112d957600080fd5b83356112e481611640565b9250602084013567ffffffffffffffff8082111561130157600080fd5b818601915086601f83011261131557600080fd5b81358181111561132457600080fd5b87602082850101111561133657600080fd5b6020830194508093505050509250925092565b60006020828403121561135b57600080fd5b8151801515811461126757600080fd5b60006020828403121561137d57600080fd5b815167ffffffffffffffff8082111561139557600080fd5b818401915084601f8301126113a957600080fd5b8151818111156113bb576113bb61162a565b604051601f8201601f19908116603f011681019083821181831017156113e3576113e361162a565b816040528281528760208487010111156113fc57600080fd5b61140d8360208301602088016115fa565b979650505050505050565b60006020828403121561142a57600080fd5b5051919050565b6001600160a01b03841681526040602082018190528101829052818360608301376000818301606090810191909152601f909201601f1916010192915050565b60208152600082518060208401526114908160408501602087016115fa565b601f01601f19169190910160400192915050565b6020808252818101527f4f776e61626c653a2063616c6c6572206973206e6f7420746865206f776e6572604082015260600190565b81516001600160a01b031681526102808101602083015161150560208401826001600160a01b03169052565b50604083015161152060408401826001600160a01b03169052565b50606083015160608301526080830151608083015260a083015160a083015260c083015160c083015260e083015160e08301526101008084015161156e828501826001600160a01b03169052565b505061012083810151908301526101408084015190830152610160808401519083015261018080840151908301526101a080840151908301526101c080840151908301526101e080840151151590830152610200808401511515908301526102208084015115159083015261024080840151151590830152610260928301511515929091019190915290565b60005b838110156116155781810151838201526020016115fd565b83811115611624576000848401525b50505050565b634e487b7160e01b600052604160045260246000fd5b6001600160a01b038116811461105757600080fdfea26469706673582212207a8945f27e5b22e519b9133a03dd5cc14b5796b36634f3066873d9de168c82f864736f6c634300080600338be0079c531659141344cd1fd0a4f28419497f9722a3daafe3b4186f6b6457e0",
  "immutableReferences": {},
  "source": "// SPDX-License-Identifier: UNLICENSED\n\npragma solidity ^0.8.0;\n\nimport \"./SyndicateClosedEndFundLogic.sol\";\nimport \"./interfaces/ISyndicateClosedEndFundGetterLogicV0.sol\";\n\n/// @author Syndicate Inc.\n/// @notice General public override controls and getters\ncontract SyndicateClosedEndFundGetterLogicV0 is\n    ISyndicateClosedEndFundGetterLogicV0,\n    SyndicateClosedEndFundLogic\n{\n    /// @notice Used to initialize the Syndicate contract.\n    constructor(address owner, address storeAddress)\n        SyndicateClosedEndFundLogic(owner, storeAddress)\n    {}\n\n    // Functions----------------------------------------------------------------\n\n    /// @notice Get the values for a Syndicate\n    /// @param syndicateAddress The address of the Syndicate\n    /// @return SyndicateValues struct\n    /// @dev This function **must** be kept up to date with the web3 UI when\n    /// making changes. All PRs that change this function or the\n    /// SyndicateValues struct **must** be coordinated with an engineer on the\n    /// Web3 Dashboard.\n    function getSyndicateValues(address syndicateAddress)\n        public\n        view\n        override\n        returns (SyndicateValues memory)\n    {\n        return\n            SyndicateValues({\n                managerCurrent: store.managerCurrent(syndicateAddress),\n                managerPending: store.managerPending(syndicateAddress),\n                managerFeeAddress: store.managerFeeAddress(syndicateAddress),\n                managerManagementFeeBasisPoints: store\n                    .managerManagementFeeBasisPoints(syndicateAddress),\n                managerDistributionShareBasisPoints: store\n                    .managerDistributionShareBasisPoints(syndicateAddress),\n                syndicateDistributionShareBasisPoints: store\n                    .syndicateDistributionShareBasisPoints(syndicateAddress),\n                numMembersMax: store.numMembersMax(syndicateAddress),\n                numMembersCurrent: store.numMembersCurrent(syndicateAddress),\n                depositERC20Address: store.depositERC20Address(\n                    syndicateAddress\n                ),\n                depositMemberMin: store.depositMemberMin(syndicateAddress),\n                depositMemberMax: store.depositMemberMax(syndicateAddress),\n                depositTotalMax: store.depositTotalMax(syndicateAddress),\n                depositTotal: store.depositTotal(syndicateAddress),\n                dateCreated: store.dateCreated(syndicateAddress),\n                dateClose: store.dateClose(syndicateAddress),\n                open: store.open(syndicateAddress),\n                distributing: store.distributing(syndicateAddress),\n                modifiable: store.modifiable(syndicateAddress),\n                allowlistEnabled: store.allowlistEnabled(syndicateAddress),\n                transferable: store.transferable(syndicateAddress)\n            });\n    }\n\n    /// @notice Get the member info for a Syndicate\n    /// @param syndicateAddress The address of the Syndicate\n    /// @param memberAddress The address of the member whose info is being\n    /// queried\n    /// @return MemberInfo struct\n    /// @notice To get the claimed distributions for another ERC20, use\n    /// `getDistributionClaimedMember()`\n    /// @dev This function **must** be kept up to date with the Web3 UI when\n    /// making changes. All PRs that change this function **must** be\n    /// coordinated with an engineer on the Web3 Dashboard.\n    function getMemberInfo(address syndicateAddress, address memberAddress)\n        public\n        view\n        override\n        returns (MemberInfo memory)\n    {\n        return\n            MemberInfo({\n                deposit: store.depositMember(syndicateAddress, memberAddress),\n                distributionClaimedDepositERC20: store\n                    .distributionClaimedMember(\n                    syndicateAddress,\n                    store.depositERC20Address(syndicateAddress),\n                    memberAddress\n                ),\n                isAllowlisted: store.allowlist(syndicateAddress, memberAddress)\n            });\n    }\n\n    /// @notice Get the metadata for a given key within a Syndicate\n    /// @param syndicateAddress The address of the Syndicate\n    /// @param metadataKey The string that is the key of the metadata to look up\n    /// @return metadataValue as a string\n    function getMetadata(address syndicateAddress, string calldata metadataKey)\n        public\n        view\n        override\n        returns (string memory)\n    {\n        return store.metadata(syndicateAddress, metadataKey);\n    }\n}\n",
  "sourcePath": "/Users/connerswenberg/Code/syndicate/Syndicate/contracts/SyndicateClosedEndFundGetterLogicV0.sol",
  "compiler": {
    "name": "solc",
    "version": "0.8.6+commit.11564f7e.Emscripten.clang"
  },
  "schemaVersion": "3.4.1",
  "updatedAt": "2021-07-14T19:00:12.101Z",
  "networkType": "ethereum",
  "devdoc": {
    "author": "Syndicate Inc.",
    "kind": "dev",
    "methods": {
      "getMemberInfo(address,address)": {
        "details": "This function **must** be kept up to date with the Web3 UI when making changes. All PRs that change this function **must** be coordinated with an engineer on the Web3 Dashboard.",
        "params": {
          "memberAddress": "The address of the member whose info is being queried",
          "syndicateAddress": "The address of the Syndicate"
        },
        "returns": {
          "_0": "MemberInfo struct"
        }
      },
      "getMetadata(address,string)": {
        "params": {
          "metadataKey": "The string that is the key of the metadata to look up",
          "syndicateAddress": "The address of the Syndicate"
        },
        "returns": {
          "_0": "metadataValue as a string"
        }
      },
      "getSyndicateFeeAddress()": {
        "details": "This function is needed to allow inheriting contracts to only be able to view but not change syndicateFeeAddress without going through ownerSetSyndicateFeeAddress"
      },
      "getSyndicateValues(address)": {
        "details": "This function **must** be kept up to date with the web3 UI when making changes. All PRs that change this function or the SyndicateValues struct **must** be coordinated with an engineer on the Web3 Dashboard.",
        "params": {
          "syndicateAddress": "The address of the Syndicate"
        },
        "returns": {
          "_0": "SyndicateValues struct"
        }
      },
      "owner()": {
        "details": "Returns the address of the current owner."
      },
      "ownerSetSyndicateFeeAddress(address)": {
        "params": {
          "feeAddress": "The owner's new contract fee address"
        }
      },
      "ownerTransferOwnership(address)": {
        "params": {
          "newOwner": "The new owner's address."
        }
      },
      "renounceOwnership()": {
        "details": "Leaves the contract without owner. It will not be possible to call `onlyOwner` functions anymore. Can only be called by the current owner. NOTE: Renouncing ownership will leave the contract without an owner, thereby removing any functionality that is only available to the owner."
      },
      "transferOwnership(address)": {
        "details": "Transfers ownership of the contract to a new account (`newOwner`). Can only be called by the current owner."
      }
    },
    "version": 1
  },
  "userdoc": {
    "events": {
      "SyndicateFeeAddressUpdated(address)": {
        "notice": "The owner updates the contract fee address."
      }
    },
    "kind": "user",
    "methods": {
      "constructor": {
        "notice": "Used to initialize the Syndicate contract."
      },
      "getMemberInfo(address,address)": {
        "notice": "Get the member info for a SyndicateTo get the claimed distributions for another ERC20, use `getDistributionClaimedMember()`"
      },
      "getMetadata(address,string)": {
        "notice": "Get the metadata for a given key within a Syndicate"
      },
      "getSyndicateFeeAddress()": {
        "notice": "getter function for syndicate fee address."
      },
      "getSyndicateValues(address)": {
        "notice": "Get the values for a Syndicate"
      },
      "ownerRenounceOwnership()": {
        "notice": "Renounce ownership of the contract"
      },
      "ownerSetSyndicateFeeAddress(address)": {
        "notice": "set a new fee address for the contract function that can only be triggered by the contract owner."
      },
      "ownerTransferOwnership(address)": {
        "notice": "Transfers ownership to the provided address."
      }
    },
    "notice": "General public override controls and getters",
    "version": 1
  }
}