{
  "contractName": "SyndicateClosedEndFundDepositTransferLogicV0",
  "abi": [
    {
      "inputs": [
        {
          "internalType": "address",
          "name": "owner",
          "type": "address"
        },
        {
          "internalType": "address",
          "name": "storeAddress",
          "type": "address"
        }
      ],
      "stateMutability": "nonpayable",
      "type": "constructor"
    },
    {
      "anonymous": false,
      "inputs": [
        {
          "indexed": true,
          "internalType": "address",
          "name": "syndicateAddress",
          "type": "address"
        },
        {
          "indexed": true,
          "internalType": "address",
          "name": "memberAddress",
          "type": "address"
        },
        {
          "indexed": true,
          "internalType": "address",
          "name": "targetAddress",
          "type": "address"
        },
        {
          "indexed": false,
          "internalType": "uint256",
          "name": "amount",
          "type": "uint256"
        },
        {
          "indexed": false,
          "internalType": "string",
          "name": "actor",
          "type": "string"
        }
      ],
      "name": "DepositTransferred",
      "type": "event"
    },
    {
      "anonymous": false,
      "inputs": [
        {
          "indexed": true,
          "internalType": "address",
          "name": "previousOwner",
          "type": "address"
        },
        {
          "indexed": true,
          "internalType": "address",
          "name": "newOwner",
          "type": "address"
        }
      ],
      "name": "OwnershipTransferred",
      "type": "event"
    },
    {
      "anonymous": false,
      "inputs": [
        {
          "indexed": true,
          "internalType": "address",
          "name": "contractFeeAddress",
          "type": "address"
        }
      ],
      "name": "SyndicateFeeAddressUpdated",
      "type": "event"
    },
    {
      "anonymous": false,
      "inputs": [
        {
          "indexed": true,
          "internalType": "address",
          "name": "syndicateAddress",
          "type": "address"
        },
        {
          "indexed": false,
          "internalType": "bool",
          "name": "transferable",
          "type": "bool"
        }
      ],
      "name": "TransferableUpdated",
      "type": "event"
    },
    {
      "inputs": [],
      "name": "BASIS_POINTS_DENOMINATOR",
      "outputs": [
        {
          "internalType": "uint256",
          "name": "",
          "type": "uint256"
        }
      ],
      "stateMutability": "view",
      "type": "function",
      "constant": true
    },
    {
      "inputs": [],
      "name": "getSyndicateFeeAddress",
      "outputs": [
        {
          "internalType": "address",
          "name": "",
          "type": "address"
        }
      ],
      "stateMutability": "view",
      "type": "function",
      "constant": true
    },
    {
      "inputs": [],
      "name": "owner",
      "outputs": [
        {
          "internalType": "address",
          "name": "",
          "type": "address"
        }
      ],
      "stateMutability": "view",
      "type": "function",
      "constant": true
    },
    {
      "inputs": [],
      "name": "ownerRenounceOwnership",
      "outputs": [],
      "stateMutability": "nonpayable",
      "type": "function"
    },
    {
      "inputs": [
        {
          "internalType": "address",
          "name": "feeAddress",
          "type": "address"
        }
      ],
      "name": "ownerSetSyndicateFeeAddress",
      "outputs": [],
      "stateMutability": "nonpayable",
      "type": "function"
    },
    {
      "inputs": [
        {
          "internalType": "address",
          "name": "newOwner",
          "type": "address"
        }
      ],
      "name": "ownerTransferOwnership",
      "outputs": [],
      "stateMutability": "nonpayable",
      "type": "function"
    },
    {
      "inputs": [],
      "name": "renounceOwnership",
      "outputs": [],
      "stateMutability": "nonpayable",
      "type": "function"
    },
    {
      "inputs": [
        {
          "internalType": "address",
          "name": "newOwner",
          "type": "address"
        }
      ],
      "name": "transferOwnership",
      "outputs": [],
      "stateMutability": "nonpayable",
      "type": "function"
    },
    {
      "inputs": [
        {
          "internalType": "address",
          "name": "syndicateAddress",
          "type": "address"
        },
        {
          "internalType": "bool",
          "name": "transferable",
          "type": "bool"
        }
      ],
      "name": "managerSetTransferable",
      "outputs": [],
      "stateMutability": "nonpayable",
      "type": "function"
    },
    {
      "inputs": [
        {
          "internalType": "address",
          "name": "syndicateAddress",
          "type": "address"
        },
        {
          "internalType": "address",
          "name": "memberAddress",
          "type": "address"
        },
        {
          "internalType": "address",
          "name": "targetAddress",
          "type": "address"
        },
        {
          "internalType": "uint256",
          "name": "amount",
          "type": "uint256"
        }
      ],
      "name": "managerTransferDepositForMembers",
      "outputs": [],
      "stateMutability": "nonpayable",
      "type": "function"
    },
    {
      "inputs": [
        {
          "internalType": "address",
          "name": "syndicateAddress",
          "type": "address"
        },
        {
          "internalType": "address",
          "name": "targetAddress",
          "type": "address"
        },
        {
          "internalType": "uint256",
          "name": "amount",
          "type": "uint256"
        }
      ],
      "name": "memberTransfer",
      "outputs": [],
      "stateMutability": "nonpayable",
      "type": "function"
    }
  ],
  "bytecode": "0x6080604052600280546001600160a01b0319167340db79f7f18c468c6552538b488c58b5e72bf4d91790553480156200003757600080fd5b5060405162001df438038062001df48339810160408190526200005a91620001fa565b6001600081815581546001600160a01b0319163390811790925560405184928492849282919060008051602062001dd4833981519152908290a350620000a081620000cb565b50600380546001600160a01b0319166001600160a01b03929092169190911790555062000232915050565b6001546001600160a01b031633146200012b5760405162461bcd60e51b815260206004820181905260248201527f4f776e61626c653a2063616c6c6572206973206e6f7420746865206f776e657260448201526064015b60405180910390fd5b6001600160a01b038116620001925760405162461bcd60e51b815260206004820152602660248201527f4f776e61626c653a206e6577206f776e657220697320746865207a65726f206160448201526564647265737360d01b606482015260840162000122565b6001546040516001600160a01b0380841692169060008051602062001dd483398151915290600090a3600180546001600160a01b0319166001600160a01b0392909216919091179055565b80516001600160a01b0381168114620001f557600080fd5b919050565b600080604083850312156200020e57600080fd5b6200021983620001dd565b91506200022960208401620001dd565b90509250929050565b611b9280620002426000396000f3fe608060405234801561001057600080fd5b50600436106100a95760003560e01c80638e360151116100715780638e36015114610110578063a09cca9314610123578063bfd9a7e114610136578063cad0a37314610149578063cfa498a31461015a578063f2fde38b1461017157600080fd5b80630b8ea86d146100ae57806352b66ab7146100c3578063715018a6146100d657806381abf408146100de5780638da5cb5b146100e6575b600080fd5b6100c16100bc366004611947565b610184565b005b6100c16100d1366004611998565b61032a565b6100c1610353565b6100c16103d0565b6001546001600160a01b03165b6040516001600160a01b0390911681526020015b60405180910390f35b6100c161011e3660046119d9565b610404565b6100c1610131366004611906565b6104ca565b6100c1610144366004611906565b610500565b6002546001600160a01b03166100f3565b61016361271081565b604051908152602001610107565b6100c161017f366004611906565b610574565b8361018e8161065f565b846101988161072a565b6003546040516331dcbbdb60e21b81526001600160a01b0388811660048301529091169063c772ef6c9060240160206040518083038186803b1580156101dd57600080fd5b505afa1580156101f1573d6000803e3d6000fd5b505050506040513d601f19601f820116820180604052508101906102159190611a12565b80156102a0575060035460405163d98c07b760e01b81526001600160a01b039091169063d98c07b79061024e9089908890600401611a48565b60206040518083038186803b15801561026657600080fd5b505afa15801561027a573d6000803e3d6000fd5b505050506040513d601f19601f8201168201806040525081019061029e9190611a12565b155b156103145760035460405163010d813560e01b81526001600160a01b0388811660048301528681166024830152600160448301529091169063010d813590606401600060405180830381600087803b1580156102fb57600080fd5b505af115801561030f573d6000803e3d6000fd5b505050505b6103228686868660016107e8565b505050505050565b8261033481611575565b8361033e81611641565b61034c8533868660006107e8565b5050505050565b6001546001600160a01b031633146103865760405162461bcd60e51b815260040161037d90611a62565b60405180910390fd5b6001546040516000916001600160a01b0316907f8be0079c531659141344cd1fd0a4f28419497f9722a3daafe3b4186f6b6457e0908390a3600180546001600160a01b0319169055565b6001546001600160a01b031633146103fa5760405162461bcd60e51b815260040161037d90611a62565b610402610353565b565b8161040e8161065f565b8261041881611701565b600354604051630574647160e11b81526001600160a01b038681166004830152851515602483015290911690630ae8c8e290604401600060405180830381600087803b15801561046757600080fd5b505af115801561047b573d6000803e3d6000fd5b50505050836001600160a01b03167f316cce2027873e4cec5d0aa9a00aa1a7608d4c90868b69926dc0730b209cd5a0846040516104bc911515815260200190565b60405180910390a250505050565b6001546001600160a01b031633146104f45760405162461bcd60e51b815260040161037d90611a62565b6104fd81610574565b50565b6001546001600160a01b0316331461052a5760405162461bcd60e51b815260040161037d90611a62565b600280546001600160a01b0319166001600160a01b0383169081179091556040517fcf41d0875fade187fa408cd5e4f56e25cda2fae1cff91d42f08c1db396349a2d90600090a250565b6001546001600160a01b0316331461059e5760405162461bcd60e51b815260040161037d90611a62565b6001600160a01b0381166106035760405162461bcd60e51b815260206004820152602660248201527f4f776e61626c653a206e6577206f776e657220697320746865207a65726f206160448201526564647265737360d01b606482015260840161037d565b6001546040516001600160a01b038084169216907f8be0079c531659141344cd1fd0a4f28419497f9722a3daafe3b4186f6b6457e090600090a3600180546001600160a01b0319166001600160a01b0392909216919091179055565b600354604051630e8aef6f60e41b81526001600160a01b0383811660048301529091169063e8aef6f09060240160206040518083038186803b1580156106a457600080fd5b505afa1580156106b8573d6000803e3d6000fd5b505050506040513d601f19601f820116820180604052508101906106dc919061192a565b6001600160a01b0316336001600160a01b0316146104fd5760405162461bcd60e51b815260206004820152600b60248201526a29a2292fa727aa2fa6a3a960a91b604482015260640161037d565b60035460405163adc1017f60e01b81526001600160a01b0383811660048301529091169063adc1017f9060240160206040518083038186803b15801561076f57600080fd5b505afa158015610783573d6000803e3d6000fd5b505050506040513d601f19601f820116820180604052508101906107a79190611a12565b6104fd5760405162461bcd60e51b815260206004820152601260248201527153594e5f4e4f545f4d4f4449464941424c4560701b604482015260640161037d565b846107f281611701565b85846107fe82826117be565b600085116108375760405162461bcd60e51b815260206004820152600660248201526505446523c3d360d41b604482015260640161037d565b600354604051630181a99d60e41b81526001600160a01b039091169063181a99d090610869908b908b90600401611a48565b60206040518083038186803b15801561088157600080fd5b505afa158015610895573d6000803e3d6000fd5b505050506040513d601f19601f820116820180604052508101906108b99190611a2f565b8511156108f25760405162461bcd60e51b81526020600482015260076024820152661511948f90905360ca1b604482015260640161037d565b600354604051630181a99d60e41b815286916001600160a01b03169063181a99d090610924908c908c90600401611a48565b60206040518083038186803b15801561093c57600080fd5b505afa158015610950573d6000803e3d6000fd5b505050506040513d601f19601f820116820180604052508101906109749190611a2f565b61097e9190611b0c565b1580610a915750600354604051631b7c9fad60e11b81526001600160a01b038a81166004830152909116906336f93f5a9060240160206040518083038186803b1580156109ca57600080fd5b505afa1580156109de573d6000803e3d6000fd5b505050506040513d601f19601f82011682018060405250810190610a029190611a2f565b600354604051630181a99d60e41b815287916001600160a01b03169063181a99d090610a34908d908d90600401611a48565b60206040518083038186803b158015610a4c57600080fd5b505afa158015610a60573d6000803e3d6000fd5b505050506040513d601f19601f82011682018060405250810190610a849190611a2f565b610a8e9190611b0c565b10155b610ad15760405162461bcd60e51b81526020600482015260116024820152700303c42414c3c4d494e5f4d42525f44455607c1b604482015260640161037d565b600354604051631b7c9fad60e11b81526001600160a01b038a81166004830152909116906336f93f5a9060240160206040518083038186803b158015610b1657600080fd5b505afa158015610b2a573d6000803e3d6000fd5b505050506040513d601f19601f82011682018060405250810190610b4e9190611a2f565b600354604051630181a99d60e41b815287916001600160a01b03169063181a99d090610b80908d908c90600401611a48565b60206040518083038186803b158015610b9857600080fd5b505afa158015610bac573d6000803e3d6000fd5b505050506040513d601f19601f82011682018060405250810190610bd09190611a2f565b610bda9190611af4565b1015610c1c5760405162461bcd60e51b81526020600482015260116024820152700303c42414c3c4d494e5f4d42525f44455607c1b604482015260640161037d565b600354604051631acd19c760e01b81526001600160a01b038a8116600483015290911690631acd19c79060240160206040518083038186803b158015610c6157600080fd5b505afa158015610c75573d6000803e3d6000fd5b505050506040513d601f19601f82011682018060405250810190610c999190611a2f565b600354604051630181a99d60e41b815287916001600160a01b03169063181a99d090610ccb908d908c90600401611a48565b60206040518083038186803b158015610ce357600080fd5b505afa158015610cf7573d6000803e3d6000fd5b505050506040513d601f19601f82011682018060405250810190610d1b9190611a2f565b610d259190611af4565b1115610d655760405162461bcd60e51b815260206004820152600f60248201526e042414c3e4d41585f4d42525f44455608c1b604482015260640161037d565b600354604051630181a99d60e41b81526001600160a01b039091169063181a99d090610d97908b908a90600401611a48565b60206040518083038186803b158015610daf57600080fd5b505afa158015610dc3573d6000803e3d6000fd5b505050506040513d601f19601f82011682018060405250810190610de79190611a2f565b158015610e7e5750600354604051630181a99d60e41b815286916001600160a01b03169063181a99d090610e21908c908c90600401611a48565b60206040518083038186803b158015610e3957600080fd5b505afa158015610e4d573d6000803e3d6000fd5b505050506040513d601f19601f82011682018060405250810190610e719190611a2f565b610e7b9190611b0c565b15155b156110b257600354604051631b1187f760e11b81526001600160a01b038a81166004830152909116906336230fee9060240160206040518083038186803b158015610ec857600080fd5b505afa158015610edc573d6000803e3d6000fd5b505050506040513d601f19601f82011682018060405250810190610f009190611a2f565b60035460405163e396ae9b60e01b81526001600160a01b038b811660048301529091169063e396ae9b9060240160206040518083038186803b158015610f4557600080fd5b505afa158015610f59573d6000803e3d6000fd5b505050506040513d601f19601f82011682018060405250810190610f7d9190611a2f565b10610fbd5760405162461bcd60e51b815260206004820152601060248201526f13505617d3509494d7d4915050d2115160821b604482015260640161037d565b60035460405163e396ae9b60e01b81526001600160a01b038a81166004830152909116906303d457c4908a90839063e396ae9b9060240160206040518083038186803b15801561100c57600080fd5b505afa158015611020573d6000803e3d6000fd5b505050506040513d601f19601f820116820180604052508101906110449190611a2f565b61104f906001611af4565b6040516001600160e01b031960e085901b1681526001600160a01b0390921660048301526024820152604401600060405180830381600087803b15801561109557600080fd5b505af11580156110a9573d6000803e3d6000fd5b505050506112c3565b600354604051630181a99d60e41b81526001600160a01b039091169063181a99d0906110e4908b908a90600401611a48565b60206040518083038186803b1580156110fc57600080fd5b505afa158015611110573d6000803e3d6000fd5b505050506040513d601f19601f820116820180604052508101906111349190611a2f565b158015906111cb5750600354604051630181a99d60e41b815286916001600160a01b03169063181a99d09061116f908c908c90600401611a48565b60206040518083038186803b15801561118757600080fd5b505afa15801561119b573d6000803e3d6000fd5b505050506040513d601f19601f820116820180604052508101906111bf9190611a2f565b6111c99190611b0c565b155b156112c35760035460405163e396ae9b60e01b81526001600160a01b038a81166004830152909116906303d457c4908a90600190849063e396ae9b9060240160206040518083038186803b15801561122257600080fd5b505afa158015611236573d6000803e3d6000fd5b505050506040513d601f19601f8201168201806040525081019061125a9190611a2f565b6112649190611b0c565b6040516001600160e01b031960e085901b1681526001600160a01b0390921660048301526024820152604401600060405180830381600087803b1580156112aa57600080fd5b505af11580156112be573d6000803e3d6000fd5b505050505b600354604051630181a99d60e41b81526001600160a01b0390911690631e0dbc9f908a908a908990859063181a99d0906113039086908690600401611a48565b60206040518083038186803b15801561131b57600080fd5b505afa15801561132f573d6000803e3d6000fd5b505050506040513d601f19601f820116820180604052508101906113539190611a2f565b61135d9190611b0c565b6040516001600160e01b031960e086901b1681526001600160a01b0393841660048201529290911660248301526044820152606401600060405180830381600087803b1580156113ac57600080fd5b505af11580156113c0573d6000803e3d6000fd5b5050600354604051630181a99d60e41b81526001600160a01b039091169250631e0dbc9f91508a9089908990859063181a99d0906114049086908690600401611a48565b60206040518083038186803b15801561141c57600080fd5b505afa158015611430573d6000803e3d6000fd5b505050506040513d601f19601f820116820180604052508101906114549190611a2f565b61145e9190611af4565b6040516001600160e01b031960e086901b1681526001600160a01b0393841660048201529290911660248301526044820152606401600060405180830381600087803b1580156114ad57600080fd5b505af11580156114c1573d6000803e3d6000fd5b505050506000846114f0576040518060400160405280600681526020016536b2b6b132b960d11b815250611511565b6040518060400160405280600781526020016636b0b730b3b2b960c91b8152505b9050866001600160a01b0316886001600160a01b03168a6001600160a01b03167fe2d831dfe4c825a0729f1169ae22e5b508bec900c1fdfc0220849b9c720c27cd8985604051611562929190611a97565b60405180910390a4505050505050505050565b600354604051630e8aef6f60e41b81526001600160a01b0383811660048301529091169063e8aef6f09060240160206040518083038186803b1580156115ba57600080fd5b505afa1580156115ce573d6000803e3d6000fd5b505050506040513d601f19601f820116820180604052508101906115f2919061192a565b6001600160a01b0316336001600160a01b031614156104fd5760405162461bcd60e51b815260206004820152600b60248201526a29a2292fa727aa2fa6a12960a91b604482015260640161037d565b60035460405163acb1e61f60e01b81526001600160a01b0383811660048301529091169063acb1e61f9060240160206040518083038186803b15801561168657600080fd5b505afa15801561169a573d6000803e3d6000fd5b505050506040513d601f19601f820116820180604052508101906116be9190611a12565b6104fd5760405162461bcd60e51b815260206004820152601460248201527353594e5f4e4f545f5452414e5346455241424c4560601b604482015260640161037d565b600354604051630622493160e41b81526001600160a01b0383811660048301529091169063622493109060240160206040518083038186803b15801561174657600080fd5b505afa15801561175a573d6000803e3d6000fd5b505050506040513d601f19601f8201168201806040525081019061177e9190611a12565b156104fd5760405162461bcd60e51b815260206004820152601060248201526f53594e5f444953545249425554494e4760801b604482015260640161037d565b6003546040516331dcbbdb60e21b81526001600160a01b0384811660048301529091169063c772ef6c9060240160206040518083038186803b15801561180357600080fd5b505afa158015611817573d6000803e3d6000fd5b505050506040513d601f19601f8201168201806040525081019061183b9190611a12565b15806118c4575060035460405163d98c07b760e01b81526001600160a01b039091169063d98c07b7906118749085908590600401611a48565b60206040518083038186803b15801561188c57600080fd5b505afa1580156118a0573d6000803e3d6000fd5b505050506040513d601f19601f820116820180604052508101906118c49190611a12565b6119025760405162461bcd60e51b815260206004820152600f60248201526e13509497d393d517d0531313d5d151608a1b604482015260640161037d565b5050565b60006020828403121561191857600080fd5b813561192381611b39565b9392505050565b60006020828403121561193c57600080fd5b815161192381611b39565b6000806000806080858703121561195d57600080fd5b843561196881611b39565b9350602085013561197881611b39565b9250604085013561198881611b39565b9396929550929360600135925050565b6000806000606084860312156119ad57600080fd5b83356119b881611b39565b925060208401356119c881611b39565b929592945050506040919091013590565b600080604083850312156119ec57600080fd5b82356119f781611b39565b91506020830135611a0781611b4e565b809150509250929050565b600060208284031215611a2457600080fd5b815161192381611b4e565b600060208284031215611a4157600080fd5b5051919050565b6001600160a01b0392831681529116602082015260400190565b6020808252818101527f4f776e61626c653a2063616c6c6572206973206e6f7420746865206f776e6572604082015260600190565b82815260006020604081840152835180604085015260005b81811015611acb57858101830151858201606001528201611aaf565b81811115611add576000606083870101525b50601f01601f191692909201606001949350505050565b60008219821115611b0757611b07611b23565b500190565b600082821015611b1e57611b1e611b23565b500390565b634e487b7160e01b600052601160045260246000fd5b6001600160a01b03811681146104fd57600080fd5b80151581146104fd57600080fdfea26469706673582212201af7d9f6bd1f90fd3622a251465ef1ce3098e7b32e52c0c73cbe479405ae387264736f6c634300080600338be0079c531659141344cd1fd0a4f28419497f9722a3daafe3b4186f6b6457e0",
  "immutableReferences": {},
  "source": "// SPDX-License-Identifier: UNLICENSED\n\npragma solidity ^0.8.0;\n\nimport \"./SyndicateClosedEndFundLogic.sol\";\nimport \"./interfaces/ISyndicateClosedEndFundDepositTransferLogicV0.sol\";\n\n/// @author Syndicate Inc.\n/// @notice Handle transferring member deposits between addresses\ncontract SyndicateClosedEndFundDepositTransferLogicV0 is\n    ISyndicateClosedEndFundDepositTransferLogicV0,\n    SyndicateClosedEndFundLogic\n{\n    // Storage------------------------------------------------------------------\n\n    /// @notice Used to initialize the Syndicate contract.\n    constructor(address owner, address storeAddress)\n        SyndicateClosedEndFundLogic(owner, storeAddress)\n    {}\n\n    // Events-------------------------------------------------------------------\n\n    /// @notice A manager updates the `transferable` field.\n    event TransferableUpdated(\n        address indexed syndicateAddress,\n        bool transferable\n    );\n\n    /// @notice A member, or manager on behalf of a member, transfers a deposit\n    /// portion to another address. Manager-initiated transfers can only\n    /// occur on modifiable syndicates.\n    /// @dev `actor` is used to differentiate between who is triggering the\n    /// event emission. Current options are \"member\" and \"manager\", but more\n    /// may be introduced (e.g. \"integration\").\n    event DepositTransferred(\n        address indexed syndicateAddress,\n        address indexed memberAddress,\n        address indexed targetAddress,\n        uint256 amount,\n        string actor\n    );\n\n    // Functions----------------------------------------------------------------\n\n    /// @notice Used by a manager to change the transferability of a Syndicate.\n    /// @param syndicateAddress The address of the Syndicate\n    /// @param transferable The new value of transferability\n    function managerSetTransferable(address syndicateAddress, bool transferable)\n        public\n        override\n        onlyManager(syndicateAddress)\n        onlyBeforeDistributing(syndicateAddress)\n    {\n        store.setTransferable(syndicateAddress, transferable);\n\n        emit TransferableUpdated(syndicateAddress, transferable);\n    }\n\n    /// @notice Manager transfer portion of member's deposit to another address.\n    /// @param syndicateAddress Address of the Syndicate\n    /// @param memberAddress Address of member to transfer deposits **from**\n    /// @param targetAddress Address to transfer deposits **to**\n    /// @param amount Amount to transfer between member and target\n    function managerTransferDepositForMembers(\n        address syndicateAddress,\n        address memberAddress,\n        address targetAddress,\n        uint256 amount\n    )\n        public\n        override\n        onlyManager(syndicateAddress)\n        onlyModifiable(syndicateAddress)\n    {\n        // if target is not on allowlist yet, add them before transferring\n        if (\n            store.allowlistEnabled(syndicateAddress) &&\n            !store.allowlist(syndicateAddress, targetAddress)\n        ) {\n            store.setAllowlist(syndicateAddress, targetAddress, true);\n        }\n\n        _transferDeposit(\n            syndicateAddress,\n            memberAddress,\n            targetAddress,\n            amount,\n            true\n        );\n    }\n\n    /// @notice Member transfer portion of deposit to another address.\n    /// @param syndicateAddress Address of the Syndicate\n    /// @param targetAddress Address to transfer deposits to\n    /// @param amount Amount of deposit to transfer to targetAddress\n    function memberTransfer(\n        address syndicateAddress,\n        address targetAddress,\n        uint256 amount\n    )\n        public\n        override\n        onlyNotManager(syndicateAddress)\n        onlyTransferable(syndicateAddress)\n    {\n        _transferDeposit(\n            syndicateAddress,\n            msg.sender,\n            targetAddress,\n            amount,\n            false\n        );\n    }\n\n    /// @notice Transfers deposits from one address to another.\n    /// @param syndicateAddress The address of the Syndicate\n    /// @param originAddress The address to transfer deposits **from**\n    /// @param targetAddress The address to transfer deposits **to**\n    /// @param amount Amount to transfer between origin and target\n    /// @dev Because this internal function can be called by both a member\n    /// and a manager, we leave the event emission responsibility in their\n    /// respective public functions.\n    /// @dev This function does NOT call an IERC20 transfer, so the amount\n    /// passed in will be exactly the amount transferred (even if the deposit\n    /// token takes a fee upon IERC20 transfer).\n    function _transferDeposit(\n        address syndicateAddress,\n        address originAddress,\n        address targetAddress,\n        uint256 amount,\n        bool calledByManager\n    )\n        internal\n        onlyBeforeDistributing(syndicateAddress)\n        enforceAllowlist(syndicateAddress, targetAddress)\n    {\n        // Transfer amount cannot be 0\n        require(amount > 0, \"TFR<=0\");\n\n        // Origin's balance must be sufficient to cover transfer\n        require(\n            amount <= store.depositMember(syndicateAddress, originAddress),\n            \"TFR>BAL\"\n        );\n\n        // Origin's new balance must either be 0 or at least depositMemberMin\n        require(\n            store.depositMember(syndicateAddress, originAddress) - amount ==\n                0 ||\n                store.depositMember(syndicateAddress, originAddress) - amount >=\n                store.depositMemberMin(syndicateAddress),\n            \"0<BAL<MIN_MBR_DEP\"\n        );\n\n        // Target's new balance must be at least depositMemberMin\n        // This check must be performed even if the target had no prior\n        // balance, as the depositMemberMin may have changed since the\n        // origin member last deposited/withdrew.\n        require(\n            store.depositMember(syndicateAddress, targetAddress) + amount >=\n                store.depositMemberMin(syndicateAddress),\n            \"0<BAL<MIN_MBR_DEP\"\n        );\n\n        // Target's new balance must be at most depositMemberMax\n        // This check must be performed even if the target had no prior\n        // balance, as the depositMemberMax may have changed since the\n        // origin member last deposited/withdrew.\n        require(\n            store.depositMember(syndicateAddress, targetAddress) + amount <=\n                store.depositMemberMax(syndicateAddress),\n            \"BAL>MAX_MBR_DEP\"\n        );\n\n        // If the target had no prior balance AND the origin will still have a\n        // balance after the transfer, the number of members will increase.\n        if (\n            store.depositMember(syndicateAddress, targetAddress) == 0 &&\n            store.depositMember(syndicateAddress, originAddress) - amount != 0\n        ) {\n            require(\n                store.numMembersCurrent(syndicateAddress) <\n                    store.numMembersMax(syndicateAddress),\n                \"MAX_MBRS_REACHED\"\n            );\n\n            store.setNumMembersCurrent(\n                syndicateAddress,\n                store.numMembersCurrent(syndicateAddress) + 1\n            );\n        }\n        // If the target had a prior balance AND the origin will have a 0\n        // balance after the transfer, the number of members will decrease.\n        else if (\n            store.depositMember(syndicateAddress, targetAddress) != 0 &&\n            store.depositMember(syndicateAddress, originAddress) - amount == 0\n        ) {\n            store.setNumMembersCurrent(\n                syndicateAddress,\n                store.numMembersCurrent(syndicateAddress) - 1\n            );\n        }\n\n        // Decrease origin address deposit holdings\n        store.setDepositMember(\n            syndicateAddress,\n            originAddress,\n            store.depositMember(syndicateAddress, originAddress) - amount\n        );\n\n        // Increase target address deposit holdings\n        store.setDepositMember(\n            syndicateAddress,\n            targetAddress,\n            store.depositMember(syndicateAddress, targetAddress) + amount\n        );\n\n        string memory actor = calledByManager ? \"manager\" : \"member\";\n\n        emit DepositTransferred(\n            syndicateAddress,\n            originAddress,\n            targetAddress,\n            amount,\n            actor\n        );\n    }\n}\n",
  "sourcePath": "/Users/connerswenberg/Code/syndicate/Syndicate/contracts/SyndicateClosedEndFundDepositTransferLogicV0.sol",
  "compiler": {
    "name": "solc",
    "version": "0.8.6+commit.11564f7e.Emscripten.clang"
  },
  "schemaVersion": "3.4.1",
  "updatedAt": "2021-07-14T18:59:26.218Z",
  "networkType": "ethereum",
  "devdoc": {
    "author": "Syndicate Inc.",
    "events": {
      "DepositTransferred(address,address,address,uint256,string)": {
        "details": "`actor` is used to differentiate between who is triggering the event emission. Current options are \"member\" and \"manager\", but more may be introduced (e.g. \"integration\")."
      }
    },
    "kind": "dev",
    "methods": {
      "getSyndicateFeeAddress()": {
        "details": "This function is needed to allow inheriting contracts to only be able to view but not change syndicateFeeAddress without going through ownerSetSyndicateFeeAddress"
      },
      "managerSetTransferable(address,bool)": {
        "params": {
          "syndicateAddress": "The address of the Syndicate",
          "transferable": "The new value of transferability"
        }
      },
      "managerTransferDepositForMembers(address,address,address,uint256)": {
        "params": {
          "amount": "Amount to transfer between member and target",
          "memberAddress": "Address of member to transfer deposits **from**",
          "syndicateAddress": "Address of the Syndicate",
          "targetAddress": "Address to transfer deposits **to**"
        }
      },
      "memberTransfer(address,address,uint256)": {
        "params": {
          "amount": "Amount of deposit to transfer to targetAddress",
          "syndicateAddress": "Address of the Syndicate",
          "targetAddress": "Address to transfer deposits to"
        }
      },
      "owner()": {
        "details": "Returns the address of the current owner."
      },
      "ownerSetSyndicateFeeAddress(address)": {
        "params": {
          "feeAddress": "The owner's new contract fee address"
        }
      },
      "ownerTransferOwnership(address)": {
        "params": {
          "newOwner": "The new owner's address."
        }
      },
      "renounceOwnership()": {
        "details": "Leaves the contract without owner. It will not be possible to call `onlyOwner` functions anymore. Can only be called by the current owner. NOTE: Renouncing ownership will leave the contract without an owner, thereby removing any functionality that is only available to the owner."
      },
      "transferOwnership(address)": {
        "details": "Transfers ownership of the contract to a new account (`newOwner`). Can only be called by the current owner."
      }
    },
    "version": 1
  },
  "userdoc": {
    "events": {
      "DepositTransferred(address,address,address,uint256,string)": {
        "notice": "A member, or manager on behalf of a member, transfers a deposit portion to another address. Manager-initiated transfers can only occur on modifiable syndicates."
      },
      "SyndicateFeeAddressUpdated(address)": {
        "notice": "The owner updates the contract fee address."
      },
      "TransferableUpdated(address,bool)": {
        "notice": "A manager updates the `transferable` field."
      }
    },
    "kind": "user",
    "methods": {
      "constructor": {
        "notice": "Used to initialize the Syndicate contract."
      },
      "getSyndicateFeeAddress()": {
        "notice": "getter function for syndicate fee address."
      },
      "managerSetTransferable(address,bool)": {
        "notice": "Used by a manager to change the transferability of a Syndicate."
      },
      "managerTransferDepositForMembers(address,address,address,uint256)": {
        "notice": "Manager transfer portion of member's deposit to another address."
      },
      "memberTransfer(address,address,uint256)": {
        "notice": "Member transfer portion of deposit to another address."
      },
      "ownerRenounceOwnership()": {
        "notice": "Renounce ownership of the contract"
      },
      "ownerSetSyndicateFeeAddress(address)": {
        "notice": "set a new fee address for the contract function that can only be triggered by the contract owner."
      },
      "ownerTransferOwnership(address)": {
        "notice": "Transfers ownership to the provided address."
      }
    },
    "notice": "Handle transferring member deposits between addresses",
    "version": 1
  }
}