{
  "contractName": "SyndicateClosedEndFundGetterLogicV0",
  "abi": [
    {
      "inputs": [
        {
          "internalType": "address",
          "name": "owner",
          "type": "address"
        },
        {
          "internalType": "address",
          "name": "storeAddress",
          "type": "address"
        }
      ],
      "stateMutability": "nonpayable",
      "type": "constructor"
    },
    {
      "anonymous": false,
      "inputs": [
        {
          "indexed": true,
          "internalType": "address",
          "name": "previousOwner",
          "type": "address"
        },
        {
          "indexed": true,
          "internalType": "address",
          "name": "newOwner",
          "type": "address"
        }
      ],
      "name": "OwnershipTransferred",
      "type": "event"
    },
    {
      "anonymous": false,
      "inputs": [
        {
          "indexed": true,
          "internalType": "address",
          "name": "contractFeeAddress",
          "type": "address"
        }
      ],
      "name": "SyndicateFeeAddressUpdated",
      "type": "event"
    },
    {
      "inputs": [],
      "name": "BASIS_POINTS_DENOMINATOR",
      "outputs": [
        {
          "internalType": "uint256",
          "name": "",
          "type": "uint256"
        }
      ],
      "stateMutability": "view",
      "type": "function"
    },
    {
      "inputs": [],
      "name": "getSyndicateFeeAddress",
      "outputs": [
        {
          "internalType": "address",
          "name": "",
          "type": "address"
        }
      ],
      "stateMutability": "view",
      "type": "function"
    },
    {
      "inputs": [],
      "name": "owner",
      "outputs": [
        {
          "internalType": "address",
          "name": "",
          "type": "address"
        }
      ],
      "stateMutability": "view",
      "type": "function"
    },
    {
      "inputs": [],
      "name": "ownerRenounceOwnership",
      "outputs": [],
      "stateMutability": "nonpayable",
      "type": "function"
    },
    {
      "inputs": [
        {
          "internalType": "address",
          "name": "feeAddress",
          "type": "address"
        }
      ],
      "name": "ownerSetSyndicateFeeAddress",
      "outputs": [],
      "stateMutability": "nonpayable",
      "type": "function"
    },
    {
      "inputs": [
        {
          "internalType": "address",
          "name": "newOwner",
          "type": "address"
        }
      ],
      "name": "ownerTransferOwnership",
      "outputs": [],
      "stateMutability": "nonpayable",
      "type": "function"
    },
    {
      "inputs": [],
      "name": "renounceOwnership",
      "outputs": [],
      "stateMutability": "nonpayable",
      "type": "function"
    },
    {
      "inputs": [
        {
          "internalType": "address",
          "name": "newOwner",
          "type": "address"
        }
      ],
      "name": "transferOwnership",
      "outputs": [],
      "stateMutability": "nonpayable",
      "type": "function"
    },
    {
      "inputs": [
        {
          "internalType": "address",
          "name": "syndicateAddress",
          "type": "address"
        }
      ],
      "name": "getSyndicateValues",
      "outputs": [
        {
          "components": [
            {
              "internalType": "address",
              "name": "managerCurrent",
              "type": "address"
            },
            {
              "internalType": "address",
              "name": "managerPending",
              "type": "address"
            },
            {
              "internalType": "address",
              "name": "managerFeeAddress",
              "type": "address"
            },
            {
              "internalType": "uint256",
              "name": "managerManagementFeeBasisPoints",
              "type": "uint256"
            },
            {
              "internalType": "uint256",
              "name": "managerDistributionShareBasisPoints",
              "type": "uint256"
            },
            {
              "internalType": "uint256",
              "name": "syndicateDistributionShareBasisPoints",
              "type": "uint256"
            },
            {
              "internalType": "uint256",
              "name": "numMembersMax",
              "type": "uint256"
            },
            {
              "internalType": "uint256",
              "name": "numMembersCurrent",
              "type": "uint256"
            },
            {
              "internalType": "address",
              "name": "depositERC20Address",
              "type": "address"
            },
            {
              "internalType": "uint256",
              "name": "depositMemberMin",
              "type": "uint256"
            },
            {
              "internalType": "uint256",
              "name": "depositMemberMax",
              "type": "uint256"
            },
            {
              "internalType": "uint256",
              "name": "depositTotalMax",
              "type": "uint256"
            },
            {
              "internalType": "uint256",
              "name": "depositTotal",
              "type": "uint256"
            },
            {
              "internalType": "uint256",
              "name": "dateCreated",
              "type": "uint256"
            },
            {
              "internalType": "uint256",
              "name": "dateClose",
              "type": "uint256"
            },
            {
              "internalType": "bool",
              "name": "open",
              "type": "bool"
            },
            {
              "internalType": "bool",
              "name": "distributing",
              "type": "bool"
            },
            {
              "internalType": "bool",
              "name": "modifiable",
              "type": "bool"
            },
            {
              "internalType": "bool",
              "name": "allowlistEnabled",
              "type": "bool"
            },
            {
              "internalType": "bool",
              "name": "transferable",
              "type": "bool"
            }
          ],
          "internalType": "struct ISyndicateClosedEndFundGetterLogicV0.SyndicateValues",
          "name": "",
          "type": "tuple"
        }
      ],
      "stateMutability": "view",
      "type": "function"
    },
    {
      "inputs": [
        {
          "internalType": "address",
          "name": "syndicateAddress",
          "type": "address"
        },
        {
          "internalType": "address",
          "name": "memberAddress",
          "type": "address"
        }
      ],
      "name": "getMemberInfo",
      "outputs": [
        {
          "components": [
            {
              "internalType": "uint256",
              "name": "deposit",
              "type": "uint256"
            },
            {
              "internalType": "uint256",
              "name": "distributionClaimedDepositERC20",
              "type": "uint256"
            },
            {
              "internalType": "bool",
              "name": "isAllowlisted",
              "type": "bool"
            }
          ],
          "internalType": "struct ISyndicateClosedEndFundGetterLogicV0.MemberInfo",
          "name": "",
          "type": "tuple"
        }
      ],
      "stateMutability": "view",
      "type": "function"
    },
    {
      "inputs": [
        {
          "internalType": "address",
          "name": "managerAddress",
          "type": "address"
        }
      ],
      "name": "getManagerInfo",
      "outputs": [
        {
          "internalType": "address",
          "name": "",
          "type": "address"
        }
      ],
      "stateMutability": "view",
      "type": "function"
    },
    {
      "inputs": [
        {
          "internalType": "address",
          "name": "syndicateAddress",
          "type": "address"
        },
        {
          "internalType": "string",
          "name": "metadataKey",
          "type": "string"
        }
      ],
      "name": "getMetadata",
      "outputs": [
        {
          "internalType": "string",
          "name": "",
          "type": "string"
        }
      ],
      "stateMutability": "view",
      "type": "function"
    }
  ],
  "bytecode": "0x6080604052600280546001600160a01b0319167340db79f7f18c468c6552538b488c58b5e72bf4d91790553480156200003757600080fd5b506040516200198f3803806200198f8339810160408190526200005a91620001fa565b6001600081815581546001600160a01b031916339081179092556040518492849284928291906000805160206200196f833981519152908290a350620000a081620000cb565b50600380546001600160a01b0319166001600160a01b03929092169190911790555062000232915050565b6001546001600160a01b031633146200012b5760405162461bcd60e51b815260206004820181905260248201527f4f776e61626c653a2063616c6c6572206973206e6f7420746865206f776e657260448201526064015b60405180910390fd5b6001600160a01b038116620001925760405162461bcd60e51b815260206004820152602660248201527f4f776e61626c653a206e6577206f776e657220697320746865207a65726f206160448201526564647265737360d01b606482015260840162000122565b6001546040516001600160a01b038084169216906000805160206200196f83398151915290600090a3600180546001600160a01b0319166001600160a01b0392909216919091179055565b80516001600160a01b0381168114620001f557600080fd5b919050565b600080604083850312156200020e57600080fd5b6200021983620001dd565b91506200022960208401620001dd565b90509250929050565b61172d80620002426000396000f3fe608060405234801561001057600080fd5b50600436106100b45760003560e01c8063bbf3bd1911610071578063bbf3bd191461015f578063bfd9a7e114610172578063cad0a37314610185578063cfa498a314610196578063f064e8fa146101ad578063f2fde38b146101cd57600080fd5b806336048d5f146100b95780633b704018146100f5578063715018a61461011557806381abf4081461011f5780638da5cb5b14610127578063a09cca931461014c575b600080fd5b6100cc6100c736600461132d565b6101e0565b604080518251815260208084015190820152918101511515908201526060015b60405180910390f35b6101086101033660046112ec565b610444565b6040516100ec919061157b565b61011d610f91565b005b61011d61100e565b6001546001600160a01b03165b6040516001600160a01b0390911681526020016100ec565b61011d61015a3660046112ec565b611042565b61013461016d3660046112ec565b611078565b61011d6101803660046112ec565b6110fc565b6002546001600160a01b0316610134565b61019f61271081565b6040519081526020016100ec565b6101c06101bb366004611366565b611170565b6040516100ec9190611513565b61011d6101db3660046112ec565b611201565b610206604051806060016040528060008152602001600081526020016000151581525090565b604080516060810191829052600354630181a99d60e41b9092526001600160a01b0385811660648301528481166084830152909182911663181a99d060a4830160206040518083038186803b15801561025e57600080fd5b505afa158015610272573d6000803e3d6000fd5b505050506040513d601f19601f8201168201806040525081019061029691906114ba565b8152600354604051631c79211f60e11b81526001600160a01b0387811660048301526020909301929091169063a948191b90879083906338f2423e9060240160206040518083038186803b1580156102ed57600080fd5b505afa158015610301573d6000803e3d6000fd5b505050506040513d601f19601f820116820180604052508101906103259190611310565b6040516001600160e01b031960e085901b1681526001600160a01b0392831660048201529082166024820152908716604482015260640160206040518083038186803b15801561037457600080fd5b505afa158015610388573d6000803e3d6000fd5b505050506040513d601f19601f820116820180604052508101906103ac91906114ba565b815260035460405163d98c07b760e01b81526001600160a01b03878116600483015286811660248301526020909301929091169063d98c07b79060440160206040518083038186803b15801561040157600080fd5b505afa158015610415573d6000803e3d6000fd5b505050506040513d601f19601f8201168201806040525081019061043991906113eb565b151590529392505050565b61050e60405180610280016040528060006001600160a01b0316815260200160006001600160a01b0316815260200160006001600160a01b03168152602001600081526020016000815260200160008152602001600081526020016000815260200160006001600160a01b031681526020016000815260200160008152602001600081526020016000815260200160008152602001600081526020016000151581526020016000151581526020016000151581526020016000151581526020016000151581525090565b60408051610280810191829052600354630e8aef6f60e41b9092526001600160a01b03848116610284830152909182911663e8aef6f06102a4830160206040518083038186803b15801561056157600080fd5b505afa158015610575573d6000803e3d6000fd5b505050506040513d601f19601f820116820180604052508101906105999190611310565b6001600160a01b039081168252600354604051630f93eb8960e21b81528683166004820152602090930192911690633e4fae249060240160206040518083038186803b1580156105e857600080fd5b505afa1580156105fc573d6000803e3d6000fd5b505050506040513d601f19601f820116820180604052508101906106209190611310565b6001600160a01b039081168252600354604051630dc35bbb60e41b8152868316600482015260209093019291169063dc35bbb09060240160206040518083038186803b15801561066f57600080fd5b505afa158015610683573d6000803e3d6000fd5b505050506040513d601f19601f820116820180604052508101906106a79190611310565b6001600160a01b0390811682526003546040516377d5adcb60e11b8152868316600482015260209093019291169063efab5b969060240160206040518083038186803b1580156106f657600080fd5b505afa15801561070a573d6000803e3d6000fd5b505050506040513d601f19601f8201168201806040525081019061072e91906114ba565b81526003546040516397cc677160e01b81526001600160a01b038681166004830152602090930192909116906397cc67719060240160206040518083038186803b15801561077b57600080fd5b505afa15801561078f573d6000803e3d6000fd5b505050506040513d601f19601f820116820180604052508101906107b391906114ba565b815260035460405163deebf2eb60e01b81526001600160a01b0386811660048301526020909301929091169063deebf2eb9060240160206040518083038186803b15801561080057600080fd5b505afa158015610814573d6000803e3d6000fd5b505050506040513d601f19601f8201168201806040525081019061083891906114ba565b8152600354604051631b1187f760e11b81526001600160a01b038681166004830152602090930192909116906336230fee9060240160206040518083038186803b15801561088557600080fd5b505afa158015610899573d6000803e3d6000fd5b505050506040513d601f19601f820116820180604052508101906108bd91906114ba565b815260035460405163e396ae9b60e01b81526001600160a01b0386811660048301526020909301929091169063e396ae9b9060240160206040518083038186803b15801561090a57600080fd5b505afa15801561091e573d6000803e3d6000fd5b505050506040513d601f19601f8201168201806040525081019061094291906114ba565b8152600354604051631c79211f60e11b81526001600160a01b038681166004830152602090930192909116906338f2423e9060240160206040518083038186803b15801561098f57600080fd5b505afa1580156109a3573d6000803e3d6000fd5b505050506040513d601f19601f820116820180604052508101906109c79190611310565b6001600160a01b039081168252600354604051631b7c9fad60e11b815286831660048201526020909301929116906336f93f5a9060240160206040518083038186803b158015610a1657600080fd5b505afa158015610a2a573d6000803e3d6000fd5b505050506040513d601f19601f82011682018060405250810190610a4e91906114ba565b8152600354604051631acd19c760e01b81526001600160a01b03868116600483015260209093019290911690631acd19c79060240160206040518083038186803b158015610a9b57600080fd5b505afa158015610aaf573d6000803e3d6000fd5b505050506040513d601f19601f82011682018060405250810190610ad391906114ba565b815260035460405163b4cba69b60e01b81526001600160a01b0386811660048301526020909301929091169063b4cba69b9060240160206040518083038186803b158015610b2057600080fd5b505afa158015610b34573d6000803e3d6000fd5b505050506040513d601f19601f82011682018060405250810190610b5891906114ba565b81526003546040516335869d0960e11b81526001600160a01b03868116600483015260209093019290911690636b0d3a129060240160206040518083038186803b158015610ba557600080fd5b505afa158015610bb9573d6000803e3d6000fd5b505050506040513d601f19601f82011682018060405250810190610bdd91906114ba565b815260035460405162e21c1f60e11b81526001600160a01b038681166004830152602090930192909116906301c4383e9060240160206040518083038186803b158015610c2957600080fd5b505afa158015610c3d573d6000803e3d6000fd5b505050506040513d601f19601f82011682018060405250810190610c6191906114ba565b815260035460405163e32bf38d60e01b81526001600160a01b0386811660048301526020909301929091169063e32bf38d9060240160206040518083038186803b158015610cae57600080fd5b505afa158015610cc2573d6000803e3d6000fd5b505050506040513d601f19601f82011682018060405250810190610ce691906114ba565b815260035460405163172a8c1f60e31b81526001600160a01b0386811660048301526020909301929091169063b95460f89060240160206040518083038186803b158015610d3357600080fd5b505afa158015610d47573d6000803e3d6000fd5b505050506040513d601f19601f82011682018060405250810190610d6b91906113eb565b15158152600354604051630622493160e41b81526001600160a01b0386811660048301526020909301929091169063622493109060240160206040518083038186803b158015610dba57600080fd5b505afa158015610dce573d6000803e3d6000fd5b505050506040513d601f19601f82011682018060405250810190610df291906113eb565b1515815260035460405163adc1017f60e01b81526001600160a01b0386811660048301526020909301929091169063adc1017f9060240160206040518083038186803b158015610e4157600080fd5b505afa158015610e55573d6000803e3d6000fd5b505050506040513d601f19601f82011682018060405250810190610e7991906113eb565b151581526003546040516331dcbbdb60e21b81526001600160a01b0386811660048301526020909301929091169063c772ef6c9060240160206040518083038186803b158015610ec857600080fd5b505afa158015610edc573d6000803e3d6000fd5b505050506040513d601f19601f82011682018060405250810190610f0091906113eb565b1515815260035460405163acb1e61f60e01b81526001600160a01b0386811660048301526020909301929091169063acb1e61f9060240160206040518083038186803b158015610f4f57600080fd5b505afa158015610f63573d6000803e3d6000fd5b505050506040513d601f19601f82011682018060405250810190610f8791906113eb565b1515905292915050565b6001546001600160a01b03163314610fc45760405162461bcd60e51b8152600401610fbb90611546565b60405180910390fd5b6001546040516000916001600160a01b0316907f8be0079c531659141344cd1fd0a4f28419497f9722a3daafe3b4186f6b6457e0908390a3600180546001600160a01b0319169055565b6001546001600160a01b031633146110385760405162461bcd60e51b8152600401610fbb90611546565b611040610f91565b565b6001546001600160a01b0316331461106c5760405162461bcd60e51b8152600401610fbb90611546565b61107581611201565b50565b6003546040516394da627760e01b81526001600160a01b03838116600483015260009216906394da62779060240160206040518083038186803b1580156110be57600080fd5b505afa1580156110d2573d6000803e3d6000fd5b505050506040513d601f19601f820116820180604052508101906110f69190611310565b92915050565b6001546001600160a01b031633146111265760405162461bcd60e51b8152600401610fbb90611546565b600280546001600160a01b0319166001600160a01b0383169081179091556040517fcf41d0875fade187fa408cd5e4f56e25cda2fae1cff91d42f08c1db396349a2d90600090a250565b60035460405163087280b760e21b81526060916001600160a01b0316906321ca02dc906111a5908790879087906004016114d3565b60006040518083038186803b1580156111bd57600080fd5b505afa1580156111d1573d6000803e3d6000fd5b505050506040513d6000823e601f3d908101601f191682016040526111f9919081019061140d565b949350505050565b6001546001600160a01b0316331461122b5760405162461bcd60e51b8152600401610fbb90611546565b6001600160a01b0381166112905760405162461bcd60e51b815260206004820152602660248201527f4f776e61626c653a206e6577206f776e657220697320746865207a65726f206160448201526564647265737360d01b6064820152608401610fbb565b6001546040516001600160a01b038084169216907f8be0079c531659141344cd1fd0a4f28419497f9722a3daafe3b4186f6b6457e090600090a3600180546001600160a01b0319166001600160a01b0392909216919091179055565b6000602082840312156112fe57600080fd5b8135611309816116e2565b9392505050565b60006020828403121561132257600080fd5b8151611309816116e2565b6000806040838503121561134057600080fd5b823561134b816116e2565b9150602083013561135b816116e2565b809150509250929050565b60008060006040848603121561137b57600080fd5b8335611386816116e2565b9250602084013567ffffffffffffffff808211156113a357600080fd5b818601915086601f8301126113b757600080fd5b8135818111156113c657600080fd5b8760208285010111156113d857600080fd5b6020830194508093505050509250925092565b6000602082840312156113fd57600080fd5b8151801515811461130957600080fd5b60006020828403121561141f57600080fd5b815167ffffffffffffffff8082111561143757600080fd5b818401915084601f83011261144b57600080fd5b81518181111561145d5761145d6116cc565b604051601f8201601f19908116603f01168101908382118183101715611485576114856116cc565b8160405282815287602084870101111561149e57600080fd5b6114af83602083016020880161169c565b979650505050505050565b6000602082840312156114cc57600080fd5b5051919050565b6001600160a01b03841681526040602082018190528101829052818360608301376000818301606090810191909152601f909201601f1916010192915050565b602081526000825180602084015261153281604085016020870161169c565b601f01601f19169190910160400192915050565b6020808252818101527f4f776e61626c653a2063616c6c6572206973206e6f7420746865206f776e6572604082015260600190565b81516001600160a01b03168152610280810160208301516115a760208401826001600160a01b03169052565b5060408301516115c260408401826001600160a01b03169052565b50606083015160608301526080830151608083015260a083015160a083015260c083015160c083015260e083015160e083015261010080840151611610828501826001600160a01b03169052565b505061012083810151908301526101408084015190830152610160808401519083015261018080840151908301526101a080840151908301526101c080840151908301526101e080840151151590830152610200808401511515908301526102208084015115159083015261024080840151151590830152610260928301511515929091019190915290565b60005b838110156116b757818101518382015260200161169f565b838111156116c6576000848401525b50505050565b634e487b7160e01b600052604160045260246000fd5b6001600160a01b038116811461107557600080fdfea26469706673582212203f1f0f618f9ee7ed10835b4502a9861ca0e8162ac7d297cf2415e508df37e4ff64736f6c634300080700338be0079c531659141344cd1fd0a4f28419497f9722a3daafe3b4186f6b6457e0",
  "immutableReferences": {},
  "source": "// SPDX-License-Identifier: UNLICENSED\n\npragma solidity ^0.8.0;\n\nimport \"./SyndicateClosedEndFundLogic.sol\";\nimport \"./interfaces/ISyndicateClosedEndFundGetterLogicV0.sol\";\n\n/// @author Syndicate Inc.\n/// @notice General public override controls and getters\ncontract SyndicateClosedEndFundGetterLogicV0 is\n    ISyndicateClosedEndFundGetterLogicV0,\n    SyndicateClosedEndFundLogic\n{\n    /// @notice Used to initialize the Syndicate contract.\n    constructor(address owner, address storeAddress)\n        SyndicateClosedEndFundLogic(owner, storeAddress)\n    {}\n\n    // Functions----------------------------------------------------------------\n\n    /// @notice Get the values for a Syndicate\n    /// @param syndicateAddress The address of the Syndicate\n    /// @return SyndicateValues struct\n    /// @dev This function **must** be kept up to date with the web3 UI when\n    /// making changes. All PRs that change this function or the\n    /// SyndicateValues struct **must** be coordinated with an engineer on the\n    /// Web3 Dashboard.\n    function getSyndicateValues(address syndicateAddress)\n        public\n        view\n        override\n        returns (SyndicateValues memory)\n    {\n        return\n            SyndicateValues({\n                managerCurrent: store.managerCurrent(syndicateAddress),\n                managerPending: store.managerPending(syndicateAddress),\n                managerFeeAddress: store.managerFeeAddress(syndicateAddress),\n                managerManagementFeeBasisPoints: store\n                    .managerManagementFeeBasisPoints(syndicateAddress),\n                managerDistributionShareBasisPoints: store\n                    .managerDistributionShareBasisPoints(syndicateAddress),\n                syndicateDistributionShareBasisPoints: store\n                    .syndicateDistributionShareBasisPoints(syndicateAddress),\n                numMembersMax: store.numMembersMax(syndicateAddress),\n                numMembersCurrent: store.numMembersCurrent(syndicateAddress),\n                depositERC20Address: store.depositERC20Address(\n                    syndicateAddress\n                ),\n                depositMemberMin: store.depositMemberMin(syndicateAddress),\n                depositMemberMax: store.depositMemberMax(syndicateAddress),\n                depositTotalMax: store.depositTotalMax(syndicateAddress),\n                depositTotal: store.depositTotal(syndicateAddress),\n                dateCreated: store.dateCreated(syndicateAddress),\n                dateClose: store.dateClose(syndicateAddress),\n                open: store.open(syndicateAddress),\n                distributing: store.distributing(syndicateAddress),\n                modifiable: store.modifiable(syndicateAddress),\n                allowlistEnabled: store.allowlistEnabled(syndicateAddress),\n                transferable: store.transferable(syndicateAddress)\n            });\n    }\n\n    /// @notice Get the member info for a Syndicate\n    /// @param syndicateAddress The address of the Syndicate\n    /// @param memberAddress The address of the member whose info is being\n    /// queried\n    /// @return MemberInfo struct\n    /// @notice To get the claimed distributions for another ERC20, use\n    /// `getDistributionClaimedMember()`\n    /// @dev This function **must** be kept up to date with the Web3 UI when\n    /// making changes. All PRs that change this function **must** be\n    /// coordinated with an engineer on the Web3 Dashboard.\n    function getMemberInfo(address syndicateAddress, address memberAddress)\n        public\n        view\n        override\n        returns (MemberInfo memory)\n    {\n        return\n            MemberInfo({\n                deposit: store.depositMember(syndicateAddress, memberAddress),\n                distributionClaimedDepositERC20: store\n                    .distributionClaimedMember(\n                    syndicateAddress,\n                    store.depositERC20Address(syndicateAddress),\n                    memberAddress\n                ),\n                isAllowlisted: store.allowlist(syndicateAddress, memberAddress)\n            });\n    }\n\n    /// @notice Get the manager info.\n    /// @param managerAddress The address of the manager whose info is being\n    /// queried\n    /// @return address of managed syndicate\n    function getManagerInfo(address managerAddress)\n        public\n        view\n        override\n        returns (address)\n    {\n        return store.managerSyndicate(managerAddress);\n    }\n\n    /// @notice Get the metadata for a given key within a Syndicate\n    /// @param syndicateAddress The address of the Syndicate\n    /// @param metadataKey The string that is the key of the metadata to look up\n    /// @return metadataValue as a string\n    function getMetadata(address syndicateAddress, string calldata metadataKey)\n        public\n        view\n        override\n        returns (string memory)\n    {\n        return store.metadata(syndicateAddress, metadataKey);\n    }\n}\n",
  "sourcePath": "/Users/mbuvi/syndicates/Syndicate/contracts/SyndicateClosedEndFundGetterLogicV0_1.sol",
  "compiler": {
    "name": "solc",
    "version": "0.8.7+commit.e28d00a7.Emscripten.clang"
  },
  "schemaVersion": "3.3.4",
  "updatedAt": "2021-08-16T14:45:14.486Z",
  "devdoc": {
    "author": "Syndicate Inc.",
    "kind": "dev",
    "methods": {
      "getManagerInfo(address)": {
        "params": {
          "managerAddress": "The address of the manager whose info is being queried"
        },
        "returns": {
          "_0": "address of managed syndicate"
        }
      },
      "getMemberInfo(address,address)": {
        "details": "This function **must** be kept up to date with the Web3 UI when making changes. All PRs that change this function **must** be coordinated with an engineer on the Web3 Dashboard.",
        "params": {
          "memberAddress": "The address of the member whose info is being queried",
          "syndicateAddress": "The address of the Syndicate"
        },
        "returns": {
          "_0": "MemberInfo struct"
        }
      },
      "getMetadata(address,string)": {
        "params": {
          "metadataKey": "The string that is the key of the metadata to look up",
          "syndicateAddress": "The address of the Syndicate"
        },
        "returns": {
          "_0": "metadataValue as a string"
        }
      },
      "getSyndicateFeeAddress()": {
        "details": "This function is needed to allow inheriting contracts to only be able to view but not change syndicateFeeAddress without going through ownerSetSyndicateFeeAddress"
      },
      "getSyndicateValues(address)": {
        "details": "This function **must** be kept up to date with the web3 UI when making changes. All PRs that change this function or the SyndicateValues struct **must** be coordinated with an engineer on the Web3 Dashboard.",
        "params": {
          "syndicateAddress": "The address of the Syndicate"
        },
        "returns": {
          "_0": "SyndicateValues struct"
        }
      },
      "owner()": {
        "details": "Returns the address of the current owner."
      },
      "ownerSetSyndicateFeeAddress(address)": {
        "params": {
          "feeAddress": "The owner's new contract fee address"
        }
      },
      "ownerTransferOwnership(address)": {
        "params": {
          "newOwner": "The new owner's address."
        }
      },
      "renounceOwnership()": {
        "details": "Leaves the contract without owner. It will not be possible to call `onlyOwner` functions anymore. Can only be called by the current owner. NOTE: Renouncing ownership will leave the contract without an owner, thereby removing any functionality that is only available to the owner."
      },
      "transferOwnership(address)": {
        "details": "Transfers ownership of the contract to a new account (`newOwner`). Can only be called by the current owner."
      }
    },
    "version": 1
  },
  "userdoc": {
    "events": {
      "SyndicateFeeAddressUpdated(address)": {
        "notice": "The owner updates the contract fee address."
      }
    },
    "kind": "user",
    "methods": {
      "constructor": {
        "notice": "Used to initialize the Syndicate contract."
      },
      "getManagerInfo(address)": {
        "notice": "Get the manager info."
      },
      "getMemberInfo(address,address)": {
        "notice": "Get the member info for a SyndicateTo get the claimed distributions for another ERC20, use `getDistributionClaimedMember()`"
      },
      "getMetadata(address,string)": {
        "notice": "Get the metadata for a given key within a Syndicate"
      },
      "getSyndicateFeeAddress()": {
        "notice": "getter function for syndicate fee address."
      },
      "getSyndicateValues(address)": {
        "notice": "Get the values for a Syndicate"
      },
      "ownerRenounceOwnership()": {
        "notice": "Renounce ownership of the contract"
      },
      "ownerSetSyndicateFeeAddress(address)": {
        "notice": "set a new fee address for the contract function that can only be triggered by the contract owner."
      },
      "ownerTransferOwnership(address)": {
        "notice": "Transfers ownership to the provided address."
      }
    },
    "notice": "General public override controls and getters",
    "version": 1
  }
}