{
  "contractName": "SyndicateClosedEndFundDepositLogicV0",
  "abi": [
    {
      "inputs": [
        {
          "internalType": "address",
          "name": "owner",
          "type": "address"
        },
        {
          "internalType": "address",
          "name": "storeAddress",
          "type": "address"
        }
      ],
      "stateMutability": "nonpayable",
      "type": "constructor"
    },
    {
      "anonymous": false,
      "inputs": [
        {
          "indexed": true,
          "internalType": "address",
          "name": "syndicateAddress",
          "type": "address"
        },
        {
          "indexed": true,
          "internalType": "address",
          "name": "memberAddress",
          "type": "address"
        },
        {
          "indexed": false,
          "internalType": "uint256",
          "name": "amount",
          "type": "uint256"
        }
      ],
      "name": "DepositAdded",
      "type": "event"
    },
    {
      "anonymous": false,
      "inputs": [
        {
          "indexed": true,
          "internalType": "address",
          "name": "syndicateAddress",
          "type": "address"
        },
        {
          "indexed": false,
          "internalType": "uint256",
          "name": "depositMemberMax",
          "type": "uint256"
        }
      ],
      "name": "DepositMemberMaxUpdated",
      "type": "event"
    },
    {
      "anonymous": false,
      "inputs": [
        {
          "indexed": true,
          "internalType": "address",
          "name": "syndicateAddress",
          "type": "address"
        },
        {
          "indexed": false,
          "internalType": "uint256",
          "name": "depositMemberMin",
          "type": "uint256"
        }
      ],
      "name": "DepositMemberMinUpdated",
      "type": "event"
    },
    {
      "anonymous": false,
      "inputs": [
        {
          "indexed": true,
          "internalType": "address",
          "name": "syndicateAddress",
          "type": "address"
        },
        {
          "indexed": true,
          "internalType": "address",
          "name": "memberAddress",
          "type": "address"
        },
        {
          "indexed": false,
          "internalType": "uint256",
          "name": "value",
          "type": "uint256"
        }
      ],
      "name": "DepositOverridden",
      "type": "event"
    },
    {
      "anonymous": false,
      "inputs": [
        {
          "indexed": true,
          "internalType": "address",
          "name": "syndicateAddress",
          "type": "address"
        },
        {
          "indexed": true,
          "internalType": "address",
          "name": "memberAddress",
          "type": "address"
        },
        {
          "indexed": false,
          "internalType": "uint256",
          "name": "amount",
          "type": "uint256"
        },
        {
          "indexed": false,
          "internalType": "string",
          "name": "actor",
          "type": "string"
        }
      ],
      "name": "DepositRemoved",
      "type": "event"
    },
    {
      "anonymous": false,
      "inputs": [
        {
          "indexed": true,
          "internalType": "address",
          "name": "syndicateAddress",
          "type": "address"
        },
        {
          "indexed": false,
          "internalType": "uint256",
          "name": "depositTotalMax",
          "type": "uint256"
        }
      ],
      "name": "DepositTotalMaxUpdated",
      "type": "event"
    },
    {
      "anonymous": false,
      "inputs": [
        {
          "indexed": true,
          "internalType": "address",
          "name": "previousOwner",
          "type": "address"
        },
        {
          "indexed": true,
          "internalType": "address",
          "name": "newOwner",
          "type": "address"
        }
      ],
      "name": "OwnershipTransferred",
      "type": "event"
    },
    {
      "anonymous": false,
      "inputs": [
        {
          "indexed": true,
          "internalType": "address",
          "name": "contractFeeAddress",
          "type": "address"
        }
      ],
      "name": "SyndicateFeeAddressUpdated",
      "type": "event"
    },
    {
      "inputs": [],
      "name": "BASIS_POINTS_DENOMINATOR",
      "outputs": [
        {
          "internalType": "uint256",
          "name": "",
          "type": "uint256"
        }
      ],
      "stateMutability": "view",
      "type": "function"
    },
    {
      "inputs": [],
      "name": "getSyndicateFeeAddress",
      "outputs": [
        {
          "internalType": "address",
          "name": "",
          "type": "address"
        }
      ],
      "stateMutability": "view",
      "type": "function"
    },
    {
      "inputs": [],
      "name": "owner",
      "outputs": [
        {
          "internalType": "address",
          "name": "",
          "type": "address"
        }
      ],
      "stateMutability": "view",
      "type": "function"
    },
    {
      "inputs": [],
      "name": "ownerRenounceOwnership",
      "outputs": [],
      "stateMutability": "nonpayable",
      "type": "function"
    },
    {
      "inputs": [
        {
          "internalType": "address",
          "name": "feeAddress",
          "type": "address"
        }
      ],
      "name": "ownerSetSyndicateFeeAddress",
      "outputs": [],
      "stateMutability": "nonpayable",
      "type": "function"
    },
    {
      "inputs": [
        {
          "internalType": "address",
          "name": "newOwner",
          "type": "address"
        }
      ],
      "name": "ownerTransferOwnership",
      "outputs": [],
      "stateMutability": "nonpayable",
      "type": "function"
    },
    {
      "inputs": [],
      "name": "renounceOwnership",
      "outputs": [],
      "stateMutability": "nonpayable",
      "type": "function"
    },
    {
      "inputs": [
        {
          "internalType": "address",
          "name": "newOwner",
          "type": "address"
        }
      ],
      "name": "transferOwnership",
      "outputs": [],
      "stateMutability": "nonpayable",
      "type": "function"
    },
    {
      "inputs": [
        {
          "internalType": "address",
          "name": "syndicateAddress",
          "type": "address"
        },
        {
          "internalType": "uint256",
          "name": "depositMemberMin",
          "type": "uint256"
        }
      ],
      "name": "managerSetDepositMemberMin",
      "outputs": [],
      "stateMutability": "nonpayable",
      "type": "function"
    },
    {
      "inputs": [
        {
          "internalType": "address",
          "name": "syndicateAddress",
          "type": "address"
        },
        {
          "internalType": "uint256",
          "name": "depositMemberMax",
          "type": "uint256"
        }
      ],
      "name": "managerSetDepositMemberMax",
      "outputs": [],
      "stateMutability": "nonpayable",
      "type": "function"
    },
    {
      "inputs": [
        {
          "internalType": "address",
          "name": "syndicateAddress",
          "type": "address"
        },
        {
          "internalType": "uint256",
          "name": "depositTotalMax",
          "type": "uint256"
        }
      ],
      "name": "managerSetDepositTotalMax",
      "outputs": [],
      "stateMutability": "nonpayable",
      "type": "function"
    },
    {
      "inputs": [
        {
          "internalType": "address",
          "name": "syndicateAddress",
          "type": "address"
        },
        {
          "internalType": "uint256",
          "name": "amount",
          "type": "uint256"
        }
      ],
      "name": "memberDeposit",
      "outputs": [],
      "stateMutability": "nonpayable",
      "type": "function"
    },
    {
      "inputs": [
        {
          "internalType": "address",
          "name": "syndicateAddress",
          "type": "address"
        },
        {
          "internalType": "address[]",
          "name": "memberAddresses",
          "type": "address[]"
        }
      ],
      "name": "managerRejectDepositForMembers",
      "outputs": [],
      "stateMutability": "nonpayable",
      "type": "function"
    },
    {
      "inputs": [
        {
          "internalType": "address",
          "name": "syndicateAddress",
          "type": "address"
        },
        {
          "internalType": "address[]",
          "name": "memberAddresses",
          "type": "address[]"
        },
        {
          "internalType": "uint256[]",
          "name": "amounts",
          "type": "uint256[]"
        }
      ],
      "name": "managerSetDepositForMembers",
      "outputs": [],
      "stateMutability": "nonpayable",
      "type": "function"
    }
  ],
  "bytecode": "0x6080604052600280546001600160a01b0319167340db79f7f18c468c6552538b488c58b5e72bf4d91790553480156200003757600080fd5b5060405162003181380380620031818339810160408190526200005a91620001fa565b6001600081815581546001600160a01b0319163390811790925560405184928492849282919060008051602062003161833981519152908290a350620000a081620000cb565b50600380546001600160a01b0319166001600160a01b03929092169190911790555062000232915050565b6001546001600160a01b031633146200012b5760405162461bcd60e51b815260206004820181905260248201527f4f776e61626c653a2063616c6c6572206973206e6f7420746865206f776e657260448201526064015b60405180910390fd5b6001600160a01b038116620001925760405162461bcd60e51b815260206004820152602660248201527f4f776e61626c653a206e6577206f776e657220697320746865207a65726f206160448201526564647265737360d01b606482015260840162000122565b6001546040516001600160a01b038084169216906000805160206200316183398151915290600090a3600180546001600160a01b0319166001600160a01b0392909216919091179055565b80516001600160a01b0381168114620001f557600080fd5b919050565b600080604083850312156200020e57600080fd5b6200021983620001dd565b91506200022960208401620001dd565b90509250929050565b612f1f80620002426000396000f3fe608060405234801561001057600080fd5b50600436106100ea5760003560e01c8063bbea6ddb1161008c578063cad0a37311610066578063cad0a373146101b0578063cfa498a3146101c1578063dfd1fe11146101d8578063f2fde38b146101eb57600080fd5b8063bbea6ddb14610177578063bfd9a7e11461018a578063c7bc2a631461019d57600080fd5b80638da5cb5b116100c85780638da5cb5b1461011457806393b920e41461013e578063a09cca9314610151578063a325f6011461016457600080fd5b8063715018a6146100ef5780637aae909f146100f957806381abf4081461010c575b600080fd5b6100f76101fe565b005b6100f7610107366004612c93565b61027b565b6100f7610391565b6001546001600160a01b03165b6040516001600160a01b0390911681526020015b60405180910390f35b6100f761014c366004612d6b565b6103c5565b6100f761015f366004612c52565b610552565b6100f7610172366004612d6b565b610588565b6100f7610185366004612ce8565b6107d3565b6100f7610198366004612c52565b6108a8565b6100f76101ab366004612d6b565b61091c565b6002546001600160a01b0316610121565b6101ca61271081565b604051908152602001610135565b6100f76101e6366004612d6b565b6109ac565b6100f76101f9366004612c52565b610b2b565b6001546001600160a01b031633146102315760405162461bcd60e51b815260040161022890612e29565b60405180910390fd5b6001546040516000916001600160a01b0316907f8be0079c531659141344cd1fd0a4f28419497f9722a3daafe3b4186f6b6457e0908390a3600180546001600160a01b0319169055565b8261028581610c16565b8361028f81610ce1565b60005b83811015610389576003546000906001600160a01b031663181a99d0888888868181106102c1576102c1612ebe565b90506020020160208101906102d69190612c52565b6040518363ffffffff1660e01b81526004016102f3929190612dd2565b60206040518083038186803b15801561030b57600080fd5b505afa15801561031f573d6000803e3d6000fd5b505050506040513d601f19601f820116820180604052508101906103439190612db9565b90506103768787878581811061035b5761035b612ebe565b90506020020160208101906103709190612c52565b83610d97565b508061038181612e8d565b915050610292565b505050505050565b6001546001600160a01b031633146103bb5760405162461bcd60e51b815260040161022890612e29565b6103c36101fe565b565b816103cf81610c16565b826103d981610ce1565b600354604051631acd19c760e01b81526001600160a01b03868116600483015290911690631acd19c79060240160206040518083038186803b15801561041e57600080fd5b505afa158015610432573d6000803e3d6000fd5b505050506040513d601f19601f820116820180604052508101906104569190612db9565b8310156104a55760405162461bcd60e51b815260206004820152601760248201527f4d41585f544f545f4445503c4d41585f4d42525f4445500000000000000000006044820152606401610228565b60035460405163aae0c9b560e01b81526001600160a01b039091169063aae0c9b5906104d79087908790600401612e10565b600060405180830381600087803b1580156104f157600080fd5b505af1158015610505573d6000803e3d6000fd5b50505050836001600160a01b03167f68fe610006c2bf4d966fd305c0a99730c86ad8f526c4c16dd7ac85a78ea426928460405161054491815260200190565b60405180910390a250505050565b6001546001600160a01b0316331461057c5760405162461bcd60e51b815260040161022890612e29565b61058581610b2b565b50565b8161059281610c16565b8261059c81610ce1565b600354604051631b7c9fad60e11b81526001600160a01b038681166004830152909116906336f93f5a9060240160206040518083038186803b1580156105e157600080fd5b505afa1580156105f5573d6000803e3d6000fd5b505050506040513d601f19601f820116820180604052508101906106199190612db9565b8310156106685760405162461bcd60e51b815260206004820152601760248201527f4d41585f4d42525f4445503c4d494e5f4d42525f4445500000000000000000006044820152606401610228565b60035460405163b4cba69b60e01b81526001600160a01b0386811660048301529091169063b4cba69b9060240160206040518083038186803b1580156106ad57600080fd5b505afa1580156106c1573d6000803e3d6000fd5b505050506040513d601f19601f820116820180604052508101906106e59190612db9565b8311156107345760405162461bcd60e51b815260206004820152601760248201527f4d41585f4d42525f4445503e4d41585f544f545f4445500000000000000000006044820152606401610228565b60035460405163c372a54960e01b81526001600160a01b039091169063c372a549906107669087908790600401612e10565b600060405180830381600087803b15801561078057600080fd5b505af1158015610794573d6000803e3d6000fd5b50505050836001600160a01b03167f763a08cc6fc2ffc0394e6642bee1e2f3b2bf74edc98e24c4140efb103dfe050f8460405161054491815260200190565b846107dd81610c16565b856107e781610ce1565b866107f1816113b4565b8584146108375760405162461bcd60e51b815260206004820152601460248201527320a92920acafa622a723aa2429afa224a32322a960611b6044820152606401610228565b60005b8681101561089d5761088b8989898481811061085857610858612ebe565b905060200201602081019061086d9190612c52565b88888581811061087f5761087f612ebe565b90506020020135611472565b8061089581612e8d565b91505061083a565b505050505050505050565b6001546001600160a01b031633146108d25760405162461bcd60e51b815260040161022890612e29565b600280546001600160a01b0319166001600160a01b0383169081179091556040517fcf41d0875fade187fa408cd5e4f56e25cda2fae1cff91d42f08c1db396349a2d90600090a250565b6002600054141561096f5760405162461bcd60e51b815260206004820152601f60248201527f5265656e7472616e637947756172643a207265656e7472616e742063616c6c006044820152606401610228565b60026000558161097e81611da9565b8261098881611e75565b83336109948282611f31565b61099f863387612079565b5050600160005550505050565b816109b681610c16565b826109c081610ce1565b600354604051631acd19c760e01b81526001600160a01b03868116600483015290911690631acd19c79060240160206040518083038186803b158015610a0557600080fd5b505afa158015610a19573d6000803e3d6000fd5b505050506040513d601f19601f82011682018060405250810190610a3d9190612db9565b831115610a8c5760405162461bcd60e51b815260206004820152601760248201527f4d494e5f4d42525f4445503e4d41585f4d42525f4445500000000000000000006044820152606401610228565b600354604051639ea0c2e560e01b81526001600160a01b0390911690639ea0c2e590610abe9087908790600401612e10565b600060405180830381600087803b158015610ad857600080fd5b505af1158015610aec573d6000803e3d6000fd5b50505050836001600160a01b03167f872d93dfdff887cbb3b2860fc94587efc6956cf04b8172ed985f1d2963f902b48460405161054491815260200190565b6001546001600160a01b03163314610b555760405162461bcd60e51b815260040161022890612e29565b6001600160a01b038116610bba5760405162461bcd60e51b815260206004820152602660248201527f4f776e61626c653a206e6577206f776e657220697320746865207a65726f206160448201526564647265737360d01b6064820152608401610228565b6001546040516001600160a01b038084169216907f8be0079c531659141344cd1fd0a4f28419497f9722a3daafe3b4186f6b6457e090600090a3600180546001600160a01b0319166001600160a01b0392909216919091179055565b600354604051630e8aef6f60e41b81526001600160a01b0383811660048301529091169063e8aef6f09060240160206040518083038186803b158015610c5b57600080fd5b505afa158015610c6f573d6000803e3d6000fd5b505050506040513d601f19601f82011682018060405250810190610c939190612c76565b6001600160a01b0316336001600160a01b0316146105855760405162461bcd60e51b815260206004820152600b60248201526a29a2292fa727aa2fa6a3a960a91b6044820152606401610228565b60035460405163172a8c1f60e31b81526001600160a01b0383811660048301529091169063b95460f89060240160206040518083038186803b158015610d2657600080fd5b505afa158015610d3a573d6000803e3d6000fd5b505050506040513d601f19601f82011682018060405250810190610d5e9190612d97565b6105855760405162461bcd60e51b815260206004820152600a60248201526914d65397d0d313d4d15160b21b6044820152606401610228565b610d9f612b46565b60008111610dd85760405162461bcd60e51b815260206004820152600660248201526505754483c3d360d41b6044820152606401610228565b600354604051630181a99d60e41b81526001600160a01b039091169063181a99d090610e0a9086908690600401612dd2565b60206040518083038186803b158015610e2257600080fd5b505afa158015610e36573d6000803e3d6000fd5b505050506040513d601f19601f82011682018060405250810190610e5a9190612db9565b811115610e935760405162461bcd60e51b815260206004820152600760248201526615d5120f90905360ca1b6044820152606401610228565b600354604051630181a99d60e41b81526001600160a01b0390911690631e0dbc9f90859085908590859063181a99d090610ed39086908690600401612dd2565b60206040518083038186803b158015610eeb57600080fd5b505afa158015610eff573d6000803e3d6000fd5b505050506040513d601f19601f82011682018060405250810190610f239190612db9565b610f2d9190612e76565b6040518463ffffffff1660e01b8152600401610f4b93929190612dec565b600060405180830381600087803b158015610f6557600080fd5b505af1158015610f79573d6000803e3d6000fd5b50506003546040516335869d0960e11b81526001600160a01b038781166004830152909116925063220912849150859084908490636b0d3a129060240160206040518083038186803b158015610fce57600080fd5b505afa158015610fe2573d6000803e3d6000fd5b505050506040513d601f19601f820116820180604052508101906110069190612db9565b6110109190612e76565b6040518363ffffffff1660e01b815260040161102d929190612e10565b600060405180830381600087803b15801561104757600080fd5b505af115801561105b573d6000803e3d6000fd5b5050600354604051630181a99d60e41b81526001600160a01b03909116925063181a99d091506110919086908690600401612dd2565b60206040518083038186803b1580156110a957600080fd5b505afa1580156110bd573d6000803e3d6000fd5b505050506040513d601f19601f820116820180604052508101906110e19190612db9565b6111c95760035460405163e396ae9b60e01b81526001600160a01b038581166004830152909116906303d457c4908590600190849063e396ae9b9060240160206040518083038186803b15801561113757600080fd5b505afa15801561114b573d6000803e3d6000fd5b505050506040513d601f19601f8201168201806040525081019061116f9190612db9565b6111799190612e76565b6040518363ffffffff1660e01b8152600401611196929190612e10565b600060405180830381600087803b1580156111b057600080fd5b505af11580156111c4573d6000803e3d6000fd5b505050505b600354604051631c79211f60e11b81526001600160a01b03858116600483015260009216906338f2423e9060240160206040518083038186803b15801561120f57600080fd5b505afa158015611223573d6000803e3d6000fd5b505050506040513d601f19601f820116820180604052508101906112479190612c76565b600354604051630e8aef6f60e41b81526001600160a01b038781166004830152929350828416926323b872dd92169063e8aef6f09060240160206040518083038186803b15801561129757600080fd5b505afa1580156112ab573d6000803e3d6000fd5b505050506040513d601f19601f820116820180604052508101906112cf9190612c76565b85856040518463ffffffff1660e01b81526004016112ef93929190612dec565b602060405180830381600087803b15801561130957600080fd5b505af115801561131d573d6000803e3d6000fd5b505050506040513d601f19601f820116820180604052508101906113419190612d97565b50826001600160a01b0316846001600160a01b03167fbabf2b38bcc4331d41deba152c55e7095d94034be06799969304d10f55231b15846040516113a69181526040602082018190526007908201526636b0b730b3b2b960c91b606082015260800190565b60405180910390a350505050565b60035460405163adc1017f60e01b81526001600160a01b0383811660048301529091169063adc1017f9060240160206040518083038186803b1580156113f957600080fd5b505afa15801561140d573d6000803e3d6000fd5b505050506040513d601f19601f820116820180604052508101906114319190612d97565b6105855760405162461bcd60e51b815260206004820152601260248201527153594e5f4e4f545f4d4f4449464941424c4560701b6044820152606401610228565b336001600160a01b03831614156114b95760405162461bcd60e51b815260206004820152600b60248201526a29a2292fa727aa2fa6a12960a91b6044820152606401610228565b600354604051630181a99d60e41b81526001600160a01b039091169063181a99d0906114eb9086908690600401612dd2565b60206040518083038186803b15801561150357600080fd5b505afa158015611517573d6000803e3d6000fd5b505050506040513d601f19601f8201168201806040525081019061153b9190612db9565b6003546040516335869d0960e11b81526001600160a01b03868116600483015290911690636b0d3a129060240160206040518083038186803b15801561158057600080fd5b505afa158015611594573d6000803e3d6000fd5b505050506040513d601f19601f820116820180604052508101906115b89190612db9565b6115c490600019612e76565b6115ce9190612e76565b811061160b5760405162461bcd60e51b815260206004820152600c60248201526b2222a81f1eaaa4a72a191a9b60a11b6044820152606401610228565b806116ca57600354604051630181a99d60e41b81526001600160a01b039091169063181a99d0906116429086908690600401612dd2565b60206040518083038186803b15801561165a57600080fd5b505afa15801561166e573d6000803e3d6000fd5b505050506040513d601f19601f820116820180604052508101906116929190612db9565b6116ca5760405162461bcd60e51b81526020600482015260096024820152684e4f5f4348414e474560b81b6044820152606401610228565b600354604051630181a99d60e41b81526000916001600160a01b03169063181a99d0906116fd9087908790600401612dd2565b60206040518083038186803b15801561171557600080fd5b505afa158015611729573d6000803e3d6000fd5b505050506040513d601f19601f8201168201806040525081019061174d9190612db9565b600354604051631e0dbc9f60e01b81529192506001600160a01b031690631e0dbc9f9061178290879087908790600401612dec565b600060405180830381600087803b15801561179c57600080fd5b505af11580156117b0573d6000803e3d6000fd5b5050505060008282111561199e576117c88383612e76565b6003546040516335869d0960e11b81526001600160a01b038881166004830152929350911690632209128490879084908490636b0d3a129060240160206040518083038186803b15801561181b57600080fd5b505afa15801561182f573d6000803e3d6000fd5b505050506040513d601f19601f820116820180604052508101906118539190612db9565b61185d9190612e76565b6040518363ffffffff1660e01b815260040161187a929190612e10565b600060405180830381600087803b15801561189457600080fd5b505af11580156118a8573d6000803e3d6000fd5b5050505082600014156119995760035460405163e396ae9b60e01b81526001600160a01b038781166004830152909116906303d457c4908790600190849063e396ae9b9060240160206040518083038186803b15801561190757600080fd5b505afa15801561191b573d6000803e3d6000fd5b505050506040513d601f19601f8201168201806040525081019061193f9190612db9565b6119499190612e76565b6040518363ffffffff1660e01b8152600401611966929190612e10565b600060405180830381600087803b15801561198057600080fd5b505af1158015611994573d6000803e3d6000fd5b505050505b611d55565b82821015611d55576119b08284612e76565b6003546040516335869d0960e11b81526001600160a01b038881166004830152929350911690632209128490879084908490636b0d3a129060240160206040518083038186803b158015611a0357600080fd5b505afa158015611a17573d6000803e3d6000fd5b505050506040513d601f19601f82011682018060405250810190611a3b9190612db9565b611a459190612e5e565b6040518363ffffffff1660e01b8152600401611a62929190612e10565b600060405180830381600087803b158015611a7c57600080fd5b505af1158015611a90573d6000803e3d6000fd5b505050508160001415611d555760035460405163e396ae9b60e01b81526001600160a01b038781166004830152909116906303d457c4908790839063e396ae9b9060240160206040518083038186803b158015611aec57600080fd5b505afa158015611b00573d6000803e3d6000fd5b505050506040513d601f19601f82011682018060405250810190611b249190612db9565b611b2f906001612e5e565b6040518363ffffffff1660e01b8152600401611b4c929190612e10565b600060405180830381600087803b158015611b6657600080fd5b505af1158015611b7a573d6000803e3d6000fd5b5050600354604051631b1187f760e11b81526001600160a01b03898116600483015290911692506336230fee915060240160206040518083038186803b158015611bc357600080fd5b505afa158015611bd7573d6000803e3d6000fd5b505050506040513d601f19601f82011682018060405250810190611bfb9190612db9565b60035460405163e396ae9b60e01b81526001600160a01b0388811660048301529091169063e396ae9b9060240160206040518083038186803b158015611c4057600080fd5b505afa158015611c54573d6000803e3d6000fd5b505050506040513d601f19601f82011682018060405250810190611c789190612db9565b1115611d555760035460405163e396ae9b60e01b81526001600160a01b03878116600483015290911690632f2efee0908790839063e396ae9b9060240160206040518083038186803b158015611ccd57600080fd5b505afa158015611ce1573d6000803e3d6000fd5b505050506040513d601f19601f82011682018060405250810190611d059190612db9565b6040518363ffffffff1660e01b8152600401611d22929190612e10565b600060405180830381600087803b158015611d3c57600080fd5b505af1158015611d50573d6000803e3d6000fd5b505050505b836001600160a01b0316856001600160a01b03167fcbf098112963b5c0a03950bf81e64ce29be6cd90df3b150f1626c995c2f5134385604051611d9a91815260200190565b60405180910390a35050505050565b600354604051630e8aef6f60e41b81526001600160a01b0383811660048301529091169063e8aef6f09060240160206040518083038186803b158015611dee57600080fd5b505afa158015611e02573d6000803e3d6000fd5b505050506040513d601f19601f82011682018060405250810190611e269190612c76565b6001600160a01b0316336001600160a01b031614156105855760405162461bcd60e51b815260206004820152600b60248201526a29a2292fa727aa2fa6a12960a91b6044820152606401610228565b60035460405163e32bf38d60e01b81526001600160a01b0383811660048301524292169063e32bf38d9060240160206040518083038186803b158015611eba57600080fd5b505afa158015611ece573d6000803e3d6000fd5b505050506040513d601f19601f82011682018060405250810190611ef29190612db9565b116105855760405162461bcd60e51b815260206004820152600f60248201526e504153545f434c4f53455f4441544560881b6044820152606401610228565b6003546040516331dcbbdb60e21b81526001600160a01b0384811660048301529091169063c772ef6c9060240160206040518083038186803b158015611f7657600080fd5b505afa158015611f8a573d6000803e3d6000fd5b505050506040513d601f19601f82011682018060405250810190611fae9190612d97565b1580612037575060035460405163d98c07b760e01b81526001600160a01b039091169063d98c07b790611fe79085908590600401612dd2565b60206040518083038186803b158015611fff57600080fd5b505afa158015612013573d6000803e3d6000fd5b505050506040513d601f19601f820116820180604052508101906120379190612d97565b6120755760405162461bcd60e51b815260206004820152600f60248201526e13509497d393d517d0531313d5d151608a1b6044820152606401610228565b5050565b612081612b46565b600081116120ba5760405162461bcd60e51b815260206004820152600660248201526504445503c3d360d41b6044820152606401610228565b6003546040516335869d0960e11b81526001600160a01b03858116600483015283921690636b0d3a129060240160206040518083038186803b1580156120ff57600080fd5b505afa158015612113573d6000803e3d6000fd5b505050506040513d601f19601f820116820180604052508101906121379190612db9565b6121419190612e5e565b60035460405163b4cba69b60e01b81526001600160a01b0386811660048301529091169063b4cba69b9060240160206040518083038186803b15801561218657600080fd5b505afa15801561219a573d6000803e3d6000fd5b505050506040513d601f19601f820116820180604052508101906121be9190612db9565b10156121fe5760405162461bcd60e51b815260206004820152600f60248201526e04445503e4d41585f544f545f44455608c1b6044820152606401610228565b600354604051630181a99d60e41b81526001600160a01b039091169063181a99d0906122309086908690600401612dd2565b60206040518083038186803b15801561224857600080fd5b505afa15801561225c573d6000803e3d6000fd5b505050506040513d601f19601f820116820180604052508101906122809190612db9565b6123be57600354604051631b1187f760e11b81526001600160a01b038581166004830152909116906336230fee9060240160206040518083038186803b1580156122c957600080fd5b505afa1580156122dd573d6000803e3d6000fd5b505050506040513d601f19601f820116820180604052508101906123019190612db9565b60035460405163e396ae9b60e01b81526001600160a01b0386811660048301529091169063e396ae9b9060240160206040518083038186803b15801561234657600080fd5b505afa15801561235a573d6000803e3d6000fd5b505050506040513d601f19601f8201168201806040525081019061237e9190612db9565b106123be5760405162461bcd60e51b815260206004820152601060248201526f13505617d3509494d7d4915050d2115160821b6044820152606401610228565b600354604051630181a99d60e41b815282916001600160a01b03169063181a99d0906123f09087908790600401612dd2565b60206040518083038186803b15801561240857600080fd5b505afa15801561241c573d6000803e3d6000fd5b505050506040513d601f19601f820116820180604052508101906124409190612db9565b61244a9190612e5e565b600354604051631b7c9fad60e11b81526001600160a01b038681166004830152909116906336f93f5a9060240160206040518083038186803b15801561248f57600080fd5b505afa1580156124a3573d6000803e3d6000fd5b505050506040513d601f19601f820116820180604052508101906124c79190612db9565b11156125095760405162461bcd60e51b81526020600482015260116024820152700303c42414c3c4d494e5f4d42525f44455607c1b6044820152606401610228565b600354604051630181a99d60e41b815282916001600160a01b03169063181a99d09061253b9087908790600401612dd2565b60206040518083038186803b15801561255357600080fd5b505afa158015612567573d6000803e3d6000fd5b505050506040513d601f19601f8201168201806040525081019061258b9190612db9565b6125959190612e5e565b600354604051631acd19c760e01b81526001600160a01b03868116600483015290911690631acd19c79060240160206040518083038186803b1580156125da57600080fd5b505afa1580156125ee573d6000803e3d6000fd5b505050506040513d601f19601f820116820180604052508101906126129190612db9565b10156126525760405162461bcd60e51b815260206004820152600f60248201526e042414c3e4d41585f4d42525f44455608c1b6044820152606401610228565b600354604051631c79211f60e11b81526001600160a01b03858116600483015260009216906338f2423e9060240160206040518083038186803b15801561269857600080fd5b505afa1580156126ac573d6000803e3d6000fd5b505050506040513d601f19601f820116820180604052508101906126d09190612c76565b600354604051630e8aef6f60e41b81526001600160a01b038781166004830152929350828416926323b872dd92879291169063e8aef6f09060240160206040518083038186803b15801561272357600080fd5b505afa158015612737573d6000803e3d6000fd5b505050506040513d601f19601f8201168201806040525081019061275b9190612c76565b856040518463ffffffff1660e01b815260040161277a93929190612dec565b602060405180830381600087803b15801561279457600080fd5b505af11580156127a8573d6000803e3d6000fd5b505050506040513d601f19601f820116820180604052508101906127cc9190612d97565b50600354604051630181a99d60e41b81526001600160a01b039091169063181a99d0906127ff9087908790600401612dd2565b60206040518083038186803b15801561281757600080fd5b505afa15801561282b573d6000803e3d6000fd5b505050506040513d601f19601f8201168201806040525081019061284f9190612db9565b6129355760035460405163e396ae9b60e01b81526001600160a01b038681166004830152909116906303d457c4908690839063e396ae9b9060240160206040518083038186803b1580156128a257600080fd5b505afa1580156128b6573d6000803e3d6000fd5b505050506040513d601f19601f820116820180604052508101906128da9190612db9565b6128e5906001612e5e565b6040518363ffffffff1660e01b8152600401612902929190612e10565b600060405180830381600087803b15801561291c57600080fd5b505af1158015612930573d6000803e3d6000fd5b505050505b600354604051630181a99d60e41b81526001600160a01b0390911690631e0dbc9f90869086908690859063181a99d0906129759086908690600401612dd2565b60206040518083038186803b15801561298d57600080fd5b505afa1580156129a1573d6000803e3d6000fd5b505050506040513d601f19601f820116820180604052508101906129c59190612db9565b6129cf9190612e5e565b6040518463ffffffff1660e01b81526004016129ed93929190612dec565b600060405180830381600087803b158015612a0757600080fd5b505af1158015612a1b573d6000803e3d6000fd5b50506003546040516335869d0960e11b81526001600160a01b038881166004830152909116925063220912849150869085908490636b0d3a129060240160206040518083038186803b158015612a7057600080fd5b505afa158015612a84573d6000803e3d6000fd5b505050506040513d601f19601f82011682018060405250810190612aa89190612db9565b612ab29190612e5e565b6040518363ffffffff1660e01b8152600401612acf929190612e10565b600060405180830381600087803b158015612ae957600080fd5b505af1158015612afd573d6000803e3d6000fd5b50505050826001600160a01b0316846001600160a01b03167f63d8d7d5e63e9840ec91a12a160d27b7cfab294f6ba070b7359692acfe6b03bf846040516113a691815260200190565b60035460405163ad74c29960e01b81523060048201526001600160a01b039091169063ad74c2999060240160206040518083038186803b158015612b8957600080fd5b505afa158015612b9d573d6000803e3d6000fd5b505050506040513d601f19601f82011682018060405250810190612bc19190612d97565b6103c35760405162461bcd60e51b81526020600482015260166024820152751253959053125117d313d1d250d7d0d3d395149050d560521b6044820152606401610228565b60008083601f840112612c1857600080fd5b50813567ffffffffffffffff811115612c3057600080fd5b6020830191508360208260051b8501011115612c4b57600080fd5b9250929050565b600060208284031215612c6457600080fd5b8135612c6f81612ed4565b9392505050565b600060208284031215612c8857600080fd5b8151612c6f81612ed4565b600080600060408486031215612ca857600080fd5b8335612cb381612ed4565b9250602084013567ffffffffffffffff811115612ccf57600080fd5b612cdb86828701612c06565b9497909650939450505050565b600080600080600060608688031215612d0057600080fd5b8535612d0b81612ed4565b9450602086013567ffffffffffffffff80821115612d2857600080fd5b612d3489838a01612c06565b90965094506040880135915080821115612d4d57600080fd5b50612d5a88828901612c06565b969995985093965092949392505050565b60008060408385031215612d7e57600080fd5b8235612d8981612ed4565b946020939093013593505050565b600060208284031215612da957600080fd5b81518015158114612c6f57600080fd5b600060208284031215612dcb57600080fd5b5051919050565b6001600160a01b0392831681529116602082015260400190565b6001600160a01b039384168152919092166020820152604081019190915260600190565b6001600160a01b03929092168252602082015260400190565b6020808252818101527f4f776e61626c653a2063616c6c6572206973206e6f7420746865206f776e6572604082015260600190565b60008219821115612e7157612e71612ea8565b500190565b600082821015612e8857612e88612ea8565b500390565b6000600019821415612ea157612ea1612ea8565b5060010190565b634e487b7160e01b600052601160045260246000fd5b634e487b7160e01b600052603260045260246000fd5b6001600160a01b038116811461058557600080fdfea2646970667358221220afba9603584a2ca3a482387c4e1104601fc1c1c1a41fd7d7949a929ee8087a3964736f6c634300080700338be0079c531659141344cd1fd0a4f28419497f9722a3daafe3b4186f6b6457e0",
  "immutableReferences": {},
  "source": "// SPDX-License-Identifier: UNLICENSED\n\npragma solidity ^0.8.0;\n\nimport \"@openzeppelin/contracts/token/ERC20/utils/SafeERC20.sol\";\nimport \"./SyndicateClosedEndFundLogic.sol\";\nimport \"./interfaces/ISyndicateClosedEndFundDepositLogicV0.sol\";\n\n/// @author Syndicate Inc.\n/// @notice Handle member deposit accounting and ERC20 transfers\ncontract SyndicateClosedEndFundDepositLogicV0 is\n    ISyndicateClosedEndFundDepositLogicV0,\n    SyndicateClosedEndFundLogic\n{\n    using SafeERC20 for IERC20;\n\n    // Storage------------------------------------------------------------------\n\n    /// @notice Used to initialize the Syndicate contract.\n    constructor(address owner, address storeAddress)\n        SyndicateClosedEndFundLogic(owner, storeAddress)\n    {}\n\n    // Events-------------------------------------------------------------------\n\n    /// @notice A manager updates the minimum deposit amount per wallet address.\n    event DepositMemberMinUpdated(\n        address indexed syndicateAddress,\n        uint256 depositMemberMin\n    );\n\n    /// @notice A manager updates the maximum deposit amount per wallet address.\n    event DepositMemberMaxUpdated(\n        address indexed syndicateAddress,\n        uint256 depositMemberMax\n    );\n\n    /// @notice A manager updates the maximum total deposit amount.\n    event DepositTotalMaxUpdated(\n        address indexed syndicateAddress,\n        uint256 depositTotalMax\n    );\n\n    /// @notice A member deposits into a syndicate.\n    /// @dev This is the only way to search for a member's Syndicates. The\n    /// Syndicates on chain rely on a mapping, so they are not iterable.\n    /// Instead, it's necessary to search through an indexed memberAddress\n    /// off-chain to get a list of a member's Syndicates for screens such as the\n    /// My Syndicates screen.\n    /// @dev This must be reconciled with `DepositRemoved` events to get\n    /// a list of all Syndicates for which a member has a nonzero deposit.\n    event DepositAdded(\n        address indexed syndicateAddress,\n        address indexed memberAddress,\n        uint256 amount\n    );\n\n    /// @notice A member withdraws a deposit or a manager rejects a member's deposit.\n    /// @dev `actor` is used to differentiate between who is triggering the\n    /// event emission. Current options are \"member\" and \"manager\", but more\n    /// may be introduced (e.g. \"integration\").\n    event DepositRemoved(\n        address indexed syndicateAddress,\n        address indexed memberAddress,\n        uint256 amount,\n        string actor\n    );\n\n    /// @notice A manager overrides a member's balance with a new value.\n    /// Applicable to `modifiable` Syndicates only.\n    /// @dev The balance emitted is the new value, not the change in value.\n    event DepositOverridden(\n        address indexed syndicateAddress,\n        address indexed memberAddress,\n        uint256 value\n    );\n\n    // Functions----------------------------------------------------------------\n\n    /// @notice Set the minimum deposit per wallet address. This is the minimum\n    /// that a single member can contribute to the Syndicate\n    /// @param syndicateAddress The address of the Syndicate\n    /// @param depositMemberMin The minimum deposit amount per member. Must not\n    /// exceed the current `depositMemberMax`.\n    function managerSetDepositMemberMin(\n        address syndicateAddress,\n        uint256 depositMemberMin\n    ) public override onlyManager(syndicateAddress) onlyOpen(syndicateAddress) {\n        require(\n            depositMemberMin <= store.depositMemberMax(syndicateAddress),\n            \"MIN_MBR_DEP>MAX_MBR_DEP\"\n        );\n\n        store.setDepositMemberMin(syndicateAddress, depositMemberMin);\n\n        emit DepositMemberMinUpdated(syndicateAddress, depositMemberMin);\n    }\n\n    /// @notice Set the maximum deposit per wallet address. This is the maximum\n    /// that a single member can contribute to the Syndicate\n    /// @param syndicateAddress The address of the Syndicate\n    /// @param depositMemberMax The maximum deposit amount per user. Must be at\n    /// least the current `depositMemberMin`, and cannot exceed the current\n    /// `depositTotalMax`.\n    function managerSetDepositMemberMax(\n        address syndicateAddress,\n        uint256 depositMemberMax\n    ) public override onlyManager(syndicateAddress) onlyOpen(syndicateAddress) {\n        require(\n            depositMemberMax >= store.depositMemberMin(syndicateAddress),\n            \"MAX_MBR_DEP<MIN_MBR_DEP\"\n        );\n        require(\n            depositMemberMax <= store.depositTotalMax(syndicateAddress),\n            \"MAX_MBR_DEP>MAX_TOT_DEP\"\n        );\n\n        store.setDepositMemberMax(syndicateAddress, depositMemberMax);\n\n        emit DepositMemberMaxUpdated(syndicateAddress, depositMemberMax);\n    }\n\n    /// @notice Set the maximum total deposit amount. This is the maximum\n    /// that all members combined can contribute to the Syndicate\n    /// @param syndicateAddress The address of the Syndicate\n    /// @param depositTotalMax The maximum total number of deposits. Must be\n    /// at least the current `depositMemberMax`.\n    /// @notice `depositTotalMax` is not required to be at least `depositTotal`.\n    /// Setting `depositTotalMax` to be less than `depositTotal` can be thought\n    /// of as a simple way to cut off deposits if the Syndicate has grown too\n    /// large.\n    function managerSetDepositTotalMax(\n        address syndicateAddress,\n        uint256 depositTotalMax\n    ) public override onlyManager(syndicateAddress) onlyOpen(syndicateAddress) {\n        require(\n            depositTotalMax >= store.depositMemberMax(syndicateAddress),\n            \"MAX_TOT_DEP<MAX_MBR_DEP\"\n        );\n\n        store.setDepositTotalMax(syndicateAddress, depositTotalMax);\n\n        emit DepositTotalMaxUpdated(syndicateAddress, depositTotalMax);\n    }\n\n    /// @notice Used by a member to make a deposit to an open Syndicate.\n    /// @param syndicateAddress The Syndicate that a member is depositing to\n    /// @param amount The amount to be transferred from the member's wallet,\n    /// valued in the Syndicate's deposit ERC20 token\n    /// @notice If a manager is issuing a Syndicate under SEC Rule 506(b) of\n    /// Regulation D, a manager should only add a member's address(es) to the\n    /// allowlist if the member attests that they are an accredited investor.\n    /// This is also highlighted in the web interface, but it is not a\n    /// requirement of the smart contract since not all Syndicates are\n    /// securities, nor are all Syndicates that are securities necessarily\n    /// 506(b) offerings (they could be 506(c) offerings for example).\n    /// @notice Under Rule 506(b), up to 35 non-accredited investors can invest\n    /// in a private placement. These non-accredited investors must have\n    /// sufficient knowledge and experience, which is difficult to verify in a\n    /// decentralized context. As a result, we leave it up to the Syndicate\n    /// manager to track their own list of up to 35 non-accredited investors and\n    /// add them to the allowlist. The Syndicate manager must provide\n    /// disclosures to non-accredited investors that comply with Regulation A\n    /// offerings, give non-accredited investors financial statement\n    /// information specified in Rule 506, and be available to answer questions\n    /// from potential members who are non-accredited investors. This\n    /// responsibility rests with the Syndicate manager. See\n    /// https://www.sec.gov/smallbusiness/exemptofferings/rule506b\n    /// @notice Nothing in this documentation should be considered legal\n    /// advice. If you are seeking any clarification, please email us at\n    /// hello[at]syndicateprotocol.org.\n    /// @dev The member's deposit is associated with the address of `msg.\n    /// sender`. The member can later transfer their deposit (and therefore\n    /// their ownership stake) to another address if the manager has set the\n    /// Syndicate as `transferable`.\n    function memberDeposit(address syndicateAddress, uint256 amount)\n        public\n        override\n        nonReentrant()\n        onlyNotManager(syndicateAddress)\n        onlyBeforeDateClose(syndicateAddress)\n        enforceAllowlist(syndicateAddress, msg.sender)\n    {\n        _deposit(syndicateAddress, msg.sender, amount);\n    }\n\n    /// @notice Used by a manager to reject a member's deposit\n    /// @param syndicateAddress The Syndicate that the member deposited in\n    /// @param memberAddresses The members whose WHOLE contribution is being\n    /// returned\n    function managerRejectDepositForMembers(\n        address syndicateAddress,\n        address[] calldata memberAddresses\n    ) public override onlyManager(syndicateAddress) onlyOpen(syndicateAddress) {\n        for (uint256 i = 0; i < memberAddresses.length; i++) {\n            uint256 returnAmount = store.depositMember(\n                syndicateAddress,\n                memberAddresses[i]\n            );\n\n            _returnDeposit(syndicateAddress, memberAddresses[i], returnAmount);\n        }\n    }\n\n    /// @notice Used by a manager to manually adjust the deposit amount for\n    /// multiple member address (e.g. in response to off-chain transactions).\n    /// This function **does not** enforce constraints on `depositMemberMin`,\n    /// `depositMemberMax`, `depositTotalMax`, or `numMembersMax`. However, it\n    /// **does** update bookkeeping of `depositTotal` and `numMembersCurrent`.\n    /// @param syndicateAddress The address of the Syndicate\n    /// @param memberAddresses The addresses of the member whose deposit is\n    /// being adjusted\n    /// @param amounts The new deposit amount to be set for the corresponding\n    /// index in the memberAddresses array. These arrays must be the same\n    /// length. Note that the new amount completely replaces the prior deposit\n    /// amount for the member. It does not add or subtract from it.\n    /// @notice This function can only be called if the Syndicate is modifiable.\n    /// The modifiable boolean is set by the manager on creation and cannot be\n    /// changed after the Syndicate is created.\n    /// @notice This function can only be called before distributions have been\n    /// enabled (though the Syndicate may be closed to deposits). If\n    /// distributions have already been enabled, then changing deposit amounts\n    /// could affect the ownership share of unclaimed distributions and create\n    /// significant problems for other members.\n    function managerSetDepositForMembers(\n        address syndicateAddress,\n        address[] calldata memberAddresses,\n        uint256[] calldata amounts\n    )\n        public\n        override\n        onlyManager(syndicateAddress)\n        onlyOpen(syndicateAddress)\n        onlyModifiable(syndicateAddress)\n    {\n        require(\n            memberAddresses.length == amounts.length,\n            \"ARRAY_LENGTHS_DIFFER\"\n        );\n\n        for (uint256 i = 0; i < memberAddresses.length; i++) {\n            _setDeposit(syndicateAddress, memberAddresses[i], amounts[i]);\n        }\n    }\n\n    // Internal functions-------------------------------------------------------\n\n    /// @notice Process a deposit to a Syndicate.\n    /// @param syndicateAddress The address of the Syndicate\n    /// @param memberAddress The address of the member who is depositing\n    /// @param amount The amount that `memberAddress` is depositing, in the\n    /// token defined by the Syndicate's depositERC20Address\n    /// @dev This function is high risk. If the `.transferFrom` line can be\n    /// redirected elsewhere, deposits could be stolen. In addition, if the\n    /// deposits are not properly tracked, a user could withdraw more than their\n    /// allocated share of the distributions.\n    function _deposit(\n        address syndicateAddress,\n        address memberAddress,\n        uint256 amount\n    ) internal onlyLogicContractAllowedGuard() {\n        // Without this line, a member could spam deposits of 0. It is\n        // additionally necessary to protect `_processDeposit` from\n        // incrementing `numMembersCurrent` when a member with a deposit of 0\n        // deposits 0.\n        require(amount > 0, \"DEP<=0\");\n\n        // Check that this deposit will not surpass the fund's depositTotalMax\n        require(\n            store.depositTotalMax(syndicateAddress) >=\n                store.depositTotal(syndicateAddress) + amount,\n            \"DEP>MAX_TOT_DEP\"\n        );\n\n        // If this is the member's first deposit to the Syndicate, check that\n        // the Syndicate has not already received deposits from its maximum\n        // number of members\n        if (store.depositMember(syndicateAddress, memberAddress) == 0) {\n            require(\n                store.numMembersCurrent(syndicateAddress) <\n                    store.numMembersMax(syndicateAddress),\n                \"MAX_MBRS_REACHED\"\n            );\n        }\n\n        // Check that the member's balance will not be below `depositMemberMin`\n        // AFTER the execution of this deposit\n        require(\n            store.depositMemberMin(syndicateAddress) <=\n                store.depositMember(syndicateAddress, memberAddress) + amount,\n            \"0<BAL<MIN_MBR_DEP\"\n        );\n\n        // Check that this deposit will not cause the member to surpass\n        // `depositMemberMax`\n        require(\n            store.depositMemberMax(syndicateAddress) >=\n                store.depositMember(syndicateAddress, memberAddress) + amount,\n            \"BAL>MAX_MBR_DEP\"\n        );\n\n        // Cannot follow the Checks-Effects-Interactions-Pattern to prevent\n        // reentrancy attacks because we do not know the balance of the token\n        // until after the transfer (to handle tokens that take a fee).\n        // Instead, we use a nonReentrant() modifier via ReentrancyGuard on\n        // memberDeposit()\n        IERC20 depositERC20 = IERC20(\n            store.depositERC20Address(syndicateAddress)\n        );\n\n        depositERC20.transferFrom(\n            memberAddress,\n            store.managerCurrent(syndicateAddress),\n            amount\n        );\n\n        // If this is a first-time depositor, increment the number of members\n        if (store.depositMember(syndicateAddress, memberAddress) == 0) {\n            store.setNumMembersCurrent(\n                syndicateAddress,\n                store.numMembersCurrent(syndicateAddress) + 1\n            );\n        }\n\n        store.setDepositMember(\n            syndicateAddress,\n            memberAddress,\n            store.depositMember(syndicateAddress, memberAddress) + amount\n        );\n\n        store.setDepositTotal(\n            syndicateAddress,\n            store.depositTotal(syndicateAddress) + amount\n        );\n\n        emit DepositAdded(syndicateAddress, memberAddress, amount);\n    }\n\n    /// @notice Process returning of deposits to a member.\n    /// @param syndicateAddress The address of the Syndicate\n    /// @param memberAddress The deposit amount for `memberAddress` that manager\n    ///  is rejecting\n    /// @param amount The amount that `memberAddress` is depositing, in the\n    /// token defined by the Syndicate's depositERC20Address.\n    /// @notice A manager can return some of the deposit, this action is not\n    /// limited by minimum member deposit. The final member deposit can be\n    /// below depositMemberMin.\n    /// @dev This function is high risk. If the `.transferFrom` line can be\n    /// redirected elsewhere, returned deposits could be stolen. In addition, if the\n    /// deposits are not properly tracked, a user could receive more than their\n    /// allocated share of the returned deposits.\n    function _returnDeposit(\n        address syndicateAddress,\n        address memberAddress,\n        uint256 amount\n    ) internal onlyLogicContractAllowedGuard() {\n        // Without this line, a manager could spam rejction amounts of 0. It is\n        // additionally necessary to protect `_returnDeposit` from\n        // decrementing `numMembersCurrent` when a member with a deposit of 0\n        // withdraws 0.\n        require(amount > 0, \"WTH<=0\");\n\n        // HIGH RISK: Without this line, a manager could return more than\n        // a member put into the fund.\n        require(\n            amount <= store.depositMember(syndicateAddress, memberAddress),\n            \"WTH>BAL\"\n        );\n\n        store.setDepositMember(\n            syndicateAddress,\n            memberAddress,\n            store.depositMember(syndicateAddress, memberAddress) - amount\n        );\n\n        store.setDepositTotal(\n            syndicateAddress,\n            store.depositTotal(syndicateAddress) - amount\n        );\n\n        // if manager returns all member's deposits, decrement number of members\n        if (store.depositMember(syndicateAddress, memberAddress) == 0) {\n            store.setNumMembersCurrent(\n                syndicateAddress,\n                store.numMembersCurrent(syndicateAddress) - 1\n            );\n        }\n\n        // Decreasing the amounts before calling transferFrom is *critical* for\n        // preventing re-entrancy attacks. See SYN-143 for more details.\n        // Now that we've decreased the amounts, we can allow the transferFrom\n        // to proceed. If the transferFrom fails, the entire function will\n        // revert. transferFrom ensures that a non-reverting call was\n        // successful and that a revert indicates failure, which removes the\n        // need for a require statement around the ERC-20 call.\n        // See https://ethereum.stackexchange.com/questions/28985/does-revert-require-revert-changes-made-to-other-contracts\n        // Also see https://docs.soliditylang.org/en/v0.7.6/control-structures.html\n\n        IERC20 withdrawalERC20 = IERC20(\n            store.depositERC20Address(syndicateAddress)\n        );\n\n        // HIGH RISK: If we did not use `memberAddress`, this could be used to\n        // redirect funds from users other than the wallet holder (or smart\n        // contract owner, if a DAO is making the withdrawal).\n        withdrawalERC20.transferFrom(\n            store.managerCurrent(syndicateAddress),\n            memberAddress,\n            amount\n        );\n\n        emit DepositRemoved(syndicateAddress, memberAddress, amount, \"manager\");\n    }\n\n    /// @notice Set the deposit amount for a single member.\n    /// @param syndicateAddress The address of the Syndicate\n    /// @param memberAddress The address of the member\n    /// @param amount The new deposit amount to set for the member.\n    /// @dev This function makes setting a large number of deposit amounts\n    /// slightly more gas efficient by calling each of the parent function's.\n    /// modifiers only once. Importantly, that means the parent is responsible\n    /// for enforcing these constraints and CANNOT rely on this helper function\n    /// to do so.\n    function _setDeposit(\n        address syndicateAddress,\n        address memberAddress,\n        uint256 amount\n    ) internal {\n        // A manager cannot make deposits to their own Syndicate, as they would\n        // receive an ownership stake without transferring capital\n        require(msg.sender != memberAddress, \"SDR_NOT_MBR\");\n\n        // Ensure the new `depositTotal` does not exceed bookkeeping\n        // capacities, in order to prevent reversion of other operations such\n        // as `getDistributionUnclaimedMember()` later.\n        require(\n            amount <\n                type(uint256).max -\n                    store.depositTotal(syndicateAddress) -\n                    store.depositMember(syndicateAddress, memberAddress),\n            \"DEP>=UINT256\"\n        );\n\n        // Safeguard against a successful call to this function without any\n        // change of state, which could increase the likelihood of manager\n        // error (e.g. a manager thinking they have successfully removed all\n        // funds for a member when they in fact used the wrong address).\n        if (amount == 0) {\n            require(\n                store.depositMember(syndicateAddress, memberAddress) != 0,\n                \"NO_CHANGE\"\n            );\n        }\n\n        // Store the previous deposit amount for bookkeeping\n        uint256 oldDepositMember = store.depositMember(\n            syndicateAddress,\n            memberAddress\n        );\n\n        // Set the member's new balance\n        store.setDepositMember(syndicateAddress, memberAddress, amount);\n\n        // Check if the old or new balance is greater before subtracting to\n        // avoid overflows\n        uint256 depositDiff;\n\n        // If the modification effectively DECREASES the member's deposit:\n        if (oldDepositMember > amount) {\n            depositDiff = oldDepositMember - amount;\n            // Decrease the Syndicate's depositTotal\n            store.setDepositTotal(\n                syndicateAddress,\n                store.depositTotal(syndicateAddress) - depositDiff\n            );\n            // If the member's new deposit is 0, decrement numMembersCurrent\n            if (amount == 0) {\n                store.setNumMembersCurrent(\n                    syndicateAddress,\n                    store.numMembersCurrent(syndicateAddress) - 1\n                );\n            }\n        }\n        // If the modification effectively INCREASES the member's deposit:\n        else if (oldDepositMember < amount) {\n            depositDiff = amount - oldDepositMember;\n            // Increase the Syndicate's depositTotal\n            store.setDepositTotal(\n                syndicateAddress,\n                store.depositTotal(syndicateAddress) + depositDiff\n            );\n            // If the member's prior deposit was 0, increment numMembersCurrent\n            if (oldDepositMember == 0) {\n                store.setNumMembersCurrent(\n                    syndicateAddress,\n                    store.numMembersCurrent(syndicateAddress) + 1\n                );\n                // Ensure `numMembersCurrent <= numMembersMax` at all times\n                if (\n                    store.numMembersCurrent(syndicateAddress) >\n                    store.numMembersMax(syndicateAddress)\n                ) {\n                    store.setNumMembersMax(\n                        syndicateAddress,\n                        store.numMembersCurrent(syndicateAddress)\n                    );\n                }\n            }\n        }\n\n        emit DepositOverridden(syndicateAddress, memberAddress, amount);\n    }\n}\n",
  "sourcePath": "/Users/mbuvi/syndicates/Syndicate/contracts/SyndicateClosedEndFundDepositLogicV0_1.sol",
  "compiler": {
    "name": "solc",
    "version": "0.8.7+commit.e28d00a7.Emscripten.clang"
  },
  "schemaVersion": "3.3.4",
  "updatedAt": "2021-08-16T14:45:14.453Z",
  "devdoc": {
    "author": "Syndicate Inc.",
    "events": {
      "DepositAdded(address,address,uint256)": {
        "details": "This is the only way to search for a member's Syndicates. The Syndicates on chain rely on a mapping, so they are not iterable. Instead, it's necessary to search through an indexed memberAddress off-chain to get a list of a member's Syndicates for screens such as the My Syndicates screen.This must be reconciled with `DepositRemoved` events to get a list of all Syndicates for which a member has a nonzero deposit."
      },
      "DepositOverridden(address,address,uint256)": {
        "details": "The balance emitted is the new value, not the change in value."
      },
      "DepositRemoved(address,address,uint256,string)": {
        "details": "`actor` is used to differentiate between who is triggering the event emission. Current options are \"member\" and \"manager\", but more may be introduced (e.g. \"integration\")."
      }
    },
    "kind": "dev",
    "methods": {
      "getSyndicateFeeAddress()": {
        "details": "This function is needed to allow inheriting contracts to only be able to view but not change syndicateFeeAddress without going through ownerSetSyndicateFeeAddress"
      },
      "managerRejectDepositForMembers(address,address[])": {
        "params": {
          "memberAddresses": "The members whose WHOLE contribution is being returned",
          "syndicateAddress": "The Syndicate that the member deposited in"
        }
      },
      "managerSetDepositForMembers(address,address[],uint256[])": {
        "params": {
          "amounts": "The new deposit amount to be set for the corresponding index in the memberAddresses array. These arrays must be the same length. Note that the new amount completely replaces the prior deposit amount for the member. It does not add or subtract from it.",
          "memberAddresses": "The addresses of the member whose deposit is being adjusted",
          "syndicateAddress": "The address of the Syndicate"
        }
      },
      "managerSetDepositMemberMax(address,uint256)": {
        "params": {
          "depositMemberMax": "The maximum deposit amount per user. Must be at least the current `depositMemberMin`, and cannot exceed the current `depositTotalMax`.",
          "syndicateAddress": "The address of the Syndicate"
        }
      },
      "managerSetDepositMemberMin(address,uint256)": {
        "params": {
          "depositMemberMin": "The minimum deposit amount per member. Must not exceed the current `depositMemberMax`.",
          "syndicateAddress": "The address of the Syndicate"
        }
      },
      "managerSetDepositTotalMax(address,uint256)": {
        "params": {
          "depositTotalMax": "The maximum total number of deposits. Must be at least the current `depositMemberMax`.",
          "syndicateAddress": "The address of the Syndicate"
        }
      },
      "memberDeposit(address,uint256)": {
        "details": "The member's deposit is associated with the address of `msg. sender`. The member can later transfer their deposit (and therefore their ownership stake) to another address if the manager has set the Syndicate as `transferable`.",
        "params": {
          "amount": "The amount to be transferred from the member's wallet, valued in the Syndicate's deposit ERC20 token",
          "syndicateAddress": "The Syndicate that a member is depositing to"
        }
      },
      "owner()": {
        "details": "Returns the address of the current owner."
      },
      "ownerSetSyndicateFeeAddress(address)": {
        "params": {
          "feeAddress": "The owner's new contract fee address"
        }
      },
      "ownerTransferOwnership(address)": {
        "params": {
          "newOwner": "The new owner's address."
        }
      },
      "renounceOwnership()": {
        "details": "Leaves the contract without owner. It will not be possible to call `onlyOwner` functions anymore. Can only be called by the current owner. NOTE: Renouncing ownership will leave the contract without an owner, thereby removing any functionality that is only available to the owner."
      },
      "transferOwnership(address)": {
        "details": "Transfers ownership of the contract to a new account (`newOwner`). Can only be called by the current owner."
      }
    },
    "version": 1
  },
  "userdoc": {
    "events": {
      "DepositAdded(address,address,uint256)": {
        "notice": "A member deposits into a syndicate."
      },
      "DepositMemberMaxUpdated(address,uint256)": {
        "notice": "A manager updates the maximum deposit amount per wallet address."
      },
      "DepositMemberMinUpdated(address,uint256)": {
        "notice": "A manager updates the minimum deposit amount per wallet address."
      },
      "DepositOverridden(address,address,uint256)": {
        "notice": "A manager overrides a member's balance with a new value. Applicable to `modifiable` Syndicates only."
      },
      "DepositRemoved(address,address,uint256,string)": {
        "notice": "A member withdraws a deposit or a manager rejects a member's deposit."
      },
      "DepositTotalMaxUpdated(address,uint256)": {
        "notice": "A manager updates the maximum total deposit amount."
      },
      "SyndicateFeeAddressUpdated(address)": {
        "notice": "The owner updates the contract fee address."
      }
    },
    "kind": "user",
    "methods": {
      "constructor": {
        "notice": "Used to initialize the Syndicate contract."
      },
      "getSyndicateFeeAddress()": {
        "notice": "getter function for syndicate fee address."
      },
      "managerRejectDepositForMembers(address,address[])": {
        "notice": "Used by a manager to reject a member's deposit"
      },
      "managerSetDepositForMembers(address,address[],uint256[])": {
        "notice": "Used by a manager to manually adjust the deposit amount for multiple member address (e.g. in response to off-chain transactions). This function **does not** enforce constraints on `depositMemberMin`, `depositMemberMax`, `depositTotalMax`, or `numMembersMax`. However, it **does** update bookkeeping of `depositTotal` and `numMembersCurrent`.This function can only be called if the Syndicate is modifiable. The modifiable boolean is set by the manager on creation and cannot be changed after the Syndicate is created.This function can only be called before distributions have been enabled (though the Syndicate may be closed to deposits). If distributions have already been enabled, then changing deposit amounts could affect the ownership share of unclaimed distributions and create significant problems for other members."
      },
      "managerSetDepositMemberMax(address,uint256)": {
        "notice": "Set the maximum deposit per wallet address. This is the maximum that a single member can contribute to the Syndicate"
      },
      "managerSetDepositMemberMin(address,uint256)": {
        "notice": "Set the minimum deposit per wallet address. This is the minimum that a single member can contribute to the Syndicate"
      },
      "managerSetDepositTotalMax(address,uint256)": {
        "notice": "Set the maximum total deposit amount. This is the maximum that all members combined can contribute to the Syndicate`depositTotalMax` is not required to be at least `depositTotal`. Setting `depositTotalMax` to be less than `depositTotal` can be thought of as a simple way to cut off deposits if the Syndicate has grown too large."
      },
      "memberDeposit(address,uint256)": {
        "notice": "Used by a member to make a deposit to an open Syndicate.If a manager is issuing a Syndicate under SEC Rule 506(b) of Regulation D, a manager should only add a member's address(es) to the allowlist if the member attests that they are an accredited investor. This is also highlighted in the web interface, but it is not a requirement of the smart contract since not all Syndicates are securities, nor are all Syndicates that are securities necessarily 506(b) offerings (they could be 506(c) offerings for example).Under Rule 506(b), up to 35 non-accredited investors can invest in a private placement. These non-accredited investors must have sufficient knowledge and experience, which is difficult to verify in a decentralized context. As a result, we leave it up to the Syndicate manager to track their own list of up to 35 non-accredited investors and add them to the allowlist. The Syndicate manager must provide disclosures to non-accredited investors that comply with Regulation A offerings, give non-accredited investors financial statement information specified in Rule 506, and be available to answer questions from potential members who are non-accredited investors. This responsibility rests with the Syndicate manager. See https://www.sec.gov/smallbusiness/exemptofferings/rule506bNothing in this documentation should be considered legal advice. If you are seeking any clarification, please email us at hello[at]syndicateprotocol.org."
      },
      "ownerRenounceOwnership()": {
        "notice": "Renounce ownership of the contract"
      },
      "ownerSetSyndicateFeeAddress(address)": {
        "notice": "set a new fee address for the contract function that can only be triggered by the contract owner."
      },
      "ownerTransferOwnership(address)": {
        "notice": "Transfers ownership to the provided address."
      }
    },
    "notice": "Handle member deposit accounting and ERC20 transfers",
    "version": 1
  }
}