{
  "contractName": "SyndicateClosedEndFundStoreV0",
  "abi": [
    {
      "inputs": [
        {
          "internalType": "address",
          "name": "owner",
          "type": "address"
        }
      ],
      "stateMutability": "nonpayable",
      "type": "constructor"
    },
    {
      "anonymous": false,
      "inputs": [
        {
          "indexed": true,
          "internalType": "address",
          "name": "logicContractAddress",
          "type": "address"
        }
      ],
      "name": "LogicContractAdded",
      "type": "event"
    },
    {
      "anonymous": false,
      "inputs": [
        {
          "indexed": true,
          "internalType": "address",
          "name": "logicContractAddress",
          "type": "address"
        }
      ],
      "name": "LogicContractRemoved",
      "type": "event"
    },
    {
      "anonymous": false,
      "inputs": [
        {
          "indexed": true,
          "internalType": "address",
          "name": "previousOwner",
          "type": "address"
        },
        {
          "indexed": true,
          "internalType": "address",
          "name": "newOwner",
          "type": "address"
        }
      ],
      "name": "OwnershipTransferred",
      "type": "event"
    },
    {
      "anonymous": false,
      "inputs": [
        {
          "indexed": true,
          "internalType": "address",
          "name": "contractFeeAddress",
          "type": "address"
        }
      ],
      "name": "SyndicateFeeAddressUpdated",
      "type": "event"
    },
    {
      "inputs": [],
      "name": "BASIS_POINTS_DENOMINATOR",
      "outputs": [
        {
          "internalType": "uint256",
          "name": "",
          "type": "uint256"
        }
      ],
      "stateMutability": "view",
      "type": "function"
    },
    {
      "inputs": [
        {
          "internalType": "address",
          "name": "",
          "type": "address"
        },
        {
          "internalType": "address",
          "name": "",
          "type": "address"
        }
      ],
      "name": "allowlist",
      "outputs": [
        {
          "internalType": "bool",
          "name": "",
          "type": "bool"
        }
      ],
      "stateMutability": "view",
      "type": "function"
    },
    {
      "inputs": [
        {
          "internalType": "address",
          "name": "",
          "type": "address"
        }
      ],
      "name": "allowlistEnabled",
      "outputs": [
        {
          "internalType": "bool",
          "name": "",
          "type": "bool"
        }
      ],
      "stateMutability": "view",
      "type": "function"
    },
    {
      "inputs": [
        {
          "internalType": "address",
          "name": "",
          "type": "address"
        }
      ],
      "name": "dateClose",
      "outputs": [
        {
          "internalType": "uint256",
          "name": "",
          "type": "uint256"
        }
      ],
      "stateMutability": "view",
      "type": "function"
    },
    {
      "inputs": [
        {
          "internalType": "address",
          "name": "",
          "type": "address"
        }
      ],
      "name": "dateCreated",
      "outputs": [
        {
          "internalType": "uint256",
          "name": "",
          "type": "uint256"
        }
      ],
      "stateMutability": "view",
      "type": "function"
    },
    {
      "inputs": [
        {
          "internalType": "address",
          "name": "",
          "type": "address"
        }
      ],
      "name": "depositERC20Address",
      "outputs": [
        {
          "internalType": "address",
          "name": "",
          "type": "address"
        }
      ],
      "stateMutability": "view",
      "type": "function"
    },
    {
      "inputs": [
        {
          "internalType": "address",
          "name": "",
          "type": "address"
        },
        {
          "internalType": "address",
          "name": "",
          "type": "address"
        }
      ],
      "name": "depositMember",
      "outputs": [
        {
          "internalType": "uint256",
          "name": "",
          "type": "uint256"
        }
      ],
      "stateMutability": "view",
      "type": "function"
    },
    {
      "inputs": [
        {
          "internalType": "address",
          "name": "",
          "type": "address"
        }
      ],
      "name": "depositMemberMax",
      "outputs": [
        {
          "internalType": "uint256",
          "name": "",
          "type": "uint256"
        }
      ],
      "stateMutability": "view",
      "type": "function"
    },
    {
      "inputs": [
        {
          "internalType": "address",
          "name": "",
          "type": "address"
        }
      ],
      "name": "depositMemberMin",
      "outputs": [
        {
          "internalType": "uint256",
          "name": "",
          "type": "uint256"
        }
      ],
      "stateMutability": "view",
      "type": "function"
    },
    {
      "inputs": [
        {
          "internalType": "address",
          "name": "",
          "type": "address"
        }
      ],
      "name": "depositTotal",
      "outputs": [
        {
          "internalType": "uint256",
          "name": "",
          "type": "uint256"
        }
      ],
      "stateMutability": "view",
      "type": "function"
    },
    {
      "inputs": [
        {
          "internalType": "address",
          "name": "",
          "type": "address"
        }
      ],
      "name": "depositTotalMax",
      "outputs": [
        {
          "internalType": "uint256",
          "name": "",
          "type": "uint256"
        }
      ],
      "stateMutability": "view",
      "type": "function"
    },
    {
      "inputs": [
        {
          "internalType": "address",
          "name": "",
          "type": "address"
        }
      ],
      "name": "distributing",
      "outputs": [
        {
          "internalType": "bool",
          "name": "",
          "type": "bool"
        }
      ],
      "stateMutability": "view",
      "type": "function"
    },
    {
      "inputs": [
        {
          "internalType": "address",
          "name": "",
          "type": "address"
        },
        {
          "internalType": "address",
          "name": "",
          "type": "address"
        },
        {
          "internalType": "address",
          "name": "",
          "type": "address"
        }
      ],
      "name": "distributionClaimedMember",
      "outputs": [
        {
          "internalType": "uint256",
          "name": "",
          "type": "uint256"
        }
      ],
      "stateMutability": "view",
      "type": "function"
    },
    {
      "inputs": [
        {
          "internalType": "address",
          "name": "",
          "type": "address"
        },
        {
          "internalType": "address",
          "name": "",
          "type": "address"
        }
      ],
      "name": "distributionClaimedTotal",
      "outputs": [
        {
          "internalType": "uint256",
          "name": "",
          "type": "uint256"
        }
      ],
      "stateMutability": "view",
      "type": "function"
    },
    {
      "inputs": [
        {
          "internalType": "address",
          "name": "",
          "type": "address"
        },
        {
          "internalType": "address",
          "name": "",
          "type": "address"
        }
      ],
      "name": "distributionERC20Addresses",
      "outputs": [
        {
          "internalType": "bool",
          "name": "",
          "type": "bool"
        }
      ],
      "stateMutability": "view",
      "type": "function"
    },
    {
      "inputs": [
        {
          "internalType": "address",
          "name": "",
          "type": "address"
        },
        {
          "internalType": "address",
          "name": "",
          "type": "address"
        }
      ],
      "name": "distributionTotal",
      "outputs": [
        {
          "internalType": "uint256",
          "name": "",
          "type": "uint256"
        }
      ],
      "stateMutability": "view",
      "type": "function"
    },
    {
      "inputs": [],
      "name": "getSyndicateFeeAddress",
      "outputs": [
        {
          "internalType": "address",
          "name": "",
          "type": "address"
        }
      ],
      "stateMutability": "view",
      "type": "function"
    },
    {
      "inputs": [
        {
          "internalType": "address",
          "name": "",
          "type": "address"
        }
      ],
      "name": "logicContractAllowed",
      "outputs": [
        {
          "internalType": "bool",
          "name": "",
          "type": "bool"
        }
      ],
      "stateMutability": "view",
      "type": "function"
    },
    {
      "inputs": [
        {
          "internalType": "address",
          "name": "",
          "type": "address"
        }
      ],
      "name": "managerCurrent",
      "outputs": [
        {
          "internalType": "address",
          "name": "",
          "type": "address"
        }
      ],
      "stateMutability": "view",
      "type": "function"
    },
    {
      "inputs": [
        {
          "internalType": "address",
          "name": "",
          "type": "address"
        }
      ],
      "name": "managerDistributionShareBasisPoints",
      "outputs": [
        {
          "internalType": "uint256",
          "name": "",
          "type": "uint256"
        }
      ],
      "stateMutability": "view",
      "type": "function"
    },
    {
      "inputs": [
        {
          "internalType": "address",
          "name": "",
          "type": "address"
        }
      ],
      "name": "managerFeeAddress",
      "outputs": [
        {
          "internalType": "address",
          "name": "",
          "type": "address"
        }
      ],
      "stateMutability": "view",
      "type": "function"
    },
    {
      "inputs": [
        {
          "internalType": "address",
          "name": "",
          "type": "address"
        }
      ],
      "name": "managerManagementFeeBasisPoints",
      "outputs": [
        {
          "internalType": "uint256",
          "name": "",
          "type": "uint256"
        }
      ],
      "stateMutability": "view",
      "type": "function"
    },
    {
      "inputs": [
        {
          "internalType": "address",
          "name": "",
          "type": "address"
        }
      ],
      "name": "managerPending",
      "outputs": [
        {
          "internalType": "address",
          "name": "",
          "type": "address"
        }
      ],
      "stateMutability": "view",
      "type": "function"
    },
    {
      "inputs": [
        {
          "internalType": "address",
          "name": "",
          "type": "address"
        }
      ],
      "name": "managerSyndicate",
      "outputs": [
        {
          "internalType": "address",
          "name": "",
          "type": "address"
        }
      ],
      "stateMutability": "view",
      "type": "function"
    },
    {
      "inputs": [
        {
          "internalType": "address",
          "name": "",
          "type": "address"
        },
        {
          "internalType": "string",
          "name": "",
          "type": "string"
        }
      ],
      "name": "metadata",
      "outputs": [
        {
          "internalType": "string",
          "name": "",
          "type": "string"
        }
      ],
      "stateMutability": "view",
      "type": "function"
    },
    {
      "inputs": [
        {
          "internalType": "address",
          "name": "",
          "type": "address"
        }
      ],
      "name": "modifiable",
      "outputs": [
        {
          "internalType": "bool",
          "name": "",
          "type": "bool"
        }
      ],
      "stateMutability": "view",
      "type": "function"
    },
    {
      "inputs": [
        {
          "internalType": "address",
          "name": "",
          "type": "address"
        }
      ],
      "name": "notCloseable",
      "outputs": [
        {
          "internalType": "bool",
          "name": "",
          "type": "bool"
        }
      ],
      "stateMutability": "view",
      "type": "function"
    },
    {
      "inputs": [
        {
          "internalType": "address",
          "name": "",
          "type": "address"
        }
      ],
      "name": "numMembersCurrent",
      "outputs": [
        {
          "internalType": "uint256",
          "name": "",
          "type": "uint256"
        }
      ],
      "stateMutability": "view",
      "type": "function"
    },
    {
      "inputs": [
        {
          "internalType": "address",
          "name": "",
          "type": "address"
        }
      ],
      "name": "numMembersMax",
      "outputs": [
        {
          "internalType": "uint256",
          "name": "",
          "type": "uint256"
        }
      ],
      "stateMutability": "view",
      "type": "function"
    },
    {
      "inputs": [
        {
          "internalType": "address",
          "name": "",
          "type": "address"
        }
      ],
      "name": "open",
      "outputs": [
        {
          "internalType": "bool",
          "name": "",
          "type": "bool"
        }
      ],
      "stateMutability": "view",
      "type": "function"
    },
    {
      "inputs": [],
      "name": "owner",
      "outputs": [
        {
          "internalType": "address",
          "name": "",
          "type": "address"
        }
      ],
      "stateMutability": "view",
      "type": "function"
    },
    {
      "inputs": [],
      "name": "ownerRenounceOwnership",
      "outputs": [],
      "stateMutability": "nonpayable",
      "type": "function"
    },
    {
      "inputs": [
        {
          "internalType": "address",
          "name": "feeAddress",
          "type": "address"
        }
      ],
      "name": "ownerSetSyndicateFeeAddress",
      "outputs": [],
      "stateMutability": "nonpayable",
      "type": "function"
    },
    {
      "inputs": [
        {
          "internalType": "address",
          "name": "newOwner",
          "type": "address"
        }
      ],
      "name": "ownerTransferOwnership",
      "outputs": [],
      "stateMutability": "nonpayable",
      "type": "function"
    },
    {
      "inputs": [],
      "name": "renounceOwnership",
      "outputs": [],
      "stateMutability": "nonpayable",
      "type": "function"
    },
    {
      "inputs": [
        {
          "internalType": "address",
          "name": "",
          "type": "address"
        }
      ],
      "name": "syndicateDistributionShareBasisPoints",
      "outputs": [
        {
          "internalType": "uint256",
          "name": "",
          "type": "uint256"
        }
      ],
      "stateMutability": "view",
      "type": "function"
    },
    {
      "inputs": [
        {
          "internalType": "address",
          "name": "newOwner",
          "type": "address"
        }
      ],
      "name": "transferOwnership",
      "outputs": [],
      "stateMutability": "nonpayable",
      "type": "function"
    },
    {
      "inputs": [
        {
          "internalType": "address",
          "name": "",
          "type": "address"
        }
      ],
      "name": "transferable",
      "outputs": [
        {
          "internalType": "bool",
          "name": "",
          "type": "bool"
        }
      ],
      "stateMutability": "view",
      "type": "function"
    },
    {
      "inputs": [
        {
          "internalType": "address[]",
          "name": "logicContractAddresses",
          "type": "address[]"
        }
      ],
      "name": "addLogicContractsAllowed",
      "outputs": [],
      "stateMutability": "nonpayable",
      "type": "function"
    },
    {
      "inputs": [
        {
          "internalType": "address[]",
          "name": "logicContractAddresses",
          "type": "address[]"
        }
      ],
      "name": "removeLogicContractsAllowed",
      "outputs": [],
      "stateMutability": "nonpayable",
      "type": "function"
    },
    {
      "inputs": [
        {
          "internalType": "address",
          "name": "syndicateAddress",
          "type": "address"
        },
        {
          "internalType": "address",
          "name": "managerAddress",
          "type": "address"
        }
      ],
      "name": "setManagerCurrent",
      "outputs": [],
      "stateMutability": "nonpayable",
      "type": "function"
    },
    {
      "inputs": [
        {
          "internalType": "address",
          "name": "managerAddress",
          "type": "address"
        },
        {
          "internalType": "address",
          "name": "syndicateAddress",
          "type": "address"
        }
      ],
      "name": "setManagerSyndicate",
      "outputs": [],
      "stateMutability": "nonpayable",
      "type": "function"
    },
    {
      "inputs": [
        {
          "internalType": "address",
          "name": "syndicateAddress",
          "type": "address"
        },
        {
          "internalType": "address",
          "name": "managerAddress",
          "type": "address"
        }
      ],
      "name": "setManagerPending",
      "outputs": [],
      "stateMutability": "nonpayable",
      "type": "function"
    },
    {
      "inputs": [
        {
          "internalType": "address",
          "name": "syndicateAddress",
          "type": "address"
        },
        {
          "internalType": "address",
          "name": "feeAddress",
          "type": "address"
        }
      ],
      "name": "setManagerFeeAddress",
      "outputs": [],
      "stateMutability": "nonpayable",
      "type": "function"
    },
    {
      "inputs": [
        {
          "internalType": "address",
          "name": "syndicateAddress",
          "type": "address"
        },
        {
          "internalType": "uint256",
          "name": "feeBasisPoints",
          "type": "uint256"
        }
      ],
      "name": "setManagerManagementFeeBasisPoints",
      "outputs": [],
      "stateMutability": "nonpayable",
      "type": "function"
    },
    {
      "inputs": [
        {
          "internalType": "address",
          "name": "syndicateAddress",
          "type": "address"
        },
        {
          "internalType": "uint256",
          "name": "performanceFeeBasisPoints",
          "type": "uint256"
        }
      ],
      "name": "setManagerDistributionShareBasisPoints",
      "outputs": [],
      "stateMutability": "nonpayable",
      "type": "function"
    },
    {
      "inputs": [
        {
          "internalType": "address",
          "name": "syndicateAddress",
          "type": "address"
        },
        {
          "internalType": "uint256",
          "name": "distributionShareBasisPoints",
          "type": "uint256"
        }
      ],
      "name": "setSyndicateDistributionShareBasisPoints",
      "outputs": [],
      "stateMutability": "nonpayable",
      "type": "function"
    },
    {
      "inputs": [
        {
          "internalType": "address",
          "name": "syndicateAddress",
          "type": "address"
        },
        {
          "internalType": "uint256",
          "name": "maxMembers",
          "type": "uint256"
        }
      ],
      "name": "setNumMembersMax",
      "outputs": [],
      "stateMutability": "nonpayable",
      "type": "function"
    },
    {
      "inputs": [
        {
          "internalType": "address",
          "name": "syndicateAddress",
          "type": "address"
        },
        {
          "internalType": "uint256",
          "name": "currentMembers",
          "type": "uint256"
        }
      ],
      "name": "setNumMembersCurrent",
      "outputs": [],
      "stateMutability": "nonpayable",
      "type": "function"
    },
    {
      "inputs": [
        {
          "internalType": "address",
          "name": "syndicateAddress",
          "type": "address"
        },
        {
          "internalType": "address",
          "name": "depositAddress",
          "type": "address"
        }
      ],
      "name": "setDepositERC20Address",
      "outputs": [],
      "stateMutability": "nonpayable",
      "type": "function"
    },
    {
      "inputs": [
        {
          "internalType": "address",
          "name": "syndicateAddress",
          "type": "address"
        },
        {
          "internalType": "uint256",
          "name": "minDeposit",
          "type": "uint256"
        }
      ],
      "name": "setDepositMemberMin",
      "outputs": [],
      "stateMutability": "nonpayable",
      "type": "function"
    },
    {
      "inputs": [
        {
          "internalType": "address",
          "name": "syndicateAddress",
          "type": "address"
        },
        {
          "internalType": "uint256",
          "name": "maxDeposit",
          "type": "uint256"
        }
      ],
      "name": "setDepositMemberMax",
      "outputs": [],
      "stateMutability": "nonpayable",
      "type": "function"
    },
    {
      "inputs": [
        {
          "internalType": "address",
          "name": "syndicateAddress",
          "type": "address"
        },
        {
          "internalType": "uint256",
          "name": "maxDepositTotal",
          "type": "uint256"
        }
      ],
      "name": "setDepositTotalMax",
      "outputs": [],
      "stateMutability": "nonpayable",
      "type": "function"
    },
    {
      "inputs": [
        {
          "internalType": "address",
          "name": "syndicateAddress",
          "type": "address"
        },
        {
          "internalType": "uint256",
          "name": "total",
          "type": "uint256"
        }
      ],
      "name": "setDepositTotal",
      "outputs": [],
      "stateMutability": "nonpayable",
      "type": "function"
    },
    {
      "inputs": [
        {
          "internalType": "address",
          "name": "syndicateAddress",
          "type": "address"
        },
        {
          "internalType": "address",
          "name": "memberAddress",
          "type": "address"
        },
        {
          "internalType": "uint256",
          "name": "deposit",
          "type": "uint256"
        }
      ],
      "name": "setDepositMember",
      "outputs": [],
      "stateMutability": "nonpayable",
      "type": "function"
    },
    {
      "inputs": [
        {
          "internalType": "address",
          "name": "syndicateAddress",
          "type": "address"
        },
        {
          "internalType": "address",
          "name": "distributionERC20Address",
          "type": "address"
        },
        {
          "internalType": "bool",
          "name": "isSet",
          "type": "bool"
        }
      ],
      "name": "setDistributionERC20Addresses",
      "outputs": [],
      "stateMutability": "nonpayable",
      "type": "function"
    },
    {
      "inputs": [
        {
          "internalType": "address",
          "name": "syndicateAddress",
          "type": "address"
        },
        {
          "internalType": "address",
          "name": "distributionERC20Address",
          "type": "address"
        },
        {
          "internalType": "uint256",
          "name": "total",
          "type": "uint256"
        }
      ],
      "name": "setDistributionTotal",
      "outputs": [],
      "stateMutability": "nonpayable",
      "type": "function"
    },
    {
      "inputs": [
        {
          "internalType": "address",
          "name": "syndicateAddress",
          "type": "address"
        },
        {
          "internalType": "address",
          "name": "distributionERC20Address",
          "type": "address"
        },
        {
          "internalType": "uint256",
          "name": "total",
          "type": "uint256"
        }
      ],
      "name": "setDistributionClaimedTotal",
      "outputs": [],
      "stateMutability": "nonpayable",
      "type": "function"
    },
    {
      "inputs": [
        {
          "internalType": "address",
          "name": "syndicateAddress",
          "type": "address"
        },
        {
          "internalType": "address",
          "name": "distributionERC20Address",
          "type": "address"
        },
        {
          "internalType": "address",
          "name": "memberAddress",
          "type": "address"
        },
        {
          "internalType": "uint256",
          "name": "amount",
          "type": "uint256"
        }
      ],
      "name": "setDistributionClaimedMember",
      "outputs": [],
      "stateMutability": "nonpayable",
      "type": "function"
    },
    {
      "inputs": [
        {
          "internalType": "address",
          "name": "syndicateAddress",
          "type": "address"
        },
        {
          "internalType": "uint256",
          "name": "date",
          "type": "uint256"
        }
      ],
      "name": "setDateCreated",
      "outputs": [],
      "stateMutability": "nonpayable",
      "type": "function"
    },
    {
      "inputs": [
        {
          "internalType": "address",
          "name": "syndicateAddress",
          "type": "address"
        },
        {
          "internalType": "uint256",
          "name": "date",
          "type": "uint256"
        }
      ],
      "name": "setDateClose",
      "outputs": [],
      "stateMutability": "nonpayable",
      "type": "function"
    },
    {
      "inputs": [
        {
          "internalType": "address",
          "name": "syndicateAddress",
          "type": "address"
        },
        {
          "internalType": "bool",
          "name": "isOpen",
          "type": "bool"
        }
      ],
      "name": "setOpen",
      "outputs": [],
      "stateMutability": "nonpayable",
      "type": "function"
    },
    {
      "inputs": [
        {
          "internalType": "address",
          "name": "syndicateAddress",
          "type": "address"
        },
        {
          "internalType": "bool",
          "name": "isDistributing",
          "type": "bool"
        }
      ],
      "name": "setDistributing",
      "outputs": [],
      "stateMutability": "nonpayable",
      "type": "function"
    },
    {
      "inputs": [
        {
          "internalType": "address",
          "name": "syndicateAddress",
          "type": "address"
        },
        {
          "internalType": "bool",
          "name": "isModifiable",
          "type": "bool"
        }
      ],
      "name": "setModifiable",
      "outputs": [],
      "stateMutability": "nonpayable",
      "type": "function"
    },
    {
      "inputs": [
        {
          "internalType": "address",
          "name": "syndicateAddress",
          "type": "address"
        },
        {
          "internalType": "bool",
          "name": "isEnabled",
          "type": "bool"
        }
      ],
      "name": "setAllowlistEnabled",
      "outputs": [],
      "stateMutability": "nonpayable",
      "type": "function"
    },
    {
      "inputs": [
        {
          "internalType": "address",
          "name": "syndicateAddress",
          "type": "address"
        },
        {
          "internalType": "address",
          "name": "memberAddress",
          "type": "address"
        },
        {
          "internalType": "bool",
          "name": "allowed",
          "type": "bool"
        }
      ],
      "name": "setAllowlist",
      "outputs": [],
      "stateMutability": "nonpayable",
      "type": "function"
    },
    {
      "inputs": [
        {
          "internalType": "address",
          "name": "syndicateAddress",
          "type": "address"
        },
        {
          "internalType": "bool",
          "name": "isTransferable",
          "type": "bool"
        }
      ],
      "name": "setTransferable",
      "outputs": [],
      "stateMutability": "nonpayable",
      "type": "function"
    },
    {
      "inputs": [
        {
          "internalType": "address",
          "name": "syndicateAddress",
          "type": "address"
        },
        {
          "internalType": "string",
          "name": "metadataKey",
          "type": "string"
        },
        {
          "internalType": "string",
          "name": "metadataValue",
          "type": "string"
        }
      ],
      "name": "setMetadata",
      "outputs": [],
      "stateMutability": "nonpayable",
      "type": "function"
    },
    {
      "inputs": [
        {
          "internalType": "address",
          "name": "syndicateAddress",
          "type": "address"
        },
        {
          "internalType": "bool",
          "name": "isNotCloseable",
          "type": "bool"
        }
      ],
      "name": "setNotCloseable",
      "outputs": [],
      "stateMutability": "nonpayable",
      "type": "function"
    }
  ],
  "bytecode": "0x6080604052600180546001600160a01b0319167340db79f7f18c468c6552538b488c58b5e72bf4d91790553480156200003757600080fd5b5060405162001e0538038062001e058339810160408190526200005a91620001ae565b600080546001600160a01b0319163390811782556040518392829160008051602062001de5833981519152908290a35062000095816200009d565b5050620001e0565b6000546001600160a01b03163314620000fd5760405162461bcd60e51b815260206004820181905260248201527f4f776e61626c653a2063616c6c6572206973206e6f7420746865206f776e657260448201526064015b60405180910390fd5b6001600160a01b038116620001645760405162461bcd60e51b815260206004820152602660248201527f4f776e61626c653a206e6577206f776e657220697320746865207a65726f206160448201526564647265737360d01b6064820152608401620000f4565b600080546040516001600160a01b038085169392169160008051602062001de583398151915291a3600080546001600160a01b0319166001600160a01b0392909216919091179055565b600060208284031215620001c157600080fd5b81516001600160a01b0381168114620001d957600080fd5b9392505050565b611bf580620001f06000396000f3fe608060405234801561001057600080fd5b50600436106104075760003560e01c80639ea0c2e511610220578063cad0a37311610130578063e396ae9b116100b8578063ebb8aacc11610087578063ebb8aacc14610aee578063ecc9a74d14610b01578063efab5b9614610b14578063f2fde38b14610b34578063ff8b63ee14610b4757600080fd5b8063e396ae9b14610a7f578063e58eb85c14610a9f578063e8aef6f014610ab2578063eb3b0cba14610adb57600080fd5b8063da375d17116100ff578063da375d17146109f0578063dc35bbb014610a03578063deebf2eb14610a2c578063e0d612f514610a4c578063e32bf38d14610a5f57600080fd5b8063cad0a37314610995578063cbf8bf16146109a6578063cfa498a3146109b9578063d98c07b7146109c257600080fd5b8063adc1017f116101b3578063b50a24a911610182578063b50a24a914610916578063b95460f814610929578063bfd9a7e11461094c578063c372a5491461095f578063c772ef6c1461097257600080fd5b8063adc1017f146108ad578063b1e315bf146108d0578063b3e15a23146108e3578063b4cba69b146108f657600080fd5b8063a948191b116101ef578063a948191b14610823578063aae0c9b514610854578063acb1e61f14610867578063ad74c2991461088a57600080fd5b80639ea0c2e5146107d7578063a09cca93146107ea578063a2e1b42e146107fd578063a8aec5711461081057600080fd5b806338f2423e1161031b57806363b72e9b116102ae578063807e21e81161027d578063807e21e81461076257806381abf408146107755780638da5cb5b1461077d57806394da62771461078e57806397cc6771146107b757600080fd5b806363b72e9b146106f9578063653414e11461070c5780636b0d3a121461073a578063715018a61461075a57600080fd5b80635690fe5c116102ea5780635690fe5c1461067d5780635f6679fc1461069057806362249310146106c357806362d8decf146106e657600080fd5b806338f2423e146105d55780633e4fae2414610616578063469102a81461063f57806347bfebde1461066a57600080fd5b80631e0dbc9f1161039e57806324862ad91161036d57806324862ad91461055c5780632d08d4821461056f5780632f2efee01461058257806336230fee1461059557806336f93f5a146105b557600080fd5b80631e0dbc9f1461050357806321ca02dc146105165780632209128414610536578063246643181461054957600080fd5b806314551a76116103da57806314551a761461047a578063180432e01461048d578063181a99d0146104b85780631acd19c7146104e357600080fd5b8063010d81351461040c57806301c4383e1461042157806303d457c4146104545780630ae8c8e214610467575b600080fd5b61041f61041a366004611813565b610b5a565b005b61044161042f366004611730565b60166020526000908152604090205481565b6040519081526020015b60405180910390f35b61041f6104623660046119f6565b610b9c565b61041f610475366004611889565b610bc0565b61041f61048836600461184d565b610bf3565b61044161049b366004611752565b601360209081526000928352604080842090915290825290205481565b6104416104c6366004611752565b601160209081526000928352604080842090915290825290205481565b6104416104f1366004611730565b600e6020526000908152604090205481565b61041f61051136600461184d565b610c27565b610529610524366004611934565b610c5b565b60405161044b9190611aa5565b61041f6105443660046119f6565b610d11565b61041f6105573660046119f6565b610d35565b61041f61056a366004611a20565b610d59565b61041f61057d366004611752565b610e5f565b61041f6105903660046119f6565b610e95565b6104416105a3366004611730565b600a6020526000908152604090205481565b6104416105c3366004611730565b600d6020526000908152604090205481565b6105fe6105e3366004611730565b600c602052600090815260409020546001600160a01b031681565b6040516001600160a01b03909116815260200161044b565b6105fe610624366004611730565b6005602052600090815260409020546001600160a01b031681565b61044161064d366004611752565b601460209081526000928352604080842090915290825290205481565b61041f610678366004611752565b610eb9565b61041f61068b366004611752565b610eef565b6106b361069e366004611730565b601f6020526000908152604090205460ff1681565b604051901515815260200161044b565b6106b36106d1366004611730565b60196020526000908152604090205460ff1681565b61041f6106f4366004611889565b610f25565b61041f610707366004611a20565b610f58565b6106b361071a366004611752565b601260209081526000928352604080842090915290825290205460ff1681565b610441610748366004611730565b60106020526000908152604090205481565b61041f611050565b61041f6107703660046119f6565b6110c4565b61041f6110e8565b6000546001600160a01b03166105fe565b6105fe61079c366004611730565b6004602052600090815260409020546001600160a01b031681565b6104416107c5366004611730565b60086020526000908152604090205481565b61041f6107e53660046119f6565b61111c565b61041f6107f8366004611730565b611140565b61041f61080b366004611813565b611176565b61041f61081e366004611752565b6111b8565b610441610831366004611785565b601560209081526000938452604080852082529284528284209052825290205481565b61041f6108623660046119f6565b6111ee565b6106b3610875366004611730565b601d6020526000908152604090205460ff1681565b6106b3610898366004611730565b60026020526000908152604090205460ff1681565b6106b36108bb366004611730565b601a6020526000908152604090205460ff1681565b61041f6108de366004611889565b611212565b61041f6108f13660046119f6565b611245565b610441610904366004611730565b600f6020526000908152604090205481565b61041f610924366004611889565b611269565b6106b3610937366004611730565b60186020526000908152604090205460ff1681565b61041f61095a366004611730565b61129c565b61041f61096d3660046119f6565b611310565b6106b3610980366004611730565b601b6020526000908152604090205460ff1681565b6001546001600160a01b03166105fe565b61041f6109b4366004611889565b611334565b61044161271081565b6106b36109d0366004611752565b601c60209081526000928352604080842090915290825290205460ff1681565b61041f6109fe3660046117c8565b611367565b6105fe610a11366004611730565b6006602052600090815260409020546001600160a01b031681565b610441610a3a366004611730565b60096020526000908152604090205481565b61041f610a5a366004611752565b6113a4565b610441610a6d366004611730565b60176020526000908152604090205481565b610441610a8d366004611730565b600b6020526000908152604090205481565b61041f610aad36600461184d565b6113da565b6105fe610ac0366004611730565b6003602052600090815260409020546001600160a01b031681565b61041f610ae93660046118b3565b61140e565b61041f610afc3660046119f6565b611465565b61041f610b0f366004611889565b611489565b610441610b22366004611730565b60076020526000908152604090205481565b61041f610b42366004611730565b6114bc565b61041f610b553660046119f6565b6115a6565b610b626115ca565b6001600160a01b039283166000908152601c6020908152604080832094909516825292909252919020805460ff1916911515919091179055565b610ba46115ca565b6001600160a01b039091166000908152600b6020526040902055565b610bc86115ca565b6001600160a01b03919091166000908152601d60205260409020805460ff1916911515919091179055565b610bfb6115ca565b6001600160a01b0392831660009081526013602090815260408083209490951682529290925291902055565b610c2f6115ca565b6001600160a01b0392831660009081526011602090815260408083209490951682529290925291902055565b601e602090815260009283526040909220815180830184018051928152908401929093019190912091528054610c9090611b2f565b80601f0160208091040260200160405190810160405280929190818152602001828054610cbc90611b2f565b8015610d095780601f10610cde57610100808354040283529160200191610d09565b820191906000526020600020905b815481529060010190602001808311610cec57829003601f168201915b505050505081565b610d196115ca565b6001600160a01b03909116600090815260106020526040902055565b610d3d6115ca565b6001600160a01b03909116600090815260076020526040902055565b6000546001600160a01b03163314610d8c5760405162461bcd60e51b8152600401610d8390611afa565b60405180910390fd5b60005b81811015610e5a57600060026000858585818110610daf57610daf611b93565b9050602002016020810190610dc49190611730565b6001600160a01b031681526020810191909152604001600020805460ff1916911515919091179055828282818110610dfe57610dfe611b93565b9050602002016020810190610e139190611730565b6001600160a01b03167f4ce3a7d1a02c0da13746593e7bd8dc13525b205dae2b15c2e1df332a0439595c60405160405180910390a280610e5281611b6a565b915050610d8f565b505050565b610e676115ca565b6001600160a01b039182166000908152600c6020526040902080546001600160a01b03191691909216179055565b610e9d6115ca565b6001600160a01b039091166000908152600a6020526040902055565b610ec16115ca565b6001600160a01b03918216600090815260066020526040902080546001600160a01b03191691909216179055565b610ef76115ca565b6001600160a01b03918216600090815260056020526040902080546001600160a01b03191691909216179055565b610f2d6115ca565b6001600160a01b03919091166000908152601860205260409020805460ff1916911515919091179055565b6000546001600160a01b03163314610f825760405162461bcd60e51b8152600401610d8390611afa565b60005b81811015610e5a57600160026000858585818110610fa557610fa5611b93565b9050602002016020810190610fba9190611730565b6001600160a01b031681526020810191909152604001600020805460ff1916911515919091179055828282818110610ff457610ff4611b93565b90506020020160208101906110099190611730565b6001600160a01b03167fa875c2832ddc0aef0649be9d18baa98da063ecbdca11ce3df51925c2c564b0e160405160405180910390a28061104881611b6a565b915050610f85565b6000546001600160a01b0316331461107a5760405162461bcd60e51b8152600401610d8390611afa565b600080546040516001600160a01b03909116907f8be0079c531659141344cd1fd0a4f28419497f9722a3daafe3b4186f6b6457e0908390a3600080546001600160a01b0319169055565b6110cc6115ca565b6001600160a01b03909116600090815260086020526040902055565b6000546001600160a01b031633146111125760405162461bcd60e51b8152600401610d8390611afa565b61111a611050565b565b6111246115ca565b6001600160a01b039091166000908152600d6020526040902055565b6000546001600160a01b0316331461116a5760405162461bcd60e51b8152600401610d8390611afa565b611173816114bc565b50565b61117e6115ca565b6001600160a01b03928316600090815260126020908152604080832094909516825292909252919020805460ff1916911515919091179055565b6111c06115ca565b6001600160a01b03918216600090815260046020526040902080546001600160a01b03191691909216179055565b6111f66115ca565b6001600160a01b039091166000908152600f6020526040902055565b61121a6115ca565b6001600160a01b03919091166000908152601b60205260409020805460ff1916911515919091179055565b61124d6115ca565b6001600160a01b03909116600090815260176020526040902055565b6112716115ca565b6001600160a01b03919091166000908152601a60205260409020805460ff1916911515919091179055565b6000546001600160a01b031633146112c65760405162461bcd60e51b8152600401610d8390611afa565b600180546001600160a01b0319166001600160a01b0383169081179091556040517fcf41d0875fade187fa408cd5e4f56e25cda2fae1cff91d42f08c1db396349a2d90600090a250565b6113186115ca565b6001600160a01b039091166000908152600e6020526040902055565b61133c6115ca565b6001600160a01b03919091166000908152601960205260409020805460ff1916911515919091179055565b61136f6115ca565b6001600160a01b0393841660009081526015602090815260408083209587168352948152848220939095168152919093522055565b6113ac6115ca565b6001600160a01b03918216600090815260036020526040902080546001600160a01b03191691909216179055565b6113e26115ca565b6001600160a01b0392831660009081526014602090815260408083209490951682529290925291902055565b6114166115ca565b6001600160a01b0385166000908152601e6020526040908190209051839183916114439088908890611a95565b90815260405190819003602001902061145d929091611622565b505050505050565b61146d6115ca565b6001600160a01b03909116600090815260096020526040902055565b6114916115ca565b6001600160a01b03919091166000908152601f60205260409020805460ff1916911515919091179055565b6000546001600160a01b031633146114e65760405162461bcd60e51b8152600401610d8390611afa565b6001600160a01b03811661154b5760405162461bcd60e51b815260206004820152602660248201527f4f776e61626c653a206e6577206f776e657220697320746865207a65726f206160448201526564647265737360d01b6064820152608401610d83565b600080546040516001600160a01b03808516939216917f8be0079c531659141344cd1fd0a4f28419497f9722a3daafe3b4186f6b6457e091a3600080546001600160a01b0319166001600160a01b0392909216919091179055565b6115ae6115ca565b6001600160a01b03909116600090815260166020526040902055565b3360009081526002602052604090205460ff1661111a5760405162461bcd60e51b81526020600482015260166024820152751253959053125117d313d1d250d7d0d3d395149050d560521b6044820152606401610d83565b82805461162e90611b2f565b90600052602060002090601f0160209004810192826116505760008555611696565b82601f106116695782800160ff19823516178555611696565b82800160010185558215611696579182015b8281111561169657823582559160200191906001019061167b565b506116a29291506116a6565b5090565b5b808211156116a257600081556001016116a7565b80356001600160a01b03811681146116d257600080fd5b919050565b803580151581146116d257600080fd5b60008083601f8401126116f957600080fd5b50813567ffffffffffffffff81111561171157600080fd5b60208301915083602082850101111561172957600080fd5b9250929050565b60006020828403121561174257600080fd5b61174b826116bb565b9392505050565b6000806040838503121561176557600080fd5b61176e836116bb565b915061177c602084016116bb565b90509250929050565b60008060006060848603121561179a57600080fd5b6117a3846116bb565b92506117b1602085016116bb565b91506117bf604085016116bb565b90509250925092565b600080600080608085870312156117de57600080fd5b6117e7856116bb565b93506117f5602086016116bb565b9250611803604086016116bb565b9396929550929360600135925050565b60008060006060848603121561182857600080fd5b611831846116bb565b925061183f602085016116bb565b91506117bf604085016116d7565b60008060006060848603121561186257600080fd5b61186b846116bb565b9250611879602085016116bb565b9150604084013590509250925092565b6000806040838503121561189c57600080fd5b6118a5836116bb565b915061177c602084016116d7565b6000806000806000606086880312156118cb57600080fd5b6118d4866116bb565b9450602086013567ffffffffffffffff808211156118f157600080fd5b6118fd89838a016116e7565b9096509450604088013591508082111561191657600080fd5b50611923888289016116e7565b969995985093965092949392505050565b6000806040838503121561194757600080fd5b611950836116bb565b9150602083013567ffffffffffffffff8082111561196d57600080fd5b818501915085601f83011261198157600080fd5b81358181111561199357611993611ba9565b604051601f8201601f19908116603f011681019083821181831017156119bb576119bb611ba9565b816040528281528860208487010111156119d457600080fd5b8260208601602083013760006020848301015280955050505050509250929050565b60008060408385031215611a0957600080fd5b611a12836116bb565b946020939093013593505050565b60008060208385031215611a3357600080fd5b823567ffffffffffffffff80821115611a4b57600080fd5b818501915085601f830112611a5f57600080fd5b813581811115611a6e57600080fd5b8660208260051b8501011115611a8357600080fd5b60209290920196919550909350505050565b8183823760009101908152919050565b600060208083528351808285015260005b81811015611ad257858101830151858201604001528201611ab6565b81811115611ae4576000604083870101525b50601f01601f1916929092016040019392505050565b6020808252818101527f4f776e61626c653a2063616c6c6572206973206e6f7420746865206f776e6572604082015260600190565b600181811c90821680611b4357607f821691505b60208210811415611b6457634e487b7160e01b600052602260045260246000fd5b50919050565b6000600019821415611b8c57634e487b7160e01b600052601160045260246000fd5b5060010190565b634e487b7160e01b600052603260045260246000fd5b634e487b7160e01b600052604160045260246000fdfea2646970667358221220f0750dcfe91d8ec8f205991a3b6984d3bbe807adae573e40fcfade960a2f3e2e64736f6c634300080700338be0079c531659141344cd1fd0a4f28419497f9722a3daafe3b4186f6b6457e0",
  "immutableReferences": {},
  "source": "// SPDX-License-Identifier: UNLICENSED\n\npragma solidity ^0.8.0;\n\nimport \"./interfaces/ISyndicateClosedEndFundStoreV0.sol\";\nimport \"./SyndicateOwnerLogic.sol\";\n\n/// @author Syndicate Inc.\n/// @notice Core module for syndicate data\ncontract SyndicateClosedEndFundStoreV0 is\n    ISyndicateClosedEndFundStoreV0,\n    SyndicateOwnerLogic\n{\n    /// @notice Used to initialize the SyndicateClosedEndFundStoreV0 contract.\n    constructor(address owner) SyndicateOwnerLogic(owner) {}\n\n    /// Tracks the logic contracts that have write-access to this data contract.\n    /// These addresses should be able to access the setter functions.\n    mapping(address => bool) public logicContractAllowed;\n\n    /// @notice The owner adds a new logic contract.\n    event LogicContractAdded(address indexed logicContractAddress);\n\n    /// @notice The owner removes a logic contract.\n    event LogicContractRemoved(address indexed logicContractAddress);\n\n    /// Modifiers---------------------------------------------------------------\n\n    /// @notice Only proceed if msg.sender is a logic contract that is allowed\n    /// to call this data contract.\n    modifier onlyLogicContractAllowed() {\n        _isLogicContractAllowed();\n        _;\n    }\n\n    function _isLogicContractAllowed() internal view {\n        require(logicContractAllowed[msg.sender], \"INVALID_LOGIC_CONTRACT\");\n    }\n\n    /// Owner functions---------------------------------------------------------\n\n    /// @notice Used by contract owner to grant write access to logic\n    /// contracts.\n    function addLogicContractsAllowed(address[] calldata logicContractAddresses)\n        public\n        onlyOwner\n    {\n        for (uint256 i = 0; i < logicContractAddresses.length; i++) {\n            logicContractAllowed[logicContractAddresses[i]] = true;\n\n            emit LogicContractAdded(logicContractAddresses[i]);\n        }\n    }\n\n    /// @notice Used by contract owner to remove write access to logic\n    /// contracts.\n    function removeLogicContractsAllowed(\n        address[] calldata logicContractAddresses\n    ) public onlyOwner {\n        for (uint256 i = 0; i < logicContractAddresses.length; i++) {\n            logicContractAllowed[logicContractAddresses[i]] = false;\n\n            emit LogicContractRemoved(logicContractAddresses[i]);\n        }\n    }\n\n    // Contract data------------------------------------------------------------\n\n    // Maps the address of the Syndicate => the wallet address to which\n    // deposited funds are sent\n    mapping(address => address) public override managerCurrent;\n    // Maps the address of a Manager => to the address of the Syndicate\n    // they manage. Manager wallets are required to be unique to prevent\n    // commingling of assets between Syndicates and to ensure that transparency\n    // is provided to the members\n    mapping(address => address) public override managerSyndicate;\n    // Maps the address of the Syndicate => the wallet address nominated as a\n    // pending manager, i.e. future manager, of the Syndicate.\n    mapping(address => address) public override managerPending;\n    // Maps the address of the Syndicate => the wallet address to which the\n    // manager's profits will be sent. The manager fee address must be\n    // different from the manager's address in order to avoid commingling the\n    // Syndicate's assets with its manager's fees.\n    mapping(address => address) public override managerFeeAddress;\n    // Maps the address of the Syndicate => the fee received when the\n    // manager calls `managerAssessManagementFee`. In the future, this will be\n    // automatically assessed yearly. The fee amount must be entered in basis\n    // points: for example, a management fee of 2% per year would be passed in\n    // as 200 basis points because the fees are adjusted by\n    // `BASIS_POINTS_DENOMINATOR`, which is set to 10000.\n    mapping(address => uint256) public override managerManagementFeeBasisPoints;\n    // Maps the address of the Syndicate => the percentage of the Syndicate's\n    // distributions that will be allocated to the manager. The fee amount must\n    // be entered in basis points: for example, a distribution share of 20% of all\n    // distributions would be passed in as 2000 basis points.\n    mapping(address => uint256)\n        public\n        override managerDistributionShareBasisPoints;\n    // Maps the address of the Syndicate => the percentage of the Syndicate's\n    // distributions that will be allocated to Syndicate Inc. The minimum\n    // distribution share is 0.50%, or 50 basis points.\n    mapping(address => uint256)\n        public\n        override syndicateDistributionShareBasisPoints;\n    // Maps the address of the Syndicate => the maximum number of members that\n    // can make deposits\n    mapping(address => uint256) public override numMembersMax;\n    // Maps the address of the Syndicate => the number of members with nonzero\n    // deposits. For accurate calculation of each member's profit share, this\n    // value should NEVER be modified after the Syndicate is closed.\n    mapping(address => uint256) public override numMembersCurrent;\n    // Maps the address of the Syndicate => the address of the ERC20 contract\n    // tracking deposits to the Syndicate. A stablecoin is recommended since\n    // this is used to calculate ownership, and fluctations in value can affect\n    // these ownership calculations.\n    mapping(address => address) public override depositERC20Address;\n    // Maps the address of the Syndicate => the minimum amount (of the deposit\n    // ERC20) that a single address can deposit.\n    mapping(address => uint256) public override depositMemberMin;\n    // Maps the address of the Syndicate => the maximum amount (of the deposit\n    // ERC20) that a single address can deposit. The manager might restrict the\n    // amount that each wallet can deposit into the fund to ensure that\n    // ownership is distributed among many people. In the future, we can\n    // consider having a mapping that allows you to set per-user deposit\n    // thresholds but this is better saved for the asset management contract.\n    mapping(address => uint256) public override depositMemberMax;\n    // Maps the address of the Syndicate => the maximum amount that can be\n    // deposited to the Syndicate overall, e.g. an investment target.\n    mapping(address => uint256) public override depositTotalMax;\n    // Maps the address of the Syndicate => the amount deposited to the\n    // Syndicate in total, from all members. For accurate calculation of each\n    // member's ownership stake, this value should NEVER be modified after the\n    // Syndicate is closed.\n    mapping(address => uint256) public override depositTotal;\n    // Maps the address of the Syndicate => a member's wallet address => the\n    // amount that they have deposited to the Syndicate. For accurate\n    // calculation of the member's profit share, this value should NEVER be\n    // modified after the Syndicate is closed.\n    mapping(address => mapping(address => uint256))\n        public\n        override depositMember;\n    // Maps the address of the Syndicate => the address of an ERC20 contract =>\n    // true if the manager has set a distribution for that ERC20 token, false\n    // otherwise.\n    mapping(address => mapping(address => bool))\n        public\n        override distributionERC20Addresses;\n    // Maps the address of the Syndicate => the address of an ERC20 contract\n    // =>  the amount of the specified ERC20 token that have been set for\n    // distribution (in total for all members).\n    mapping(address => mapping(address => uint256))\n        public\n        override distributionTotal;\n    // Maps the address of the Syndicate => the address of a distribution ERC20\n    // => the amount of the specified ERC20 token that have already been\n    // claimed as distributions by ALL members.\n    mapping(address => mapping(address => uint256))\n        public\n        override distributionClaimedTotal;\n    // Maps the address of the Syndicate => the address of a distribution ERC20\n    // => a member's wallet address => the amount of the specified ERC20 token\n    // that the member has already claimed as a distribution.\n    mapping(address => mapping(address => mapping(address => uint256)))\n        public\n        override distributionClaimedMember;\n    // Maps the address of the Syndicate => the date the Syndicate was created\n    // in in UNIX time. This is also available in the events but the events are\n    // tougher to access on chain. This creation date should be relied upon as\n    // the source of truth, not the timestamp for the `createdSyndicate`\n    // event.\n    mapping(address => uint256) public override dateCreated;\n    // Maps the address of the Syndicate => the date (in the future) at which\n    // the Syndicate is scheduled to close, or the date (in the past) at which\n    // the Syndicate actually stopped receiving deposits. This date can be used\n    // for calculating management fees.\n    mapping(address => uint256) public override dateClose;\n    // Maps the address of the Syndicate => true if the Syndicate's deposits\n    // have not been finalized by the manager, false otherwise.\n    mapping(address => bool) public override open;\n    // Maps the address of the Syndicate => true if a Syndicate's members are\n    // allowed to claim distributions.\n    mapping(address => bool) public override distributing;\n    // Maps the address of the Syndicate => true if the manager can adjust\n    // deposit and distribution amounts after initalization. Can only be set on\n    // Syndicate creation and cannot be changed after that point.\n    mapping(address => bool) public override modifiable;\n    // Maps the address of the Syndicate => true if the Syndicate ONLY accepts\n    // deposits from member wallets on the `allowlist`. False if any\n    // (accredited) member can deposit.\n    mapping(address => bool) public override allowlistEnabled;\n    // Maps the address of the Syndicate => a member's wallet address => true\n    // if the member is allowed to deposit to the Syndicate, false otherwise\n    // (initialized to false at all addresses). ONLY applied when\n    // SyndicateValues.allowlistEnabled is true. Due to the trivial ease of\n    // creating new addresses, it is ineffective to maintain a list of blocked\n    // addresses (blocklist), so we implement an allowlist instead.\n    mapping(address => mapping(address => bool)) public override allowlist;\n    // Maps the address of the Syndicate => true if a member can initiate a\n    // transfer of all or a portion of their deposit to another address before\n    // the Syndicate begins distributing. Member-initiated transfers may\n    // haveregulatory concerns (e.g. by allowing a transfer to a non-accredited\n    // investor), while manager-initiated transfers are safe for\n    // internalbookkeeping purposes. A manager's ability to initiate a transfer\n    // is determined by `modifiable` and is independent to `transferable`.\n    mapping(address => bool) public override transferable;\n    // Maps the address of the Syndicate => key => value. A generic mapping for\n    // storing arbitrary data.\n    mapping(address => mapping(string => string)) public override metadata;\n    // Maps the address of the Syndicate => true if the Syndicate cannot be\n    // closed (i.e. an open-ended fund). Defaults to false. Note that starting\n    // to populate this field will have a number of downstream implications\n    // syndicate functionality including creation, closing, and distribution.\n    mapping(address => bool) public override notCloseable;\n\n    /// Setters-----------------------------------------------------------------\n\n    function setManagerCurrent(address syndicateAddress, address managerAddress)\n        public\n        override\n        onlyLogicContractAllowed\n    {\n        managerCurrent[syndicateAddress] = managerAddress;\n    }\n\n    function setManagerSyndicate(\n        address managerAddress,\n        address syndicateAddress\n    ) public override onlyLogicContractAllowed {\n        managerSyndicate[managerAddress] = syndicateAddress;\n    }\n\n    function setManagerPending(address syndicateAddress, address managerAddress)\n        public\n        override\n        onlyLogicContractAllowed\n    {\n        managerPending[syndicateAddress] = managerAddress;\n    }\n\n    function setManagerFeeAddress(address syndicateAddress, address feeAddress)\n        public\n        override\n        onlyLogicContractAllowed\n    {\n        managerFeeAddress[syndicateAddress] = feeAddress;\n    }\n\n    function setManagerManagementFeeBasisPoints(\n        address syndicateAddress,\n        uint256 feeBasisPoints\n    ) public override onlyLogicContractAllowed {\n        managerManagementFeeBasisPoints[syndicateAddress] = feeBasisPoints;\n    }\n\n    function setManagerDistributionShareBasisPoints(\n        address syndicateAddress,\n        uint256 performanceFeeBasisPoints\n    ) public override onlyLogicContractAllowed {\n        managerDistributionShareBasisPoints[\n            syndicateAddress\n        ] = performanceFeeBasisPoints;\n    }\n\n    function setSyndicateDistributionShareBasisPoints(\n        address syndicateAddress,\n        uint256 distributionShareBasisPoints\n    ) public override onlyLogicContractAllowed {\n        syndicateDistributionShareBasisPoints[\n            syndicateAddress\n        ] = distributionShareBasisPoints;\n    }\n\n    function setNumMembersMax(address syndicateAddress, uint256 maxMembers)\n        public\n        override\n        onlyLogicContractAllowed\n    {\n        numMembersMax[syndicateAddress] = maxMembers;\n    }\n\n    function setNumMembersCurrent(\n        address syndicateAddress,\n        uint256 currentMembers\n    ) public override onlyLogicContractAllowed {\n        numMembersCurrent[syndicateAddress] = currentMembers;\n    }\n\n    function setDepositERC20Address(\n        address syndicateAddress,\n        address depositAddress\n    ) public override onlyLogicContractAllowed {\n        depositERC20Address[syndicateAddress] = depositAddress;\n    }\n\n    function setDepositMemberMin(address syndicateAddress, uint256 minDeposit)\n        public\n        override\n        onlyLogicContractAllowed\n    {\n        depositMemberMin[syndicateAddress] = minDeposit;\n    }\n\n    function setDepositMemberMax(address syndicateAddress, uint256 maxDeposit)\n        public\n        override\n        onlyLogicContractAllowed\n    {\n        depositMemberMax[syndicateAddress] = maxDeposit;\n    }\n\n    function setDepositTotalMax(\n        address syndicateAddress,\n        uint256 maxDepositTotal\n    ) public override onlyLogicContractAllowed {\n        depositTotalMax[syndicateAddress] = maxDepositTotal;\n    }\n\n    function setDepositTotal(address syndicateAddress, uint256 total)\n        public\n        override\n        onlyLogicContractAllowed\n    {\n        depositTotal[syndicateAddress] = total;\n    }\n\n    function setDepositMember(\n        address syndicateAddress,\n        address memberAddress,\n        uint256 deposit\n    ) public override onlyLogicContractAllowed {\n        depositMember[syndicateAddress][memberAddress] = deposit;\n    }\n\n    function setDistributionERC20Addresses(\n        address syndicateAddress,\n        address distributionERC20Address,\n        bool isSet\n    ) public override onlyLogicContractAllowed {\n        distributionERC20Addresses[syndicateAddress][\n            distributionERC20Address\n        ] = isSet;\n    }\n\n    function setDistributionTotal(\n        address syndicateAddress,\n        address distributionERC20Address,\n        uint256 total\n    ) public override onlyLogicContractAllowed {\n        distributionTotal[syndicateAddress][distributionERC20Address] = total;\n    }\n\n    function setDistributionClaimedTotal(\n        address syndicateAddress,\n        address distributionERC20Address,\n        uint256 total\n    ) public override onlyLogicContractAllowed {\n        distributionClaimedTotal[syndicateAddress][\n            distributionERC20Address\n        ] = total;\n    }\n\n    function setDistributionClaimedMember(\n        address syndicateAddress,\n        address distributionERC20Address,\n        address memberAddress,\n        uint256 amount\n    ) public override onlyLogicContractAllowed {\n        distributionClaimedMember[syndicateAddress][distributionERC20Address][\n            memberAddress\n        ] = amount;\n    }\n\n    function setDateCreated(address syndicateAddress, uint256 date)\n        public\n        override\n        onlyLogicContractAllowed\n    {\n        dateCreated[syndicateAddress] = date;\n    }\n\n    function setDateClose(address syndicateAddress, uint256 date)\n        public\n        override\n        onlyLogicContractAllowed\n    {\n        dateClose[syndicateAddress] = date;\n    }\n\n    function setOpen(address syndicateAddress, bool isOpen)\n        public\n        override\n        onlyLogicContractAllowed\n    {\n        open[syndicateAddress] = isOpen;\n    }\n\n    function setDistributing(address syndicateAddress, bool isDistributing)\n        public\n        override\n        onlyLogicContractAllowed\n    {\n        distributing[syndicateAddress] = isDistributing;\n    }\n\n    function setModifiable(address syndicateAddress, bool isModifiable)\n        public\n        override\n        onlyLogicContractAllowed\n    {\n        modifiable[syndicateAddress] = isModifiable;\n    }\n\n    function setAllowlistEnabled(address syndicateAddress, bool isEnabled)\n        public\n        override\n        onlyLogicContractAllowed\n    {\n        allowlistEnabled[syndicateAddress] = isEnabled;\n    }\n\n    function setAllowlist(\n        address syndicateAddress,\n        address memberAddress,\n        bool allowed\n    ) public override onlyLogicContractAllowed {\n        allowlist[syndicateAddress][memberAddress] = allowed;\n    }\n\n    function setTransferable(address syndicateAddress, bool isTransferable)\n        public\n        override\n        onlyLogicContractAllowed\n    {\n        transferable[syndicateAddress] = isTransferable;\n    }\n\n    function setMetadata(\n        address syndicateAddress,\n        string calldata metadataKey,\n        string calldata metadataValue\n    ) public override onlyLogicContractAllowed {\n        metadata[syndicateAddress][metadataKey] = metadataValue;\n    }\n\n    function setNotCloseable(address syndicateAddress, bool isNotCloseable)\n        public\n        override\n        onlyLogicContractAllowed\n    {\n        notCloseable[syndicateAddress] = isNotCloseable;\n    }\n}\n",
  "sourcePath": "/Users/mbuvi/syndicates/Syndicate/contracts/SyndicateClosedEndFundStoreV0_1.sol",
  "compiler": {
    "name": "solc",
    "version": "0.8.7+commit.e28d00a7.Emscripten.clang"
  },
  "schemaVersion": "3.3.4",
  "updatedAt": "2021-08-16T14:45:14.512Z",
  "devdoc": {
    "author": "Syndicate Inc.",
    "kind": "dev",
    "methods": {
      "getSyndicateFeeAddress()": {
        "details": "This function is needed to allow inheriting contracts to only be able to view but not change syndicateFeeAddress without going through ownerSetSyndicateFeeAddress"
      },
      "owner()": {
        "details": "Returns the address of the current owner."
      },
      "ownerSetSyndicateFeeAddress(address)": {
        "params": {
          "feeAddress": "The owner's new contract fee address"
        }
      },
      "ownerTransferOwnership(address)": {
        "params": {
          "newOwner": "The new owner's address."
        }
      },
      "renounceOwnership()": {
        "details": "Leaves the contract without owner. It will not be possible to call `onlyOwner` functions anymore. Can only be called by the current owner. NOTE: Renouncing ownership will leave the contract without an owner, thereby removing any functionality that is only available to the owner."
      },
      "transferOwnership(address)": {
        "details": "Transfers ownership of the contract to a new account (`newOwner`). Can only be called by the current owner."
      }
    },
    "version": 1
  },
  "userdoc": {
    "events": {
      "LogicContractAdded(address)": {
        "notice": "The owner adds a new logic contract."
      },
      "LogicContractRemoved(address)": {
        "notice": "The owner removes a logic contract."
      },
      "SyndicateFeeAddressUpdated(address)": {
        "notice": "The owner updates the contract fee address."
      }
    },
    "kind": "user",
    "methods": {
      "addLogicContractsAllowed(address[])": {
        "notice": "Used by contract owner to grant write access to logic contracts."
      },
      "constructor": {
        "notice": "Used to initialize the SyndicateClosedEndFundStoreV0 contract."
      },
      "getSyndicateFeeAddress()": {
        "notice": "getter function for syndicate fee address."
      },
      "logicContractAllowed(address)": {
        "notice": "Tracks the logic contracts that have write-access to this data contract. These addresses should be able to access the setter functions."
      },
      "ownerRenounceOwnership()": {
        "notice": "Renounce ownership of the contract"
      },
      "ownerSetSyndicateFeeAddress(address)": {
        "notice": "set a new fee address for the contract function that can only be triggered by the contract owner."
      },
      "ownerTransferOwnership(address)": {
        "notice": "Transfers ownership to the provided address."
      },
      "removeLogicContractsAllowed(address[])": {
        "notice": "Used by contract owner to remove write access to logic contracts."
      },
      "setManagerCurrent(address,address)": {
        "notice": "Setters-----------------------------------------------------------------"
      }
    },
    "notice": "Core module for syndicate data",
    "version": 1
  }
}