{
  "contractName": "SyndicateIntegrationsCoordinatorLogicV0",
  "abi": [
    {
      "inputs": [
        {
          "internalType": "address",
          "name": "owner",
          "type": "address"
        }
      ],
      "stateMutability": "nonpayable",
      "type": "constructor"
    },
    {
      "anonymous": false,
      "inputs": [
        {
          "indexed": true,
          "internalType": "address",
          "name": "contractAddress",
          "type": "address"
        },
        {
          "indexed": false,
          "internalType": "string",
          "name": "contractName",
          "type": "string"
        }
      ],
      "name": "ContractAddressRemoved",
      "type": "event"
    },
    {
      "anonymous": false,
      "inputs": [
        {
          "indexed": true,
          "internalType": "address",
          "name": "contractAddress",
          "type": "address"
        },
        {
          "indexed": false,
          "internalType": "string",
          "name": "contractName",
          "type": "string"
        }
      ],
      "name": "ContractAddressUpdated",
      "type": "event"
    },
    {
      "anonymous": false,
      "inputs": [
        {
          "indexed": true,
          "internalType": "address",
          "name": "previousOwner",
          "type": "address"
        },
        {
          "indexed": true,
          "internalType": "address",
          "name": "newOwner",
          "type": "address"
        }
      ],
      "name": "OwnershipTransferred",
      "type": "event"
    },
    {
      "anonymous": false,
      "inputs": [
        {
          "indexed": true,
          "internalType": "address",
          "name": "contractFeeAddress",
          "type": "address"
        }
      ],
      "name": "SyndicateFeeAddressUpdated",
      "type": "event"
    },
    {
      "inputs": [],
      "name": "BASIS_POINTS_DENOMINATOR",
      "outputs": [
        {
          "internalType": "uint256",
          "name": "",
          "type": "uint256"
        }
      ],
      "stateMutability": "view",
      "type": "function"
    },
    {
      "inputs": [],
      "name": "getSyndicateFeeAddress",
      "outputs": [
        {
          "internalType": "address",
          "name": "",
          "type": "address"
        }
      ],
      "stateMutability": "view",
      "type": "function"
    },
    {
      "inputs": [],
      "name": "owner",
      "outputs": [
        {
          "internalType": "address",
          "name": "",
          "type": "address"
        }
      ],
      "stateMutability": "view",
      "type": "function"
    },
    {
      "inputs": [],
      "name": "ownerRenounceOwnership",
      "outputs": [],
      "stateMutability": "nonpayable",
      "type": "function"
    },
    {
      "inputs": [
        {
          "internalType": "address",
          "name": "feeAddress",
          "type": "address"
        }
      ],
      "name": "ownerSetSyndicateFeeAddress",
      "outputs": [],
      "stateMutability": "nonpayable",
      "type": "function"
    },
    {
      "inputs": [
        {
          "internalType": "address",
          "name": "newOwner",
          "type": "address"
        }
      ],
      "name": "ownerTransferOwnership",
      "outputs": [],
      "stateMutability": "nonpayable",
      "type": "function"
    },
    {
      "inputs": [],
      "name": "renounceOwnership",
      "outputs": [],
      "stateMutability": "nonpayable",
      "type": "function"
    },
    {
      "inputs": [
        {
          "internalType": "address",
          "name": "newOwner",
          "type": "address"
        }
      ],
      "name": "transferOwnership",
      "outputs": [],
      "stateMutability": "nonpayable",
      "type": "function"
    },
    {
      "inputs": [
        {
          "internalType": "string[]",
          "name": "contractNames",
          "type": "string[]"
        }
      ],
      "name": "getAddresses",
      "outputs": [
        {
          "internalType": "address[]",
          "name": "",
          "type": "address[]"
        }
      ],
      "stateMutability": "view",
      "type": "function"
    },
    {
      "inputs": [
        {
          "internalType": "string[]",
          "name": "contractNames",
          "type": "string[]"
        },
        {
          "internalType": "address[]",
          "name": "addresses",
          "type": "address[]"
        }
      ],
      "name": "addOrUpdateContracts",
      "outputs": [],
      "stateMutability": "nonpayable",
      "type": "function"
    },
    {
      "inputs": [
        {
          "internalType": "string",
          "name": "contractName",
          "type": "string"
        }
      ],
      "name": "removeContract",
      "outputs": [],
      "stateMutability": "nonpayable",
      "type": "function"
    }
  ],
  "bytecode": "0x6080604052600180546001600160a01b0319167340db79f7f18c468c6552538b488c58b5e72bf4d917905534801561003657600080fd5b50604051610d40380380610d40833981016040819052610055916101a1565b600080546001600160a01b03191633908117825560405183928291600080516020610d20833981519152908290a35061008d81610094565b50506101d1565b6000546001600160a01b031633146100f35760405162461bcd60e51b815260206004820181905260248201527f4f776e61626c653a2063616c6c6572206973206e6f7420746865206f776e657260448201526064015b60405180910390fd5b6001600160a01b0381166101585760405162461bcd60e51b815260206004820152602660248201527f4f776e61626c653a206e6577206f776e657220697320746865207a65726f206160448201526564647265737360d01b60648201526084016100ea565b600080546040516001600160a01b0380851693921691600080516020610d2083398151915291a3600080546001600160a01b0319166001600160a01b0392909216919091179055565b6000602082840312156101b357600080fd5b81516001600160a01b03811681146101ca57600080fd5b9392505050565b610b40806101e06000396000f3fe608060405234801561001057600080fd5b50600436106100a95760003560e01c8063a09cca9311610071578063a09cca9314610110578063bfd9a7e114610123578063cad0a37314610136578063cfa498a314610147578063cffe244a1461015e578063f2fde38b1461017e57600080fd5b8063715018a6146100ae578063774cb922146100b857806381abf408146100cb5780638da5cb5b146100d357806397623b58146100fd575b600080fd5b6100b6610191565b005b6100b66100c63660046108cf565b61020e565b6100b66103b7565b6000546001600160a01b03165b6040516001600160a01b0390911681526020015b60405180910390f35b6100b661010b36600461093b565b6103eb565b6100b661011e36600461085d565b610503565b6100b661013136600461085d565b610539565b6001546001600160a01b03166100e0565b61015061271081565b6040519081526020016100f4565b61017161016c36600461088d565b6105ad565b6040516100f491906109bd565b6100b661018c36600461085d565b610727565b6000546001600160a01b031633146101c45760405162461bcd60e51b81526004016101bb90610a39565b60405180910390fd5b600080546040516001600160a01b03909116907f8be0079c531659141344cd1fd0a4f28419497f9722a3daafe3b4186f6b6457e0908390a3600080546001600160a01b0319169055565b6000546001600160a01b031633146102385760405162461bcd60e51b81526004016101bb90610a39565b82811461027e5760405162461bcd60e51b815260206004820152601460248201527320a92920acafa622a723aa2429afa224a32322a960611b60448201526064016101bb565b60005b838110156103b05782828281811061029b5761029b610ade565b90506020020160208101906102b0919061085d565b60028686848181106102c4576102c4610ade565b90506020028101906102d69190610a6e565b6040516102e49291906109ad565b90815260405190819003602001902080546001600160a01b03929092166001600160a01b031990921691909117905582828281811061032557610325610ade565b905060200201602081019061033a919061085d565b6001600160a01b03167f92878be11ac9a9c87baa8f07dd8f97420f4a6975713206cb2e30d3c23538d78a86868481811061037657610376610ade565b90506020028101906103889190610a6e565b604051610396929190610a0a565b60405180910390a2806103a881610ab5565b915050610281565b5050505050565b6000546001600160a01b031633146103e15760405162461bcd60e51b81526004016101bb90610a39565b6103e9610191565b565b6000546001600160a01b031633146104155760405162461bcd60e51b81526004016101bb90610a39565b6000600283836040516104299291906109ad565b908152604051908190036020019020546001600160a01b03169050806104845760405162461bcd60e51b815260206004820152601060248201526f1393d7d4d550d217d0d3d395149050d560821b60448201526064016101bb565b6000600284846040516104989291906109ad565b90815260405190819003602001812080546001600160a01b039384166001600160a01b0319909116179055908216907fc1badcd89569085569ece4eb3b84160fe80552dd5ac106ab0c85f00694dd21fb906104f69086908690610a0a565b60405180910390a2505050565b6000546001600160a01b0316331461052d5760405162461bcd60e51b81526004016101bb90610a39565b61053681610727565b50565b6000546001600160a01b031633146105635760405162461bcd60e51b81526004016101bb90610a39565b600180546001600160a01b0319166001600160a01b0383169081179091556040517fcf41d0875fade187fa408cd5e4f56e25cda2fae1cff91d42f08c1db396349a2d90600090a250565b606060008267ffffffffffffffff8111156105ca576105ca610af4565b6040519080825280602002602001820160405280156105f3578160200160208202803683370190505b50905060005b8381101561071f576000600286868481811061061757610617610ade565b90506020028101906106299190610a6e565b6040516106379291906109ad565b908152604051908190036020019020546001600160a01b031614156106915760405162461bcd60e51b815260206004820152601060248201526f1393d7d4d550d217d0d3d395149050d560821b60448201526064016101bb565b60028585838181106106a5576106a5610ade565b90506020028101906106b79190610a6e565b6040516106c59291906109ad565b9081526040519081900360200190205482516001600160a01b03909116908390839081106106f5576106f5610ade565b6001600160a01b03909216602092830291909101909101528061071781610ab5565b9150506105f9565b509392505050565b6000546001600160a01b031633146107515760405162461bcd60e51b81526004016101bb90610a39565b6001600160a01b0381166107b65760405162461bcd60e51b815260206004820152602660248201527f4f776e61626c653a206e6577206f776e657220697320746865207a65726f206160448201526564647265737360d01b60648201526084016101bb565b600080546040516001600160a01b03808516939216917f8be0079c531659141344cd1fd0a4f28419497f9722a3daafe3b4186f6b6457e091a3600080546001600160a01b0319166001600160a01b0392909216919091179055565b60008083601f84011261082357600080fd5b50813567ffffffffffffffff81111561083b57600080fd5b6020830191508360208260051b850101111561085657600080fd5b9250929050565b60006020828403121561086f57600080fd5b81356001600160a01b038116811461088657600080fd5b9392505050565b600080602083850312156108a057600080fd5b823567ffffffffffffffff8111156108b757600080fd5b6108c385828601610811565b90969095509350505050565b600080600080604085870312156108e557600080fd5b843567ffffffffffffffff808211156108fd57600080fd5b61090988838901610811565b9096509450602087013591508082111561092257600080fd5b5061092f87828801610811565b95989497509550505050565b6000806020838503121561094e57600080fd5b823567ffffffffffffffff8082111561096657600080fd5b818501915085601f83011261097a57600080fd5b81358181111561098957600080fd5b86602082850101111561099b57600080fd5b60209290920196919550909350505050565b8183823760009101908152919050565b6020808252825182820181905260009190848201906040850190845b818110156109fe5783516001600160a01b0316835292840192918401916001016109d9565b50909695505050505050565b60208152816020820152818360408301376000818301604090810191909152601f909201601f19160101919050565b6020808252818101527f4f776e61626c653a2063616c6c6572206973206e6f7420746865206f776e6572604082015260600190565b6000808335601e19843603018112610a8557600080fd5b83018035915067ffffffffffffffff821115610aa057600080fd5b60200191503681900382131561085657600080fd5b6000600019821415610ad757634e487b7160e01b600052601160045260246000fd5b5060010190565b634e487b7160e01b600052603260045260246000fd5b634e487b7160e01b600052604160045260246000fdfea2646970667358221220f05f76add0d0faaad3c7a9b9b74c84eb6b569dde0779dc6714d43b5390390e4964736f6c634300080700338be0079c531659141344cd1fd0a4f28419497f9722a3daafe3b4186f6b6457e0",
  "immutableReferences": {},
  "source": "// SPDX-License-Identifier: UNLICENSED\n\npragma solidity ^0.8.0;\n\nimport \"./SyndicateOwnerLogic.sol\";\n\n/// @notice Stores contract/address pairs of deployed Syndicate\n/// contracts.\ncontract SyndicateIntegrationsCoordinatorLogicV0 is SyndicateOwnerLogic {\n    /// @notice The owner adds or updates a contract address.\n    event ContractAddressUpdated(\n        address indexed contractAddress,\n        string contractName\n    );\n\n    /// @notice The owner removes a contract address.\n    event ContractAddressRemoved(\n        address indexed contractAddress,\n        string contractName\n    );\n\n    /// @dev Currently we store the data inside the logic contract.\n    /// Once we feel comfortable with what data is needed by outside\n    /// parties we will split this into separate contracts.\n    mapping(string => address) private contractAddress;\n\n    constructor(address owner) SyndicateOwnerLogic(owner) {}\n\n    /// @notice Getter for the addresses that the provided contracts are\n    /// deployed at. Note that the function will return the addresses in the\n    /// exact order provided in the input array. If any of requested contracts\n    /// is not registered with the integrations coordinator, the function will\n    /// revert.\n    /// @param contractNames The contract names\n    /// @return The address where the contract is deployed\n    function getAddresses(string[] calldata contractNames)\n        public\n        view\n        returns (address[] memory)\n    {\n        address[] memory addresses = new address[](contractNames.length);\n        for (uint256 i = 0; i < contractNames.length; i++) {\n            require(\n                contractAddress[contractNames[i]] != address(0),\n                \"NO_SUCH_CONTRACT\"\n            );\n            addresses[i] = contractAddress[contractNames[i]];\n        }\n\n        return addresses;\n    }\n\n    /// @notice Add or update contract/address pairs.\n    /// @param contractNames The contract names\n    /// @param addresses The addresses of the contracts\n    function addOrUpdateContracts(\n        string[] calldata contractNames,\n        address[] calldata addresses\n    ) public onlyOwner {\n        // Both passed-in arrays must have the same length\n        require(\n            contractNames.length == addresses.length,\n            \"ARRAY_LENGTHS_DIFFER\"\n        );\n        for (uint256 i = 0; i < contractNames.length; i++) {\n            contractAddress[contractNames[i]] = addresses[i];\n            emit ContractAddressUpdated(addresses[i], contractNames[i]);\n        }\n    }\n\n    /// @notice Remove a contract\n    /// @param contractName The contract name\n    function removeContract(string calldata contractName) public onlyOwner {\n        address oldAddress = contractAddress[contractName];\n        require(oldAddress != address(0), \"NO_SUCH_CONTRACT\");\n        contractAddress[contractName] = address(0);\n        emit ContractAddressRemoved(oldAddress, contractName);\n    }\n}\n",
  "sourcePath": "/Users/mbuvi/syndicates/Syndicate/contracts/SyndicateIntegrationsCoordinatorLogicV0.sol",
  "compiler": {
    "name": "solc",
    "version": "0.8.7+commit.e28d00a7.Emscripten.clang"
  },
  "schemaVersion": "3.3.4",
  "updatedAt": "2021-08-16T14:45:14.520Z",
  "devdoc": {
    "kind": "dev",
    "methods": {
      "addOrUpdateContracts(string[],address[])": {
        "params": {
          "addresses": "The addresses of the contracts",
          "contractNames": "The contract names"
        }
      },
      "getAddresses(string[])": {
        "params": {
          "contractNames": "The contract names"
        },
        "returns": {
          "_0": "The address where the contract is deployed"
        }
      },
      "getSyndicateFeeAddress()": {
        "details": "This function is needed to allow inheriting contracts to only be able to view but not change syndicateFeeAddress without going through ownerSetSyndicateFeeAddress"
      },
      "owner()": {
        "details": "Returns the address of the current owner."
      },
      "ownerSetSyndicateFeeAddress(address)": {
        "params": {
          "feeAddress": "The owner's new contract fee address"
        }
      },
      "ownerTransferOwnership(address)": {
        "params": {
          "newOwner": "The new owner's address."
        }
      },
      "removeContract(string)": {
        "params": {
          "contractName": "The contract name"
        }
      },
      "renounceOwnership()": {
        "details": "Leaves the contract without owner. It will not be possible to call `onlyOwner` functions anymore. Can only be called by the current owner. NOTE: Renouncing ownership will leave the contract without an owner, thereby removing any functionality that is only available to the owner."
      },
      "transferOwnership(address)": {
        "details": "Transfers ownership of the contract to a new account (`newOwner`). Can only be called by the current owner."
      }
    },
    "stateVariables": {
      "contractAddress": {
        "details": "Currently we store the data inside the logic contract. Once we feel comfortable with what data is needed by outside parties we will split this into separate contracts."
      }
    },
    "version": 1
  },
  "userdoc": {
    "events": {
      "ContractAddressRemoved(address,string)": {
        "notice": "The owner removes a contract address."
      },
      "ContractAddressUpdated(address,string)": {
        "notice": "The owner adds or updates a contract address."
      },
      "SyndicateFeeAddressUpdated(address)": {
        "notice": "The owner updates the contract fee address."
      }
    },
    "kind": "user",
    "methods": {
      "addOrUpdateContracts(string[],address[])": {
        "notice": "Add or update contract/address pairs."
      },
      "getAddresses(string[])": {
        "notice": "Getter for the addresses that the provided contracts are deployed at. Note that the function will return the addresses in the exact order provided in the input array. If any of requested contracts is not registered with the integrations coordinator, the function will revert."
      },
      "getSyndicateFeeAddress()": {
        "notice": "getter function for syndicate fee address."
      },
      "ownerRenounceOwnership()": {
        "notice": "Renounce ownership of the contract"
      },
      "ownerSetSyndicateFeeAddress(address)": {
        "notice": "set a new fee address for the contract function that can only be triggered by the contract owner."
      },
      "ownerTransferOwnership(address)": {
        "notice": "Transfers ownership to the provided address."
      },
      "removeContract(string)": {
        "notice": "Remove a contract"
      }
    },
    "notice": "Stores contract/address pairs of deployed Syndicate contracts.",
    "version": 1
  }
}