{
  "contractName": "SyndicateClosedEndFundAllowlistLogicV0",
  "abi": [
    {
      "inputs": [
        {
          "internalType": "address",
          "name": "owner",
          "type": "address"
        },
        {
          "internalType": "address",
          "name": "storeAddress",
          "type": "address"
        }
      ],
      "stateMutability": "nonpayable",
      "type": "constructor"
    },
    {
      "anonymous": false,
      "inputs": [
        {
          "indexed": true,
          "internalType": "address",
          "name": "syndicateAddress",
          "type": "address"
        },
        {
          "indexed": true,
          "internalType": "address",
          "name": "memberAddress",
          "type": "address"
        }
      ],
      "name": "AddressAllowed",
      "type": "event"
    },
    {
      "anonymous": false,
      "inputs": [
        {
          "indexed": true,
          "internalType": "address",
          "name": "syndicateAddress",
          "type": "address"
        },
        {
          "indexed": true,
          "internalType": "address",
          "name": "memberAddress",
          "type": "address"
        }
      ],
      "name": "AddressBlocked",
      "type": "event"
    },
    {
      "anonymous": false,
      "inputs": [
        {
          "indexed": true,
          "internalType": "address",
          "name": "syndicateAddress",
          "type": "address"
        },
        {
          "indexed": true,
          "internalType": "bool",
          "name": "allowlistEnabled",
          "type": "bool"
        }
      ],
      "name": "AllowlistEnabledUpdated",
      "type": "event"
    },
    {
      "anonymous": false,
      "inputs": [
        {
          "indexed": true,
          "internalType": "address",
          "name": "previousOwner",
          "type": "address"
        },
        {
          "indexed": true,
          "internalType": "address",
          "name": "newOwner",
          "type": "address"
        }
      ],
      "name": "OwnershipTransferred",
      "type": "event"
    },
    {
      "anonymous": false,
      "inputs": [
        {
          "indexed": true,
          "internalType": "address",
          "name": "contractFeeAddress",
          "type": "address"
        }
      ],
      "name": "SyndicateFeeAddressUpdated",
      "type": "event"
    },
    {
      "inputs": [],
      "name": "BASIS_POINTS_DENOMINATOR",
      "outputs": [
        {
          "internalType": "uint256",
          "name": "",
          "type": "uint256"
        }
      ],
      "stateMutability": "view",
      "type": "function"
    },
    {
      "inputs": [],
      "name": "getSyndicateFeeAddress",
      "outputs": [
        {
          "internalType": "address",
          "name": "",
          "type": "address"
        }
      ],
      "stateMutability": "view",
      "type": "function"
    },
    {
      "inputs": [],
      "name": "owner",
      "outputs": [
        {
          "internalType": "address",
          "name": "",
          "type": "address"
        }
      ],
      "stateMutability": "view",
      "type": "function"
    },
    {
      "inputs": [],
      "name": "ownerRenounceOwnership",
      "outputs": [],
      "stateMutability": "nonpayable",
      "type": "function"
    },
    {
      "inputs": [
        {
          "internalType": "address",
          "name": "feeAddress",
          "type": "address"
        }
      ],
      "name": "ownerSetSyndicateFeeAddress",
      "outputs": [],
      "stateMutability": "nonpayable",
      "type": "function"
    },
    {
      "inputs": [
        {
          "internalType": "address",
          "name": "newOwner",
          "type": "address"
        }
      ],
      "name": "ownerTransferOwnership",
      "outputs": [],
      "stateMutability": "nonpayable",
      "type": "function"
    },
    {
      "inputs": [],
      "name": "renounceOwnership",
      "outputs": [],
      "stateMutability": "nonpayable",
      "type": "function"
    },
    {
      "inputs": [
        {
          "internalType": "address",
          "name": "newOwner",
          "type": "address"
        }
      ],
      "name": "transferOwnership",
      "outputs": [],
      "stateMutability": "nonpayable",
      "type": "function"
    },
    {
      "inputs": [
        {
          "internalType": "address",
          "name": "syndicateAddress",
          "type": "address"
        },
        {
          "internalType": "bool",
          "name": "allowlistEnabled",
          "type": "bool"
        }
      ],
      "name": "managerSetAllowlistEnabled",
      "outputs": [],
      "stateMutability": "nonpayable",
      "type": "function"
    },
    {
      "inputs": [
        {
          "internalType": "address",
          "name": "syndicateAddress",
          "type": "address"
        },
        {
          "internalType": "address[]",
          "name": "memberAddresses",
          "type": "address[]"
        }
      ],
      "name": "managerAllowAddresses",
      "outputs": [],
      "stateMutability": "nonpayable",
      "type": "function"
    },
    {
      "inputs": [
        {
          "internalType": "address",
          "name": "syndicateAddress",
          "type": "address"
        },
        {
          "internalType": "address[]",
          "name": "memberAddresses",
          "type": "address[]"
        }
      ],
      "name": "managerBlockAddresses",
      "outputs": [],
      "stateMutability": "nonpayable",
      "type": "function"
    }
  ],
  "bytecode": "0x6080604052600280546001600160a01b0319167340db79f7f18c468c6552538b488c58b5e72bf4d917905534801561003657600080fd5b50604051610e44380380610e44833981016040819052610055916101ec565b6001600081815581546001600160a01b03191633908117909255604051849284928492829190600080516020610e24833981519152908290a350610098816100c2565b50600380546001600160a01b0319166001600160a01b03929092169190911790555061021f915050565b6001546001600160a01b031633146101215760405162461bcd60e51b815260206004820181905260248201527f4f776e61626c653a2063616c6c6572206973206e6f7420746865206f776e657260448201526064015b60405180910390fd5b6001600160a01b0381166101865760405162461bcd60e51b815260206004820152602660248201527f4f776e61626c653a206e6577206f776e657220697320746865207a65726f206160448201526564647265737360d01b6064820152608401610118565b6001546040516001600160a01b03808416921690600080516020610e2483398151915290600090a3600180546001600160a01b0319166001600160a01b0392909216919091179055565b80516001600160a01b03811681146101e757600080fd5b919050565b600080604083850312156101ff57600080fd5b610208836101d0565b9150610216602084016101d0565b90509250929050565b610bf68061022e6000396000f3fe608060405234801561001057600080fd5b50600436106100a95760003560e01c8063a09cca9311610071578063a09cca9314610110578063bd4edf0e14610123578063bfd9a7e114610136578063cad0a37314610149578063cfa498a31461015a578063f2fde38b1461017157600080fd5b806315b1a646146100ae578063715018a6146100c357806381abf408146100cb57806386afa44e146100d35780638da5cb5b146100e6575b600080fd5b6100c16100bc366004610a4b565b610184565b005b6100c16102ce565b6100c161034b565b6100c16100e1366004610ad3565b61037f565b6001546001600160a01b03165b6040516001600160a01b0390911681526020015b60405180910390f35b6100c161011e366004610a0a565b610438565b6100c1610131366004610a4b565b61046e565b6100c1610144366004610a0a565b6105af565b6002546001600160a01b03166100f3565b61016361271081565b604051908152602001610107565b6100c161017f366004610a0a565b610623565b8261018e8161070e565b83610198816107d9565b846101a281610896565b60005b848110156102c5576003546001600160a01b031663010d8135888888858181106101d1576101d1610b87565b90506020020160208101906101e69190610a0a565b6040516001600160e01b031960e085901b1681526001600160a01b0392831660048201529116602482015260016044820152606401600060405180830381600087803b15801561023557600080fd5b505af1158015610249573d6000803e3d6000fd5b5050505085858281811061025f5761025f610b87565b90506020020160208101906102749190610a0a565b6001600160a01b0316876001600160a01b03167f11db8dd6cdf978ae8ea4387d9f3d24b21d117d4b9669c370379462b939ad302160405160405180910390a3806102bd81610b5e565b9150506101a5565b50505050505050565b6001546001600160a01b031633146103015760405162461bcd60e51b81526004016102f890610b29565b60405180910390fd5b6001546040516000916001600160a01b0316907f8be0079c531659141344cd1fd0a4f28419497f9722a3daafe3b4186f6b6457e0908390a3600180546001600160a01b0319169055565b6001546001600160a01b031633146103755760405162461bcd60e51b81526004016102f890610b29565b61037d6102ce565b565b816103898161070e565b8261039381610954565b60035460405163b1e315bf60e01b81526001600160a01b03868116600483015285151560248301529091169063b1e315bf90604401600060405180830381600087803b1580156103e257600080fd5b505af11580156103f6573d6000803e3d6000fd5b505060405185151592506001600160a01b03871691507f8a9a34d3af8982b2b56ec3b1f1f8580f5d10d945bf203d1cb0f30aea8f2624fc90600090a350505050565b6001546001600160a01b031633146104625760405162461bcd60e51b81526004016102f890610b29565b61046b81610623565b50565b826104788161070e565b83610482816107d9565b8461048c81610896565b60005b848110156102c5576003546001600160a01b031663010d8135888888858181106104bb576104bb610b87565b90506020020160208101906104d09190610a0a565b6040516001600160e01b031960e085901b1681526001600160a01b0392831660048201529116602482015260006044820152606401600060405180830381600087803b15801561051f57600080fd5b505af1158015610533573d6000803e3d6000fd5b5050505085858281811061054957610549610b87565b905060200201602081019061055e9190610a0a565b6001600160a01b0316876001600160a01b03167ff6a9e0671826ecb6caed3f09102abc8d144bbb3fe5137ad92cdebaf1312989ef60405160405180910390a3806105a781610b5e565b91505061048f565b6001546001600160a01b031633146105d95760405162461bcd60e51b81526004016102f890610b29565b600280546001600160a01b0319166001600160a01b0383169081179091556040517fcf41d0875fade187fa408cd5e4f56e25cda2fae1cff91d42f08c1db396349a2d90600090a250565b6001546001600160a01b0316331461064d5760405162461bcd60e51b81526004016102f890610b29565b6001600160a01b0381166106b25760405162461bcd60e51b815260206004820152602660248201527f4f776e61626c653a206e6577206f776e657220697320746865207a65726f206160448201526564647265737360d01b60648201526084016102f8565b6001546040516001600160a01b038084169216907f8be0079c531659141344cd1fd0a4f28419497f9722a3daafe3b4186f6b6457e090600090a3600180546001600160a01b0319166001600160a01b0392909216919091179055565b600354604051630e8aef6f60e41b81526001600160a01b0383811660048301529091169063e8aef6f09060240160206040518083038186803b15801561075357600080fd5b505afa158015610767573d6000803e3d6000fd5b505050506040513d601f19601f8201168201806040525081019061078b9190610a2e565b6001600160a01b0316336001600160a01b03161461046b5760405162461bcd60e51b815260206004820152600b60248201526a29a2292fa727aa2fa6a3a960a91b60448201526064016102f8565b600354604051630622493160e41b81526001600160a01b0383811660048301529091169063622493109060240160206040518083038186803b15801561081e57600080fd5b505afa158015610832573d6000803e3d6000fd5b505050506040513d601f19601f820116820180604052508101906108569190610b0c565b1561046b5760405162461bcd60e51b815260206004820152601060248201526f53594e5f444953545249425554494e4760801b60448201526064016102f8565b6003546040516331dcbbdb60e21b81526001600160a01b0383811660048301529091169063c772ef6c9060240160206040518083038186803b1580156108db57600080fd5b505afa1580156108ef573d6000803e3d6000fd5b505050506040513d601f19601f820116820180604052508101906109139190610b0c565b61046b5760405162461bcd60e51b815260206004820152601260248201527110531313d5d31254d517d11254d05093115160721b60448201526064016102f8565b60035460405163172a8c1f60e31b81526001600160a01b0383811660048301529091169063b95460f89060240160206040518083038186803b15801561099957600080fd5b505afa1580156109ad573d6000803e3d6000fd5b505050506040513d601f19601f820116820180604052508101906109d19190610b0c565b61046b5760405162461bcd60e51b815260206004820152600a60248201526914d65397d0d313d4d15160b21b60448201526064016102f8565b600060208284031215610a1c57600080fd5b8135610a2781610b9d565b9392505050565b600060208284031215610a4057600080fd5b8151610a2781610b9d565b600080600060408486031215610a6057600080fd5b8335610a6b81610b9d565b9250602084013567ffffffffffffffff80821115610a8857600080fd5b818601915086601f830112610a9c57600080fd5b813581811115610aab57600080fd5b8760208260051b8501011115610ac057600080fd5b6020830194508093505050509250925092565b60008060408385031215610ae657600080fd5b8235610af181610b9d565b91506020830135610b0181610bb2565b809150509250929050565b600060208284031215610b1e57600080fd5b8151610a2781610bb2565b6020808252818101527f4f776e61626c653a2063616c6c6572206973206e6f7420746865206f776e6572604082015260600190565b6000600019821415610b8057634e487b7160e01b600052601160045260246000fd5b5060010190565b634e487b7160e01b600052603260045260246000fd5b6001600160a01b038116811461046b57600080fd5b801515811461046b57600080fdfea26469706673582212200cb3da4362062bad8bebb82bbd9dfdc60156f7907956459a278df71b725c467664736f6c634300080700338be0079c531659141344cd1fd0a4f28419497f9722a3daafe3b4186f6b6457e0",
  "immutableReferences": {},
  "source": "// SPDX-License-Identifier: UNLICENSED\n\npragma solidity ^0.8.0;\n\nimport \"./SyndicateClosedEndFundLogic.sol\";\nimport \"./interfaces/ISyndicateClosedEndFundAllowlistLogicV0.sol\";\n\n/// @author Syndicate Inc.\n/// @notice This contract enables the manager to enable/disable, add members\n/// to, and remove members from the allowlist. If the allowlist is enabled,\n/// then only the listed addresses will be allowed to deposit.\n\ncontract SyndicateClosedEndFundAllowlistLogicV0 is\n    ISyndicateClosedEndFundAllowlistLogicV0,\n    SyndicateClosedEndFundLogic\n{\n    // Storage------------------------------------------------------------------\n\n    /// @notice Used to initialize the Syndicate contract.\n    constructor(address owner, address storeAddress)\n        SyndicateClosedEndFundLogic(owner, storeAddress)\n    {}\n\n    // Events-------------------------------------------------------------------\n\n    /// @notice A manager enables or disables the allowlist.\n    /// @dev These events can be used to notify prospective members off-chain\n    /// whether membership is restricted or not.\n    event AllowlistEnabledUpdated(\n        address indexed syndicateAddress,\n        bool indexed allowlistEnabled\n    );\n\n    /// @notice A manager adds a member's wallet address to the allowlist.\n    /// @dev These events can be used to notify a member off-chain that their\n    /// address is now allowed\n    /// @dev The timestamp is not critical here and in the below events, so it\n    /// is not included to save on gas costs. When a timestamp is necessary, it\n    /// can be pulled by evaluating the block that an event was contained in\n    /// (since the timestamp is just the block.timestamp)\n    event AddressAllowed(\n        address indexed syndicateAddress,\n        address indexed memberAddress\n    );\n\n    /// @notice A manager removes a member's wallet address from the allowlist.\n    /// @dev These events can be used to notify a member off-chain that their\n    /// address is now blocked (e.g. removed from the allowlist)\n    event AddressBlocked(\n        address indexed syndicateAddress,\n        address indexed memberAddress\n    );\n\n    // Functions----------------------------------------------------------------\n\n    /// @notice Used by a manager to turn the allowlist on or off\n    /// @param syndicateAddress The address of the Syndicate\n    /// @param allowlistEnabled True if the Syndicate ONLY accepts deposits\n    /// from allowed addresses. False if any (accredited) member can make a\n    /// deposit.\n    /// @notice This setter can only be called when the Syndicate is open, as\n    /// it only limits future deposits. To retroactively remove deposits that\n    /// have been made by members who may not have been on the allowlist, a\n    /// manager should use `managerRejectDepositForMember()`.\n    function managerSetAllowlistEnabled(\n        address syndicateAddress,\n        bool allowlistEnabled\n    ) public override onlyManager(syndicateAddress) onlyOpen(syndicateAddress) {\n        store.setAllowlistEnabled(syndicateAddress, allowlistEnabled);\n        // Emit an event when the manager modifies the allowlist settings\n        emit AllowlistEnabledUpdated(syndicateAddress, allowlistEnabled);\n    }\n\n    /// @notice Used by a manager to add an array of member addresses to the\n    /// allowlist and emit an event to allow for easy searching.\n    /// @param syndicateAddress The address of the Syndicate to accept the\n    /// allowedAdresses\n    /// @param memberAddresses An array of addresses to be allowed by the\n    /// Syndicate\n    /// @notice This function is only relevant when the manager has turned the\n    /// allowlist on (`SyndicateValues.allowlistEnabled == true`). If the\n    /// allowlist is off, anyone can make a deposit to the Syndicate without the\n    /// manager specifically allowing their address.\n    /// @dev Allowing a single address costs 31527 in gas without an array and\n    /// 32445 in gas with an array. This is a difference in cost of $0.17 at\n    /// current gas prices, which is a worthwhile trade off considering that (a)\n    /// allowing only one address will be less common than allowing multiple\n    /// addresses and (b) having two different allowAddress functions poses a\n    /// security risk if we forget to reconcile changes between them\n    function managerAllowAddresses(\n        address syndicateAddress,\n        address[] calldata memberAddresses\n    )\n        public\n        override\n        onlyManager(syndicateAddress)\n        onlyBeforeDistributing(syndicateAddress)\n        onlyAllowlistEnabled(syndicateAddress)\n    {\n        // Loop through all memberAddresses and change status to True for allowed.\n        for (uint256 i = 0; i < memberAddresses.length; i++) {\n            store.setAllowlist(syndicateAddress, memberAddresses[i], true);\n            // Emit an event that a member can listen to so that they can know\n            // when their address has been added to an allowlist\n            emit AddressAllowed(syndicateAddress, memberAddresses[i]);\n        }\n    }\n\n    /// @notice Used by a manager to remove a previously-allowed member address\n    /// from the allowlist\n    /// @param syndicateAddress The address of the Syndicate that contains the\n    /// allowlist\n    /// @param memberAddresses The array of member addresses to remove.\n    /// @notice This function only proceeds when the allowlist is enabled, as\n    /// it is ineffective to maintain a blocklist of possible member addresses.\n    /// A manager who wishes to reverse a deposit into their fund should\n    /// instead use `managerRejectDepositForMembers()`.\n    /// @notice Blocking a member address that has previously been allowed does\n    /// not reject or return their prior deposits. The deposit is still kept\n    /// in the syndicate.\n    function managerBlockAddresses(\n        address syndicateAddress,\n        address[] calldata memberAddresses\n    )\n        public\n        override\n        onlyManager(syndicateAddress)\n        onlyBeforeDistributing(syndicateAddress)\n        onlyAllowlistEnabled(syndicateAddress)\n    {\n        for (uint256 i = 0; i < memberAddresses.length; i++) {\n            store.setAllowlist(syndicateAddress, memberAddresses[i], false);\n\n            emit AddressBlocked(syndicateAddress, memberAddresses[i]);\n        }\n    }\n}\n",
  "sourcePath": "/Users/mbuvi/syndicates/Syndicate/contracts/SyndicateClosedEndFundAllowlistLogicV0_1.sol",
  "compiler": {
    "name": "solc",
    "version": "0.8.7+commit.e28d00a7.Emscripten.clang"
  },
  "schemaVersion": "3.3.4",
  "updatedAt": "2021-08-16T14:45:14.446Z",
  "devdoc": {
    "author": "Syndicate Inc.",
    "events": {
      "AddressAllowed(address,address)": {
        "details": "These events can be used to notify a member off-chain that their address is now allowedThe timestamp is not critical here and in the below events, so it is not included to save on gas costs. When a timestamp is necessary, it can be pulled by evaluating the block that an event was contained in (since the timestamp is just the block.timestamp)"
      },
      "AddressBlocked(address,address)": {
        "details": "These events can be used to notify a member off-chain that their address is now blocked (e.g. removed from the allowlist)"
      },
      "AllowlistEnabledUpdated(address,bool)": {
        "details": "These events can be used to notify prospective members off-chain whether membership is restricted or not."
      }
    },
    "kind": "dev",
    "methods": {
      "getSyndicateFeeAddress()": {
        "details": "This function is needed to allow inheriting contracts to only be able to view but not change syndicateFeeAddress without going through ownerSetSyndicateFeeAddress"
      },
      "managerAllowAddresses(address,address[])": {
        "details": "Allowing a single address costs 31527 in gas without an array and 32445 in gas with an array. This is a difference in cost of $0.17 at current gas prices, which is a worthwhile trade off considering that (a) allowing only one address will be less common than allowing multiple addresses and (b) having two different allowAddress functions poses a security risk if we forget to reconcile changes between them",
        "params": {
          "memberAddresses": "An array of addresses to be allowed by the Syndicate",
          "syndicateAddress": "The address of the Syndicate to accept the allowedAdresses"
        }
      },
      "managerBlockAddresses(address,address[])": {
        "params": {
          "memberAddresses": "The array of member addresses to remove.",
          "syndicateAddress": "The address of the Syndicate that contains the allowlist"
        }
      },
      "managerSetAllowlistEnabled(address,bool)": {
        "params": {
          "allowlistEnabled": "True if the Syndicate ONLY accepts deposits from allowed addresses. False if any (accredited) member can make a deposit.",
          "syndicateAddress": "The address of the Syndicate"
        }
      },
      "owner()": {
        "details": "Returns the address of the current owner."
      },
      "ownerSetSyndicateFeeAddress(address)": {
        "params": {
          "feeAddress": "The owner's new contract fee address"
        }
      },
      "ownerTransferOwnership(address)": {
        "params": {
          "newOwner": "The new owner's address."
        }
      },
      "renounceOwnership()": {
        "details": "Leaves the contract without owner. It will not be possible to call `onlyOwner` functions anymore. Can only be called by the current owner. NOTE: Renouncing ownership will leave the contract without an owner, thereby removing any functionality that is only available to the owner."
      },
      "transferOwnership(address)": {
        "details": "Transfers ownership of the contract to a new account (`newOwner`). Can only be called by the current owner."
      }
    },
    "version": 1
  },
  "userdoc": {
    "events": {
      "AddressAllowed(address,address)": {
        "notice": "A manager adds a member's wallet address to the allowlist."
      },
      "AddressBlocked(address,address)": {
        "notice": "A manager removes a member's wallet address from the allowlist."
      },
      "AllowlistEnabledUpdated(address,bool)": {
        "notice": "A manager enables or disables the allowlist."
      },
      "SyndicateFeeAddressUpdated(address)": {
        "notice": "The owner updates the contract fee address."
      }
    },
    "kind": "user",
    "methods": {
      "constructor": {
        "notice": "Used to initialize the Syndicate contract."
      },
      "getSyndicateFeeAddress()": {
        "notice": "getter function for syndicate fee address."
      },
      "managerAllowAddresses(address,address[])": {
        "notice": "Used by a manager to add an array of member addresses to the allowlist and emit an event to allow for easy searching.This function is only relevant when the manager has turned the allowlist on (`SyndicateValues.allowlistEnabled == true`). If the allowlist is off, anyone can make a deposit to the Syndicate without the manager specifically allowing their address."
      },
      "managerBlockAddresses(address,address[])": {
        "notice": "Used by a manager to remove a previously-allowed member address from the allowlistThis function only proceeds when the allowlist is enabled, as it is ineffective to maintain a blocklist of possible member addresses. A manager who wishes to reverse a deposit into their fund should instead use `managerRejectDepositForMembers()`.Blocking a member address that has previously been allowed does not reject or return their prior deposits. The deposit is still kept in the syndicate."
      },
      "managerSetAllowlistEnabled(address,bool)": {
        "notice": "Used by a manager to turn the allowlist on or offThis setter can only be called when the Syndicate is open, as it only limits future deposits. To retroactively remove deposits that have been made by members who may not have been on the allowlist, a manager should use `managerRejectDepositForMember()`."
      },
      "ownerRenounceOwnership()": {
        "notice": "Renounce ownership of the contract"
      },
      "ownerSetSyndicateFeeAddress(address)": {
        "notice": "set a new fee address for the contract function that can only be triggered by the contract owner."
      },
      "ownerTransferOwnership(address)": {
        "notice": "Transfers ownership to the provided address."
      }
    },
    "notice": "This contract enables the manager to enable/disable, add members to, and remove members from the allowlist. If the allowlist is enabled, then only the listed addresses will be allowed to deposit.",
    "version": 1
  }
}