{
  "contractName": "SyndicateIntegrationsCoordinatorLogicV0",
  "abi": [
    {
      "inputs": [
        {
          "internalType": "address",
          "name": "owner",
          "type": "address"
        }
      ],
      "stateMutability": "nonpayable",
      "type": "constructor"
    },
    {
      "anonymous": false,
      "inputs": [
        {
          "indexed": true,
          "internalType": "address",
          "name": "contractAddress",
          "type": "address"
        },
        {
          "indexed": true,
          "internalType": "bytes32",
          "name": "hash",
          "type": "bytes32"
        }
      ],
      "name": "ContractAddressRemoved",
      "type": "event"
    },
    {
      "anonymous": false,
      "inputs": [
        {
          "indexed": true,
          "internalType": "address",
          "name": "contractAddress",
          "type": "address"
        },
        {
          "indexed": true,
          "internalType": "bytes32",
          "name": "hash",
          "type": "bytes32"
        }
      ],
      "name": "ContractAddressUpdated",
      "type": "event"
    },
    {
      "anonymous": false,
      "inputs": [
        {
          "indexed": true,
          "internalType": "address",
          "name": "previousOwner",
          "type": "address"
        },
        {
          "indexed": true,
          "internalType": "address",
          "name": "newOwner",
          "type": "address"
        }
      ],
      "name": "OwnershipTransferred",
      "type": "event"
    },
    {
      "anonymous": false,
      "inputs": [
        {
          "indexed": true,
          "internalType": "address",
          "name": "contractFeeAddress",
          "type": "address"
        }
      ],
      "name": "SyndicateFeeAddressUpdated",
      "type": "event"
    },
    {
      "inputs": [],
      "name": "BASIS_POINTS_DENOMINATOR",
      "outputs": [
        {
          "internalType": "uint256",
          "name": "",
          "type": "uint256"
        }
      ],
      "stateMutability": "view",
      "type": "function"
    },
    {
      "inputs": [],
      "name": "getSyndicateFeeAddress",
      "outputs": [
        {
          "internalType": "address",
          "name": "",
          "type": "address"
        }
      ],
      "stateMutability": "view",
      "type": "function"
    },
    {
      "inputs": [],
      "name": "owner",
      "outputs": [
        {
          "internalType": "address",
          "name": "",
          "type": "address"
        }
      ],
      "stateMutability": "view",
      "type": "function"
    },
    {
      "inputs": [],
      "name": "ownerRenounceOwnership",
      "outputs": [],
      "stateMutability": "nonpayable",
      "type": "function"
    },
    {
      "inputs": [
        {
          "internalType": "address",
          "name": "feeAddress",
          "type": "address"
        }
      ],
      "name": "ownerSetSyndicateFeeAddress",
      "outputs": [],
      "stateMutability": "nonpayable",
      "type": "function"
    },
    {
      "inputs": [
        {
          "internalType": "address",
          "name": "newOwner",
          "type": "address"
        }
      ],
      "name": "ownerTransferOwnership",
      "outputs": [],
      "stateMutability": "nonpayable",
      "type": "function"
    },
    {
      "inputs": [],
      "name": "renounceOwnership",
      "outputs": [],
      "stateMutability": "nonpayable",
      "type": "function"
    },
    {
      "inputs": [
        {
          "internalType": "address",
          "name": "newOwner",
          "type": "address"
        }
      ],
      "name": "transferOwnership",
      "outputs": [],
      "stateMutability": "nonpayable",
      "type": "function"
    },
    {
      "inputs": [
        {
          "internalType": "string",
          "name": "toHash",
          "type": "string"
        }
      ],
      "name": "hash",
      "outputs": [
        {
          "internalType": "bytes32",
          "name": "hashed",
          "type": "bytes32"
        }
      ],
      "stateMutability": "pure",
      "type": "function"
    },
    {
      "inputs": [
        {
          "internalType": "bytes32",
          "name": "contractHash",
          "type": "bytes32"
        }
      ],
      "name": "getAddress",
      "outputs": [
        {
          "internalType": "address",
          "name": "_address",
          "type": "address"
        }
      ],
      "stateMutability": "view",
      "type": "function"
    },
    {
      "inputs": [
        {
          "internalType": "bytes32[]",
          "name": "hashes",
          "type": "bytes32[]"
        },
        {
          "internalType": "address[]",
          "name": "addresses",
          "type": "address[]"
        }
      ],
      "name": "upsertContracts",
      "outputs": [],
      "stateMutability": "nonpayable",
      "type": "function"
    },
    {
      "inputs": [
        {
          "internalType": "bytes32",
          "name": "_hash",
          "type": "bytes32"
        }
      ],
      "name": "removeContract",
      "outputs": [],
      "stateMutability": "nonpayable",
      "type": "function"
    }
  ],
  "bytecode": "0x6080604052600180546001600160a01b0319167340db79f7f18c468c6552538b488c58b5e72bf4d917905534801561003657600080fd5b50604051610b0e380380610b0e833981016040819052610055916101a1565b600080546001600160a01b03191633908117825560405183928291600080516020610aee833981519152908290a35061008d81610094565b50506101d1565b6000546001600160a01b031633146100f35760405162461bcd60e51b815260206004820181905260248201527f4f776e61626c653a2063616c6c6572206973206e6f7420746865206f776e657260448201526064015b60405180910390fd5b6001600160a01b0381166101585760405162461bcd60e51b815260206004820152602660248201527f4f776e61626c653a206e6577206f776e657220697320746865207a65726f206160448201526564647265737360d01b60648201526084016100ea565b600080546040516001600160a01b0380851693921691600080516020610aee83398151915291a3600080546001600160a01b0319166001600160a01b0392909216919091179055565b6000602082840312156101b357600080fd5b81516001600160a01b03811681146101ca57600080fd5b9392505050565b61090e806101e06000396000f3fe608060405234801561001057600080fd5b50600436106100b45760003560e01c8063a43e04d811610071578063a43e04d814610132578063b411ee9414610145578063bfd9a7e114610166578063cad0a37314610179578063cfa498a31461018a578063f2fde38b1461019357600080fd5b806321f8a721146100b957806351949938146100e9578063715018a6146100fe57806381abf408146101065780638da5cb5b1461010e578063a09cca931461011f575b600080fd5b6100cc6100c73660046107c9565b6101a6565b6040516001600160a01b0390911681526020015b60405180910390f35b6100fc6100f736600461075d565b61021e565b005b6100fc61039d565b6100fc610411565b6000546001600160a01b03166100cc565b6100fc61012d36600461072d565b610445565b6100fc6101403660046107c9565b61047b565b6101586101533660046107e2565b610550565b6040519081526020016100e0565b6100fc61017436600461072d565b610583565b6001546001600160a01b03166100cc565b61015861271081565b6100fc6101a136600461072d565b6105f7565b6000818152600260205260408120546001600160a01b03166102025760405162461bcd60e51b815260206004820152601060248201526f1393d7d4d550d217d0d3d395149050d560821b60448201526064015b60405180910390fd5b506000908152600260205260409020546001600160a01b031690565b6000546001600160a01b031633146102485760405162461bcd60e51b81526004016101f990610864565b82811461028e5760405162461bcd60e51b815260206004820152601460248201527320a92920acafa622a723aa2429afa224a32322a960611b60448201526064016101f9565b60005b83811015610396578282828181106102ab576102ab6108c2565b90506020020160208101906102c0919061072d565b600260008787858181106102d6576102d66108c2565b90506020020135815260200190815260200160002060006101000a8154816001600160a01b0302191690836001600160a01b03160217905550848482818110610321576103216108c2565b9050602002013583838381811061033a5761033a6108c2565b905060200201602081019061034f919061072d565b6001600160a01b03167f24be3d2966513b88aae568c573f864453c877069ee00e58235aeb4bf7ff1596e60405160405180910390a38061038e81610899565b915050610291565b5050505050565b6000546001600160a01b031633146103c75760405162461bcd60e51b81526004016101f990610864565b600080546040516001600160a01b03909116907f8be0079c531659141344cd1fd0a4f28419497f9722a3daafe3b4186f6b6457e0908390a3600080546001600160a01b0319169055565b6000546001600160a01b0316331461043b5760405162461bcd60e51b81526004016101f990610864565b61044361039d565b565b6000546001600160a01b0316331461046f5760405162461bcd60e51b81526004016101f990610864565b610478816105f7565b50565b6000546001600160a01b031633146104a55760405162461bcd60e51b81526004016101f990610864565b6000818152600260205260409020546001600160a01b0316806104fd5760405162461bcd60e51b815260206004820152601060248201526f1393d7d4d550d217d0d3d395149050d560821b60448201526064016101f9565b60008281526002602052604080822080546001600160a01b03191690555183916001600160a01b038416917f93fe518019fa57f0460311620634196a07193cdc34f52baff9e769310f46973d9190a35050565b60008282604051602001610565929190610854565b60405160208183030381529060405280519060200120905092915050565b6000546001600160a01b031633146105ad5760405162461bcd60e51b81526004016101f990610864565b600180546001600160a01b0319166001600160a01b0383169081179091556040517fcf41d0875fade187fa408cd5e4f56e25cda2fae1cff91d42f08c1db396349a2d90600090a250565b6000546001600160a01b031633146106215760405162461bcd60e51b81526004016101f990610864565b6001600160a01b0381166106865760405162461bcd60e51b815260206004820152602660248201527f4f776e61626c653a206e6577206f776e657220697320746865207a65726f206160448201526564647265737360d01b60648201526084016101f9565b600080546040516001600160a01b03808516939216917f8be0079c531659141344cd1fd0a4f28419497f9722a3daafe3b4186f6b6457e091a3600080546001600160a01b0319166001600160a01b0392909216919091179055565b60008083601f8401126106f357600080fd5b50813567ffffffffffffffff81111561070b57600080fd5b6020830191508360208260051b850101111561072657600080fd5b9250929050565b60006020828403121561073f57600080fd5b81356001600160a01b038116811461075657600080fd5b9392505050565b6000806000806040858703121561077357600080fd5b843567ffffffffffffffff8082111561078b57600080fd5b610797888389016106e1565b909650945060208701359150808211156107b057600080fd5b506107bd878288016106e1565b95989497509550505050565b6000602082840312156107db57600080fd5b5035919050565b600080602083850312156107f557600080fd5b823567ffffffffffffffff8082111561080d57600080fd5b818501915085601f83011261082157600080fd5b81358181111561083057600080fd5b86602082850101111561084257600080fd5b60209290920196919550909350505050565b8183823760009101908152919050565b6020808252818101527f4f776e61626c653a2063616c6c6572206973206e6f7420746865206f776e6572604082015260600190565b60006000198214156108bb57634e487b7160e01b600052601160045260246000fd5b5060010190565b634e487b7160e01b600052603260045260246000fdfea2646970667358221220ff0e27d81a8eabed01e1417f2d4be27a6c614e0bc4cc8cdfb822bf2a08e5a84864736f6c634300080600338be0079c531659141344cd1fd0a4f28419497f9722a3daafe3b4186f6b6457e0",
  "immutableReferences": {},
  "source": "// SPDX-License-Identifier: UNLICENSED\n\npragma solidity ^0.8.0;\n\nimport \"./SyndicateOwnerLogic.sol\";\n\n/// @notice Stores contract/address pairs of deployed Syndicate\n/// contracts.\ncontract SyndicateIntegrationsCoordinatorLogicV0 is SyndicateOwnerLogic {\n    /// @notice The owner adds or updates a contract address.\n    event ContractAddressUpdated(\n        address indexed contractAddress,\n        bytes32 indexed hash\n    );\n\n    /// @notice The owner removes a contract address.\n    event ContractAddressRemoved(\n        address indexed contractAddress,\n        bytes32 indexed hash\n    );\n\n    /// @dev Currently we store the data inside the logic contract.\n    /// Once we feel comfortable with what data is needed by outside\n    /// parties we will split this into separate contracts.\n    mapping(bytes32 => address) private contractAddress;\n\n    constructor(address owner) SyndicateOwnerLogic(owner) {}\n\n    /// @notice Computes and returns the hash of provided string for use in\n    /// functions that only accept hashed strings as parameters\n    /// @param toHash String to hash\n    /// @return hashed The hash of the string\n    function hash(string calldata toHash) public pure returns (bytes32 hashed) {\n        return keccak256(abi.encodePacked(toHash));\n    }\n\n    /// @notice Getter for the address that a contract is deployed at\n    /// @param contractHash The hashed contract name\n    /// @return _address The address where the contract is deployed\n    function getAddress(bytes32 contractHash)\n        public\n        view\n        returns (address _address)\n    {\n        require(\n            contractAddress[contractHash] != address(0),\n            \"NO_SUCH_CONTRACT\"\n        );\n        return (contractAddress[contractHash]);\n    }\n\n    /// @notice Add or update contract/address pairs.\n    /// @param hashes The hashed contract names\n    /// @param addresses The addresses of the contracts\n    function upsertContracts(\n        bytes32[] calldata hashes,\n        address[] calldata addresses\n    ) public onlyOwner {\n        // Both passed-in arrays must have the same length\n        require(hashes.length == addresses.length, \"ARRAY_LENGTHS_DIFFER\");\n        for (uint256 i = 0; i < hashes.length; i++) {\n            contractAddress[hashes[i]] = addresses[i];\n            emit ContractAddressUpdated(addresses[i], hashes[i]);\n        }\n    }\n\n    /// @notice Remove a contract\n    /// @param _hash The hashed contract name\n    function removeContract(bytes32 _hash) public onlyOwner {\n        address oldAddress = contractAddress[_hash];\n        require(oldAddress != address(0), \"NO_SUCH_CONTRACT\");\n        contractAddress[_hash] = address(0);\n        emit ContractAddressRemoved(oldAddress, _hash);\n    }\n}\n",
  "sourcePath": "/Users/connerswenberg/Code/syndicate/Syndicate/contracts/SyndicateIntegrationsCoordinatorLogicV0.sol",
  "compiler": {
    "name": "solc",
    "version": "0.8.6+commit.11564f7e.Emscripten.clang"
  },
  "schemaVersion": "3.4.0",
  "updatedAt": "2021-07-10T09:27:40.819Z",
  "devdoc": {
    "kind": "dev",
    "methods": {
      "getAddress(bytes32)": {
        "params": {
          "contractHash": "The hashed contract name"
        },
        "returns": {
          "_address": "The address where the contract is deployed"
        }
      },
      "getSyndicateFeeAddress()": {
        "details": "This function is needed to allow inheriting contracts to only be able to view but not change syndicateFeeAddress without going through ownerSetSyndicateFeeAddress"
      },
      "hash(string)": {
        "params": {
          "toHash": "String to hash"
        },
        "returns": {
          "hashed": "The hash of the string"
        }
      },
      "owner()": {
        "details": "Returns the address of the current owner."
      },
      "ownerSetSyndicateFeeAddress(address)": {
        "params": {
          "feeAddress": "The owner's new contract fee address"
        }
      },
      "ownerTransferOwnership(address)": {
        "params": {
          "newOwner": "The new owner's address."
        }
      },
      "removeContract(bytes32)": {
        "params": {
          "_hash": "The hashed contract name"
        }
      },
      "renounceOwnership()": {
        "details": "Leaves the contract without owner. It will not be possible to call `onlyOwner` functions anymore. Can only be called by the current owner. NOTE: Renouncing ownership will leave the contract without an owner, thereby removing any functionality that is only available to the owner."
      },
      "transferOwnership(address)": {
        "details": "Transfers ownership of the contract to a new account (`newOwner`). Can only be called by the current owner."
      },
      "upsertContracts(bytes32[],address[])": {
        "params": {
          "addresses": "The addresses of the contracts",
          "hashes": "The hashed contract names"
        }
      }
    },
    "stateVariables": {
      "contractAddress": {
        "details": "Currently we store the data inside the logic contract. Once we feel comfortable with what data is needed by outside parties we will split this into separate contracts."
      }
    },
    "version": 1
  },
  "userdoc": {
    "events": {
      "ContractAddressRemoved(address,bytes32)": {
        "notice": "The owner removes a contract address."
      },
      "ContractAddressUpdated(address,bytes32)": {
        "notice": "The owner adds or updates a contract address."
      },
      "SyndicateFeeAddressUpdated(address)": {
        "notice": "The owner updates the contract fee address."
      }
    },
    "kind": "user",
    "methods": {
      "getAddress(bytes32)": {
        "notice": "Getter for the address that a contract is deployed at"
      },
      "getSyndicateFeeAddress()": {
        "notice": "getter function for syndicate fee address."
      },
      "hash(string)": {
        "notice": "Computes and returns the hash of provided string for use in functions that only accept hashed strings as parameters"
      },
      "ownerRenounceOwnership()": {
        "notice": "Renounce ownership of the contract"
      },
      "ownerSetSyndicateFeeAddress(address)": {
        "notice": "set a new fee address for the contract function that can only be triggered by the contract owner."
      },
      "ownerTransferOwnership(address)": {
        "notice": "Transfers ownership to the provided address."
      },
      "removeContract(bytes32)": {
        "notice": "Remove a contract"
      },
      "upsertContracts(bytes32[],address[])": {
        "notice": "Add or update contract/address pairs."
      }
    },
    "notice": "Stores contract/address pairs of deployed Syndicate contracts.",
    "version": 1
  }
}