{
  "contractName": "SyndicateClosedEndFundStoreV0",
  "abi": [
    {
      "inputs": [
        {
          "internalType": "address",
          "name": "owner",
          "type": "address"
        }
      ],
      "stateMutability": "nonpayable",
      "type": "constructor"
    },
    {
      "anonymous": false,
      "inputs": [
        {
          "indexed": true,
          "internalType": "address",
          "name": "logicContractAddress",
          "type": "address"
        }
      ],
      "name": "LogicContractAdded",
      "type": "event"
    },
    {
      "anonymous": false,
      "inputs": [
        {
          "indexed": true,
          "internalType": "address",
          "name": "logicContractAddress",
          "type": "address"
        }
      ],
      "name": "LogicContractRemoved",
      "type": "event"
    },
    {
      "anonymous": false,
      "inputs": [
        {
          "indexed": true,
          "internalType": "address",
          "name": "previousOwner",
          "type": "address"
        },
        {
          "indexed": true,
          "internalType": "address",
          "name": "newOwner",
          "type": "address"
        }
      ],
      "name": "OwnershipTransferred",
      "type": "event"
    },
    {
      "anonymous": false,
      "inputs": [
        {
          "indexed": true,
          "internalType": "address",
          "name": "contractFeeAddress",
          "type": "address"
        }
      ],
      "name": "SyndicateFeeAddressUpdated",
      "type": "event"
    },
    {
      "inputs": [],
      "name": "BASIS_POINTS_DENOMINATOR",
      "outputs": [
        {
          "internalType": "uint256",
          "name": "",
          "type": "uint256"
        }
      ],
      "stateMutability": "view",
      "type": "function",
      "constant": true
    },
    {
      "inputs": [
        {
          "internalType": "address",
          "name": "",
          "type": "address"
        },
        {
          "internalType": "address",
          "name": "",
          "type": "address"
        }
      ],
      "name": "allowlist",
      "outputs": [
        {
          "internalType": "bool",
          "name": "",
          "type": "bool"
        }
      ],
      "stateMutability": "view",
      "type": "function",
      "constant": true
    },
    {
      "inputs": [
        {
          "internalType": "address",
          "name": "",
          "type": "address"
        }
      ],
      "name": "allowlistEnabled",
      "outputs": [
        {
          "internalType": "bool",
          "name": "",
          "type": "bool"
        }
      ],
      "stateMutability": "view",
      "type": "function",
      "constant": true
    },
    {
      "inputs": [
        {
          "internalType": "address",
          "name": "",
          "type": "address"
        }
      ],
      "name": "dateClose",
      "outputs": [
        {
          "internalType": "uint256",
          "name": "",
          "type": "uint256"
        }
      ],
      "stateMutability": "view",
      "type": "function",
      "constant": true
    },
    {
      "inputs": [
        {
          "internalType": "address",
          "name": "",
          "type": "address"
        }
      ],
      "name": "dateCreated",
      "outputs": [
        {
          "internalType": "uint256",
          "name": "",
          "type": "uint256"
        }
      ],
      "stateMutability": "view",
      "type": "function",
      "constant": true
    },
    {
      "inputs": [
        {
          "internalType": "address",
          "name": "",
          "type": "address"
        }
      ],
      "name": "depositERC20Address",
      "outputs": [
        {
          "internalType": "address",
          "name": "",
          "type": "address"
        }
      ],
      "stateMutability": "view",
      "type": "function",
      "constant": true
    },
    {
      "inputs": [
        {
          "internalType": "address",
          "name": "",
          "type": "address"
        },
        {
          "internalType": "address",
          "name": "",
          "type": "address"
        }
      ],
      "name": "depositMember",
      "outputs": [
        {
          "internalType": "uint256",
          "name": "",
          "type": "uint256"
        }
      ],
      "stateMutability": "view",
      "type": "function",
      "constant": true
    },
    {
      "inputs": [
        {
          "internalType": "address",
          "name": "",
          "type": "address"
        }
      ],
      "name": "depositMemberMax",
      "outputs": [
        {
          "internalType": "uint256",
          "name": "",
          "type": "uint256"
        }
      ],
      "stateMutability": "view",
      "type": "function",
      "constant": true
    },
    {
      "inputs": [
        {
          "internalType": "address",
          "name": "",
          "type": "address"
        }
      ],
      "name": "depositMemberMin",
      "outputs": [
        {
          "internalType": "uint256",
          "name": "",
          "type": "uint256"
        }
      ],
      "stateMutability": "view",
      "type": "function",
      "constant": true
    },
    {
      "inputs": [
        {
          "internalType": "address",
          "name": "",
          "type": "address"
        }
      ],
      "name": "depositTotal",
      "outputs": [
        {
          "internalType": "uint256",
          "name": "",
          "type": "uint256"
        }
      ],
      "stateMutability": "view",
      "type": "function",
      "constant": true
    },
    {
      "inputs": [
        {
          "internalType": "address",
          "name": "",
          "type": "address"
        }
      ],
      "name": "depositTotalMax",
      "outputs": [
        {
          "internalType": "uint256",
          "name": "",
          "type": "uint256"
        }
      ],
      "stateMutability": "view",
      "type": "function",
      "constant": true
    },
    {
      "inputs": [
        {
          "internalType": "address",
          "name": "",
          "type": "address"
        }
      ],
      "name": "distributing",
      "outputs": [
        {
          "internalType": "bool",
          "name": "",
          "type": "bool"
        }
      ],
      "stateMutability": "view",
      "type": "function",
      "constant": true
    },
    {
      "inputs": [
        {
          "internalType": "address",
          "name": "",
          "type": "address"
        },
        {
          "internalType": "address",
          "name": "",
          "type": "address"
        },
        {
          "internalType": "address",
          "name": "",
          "type": "address"
        }
      ],
      "name": "distributionClaimedMember",
      "outputs": [
        {
          "internalType": "uint256",
          "name": "",
          "type": "uint256"
        }
      ],
      "stateMutability": "view",
      "type": "function",
      "constant": true
    },
    {
      "inputs": [
        {
          "internalType": "address",
          "name": "",
          "type": "address"
        },
        {
          "internalType": "address",
          "name": "",
          "type": "address"
        }
      ],
      "name": "distributionClaimedTotal",
      "outputs": [
        {
          "internalType": "uint256",
          "name": "",
          "type": "uint256"
        }
      ],
      "stateMutability": "view",
      "type": "function",
      "constant": true
    },
    {
      "inputs": [
        {
          "internalType": "address",
          "name": "",
          "type": "address"
        },
        {
          "internalType": "address",
          "name": "",
          "type": "address"
        }
      ],
      "name": "distributionERC20Addresses",
      "outputs": [
        {
          "internalType": "bool",
          "name": "",
          "type": "bool"
        }
      ],
      "stateMutability": "view",
      "type": "function",
      "constant": true
    },
    {
      "inputs": [
        {
          "internalType": "address",
          "name": "",
          "type": "address"
        },
        {
          "internalType": "address",
          "name": "",
          "type": "address"
        }
      ],
      "name": "distributionTotal",
      "outputs": [
        {
          "internalType": "uint256",
          "name": "",
          "type": "uint256"
        }
      ],
      "stateMutability": "view",
      "type": "function",
      "constant": true
    },
    {
      "inputs": [],
      "name": "getSyndicateFeeAddress",
      "outputs": [
        {
          "internalType": "address",
          "name": "",
          "type": "address"
        }
      ],
      "stateMutability": "view",
      "type": "function",
      "constant": true
    },
    {
      "inputs": [
        {
          "internalType": "address",
          "name": "",
          "type": "address"
        }
      ],
      "name": "isManager",
      "outputs": [
        {
          "internalType": "bool",
          "name": "",
          "type": "bool"
        }
      ],
      "stateMutability": "view",
      "type": "function",
      "constant": true
    },
    {
      "inputs": [
        {
          "internalType": "address",
          "name": "",
          "type": "address"
        }
      ],
      "name": "logicContractAllowed",
      "outputs": [
        {
          "internalType": "bool",
          "name": "",
          "type": "bool"
        }
      ],
      "stateMutability": "view",
      "type": "function",
      "constant": true
    },
    {
      "inputs": [
        {
          "internalType": "address",
          "name": "",
          "type": "address"
        }
      ],
      "name": "managerCurrent",
      "outputs": [
        {
          "internalType": "address",
          "name": "",
          "type": "address"
        }
      ],
      "stateMutability": "view",
      "type": "function",
      "constant": true
    },
    {
      "inputs": [
        {
          "internalType": "address",
          "name": "",
          "type": "address"
        }
      ],
      "name": "managerDistributionShareBasisPoints",
      "outputs": [
        {
          "internalType": "uint256",
          "name": "",
          "type": "uint256"
        }
      ],
      "stateMutability": "view",
      "type": "function",
      "constant": true
    },
    {
      "inputs": [
        {
          "internalType": "address",
          "name": "",
          "type": "address"
        }
      ],
      "name": "managerFeeAddress",
      "outputs": [
        {
          "internalType": "address",
          "name": "",
          "type": "address"
        }
      ],
      "stateMutability": "view",
      "type": "function",
      "constant": true
    },
    {
      "inputs": [
        {
          "internalType": "address",
          "name": "",
          "type": "address"
        }
      ],
      "name": "managerManagementFeeBasisPoints",
      "outputs": [
        {
          "internalType": "uint256",
          "name": "",
          "type": "uint256"
        }
      ],
      "stateMutability": "view",
      "type": "function",
      "constant": true
    },
    {
      "inputs": [
        {
          "internalType": "address",
          "name": "",
          "type": "address"
        }
      ],
      "name": "managerPending",
      "outputs": [
        {
          "internalType": "address",
          "name": "",
          "type": "address"
        }
      ],
      "stateMutability": "view",
      "type": "function",
      "constant": true
    },
    {
      "inputs": [
        {
          "internalType": "address",
          "name": "",
          "type": "address"
        },
        {
          "internalType": "string",
          "name": "",
          "type": "string"
        }
      ],
      "name": "metadata",
      "outputs": [
        {
          "internalType": "string",
          "name": "",
          "type": "string"
        }
      ],
      "stateMutability": "view",
      "type": "function",
      "constant": true
    },
    {
      "inputs": [
        {
          "internalType": "address",
          "name": "",
          "type": "address"
        }
      ],
      "name": "modifiable",
      "outputs": [
        {
          "internalType": "bool",
          "name": "",
          "type": "bool"
        }
      ],
      "stateMutability": "view",
      "type": "function",
      "constant": true
    },
    {
      "inputs": [
        {
          "internalType": "address",
          "name": "",
          "type": "address"
        }
      ],
      "name": "notCloseable",
      "outputs": [
        {
          "internalType": "bool",
          "name": "",
          "type": "bool"
        }
      ],
      "stateMutability": "view",
      "type": "function",
      "constant": true
    },
    {
      "inputs": [
        {
          "internalType": "address",
          "name": "",
          "type": "address"
        }
      ],
      "name": "numMembersCurrent",
      "outputs": [
        {
          "internalType": "uint256",
          "name": "",
          "type": "uint256"
        }
      ],
      "stateMutability": "view",
      "type": "function",
      "constant": true
    },
    {
      "inputs": [
        {
          "internalType": "address",
          "name": "",
          "type": "address"
        }
      ],
      "name": "numMembersMax",
      "outputs": [
        {
          "internalType": "uint256",
          "name": "",
          "type": "uint256"
        }
      ],
      "stateMutability": "view",
      "type": "function",
      "constant": true
    },
    {
      "inputs": [
        {
          "internalType": "address",
          "name": "",
          "type": "address"
        }
      ],
      "name": "open",
      "outputs": [
        {
          "internalType": "bool",
          "name": "",
          "type": "bool"
        }
      ],
      "stateMutability": "view",
      "type": "function",
      "constant": true
    },
    {
      "inputs": [],
      "name": "owner",
      "outputs": [
        {
          "internalType": "address",
          "name": "",
          "type": "address"
        }
      ],
      "stateMutability": "view",
      "type": "function",
      "constant": true
    },
    {
      "inputs": [],
      "name": "ownerRenounceOwnership",
      "outputs": [],
      "stateMutability": "nonpayable",
      "type": "function"
    },
    {
      "inputs": [
        {
          "internalType": "address",
          "name": "feeAddress",
          "type": "address"
        }
      ],
      "name": "ownerSetSyndicateFeeAddress",
      "outputs": [],
      "stateMutability": "nonpayable",
      "type": "function"
    },
    {
      "inputs": [
        {
          "internalType": "address",
          "name": "newOwner",
          "type": "address"
        }
      ],
      "name": "ownerTransferOwnership",
      "outputs": [],
      "stateMutability": "nonpayable",
      "type": "function"
    },
    {
      "inputs": [],
      "name": "renounceOwnership",
      "outputs": [],
      "stateMutability": "nonpayable",
      "type": "function"
    },
    {
      "inputs": [
        {
          "internalType": "address",
          "name": "",
          "type": "address"
        }
      ],
      "name": "syndicateDistributionShareBasisPoints",
      "outputs": [
        {
          "internalType": "uint256",
          "name": "",
          "type": "uint256"
        }
      ],
      "stateMutability": "view",
      "type": "function",
      "constant": true
    },
    {
      "inputs": [
        {
          "internalType": "address",
          "name": "newOwner",
          "type": "address"
        }
      ],
      "name": "transferOwnership",
      "outputs": [],
      "stateMutability": "nonpayable",
      "type": "function"
    },
    {
      "inputs": [
        {
          "internalType": "address",
          "name": "",
          "type": "address"
        }
      ],
      "name": "transferable",
      "outputs": [
        {
          "internalType": "bool",
          "name": "",
          "type": "bool"
        }
      ],
      "stateMutability": "view",
      "type": "function",
      "constant": true
    },
    {
      "inputs": [
        {
          "internalType": "address",
          "name": "logicContractAddress",
          "type": "address"
        }
      ],
      "name": "addLogicContractAllowed",
      "outputs": [],
      "stateMutability": "nonpayable",
      "type": "function"
    },
    {
      "inputs": [
        {
          "internalType": "address",
          "name": "logicContractAddress",
          "type": "address"
        }
      ],
      "name": "removeLogicContractAllowed",
      "outputs": [],
      "stateMutability": "nonpayable",
      "type": "function"
    },
    {
      "inputs": [
        {
          "internalType": "address",
          "name": "manager",
          "type": "address"
        },
        {
          "internalType": "bool",
          "name": "_isManager",
          "type": "bool"
        }
      ],
      "name": "setIsManager",
      "outputs": [],
      "stateMutability": "nonpayable",
      "type": "function"
    },
    {
      "inputs": [
        {
          "internalType": "address",
          "name": "syndicateAddress",
          "type": "address"
        },
        {
          "internalType": "address",
          "name": "currentManager",
          "type": "address"
        }
      ],
      "name": "setManagerCurrent",
      "outputs": [],
      "stateMutability": "nonpayable",
      "type": "function"
    },
    {
      "inputs": [
        {
          "internalType": "address",
          "name": "syndicateAddress",
          "type": "address"
        },
        {
          "internalType": "address",
          "name": "pendingManager",
          "type": "address"
        }
      ],
      "name": "setManagerPending",
      "outputs": [],
      "stateMutability": "nonpayable",
      "type": "function"
    },
    {
      "inputs": [
        {
          "internalType": "address",
          "name": "syndicateAddress",
          "type": "address"
        },
        {
          "internalType": "address",
          "name": "feeAddress",
          "type": "address"
        }
      ],
      "name": "setManagerFeeAddress",
      "outputs": [],
      "stateMutability": "nonpayable",
      "type": "function"
    },
    {
      "inputs": [
        {
          "internalType": "address",
          "name": "syndicateAddress",
          "type": "address"
        },
        {
          "internalType": "uint256",
          "name": "feeBasisPoints",
          "type": "uint256"
        }
      ],
      "name": "setManagerManagementFeeBasisPoints",
      "outputs": [],
      "stateMutability": "nonpayable",
      "type": "function"
    },
    {
      "inputs": [
        {
          "internalType": "address",
          "name": "syndicateAddress",
          "type": "address"
        },
        {
          "internalType": "uint256",
          "name": "performanceFeeBasisPoints",
          "type": "uint256"
        }
      ],
      "name": "setManagerDistributionShareBasisPoints",
      "outputs": [],
      "stateMutability": "nonpayable",
      "type": "function"
    },
    {
      "inputs": [
        {
          "internalType": "address",
          "name": "syndicateAddress",
          "type": "address"
        },
        {
          "internalType": "uint256",
          "name": "distributionShareBasisPoints",
          "type": "uint256"
        }
      ],
      "name": "setSyndicateDistributionShareBasisPoints",
      "outputs": [],
      "stateMutability": "nonpayable",
      "type": "function"
    },
    {
      "inputs": [
        {
          "internalType": "address",
          "name": "syndicateAddress",
          "type": "address"
        },
        {
          "internalType": "uint256",
          "name": "maxMembers",
          "type": "uint256"
        }
      ],
      "name": "setNumMembersMax",
      "outputs": [],
      "stateMutability": "nonpayable",
      "type": "function"
    },
    {
      "inputs": [
        {
          "internalType": "address",
          "name": "syndicateAddress",
          "type": "address"
        },
        {
          "internalType": "uint256",
          "name": "currentMembers",
          "type": "uint256"
        }
      ],
      "name": "setNumMembersCurrent",
      "outputs": [],
      "stateMutability": "nonpayable",
      "type": "function"
    },
    {
      "inputs": [
        {
          "internalType": "address",
          "name": "syndicateAddress",
          "type": "address"
        },
        {
          "internalType": "address",
          "name": "depositAddress",
          "type": "address"
        }
      ],
      "name": "setDepositERC20Address",
      "outputs": [],
      "stateMutability": "nonpayable",
      "type": "function"
    },
    {
      "inputs": [
        {
          "internalType": "address",
          "name": "syndicateAddress",
          "type": "address"
        },
        {
          "internalType": "uint256",
          "name": "minDeposit",
          "type": "uint256"
        }
      ],
      "name": "setDepositMemberMin",
      "outputs": [],
      "stateMutability": "nonpayable",
      "type": "function"
    },
    {
      "inputs": [
        {
          "internalType": "address",
          "name": "syndicateAddress",
          "type": "address"
        },
        {
          "internalType": "uint256",
          "name": "maxDeposit",
          "type": "uint256"
        }
      ],
      "name": "setDepositMemberMax",
      "outputs": [],
      "stateMutability": "nonpayable",
      "type": "function"
    },
    {
      "inputs": [
        {
          "internalType": "address",
          "name": "syndicateAddress",
          "type": "address"
        },
        {
          "internalType": "uint256",
          "name": "maxDepositTotal",
          "type": "uint256"
        }
      ],
      "name": "setDepositTotalMax",
      "outputs": [],
      "stateMutability": "nonpayable",
      "type": "function"
    },
    {
      "inputs": [
        {
          "internalType": "address",
          "name": "syndicateAddress",
          "type": "address"
        },
        {
          "internalType": "uint256",
          "name": "total",
          "type": "uint256"
        }
      ],
      "name": "setDepositTotal",
      "outputs": [],
      "stateMutability": "nonpayable",
      "type": "function"
    },
    {
      "inputs": [
        {
          "internalType": "address",
          "name": "syndicateAddress",
          "type": "address"
        },
        {
          "internalType": "address",
          "name": "memberAddress",
          "type": "address"
        },
        {
          "internalType": "uint256",
          "name": "deposit",
          "type": "uint256"
        }
      ],
      "name": "setDepositMember",
      "outputs": [],
      "stateMutability": "nonpayable",
      "type": "function"
    },
    {
      "inputs": [
        {
          "internalType": "address",
          "name": "syndicateAddress",
          "type": "address"
        },
        {
          "internalType": "address",
          "name": "distributionERC20Address",
          "type": "address"
        },
        {
          "internalType": "bool",
          "name": "isSet",
          "type": "bool"
        }
      ],
      "name": "setDistributionERC20Addresses",
      "outputs": [],
      "stateMutability": "nonpayable",
      "type": "function"
    },
    {
      "inputs": [
        {
          "internalType": "address",
          "name": "syndicateAddress",
          "type": "address"
        },
        {
          "internalType": "address",
          "name": "distributionERC20Address",
          "type": "address"
        },
        {
          "internalType": "uint256",
          "name": "total",
          "type": "uint256"
        }
      ],
      "name": "setDistributionTotal",
      "outputs": [],
      "stateMutability": "nonpayable",
      "type": "function"
    },
    {
      "inputs": [
        {
          "internalType": "address",
          "name": "syndicateAddress",
          "type": "address"
        },
        {
          "internalType": "address",
          "name": "distributionERC20Address",
          "type": "address"
        },
        {
          "internalType": "uint256",
          "name": "total",
          "type": "uint256"
        }
      ],
      "name": "setDistributionClaimedTotal",
      "outputs": [],
      "stateMutability": "nonpayable",
      "type": "function"
    },
    {
      "inputs": [
        {
          "internalType": "address",
          "name": "syndicateAddress",
          "type": "address"
        },
        {
          "internalType": "address",
          "name": "distributionERC20Address",
          "type": "address"
        },
        {
          "internalType": "address",
          "name": "memberAddress",
          "type": "address"
        },
        {
          "internalType": "uint256",
          "name": "amount",
          "type": "uint256"
        }
      ],
      "name": "setDistributionClaimedMember",
      "outputs": [],
      "stateMutability": "nonpayable",
      "type": "function"
    },
    {
      "inputs": [
        {
          "internalType": "address",
          "name": "syndicateAddress",
          "type": "address"
        },
        {
          "internalType": "uint256",
          "name": "date",
          "type": "uint256"
        }
      ],
      "name": "setDateCreated",
      "outputs": [],
      "stateMutability": "nonpayable",
      "type": "function"
    },
    {
      "inputs": [
        {
          "internalType": "address",
          "name": "syndicateAddress",
          "type": "address"
        },
        {
          "internalType": "uint256",
          "name": "date",
          "type": "uint256"
        }
      ],
      "name": "setDateClose",
      "outputs": [],
      "stateMutability": "nonpayable",
      "type": "function"
    },
    {
      "inputs": [
        {
          "internalType": "address",
          "name": "syndicateAddress",
          "type": "address"
        },
        {
          "internalType": "bool",
          "name": "isOpen",
          "type": "bool"
        }
      ],
      "name": "setOpen",
      "outputs": [],
      "stateMutability": "nonpayable",
      "type": "function"
    },
    {
      "inputs": [
        {
          "internalType": "address",
          "name": "syndicateAddress",
          "type": "address"
        },
        {
          "internalType": "bool",
          "name": "isDistributing",
          "type": "bool"
        }
      ],
      "name": "setDistributing",
      "outputs": [],
      "stateMutability": "nonpayable",
      "type": "function"
    },
    {
      "inputs": [
        {
          "internalType": "address",
          "name": "syndicateAddress",
          "type": "address"
        },
        {
          "internalType": "bool",
          "name": "isModifiable",
          "type": "bool"
        }
      ],
      "name": "setModifiable",
      "outputs": [],
      "stateMutability": "nonpayable",
      "type": "function"
    },
    {
      "inputs": [
        {
          "internalType": "address",
          "name": "syndicateAddress",
          "type": "address"
        },
        {
          "internalType": "bool",
          "name": "isEnabled",
          "type": "bool"
        }
      ],
      "name": "setAllowlistEnabled",
      "outputs": [],
      "stateMutability": "nonpayable",
      "type": "function"
    },
    {
      "inputs": [
        {
          "internalType": "address",
          "name": "syndicateAddress",
          "type": "address"
        },
        {
          "internalType": "address",
          "name": "memberAddress",
          "type": "address"
        },
        {
          "internalType": "bool",
          "name": "allowed",
          "type": "bool"
        }
      ],
      "name": "setAllowlist",
      "outputs": [],
      "stateMutability": "nonpayable",
      "type": "function"
    },
    {
      "inputs": [
        {
          "internalType": "address",
          "name": "syndicateAddress",
          "type": "address"
        },
        {
          "internalType": "bool",
          "name": "isTransferable",
          "type": "bool"
        }
      ],
      "name": "setTransferable",
      "outputs": [],
      "stateMutability": "nonpayable",
      "type": "function"
    },
    {
      "inputs": [
        {
          "internalType": "address",
          "name": "syndicateAddress",
          "type": "address"
        },
        {
          "internalType": "string",
          "name": "metadataKey",
          "type": "string"
        },
        {
          "internalType": "string",
          "name": "metadataValue",
          "type": "string"
        }
      ],
      "name": "setMetadata",
      "outputs": [],
      "stateMutability": "nonpayable",
      "type": "function"
    },
    {
      "inputs": [
        {
          "internalType": "address",
          "name": "syndicateAddress",
          "type": "address"
        },
        {
          "internalType": "bool",
          "name": "isNotCloseable",
          "type": "bool"
        }
      ],
      "name": "setNotCloseable",
      "outputs": [],
      "stateMutability": "nonpayable",
      "type": "function"
    }
  ],
  "bytecode": "0x6080604052600180546001600160a01b0319167340db79f7f18c468c6552538b488c58b5e72bf4d91790553480156200003757600080fd5b5060405162001c3c38038062001c3c8339810160408190526200005a91620001ae565b600080546001600160a01b0319163390811782556040518392829160008051602062001c1c833981519152908290a35062000095816200009d565b5050620001e0565b6000546001600160a01b03163314620000fd5760405162461bcd60e51b815260206004820181905260248201527f4f776e61626c653a2063616c6c6572206973206e6f7420746865206f776e657260448201526064015b60405180910390fd5b6001600160a01b038116620001645760405162461bcd60e51b815260206004820152602660248201527f4f776e61626c653a206e6577206f776e657220697320746865207a65726f206160448201526564647265737360d01b6064820152608401620000f4565b600080546040516001600160a01b038085169392169160008051602062001c1c83398151915291a3600080546001600160a01b0319166001600160a01b0392909216919091179055565b600060208284031215620001c157600080fd5b81516001600160a01b0381168114620001d957600080fd5b9392505050565b611a2c80620001f06000396000f3fe608060405234801561001057600080fd5b50600436106104075760003560e01c80639ea0c2e511610220578063cbf8bf1611610130578063e58eb85c116100b8578063ecc9a74d11610087578063ecc9a74d14610ad8578063efab5b9614610aeb578063f2fde38b14610b0b578063f3ae241514610b1e578063ff8b63ee14610b4157600080fd5b8063e58eb85c14610a76578063e8aef6f014610a89578063eb3b0cba14610ab2578063ebb8aacc14610ac557600080fd5b8063dc35bbb0116100ff578063dc35bbb0146109da578063deebf2eb14610a03578063e0d612f514610a23578063e32bf38d14610a36578063e396ae9b14610a5657600080fd5b8063cbf8bf161461097d578063cfa498a314610990578063d98c07b714610999578063da375d17146109c757600080fd5b8063b1e315bf116101b3578063b95460f811610182578063b95460f814610900578063bfd9a7e114610923578063c372a54914610936578063c772ef6c14610949578063cad0a3731461096c57600080fd5b8063b1e315bf146108a7578063b3e15a23146108ba578063b4cba69b146108cd578063b50a24a9146108ed57600080fd5b8063aae0c9b5116101ef578063aae0c9b51461082b578063acb1e61f1461083e578063ad74c29914610861578063adc1017f1461088457600080fd5b80639ea0c2e5146107c1578063a09cca93146107d4578063a2e1b42e146107e7578063a948191b146107fa57600080fd5b806338f2423e1161031b57806362d8decf116102ae578063790b86ad1161027d578063790b86ad14610762578063807e21e81461077557806381abf408146107885780638da5cb5b1461079057806397cc6771146107a157600080fd5b806362d8decf146106f9578063653414e11461070c5780636b0d3a121461073a578063715018a61461075a57600080fd5b806347bfebde116102ea57806347bfebde1461067d5780635690fe5c146106905780635f6679fc146106a357806362249310146106d657600080fd5b806338f2423e146105d55780633e4fae241461061657806345a13b381461063f578063469102a81461065257600080fd5b80631e0dbc9f1161039e57806326767f901161036d57806326767f901461055c5780632d08d4821461056f5780632f2efee01461058257806336230fee1461059557806336f93f5a146105b557600080fd5b80631e0dbc9f1461050357806321ca02dc146105165780632209128414610536578063246643181461054957600080fd5b806314551a76116103da57806314551a761461047a578063180432e01461048d578063181a99d0146104b85780631acd19c7146104e357600080fd5b8063010d81351461040c57806301c4383e1461042157806303d457c4146104545780630ae8c8e214610467575b600080fd5b61041f61041a3660046116fe565b610b54565b005b61044161042f36600461161b565b60166020526000908152604090205481565b6040519081526020015b60405180910390f35b61041f6104623660046118e1565b610b96565b61041f610475366004611774565b610bba565b61041f610488366004611738565b610bed565b61044161049b36600461163d565b601360209081526000928352604080842090915290825290205481565b6104416104c636600461163d565b601160209081526000928352604080842090915290825290205481565b6104416104f136600461161b565b600e6020526000908152604090205481565b61041f610511366004611738565b610c21565b61052961052436600461181f565b610c55565b60405161044b919061191b565b61041f6105443660046118e1565b610d0b565b61041f6105573660046118e1565b610d2f565b61041f61056a366004611774565b610d53565b61041f61057d36600461163d565b610d86565b61041f6105903660046118e1565b610dbc565b6104416105a336600461161b565b600a6020526000908152604090205481565b6104416105c336600461161b565b600d6020526000908152604090205481565b6105fe6105e336600461161b565b600c602052600090815260409020546001600160a01b031681565b6040516001600160a01b03909116815260200161044b565b6105fe61062436600461161b565b6005602052600090815260409020546001600160a01b031681565b61041f61064d36600461161b565b610de0565b61044161066036600461163d565b601460209081526000928352604080842090915290825290205481565b61041f61068b36600461163d565b610e5f565b61041f61069e36600461163d565b610e95565b6106c66106b136600461161b565b601f6020526000908152604090205460ff1681565b604051901515815260200161044b565b6106c66106e436600461161b565b60196020526000908152604090205460ff1681565b61041f610707366004611774565b610ecb565b6106c661071a36600461163d565b601260209081526000928352604080842090915290825290205460ff1681565b61044161074836600461161b565b60106020526000908152604090205481565b61041f610efe565b61041f61077036600461161b565b610f72565b61041f6107833660046118e1565b610fe5565b61041f611009565b6000546001600160a01b03166105fe565b6104416107af36600461161b565b60086020526000908152604090205481565b61041f6107cf3660046118e1565b61103d565b61041f6107e236600461161b565b611061565b61041f6107f53660046116fe565b611097565b610441610808366004611670565b601560209081526000938452604080852082529284528284209052825290205481565b61041f6108393660046118e1565b6110d9565b6106c661084c36600461161b565b601d6020526000908152604090205460ff1681565b6106c661086f36600461161b565b60026020526000908152604090205460ff1681565b6106c661089236600461161b565b601a6020526000908152604090205460ff1681565b61041f6108b5366004611774565b6110fd565b61041f6108c83660046118e1565b611130565b6104416108db36600461161b565b600f6020526000908152604090205481565b61041f6108fb366004611774565b611154565b6106c661090e36600461161b565b60186020526000908152604090205460ff1681565b61041f61093136600461161b565b611187565b61041f6109443660046118e1565b6111fb565b6106c661095736600461161b565b601b6020526000908152604090205460ff1681565b6001546001600160a01b03166105fe565b61041f61098b366004611774565b61121f565b61044161271081565b6106c66109a736600461163d565b601c60209081526000928352604080842090915290825290205460ff1681565b61041f6109d53660046116b3565b611252565b6105fe6109e836600461161b565b6006602052600090815260409020546001600160a01b031681565b610441610a1136600461161b565b60096020526000908152604090205481565b61041f610a3136600461163d565b61128f565b610441610a4436600461161b565b60176020526000908152604090205481565b610441610a6436600461161b565b600b6020526000908152604090205481565b61041f610a84366004611738565b6112c5565b6105fe610a9736600461161b565b6004602052600090815260409020546001600160a01b031681565b61041f610ac036600461179e565b6112f9565b61041f610ad33660046118e1565b611350565b61041f610ae6366004611774565b611374565b610441610af936600461161b565b60076020526000908152604090205481565b61041f610b1936600461161b565b6113a7565b6106c6610b2c36600461161b565b60036020526000908152604090205460ff1681565b61041f610b4f3660046118e1565b611491565b610b5c6114b5565b6001600160a01b039283166000908152601c6020908152604080832094909516825292909252919020805460ff1916911515919091179055565b610b9e6114b5565b6001600160a01b039091166000908152600b6020526040902055565b610bc26114b5565b6001600160a01b03919091166000908152601d60205260409020805460ff1916911515919091179055565b610bf56114b5565b6001600160a01b0392831660009081526013602090815260408083209490951682529290925291902055565b610c296114b5565b6001600160a01b0392831660009081526011602090815260408083209490951682529290925291902055565b601e602090815260009283526040909220815180830184018051928152908401929093019190912091528054610c8a906119a5565b80601f0160208091040260200160405190810160405280929190818152602001828054610cb6906119a5565b8015610d035780601f10610cd857610100808354040283529160200191610d03565b820191906000526020600020905b815481529060010190602001808311610ce657829003601f168201915b505050505081565b610d136114b5565b6001600160a01b03909116600090815260106020526040902055565b610d376114b5565b6001600160a01b03909116600090815260076020526040902055565b610d5b6114b5565b6001600160a01b03919091166000908152600360205260409020805460ff1916911515919091179055565b610d8e6114b5565b6001600160a01b039182166000908152600c6020526040902080546001600160a01b03191691909216179055565b610dc46114b5565b6001600160a01b039091166000908152600a6020526040902055565b6000546001600160a01b03163314610e135760405162461bcd60e51b8152600401610e0a90611970565b60405180910390fd5b6001600160a01b038116600081815260026020526040808220805460ff19166001179055517fa875c2832ddc0aef0649be9d18baa98da063ecbdca11ce3df51925c2c564b0e19190a250565b610e676114b5565b6001600160a01b03918216600090815260066020526040902080546001600160a01b03191691909216179055565b610e9d6114b5565b6001600160a01b03918216600090815260056020526040902080546001600160a01b03191691909216179055565b610ed36114b5565b6001600160a01b03919091166000908152601860205260409020805460ff1916911515919091179055565b6000546001600160a01b03163314610f285760405162461bcd60e51b8152600401610e0a90611970565b600080546040516001600160a01b03909116907f8be0079c531659141344cd1fd0a4f28419497f9722a3daafe3b4186f6b6457e0908390a3600080546001600160a01b0319169055565b6000546001600160a01b03163314610f9c5760405162461bcd60e51b8152600401610e0a90611970565b6001600160a01b038116600081815260026020526040808220805460ff19169055517f4ce3a7d1a02c0da13746593e7bd8dc13525b205dae2b15c2e1df332a0439595c9190a250565b610fed6114b5565b6001600160a01b03909116600090815260086020526040902055565b6000546001600160a01b031633146110335760405162461bcd60e51b8152600401610e0a90611970565b61103b610efe565b565b6110456114b5565b6001600160a01b039091166000908152600d6020526040902055565b6000546001600160a01b0316331461108b5760405162461bcd60e51b8152600401610e0a90611970565b611094816113a7565b50565b61109f6114b5565b6001600160a01b03928316600090815260126020908152604080832094909516825292909252919020805460ff1916911515919091179055565b6110e16114b5565b6001600160a01b039091166000908152600f6020526040902055565b6111056114b5565b6001600160a01b03919091166000908152601b60205260409020805460ff1916911515919091179055565b6111386114b5565b6001600160a01b03909116600090815260176020526040902055565b61115c6114b5565b6001600160a01b03919091166000908152601a60205260409020805460ff1916911515919091179055565b6000546001600160a01b031633146111b15760405162461bcd60e51b8152600401610e0a90611970565b600180546001600160a01b0319166001600160a01b0383169081179091556040517fcf41d0875fade187fa408cd5e4f56e25cda2fae1cff91d42f08c1db396349a2d90600090a250565b6112036114b5565b6001600160a01b039091166000908152600e6020526040902055565b6112276114b5565b6001600160a01b03919091166000908152601960205260409020805460ff1916911515919091179055565b61125a6114b5565b6001600160a01b0393841660009081526015602090815260408083209587168352948152848220939095168152919093522055565b6112976114b5565b6001600160a01b03918216600090815260046020526040902080546001600160a01b03191691909216179055565b6112cd6114b5565b6001600160a01b0392831660009081526014602090815260408083209490951682529290925291902055565b6113016114b5565b6001600160a01b0385166000908152601e60205260409081902090518391839161132e908890889061190b565b90815260405190819003602001902061134892909161150d565b505050505050565b6113586114b5565b6001600160a01b03909116600090815260096020526040902055565b61137c6114b5565b6001600160a01b03919091166000908152601f60205260409020805460ff1916911515919091179055565b6000546001600160a01b031633146113d15760405162461bcd60e51b8152600401610e0a90611970565b6001600160a01b0381166114365760405162461bcd60e51b815260206004820152602660248201527f4f776e61626c653a206e6577206f776e657220697320746865207a65726f206160448201526564647265737360d01b6064820152608401610e0a565b600080546040516001600160a01b03808516939216917f8be0079c531659141344cd1fd0a4f28419497f9722a3daafe3b4186f6b6457e091a3600080546001600160a01b0319166001600160a01b0392909216919091179055565b6114996114b5565b6001600160a01b03909116600090815260166020526040902055565b3360009081526002602052604090205460ff1661103b5760405162461bcd60e51b81526020600482015260166024820152751253959053125117d313d1d250d7d0d3d395149050d560521b6044820152606401610e0a565b828054611519906119a5565b90600052602060002090601f01602090048101928261153b5760008555611581565b82601f106115545782800160ff19823516178555611581565b82800160010185558215611581579182015b82811115611581578235825591602001919060010190611566565b5061158d929150611591565b5090565b5b8082111561158d5760008155600101611592565b80356001600160a01b03811681146115bd57600080fd5b919050565b803580151581146115bd57600080fd5b60008083601f8401126115e457600080fd5b50813567ffffffffffffffff8111156115fc57600080fd5b60208301915083602082850101111561161457600080fd5b9250929050565b60006020828403121561162d57600080fd5b611636826115a6565b9392505050565b6000806040838503121561165057600080fd5b611659836115a6565b9150611667602084016115a6565b90509250929050565b60008060006060848603121561168557600080fd5b61168e846115a6565b925061169c602085016115a6565b91506116aa604085016115a6565b90509250925092565b600080600080608085870312156116c957600080fd5b6116d2856115a6565b93506116e0602086016115a6565b92506116ee604086016115a6565b9396929550929360600135925050565b60008060006060848603121561171357600080fd5b61171c846115a6565b925061172a602085016115a6565b91506116aa604085016115c2565b60008060006060848603121561174d57600080fd5b611756846115a6565b9250611764602085016115a6565b9150604084013590509250925092565b6000806040838503121561178757600080fd5b611790836115a6565b9150611667602084016115c2565b6000806000806000606086880312156117b657600080fd5b6117bf866115a6565b9450602086013567ffffffffffffffff808211156117dc57600080fd5b6117e889838a016115d2565b9096509450604088013591508082111561180157600080fd5b5061180e888289016115d2565b969995985093965092949392505050565b6000806040838503121561183257600080fd5b61183b836115a6565b9150602083013567ffffffffffffffff8082111561185857600080fd5b818501915085601f83011261186c57600080fd5b81358181111561187e5761187e6119e0565b604051601f8201601f19908116603f011681019083821181831017156118a6576118a66119e0565b816040528281528860208487010111156118bf57600080fd5b8260208601602083013760006020848301015280955050505050509250929050565b600080604083850312156118f457600080fd5b6118fd836115a6565b946020939093013593505050565b8183823760009101908152919050565b600060208083528351808285015260005b818110156119485785810183015185820160400152820161192c565b8181111561195a576000604083870101525b50601f01601f1916929092016040019392505050565b6020808252818101527f4f776e61626c653a2063616c6c6572206973206e6f7420746865206f776e6572604082015260600190565b600181811c908216806119b957607f821691505b602082108114156119da57634e487b7160e01b600052602260045260246000fd5b50919050565b634e487b7160e01b600052604160045260246000fdfea26469706673582212209c4db3f35207009d0d1ad90d21b80871046bc7206e4617b919ddacd869110f8a64736f6c634300080600338be0079c531659141344cd1fd0a4f28419497f9722a3daafe3b4186f6b6457e0",
  "immutableReferences": {},
  "source": "// SPDX-License-Identifier: UNLICENSED\n\npragma solidity ^0.8.0;\n\nimport \"./SyndicateOwnerLogic.sol\";\n\n/// @author Syndicate Inc.\n/// @notice Core module for syndicate data\ncontract SyndicateClosedEndFundStoreV0 is SyndicateOwnerLogic {\n    /// @notice Used to initialize the SyndicateClosedEndFundStoreV0 contract.\n    constructor(address owner) SyndicateOwnerLogic(owner) {}\n\n    /// Tracks the logic contracts that have write-access to this data contract.\n    /// These addresses should be able to access the setter functions.\n    mapping(address => bool) public logicContractAllowed;\n\n    /// @notice The owner adds a new logic contract.\n    event LogicContractAdded(address indexed logicContractAddress);\n\n    /// @notice The owner removes a logic contract.\n    event LogicContractRemoved(address indexed logicContractAddress);\n\n    /// Modifiers---------------------------------------------------------------\n\n    /// @notice Only proceed if msg.sender is a logic contract that is allowed\n    /// to call this data contract.\n    modifier onlyLogicContractAllowed() {\n        _isLogicContractAllowed();\n        _;\n    }\n\n    function _isLogicContractAllowed() internal view {\n        require(logicContractAllowed[msg.sender], \"INVALID_LOGIC_CONTRACT\");\n    }\n\n    /// Owner functions---------------------------------------------------------\n\n    /// @notice Used by contract owner to grant write access to a logic\n    /// contract.\n    function addLogicContractAllowed(address logicContractAddress)\n        public\n        onlyOwner\n    {\n        logicContractAllowed[logicContractAddress] = true;\n\n        emit LogicContractAdded(logicContractAddress);\n    }\n\n    /// @notice Used by contract owner to remove write access to a logic\n    /// contract.\n    function removeLogicContractAllowed(address logicContractAddress)\n        public\n        onlyOwner\n    {\n        logicContractAllowed[logicContractAddress] = false;\n\n        emit LogicContractRemoved(logicContractAddress);\n    }\n\n    // Contract data------------------------------------------------------------\n\n    // Maps address => true if the wallet at that address is currently managing\n    // a Syndicate. Manager wallets are required to be unique to prevent\n    // commingling of assets between Syndicates and to ensure that transparency\n    // is provided to the members.\n    mapping(address => bool) public isManager;\n    // Maps the address of the Syndicate => the wallet address to which\n    // deposited funds are sent\n    mapping(address => address) public managerCurrent;\n    // Maps the address of the Syndicate => the wallet address nominated as a\n    // pending manager, i.e. future manager, of the Syndicate.\n    mapping(address => address) public managerPending;\n    // Maps the address of the Syndicate => the wallet address to which the\n    // manager's profits will be sent. The manager fee address must be\n    // different from the manager's address in order to avoid commingling the\n    // Syndicate's assets with its manager's fees.\n    mapping(address => address) public managerFeeAddress;\n    // Maps the address of the Syndicate => the fee received when the\n    // manager calls `managerAssessManagementFee`. In the future, this will be\n    // automatically assessed yearly. The fee amount must be entered in basis\n    // points: for example, a management fee of 2% per year would be passed in\n    // as 200 basis points because the fees are adjusted by\n    // `BASIS_POINTS_DENOMINATOR`, which is set to 10000.\n    mapping(address => uint256) public managerManagementFeeBasisPoints;\n    // Maps the address of the Syndicate => the percentage of the Syndicate's\n    // distributions that will be allocated to the manager. The fee amount must\n    // be entered in basis points: for example, a distribution share of 20% of all\n    // distributions would be passed in as 2000 basis points.\n    mapping(address => uint256) public managerDistributionShareBasisPoints;\n    // Maps the address of the Syndicate => the percentage of the Syndicate's\n    // distributions that will be allocated to Syndicate Inc. The minimum\n    // distribution share is 0.50%, or 50 basis points.\n    mapping(address => uint256) public syndicateDistributionShareBasisPoints;\n    // Maps the address of the Syndicate => the maximum number of members that\n    // can make deposits\n    mapping(address => uint256) public numMembersMax;\n    // Maps the address of the Syndicate => the number of members with nonzero\n    // deposits. For accurate calculation of each member's profit share, this\n    // value should NEVER be modified after the Syndicate is closed.\n    mapping(address => uint256) public numMembersCurrent;\n    // Maps the address of the Syndicate => the address of the ERC20 contract\n    // tracking deposits to the Syndicate. A stablecoin is recommended since\n    // this is used to calculate ownership, and fluctations in value can affect\n    // these ownership calculations.\n    mapping(address => address) public depositERC20Address;\n    // Maps the address of the Syndicate => the minimum amount (of the deposit\n    // ERC20) that a single address can deposit.\n    mapping(address => uint256) public depositMemberMin;\n    // Maps the address of the Syndicate => the maximum amount (of the deposit\n    // ERC20) that a single address can deposit. The manager might restrict the\n    // amount that each wallet can deposit into the fund to ensure that\n    // ownership is distributed among many people. In the future, we can\n    // consider having a mapping that allows you to set per-user deposit\n    // thresholds but this is better saved for the asset management contract.\n    mapping(address => uint256) public depositMemberMax;\n    // Maps the address of the Syndicate => the maximum amount that can be\n    // deposited to the Syndicate overall, e.g. an investment target.\n    mapping(address => uint256) public depositTotalMax;\n    // Maps the address of the Syndicate => the amount deposited to the\n    // Syndicate in total, from all members. For accurate calculation of each\n    // member's ownership stake, this value should NEVER be modified after the\n    // Syndicate is closed.\n    mapping(address => uint256) public depositTotal;\n    // Maps the address of the Syndicate => a member's wallet address => the\n    // amount that they have deposited to the Syndicate. For accurate\n    // calculation of the member's profit share, this value should NEVER be\n    // modified after the Syndicate is closed.\n    mapping(address => mapping(address => uint256)) public depositMember;\n    // Maps the address of the Syndicate => the address of an ERC20 contract =>\n    // true if the manager has set a distribution for that ERC20 token, false\n    // otherwise.\n    mapping(address => mapping(address => bool))\n        public distributionERC20Addresses;\n    // Maps the address of the Syndicate => the address of an ERC20 contract\n    // =>  the amount of the specified ERC20 token that have been set for\n    // distribution (in total for all members).\n    mapping(address => mapping(address => uint256)) public distributionTotal;\n    // Maps the address of the Syndicate => the address of a distribution ERC20\n    // => the amount of the specified ERC20 token that have already been\n    // claimed as distributions by ALL members.\n    mapping(address => mapping(address => uint256))\n        public distributionClaimedTotal;\n    // Maps the address of the Syndicate => the address of a distribution ERC20\n    // => a member's wallet address => the amount of the specified ERC20 token\n    // that the member has already claimed as a distribution.\n    mapping(address => mapping(address => mapping(address => uint256)))\n        public distributionClaimedMember;\n    // Maps the address of the Syndicate => the date the Syndicate was created\n    // in in UNIX time. This is also available in the events but the events are\n    // tougher to access on chain. This creation date should be relied upon as\n    // the source of truth, not the timestamp for the `createdSyndicate`\n    // event.\n    mapping(address => uint256) public dateCreated;\n    // Maps the address of the Syndicate => the date (in the future) at which\n    // the Syndicate is scheduled to close, or the date (in the past) at which\n    // the Syndicate actually stopped receiving deposits. This date can be used\n    // for calculating management fees.\n    mapping(address => uint256) public dateClose;\n    // Maps the address of the Syndicate => true if the Syndicate's deposits\n    // have not been finalized by the manager, false otherwise.\n    mapping(address => bool) public open;\n    // Maps the address of the Syndicate => true if a Syndicate's members are\n    // allowed to claim distributions.\n    mapping(address => bool) public distributing;\n    // Maps the address of the Syndicate => true if the manager can adjust\n    // deposit and distribution amounts after initalization. Can only be set on\n    // Syndicate creation and cannot be changed after that point.\n    mapping(address => bool) public modifiable;\n    // Maps the address of the Syndicate => true if the Syndicate ONLY accepts\n    // deposits from member wallets on the `allowlist`. False if any\n    // (accredited) member can deposit.\n    mapping(address => bool) public allowlistEnabled;\n    // Maps the address of the Syndicate => a member's wallet address => true\n    // if the member is allowed to deposit to the Syndicate, false otherwise\n    // (initialized to false at all addresses). ONLY applied when\n    // SyndicateValues.allowlistEnabled is true. Due to the trivial ease of\n    // creating new addresses, it is ineffective to maintain a list of blocked\n    // addresses (blocklist), so we implement an allowlist instead.\n    mapping(address => mapping(address => bool)) public allowlist;\n    // Maps the address of the Syndicate => true if a member can initiate a\n    // transfer of all or a portion of their deposit to another address before\n    // the Syndicate begins distributing. Member-initiated transfers may\n    // haveregulatory concerns (e.g. by allowing a transfer to a non-accredited\n    // investor), while manager-initiated transfers are safe for\n    // internalbookkeeping purposes. A manager's ability to initiate a transfer\n    // is determined by `modifiable` and is independent to `transferable`.\n    mapping(address => bool) public transferable;\n    // Maps the address of the Syndicate => key => value. A generic mapping for\n    // storing arbitrary data.\n    mapping(address => mapping(string => string)) public metadata;\n    // Maps the address of the Syndicate => true if the Syndicate cannot be\n    // closed (i.e. an open-ended fund). Defaults to false. Note that starting\n    // to populate this field will have a number of downstream implications\n    // syndicate functionality including creation, closing, and distribution.\n    mapping(address => bool) public notCloseable;\n\n    /// Setters-----------------------------------------------------------------\n\n    function setIsManager(address manager, bool _isManager)\n        public\n        onlyLogicContractAllowed\n    {\n        isManager[manager] = _isManager;\n    }\n\n    function setManagerCurrent(address syndicateAddress, address currentManager)\n        public\n        onlyLogicContractAllowed\n    {\n        managerCurrent[syndicateAddress] = currentManager;\n    }\n\n    function setManagerPending(address syndicateAddress, address pendingManager)\n        public\n        onlyLogicContractAllowed\n    {\n        managerPending[syndicateAddress] = pendingManager;\n    }\n\n    function setManagerFeeAddress(address syndicateAddress, address feeAddress)\n        public\n        onlyLogicContractAllowed\n    {\n        managerFeeAddress[syndicateAddress] = feeAddress;\n    }\n\n    function setManagerManagementFeeBasisPoints(\n        address syndicateAddress,\n        uint256 feeBasisPoints\n    ) public onlyLogicContractAllowed {\n        managerManagementFeeBasisPoints[syndicateAddress] = feeBasisPoints;\n    }\n\n    function setManagerDistributionShareBasisPoints(\n        address syndicateAddress,\n        uint256 performanceFeeBasisPoints\n    ) public onlyLogicContractAllowed {\n        managerDistributionShareBasisPoints[\n            syndicateAddress\n        ] = performanceFeeBasisPoints;\n    }\n\n    function setSyndicateDistributionShareBasisPoints(\n        address syndicateAddress,\n        uint256 distributionShareBasisPoints\n    ) public onlyLogicContractAllowed {\n        syndicateDistributionShareBasisPoints[\n            syndicateAddress\n        ] = distributionShareBasisPoints;\n    }\n\n    function setNumMembersMax(address syndicateAddress, uint256 maxMembers)\n        public\n        onlyLogicContractAllowed\n    {\n        numMembersMax[syndicateAddress] = maxMembers;\n    }\n\n    function setNumMembersCurrent(\n        address syndicateAddress,\n        uint256 currentMembers\n    ) public onlyLogicContractAllowed {\n        numMembersCurrent[syndicateAddress] = currentMembers;\n    }\n\n    function setDepositERC20Address(\n        address syndicateAddress,\n        address depositAddress\n    ) public onlyLogicContractAllowed {\n        depositERC20Address[syndicateAddress] = depositAddress;\n    }\n\n    function setDepositMemberMin(address syndicateAddress, uint256 minDeposit)\n        public\n        onlyLogicContractAllowed\n    {\n        depositMemberMin[syndicateAddress] = minDeposit;\n    }\n\n    function setDepositMemberMax(address syndicateAddress, uint256 maxDeposit)\n        public\n        onlyLogicContractAllowed\n    {\n        depositMemberMax[syndicateAddress] = maxDeposit;\n    }\n\n    function setDepositTotalMax(\n        address syndicateAddress,\n        uint256 maxDepositTotal\n    ) public onlyLogicContractAllowed {\n        depositTotalMax[syndicateAddress] = maxDepositTotal;\n    }\n\n    function setDepositTotal(address syndicateAddress, uint256 total)\n        public\n        onlyLogicContractAllowed\n    {\n        depositTotal[syndicateAddress] = total;\n    }\n\n    function setDepositMember(\n        address syndicateAddress,\n        address memberAddress,\n        uint256 deposit\n    ) public onlyLogicContractAllowed {\n        depositMember[syndicateAddress][memberAddress] = deposit;\n    }\n\n    function setDistributionERC20Addresses(\n        address syndicateAddress,\n        address distributionERC20Address,\n        bool isSet\n    ) public onlyLogicContractAllowed {\n        distributionERC20Addresses[syndicateAddress][\n            distributionERC20Address\n        ] = isSet;\n    }\n\n    function setDistributionTotal(\n        address syndicateAddress,\n        address distributionERC20Address,\n        uint256 total\n    ) public onlyLogicContractAllowed {\n        distributionTotal[syndicateAddress][distributionERC20Address] = total;\n    }\n\n    function setDistributionClaimedTotal(\n        address syndicateAddress,\n        address distributionERC20Address,\n        uint256 total\n    ) public onlyLogicContractAllowed {\n        distributionClaimedTotal[syndicateAddress][\n            distributionERC20Address\n        ] = total;\n    }\n\n    function setDistributionClaimedMember(\n        address syndicateAddress,\n        address distributionERC20Address,\n        address memberAddress,\n        uint256 amount\n    ) public onlyLogicContractAllowed {\n        distributionClaimedMember[syndicateAddress][distributionERC20Address][\n            memberAddress\n        ] = amount;\n    }\n\n    function setDateCreated(address syndicateAddress, uint256 date)\n        public\n        onlyLogicContractAllowed\n    {\n        dateCreated[syndicateAddress] = date;\n    }\n\n    function setDateClose(address syndicateAddress, uint256 date)\n        public\n        onlyLogicContractAllowed\n    {\n        dateClose[syndicateAddress] = date;\n    }\n\n    function setOpen(address syndicateAddress, bool isOpen)\n        public\n        onlyLogicContractAllowed\n    {\n        open[syndicateAddress] = isOpen;\n    }\n\n    function setDistributing(address syndicateAddress, bool isDistributing)\n        public\n        onlyLogicContractAllowed\n    {\n        distributing[syndicateAddress] = isDistributing;\n    }\n\n    function setModifiable(address syndicateAddress, bool isModifiable)\n        public\n        onlyLogicContractAllowed\n    {\n        modifiable[syndicateAddress] = isModifiable;\n    }\n\n    function setAllowlistEnabled(address syndicateAddress, bool isEnabled)\n        public\n        onlyLogicContractAllowed\n    {\n        allowlistEnabled[syndicateAddress] = isEnabled;\n    }\n\n    function setAllowlist(\n        address syndicateAddress,\n        address memberAddress,\n        bool allowed\n    ) public onlyLogicContractAllowed {\n        allowlist[syndicateAddress][memberAddress] = allowed;\n    }\n\n    function setTransferable(address syndicateAddress, bool isTransferable)\n        public\n        onlyLogicContractAllowed\n    {\n        transferable[syndicateAddress] = isTransferable;\n    }\n\n    function setMetadata(\n        address syndicateAddress,\n        string calldata metadataKey,\n        string calldata metadataValue\n    ) public onlyLogicContractAllowed {\n        metadata[syndicateAddress][metadataKey] = metadataValue;\n    }\n\n    function setNotCloseable(address syndicateAddress, bool isNotCloseable)\n        public\n        onlyLogicContractAllowed\n    {\n        notCloseable[syndicateAddress] = isNotCloseable;\n    }\n}\n",
  "sourcePath": "/Users/connerswenberg/Code/syndicate/Syndicate/contracts/SyndicateClosedEndFundStoreV0.sol",
  "compiler": {
    "name": "solc",
    "version": "0.8.6+commit.11564f7e.Emscripten.clang"
  },
  "schemaVersion": "3.4.1",
  "updatedAt": "2021-07-10T09:49:38.531Z",
  "networkType": "ethereum",
  "devdoc": {
    "author": "Syndicate Inc.",
    "kind": "dev",
    "methods": {
      "getSyndicateFeeAddress()": {
        "details": "This function is needed to allow inheriting contracts to only be able to view but not change syndicateFeeAddress without going through ownerSetSyndicateFeeAddress"
      },
      "owner()": {
        "details": "Returns the address of the current owner."
      },
      "ownerSetSyndicateFeeAddress(address)": {
        "params": {
          "feeAddress": "The owner's new contract fee address"
        }
      },
      "ownerTransferOwnership(address)": {
        "params": {
          "newOwner": "The new owner's address."
        }
      },
      "renounceOwnership()": {
        "details": "Leaves the contract without owner. It will not be possible to call `onlyOwner` functions anymore. Can only be called by the current owner. NOTE: Renouncing ownership will leave the contract without an owner, thereby removing any functionality that is only available to the owner."
      },
      "transferOwnership(address)": {
        "details": "Transfers ownership of the contract to a new account (`newOwner`). Can only be called by the current owner."
      }
    },
    "version": 1
  },
  "userdoc": {
    "events": {
      "LogicContractAdded(address)": {
        "notice": "The owner adds a new logic contract."
      },
      "LogicContractRemoved(address)": {
        "notice": "The owner removes a logic contract."
      },
      "SyndicateFeeAddressUpdated(address)": {
        "notice": "The owner updates the contract fee address."
      }
    },
    "kind": "user",
    "methods": {
      "addLogicContractAllowed(address)": {
        "notice": "Used by contract owner to grant write access to a logic contract."
      },
      "constructor": {
        "notice": "Used to initialize the SyndicateClosedEndFundStoreV0 contract."
      },
      "getSyndicateFeeAddress()": {
        "notice": "getter function for syndicate fee address."
      },
      "logicContractAllowed(address)": {
        "notice": "Tracks the logic contracts that have write-access to this data contract. These addresses should be able to access the setter functions."
      },
      "ownerRenounceOwnership()": {
        "notice": "Renounce ownership of the contract"
      },
      "ownerSetSyndicateFeeAddress(address)": {
        "notice": "set a new fee address for the contract function that can only be triggered by the contract owner."
      },
      "ownerTransferOwnership(address)": {
        "notice": "Transfers ownership to the provided address."
      },
      "removeLogicContractAllowed(address)": {
        "notice": "Used by contract owner to remove write access to a logic contract."
      },
      "setIsManager(address,bool)": {
        "notice": "Setters-----------------------------------------------------------------"
      }
    },
    "notice": "Core module for syndicate data",
    "version": 1
  }
}