{
  "contractName": "SyndicateClosedEndFundManagerLogicV0",
  "abi": [
    {
      "inputs": [
        {
          "internalType": "address",
          "name": "owner",
          "type": "address"
        },
        {
          "internalType": "address",
          "name": "storeAddress",
          "type": "address"
        }
      ],
      "stateMutability": "nonpayable",
      "type": "constructor"
    },
    {
      "anonymous": false,
      "inputs": [
        {
          "indexed": true,
          "internalType": "address",
          "name": "syndicateAddress",
          "type": "address"
        },
        {
          "indexed": false,
          "internalType": "uint256",
          "name": "dateClose",
          "type": "uint256"
        }
      ],
      "name": "DateCloseUpdated",
      "type": "event"
    },
    {
      "anonymous": false,
      "inputs": [
        {
          "indexed": true,
          "internalType": "address",
          "name": "syndicateAddress",
          "type": "address"
        },
        {
          "indexed": false,
          "internalType": "uint256",
          "name": "managementFeeAmount",
          "type": "uint256"
        }
      ],
      "name": "ManagementFeeAssessed",
      "type": "event"
    },
    {
      "anonymous": false,
      "inputs": [
        {
          "indexed": true,
          "internalType": "address",
          "name": "syndicateAddress",
          "type": "address"
        },
        {
          "indexed": true,
          "internalType": "address",
          "name": "managerFeeAddress",
          "type": "address"
        }
      ],
      "name": "ManagerFeeAddressUpdated",
      "type": "event"
    },
    {
      "anonymous": false,
      "inputs": [
        {
          "indexed": true,
          "internalType": "address",
          "name": "syndicateAddress",
          "type": "address"
        },
        {
          "indexed": false,
          "internalType": "uint256",
          "name": "managerManagementFeeBasisPoints",
          "type": "uint256"
        },
        {
          "indexed": false,
          "internalType": "uint256",
          "name": "managerDistributionShareBasisPoints",
          "type": "uint256"
        }
      ],
      "name": "ManagerFeesUpdated",
      "type": "event"
    },
    {
      "anonymous": false,
      "inputs": [
        {
          "indexed": true,
          "internalType": "address",
          "name": "syndicateAddress",
          "type": "address"
        },
        {
          "indexed": true,
          "internalType": "address",
          "name": "managerCurrent",
          "type": "address"
        },
        {
          "indexed": false,
          "internalType": "bytes32",
          "name": "hexadecimalHash",
          "type": "bytes32"
        },
        {
          "indexed": false,
          "internalType": "uint8",
          "name": "hashFunction",
          "type": "uint8"
        },
        {
          "indexed": false,
          "internalType": "uint8",
          "name": "hashSize",
          "type": "uint8"
        }
      ],
      "name": "MemoEmitted",
      "type": "event"
    },
    {
      "anonymous": false,
      "inputs": [
        {
          "indexed": true,
          "internalType": "address",
          "name": "syndicateAddress",
          "type": "address"
        },
        {
          "indexed": false,
          "internalType": "string",
          "name": "metadataKey",
          "type": "string"
        },
        {
          "indexed": false,
          "internalType": "string",
          "name": "metadataValue",
          "type": "string"
        }
      ],
      "name": "MetadataUpdated",
      "type": "event"
    },
    {
      "anonymous": false,
      "inputs": [
        {
          "indexed": true,
          "internalType": "address",
          "name": "syndicateAddress",
          "type": "address"
        },
        {
          "indexed": true,
          "internalType": "address",
          "name": "oldManager",
          "type": "address"
        },
        {
          "indexed": true,
          "internalType": "address",
          "name": "newManager",
          "type": "address"
        }
      ],
      "name": "NewManagerConfirmed",
      "type": "event"
    },
    {
      "anonymous": false,
      "inputs": [
        {
          "indexed": true,
          "internalType": "address",
          "name": "syndicateAddress",
          "type": "address"
        },
        {
          "indexed": true,
          "internalType": "address",
          "name": "managerPendingAddress",
          "type": "address"
        }
      ],
      "name": "NewManagerNominated",
      "type": "event"
    },
    {
      "anonymous": false,
      "inputs": [
        {
          "indexed": true,
          "internalType": "address",
          "name": "syndicateAddress",
          "type": "address"
        },
        {
          "indexed": false,
          "internalType": "uint256",
          "name": "numMembersMax",
          "type": "uint256"
        },
        {
          "indexed": false,
          "internalType": "uint256",
          "name": "numMembersCurrent",
          "type": "uint256"
        }
      ],
      "name": "NumMembersMaxUpdated",
      "type": "event"
    },
    {
      "anonymous": false,
      "inputs": [
        {
          "indexed": true,
          "internalType": "address",
          "name": "previousOwner",
          "type": "address"
        },
        {
          "indexed": true,
          "internalType": "address",
          "name": "newOwner",
          "type": "address"
        }
      ],
      "name": "OwnershipTransferred",
      "type": "event"
    },
    {
      "anonymous": false,
      "inputs": [
        {
          "indexed": true,
          "internalType": "address",
          "name": "syndicateAddress",
          "type": "address"
        }
      ],
      "name": "SyndicateClosed",
      "type": "event"
    },
    {
      "anonymous": false,
      "inputs": [
        {
          "indexed": true,
          "internalType": "address",
          "name": "syndicateAddress",
          "type": "address"
        },
        {
          "indexed": false,
          "internalType": "uint256",
          "name": "managerManagementFeeBasisPoints",
          "type": "uint256"
        },
        {
          "indexed": false,
          "internalType": "uint256",
          "name": "managerDistributionShareBasisPoints",
          "type": "uint256"
        },
        {
          "indexed": false,
          "internalType": "uint256",
          "name": "syndicateDistributionShareBasisPoints",
          "type": "uint256"
        },
        {
          "indexed": false,
          "internalType": "uint256",
          "name": "numMembersMax",
          "type": "uint256"
        },
        {
          "indexed": true,
          "internalType": "address",
          "name": "depositERC20Address",
          "type": "address"
        },
        {
          "indexed": false,
          "internalType": "uint256",
          "name": "depositMemberMin",
          "type": "uint256"
        },
        {
          "indexed": false,
          "internalType": "uint256",
          "name": "depositMemberMax",
          "type": "uint256"
        },
        {
          "indexed": false,
          "internalType": "uint256",
          "name": "depositTotalMax",
          "type": "uint256"
        },
        {
          "indexed": false,
          "internalType": "uint256",
          "name": "dateCreated",
          "type": "uint256"
        },
        {
          "indexed": false,
          "internalType": "uint256",
          "name": "dateClose",
          "type": "uint256"
        },
        {
          "indexed": false,
          "internalType": "bool",
          "name": "modifiable",
          "type": "bool"
        },
        {
          "indexed": false,
          "internalType": "bool",
          "name": "allowlistEnabled",
          "type": "bool"
        },
        {
          "indexed": false,
          "internalType": "bool",
          "name": "transferable",
          "type": "bool"
        }
      ],
      "name": "SyndicateCreated",
      "type": "event"
    },
    {
      "anonymous": false,
      "inputs": [
        {
          "indexed": true,
          "internalType": "address",
          "name": "syndicateAddress",
          "type": "address"
        },
        {
          "indexed": false,
          "internalType": "uint256",
          "name": "syndicateDistributionShareBasisPoints",
          "type": "uint256"
        }
      ],
      "name": "SyndicateDistributionShareUpdated",
      "type": "event"
    },
    {
      "anonymous": false,
      "inputs": [
        {
          "indexed": true,
          "internalType": "address",
          "name": "contractFeeAddress",
          "type": "address"
        }
      ],
      "name": "SyndicateFeeAddressUpdated",
      "type": "event"
    },
    {
      "inputs": [],
      "name": "BASIS_POINTS_DENOMINATOR",
      "outputs": [
        {
          "internalType": "uint256",
          "name": "",
          "type": "uint256"
        }
      ],
      "stateMutability": "view",
      "type": "function",
      "constant": true
    },
    {
      "inputs": [],
      "name": "getSyndicateFeeAddress",
      "outputs": [
        {
          "internalType": "address",
          "name": "",
          "type": "address"
        }
      ],
      "stateMutability": "view",
      "type": "function",
      "constant": true
    },
    {
      "inputs": [],
      "name": "owner",
      "outputs": [
        {
          "internalType": "address",
          "name": "",
          "type": "address"
        }
      ],
      "stateMutability": "view",
      "type": "function",
      "constant": true
    },
    {
      "inputs": [],
      "name": "ownerRenounceOwnership",
      "outputs": [],
      "stateMutability": "nonpayable",
      "type": "function"
    },
    {
      "inputs": [
        {
          "internalType": "address",
          "name": "feeAddress",
          "type": "address"
        }
      ],
      "name": "ownerSetSyndicateFeeAddress",
      "outputs": [],
      "stateMutability": "nonpayable",
      "type": "function"
    },
    {
      "inputs": [
        {
          "internalType": "address",
          "name": "newOwner",
          "type": "address"
        }
      ],
      "name": "ownerTransferOwnership",
      "outputs": [],
      "stateMutability": "nonpayable",
      "type": "function"
    },
    {
      "inputs": [],
      "name": "renounceOwnership",
      "outputs": [],
      "stateMutability": "nonpayable",
      "type": "function"
    },
    {
      "inputs": [
        {
          "internalType": "address",
          "name": "newOwner",
          "type": "address"
        }
      ],
      "name": "transferOwnership",
      "outputs": [],
      "stateMutability": "nonpayable",
      "type": "function"
    },
    {
      "inputs": [
        {
          "internalType": "uint256",
          "name": "managerManagementFeeBasisPoints",
          "type": "uint256"
        },
        {
          "internalType": "uint256",
          "name": "managerDistributionShareBasisPoints",
          "type": "uint256"
        },
        {
          "internalType": "uint256",
          "name": "syndicateDistributionShareBasisPoints",
          "type": "uint256"
        },
        {
          "internalType": "uint256",
          "name": "numMembersMax",
          "type": "uint256"
        },
        {
          "internalType": "address",
          "name": "depositERC20Address",
          "type": "address"
        },
        {
          "internalType": "uint256",
          "name": "depositMemberMin",
          "type": "uint256"
        },
        {
          "internalType": "uint256",
          "name": "depositMemberMax",
          "type": "uint256"
        },
        {
          "internalType": "uint256",
          "name": "depositTotalMax",
          "type": "uint256"
        },
        {
          "internalType": "uint256",
          "name": "dateClose",
          "type": "uint256"
        },
        {
          "internalType": "bool",
          "name": "modifiable",
          "type": "bool"
        },
        {
          "internalType": "bool",
          "name": "allowlistEnabled",
          "type": "bool"
        },
        {
          "internalType": "bool",
          "name": "transferable",
          "type": "bool"
        }
      ],
      "name": "createSyndicate",
      "outputs": [],
      "stateMutability": "nonpayable",
      "type": "function"
    },
    {
      "inputs": [
        {
          "internalType": "address",
          "name": "syndicateAddress",
          "type": "address"
        },
        {
          "internalType": "address",
          "name": "managerPendingAddress",
          "type": "address"
        }
      ],
      "name": "managerSetManagerPending",
      "outputs": [],
      "stateMutability": "nonpayable",
      "type": "function"
    },
    {
      "inputs": [
        {
          "internalType": "address",
          "name": "syndicateAddress",
          "type": "address"
        },
        {
          "internalType": "address",
          "name": "managerFeeAddress",
          "type": "address"
        }
      ],
      "name": "managerPendingConfirmAndSetManagerFeeAddress",
      "outputs": [],
      "stateMutability": "nonpayable",
      "type": "function"
    },
    {
      "inputs": [
        {
          "internalType": "address",
          "name": "syndicateAddress",
          "type": "address"
        }
      ],
      "name": "managerPendingConfirm",
      "outputs": [],
      "stateMutability": "nonpayable",
      "type": "function"
    },
    {
      "inputs": [
        {
          "internalType": "address",
          "name": "syndicateAddress",
          "type": "address"
        },
        {
          "internalType": "address",
          "name": "managerFeeAddress",
          "type": "address"
        }
      ],
      "name": "managerSetManagerFeeAddress",
      "outputs": [],
      "stateMutability": "nonpayable",
      "type": "function"
    },
    {
      "inputs": [
        {
          "internalType": "address",
          "name": "syndicateAddress",
          "type": "address"
        },
        {
          "internalType": "uint256",
          "name": "managerManagementFeeBasisPoints",
          "type": "uint256"
        },
        {
          "internalType": "uint256",
          "name": "managerDistributionShareBasisPoints",
          "type": "uint256"
        }
      ],
      "name": "managerSetManagerFees",
      "outputs": [],
      "stateMutability": "nonpayable",
      "type": "function"
    },
    {
      "inputs": [
        {
          "internalType": "address",
          "name": "syndicateAddress",
          "type": "address"
        },
        {
          "internalType": "uint256",
          "name": "syndicateDistributionShareBasisPoints",
          "type": "uint256"
        }
      ],
      "name": "managerSetSyndicateDistributionShare",
      "outputs": [],
      "stateMutability": "nonpayable",
      "type": "function"
    },
    {
      "inputs": [
        {
          "internalType": "address",
          "name": "syndicateAddress",
          "type": "address"
        },
        {
          "internalType": "address",
          "name": "feeERC20Address",
          "type": "address"
        },
        {
          "internalType": "uint256",
          "name": "amount",
          "type": "uint256"
        }
      ],
      "name": "managerAssessManagementFee",
      "outputs": [],
      "stateMutability": "nonpayable",
      "type": "function"
    },
    {
      "inputs": [
        {
          "internalType": "address",
          "name": "syndicateAddress",
          "type": "address"
        },
        {
          "internalType": "uint256",
          "name": "numMembersMax",
          "type": "uint256"
        }
      ],
      "name": "managerSetNumMembersMax",
      "outputs": [],
      "stateMutability": "nonpayable",
      "type": "function"
    },
    {
      "inputs": [
        {
          "internalType": "address",
          "name": "syndicateAddress",
          "type": "address"
        }
      ],
      "name": "managerSetNumMembersMaxToCurrent",
      "outputs": [],
      "stateMutability": "nonpayable",
      "type": "function"
    },
    {
      "inputs": [
        {
          "internalType": "address",
          "name": "syndicateAddress",
          "type": "address"
        },
        {
          "internalType": "uint256",
          "name": "dateClose",
          "type": "uint256"
        }
      ],
      "name": "managerSetDateClose",
      "outputs": [],
      "stateMutability": "nonpayable",
      "type": "function"
    },
    {
      "inputs": [
        {
          "internalType": "address",
          "name": "syndicateAddress",
          "type": "address"
        }
      ],
      "name": "managerCloseSyndicate",
      "outputs": [],
      "stateMutability": "nonpayable",
      "type": "function"
    },
    {
      "inputs": [
        {
          "internalType": "address",
          "name": "syndicateAddress",
          "type": "address"
        },
        {
          "internalType": "string[]",
          "name": "metadataKeys",
          "type": "string[]"
        },
        {
          "internalType": "string[]",
          "name": "metadataValues",
          "type": "string[]"
        }
      ],
      "name": "managerSetMetadata",
      "outputs": [],
      "stateMutability": "nonpayable",
      "type": "function"
    },
    {
      "inputs": [
        {
          "internalType": "address",
          "name": "syndicateAddress",
          "type": "address"
        },
        {
          "internalType": "bytes32",
          "name": "hexadecimalHash",
          "type": "bytes32"
        },
        {
          "internalType": "uint8",
          "name": "hashFunction",
          "type": "uint8"
        },
        {
          "internalType": "uint8",
          "name": "hashSize",
          "type": "uint8"
        }
      ],
      "name": "managerEmitMemo",
      "outputs": [],
      "stateMutability": "nonpayable",
      "type": "function"
    }
  ],
  "bytecode": "0x6080604052600280546001600160a01b0319167340db79f7f18c468c6552538b488c58b5e72bf4d91790553480156200003757600080fd5b50604051620035e8380380620035e88339810160408190526200005a91620001fa565b6001600081815581546001600160a01b03191633908117909255604051849284928492829190600080516020620035c8833981519152908290a350620000a081620000cb565b50600380546001600160a01b0319166001600160a01b03929092169190911790555062000232915050565b6001546001600160a01b031633146200012b5760405162461bcd60e51b815260206004820181905260248201527f4f776e61626c653a2063616c6c6572206973206e6f7420746865206f776e657260448201526064015b60405180910390fd5b6001600160a01b038116620001925760405162461bcd60e51b815260206004820152602660248201527f4f776e61626c653a206e6577206f776e657220697320746865207a65726f206160448201526564647265737360d01b606482015260840162000122565b6001546040516001600160a01b03808416921690600080516020620035c883398151915290600090a3600180546001600160a01b0319166001600160a01b0392909216919091179055565b80516001600160a01b0381168114620001f557600080fd5b919050565b600080604083850312156200020e57600080fd5b6200021983620001dd565b91506200022960208401620001dd565b90509250929050565b61338680620002426000396000f3fe608060405234801561001057600080fd5b50600436106101425760003560e01c8063997842dc116100b8578063d8162e6d1161007c578063d8162e6d1461027c578063d8a57ad71461028f578063eb818a6d146102a2578063f05a7695146102b5578063f2fde38b146102c8578063f6eadbf1146102db57600080fd5b8063997842dc1461021b578063a09cca931461022e578063bfd9a7e114610241578063cad0a37314610254578063cfa498a31461026557600080fd5b8063430e8fac1161010a578063430e8fac146101a85780634f7317ab146101bb578063715018a6146101ce57806381abf408146101d65780638da5cb5b146101de57806393eb34e11461020857600080fd5b80631022d0db146101475780631e9b0ad81461015c5780633dfd91f71461016f578063416f5a391461018257806342fb029a14610195575b600080fd5b61015a610155366004612e8b565b6102ee565b005b61015a61016a366004612fd7565b610588565b61015a61017d366004612f05565b61068e565b61015a610190366004612f88565b61083b565b61015a6101a3366004612e4a565b61089c565b61015a6101b6366004612e4a565b6109ba565b61015a6101c9366004612e8b565b610a55565b61015a610a6c565b61015a610ae0565b6001546001600160a01b03165b6040516001600160a01b0390911681526020015b60405180910390f35b61015a610216366004612ec4565b610b14565b61015a610229366004612e4a565b610f53565b61015a61023c366004612e4a565b6114d1565b61015a61024f366004612e4a565b611507565b6002546001600160a01b03166101eb565b61026e61271081565b6040519081526020016101ff565b61015a61028a366004612e8b565b61157b565b61015a61029d36600461306e565b61187e565b61015a6102b0366004612fd7565b6123a7565b61015a6102c3366004613003565b612545565b61015a6102d6366004612e4a565b6128d8565b61015a6102e9366004612fd7565b6129c3565b816102f881612af2565b6001600160a01b0382166103465760405162461bcd60e51b815260206004820152601060248201526f11915157d051111497d393d517d4d15560821b60448201526064015b60405180910390fd5b600354604051630e8aef6f60e41b81526001600160a01b0385811660048301529091169063e8aef6f09060240160206040518083038186803b15801561038b57600080fd5b505afa15801561039f573d6000803e3d6000fd5b505050506040513d601f19601f820116820180604052508101906103c39190612e6e565b6001600160a01b0316826001600160a01b031614156104135760405162461bcd60e51b815260206004820152600c60248201526b2322a2afa0a222291ea6a3a960a11b604482015260640161033d565b600354604051630f93eb8960e21b81526001600160a01b03858116600483015290911690633e4fae249060240160206040518083038186803b15801561045857600080fd5b505afa15801561046c573d6000803e3d6000fd5b505050506040513d601f19601f820116820180604052508101906104909190612e6e565b6001600160a01b0316826001600160a01b031614156104e45760405162461bcd60e51b815260206004820152601060248201526f2322a2afa0a222291ea82223afa6a3a960811b604482015260640161033d565b6003546040516323dff5ef60e11b81526001600160a01b0385811660048301528481166024830152909116906347bfebde90604401600060405180830381600087803b15801561053357600080fd5b505af1158015610547573d6000803e3d6000fd5b50506040516001600160a01b038086169350861691507fd5924f4ff6a37ec680bbd8bb5b93dfaca87c9f1ef752172e0445fc36b167d81c90600090a3505050565b8161059281612af2565b8261059c81612bbd565b4283116105e15760405162461bcd60e51b8152602060048201526013602482015272504153545f4e45575f434c4f53455f4441544560681b604482015260640161033d565b60035460405163b3e15a2360e01b81526001600160a01b039091169063b3e15a239061061390879087906004016131a4565b600060405180830381600087803b15801561062d57600080fd5b505af1158015610641573d6000803e3d6000fd5b50505050836001600160a01b03167f402d64d79f4d20ae64f5e9bf07c8db0ffcf0ac7abbf9500476134d792513b54a8460405161068091815260200190565b60405180910390a250505050565b8461069881612af2565b8382146106de5760405162461bcd60e51b815260206004820152601460248201527320a92920acafa622a723aa2429afa224a32322a960611b604482015260640161033d565b60005b84811015610832576003546001600160a01b031663eb3b0cba8888888581811061070d5761070d613317565b905060200281019061071f9190613247565b88888781811061073157610731613317565b90506020028101906107439190613247565b6040518663ffffffff1660e01b8152600401610763959493929190613160565b600060405180830381600087803b15801561077d57600080fd5b505af1158015610791573d6000803e3d6000fd5b50505050866001600160a01b03167f6c1850fce35387a891e82ca88e975790ab6f0709e9ed6842e01397f296012a7e8787848181106107d2576107d2613317565b90506020028101906107e49190613247565b8787868181106107f6576107f6613317565b90506020028101906108089190613247565b60405161081894939291906131bd565b60405180910390a28061082a816132e6565b9150506106e1565b50505050505050565b8361084581612af2565b6040805185815260ff8581166020830152841681830152905133916001600160a01b038816917fe4932b345b5521ebad3df7b4691dc6f7c1903d75d8cd8ce5132216b90bb48e1a9181900360600190a35050505050565b6108a4612c73565b806108ae81612af2565b816108b881612bbd565b6003546040516362d8decf60e01b81526001600160a01b03909116906362d8decf906108eb908690600090600401613145565b600060405180830381600087803b15801561090557600080fd5b505af1158015610919573d6000803e3d6000fd5b505060035460405163b3e15a2360e01b81526001600160a01b03909116925063b3e15a23915061094f90869042906004016131a4565b600060405180830381600087803b15801561096957600080fd5b505af115801561097d573d6000803e3d6000fd5b50506040516001600160a01b03861692507fc7d27cfbe3baacc4fc3a372d5c2dff4fef9a23df61def4397139f515791001859150600090a2505050565b806109c481612af2565b816109ce81612bbd565b60035460405163e396ae9b60e01b81526001600160a01b038086166004830152610a5092869291169063e396ae9b9060240160206040518083038186803b158015610a1857600080fd5b505afa158015610a2c573d6000803e3d6000fd5b505050506040513d601f19601f820116820180604052508101906102e99190613055565b505050565b610a5e82610f53565b610a6882826102ee565b5050565b6001546001600160a01b03163314610a965760405162461bcd60e51b815260040161033d90613212565b6001546040516000916001600160a01b0316907f8be0079c531659141344cd1fd0a4f28419497f9722a3daafe3b4186f6b6457e0908390a3600180546001600160a01b0319169055565b6001546001600160a01b03163314610b0a5760405162461bcd60e51b815260040161033d90613212565b610b12610a6c565b565b610b1c612c73565b82610b2681612af2565b83610b3081612d33565b60008311610b695760405162461bcd60e51b815260206004820152600660248201526504645453c3d360d41b604482015260640161033d565b600354604051630dc35bbb60e41b81526001600160a01b038781166004830152600092169063dc35bbb09060240160206040518083038186803b158015610baf57600080fd5b505afa158015610bc3573d6000803e3d6000fd5b505050506040513d601f19601f82011682018060405250810190610be79190612e6e565b6001600160a01b03161415610c315760405162461bcd60e51b815260206004820152601060248201526f11915157d051111497d393d517d4d15560821b604482015260640161033d565b60035460405163deebf2eb60e01b81526001600160a01b0387811660048301526000926127109291169063deebf2eb9060240160206040518083038186803b158015610c7c57600080fd5b505afa158015610c90573d6000803e3d6000fd5b505050506040513d601f19601f82011682018060405250810190610cb49190613055565b610cbe90866132b0565b610cc8919061328e565b90506000610cd682866132cf565b600354604051630e8aef6f60e41b81526001600160a01b038a811660048301529293508892808416926323b872dd9291169063e8aef6f09060240160206040518083038186803b158015610d2957600080fd5b505afa158015610d3d573d6000803e3d6000fd5b505050506040513d601f19601f82011682018060405250810190610d619190612e6e565b6002546001600160a01b03166040516001600160e01b031960e085901b1681526001600160a01b0392831660048201529116602482015260448101869052606401602060405180830381600087803b158015610dbc57600080fd5b505af1158015610dd0573d6000803e3d6000fd5b505050506040513d601f19601f82011682018060405250810190610df49190613038565b50600354604051630dc35bbb60e41b81526001600160a01b038a81166004830152838116926323b872dd9233929091169063dc35bbb09060240160206040518083038186803b158015610e4657600080fd5b505afa158015610e5a573d6000803e3d6000fd5b505050506040513d601f19601f82011682018060405250810190610e7e9190612e6e565b6040516001600160e01b031960e085901b1681526001600160a01b0392831660048201529116602482015260448101859052606401602060405180830381600087803b158015610ecd57600080fd5b505af1158015610ee1573d6000803e3d6000fd5b505050506040513d601f19601f82011682018060405250810190610f059190613038565b50876001600160a01b03167f696a552972de01585fc649b25f0dd884c32c0cb3cf15827d1152c0dee6f5544287604051610f4191815260200190565b60405180910390a25050505050505050565b600354604051630e8aef6f60e41b81526001600160a01b038381166004830152600092169063e8aef6f09060240160206040518083038186803b158015610f9957600080fd5b505afa158015610fad573d6000803e3d6000fd5b505050506040513d601f19601f82011682018060405250810190610fd19190612e6e565b600354604051630f93eb8960e21b81526001600160a01b03858116600483015292935060009290911690633e4fae249060240160206040518083038186803b15801561101c57600080fd5b505afa158015611030573d6000803e3d6000fd5b505050506040513d601f19601f820116820180604052508101906110549190612e6e565b9050336001600160a01b038216146110a05760405162461bcd60e51b815260206004820152600f60248201526e29a2292fa727aa2fa82223afa6a3a960891b604482015260640161033d565b60035460405163f3ae241560e01b81526001600160a01b0383811660048301529091169063f3ae24159060240160206040518083038186803b1580156110e557600080fd5b505afa1580156110f9573d6000803e3d6000fd5b505050506040513d601f19601f8201168201806040525081019061111d9190613038565b156111585760405162461bcd60e51b815260206004820152600b60248201526a20a62922a0a22cafa6a3a960a91b604482015260640161033d565b600354604051630dc35bbb60e41b81526001600160a01b0385811660048301529091169063dc35bbb09060240160206040518083038186803b15801561119d57600080fd5b505afa1580156111b1573d6000803e3d6000fd5b505050506040513d601f19601f820116820180604052508101906111d59190612e6e565b6001600160a01b0316336001600160a01b031614156112295760405162461bcd60e51b815260206004820152601060248201526f282223afa6a3a91ea322a2afa0a2222960811b604482015260640161033d565b600354604051630181a99d60e41b81526001600160a01b0385811660048301523360248301529091169063181a99d09060440160206040518083038186803b15801561127457600080fd5b505afa158015611288573d6000803e3d6000fd5b505050506040513d601f19601f820116820180604052508101906112ac9190613055565b156112eb5760405162461bcd60e51b815260206004820152600f60248201526e05044475f4d47525f4841535f44455608c1b604482015260640161033d565b60035460405163e0d612f560e01b81526001600160a01b03858116600483015283811660248301529091169063e0d612f590604401600060405180830381600087803b15801561133a57600080fd5b505af115801561134e573d6000803e3d6000fd5b505060035460405163026767f960e41b81526001600160a01b0390911692506326767f909150611385908490600190600401613145565b600060405180830381600087803b15801561139f57600080fd5b505af11580156113b3573d6000803e3d6000fd5b50506003546040516315a43f9760e21b81526001600160a01b038781166004830152600060248301529091169250635690fe5c9150604401600060405180830381600087803b15801561140557600080fd5b505af1158015611419573d6000803e3d6000fd5b505060035460405163026767f960e41b81526001600160a01b0390911692506326767f909150611450908590600090600401613145565b600060405180830381600087803b15801561146a57600080fd5b505af115801561147e573d6000803e3d6000fd5b50505050806001600160a01b0316826001600160a01b0316846001600160a01b03167f20fa2fe3428048f1d12bb176573d5341afa1bcd309d8ee6edc5252297dd5085960405160405180910390a4505050565b6001546001600160a01b031633146114fb5760405162461bcd60e51b815260040161033d90613212565b611504816128d8565b50565b6001546001600160a01b031633146115315760405162461bcd60e51b815260040161033d90613212565b600280546001600160a01b0319166001600160a01b0383169081179091556040517fcf41d0875fade187fa408cd5e4f56e25cda2fae1cff91d42f08c1db396349a2d90600090a250565b8161158581612af2565b600354604051630e8aef6f60e41b81526001600160a01b03858116600483015284811692169063e8aef6f09060240160206040518083038186803b1580156115cc57600080fd5b505afa1580156115e0573d6000803e3d6000fd5b505050506040513d601f19601f820116820180604052508101906116049190612e6e565b6001600160a01b031614156116495760405162461bcd60e51b815260206004820152600b60248201526a20a62922a0a22cafa6a3a960a91b604482015260640161033d565b60035460405163f3ae241560e01b81526001600160a01b0384811660048301529091169063f3ae24159060240160206040518083038186803b15801561168e57600080fd5b505afa1580156116a2573d6000803e3d6000fd5b505050506040513d601f19601f820116820180604052508101906116c69190613038565b156117095760405162461bcd60e51b8152602060048201526013602482015272282223afa6a3a92fa0a62922a0a22cafa6a3a960691b604482015260640161033d565b600354604051630dc35bbb60e41b81526001600160a01b0385811660048301529091169063dc35bbb09060240160206040518083038186803b15801561174e57600080fd5b505afa158015611762573d6000803e3d6000fd5b505050506040513d601f19601f820116820180604052508101906117869190612e6e565b6001600160a01b0316826001600160a01b031614156117da5760405162461bcd60e51b815260206004820152601060248201526f282223afa6a3a91ea322a2afa0a2222960811b604482015260640161033d565b6003546040516315a43f9760e21b81526001600160a01b038581166004830152848116602483015290911690635690fe5c90604401600060405180830381600087803b15801561182957600080fd5b505af115801561183d573d6000803e3d6000fd5b50506040516001600160a01b038086169350861691507ff01f09c22ebe02ec9883af31ca82196ca975ae335fdf11dd6ee6de4e2ae96b4690600090a3505050565b600354604051630e8aef6f60e41b81523360048201526000916001600160a01b03169063e8aef6f09060240160206040518083038186803b1580156118c257600080fd5b505afa1580156118d6573d6000803e3d6000fd5b505050506040513d601f19601f820116820180604052508101906118fa9190612e6e565b6001600160a01b0316148015611987575060035460405162e21c1f60e11b81523360048201526001600160a01b03909116906301c4383e9060240160206040518083038186803b15801561194d57600080fd5b505afa158015611961573d6000803e3d6000fd5b505050506040513d601f19601f820116820180604052508101906119859190613055565b155b6119c85760405162461bcd60e51b815260206004820152601260248201527153594e5f414c52454144595f45584953545360701b604482015260640161033d565b60035460405163f3ae241560e01b81523360048201526001600160a01b039091169063f3ae24159060240160206040518083038186803b158015611a0b57600080fd5b505afa158015611a1f573d6000803e3d6000fd5b505050506040513d601f19601f82011682018060405250810190611a439190613038565b15611a825760405162461bcd60e51b815260206004820152600f60248201526e29a2292fa0a62922a0a22cafa6a3a960891b604482015260640161033d565b60328a1015611ac25760405162461bcd60e51b815260206004820152600c60248201526b53594e5f4645453c302e352560a01b604482015260640161033d565b611ace8a6127106132cf565b8b1115611aed5760405162461bcd60e51b815260040161033d906131ef565b6001600160a01b038816611b305760405162461bcd60e51b815260206004820152600a60248201526904445505f414444523d360b41b604482015260640161033d565b85871115611b805760405162461bcd60e51b815260206004820152601760248201527f4d41585f4d42525f4445503c4d494e5f4d42525f444550000000000000000000604482015260640161033d565b84861115611bd05760405162461bcd60e51b815260206004820152601760248201527f4d41585f4d42525f4445503e4d41585f544f545f444550000000000000000000604482015260640161033d565b428411611c155760405162461bcd60e51b8152602060048201526013602482015272504153545f4e45575f434c4f53455f4441544560681b604482015260640161033d565b60035460405163e0d612f560e01b81523360048201819052602482015242916001600160a01b03169063e0d612f590604401600060405180830381600087803b158015611c6157600080fd5b505af1158015611c75573d6000803e3d6000fd5b50505050600360009054906101000a90046001600160a01b03166001600160a01b03166324664318338f6040518363ffffffff1660e01b8152600401611cbc9291906131a4565b600060405180830381600087803b158015611cd657600080fd5b505af1158015611cea573d6000803e3d6000fd5b50505050600360009054906101000a90046001600160a01b03166001600160a01b031663807e21e8338e6040518363ffffffff1660e01b8152600401611d319291906131a4565b600060405180830381600087803b158015611d4b57600080fd5b505af1158015611d5f573d6000803e3d6000fd5b5050600354604051633aee2ab360e21b81526001600160a01b03909116925063ebb8aacc9150611d959033908f906004016131a4565b600060405180830381600087803b158015611daf57600080fd5b505af1158015611dc3573d6000803e3d6000fd5b505060035460405163017977f760e51b81526001600160a01b039091169250632f2efee09150611df99033908e906004016131a4565b600060405180830381600087803b158015611e1357600080fd5b505af1158015611e27573d6000803e3d6000fd5b50506003546040516316846a4160e11b81523360048201526001600160a01b038d811660248301529091169250632d08d4829150604401600060405180830381600087803b158015611e7857600080fd5b505af1158015611e8c573d6000803e3d6000fd5b5050600354604051639ea0c2e560e01b81526001600160a01b039091169250639ea0c2e59150611ec29033908c906004016131a4565b600060405180830381600087803b158015611edc57600080fd5b505af1158015611ef0573d6000803e3d6000fd5b505060035460405163c372a54960e01b81526001600160a01b03909116925063c372a5499150611f269033908b906004016131a4565b600060405180830381600087803b158015611f4057600080fd5b505af1158015611f54573d6000803e3d6000fd5b505060035460405163aae0c9b560e01b81526001600160a01b03909116925063aae0c9b59150611f8a9033908a906004016131a4565b600060405180830381600087803b158015611fa457600080fd5b505af1158015611fb8573d6000803e3d6000fd5b50506003546040516001623a4e0960e11b031981526001600160a01b03909116925063ff8b63ee9150611ff190339085906004016131a4565b600060405180830381600087803b15801561200b57600080fd5b505af115801561201f573d6000803e3d6000fd5b505060035460405163b3e15a2360e01b81526001600160a01b03909116925063b3e15a23915061205590339089906004016131a4565b600060405180830381600087803b15801561206f57600080fd5b505af1158015612083573d6000803e3d6000fd5b50506003546040516362d8decf60e01b81526001600160a01b0390911692506362d8decf91506120ba903390600190600401613145565b600060405180830381600087803b1580156120d457600080fd5b505af11580156120e8573d6000803e3d6000fd5b50506003546040516365fc5f8b60e11b81526001600160a01b03909116925063cbf8bf16915061211f903390600090600401613145565b600060405180830381600087803b15801561213957600080fd5b505af115801561214d573d6000803e3d6000fd5b505060035460405163b50a24a960e01b81526001600160a01b03909116925063b50a24a991506121839033908890600401613145565b600060405180830381600087803b15801561219d57600080fd5b505af11580156121b1573d6000803e3d6000fd5b505060035460405163b1e315bf60e01b81526001600160a01b03909116925063b1e315bf91506121e79033908790600401613145565b600060405180830381600087803b15801561220157600080fd5b505af1158015612215573d6000803e3d6000fd5b5050600354604051630574647160e11b81526001600160a01b039091169250630ae8c8e2915061224b9033908690600401613145565b600060405180830381600087803b15801561226557600080fd5b505af1158015612279573d6000803e3d6000fd5b505060035460405163026767f960e41b81526001600160a01b0390911692506326767f9091506122b0903390600190600401613145565b600060405180830381600087803b1580156122ca57600080fd5b505af11580156122de573d6000803e3d6000fd5b50505050886001600160a01b0316336001600160a01b03167f3f85c219144c862548e6e7c8967d851a96e76e50889024561a9c192c76727ad18f8f8f8f8e8e8e8a8f8f8f8f6040516123909c9b9a999897969594939291909b8c5260208c019a909a5260408b019890985260608a0196909652608089019490945260a088019290925260c087015260e08601526101008501521515610120840152151561014083015215156101608201526101800190565b60405180910390a350505050505050505050505050565b816123b181612af2565b60328210156123f15760405162461bcd60e51b815260206004820152600c60248201526b53594e5f4645453c302e352560a01b604482015260640161033d565b6003546040516397cc677160e01b81526001600160a01b038581166004830152909116906397cc67719060240160206040518083038186803b15801561243657600080fd5b505afa15801561244a573d6000803e3d6000fd5b505050506040513d601f19601f8201168201806040525081019061246e9190613055565b61247a906127106132cf565b8211156124995760405162461bcd60e51b815260040161033d906131ef565b600354604051633aee2ab360e21b81526001600160a01b039091169063ebb8aacc906124cb90869086906004016131a4565b600060405180830381600087803b1580156124e557600080fd5b505af11580156124f9573d6000803e3d6000fd5b50505050826001600160a01b03167fce6d9e9631e7a1841f729c42bc0ab1c702459b475ff131d3fc552fa351ccb9638360405161253891815260200190565b60405180910390a2505050565b8261254f81612af2565b60035460405163deebf2eb60e01b81526001600160a01b0386811660048301529091169063deebf2eb9060240160206040518083038186803b15801561259457600080fd5b505afa1580156125a8573d6000803e3d6000fd5b505050506040513d601f19601f820116820180604052508101906125cc9190613055565b6125d8906127106132cf565b8211156125f75760405162461bcd60e51b815260040161033d906131ef565b60035460405163e32bf38d60e01b81526001600160a01b0386811660048301524292169063e32bf38d9060240160206040518083038186803b15801561263c57600080fd5b505afa158015612650573d6000803e3d6000fd5b505050506040513d601f19601f820116820180604052508101906126749190613055565b118061278357506003546040516377d5adcb60e11b81526001600160a01b0386811660048301529091169063efab5b969060240160206040518083038186803b1580156126c057600080fd5b505afa1580156126d4573d6000803e3d6000fd5b505050506040513d601f19601f820116820180604052508101906126f89190613055565b831115801561278357506003546040516397cc677160e01b81526001600160a01b038681166004830152909116906397cc67719060240160206040518083038186803b15801561274757600080fd5b505afa15801561275b573d6000803e3d6000fd5b505050506040513d601f19601f8201168201806040525081019061277f9190613055565b8211155b6127cf5760405162461bcd60e51b815260206004820152601f60248201527f4e45575f4645453e4f4c445f46454526504153545f434c4f53455f4441544500604482015260640161033d565b60035460405163048cc86360e31b81526001600160a01b039091169063246643189061280190879087906004016131a4565b600060405180830381600087803b15801561281b57600080fd5b505af115801561282f573d6000803e3d6000fd5b505060035460405163100fc43d60e31b81526001600160a01b03909116925063807e21e8915061286590879086906004016131a4565b600060405180830381600087803b15801561287f57600080fd5b505af1158015612893573d6000803e3d6000fd5b505060408051868152602081018690526001600160a01b03881693507f1876d0ddc5275826dba0e2ff9808abe75262b8622253bbfe11bb19f9dd34fd74925001610680565b6001546001600160a01b031633146129025760405162461bcd60e51b815260040161033d90613212565b6001600160a01b0381166129675760405162461bcd60e51b815260206004820152602660248201527f4f776e61626c653a206e6577206f776e657220697320746865207a65726f206160448201526564647265737360d01b606482015260840161033d565b6001546040516001600160a01b038084169216907f8be0079c531659141344cd1fd0a4f28419497f9722a3daafe3b4186f6b6457e090600090a3600180546001600160a01b0319166001600160a01b0392909216919091179055565b816129cd81612af2565b826129d781612bbd565b60035460405163017977f760e51b81526001600160a01b0390911690632f2efee090612a0990879087906004016131a4565b600060405180830381600087803b158015612a2357600080fd5b505af1158015612a37573d6000803e3d6000fd5b505060035460405163e396ae9b60e01b81526001600160a01b038881166004830181905294507f6ad2ae3bbf81051850ba9cce1fb1b8eafec49bad988dcb39b7c430c1502eb4d893508792169063e396ae9b9060240160206040518083038186803b158015612aa557600080fd5b505afa158015612ab9573d6000803e3d6000fd5b505050506040513d601f19601f82011682018060405250810190612add9190613055565b60408051928352602083019190915201610680565b600354604051630e8aef6f60e41b81526001600160a01b0383811660048301529091169063e8aef6f09060240160206040518083038186803b158015612b3757600080fd5b505afa158015612b4b573d6000803e3d6000fd5b505050506040513d601f19601f82011682018060405250810190612b6f9190612e6e565b6001600160a01b0316336001600160a01b0316146115045760405162461bcd60e51b815260206004820152600b60248201526a29a2292fa727aa2fa6a3a960a91b604482015260640161033d565b60035460405163172a8c1f60e31b81526001600160a01b0383811660048301529091169063b95460f89060240160206040518083038186803b158015612c0257600080fd5b505afa158015612c16573d6000803e3d6000fd5b505050506040513d601f19601f82011682018060405250810190612c3a9190613038565b6115045760405162461bcd60e51b815260206004820152600a60248201526914d65397d0d313d4d15160b21b604482015260640161033d565b60035460405163ad74c29960e01b81523060048201526001600160a01b039091169063ad74c2999060240160206040518083038186803b158015612cb657600080fd5b505afa158015612cca573d6000803e3d6000fd5b505050506040513d601f19601f82011682018060405250810190612cee9190613038565b610b125760405162461bcd60e51b81526020600482015260166024820152751253959053125117d313d1d250d7d0d3d395149050d560521b604482015260640161033d565b60035460405163172a8c1f60e31b81526001600160a01b0383811660048301529091169063b95460f89060240160206040518083038186803b158015612d7857600080fd5b505afa158015612d8c573d6000803e3d6000fd5b505050506040513d601f19601f82011682018060405250810190612db09190613038565b156115045760405162461bcd60e51b815260206004820152600860248201526729aca72fa7a822a760c11b604482015260640161033d565b60008083601f840112612dfa57600080fd5b50813567ffffffffffffffff811115612e1257600080fd5b6020830191508360208260051b8501011115612e2d57600080fd5b9250929050565b803560ff81168114612e4557600080fd5b919050565b600060208284031215612e5c57600080fd5b8135612e678161332d565b9392505050565b600060208284031215612e8057600080fd5b8151612e678161332d565b60008060408385031215612e9e57600080fd5b8235612ea98161332d565b91506020830135612eb98161332d565b809150509250929050565b600080600060608486031215612ed957600080fd5b8335612ee48161332d565b92506020840135612ef48161332d565b929592945050506040919091013590565b600080600080600060608688031215612f1d57600080fd5b8535612f288161332d565b9450602086013567ffffffffffffffff80821115612f4557600080fd5b612f5189838a01612de8565b90965094506040880135915080821115612f6a57600080fd5b50612f7788828901612de8565b969995985093965092949392505050565b60008060008060808587031215612f9e57600080fd5b8435612fa98161332d565b935060208501359250612fbe60408601612e34565b9150612fcc60608601612e34565b905092959194509250565b60008060408385031215612fea57600080fd5b8235612ff58161332d565b946020939093013593505050565b60008060006060848603121561301857600080fd5b83356130238161332d565b95602085013595506040909401359392505050565b60006020828403121561304a57600080fd5b8151612e6781613342565b60006020828403121561306757600080fd5b5051919050565b6000806000806000806000806000806000806101808d8f03121561309157600080fd5b8c359b5060208d01359a5060408d0135995060608d0135985060808d01356130b88161332d565b975060a08d0135965060c08d0135955060e08d013594506101008d013593506101208d01356130e681613342565b92506101408d01356130f781613342565b91506101608d013561310881613342565b809150509295989b509295989b509295989b565b81835281816020850137506000828201602090810191909152601f909101601f19169091010190565b6001600160a01b039290921682521515602082015260400190565b6001600160a01b0386168152606060208201819052600090613185908301868861311c565b828103604084015261319881858761311c565b98975050505050505050565b6001600160a01b03929092168252602082015260400190565b6040815260006131d160408301868861311c565b82810360208401526131e481858761311c565b979650505050505050565b602080825260099082015268464545533e3130302560b81b604082015260600190565b6020808252818101527f4f776e61626c653a2063616c6c6572206973206e6f7420746865206f776e6572604082015260600190565b6000808335601e1984360301811261325e57600080fd5b83018035915067ffffffffffffffff82111561327957600080fd5b602001915036819003821315612e2d57600080fd5b6000826132ab57634e487b7160e01b600052601260045260246000fd5b500490565b60008160001904831182151516156132ca576132ca613301565b500290565b6000828210156132e1576132e1613301565b500390565b60006000198214156132fa576132fa613301565b5060010190565b634e487b7160e01b600052601160045260246000fd5b634e487b7160e01b600052603260045260246000fd5b6001600160a01b038116811461150457600080fd5b801515811461150457600080fdfea2646970667358221220025d95cfb17523e7d72dccf2205bf747acb007b96261f6c61755eec144d185c264736f6c634300080600338be0079c531659141344cd1fd0a4f28419497f9722a3daafe3b4186f6b6457e0",
  "immutableReferences": {},
  "source": "// SPDX-License-Identifier: UNLICENSED\n\npragma solidity ^0.8.0;\n\nimport \"@openzeppelin/contracts/token/ERC20/utils/SafeERC20.sol\";\nimport \"./SyndicateClosedEndFundLogic.sol\";\n\n/// @author Syndicate Inc.\n/// @notice General syndicate manager controls\ncontract SyndicateClosedEndFundManagerLogicV0 is SyndicateClosedEndFundLogic {\n    using SafeERC20 for IERC20;\n\n    /// @notice Used to initialize the Syndicate contract.\n    constructor(address owner, address storeAddress)\n        SyndicateClosedEndFundLogic(owner, storeAddress)\n    {}\n\n    // Events-------------------------------------------------------------------\n\n    /// @notice A manager creates a Syndicate.\n    /// @dev This event can be used to list all Syndicates on the platform.\n    event SyndicateCreated(\n        address indexed syndicateAddress,\n        uint256 managerManagementFeeBasisPoints,\n        uint256 managerDistributionShareBasisPoints,\n        uint256 syndicateDistributionShareBasisPoints,\n        uint256 numMembersMax,\n        address indexed depositERC20Address,\n        uint256 depositMemberMin,\n        uint256 depositMemberMax,\n        uint256 depositTotalMax,\n        uint256 dateCreated,\n        uint256 dateClose,\n        bool modifiable,\n        bool allowlistEnabled,\n        bool transferable\n    );\n\n    /// @notice A manager nominates a new manager, setting them as pending.\n    event NewManagerNominated(\n        address indexed syndicateAddress,\n        address indexed managerPendingAddress\n    );\n\n    /// @notice A nominated/pending manager confirms management of the syndicate.\n    event NewManagerConfirmed(\n        address indexed syndicateAddress,\n        address indexed oldManager,\n        address indexed newManager\n    );\n\n    /// @notice A manager updates the manager fee address.\n    event ManagerFeeAddressUpdated(\n        address indexed syndicateAddress,\n        address indexed managerFeeAddress\n    );\n\n    /// @notice A manager updates their manager fees.\n    event ManagerFeesUpdated(\n        address indexed syndicateAddress,\n        uint256 managerManagementFeeBasisPoints,\n        uint256 managerDistributionShareBasisPoints\n    );\n\n    /// @notice A manager updates the Syndicate profit share.\n    event SyndicateDistributionShareUpdated(\n        address indexed syndicateAddress,\n        uint256 syndicateDistributionShareBasisPoints\n    );\n\n    /// @notice A manager assesses a management fee.\n    event ManagementFeeAssessed(\n        address indexed syndicateAddress,\n        uint256 managementFeeAmount\n    );\n\n    /// @notice A manager updates the maximum number of allowed members.\n    event NumMembersMaxUpdated(\n        address indexed syndicateAddress,\n        uint256 numMembersMax,\n        uint256 numMembersCurrent\n    );\n\n    /// @notice A manager updates the close date.\n    event DateCloseUpdated(address indexed syndicateAddress, uint256 dateClose);\n\n    /// @notice A manager closes a syndicate.\n    event SyndicateClosed(address indexed syndicateAddress);\n\n    /// @notice A manager creates or updates metadata for a syndicate.\n    event MetadataUpdated(\n        address indexed syndicateAddress,\n        string metadataKey,\n        string metadataValue\n    );\n\n    /// @notice A manager associates a memo with a syndicate.\n    /// @dev Memos emitted via this event are not stored in the syndicate.\n    /// Values that need to be stored should instead be passed to\n    /// `managerSetMetadata()`, which also emits the metadata as an event.\n    event MemoEmitted(\n        address indexed syndicateAddress,\n        address indexed managerCurrent,\n        bytes32 hexadecimalHash,\n        uint8 hashFunction,\n        uint8 hashSize\n    );\n\n    // Functions----------------------------------------------------------------\n\n    /// @notice Creates a Syndicate with the address of `msg.sender` and\n    /// initializes `msg.sender` as the Syndicate manager.\n    /// @param managerManagementFeeBasisPoints The manager fee assessed when the\n    /// manager calls `managerAssessManagementFee`. In the future, this will be\n    /// automatically assessed yearly. The fee amount must be entered in basis\n    /// points: for example, a management fee of 2% per year would be passed in\n    /// as 200 basis points because the fees are adjusted by\n    /// `BASIS_POINTS_DENOMINATOR`, which is set to 10000. This is displayed in\n    /// the UI as \"Expected Annual Operating Fees\" on the Create Syndicate page.\n    /// @param managerDistributionShareBasisPoints The portion of the Syndicate's\n    /// distributions that will be allocated to the manager. The fee amount must\n    /// be entered in basis points: for example, a distribution share of 20% of all\n    /// distributions would be passed in as 2000 basis points. This is\n    /// displayed in the UI as \"Performance Fee to Syndicate Lead\" on the\n    /// Create Syndicate page.\n    /// @param syndicateDistributionShareBasisPoints The portion of the\n    /// Syndicate's distributions that will be sent to the Syndicate treasury.\n    /// The fee amount must be entered in basis points: for example, the\n    /// minimum distribution share of 0.50% would be passed in as 50 basis\n    /// points.\n    /// @param numMembersMax The maximum number of members that can make\n    /// deposits to the Syndicate\n    /// @param depositERC20Address The address of the ERC20 contract tracking\n    /// deposits to the Syndicate. A stablecoin is strongly recommended--\n    /// especially for funds that are open for an extended period of\n    /// time--since this is used to calculate ownership, and fluctuations in\n    /// value can affect these ownership calculations.\n    /// @param depositMemberMin The minimum amount (of the deposit ERC20) that\n    /// a single address can deposit.\n    /// @param depositMemberMax The maximum amount (of the deposit ERC20) that\n    /// a single address can deposit.\n    /// @param depositTotalMax The maximum amount that can be deposited to the\n    /// Syndicate overall, e.g. an investment target.\n    /// @param dateClose The date at which the Syndicate is scheduled to stop\n    /// receiving deposits, in UNIX time. Will be updated to the actual close\n    /// date if the Syndicate is manually closed before this date is reached.\n    /// @param modifiable True if a manager can manually modify members'\n    /// deposit and distribution amounts. False if these values can only be\n    /// altered by the contract deposit and withdrawal functions.\n    /// A manager may wish to manually modify these values to reconcile\n    /// off-chain agreements (e.g. advisory shares, which do not have a deposit\n    /// associated with them) or to correct for user error (for example, a user\n    /// sends their deposit to the manager's wallet directly instead of using\n    /// the smart contract). This choice is permanent--once set at creation, it\n    /// cannot be changed.\n    /// True is recommended for smaller syndicates where every member trusts\n    /// the manager, or for cases where a Syndicate is used as a cap table to\n    /// track ownership agreements without necessarily exchanging deposits.\n    /// False is recommended for large Syndicates where the members may desire\n    /// more transparency, or if a smart contract is being used in place of a\n    /// manager's wallet and trustless operation is desired.\n    /// @param allowlistEnabled True if the Syndicate ONLY allows deposits\n    /// from allowed addresses. False if any (accredited) member can deposit.\n    /// @param transferable True if a member can initiate a transfer of all or\n    /// a portion of their deposit to another address before the Syndicate\n    /// begins distributing. Member-initiated transfers may have\n    /// regulatory concerns (e.g. by allowing a transfer to a non-accredited\n    /// investor), while manager-initiated transfers are safe for internal\n    /// bookkeeping purposes. A manager's ability to initiate a transfer is\n    /// determined by `modifiable` and is independent to `transferable`.\n    /// True is recommended for Syndicates that want to grant greater control\n    /// over holdings to its members.\n    /// False is recommended for Syndicates that are under external regulations\n    /// that make ownership transfers legally problematic and require manager\n    /// oversight.\n    /// @notice The `msg.sender` address calling `createSyndicate()`\n    /// becomes permanently associated with the Syndicate. Transferring\n    /// management of the Syndicate later will change the `managerCurrent` and\n    /// the address at which deposits are received, but will NOT change the\n    /// `syndicateAddress`, which permanently identifies the fund.\n    /// @notice Syndicate does **not** support tokens that rebalance (e.g.\n    /// Ampleforth). This is because Syndicate requires that the deposit token's\n    /// units are constant.\n    /// @notice For tokens that take fees, Syndicate uses the after-fee amounts\n    /// for recording deposits and the before-fee amounts for recording\n    /// withdrawals.\n    function createSyndicate(\n        uint256 managerManagementFeeBasisPoints,\n        uint256 managerDistributionShareBasisPoints,\n        uint256 syndicateDistributionShareBasisPoints,\n        uint256 numMembersMax,\n        address depositERC20Address,\n        uint256 depositMemberMin,\n        uint256 depositMemberMax,\n        uint256 depositTotalMax,\n        uint256 dateClose,\n        bool modifiable,\n        bool allowlistEnabled,\n        bool transferable\n    ) public {\n        // address(0) is the default value for an address in Solidity and 0 is\n        // the default value for a uint256 in Solidity. These values are\n        // overwritten when a Syndicate is created for the first time.\n        // Therefore, if these values have not been overwritten and are still\n        // address(0) and 0 respectively, the Syndicate has not yet been\n        // created.\n        // HIGH RISK: Without this line, a Syndicate can be overwritten and the\n        // deposits can be redirected\n        require(\n            store.managerCurrent(msg.sender) == address(0) &&\n                store.dateCreated(msg.sender) == 0,\n            \"SYN_ALREADY_EXISTS\"\n        );\n\n        // A manager can only manage one Syndicate total. If this value is true,\n        // they are already managing a Syndicate.\n        require(store.isManager(msg.sender) == false, \"SDR_ALREADY_MGR\");\n\n        // Check that the minimum distribution share (0.50%, or 50 basis points)\n        // to Syndicate Protocol is met\n        require(syndicateDistributionShareBasisPoints >= 50, \"SYN_FEE<0.5%\");\n\n        // Check that the maximum distribution share (99.5%, or 9950 basis points)\n        // to the manager is respected\n        require(\n            managerDistributionShareBasisPoints <=\n                BASIS_POINTS_DENOMINATOR -\n                    syndicateDistributionShareBasisPoints,\n            \"FEES>100%\"\n        );\n\n        // Make sure that a depositERC20Address is set, as it cannot be changed\n        // after Syndicate creation\n        require(depositERC20Address != address(0), \"DEP_ADDR=0\");\n\n        // Check that depositMemberMin <= depositMemberMax <= depositTotalMax\n        require(\n            depositMemberMin <= depositMemberMax,\n            \"MAX_MBR_DEP<MIN_MBR_DEP\"\n        );\n        require(depositMemberMax <= depositTotalMax, \"MAX_MBR_DEP>MAX_TOT_DEP\");\n\n        // Check that the dateClose is in the future\n        require(dateClose > block.timestamp, \"PAST_NEW_CLOSE_DATE\");\n\n        // We'll reuse this block.timestamp in both the syndicateValues struct\n        // and the event, so it's helpful to store it here for consistency\n        uint256 dateCreated = block.timestamp;\n\n        // Initialize applicable attributes in syndicateValues\n        store.setManagerCurrent(msg.sender, msg.sender);\n        store.setManagerManagementFeeBasisPoints(\n            msg.sender,\n            managerManagementFeeBasisPoints\n        );\n        store.setManagerDistributionShareBasisPoints(\n            msg.sender,\n            managerDistributionShareBasisPoints\n        );\n        store.setSyndicateDistributionShareBasisPoints(\n            msg.sender,\n            syndicateDistributionShareBasisPoints\n        );\n        store.setNumMembersMax(msg.sender, numMembersMax);\n        store.setDepositERC20Address(msg.sender, depositERC20Address);\n        store.setDepositMemberMin(msg.sender, depositMemberMin);\n        store.setDepositMemberMax(msg.sender, depositMemberMax);\n        store.setDepositTotalMax(msg.sender, depositTotalMax);\n        store.setDateCreated(msg.sender, dateCreated);\n        store.setDateClose(msg.sender, dateClose);\n        store.setOpen(msg.sender, true);\n        store.setDistributing(msg.sender, false);\n        store.setModifiable(msg.sender, modifiable);\n        store.setAllowlistEnabled(msg.sender, allowlistEnabled);\n        store.setTransferable(msg.sender, transferable);\n        store.setIsManager(msg.sender, true);\n\n        emit SyndicateCreated(\n            msg.sender,\n            managerManagementFeeBasisPoints,\n            managerDistributionShareBasisPoints,\n            syndicateDistributionShareBasisPoints,\n            numMembersMax,\n            depositERC20Address,\n            depositMemberMin,\n            depositMemberMax,\n            depositTotalMax,\n            dateCreated,\n            dateClose,\n            modifiable,\n            allowlistEnabled,\n            transferable\n        );\n    }\n\n    /// @notice Used by the current manager to nominate a new manager\n    /// @param syndicateAddress The address of the Syndicate\n    /// @param managerPendingAddress The address of the new manager\n    /// @notice The new manager will be pending until they call\n    /// `managerPendingConfirm()`. This ensures that they have control over\n    /// their wallet and actively agree to manage the fund.\n    /// @notice Changing a manager does not change the `syndicateAddress`. The\n    /// `syndicateAddress` is permanent but has no effect beyond acting as an\n    /// identifier.\n    /// @notice To reset a `managerPending` request, just set the\n    /// `managerPending` to be `address(0)`. This is the default value for all\n    /// addresses.\n    function managerSetManagerPending(\n        address syndicateAddress,\n        address managerPendingAddress\n    ) public onlyManager(syndicateAddress) {\n        // The current manager cannot set themselves as the pending manager.\n        // They already manage the Syndicate, so this action would be\n        // unnecessary\n        require(\n            store.managerCurrent(syndicateAddress) != managerPendingAddress,\n            \"ALREADY_MGR\"\n        );\n\n        // Every manager can only manage one Syndicate\n        require(\n            store.isManager(managerPendingAddress) == false,\n            \"PDG_MGR_ALREADY_MGR\"\n        );\n\n        // The manager must set a fee address that is different from the\n        // manager's address. This is to avoid commingling the Syndicate's\n        // assets with the manager's fees.\n        require(\n            managerPendingAddress != store.managerFeeAddress(syndicateAddress),\n            \"PDG_MGR=FEE_ADDR\"\n        );\n\n        store.setManagerPending(syndicateAddress, managerPendingAddress);\n\n        emit NewManagerNominated(syndicateAddress, managerPendingAddress);\n    }\n\n    /// @notice This is a helper function that can be used by a pending manager\n    /// to simultaneously confirm management of a Syndicate and update the\n    /// manager fee address. This ensures that there is no gap in setting a new\n    /// fee address after taking ownership of a Syndicate.\n    /// @param syndicateAddress The address of the Syndicate.\n    /// @param managerFeeAddress The address where manager fees should be sent.\n    function managerPendingConfirmAndSetManagerFeeAddress(\n        address syndicateAddress,\n        address managerFeeAddress\n    ) public {\n        // Will fail if `msg.sender` is not the `managerPending` of the\n        // Syndicate\n        managerPendingConfirm(syndicateAddress);\n        // `managerSetManagerFeeAddress()` has a `onlyManager()`\n        // modifier so this will fail if `msg.sender` was not made the\n        // `managerCurrent` in the previous step.\n        managerSetManagerFeeAddress(syndicateAddress, managerFeeAddress);\n    }\n\n    /// @notice Used by the pending manager to claim current manager status\n    /// @param syndicateAddress The address of the Syndicate\n    /// @notice The pending manager is identified by `msg.sender`, which proves\n    /// that they have control over their address\n    /// @notice Changing a manager does not change the syndicateAddress. The\n    /// syndicateAddress is permanent but has no effect beyond acting as an\n    /// identifier.\n    function managerPendingConfirm(address syndicateAddress) public {\n        // Local variables with a value type (like addresses) are stored in\n        // memory. We don't need to (and in fact, cannot) specify this\n        // explicitly for addresses\n        address oldCurrentManager = store.managerCurrent(syndicateAddress);\n        address newCurrentManager = store.managerPending(syndicateAddress);\n\n        // HIGH RISK: Without this line, anyone could steal a Syndicate from a\n        // managerPending\n        require(msg.sender == newCurrentManager, \"SDR_NOT_PDG_MGR\");\n\n        // These checks were already performed when the managerPending was\n        // nominated, but it's worth ensuring that they still hold (a\n        // managerPending could have been eligible at nomination, but may have\n        // become the manager of another Syndicate before confirmation, for\n        // example).\n        require(store.isManager(newCurrentManager) == false, \"ALREADY_MGR\");\n        require(\n            msg.sender != store.managerFeeAddress(syndicateAddress),\n            \"PDG_MGR=FEE_ADDR\"\n        );\n\n        // If the `managerPending` made deposits to the Syndicate previously,\n        // they must withdraw all of their funds before they become the manager.\n        // `managerCurrent` is blocked from accessing `memberDeposit()`\n        // and `memberWithdraw()` to prevent modification of ownership\n        // stakes without transferring capital.\n        require(\n            store.depositMember(syndicateAddress, msg.sender) == 0,\n            \"PDG_MGR_HAS_DEP\"\n        );\n\n        // We confirm the manager as `syndicateValues[syndicateAddress].\n        // managerPending` (stored as `newCurrentManager`) instead of\n        // `msg.sender` in order to prevent the fund being stolen by\n        // `msg.sender` in the case that our checks above were insufficient.\n        store.setManagerCurrent(syndicateAddress, newCurrentManager);\n        store.setIsManager(newCurrentManager, true);\n\n        // Cleanup/bookkeeping: reset the `managerPending` value and remove the\n        // old manager from the current manager list\n        store.setManagerPending(syndicateAddress, address(0));\n        store.setIsManager(oldCurrentManager, false);\n\n        emit NewManagerConfirmed(\n            syndicateAddress,\n            oldCurrentManager,\n            newCurrentManager\n        );\n    }\n\n    /// @notice Used by a manager to set the address where fees should be sent\n    /// @param syndicateAddress The address of the Syndicate\n    /// @param managerFeeAddress The address where manager fees should be sent.\n    /// This cannot be the current or pending Syndicate manager\n    function managerSetManagerFeeAddress(\n        address syndicateAddress,\n        address managerFeeAddress\n    ) public onlyManager(syndicateAddress) {\n        // The fee address cannot be 0.\n        require(managerFeeAddress != address(0), \"FEE_ADDR_NOT_SET\");\n\n        // The manager must set a fee address that is different from the\n        // manager's address. This is to avoid commingling the Syndicate's\n        // assets with the manager's fees.\n        require(\n            managerFeeAddress != store.managerCurrent(syndicateAddress),\n            \"FEE_ADDR=MGR\"\n        );\n        require(\n            managerFeeAddress != store.managerPending(syndicateAddress),\n            \"FEE_ADDR=PDG_MGR\"\n        );\n        store.setManagerFeeAddress(syndicateAddress, managerFeeAddress);\n        emit ManagerFeeAddressUpdated(syndicateAddress, managerFeeAddress);\n    }\n\n    /// @notice Used by a manager to set their management and distribution shares\n    /// @param syndicateAddress The address of the Syndicate to set fees for\n    /// @param managerManagementFeeBasisPoints The management fee of a Syndicate\n    /// manager, received when the manager calls `managerAssessManagementFee`.\n    /// In the future, this will be automatically assessed yearly. The fee\n    /// amount must be passed in basis points: for example, a management fee of\n    /// 2% per year would be passed in as 200 basis points because the fees are\n    /// adjusted by BASIS_POINTS_DENOMINATOR, which is set to 10000.\n    /// @param managerDistributionShareBasisPoints The percentage of the\n    /// Syndicate's distributions that will be allocated to the manager. The\n    /// fee amount must be entered in basis points: for example, a performance\n    /// fee of 20% of all distributions would be passed in as 2000 basis\n    /// points.\n    /// @notice Basis points are fractional units of `store.\n    /// BASIS_POINTS_DENOMINATOR()` (set to 10000). This means that the max\n    /// precision of any distribution share is 0.01% (1 basis point).\n    /// @notice A standard structure would be a 2% management fee (200\n    /// basis points) and a 20% distribution share (2000 basis points). For more\n    /// info, see https://www.investopedia.com/terms/t/two_and_twenty.asp\n    /// @notice Manager fee INCREASES are only accepted while the Syndicate is\n    /// open; after the Syndicate is closed, fees can only be decreased. This\n    /// is to prevent managers from changing fees on members without giving\n    /// them recourse to act on those fee changes (i.e. the opportunity to\n    /// revoke their deposit).\n    /// @dev In the future, we will include a timelock on all changes to raise\n    /// fees. Since the current architecture requires trust in a manager because\n    /// the manager holds the funds, this risk is one that we are willing to\n    /// accept in the short-term.\n    /// @dev For the current version of this contract, the management fee must\n    /// be assessed manually by `managerAssessManagementFee()`. In\n    /// the future, the management fee will be automatically assessed yearly\n    /// (or another specified time interval) at the rate specified by\n    /// `managerManagementFeeBasisPoints` once we support asset management via\n    /// smart contracts.\n    function managerSetManagerFees(\n        address syndicateAddress,\n        uint256 managerManagementFeeBasisPoints,\n        uint256 managerDistributionShareBasisPoints\n    ) public onlyManager(syndicateAddress) {\n        // Check that the maximum distribution share (99.5%, or 9950 basis points)\n        // to the manager is respected\n        require(\n            managerDistributionShareBasisPoints <=\n                BASIS_POINTS_DENOMINATOR -\n                    store.syndicateDistributionShareBasisPoints(\n                        syndicateAddress\n                    ),\n            \"FEES>100%\"\n        );\n\n        // If either of the fees is being increased, the Syndicate must still\n        // be open.\n        require(\n            store.dateClose(syndicateAddress) > block.timestamp ||\n                (managerManagementFeeBasisPoints <=\n                    store.managerManagementFeeBasisPoints(syndicateAddress) &&\n                    managerDistributionShareBasisPoints <=\n                    store.managerDistributionShareBasisPoints(syndicateAddress)),\n            \"NEW_FEE>OLD_FEE&PAST_CLOSE_DATE\"\n        );\n\n        store.setManagerManagementFeeBasisPoints(\n            syndicateAddress,\n            managerManagementFeeBasisPoints\n        );\n        store.setManagerDistributionShareBasisPoints(\n            syndicateAddress,\n            managerDistributionShareBasisPoints\n        );\n\n        emit ManagerFeesUpdated(\n            syndicateAddress,\n            managerManagementFeeBasisPoints,\n            managerDistributionShareBasisPoints\n        );\n    }\n\n    /// @notice Used by a manager to set Syndicate's distribution share\n    /// @param syndicateAddress The address of the Syndicate to set fees for\n    /// @param syndicateDistributionShareBasisPoints The distributino share that\n    /// is sent to the Syndicate treasury. All distribution shares are entered in\n    ///  basis points, or fractional units of the BASIS_POINTS_DENOMINATOR (set\n    /// to 10000). For example, the minimum distribution share of 0.50% should be\n    /// passed in as 50 basis points (since it is 0.50% * 10000). This means that\n    /// the max precision is 0.01% (1 basis point).\n    /// @notice The Syndicate distribution share must be at least 0.50% (50 basis\n    /// points) and at most 100% (10000 basis points) - the manager's\n    /// distribution share.\n    function managerSetSyndicateDistributionShare(\n        address syndicateAddress,\n        uint256 syndicateDistributionShareBasisPoints\n    ) public onlyManager(syndicateAddress) {\n        // Check that the minimum distribution share (0.50%, or 50 basis points)\n        // to Syndicate Protocol is met\n        require(syndicateDistributionShareBasisPoints >= 50, \"SYN_FEE<0.5%\");\n\n        // Check that the distribution share to Syndicate + the performance\n        // fee to the manager does not exceed 100%, i.e. 10000 basis points\n        require(\n            syndicateDistributionShareBasisPoints <=\n                BASIS_POINTS_DENOMINATOR -\n                    store.managerDistributionShareBasisPoints(syndicateAddress),\n            \"FEES>100%\"\n        );\n\n        store.setSyndicateDistributionShareBasisPoints(\n            syndicateAddress,\n            syndicateDistributionShareBasisPoints\n        );\n\n        emit SyndicateDistributionShareUpdated(\n            syndicateAddress,\n            syndicateDistributionShareBasisPoints\n        );\n    }\n\n    /// @notice Used by a manager to assess a management fee. This can be used\n    /// to compensate a manager (in addition to the distribution share, which is\n    /// triggered automatically) or to pay expenses for a Syndicate.\n    /// @param syndicateAddress The address of the Syndicate\n    /// @param amount The management fee that should be deducted\n    /// from the Syndicate's holdings of the specified token. Note that this\n    /// management fee is a specific amount, not a percentage.\n    /// @dev This function is purely for transparency. A manager could also\n    /// assess a management fee by transferring assets directly from the\n    /// manager's wallet to the management fee address, but that can be seen as\n    /// less transparent because no event is emitted via the Syndicate contract.\n    /// @dev This management fee currently does **not** leverage\n    /// `managerManagementFeeBasisPoints` in any way. For now, the manager\n    /// should calculate and assess the management fee manually based on their\n    /// agreement with members. In the future, once we have asset management\n    /// built into our contract, we can assess management fees automatically\n    /// every year (or other specified time interval).\n    /// @dev Assessed management fees are not stored in the contract and should\n    /// instead be reconstructed from the events\n    function managerAssessManagementFee(\n        address syndicateAddress,\n        address feeERC20Address,\n        uint256 amount\n    )\n        public\n        onlyLogicContractAllowed()\n        onlyManager(syndicateAddress)\n        onlyClosed(syndicateAddress)\n    {\n        // The manager cannot assess a management fee of 0\n        require(amount > 0, \"FEE<=0\");\n\n        // The manager fee address must be set prior to assessing a management fee\n        require(\n            store.managerFeeAddress(syndicateAddress) != address(0),\n            \"FEE_ADDR_NOT_SET\"\n        );\n\n        uint256 amountToSyndicate = (amount *\n            store.syndicateDistributionShareBasisPoints(syndicateAddress)) /\n            BASIS_POINTS_DENOMINATOR;\n\n        uint256 amountToManager = amount - amountToSyndicate;\n\n        IERC20 feeERC20 = IERC20(feeERC20Address);\n\n        // Syndicate Protocol should get paid first, then the manager. If the\n        // manager wants to get paid, they need to set a proper allowance and\n        // not let the first transfer fail. Note that if any one transfer\n        // reverts, the entire transaction will safely revert. This ordering\n        // just accounts for ERC-20s that might have used a custom\n        // implementation and not revert upon a `transferFrom()` that exceeds\n        // the balance or the allowance.\n        // HIGH RISK: If we did not use `msg.sender`, this function could be\n        // used to divert funds to users other than the manager. Because the\n        // `onlyManager()` modifier is used, `msg.sender` will\n        // always be the `managerCurrent`. If we referenced the managerCurrent\n        // here instead of the `msg.sender`, then a user who managed to assign\n        // someone else as the `managerCurrent` could steal funds from them.\n        // While this should be impossible because of the claim process for\n        // pending managers, referencing `msg.sender` instead provides a second\n        // line of defense as an attacker can then only send funds from\n        // themselves to the manager fee address.\n\n        // We don't need a return statement on `transferFrom()`. From the\n        // SafeERC20 documentation at https://github.com/OpenZeppelin/openzeppelin-contracts-upgradeable/blob/master/contracts/token/ERC20/utils/SafeERC20Upgradeable.sol\n        // Wrappers around ERC20 operations that throw on failure (when the\n        // token contract returns false). Tokens that return no value (and\n        // instead revert or throw on failure) are also supported, non-reverting\n        // calls are assumed to be successful.\n        feeERC20.transferFrom(\n            store.managerCurrent(syndicateAddress),\n            getSyndicateFeeAddress(),\n            amountToSyndicate\n        );\n        feeERC20.transferFrom(\n            msg.sender,\n            store.managerFeeAddress(syndicateAddress),\n            amountToManager\n        );\n        emit ManagementFeeAssessed(syndicateAddress, amount);\n    }\n\n    /// @notice Set the maximum members that can contribute to the Syndicate\n    /// @param syndicateAddress The address of the Syndicate\n    /// @param numMembersMax The maximum number of members\n    function managerSetNumMembersMax(\n        address syndicateAddress,\n        uint256 numMembersMax\n    ) public onlyManager(syndicateAddress) onlyOpen(syndicateAddress) {\n        store.setNumMembersMax(syndicateAddress, numMembersMax);\n\n        emit NumMembersMaxUpdated(\n            syndicateAddress,\n            numMembersMax,\n            store.numMembersCurrent(syndicateAddress)\n        );\n    }\n\n    /// @notice This is a helper function that can be used by a manager to\n    /// freeze deposits from new members (allowing only supplemental deposits\n    /// from current members) while allowing replacements if existing members\n    /// drop out.\n    /// @param syndicateAddress The address of the Syndicate\n    function managerSetNumMembersMaxToCurrent(address syndicateAddress)\n        public\n        onlyManager(syndicateAddress)\n        onlyOpen(syndicateAddress)\n    {\n        managerSetNumMembersMax(\n            syndicateAddress,\n            store.numMembersCurrent(syndicateAddress)\n        );\n    }\n\n    /// @notice Used by a manager to change the close date of a Syndicate.\n    /// @param syndicateAddress The address of the Syndicate\n    /// @param dateClose The new close date, which must be in the future.\n    /// @notice After `dateClose`, member deposits and withdrawals are\n    /// disabled, but the manager can still reject member deposits or override\n    /// member deposits (in the case of a modifiable Syndicate). However,\n    /// distributions cannot be claimed until the Syndicate is closed by a call\n    /// to `managerCloseSyndicate()`.\n    /// @notice Until the manager closes the Syndicate to enable distributions,\n    /// `dateClose` can be pushed into the future, which will reallow member\n    /// deposits and withdrawals.\n    function managerSetDateClose(address syndicateAddress, uint256 dateClose)\n        public\n        onlyManager(syndicateAddress)\n        onlyOpen(syndicateAddress)\n    {\n        // Check that the dateClose is in the future\n        require(dateClose > block.timestamp, \"PAST_NEW_CLOSE_DATE\");\n\n        store.setDateClose(syndicateAddress, dateClose);\n\n        emit DateCloseUpdated(syndicateAddress, dateClose);\n    }\n\n    /// @notice Used by a manager to close a Syndicate to new deposits.\n    /// @param syndicateAddress The address of the Syndicate\n    /// @notice A Syndicate must be closed before distributions can be enabled.\n    /// Further, once a Syndicate is closed, it cannot be opened again. This is\n    /// to prevent issues with redeeming distributions interacting with new\n    /// deposits (e.g. a user with a 10% stake performs a withdrawal, and then\n    /// a deposit occurs that dilutes them down to a 1% stake. From that point\n    /// onward, they would only be entitled to 1% of the distributions).\n    /// @dev Closing a Syndicate updates the dateClose to `block.timestamp`.\n    /// This can be used for calculating management fees or determining how\n    /// long the Syndicate has been in distribution.\n    function managerCloseSyndicate(address syndicateAddress)\n        public\n        onlyLogicContractAllowed()\n        onlyManager(syndicateAddress)\n        onlyOpen(syndicateAddress)\n    {\n        // This is the ONLY function that should EVER call `setOpen`!\n        store.setOpen(syndicateAddress, false);\n\n        // Update the dateClose timestamp.\n        store.setDateClose(syndicateAddress, block.timestamp);\n\n        emit SyndicateClosed(syndicateAddress);\n    }\n\n    /// @notice Used by a manager to store values within the struct\n    /// @param metadataKeys The array of keys to store and access the metadata\n    /// @param metadataValues The arrays of values for metadata to be set\n    /// @notice The index of each key must be the same as the index of each\n    /// value\n    function managerSetMetadata(\n        address syndicateAddress,\n        string[] calldata metadataKeys,\n        string[] calldata metadataValues\n    ) public onlyManager(syndicateAddress) {\n        // Both passed-in arrays must have the same length\n        require(\n            metadataKeys.length == metadataValues.length,\n            \"ARRAY_LENGTHS_DIFFER\"\n        );\n\n        for (uint256 i = 0; i < metadataKeys.length; i++) {\n            store.setMetadata(\n                syndicateAddress,\n                metadataKeys[i],\n                metadataValues[i]\n            );\n\n            emit MetadataUpdated(\n                syndicateAddress,\n                metadataKeys[i],\n                metadataValues[i]\n            );\n        }\n    }\n\n    /// @notice Emit an event that references a memo stored as 64 byte hash.\n    /// @param syndicateAddress The address of the Syndicate\n    /// @param hexadecimalHash Hexadecimal hash\n    /// @param hashFunction The hash function being used ie 0x20, 256-bits long\n    /// @param hashSize The hash size being used in our case 32 bytes\n    /// @notice IPFS is recommended.\n    /// Opted for the `SHA256` hash.\n    /// @notice This can be used to store a fund thesis or describe a\n    /// transaction that a fund manager made in their wallet. This provides\n    /// transparency by notifying members of transactions and allowing them to\n    /// verify the proper use of funds.\n    /// @dev While testing pre-pend 0x on the first of the hash.\n    /// That's because the value has to be 32 bytes long in the new layout, like:\n    /// 0x6c00000000000000000000000000000000000000000000000000000000000000\n    /// For More info see\n    /// https://ethereum.stackexchange.com/questions/17094/how-to-store-ipfs-hash-using-bytes32\n    function managerEmitMemo(\n        address syndicateAddress,\n        bytes32 hexadecimalHash,\n        uint8 hashFunction,\n        uint8 hashSize\n    ) public onlyManager(syndicateAddress) {\n        emit MemoEmitted(\n            syndicateAddress,\n            msg.sender,\n            hexadecimalHash,\n            hashFunction,\n            hashSize\n        );\n    }\n}\n",
  "sourcePath": "/Users/connerswenberg/Code/syndicate/Syndicate/contracts/SyndicateClosedEndFundManagerLogicV0.sol",
  "compiler": {
    "name": "solc",
    "version": "0.8.6+commit.11564f7e.Emscripten.clang"
  },
  "schemaVersion": "3.4.1",
  "updatedAt": "2021-07-10T09:49:38.561Z",
  "networkType": "ethereum",
  "devdoc": {
    "author": "Syndicate Inc.",
    "events": {
      "MemoEmitted(address,address,bytes32,uint8,uint8)": {
        "details": "Memos emitted via this event are not stored in the syndicate. Values that need to be stored should instead be passed to `managerSetMetadata()`, which also emits the metadata as an event."
      },
      "SyndicateCreated(address,uint256,uint256,uint256,uint256,address,uint256,uint256,uint256,uint256,uint256,bool,bool,bool)": {
        "details": "This event can be used to list all Syndicates on the platform."
      }
    },
    "kind": "dev",
    "methods": {
      "createSyndicate(uint256,uint256,uint256,uint256,address,uint256,uint256,uint256,uint256,bool,bool,bool)": {
        "params": {
          "allowlistEnabled": "True if the Syndicate ONLY allows deposits from allowed addresses. False if any (accredited) member can deposit.",
          "dateClose": "The date at which the Syndicate is scheduled to stop receiving deposits, in UNIX time. Will be updated to the actual close date if the Syndicate is manually closed before this date is reached.",
          "depositERC20Address": "The address of the ERC20 contract tracking deposits to the Syndicate. A stablecoin is strongly recommended-- especially for funds that are open for an extended period of time--since this is used to calculate ownership, and fluctuations in value can affect these ownership calculations.",
          "depositMemberMax": "The maximum amount (of the deposit ERC20) that a single address can deposit.",
          "depositMemberMin": "The minimum amount (of the deposit ERC20) that a single address can deposit.",
          "depositTotalMax": "The maximum amount that can be deposited to the Syndicate overall, e.g. an investment target.",
          "managerDistributionShareBasisPoints": "The portion of the Syndicate's distributions that will be allocated to the manager. The fee amount must be entered in basis points: for example, a distribution share of 20% of all distributions would be passed in as 2000 basis points. This is displayed in the UI as \"Performance Fee to Syndicate Lead\" on the Create Syndicate page.",
          "managerManagementFeeBasisPoints": "The manager fee assessed when the manager calls `managerAssessManagementFee`. In the future, this will be automatically assessed yearly. The fee amount must be entered in basis points: for example, a management fee of 2% per year would be passed in as 200 basis points because the fees are adjusted by `BASIS_POINTS_DENOMINATOR`, which is set to 10000. This is displayed in the UI as \"Expected Annual Operating Fees\" on the Create Syndicate page.",
          "modifiable": "True if a manager can manually modify members' deposit and distribution amounts. False if these values can only be altered by the contract deposit and withdrawal functions. A manager may wish to manually modify these values to reconcile off-chain agreements (e.g. advisory shares, which do not have a deposit associated with them) or to correct for user error (for example, a user sends their deposit to the manager's wallet directly instead of using the smart contract). This choice is permanent--once set at creation, it cannot be changed. True is recommended for smaller syndicates where every member trusts the manager, or for cases where a Syndicate is used as a cap table to track ownership agreements without necessarily exchanging deposits. False is recommended for large Syndicates where the members may desire more transparency, or if a smart contract is being used in place of a manager's wallet and trustless operation is desired.",
          "numMembersMax": "The maximum number of members that can make deposits to the Syndicate",
          "syndicateDistributionShareBasisPoints": "The portion of the Syndicate's distributions that will be sent to the Syndicate treasury. The fee amount must be entered in basis points: for example, the minimum distribution share of 0.50% would be passed in as 50 basis points.",
          "transferable": "True if a member can initiate a transfer of all or a portion of their deposit to another address before the Syndicate begins distributing. Member-initiated transfers may have regulatory concerns (e.g. by allowing a transfer to a non-accredited investor), while manager-initiated transfers are safe for internal bookkeeping purposes. A manager's ability to initiate a transfer is determined by `modifiable` and is independent to `transferable`. True is recommended for Syndicates that want to grant greater control over holdings to its members. False is recommended for Syndicates that are under external regulations that make ownership transfers legally problematic and require manager oversight."
        }
      },
      "getSyndicateFeeAddress()": {
        "details": "This function is needed to allow inheriting contracts to only be able to view but not change syndicateFeeAddress without going through ownerSetSyndicateFeeAddress"
      },
      "managerAssessManagementFee(address,address,uint256)": {
        "details": "This function is purely for transparency. A manager could also assess a management fee by transferring assets directly from the manager's wallet to the management fee address, but that can be seen as less transparent because no event is emitted via the Syndicate contract.This management fee currently does **not** leverage `managerManagementFeeBasisPoints` in any way. For now, the manager should calculate and assess the management fee manually based on their agreement with members. In the future, once we have asset management built into our contract, we can assess management fees automatically every year (or other specified time interval).Assessed management fees are not stored in the contract and should instead be reconstructed from the events",
        "params": {
          "amount": "The management fee that should be deducted from the Syndicate's holdings of the specified token. Note that this management fee is a specific amount, not a percentage.",
          "syndicateAddress": "The address of the Syndicate"
        }
      },
      "managerCloseSyndicate(address)": {
        "details": "Closing a Syndicate updates the dateClose to `block.timestamp`. This can be used for calculating management fees or determining how long the Syndicate has been in distribution.",
        "params": {
          "syndicateAddress": "The address of the Syndicate"
        }
      },
      "managerEmitMemo(address,bytes32,uint8,uint8)": {
        "details": "While testing pre-pend 0x on the first of the hash. That's because the value has to be 32 bytes long in the new layout, like: 0x6c00000000000000000000000000000000000000000000000000000000000000 For More info see https://ethereum.stackexchange.com/questions/17094/how-to-store-ipfs-hash-using-bytes32",
        "params": {
          "hashFunction": "The hash function being used ie 0x20, 256-bits long",
          "hashSize": "The hash size being used in our case 32 bytes",
          "hexadecimalHash": "Hexadecimal hash",
          "syndicateAddress": "The address of the Syndicate"
        }
      },
      "managerPendingConfirm(address)": {
        "params": {
          "syndicateAddress": "The address of the Syndicate"
        }
      },
      "managerPendingConfirmAndSetManagerFeeAddress(address,address)": {
        "params": {
          "managerFeeAddress": "The address where manager fees should be sent.",
          "syndicateAddress": "The address of the Syndicate."
        }
      },
      "managerSetDateClose(address,uint256)": {
        "params": {
          "dateClose": "The new close date, which must be in the future.",
          "syndicateAddress": "The address of the Syndicate"
        }
      },
      "managerSetManagerFeeAddress(address,address)": {
        "params": {
          "managerFeeAddress": "The address where manager fees should be sent. This cannot be the current or pending Syndicate manager",
          "syndicateAddress": "The address of the Syndicate"
        }
      },
      "managerSetManagerFees(address,uint256,uint256)": {
        "details": "In the future, we will include a timelock on all changes to raise fees. Since the current architecture requires trust in a manager because the manager holds the funds, this risk is one that we are willing to accept in the short-term.For the current version of this contract, the management fee must be assessed manually by `managerAssessManagementFee()`. In the future, the management fee will be automatically assessed yearly (or another specified time interval) at the rate specified by `managerManagementFeeBasisPoints` once we support asset management via smart contracts.",
        "params": {
          "managerDistributionShareBasisPoints": "The percentage of the Syndicate's distributions that will be allocated to the manager. The fee amount must be entered in basis points: for example, a performance fee of 20% of all distributions would be passed in as 2000 basis points.",
          "managerManagementFeeBasisPoints": "The management fee of a Syndicate manager, received when the manager calls `managerAssessManagementFee`. In the future, this will be automatically assessed yearly. The fee amount must be passed in basis points: for example, a management fee of 2% per year would be passed in as 200 basis points because the fees are adjusted by BASIS_POINTS_DENOMINATOR, which is set to 10000.",
          "syndicateAddress": "The address of the Syndicate to set fees for"
        }
      },
      "managerSetManagerPending(address,address)": {
        "params": {
          "managerPendingAddress": "The address of the new manager",
          "syndicateAddress": "The address of the Syndicate"
        }
      },
      "managerSetMetadata(address,string[],string[])": {
        "params": {
          "metadataKeys": "The array of keys to store and access the metadata",
          "metadataValues": "The arrays of values for metadata to be set"
        }
      },
      "managerSetNumMembersMax(address,uint256)": {
        "params": {
          "numMembersMax": "The maximum number of members",
          "syndicateAddress": "The address of the Syndicate"
        }
      },
      "managerSetNumMembersMaxToCurrent(address)": {
        "params": {
          "syndicateAddress": "The address of the Syndicate"
        }
      },
      "managerSetSyndicateDistributionShare(address,uint256)": {
        "params": {
          "syndicateAddress": "The address of the Syndicate to set fees for",
          "syndicateDistributionShareBasisPoints": "The distributino share that is sent to the Syndicate treasury. All distribution shares are entered in  basis points, or fractional units of the BASIS_POINTS_DENOMINATOR (set to 10000). For example, the minimum distribution share of 0.50% should be passed in as 50 basis points (since it is 0.50% * 10000). This means that the max precision is 0.01% (1 basis point)."
        }
      },
      "owner()": {
        "details": "Returns the address of the current owner."
      },
      "ownerSetSyndicateFeeAddress(address)": {
        "params": {
          "feeAddress": "The owner's new contract fee address"
        }
      },
      "ownerTransferOwnership(address)": {
        "params": {
          "newOwner": "The new owner's address."
        }
      },
      "renounceOwnership()": {
        "details": "Leaves the contract without owner. It will not be possible to call `onlyOwner` functions anymore. Can only be called by the current owner. NOTE: Renouncing ownership will leave the contract without an owner, thereby removing any functionality that is only available to the owner."
      },
      "transferOwnership(address)": {
        "details": "Transfers ownership of the contract to a new account (`newOwner`). Can only be called by the current owner."
      }
    },
    "version": 1
  },
  "userdoc": {
    "events": {
      "DateCloseUpdated(address,uint256)": {
        "notice": "A manager updates the close date."
      },
      "ManagementFeeAssessed(address,uint256)": {
        "notice": "A manager assesses a management fee."
      },
      "ManagerFeeAddressUpdated(address,address)": {
        "notice": "A manager updates the manager fee address."
      },
      "ManagerFeesUpdated(address,uint256,uint256)": {
        "notice": "A manager updates their manager fees."
      },
      "MemoEmitted(address,address,bytes32,uint8,uint8)": {
        "notice": "A manager associates a memo with a syndicate."
      },
      "MetadataUpdated(address,string,string)": {
        "notice": "A manager creates or updates metadata for a syndicate."
      },
      "NewManagerConfirmed(address,address,address)": {
        "notice": "A nominated/pending manager confirms management of the syndicate."
      },
      "NewManagerNominated(address,address)": {
        "notice": "A manager nominates a new manager, setting them as pending."
      },
      "NumMembersMaxUpdated(address,uint256,uint256)": {
        "notice": "A manager updates the maximum number of allowed members."
      },
      "SyndicateClosed(address)": {
        "notice": "A manager closes a syndicate."
      },
      "SyndicateCreated(address,uint256,uint256,uint256,uint256,address,uint256,uint256,uint256,uint256,uint256,bool,bool,bool)": {
        "notice": "A manager creates a Syndicate."
      },
      "SyndicateDistributionShareUpdated(address,uint256)": {
        "notice": "A manager updates the Syndicate profit share."
      },
      "SyndicateFeeAddressUpdated(address)": {
        "notice": "The owner updates the contract fee address."
      }
    },
    "kind": "user",
    "methods": {
      "constructor": {
        "notice": "Used to initialize the Syndicate contract."
      },
      "createSyndicate(uint256,uint256,uint256,uint256,address,uint256,uint256,uint256,uint256,bool,bool,bool)": {
        "notice": "Creates a Syndicate with the address of `msg.sender` and initializes `msg.sender` as the Syndicate manager.The `msg.sender` address calling `createSyndicate()` becomes permanently associated with the Syndicate. Transferring management of the Syndicate later will change the `managerCurrent` and the address at which deposits are received, but will NOT change the `syndicateAddress`, which permanently identifies the fund.Syndicate does **not** support tokens that rebalance (e.g. Ampleforth). This is because Syndicate requires that the deposit token's units are constant.For tokens that take fees, Syndicate uses the after-fee amounts for recording deposits and the before-fee amounts for recording withdrawals."
      },
      "getSyndicateFeeAddress()": {
        "notice": "getter function for syndicate fee address."
      },
      "managerAssessManagementFee(address,address,uint256)": {
        "notice": "Used by a manager to assess a management fee. This can be used to compensate a manager (in addition to the distribution share, which is triggered automatically) or to pay expenses for a Syndicate."
      },
      "managerCloseSyndicate(address)": {
        "notice": "Used by a manager to close a Syndicate to new deposits.A Syndicate must be closed before distributions can be enabled. Further, once a Syndicate is closed, it cannot be opened again. This is to prevent issues with redeeming distributions interacting with new deposits (e.g. a user with a 10% stake performs a withdrawal, and then a deposit occurs that dilutes them down to a 1% stake. From that point onward, they would only be entitled to 1% of the distributions)."
      },
      "managerEmitMemo(address,bytes32,uint8,uint8)": {
        "notice": "Emit an event that references a memo stored as 64 byte hash.IPFS is recommended. Opted for the `SHA256` hash.This can be used to store a fund thesis or describe a transaction that a fund manager made in their wallet. This provides transparency by notifying members of transactions and allowing them to verify the proper use of funds."
      },
      "managerPendingConfirm(address)": {
        "notice": "Used by the pending manager to claim current manager statusThe pending manager is identified by `msg.sender`, which proves that they have control over their addressChanging a manager does not change the syndicateAddress. The syndicateAddress is permanent but has no effect beyond acting as an identifier."
      },
      "managerPendingConfirmAndSetManagerFeeAddress(address,address)": {
        "notice": "This is a helper function that can be used by a pending manager to simultaneously confirm management of a Syndicate and update the manager fee address. This ensures that there is no gap in setting a new fee address after taking ownership of a Syndicate."
      },
      "managerSetDateClose(address,uint256)": {
        "notice": "Used by a manager to change the close date of a Syndicate.After `dateClose`, member deposits and withdrawals are disabled, but the manager can still reject member deposits or override member deposits (in the case of a modifiable Syndicate). However, distributions cannot be claimed until the Syndicate is closed by a call to `managerCloseSyndicate()`.Until the manager closes the Syndicate to enable distributions, `dateClose` can be pushed into the future, which will reallow member deposits and withdrawals."
      },
      "managerSetManagerFeeAddress(address,address)": {
        "notice": "Used by a manager to set the address where fees should be sent"
      },
      "managerSetManagerFees(address,uint256,uint256)": {
        "notice": "Used by a manager to set their management and distribution sharesBasis points are fractional units of `store. BASIS_POINTS_DENOMINATOR()` (set to 10000). This means that the max precision of any distribution share is 0.01% (1 basis point).A standard structure would be a 2% management fee (200 basis points) and a 20% distribution share (2000 basis points). For more info, see https://www.investopedia.com/terms/t/two_and_twenty.aspManager fee INCREASES are only accepted while the Syndicate is open; after the Syndicate is closed, fees can only be decreased. This is to prevent managers from changing fees on members without giving them recourse to act on those fee changes (i.e. the opportunity to revoke their deposit)."
      },
      "managerSetManagerPending(address,address)": {
        "notice": "Used by the current manager to nominate a new managerThe new manager will be pending until they call `managerPendingConfirm()`. This ensures that they have control over their wallet and actively agree to manage the fund.Changing a manager does not change the `syndicateAddress`. The `syndicateAddress` is permanent but has no effect beyond acting as an identifier.To reset a `managerPending` request, just set the `managerPending` to be `address(0)`. This is the default value for all addresses."
      },
      "managerSetMetadata(address,string[],string[])": {
        "notice": "Used by a manager to store values within the structThe index of each key must be the same as the index of each value"
      },
      "managerSetNumMembersMax(address,uint256)": {
        "notice": "Set the maximum members that can contribute to the Syndicate"
      },
      "managerSetNumMembersMaxToCurrent(address)": {
        "notice": "This is a helper function that can be used by a manager to freeze deposits from new members (allowing only supplemental deposits from current members) while allowing replacements if existing members drop out."
      },
      "managerSetSyndicateDistributionShare(address,uint256)": {
        "notice": "Used by a manager to set Syndicate's distribution shareThe Syndicate distribution share must be at least 0.50% (50 basis points) and at most 100% (10000 basis points) - the manager's distribution share."
      },
      "ownerRenounceOwnership()": {
        "notice": "Renounce ownership of the contract"
      },
      "ownerSetSyndicateFeeAddress(address)": {
        "notice": "set a new fee address for the contract function that can only be triggered by the contract owner."
      },
      "ownerTransferOwnership(address)": {
        "notice": "Transfers ownership to the provided address."
      }
    },
    "notice": "General syndicate manager controls",
    "version": 1
  }
}