{
  "contractName": "Migrations",
  "abi": [
    {
      "inputs": [],
      "stateMutability": "nonpayable",
      "type": "constructor"
    },
    {
      "inputs": [],
      "name": "last_completed_migration",
      "outputs": [
        {
          "internalType": "uint256",
          "name": "",
          "type": "uint256"
        }
      ],
      "stateMutability": "view",
      "type": "function"
    },
    {
      "inputs": [
        {
          "internalType": "address",
          "name": "",
          "type": "address"
        }
      ],
      "name": "owners",
      "outputs": [
        {
          "internalType": "bool",
          "name": "",
          "type": "bool"
        }
      ],
      "stateMutability": "view",
      "type": "function"
    },
    {
      "inputs": [
        {
          "internalType": "uint256",
          "name": "completed",
          "type": "uint256"
        }
      ],
      "name": "setCompleted",
      "outputs": [],
      "stateMutability": "nonpayable",
      "type": "function"
    },
    {
      "inputs": [
        {
          "internalType": "address",
          "name": "owner",
          "type": "address"
        }
      ],
      "name": "setOwner",
      "outputs": [],
      "stateMutability": "nonpayable",
      "type": "function"
    },
    {
      "inputs": [
        {
          "internalType": "address",
          "name": "owner",
          "type": "address"
        }
      ],
      "name": "removeOwner",
      "outputs": [],
      "stateMutability": "nonpayable",
      "type": "function"
    }
  ],
  "bytecode": "0x608060405234801561001057600080fd5b50336000908152600160208190526040909120805460ff191690911790556102bb8061003d6000396000f3fe608060405234801561001057600080fd5b50600436106100575760003560e01c8063022914a71461005c57806313af403514610094578063173825d9146100a9578063445df0ac146100bc578063fdacd576146100d3575b600080fd5b61007f61006a366004610215565b60016020526000908152604090205460ff1681565b60405190151581526020015b60405180910390f35b6100a76100a2366004610215565b6100e6565b005b6100a76100b7366004610215565b610145565b6100c560005481565b60405190815260200161008b565b6100a76100e1366004610245565b6101e1565b3360009081526001602052604090205460ff1661011e5760405162461bcd60e51b81526004016101159061025e565b60405180910390fd5b6001600160a01b03166000908152600160208190526040909120805460ff19169091179055565b3360009081526001602052604090205460ff166101745760405162461bcd60e51b81526004016101159061025e565b6001600160a01b0381163314156101c05760405162461bcd60e51b815260206004820152601060248201526f21a0a72a2fa922a6a7ab22afa9a2a62360811b6044820152606401610115565b6001600160a01b03166000908152600160205260409020805460ff19169055565b3360009081526001602052604090205460ff166102105760405162461bcd60e51b81526004016101159061025e565b600055565b60006020828403121561022757600080fd5b81356001600160a01b038116811461023e57600080fd5b9392505050565b60006020828403121561025757600080fd5b5035919050565b6020808252600d908201526c29a2292fa727aa2fa7aba722a960991b60408201526060019056fea26469706673582212204a2c123fb853f29331bf85169cf69fd2793642f61473966a261a035f18f870a064736f6c63430008050033",
  "immutableReferences": {},
  "source": "// SPDX-License-Identifier: MIT\npragma solidity ^0.8.0;\n\ncontract Migrations {\n    uint256 public last_completed_migration;\n\n    mapping(address => bool) public owners;\n\n    constructor() {\n        // set contract deployer as owner\n        owners[msg.sender] = true;\n    }\n\n    modifier restricted() {\n        require(\n            owners[msg.sender],\n            \"SDR_NOT_OWNER\"\n        );\n        _;\n    }\n\n    function setCompleted(uint256 completed) public restricted {\n        last_completed_migration = completed;\n    }\n\n    function setOwner(address owner) public restricted {\n        owners[owner] = true;\n    }\n\n    function removeOwner(address owner) public restricted {\n        // This ensures that atleast one owner always exists\n        require(\n            owner != msg.sender,\n            \"CANT_REMOVE_SELF\"\n        );\n        owners[owner] = false;\n    }\n}\n",
  "sourcePath": "/home/will/Syndicate/contracts/Migrations.sol",
  "compiler": {
    "name": "solc",
    "version": "0.8.5+commit.a4f2e591.Emscripten.clang"
  },
  "schemaVersion": "3.4.0",
  "updatedAt": "2021-06-21T04:55:02.096Z",
  "devdoc": {
    "kind": "dev",
    "methods": {},
    "version": 1
  },
  "userdoc": {
    "kind": "user",
    "methods": {},
    "version": 1
  }
}