{
  "contractName": "Migrations",
  "abi": [
    {
      "inputs": [],
      "stateMutability": "nonpayable",
      "type": "constructor"
    },
    {
      "inputs": [],
      "name": "last_completed_migration",
      "outputs": [
        {
          "internalType": "uint256",
          "name": "",
          "type": "uint256"
        }
      ],
      "stateMutability": "view",
      "type": "function"
    },
    {
      "inputs": [
        {
          "internalType": "address",
          "name": "",
          "type": "address"
        }
      ],
      "name": "owners",
      "outputs": [
        {
          "internalType": "bool",
          "name": "",
          "type": "bool"
        }
      ],
      "stateMutability": "view",
      "type": "function"
    },
    {
      "inputs": [
        {
          "internalType": "uint256",
          "name": "completed",
          "type": "uint256"
        }
      ],
      "name": "setCompleted",
      "outputs": [],
      "stateMutability": "nonpayable",
      "type": "function"
    },
    {
      "inputs": [
        {
          "internalType": "address",
          "name": "owner",
          "type": "address"
        }
      ],
      "name": "setOwner",
      "outputs": [],
      "stateMutability": "nonpayable",
      "type": "function"
    },
    {
      "inputs": [
        {
          "internalType": "address",
          "name": "owner",
          "type": "address"
        }
      ],
      "name": "removeOwner",
      "outputs": [],
      "stateMutability": "nonpayable",
      "type": "function"
    }
  ],
  "bytecode": "0x608060405234801561001057600080fd5b50336000908152600160208190526040909120805460ff191690911790556103018061003d6000396000f3fe608060405234801561001057600080fd5b50600436106100575760003560e01c8063022914a71461005c57806313af403514610094578063173825d9146100a9578063445df0ac146100bc578063fdacd576146100d3575b600080fd5b61007f61006a366004610236565b60016020526000908152604090205460ff1681565b60405190151581526020015b60405180910390f35b6100a76100a2366004610236565b6100e6565b005b6100a76100b7366004610236565b610145565b6100c560005481565b60405190815260200161008b565b6100a76100e1366004610264565b610202565b3360009081526001602052604090205460ff1661011e5760405162461bcd60e51b81526004016101159061027c565b60405180910390fd5b6001600160a01b03166000908152600160208190526040909120805460ff19169091179055565b3360009081526001602052604090205460ff166101745760405162461bcd60e51b81526004016101159061027c565b6001600160a01b0381163314156101e15760405162461bcd60e51b815260206004820152602b60248201527f4552525f4d53475f53454e4445525f43414e5f4f4e4c595f52454d4f56455f4f60448201526a544845525f4f574e45525360a81b6064820152608401610115565b6001600160a01b03166000908152600160205260409020805460ff19169055565b3360009081526001602052604090205460ff166102315760405162461bcd60e51b81526004016101159061027c565b600055565b600060208284031215610247578081fd5b81356001600160a01b038116811461025d578182fd5b9392505050565b600060208284031215610275578081fd5b5035919050565b6020808252602f908201527f546869732066756e6374696f6e206973207265737472696374656420746f206160408201526e1031b7b73a3930b1ba1037bbb732b960891b60608201526080019056fea264697066735822122022c266c98130f60bbcb90f1cd4052c867df6226654708825fcf64443b9e7f8f964736f6c63430008040033",
  "immutableReferences": {},
  "source": "// SPDX-License-Identifier: MIT\npragma solidity ^0.8.0;\n\ncontract Migrations {\n    uint256 public last_completed_migration;\n\n    mapping(address => bool) public owners;\n\n    constructor() {\n        // set contract deployer as owner\n        owners[msg.sender] = true;\n    }\n\n    modifier restricted() {\n        require(\n            owners[msg.sender],\n            \"This function is restricted to a contract owner\"\n        );\n        _;\n    }\n\n    function setCompleted(uint256 completed) public restricted {\n        last_completed_migration = completed;\n    }\n\n    function setOwner(address owner) public restricted {\n        owners[owner] = true;\n    }\n\n    function removeOwner(address owner) public restricted {\n        // This ensures that atleast one owner always exists\n        require(\n            owner != msg.sender,\n            \"ERR_MSG_SENDER_CAN_ONLY_REMOVE_OTHER_OWNERS\"\n        );\n        owners[owner] = false;\n    }\n}\n",
  "sourcePath": "/home/will/Syndicate/contracts/Migrations.sol",
  "compiler": {
    "name": "solc",
    "version": "0.8.4+commit.c7e474f2.Emscripten.clang"
  },
  "schemaVersion": "3.4.0",
  "updatedAt": "2021-05-30T04:05:38.640Z",
  "devdoc": {
    "kind": "dev",
    "methods": {},
    "version": 1
  },
  "userdoc": {
    "kind": "user",
    "methods": {},
    "version": 1
  }
}