{
  "contractName": "SyndicateSPV",
  "abi": [
    {
      "anonymous": false,
      "inputs": [
        {
          "indexed": true,
          "internalType": "address",
          "name": "previousOwner",
          "type": "address"
        },
        {
          "indexed": true,
          "internalType": "address",
          "name": "newOwner",
          "type": "address"
        }
      ],
      "name": "OwnershipTransferred",
      "type": "event"
    },
    {
      "anonymous": false,
      "inputs": [
        {
          "indexed": false,
          "internalType": "address",
          "name": "account",
          "type": "address"
        }
      ],
      "name": "Paused",
      "type": "event"
    },
    {
      "anonymous": false,
      "inputs": [
        {
          "indexed": false,
          "internalType": "address",
          "name": "account",
          "type": "address"
        }
      ],
      "name": "Unpaused",
      "type": "event"
    },
    {
      "anonymous": false,
      "inputs": [
        {
          "indexed": true,
          "internalType": "address",
          "name": "lpAddress",
          "type": "address"
        },
        {
          "indexed": true,
          "internalType": "address",
          "name": "spvAddress",
          "type": "address"
        },
        {
          "indexed": false,
          "internalType": "uint256",
          "name": "amountInvested",
          "type": "uint256"
        },
        {
          "indexed": false,
          "internalType": "uint256",
          "name": "timestamp",
          "type": "uint256"
        }
      ],
      "name": "lpInvestedInSPV",
      "type": "event"
    },
    {
      "anonymous": false,
      "inputs": [
        {
          "indexed": true,
          "internalType": "address",
          "name": "lpAddress",
          "type": "address"
        },
        {
          "indexed": true,
          "internalType": "address",
          "name": "spvAddress",
          "type": "address"
        },
        {
          "indexed": false,
          "internalType": "uint256",
          "name": "amountWithdrawn",
          "type": "uint256"
        },
        {
          "indexed": false,
          "internalType": "address",
          "name": "withdrawalERC20ContractAddress",
          "type": "address"
        },
        {
          "indexed": false,
          "internalType": "uint256",
          "name": "timestamp",
          "type": "uint256"
        }
      ],
      "name": "lpWithdrewFromSPV",
      "type": "event"
    },
    {
      "anonymous": false,
      "inputs": [
        {
          "indexed": true,
          "internalType": "address",
          "name": "spvAddress",
          "type": "address"
        },
        {
          "indexed": true,
          "internalType": "address",
          "name": "currentManager",
          "type": "address"
        },
        {
          "indexed": false,
          "internalType": "bytes32",
          "name": "blake2b328HashPartOne",
          "type": "bytes32"
        },
        {
          "indexed": false,
          "internalType": "bytes32",
          "name": "blake2b328HashPartTwo",
          "type": "bytes32"
        },
        {
          "indexed": false,
          "internalType": "uint256",
          "name": "timestamp",
          "type": "uint256"
        }
      ],
      "name": "memo",
      "type": "event"
    },
    {
      "inputs": [],
      "name": "owner",
      "outputs": [
        {
          "internalType": "address",
          "name": "",
          "type": "address"
        }
      ],
      "stateMutability": "view",
      "type": "function"
    },
    {
      "inputs": [],
      "name": "paused",
      "outputs": [
        {
          "internalType": "bool",
          "name": "",
          "type": "bool"
        }
      ],
      "stateMutability": "view",
      "type": "function"
    },
    {
      "inputs": [
        {
          "internalType": "address",
          "name": "newOwner",
          "type": "address"
        }
      ],
      "name": "transferOwnership",
      "outputs": [],
      "stateMutability": "nonpayable",
      "type": "function"
    },
    {
      "inputs": [
        {
          "internalType": "address",
          "name": "primaryERC20ContractAddress",
          "type": "address"
        },
        {
          "internalType": "uint256",
          "name": "syndicateProfitSharePercent",
          "type": "uint256"
        },
        {
          "internalType": "uint256",
          "name": "closeDate",
          "type": "uint256"
        },
        {
          "internalType": "uint256",
          "name": "maxDeposit",
          "type": "uint256"
        },
        {
          "internalType": "uint256",
          "name": "maxTotalDeposits",
          "type": "uint256"
        },
        {
          "internalType": "bool",
          "name": "allowlistEnabled",
          "type": "bool"
        }
      ],
      "name": "createSPV",
      "outputs": [],
      "stateMutability": "nonpayable",
      "type": "function"
    },
    {
      "inputs": [
        {
          "internalType": "address",
          "name": "spvAddress",
          "type": "address"
        },
        {
          "internalType": "uint256",
          "name": "amount",
          "type": "uint256"
        },
        {
          "internalType": "bool",
          "name": "accredited",
          "type": "bool"
        }
      ],
      "name": "lpInvestInSPV",
      "outputs": [],
      "stateMutability": "nonpayable",
      "type": "function"
    },
    {
      "inputs": [
        {
          "internalType": "address",
          "name": "spvAddress",
          "type": "address"
        },
        {
          "internalType": "address",
          "name": "erc20ContractAddress",
          "type": "address"
        },
        {
          "internalType": "uint256",
          "name": "amount",
          "type": "uint256"
        }
      ],
      "name": "lpWithdrawFromSPV",
      "outputs": [],
      "stateMutability": "nonpayable",
      "type": "function"
    },
    {
      "inputs": [
        {
          "internalType": "address",
          "name": "spvAddress",
          "type": "address"
        },
        {
          "internalType": "address",
          "name": "lpAddress",
          "type": "address"
        }
      ],
      "name": "rejectLPInvestment",
      "outputs": [],
      "stateMutability": "nonpayable",
      "type": "function"
    },
    {
      "inputs": [
        {
          "internalType": "address",
          "name": "spvAddress",
          "type": "address"
        },
        {
          "internalType": "address",
          "name": "lpAddress",
          "type": "address"
        }
      ],
      "name": "allowAddress",
      "outputs": [],
      "stateMutability": "nonpayable",
      "type": "function"
    },
    {
      "inputs": [
        {
          "internalType": "address",
          "name": "spvAddress",
          "type": "address"
        },
        {
          "internalType": "address[]",
          "name": "lpAddresses",
          "type": "address[]"
        }
      ],
      "name": "allowMultipleAddresses",
      "outputs": [],
      "stateMutability": "nonpayable",
      "type": "function"
    },
    {
      "inputs": [
        {
          "internalType": "address",
          "name": "spvAddress",
          "type": "address"
        },
        {
          "internalType": "address",
          "name": "lpAddress",
          "type": "address"
        }
      ],
      "name": "denyAddress",
      "outputs": [],
      "stateMutability": "nonpayable",
      "type": "function"
    },
    {
      "inputs": [
        {
          "internalType": "address",
          "name": "spvAddress",
          "type": "address"
        },
        {
          "internalType": "uint256",
          "name": "managerManagementFeePercent",
          "type": "uint256"
        },
        {
          "internalType": "uint256",
          "name": "managerPerformanceFeePercent",
          "type": "uint256"
        }
      ],
      "name": "setManagerFees",
      "outputs": [],
      "stateMutability": "nonpayable",
      "type": "function"
    },
    {
      "inputs": [
        {
          "internalType": "address",
          "name": "spvAddress",
          "type": "address"
        },
        {
          "internalType": "address",
          "name": "managerFeeAddress",
          "type": "address"
        }
      ],
      "name": "setManagerFeeAddress",
      "outputs": [],
      "stateMutability": "nonpayable",
      "type": "function"
    },
    {
      "inputs": [
        {
          "internalType": "address",
          "name": "spvAddress",
          "type": "address"
        },
        {
          "internalType": "address",
          "name": "distributionERC20Address",
          "type": "address"
        },
        {
          "internalType": "uint256",
          "name": "amount",
          "type": "uint256"
        }
      ],
      "name": "setDistribution",
      "outputs": [],
      "stateMutability": "nonpayable",
      "type": "function"
    },
    {
      "inputs": [
        {
          "internalType": "address",
          "name": "spvAddress",
          "type": "address"
        }
      ],
      "name": "closeSPV",
      "outputs": [],
      "stateMutability": "nonpayable",
      "type": "function"
    },
    {
      "inputs": [
        {
          "internalType": "address",
          "name": "spvAddress",
          "type": "address"
        },
        {
          "internalType": "address",
          "name": "pendingManager",
          "type": "address"
        }
      ],
      "name": "setPendingManager",
      "outputs": [],
      "stateMutability": "nonpayable",
      "type": "function"
    },
    {
      "inputs": [
        {
          "internalType": "address",
          "name": "spvAddress",
          "type": "address"
        }
      ],
      "name": "confirmPendingManager",
      "outputs": [],
      "stateMutability": "nonpayable",
      "type": "function"
    },
    {
      "inputs": [
        {
          "internalType": "address",
          "name": "spvAddress",
          "type": "address"
        },
        {
          "internalType": "bool",
          "name": "allowlistEnabled",
          "type": "bool"
        }
      ],
      "name": "setAutoConfirmDeposit",
      "outputs": [],
      "stateMutability": "nonpayable",
      "type": "function"
    },
    {
      "inputs": [
        {
          "internalType": "address",
          "name": "spvAddress",
          "type": "address"
        },
        {
          "internalType": "bool",
          "name": "inactiveStatus",
          "type": "bool"
        }
      ],
      "name": "setSPVInactiveStatus",
      "outputs": [],
      "stateMutability": "nonpayable",
      "type": "function"
    },
    {
      "inputs": [
        {
          "internalType": "address",
          "name": "spvAddress",
          "type": "address"
        },
        {
          "internalType": "string",
          "name": "metadataKey",
          "type": "string"
        },
        {
          "internalType": "string",
          "name": "metadataValue",
          "type": "string"
        }
      ],
      "name": "setMetadata",
      "outputs": [],
      "stateMutability": "nonpayable",
      "type": "function"
    },
    {
      "inputs": [
        {
          "internalType": "address",
          "name": "spvAddress",
          "type": "address"
        },
        {
          "internalType": "bytes32",
          "name": "blake2b328HashPartOne",
          "type": "bytes32"
        },
        {
          "internalType": "bytes32",
          "name": "blake2b328HashPartTwo",
          "type": "bytes32"
        }
      ],
      "name": "emitMemo",
      "outputs": [],
      "stateMutability": "nonpayable",
      "type": "function"
    },
    {
      "inputs": [
        {
          "internalType": "address",
          "name": "spvAddress",
          "type": "address"
        }
      ],
      "name": "getSPVValues",
      "outputs": [
        {
          "components": [
            {
              "internalType": "address",
              "name": "depositERC20ContractAddress",
              "type": "address"
            },
            {
              "internalType": "uint256",
              "name": "maxDeposit",
              "type": "uint256"
            },
            {
              "internalType": "uint256",
              "name": "maxTotalDeposits",
              "type": "uint256"
            },
            {
              "internalType": "uint256",
              "name": "totalDeposits",
              "type": "uint256"
            },
            {
              "internalType": "uint256",
              "name": "closeDate",
              "type": "uint256"
            },
            {
              "internalType": "uint256",
              "name": "syndicateProfitSharePercent",
              "type": "uint256"
            },
            {
              "internalType": "uint256",
              "name": "managerManagementFeePercent",
              "type": "uint256"
            },
            {
              "internalType": "uint256",
              "name": "managerPerformanceFeePercent",
              "type": "uint256"
            },
            {
              "internalType": "uint256[2]",
              "name": "managerPerformanceThreshold",
              "type": "uint256[2]"
            },
            {
              "internalType": "address",
              "name": "currentManager",
              "type": "address"
            },
            {
              "internalType": "address",
              "name": "pendingManager",
              "type": "address"
            },
            {
              "internalType": "address",
              "name": "managerFeeAddress",
              "type": "address"
            },
            {
              "internalType": "bool",
              "name": "spvOpen",
              "type": "bool"
            },
            {
              "internalType": "bool",
              "name": "distributionsEnabled",
              "type": "bool"
            },
            {
              "internalType": "bool",
              "name": "allowlistEnabled",
              "type": "bool"
            },
            {
              "internalType": "bool",
              "name": "inactive",
              "type": "bool"
            },
            {
              "internalType": "uint256",
              "name": "version",
              "type": "uint256"
            },
            {
              "internalType": "uint256[20]",
              "name": "__reservedUint256",
              "type": "uint256[20]"
            },
            {
              "internalType": "address[20]",
              "name": "__reservedAddress",
              "type": "address[20]"
            }
          ],
          "internalType": "struct SyndicateSPV.SPVValues",
          "name": "",
          "type": "tuple"
        }
      ],
      "stateMutability": "view",
      "type": "function"
    },
    {
      "inputs": [
        {
          "internalType": "address",
          "name": "spvAddress",
          "type": "address"
        },
        {
          "internalType": "address",
          "name": "lpAddress",
          "type": "address"
        }
      ],
      "name": "getSPVLPInfo",
      "outputs": [
        {
          "internalType": "uint256",
          "name": "",
          "type": "uint256"
        },
        {
          "internalType": "uint256",
          "name": "",
          "type": "uint256"
        },
        {
          "internalType": "bool",
          "name": "",
          "type": "bool"
        }
      ],
      "stateMutability": "view",
      "type": "function"
    },
    {
      "inputs": [
        {
          "internalType": "address",
          "name": "spvAddress",
          "type": "address"
        },
        {
          "internalType": "address",
          "name": "lpAddress",
          "type": "address"
        },
        {
          "internalType": "address",
          "name": "distributionERC20ContractAddress",
          "type": "address"
        }
      ],
      "name": "getClaimedDistributions",
      "outputs": [
        {
          "internalType": "uint256",
          "name": "",
          "type": "uint256"
        }
      ],
      "stateMutability": "view",
      "type": "function"
    },
    {
      "inputs": [
        {
          "internalType": "address",
          "name": "spvAddress",
          "type": "address"
        },
        {
          "internalType": "string",
          "name": "metadataKey",
          "type": "string"
        }
      ],
      "name": "getSPVMetadata",
      "outputs": [
        {
          "internalType": "string",
          "name": "",
          "type": "string"
        }
      ],
      "stateMutability": "view",
      "type": "function"
    },
    {
      "inputs": [
        {
          "internalType": "uint256",
          "name": "userContributions",
          "type": "uint256"
        },
        {
          "internalType": "uint256",
          "name": "totalContributions",
          "type": "uint256"
        },
        {
          "internalType": "uint256",
          "name": "claimedDistributions",
          "type": "uint256"
        },
        {
          "internalType": "uint256",
          "name": "totalDistributions",
          "type": "uint256"
        }
      ],
      "name": "calculateEligibleWithdrawal",
      "outputs": [
        {
          "internalType": "uint256",
          "name": "",
          "type": "uint256"
        }
      ],
      "stateMutability": "pure",
      "type": "function"
    },
    {
      "inputs": [
        {
          "internalType": "uint256",
          "name": "withdrawal",
          "type": "uint256"
        },
        {
          "internalType": "uint256",
          "name": "profitShareNumerator",
          "type": "uint256"
        }
      ],
      "name": "calculateProfitShare",
      "outputs": [
        {
          "internalType": "uint256",
          "name": "",
          "type": "uint256"
        },
        {
          "internalType": "uint256",
          "name": "",
          "type": "uint256"
        }
      ],
      "stateMutability": "pure",
      "type": "function"
    },
    {
      "inputs": [],
      "name": "pauseContract",
      "outputs": [],
      "stateMutability": "nonpayable",
      "type": "function"
    },
    {
      "inputs": [],
      "name": "unPauseContract",
      "outputs": [],
      "stateMutability": "nonpayable",
      "type": "function"
    },
    {
      "inputs": [],
      "name": "renounceOwnership",
      "outputs": [],
      "stateMutability": "nonpayable",
      "type": "function"
    }
  ],
  "bytecode": "0x608060405234801561001057600080fd5b50613dfe806100206000396000f3fe608060405234801561001057600080fd5b50600436106101cf5760003560e01c80638e00184011610104578063c6326a89116100a2578063ead8f06911610071578063ead8f069146103e1578063eb3b0cba146103f4578063f2fde38b14610407578063fb5e6be21461041a576101cf565b8063c6326a8914610395578063d6d60467146103a8578063e498116f146103bb578063e93e04c4146103ce576101cf565b80639ac8f59e116100de5780639ac8f59e14610347578063a6981a3e14610367578063b23fbfaf1461037a578063bac152031461038d576101cf565b80638e0018401461030e578063989a98631461032157806398fe09a114610334576101cf565b80635c975abb1161017157806377bfc3911161014b57806377bfc391146102b15780637c74d43e146102d357806387026af8146102e65780638da5cb5b146102f9576101cf565b80635c975abb146102815780636bfe83dc14610296578063715018a6146102a9576101cf565b8063439766ce116101ad578063439766ce1461023357806347bfebde1461023b5780634b09cc981461024e5780635201cacb14610261576101cf565b806334f93dc3146101d45780633dfcec61146101fd5780633e2946f71461021e575b600080fd5b6101e76101e2366004613107565b61042d565b6040516101f49190613d05565b60405180910390f35b61021061020b3660046130e6565b610490565b6040516101f4929190613d2d565b61023161022c366004612f17565b6104c2565b005b610231610555565b610231610249366004612d6a565b6105c1565b61023161025c366004612ee1565b61069d565b61027461026f366004612f49565b610761565b6040516101f49190613240565b61028961082e565b6040516101f4919061321f565b6102316102a4366004612d49565b610837565b6102316108ea565b6102c46102bf366004612d6a565b61095c565b6040516101f493929190613d3b565b6102316102e1366004612dde565b6109c1565b6102316102f4366004612f17565b610a3d565b610301610b5b565b6040516101f491906131cd565b6101e761031c366004612d9c565b610b6a565b61023161032f366004612d6a565b610ba3565b610231610342366004612d49565b610cac565b61035a610355366004612d49565b610da9565b6040516101f49190613bce565b610231610375366004613018565b610f62565b610231610388366004612e19565b611176565b6102316112ca565b6102316103a3366004613057565b611334565b6102316103b6366004612dde565b6114f1565b6102316103c9366004612d6a565b61185e565b6102316103dc366004612d6a565b611964565b6102316103ef366004612ee1565b611a33565b610231610402366004612f9a565b611aaa565b610231610415366004612d49565b611b45565b610231610428366004612d6a565b611c48565b60008361043c57506000610488565b600061045a61045461044e8886611d31565b87611d93565b85611dfa565b9050600081116104855760405162461bcd60e51b815260040161047c906135bc565b60405180910390fd5b90505b949350505050565b60008060006104b26104a28686611d31565b69021e19e0c9bab2400000611d93565b80860393509150505b9250929050565b6001600160a01b038381166000908152609760205260409020600a015484911633146105005760405162461bcd60e51b815260040161047c90613374565b336001600160a01b0316846001600160a01b03167f21bf0eb15a9d48a31ac05b80d0e5d83a52fd1f0124bcccb725bb4377b0a2f5c88585426040516105479392919061322a565b60405180910390a350505050565b61055d611e57565b6001600160a01b031661056e610b5b565b6001600160a01b0316146105b7576040805162461bcd60e51b81526020600482018190526024820152600080516020613da9833981519152604482015290519081900360640190fd5b6105bf611e5b565b565b6001600160a01b038281166000908152609760205260409020600a015483911633146105ff5760405162461bcd60e51b815260040161047c90613374565b6001600160a01b038084166000908152609760205260409020600a015483821691161480159061064f57506001600160a01b038084166000908152609760205260409020600b0154838216911614155b61066b5760405162461bcd60e51b815260040161047c906135f3565b506001600160a01b039182166000908152609760205260409020600c0180546001600160a01b03191691909216179055565b6001600160a01b038281166000908152609760205260409020600a015483911633146106db5760405162461bcd60e51b815260040161047c90613374565b826106e581611efb565b6001600160a01b0381166000908152609760205260409020600c0154600160a01b900460ff166107275760405162461bcd60e51b815260040161047c90613a21565b50506001600160a01b039091166000908152609760205260409020600c018054911515600160b01b0260ff60b01b19909216919091179055565b6001600160a01b0383166000908152609860205260409081902090516060916006019061079190859085906131bd565b9081526040805160209281900383018120805460026001821615610100026000190190911604601f810185900485028301850190935282825290929091908301828280156108205780601f106107f557610100808354040283529160200191610820565b820191906000526020600020905b81548152906001019060200180831161080357829003601f168201915b505050505090509392505050565b60655460ff1690565b6001600160a01b038181166000908152609760205260409020600a015482911633146108755760405162461bcd60e51b815260040161047c90613374565b8161087f81611efb565b6001600160a01b0381166000908152609760205260409020600c0154600160a01b900460ff166108c15760405162461bcd60e51b815260040161047c90613a21565b50506001600160a01b03166000908152609760205260409020600c01805460ff60a01b19169055565b6108f2611e57565b6001600160a01b0316610903610b5b565b6001600160a01b03161461094c576040805162461bcd60e51b81526020600482018190526024820152600080516020613da9833981519152604482015290519081900360640190fd5b6109546112ca565b6105bf611f7b565b6001600160a01b03808316600081815260986020908152604080832086861680855260038201845282852054818652600483018552838620968652609785528386205490971685529483528184205494845260050190915290205460ff169250925092565b6001600160a01b0380841660009081526097602052604090205483821691161480610a1157506001600160a01b0380841660009081526098602090815260408083209386168352929052205460ff165b610a2d5760405162461bcd60e51b815260040161047c906133ab565b610a38838383612027565b505050565b6001600160a01b038381166000908152609760205260409020600a01548491163314610a7b5760405162461bcd60e51b815260040161047c90613374565b6001600160a01b038416600090815260976020526040902060060154831180610abe57506001600160a01b03841660009081526097602052604090206007015482115b15610b2f576001600160a01b0384166000908152609760205260409020600c0154600160a01b900460ff16610b055760405162461bcd60e51b815260040161047c90613b43565b6001600160a01b038416600090815260976020526040902060068101849055600701829055610b55565b6001600160a01b0384166000908152609760205260409020600681018490556007018290555b50505050565b6033546001600160a01b031690565b6001600160a01b039283166000908152609860209081526040808320948616835260049094018152838220929094168152925290205490565b6001600160a01b038281166000908152609760205260409020600a01548391163314610be15760405162461bcd60e51b815260040161047c90613374565b82610beb81611efb565b6001600160a01b0381166000908152609760205260409020600c0154600160a01b900460ff16610c2d5760405162461bcd60e51b815260040161047c90613a21565b6001600160a01b0384166000908152609760205260409020600c01548490600160b01b900460ff16610c715760405162461bcd60e51b815260040161047c90613877565b5050506001600160a01b039182166000908152609860209081526040808320939094168252600590920190915220805460ff19166001179055565b6001600160a01b038082166000908152609760205260409020600a810154600b909101549082169116338114610cf45760405162461bcd60e51b815260040161047c906137c3565b6001600160a01b03811660009081526099602052604090205460ff1615610d2d5760405162461bcd60e51b815260040161047c906139da565b6001600160a01b038381166000908152609760205260409020600c015416331415610d6a5760405162461bcd60e51b815260040161047c90613af4565b6001600160a01b0392831660009081526097602090815260408220600a0180546001600160a01b03191693861693909317909255609990915291169052565b610db1612b66565b6001600160a01b0382811660009081526097602090815260409182902082516102608101845281549094168452600181015491840191909152600280820154848401526003820154606085015260048201546080850152600582015460a0850152600682015460c0850152600782015460e0850152825180840193849052919261010085019291600885019182845b815481526020019060010190808311610e40575050509183525050600a8201546001600160a01b039081166020830152600b8301548116604080840191909152600c840154918216606084015260ff600160a01b8304811615156080850152600160a81b83048116151560a0850152600160b01b83048116151560c0850152600160b81b909204909116151560e0830152600d83015461010083015280516102808101918290526101209092019190600e84019060149082845b815481526020019060010190808311610efa5750505091835250506040805161028081019182905260209092019190602284019060149082845b81546001600160a01b03168152600190910190602001808311610f345750505050508152505090505b919050565b82610f6c81611efb565b6001600160a01b0381166000908152609760205260409020600c0154600160a01b900460ff16610fae5760405162461bcd60e51b815260040161047c90613a21565b8180610fcc5760405162461bcd60e51b815260040161047c906138ae565b6001600160a01b0385166000908152609760205260409020600c0154600160b01b900460ff16158061102457506001600160a01b038516600090815260986020908152604080832033845260050190915290205460ff165b15611129576001600160a01b038516600090815260986020908152604080832033845260030190915290205461105a9085612897565b6001600160a01b03861660009081526097602052604090206001015410156110945760405162461bcd60e51b815260040161047c906134f3565b6001600160a01b0385166000908152609760205260409020600301546110ba9085612897565b6001600160a01b03861660009081526097602052604090206002015410156110f45760405162461bcd60e51b815260040161047c906136ee565b6001600160a01b038086166000908152609760205260409020600a810154905461112492889281169116876128f1565b61116f565b6001600160a01b038516600090815260986020908152604080832033845260050190915290205460ff1661116f5760405162461bcd60e51b815260040161047c9061384b565b5050505050565b6001600160a01b038281166000908152609760205260409020600a015483911633146111b45760405162461bcd60e51b815260040161047c90613374565b826111be81611efb565b6001600160a01b0381166000908152609760205260409020600c0154600160a01b900460ff166112005760405162461bcd60e51b815260040161047c90613a21565b6001600160a01b0384166000908152609760205260409020600c01548490600160b01b900460ff166112445760405162461bcd60e51b815260040161047c90613877565b60005b84518110156112c257600160986000886001600160a01b03166001600160a01b03168152602001908152602001600020600501600087848151811061128857fe5b6020908102919091018101516001600160a01b03168252810191909152604001600020805460ff1916911515919091179055600101611247565b505050505050565b6112d2611e57565b6001600160a01b03166112e3610b5b565b6001600160a01b03161461132c576040805162461bcd60e51b81526020600482018190526024820152600080516020613da9833981519152604482015290519081900360640190fd5b6105bf612ae3565b61133c61082e565b15611381576040805162461bcd60e51b815260206004820152601060248201526f14185d5cd8589b194e881c185d5cd95960821b604482015290519081900360640190fd5b336000908152609760205260409020600a01546001600160a01b0316156113ba5760405162461bcd60e51b815260040161047c90613808565b3360009081526099602052604090205460ff16156113ea5760405162461bcd60e51b815260040161047c90613539565b4284116114095760405162461bcd60e51b815260040161047c906138e5565b681043561a88293000008510156114325760405162461bcd60e51b815260040161047c9061330b565b336000818152609760209081526040808320600a810180546001600160a01b0319908116871790915581546001600160a01b039c909c169b168b17815560988084528285209b85528b8452918420805460ff19166001908117909155949093526005830198909855600c820180546004840198909855931515600160b01b0260ff60b01b1960ff60a01b19909816600160a01b179790971696909617909255808201939093556002810191909155600d01819055919052600790910155565b6001600160a01b038381166000908152609760205260409020600a0154849116331461152f5760405162461bcd60e51b815260040161047c90613374565b8361153981611efb565b6001600160a01b0381166000908152609760205260409020600c0154600160a01b900460ff161561157c5760405162461bcd60e51b815260040161047c90613293565b6001600160a01b0385166000908152609760205260409020600c0154600160a81b900460ff166115d3576001600160a01b0385166000908152609760205260409020600c01805460ff60a81b1916600160a81b1790555b6001600160a01b03858116600090815260976020526040808220600a01549051636eb1769f60e11b815287938085169263dd62ed3e9261161c9291909116903090600401613205565b60206040518083038186803b15801561163457600080fd5b505afa158015611648573d6000803e3d6000fd5b505050506040513d601f19601f8201168201806040525081019061166c91906130ce565b9050808511158061167e575060001981145b61169a5760405162461bcd60e51b815260040161047c90613931565b6001600160a01b03878116600090815260976020526040808220600a015490516370a0823160e01b81529192808616926370a08231926116de9216906004016131cd565b60206040518083038186803b1580156116f657600080fd5b505afa15801561170a573d6000803e3d6000fd5b505050506040513d601f19601f8201168201806040525081019061172e91906130ce565b9050808611156117505760405162461bcd60e51b815260040161047c90613585565b6001600160a01b038089166000908152609860209081526040808320938b168352929052205460ff166117ae576001600160a01b038089166000908152609860209081526040808320938b16835292905220805460ff191660011790555b6001600160a01b038089166000908152609860209081526040808320938b1683526001909301905220546117e29087612897565b6001600160a01b038981166000908152609860209081526040808320938c16835260018401825280832094909455600290920190915220546118249087612897565b6001600160a01b0398891660009081526098602090815260408083209a909b16825260029099019098529790962096909655505050505050565b6001600160a01b038281166000908152609760205260409020600a0154839116331461189c5760405162461bcd60e51b815260040161047c90613374565b826118a681611efb565b6001600160a01b0381166000908152609760205260409020600c0154600160a01b900460ff166118e85760405162461bcd60e51b815260040161047c90613a21565b6001600160a01b0384166000908152609760205260409020600c01548490600160b01b900460ff1661192c5760405162461bcd60e51b815260040161047c90613877565b5050506001600160a01b039182166000908152609860209081526040808320939094168252600590920190915220805460ff19169055565b6001600160a01b038281166000908152609760205260409020600a015483911633146119a25760405162461bcd60e51b815260040161047c90613374565b826119ac81611efb565b6001600160a01b0381166000908152609760205260409020600c0154600160a01b900460ff166119ee5760405162461bcd60e51b815260040161047c90613a21565b6001600160a01b0384166000908152609760205260409020600c01548490600160b01b900460ff161561116f5760405162461bcd60e51b815260040161047c90613ba0565b6001600160a01b038281166000908152609760205260409020600a01548391163314611a715760405162461bcd60e51b815260040161047c90613374565b506001600160a01b039091166000908152609760205260409020600c018054911515600160b81b0260ff60b81b19909216919091179055565b6001600160a01b038581166000908152609760205260409020600a01548691163314611ae85760405162461bcd60e51b815260040161047c90613374565b828260986000896001600160a01b03166001600160a01b031681526020019081526020016000206006018787604051611b229291906131bd565b908152604051908190036020019020611b3c929091612c14565b50505050505050565b611b4d611e57565b6001600160a01b0316611b5e610b5b565b6001600160a01b031614611ba7576040805162461bcd60e51b81526020600482018190526024820152600080516020613da9833981519152604482015290519081900360640190fd5b6001600160a01b038116611bec5760405162461bcd60e51b8152600401808060200182810382526026815260200180613d626026913960400191505060405180910390fd5b6033546040516001600160a01b038084169216907f8be0079c531659141344cd1fd0a4f28419497f9722a3daafe3b4186f6b6457e090600090a3603380546001600160a01b0319166001600160a01b0392909216919091179055565b6001600160a01b038281166000908152609760205260409020600a01548391163314611c865760405162461bcd60e51b815260040161047c90613374565b6001600160a01b03821660009081526099602052604090205460ff1615611cbf5760405162461bcd60e51b815260040161047c906132bf565b6001600160a01b038084166000908152609760205260409020600c015483821691161415611cff5760405162461bcd60e51b815260040161047c90613408565b506001600160a01b039182166000908152609760205260409020600b0180546001600160a01b03191691909216179055565b600082611d4057506000611d8d565b82820282848281611d4d57fe5b0414611d8a5760405162461bcd60e51b8152600401808060200182810382526021815260200180613d886021913960400191505060405180910390fd5b90505b92915050565b6000808211611de9576040805162461bcd60e51b815260206004820152601a60248201527f536166654d6174683a206469766973696f6e206279207a65726f000000000000604482015290519081900360640190fd5b818381611df257fe5b049392505050565b600082821115611e51576040805162461bcd60e51b815260206004820152601e60248201527f536166654d6174683a207375627472616374696f6e206f766572666c6f770000604482015290519081900360640190fd5b50900390565b3390565b611e6361082e565b15611ea8576040805162461bcd60e51b815260206004820152601060248201526f14185d5cd8589b194e881c185d5cd95960821b604482015290519081900360640190fd5b6065805460ff191660011790557f62e78cea01bee320cd4e420270b5ea74000d11b0c9f74754ebdbfc544b05a258611ede611e57565b604080516001600160a01b039092168252519081900360200190a1565b6001600160a01b0381166000908152609760205260409020600c0154600160a01b900460ff1615156001148015611f4c57506001600160a01b03811660009081526097602052604090206004015442115b15611f78576001600160a01b0381166000908152609760205260409020600c01805460ff60a01b191690555b50565b611f83611e57565b6001600160a01b0316611f94610b5b565b6001600160a01b031614611fdd576040805162461bcd60e51b81526020600482018190526024820152600080516020613da9833981519152604482015290519081900360640190fd5b6033546040516000916001600160a01b0316907f8be0079c531659141344cd1fd0a4f28419497f9722a3daafe3b4186f6b6457e0908390a3603380546001600160a01b0319169055565b61202f61082e565b15612074576040805162461bcd60e51b815260206004820152601060248201526f14185d5cd8589b194e881c185d5cd95960821b604482015290519081900360640190fd5b6001600160a01b0383166000908152609760205260409020600c0154600160a01b900460ff161561224b576001600160a01b038381166000908152609760205260409020548116908316146120db5760405162461bcd60e51b815260040161047c90613aa8565b6001600160a01b03831660009081526098602090815260408083203384526003019091529020548111156121215760405162461bcd60e51b815260040161047c90613733565b6001600160a01b03808416600090815260976020526040908190208054600a9091015491516323b872dd60e01b81529083169283926323b872dd92612171929190911690339087906004016131e1565b602060405180830381600087803b15801561218b57600080fd5b505af115801561219f573d6000803e3d6000fd5b505050506040513d601f19601f820116820180604052508101906121c391906130b2565b506001600160a01b03841660008181526098602090815260408083203380855260039182018452828520805489900390558585526097909352928190209092018054869003905590517f58c08292e138d00c4ca0de07aaca8e2a1f46ee0cf7ef835b188270091b6160579061223d90869088904290613d0e565b60405180910390a350610a38565b6001600160a01b0383166000908152609760205260409020600c0154600160a01b900460ff161580156122a157506001600160a01b0383166000908152609760205260409020600c0154600160a81b900460ff16155b156122be5760405162461bcd60e51b815260040161047c9061345c565b6001600160a01b0383166000908152609760205260409020600c0154600160a01b900460ff1615801561231357506001600160a01b0383166000908152609760205260409020600c0154600160a81b900460ff165b15610a38576001600160a01b0380841660009081526098602090815260408083209386168352929052205460ff1661235d5760405162461bcd60e51b815260040161047c90613650565b6001600160a01b03808416600090815260986020908152604080832093861683526002909301905220548111156123a65760405162461bcd60e51b815260040161047c906136a6565b6001600160a01b03838116600081815260986020908152604080832033808552600380830185528386205496865260978552838620015490855260048201845282852096891685529583528184205460019091019092529091205461240c93919061042d565b81111561242b5760405162461bcd60e51b815260040161047c906134a8565b6001600160a01b03831660009081526097602052604081206005015483919081908190612459908690610490565b6001600160a01b03891660009081526097602052604090206007015490945061248491508690610490565b925061249c9050816124968786611dfa565b90611dfa565b90508085101580156124ac575060015b6124c85760405162461bcd60e51b815260040161047c90613972565b6124dc816124d68585612897565b90612897565b85146124fa5760405162461bcd60e51b815260040161047c90613a4b565b6001600160a01b0387811660009081526097602052604090819020600a015490516323b872dd60e01b8152828716926323b872dd9261254292911690339086906004016131e1565b602060405180830381600087803b15801561255c57600080fd5b505af1158015612570573d6000803e3d6000fd5b505050506040513d601f19601f8201168201806040525081019061259491906130b2565b506001600160a01b0380881660009081526098602090815260408083203384526004018252808320938a16835292905220546125d09082612897565b6001600160a01b038881166000908152609860209081526040808320338452600481018352818420948c168452938252808320949094556002909201909152205461261b9082611dfa565b6001600160a01b0380891660008181526098602090815260408083208c861684526002018252808320959095559181526097909152829020600a810154600c9091015492516323b872dd60e01b8152878316936323b872dd936126889381169291169088906004016131e1565b602060405180830381600087803b1580156126a257600080fd5b505af11580156126b6573d6000803e3d6000fd5b505050506040513d601f19601f820116820180604052508101906126da91906130b2565b506001600160a01b0380881660009081526098602090815260408083203384526004018252808320938a16835292905220546127169084612897565b6001600160a01b038089166000818152609860209081526040808320338452600490810183528184208d8716855283528184209690965592825260979052819020600a810154600c9091015491516323b872dd60e01b8152888416946323b872dd9461278a949381169316918891016131e1565b602060405180830381600087803b1580156127a457600080fd5b505af11580156127b8573d6000803e3d6000fd5b505050506040513d601f19601f820116820180604052508101906127dc91906130b2565b506001600160a01b0380881660009081526098602090815260408083203384526004018252808320938a16835292905220546128189083612897565b6001600160a01b0380891660008181526098602090815260408083203380855260049091018352818420958d16845294909152908190209390935591517f58c08292e138d00c4ca0de07aaca8e2a1f46ee0cf7ef835b188270091b616057906128869089908b904290613d0e565b60405180910390a350505050505050565b600082820183811015611d8a576040805162461bcd60e51b815260206004820152601b60248201527f536166654d6174683a206164646974696f6e206f766572666c6f770000000000604482015290519081900360640190fd5b6128f961082e565b1561293e576040805162461bcd60e51b815260206004820152601060248201526f14185d5cd8589b194e881c185d5cd95960821b604482015290519081900360640190fd5b8361294881611efb565b6001600160a01b0381166000908152609760205260409020600c0154600160a01b900460ff1661298a5760405162461bcd60e51b815260040161047c90613a21565b6001600160a01b038086166000908152609760205260409020548482169116146129c65760405162461bcd60e51b815260040161047c9061377d565b6001600160a01b03808616600090815260976020526040908190205490516323b872dd60e01b815291169081906323b872dd90612a0b903390899088906004016131e1565b602060405180830381600087803b158015612a2557600080fd5b505af1158015612a39573d6000803e3d6000fd5b505050506040513d601f19601f82011682018060405250810190612a5d91906130b2565b506001600160a01b0386166000818152609860209081526040808320338085526003918201845282852080548a01905585855260979093529281902090920180548701905590517f5ad73c30295dabed22a9ebcd236e5cf103ad5d0170ec7ead382f819d0b9cbac490612ad39087904290613d2d565b60405180910390a3505050505050565b612aeb61082e565b612b33576040805162461bcd60e51b815260206004820152601460248201527314185d5cd8589b194e881b9bdd081c185d5cd95960621b604482015290519081900360640190fd5b6065805460ff191690557f5db9ee0a495bf2e6ff9c91a7834c1ba4fdd244a5e8aa4e537bd38aeae4b073aa611ede611e57565b60405180610260016040528060006001600160a01b0316815260200160008152602001600081526020016000815260200160008152602001600081526020016000815260200160008152602001612bbb612ca0565b815260006020820181905260408201819052606082018190526080820181905260a0820181905260c0820181905260e0820181905261010082015261012001612c02612cbe565b8152602001612c0f612cbe565b905290565b828054600181600116156101000203166002900490600052602060002090601f016020900481019282612c4a5760008555612c90565b82601f10612c635782800160ff19823516178555612c90565b82800160010185558215612c90579182015b82811115612c90578235825591602001919060010190612c75565b50612c9c929150612cdd565b5090565b60405180604001604052806002906020820280368337509192915050565b6040518061028001604052806014906020820280368337509192915050565b5b80821115612c9c5760008155600101612cde565b80356001600160a01b0381168114610f5d57600080fd5b60008083601f840112612d1a578182fd5b50813567ffffffffffffffff811115612d31578182fd5b6020830191508360208285010111156104bb57600080fd5b600060208284031215612d5a578081fd5b612d6382612cf2565b9392505050565b60008060408385031215612d7c578081fd5b612d8583612cf2565b9150612d9360208401612cf2565b90509250929050565b600080600060608486031215612db0578081fd5b612db984612cf2565b9250612dc760208501612cf2565b9150612dd560408501612cf2565b90509250925092565b600080600060608486031215612df2578283fd5b612dfb84612cf2565b9250612e0960208501612cf2565b9150604084013590509250925092565b60008060408385031215612e2b578182fd5b612e3483612cf2565b915060208084013567ffffffffffffffff80821115612e51578384fd5b818601915086601f830112612e64578384fd5b813581811115612e7057fe5b83810260405185828201018181108582111715612e8957fe5b604052828152858101935084860182860187018b1015612ea7578788fd5b8795505b83861015612ed057612ebc81612cf2565b855260019590950194938601938601612eab565b508096505050505050509250929050565b60008060408385031215612ef3578182fd5b612efc83612cf2565b91506020830135612f0c81613d53565b809150509250929050565b600080600060608486031215612f2b578283fd5b612f3484612cf2565b95602085013595506040909401359392505050565b600080600060408486031215612f5d578283fd5b612f6684612cf2565b9250602084013567ffffffffffffffff811115612f81578283fd5b612f8d86828701612d09565b9497909650939450505050565b600080600080600060608688031215612fb1578081fd5b612fba86612cf2565b9450602086013567ffffffffffffffff80821115612fd6578283fd5b612fe289838a01612d09565b90965094506040880135915080821115612ffa578283fd5b5061300788828901612d09565b969995985093965092949392505050565b60008060006060848603121561302c578283fd5b61303584612cf2565b925060208401359150604084013561304c81613d53565b809150509250925092565b60008060008060008060c0878903121561306f578384fd5b61307887612cf2565b95506020870135945060408701359350606087013592506080870135915060a08701356130a481613d53565b809150509295509295509295565b6000602082840312156130c3578081fd5b8151611d8a81613d53565b6000602082840312156130df578081fd5b5051919050565b600080604083850312156130f8578182fd5b50508035926020909101359150565b6000806000806080858703121561311c578182fd5b5050823594602084013594506040840135936060013592509050565b6001600160a01b03169052565b8060005b6014811015610b555781516001600160a01b0316845260209384019390910190600101613149565b8060005b6014811015610b55578151845260209384019390910190600101613175565b8060005b6002811015610b55578151845260209384019390910190600101613198565b15159052565b6000828483379101908152919050565b6001600160a01b0391909116815260200190565b6001600160a01b039384168152919092166020820152604081019190915260600190565b6001600160a01b0392831681529116602082015260400190565b901515815260200190565b9283526020830191909152604082015260600190565b6000602080835283518082850152825b8181101561326c57858101830151858201604001528201613250565b8181111561327d5783604083870101525b50601f01601f1916929092016040019392505050565b60208082526012908201527111549497d4d41597d393d517d0d313d4d15160721b604082015260600190565b6020808252602c908201527f4552525f50454e44494e475f4d414e414745525f414c52454144595f4d414e4160408201526b11d154d7d3d39157d195539160a21b606082015260800190565b60208082526043908201527f53796e6469636174652070726f666974207368617265206d757374206265206760408201527f726561746572207468616e206f7220657175616c20746f203330302028302e3360608201526230252960e81b608082015260a00190565b6020808252601e908201527f4552525f53454e4445525f4e4f545f43555252454e545f4d414e414745520000604082015260600190565b6020808252603e908201527f4552525f434c4f5345445f5350565f43414e5f4f4e4c595f574954484452415760408201527f5f4445504f5349545f4f525f444953545249425554494f4e5f45524332300000606082015260800190565b60208082526034908201527f4552525f50454e44494e475f4d414e414745525f43414e4e4f545f455155414c6040820152735f4d414e414745525f4645455f4144445245535360601b606082015260800190565b6020808252602c908201527f4552525f5350565f434c4f5345445f4255545f444953545249425554494f4e5360408201526b17d393d517d153905093115160a21b606082015260800190565b6020808252602b908201527f4552525f5749544844524157414c5f414d4f554e545f475245415445525f544860408201526a414e5f454c494749424c4560a81b606082015260800190565b60208082526026908201527f4552525f4d41585f4445504f5349545f524541434845445f464f525f4c505f4160408201526544445245535360d01b606082015260800190565b6020808252602c908201527f4552525f43555252454e545f4d414e414745525f414c52454144595f4d414e4160408201526b23a4a723afa7a722afa9a82b60a11b606082015260800190565b6020808252601f908201527f4552525f414d4f554e545f475245415445525f5448414e5f42414c414e434500604082015260600190565b6020808252601a908201527f4552525f4e4f5f454c494749424c455f5749544844524157414c000000000000604082015260600190565b6020808252603c908201527f4552525f4d414e414745525f4645455f414444524553535f43414e4e4f545f4260408201527f455f43555252454e545f4f525f50454e44494e475f4d414e4147455200000000606082015260800190565b60208082526036908201527f4552525f4d414e414745525f4d5553545f5345545f444953545249425554494f60408201527504e5f464f525f5749544844524157414c5f45524332360541b606082015260800190565b60208082526028908201527f4552525f494e53554646494349454e545f554e434c41494d45445f444953545260408201526749425554494f4e5360c01b606082015260800190565b60208082526025908201527f4552525f4d41585f544f54414c5f4445504f5349545f524541434845445f464f604082015264292fa9a82b60d91b606082015260800190565b6020808252602a908201527f4552525f5749544844524157414c5f414d4f554e545f475245415445525f5448604082015269105397d1115413d4d25560b21b606082015260800190565b60208082526026908201527f4552525f45524332305f444f45535f4e4f545f4d415443485f4445504f53495460408201526505f45524332360d41b606082015260800190565b60208082526025908201527f4552525f4d53475f53454e4445525f49535f4e4f545f50454e44494e475f4d416040820152642720a3a2a960d91b606082015260800190565b60208082526023908201527f4552525f43555252454e545f4d414e414745525f414c52454144595f5052455360408201526211539560ea1b606082015260800190565b60208082526012908201527111549497d31417d393d517d0531313d5d15160721b604082015260600190565b60208082526018908201527f4552525f414c4c4f574c4953545f4e4f545f494e5f5553450000000000000000604082015260600190565b60208082526019908201527f4552525f4c505f4d5553545f42455f4143435245444954454400000000000000604082015260600190565b6020808252602c908201527f4552525f434c4f53455f444154455f4d5553545f42455f41465445525f424c4f60408201526b0434b5f54494d455354414d560a41b606082015260800190565b60208082526021908201527f4552525f414d4f554e545f475245415445525f5448414e5f414c4c4f57414e436040820152604560f81b606082015260800190565b60208082526042908201527f4552525f414d4f554e545f544f5f555345525f4849474845525f5448414e5f5760408201527f49544844524157414c5f414d4f554e545f4f525f4c4553535f5448414e5f5a45606082015261524f60f01b608082015260a00190565b60208082526027908201527f4552525f4d53475f53454e4445525f414c52454144595f4d414e414745535f4f604082015266139157d195539160ca1b606082015260800190565b60208082526010908201526f22a9292fa9a82b2fa727aa2fa7a822a760811b604082015260600190565b6020808252603a908201527f5749544844524157414c5f414d4f554e545f49535f4e4f545f455155414c5f5460408201527f4f5f544f54414c5f414d4f554e54535f41465445525f46454553000000000000606082015260800190565b6020808252602c908201527f4552525f4f50454e5f5350565f43414e5f4f4e4c595f57495448445241575f4460408201526b045504f5349545f45524332360a41b606082015260800190565b6020808252602f908201527f4552525f4d53475f53454e4445525f43414e4e4f545f455155414c5f4d414e4160408201526e4745525f4645455f4144445245535360881b606082015260800190565b6020808252603b908201527f4552525f464545535f43414e5f4f4e4c595f42455f4c4f57455245445f53505660408201527f5f4d5553545f42455f4f50454e5f544f5f52414953455f464545530000000000606082015260800190565b6020808252601490820152734552525f414c4c4f574c4953545f494e5f55534560601b604082015260600190565b600061074082019050613be2828451613138565b6020830151602083015260408301516040830152606083015160608301526080830151608083015260a083015160a083015260c083015160c083015260e083015160e083015261010080840151613c3b82850182613194565b5050610120830151610140613c5281850183613138565b8401519050610160613c6684820183613138565b8401519050610180613c7a84820183613138565b84015190506101a0613c8e848201836131b7565b84015190506101c0613ca2848201836131b7565b84015190506101e0613cb6848201836131b7565b8401519050610200613cca848201836131b7565b840151610220848101919091528401519050610240613ceb81850183613171565b8401519050613cfe6104c0840182613145565b5092915050565b90815260200190565b9283526001600160a01b03919091166020830152604082015260600190565b918252602082015260400190565b92835260208301919091521515604082015260600190565b8015158114611f7857600080fdfe4f776e61626c653a206e6577206f776e657220697320746865207a65726f2061646472657373536166654d6174683a206d756c7469706c69636174696f6e206f766572666c6f774f776e61626c653a2063616c6c6572206973206e6f7420746865206f776e6572a26469706673582212206be4aaf08f0e6632c05ffb4ed1f50a3b411b6fd5ee172d6d781cb71d4789509264736f6c63430007060033",
  "immutableReferences": {},
  "source": "// SPDX-License-Identifier: UNLICENSED\n\npragma solidity >=0.6.0 <0.8.0;\n// ABIEncoderV2 is necessary for returning structs in functions. This will be\n// the default in 0.8.0 and is no longer experimental:\n// https://blog.soliditylang.org/2020/12/16/solidity-v0.8.0-release-announcement/\npragma abicoder v2;\n\nimport \"@openzeppelin/contracts-upgradeable/access/OwnableUpgradeable.sol\";\nimport \"@openzeppelin/contracts-upgradeable/utils/PausableUpgradeable.sol\";\nimport \"@openzeppelin/contracts-upgradeable/math/SafeMathUpgradeable.sol\";\nimport \"@openzeppelin/contracts-upgradeable/token/ERC20/IERC20Upgradeable.sol\";\n\n/// @author Will Papper and Syndicate Inc.\n/// @title SPV management contract\ncontract SyndicateSPV is OwnableUpgradeable, PausableUpgradeable {\n    // Use OpenZeppelin SafeMath library for uint\n    using SafeMathUpgradeable for uint256;\n\n    // Use a consistent denominator for the profit share calculations\n    uint256 constant PROFIT_SHARE_DENOMINATOR = 10000 ether;\n\n    // This is a placeholder for Will's personal wallet and *must* be changed\n    // before launch\n    address constant SYNDICATE_FEE_ADDRESS =\n        0xdd3767ABcAB26f261e2508A1DA1914053c7DDa78;\n\n    // If you make any changes to SPVValues, ensure that you update\n    // getSPVValues as well\n    struct SPVValues {\n        // The address used for tracking deposits. A stablecoin is recommended\n        // since this is used to calculate ownership, and fluctations in value\n        // can affect these ownership calculations\n        address depositERC20ContractAddress;\n        // The maximum amount that a single address can deposit. This is useful\n        // when you want to restrict the amount that each wallet can deposit\n        // into the fund to ensure that ownership is distributed among many\n        // people. In the future, we can consider having a mapping that allows\n        // you to set per-user deposit thresholds but this is better saved for\n        // the asset management contract.\n        uint256 maxDeposit;\n        // The maximum amount that a fund can raise\n        uint256 maxTotalDeposits;\n        // The total deposits are used for calculating percentage stakes (e.g. ownership)\n        uint256 totalDeposits;\n        uint256 closeDate;\n        uint256 syndicateProfitSharePercent;\n        // A standard structure would be a 2% management fee and a 20%\n        // performance fee. For more info, see:\n        // https://www.investopedia.com/terms/t/two_and_twenty.asp\n        uint256 managerManagementFeePercent;\n        uint256 managerPerformanceFeePercent;\n        // The threshold for distributions after which managers receive\n        // performance fees\n        // 0 is for the deposit ERC20 address, 1 is for all other ERC20\n        // addresses\n        uint256[2] managerPerformanceThreshold;\n        address currentManager;\n        // Used to transition ownership of an SPV. A new current manager needs\n        // to claim the SPV after being assigned as a pending manager\n        address pendingManager;\n        // The manager must set a fee address that is different from the\n        // manager's address. This is to avoid commingling the SPV's assets with\n        // the manager's profits\n        address managerFeeAddress;\n        bool spvOpen;\n        bool distributionsEnabled;\n        bool allowlistEnabled;\n        bool inactive;\n        // Track the version number for future schema migrations\n        uint256 version;\n        // Reserve space in the struct so that it is upgrade safe\n        // See https://forum.openzeppelin.com/t/how-to-use-a-struct-in-an-upgradable-contract/832/5\n        // Gas usage for createSPV without reservations: 130549 gwei\n        // Gas usage for createSPV with reservations: 130549 gwei\n        // These reservations consume no gas.\n        // There is more info on how empty arrays are handled here:\n        // https://www.reddit.com/r/ethereum/comments/7f9xjl/evm_question_static_vs_dynamic_arrays/\n        uint256[20] __reservedUint256;\n        address[20] __reservedAddress;\n    }\n\n    // If you make any changes to SPVMappings, ensure that you update getSPVMappings\n    // as well\n    // This struct is separate from the SPV settings struct because it contains\n    // a mapping. Mappings in structs create a whole host of issues in terms of\n    // how they can be returned, so it's convenient to separate the mappings\n    // from the rest of the struct\n    struct SPVMappings {\n        // Mapping is the ERC20 contract address -> whether it is available for\n        // distributions.\n        mapping(address => bool) distributionERC20ContractAddresses;\n        // Mapping is the ERC20 contract address -> the amount available as a\n        // distribution\n        mapping(address => uint256) totalDistributions;\n        mapping(address => uint256) totalUnclaimedDistributions;\n        // Tracks the amount that an LP has put into a SPV\n        mapping(address => uint256) deposits;\n        // Tracks the amount that an address has claimed for a specific ERC20\n        // contract address\n        mapping(address => mapping(address => uint256)) claimedDistributions;\n        // The addresses that are approved to contribute to the SPV\n        // The allowlist is enabled when allowlistEnabled is true\n        // We don't maintain a specific blocklist because someone could\n        // trivially create new addresses\n        mapping(address => bool) allowedAddresses;\n        // Generic metadata mapping for storing arbitrary data\n        mapping(string => string) metadata;\n        // Track the version number for future schema migrations\n        uint256 version;\n        // Reserve space in the struct so that it is upgrade safe\n        // See https://forum.openzeppelin.com/t/how-to-use-a-struct-in-an-upgradable-contract/832/5\n        mapping(address => uint256) reservedAddressUint256MappingZero;\n        mapping(address => uint256) reservedAddressUint256MappingOne;\n        mapping(address => uint256) reservedAddressUint256MappingTwo;\n        mapping(address => uint256) reservedAddressUint256MappingThree;\n        mapping(address => uint256) reservedAddressUint256MappingFour;\n        mapping(address => bool) reservedAddressBoolMappingZero;\n        mapping(address => bool) reservedAddressBoolMappingOne;\n        mapping(address => bool) reservedAddressBoolMappingTwo;\n        mapping(address => bool) reservedAddressBoolMappingThree;\n        mapping(address => bool) reservedAddressBoolMappingFour;\n    }\n\n    // Map an SPV manager's address to their SPV's settings\n    // The mapping's address is determined via the msg.sender that calls createSPV\n    mapping(address => SPVValues) spvValues;\n\n    // This mapping must be internal, otherwise you'll get \"Stack to deep, try\n    // removing local variables\" as an error when including a large number of\n    // variables in the SPVMappings struct. (This first occurred when we added a\n    // 16th variable that was not a bool to SingleSPV). This is because Solidity\n    // attempts to generate automatic getters and setters for the mapping and\n    // therefore the struct. The result of this is that we need to create our\n    // own getters and setters. We also will be unable to instantiate SingleSPV\n    // as a local variable inside of any function, which is mitigated by the\n    // fact that we always rely on the global spvMappings mapping. Being unable to\n    // instantiate the local variable in a function also has less practical\n    // impact because the struct must be initialized in storage anyway because\n    // \"Type struct SyndicateSPV.SPVMappings is only valid in storage because it\n    // contains a (nested) mapping.\"\n    // See https://ethereum.stackexchange.com/questions/64496/is-it-possible-to-have-15-variables-in-a-struct-in-solidity\n    // A tip off in solving this was that neither structs nor mappings are\n    // passed as values to the function.\n    // See https://medium.com/coinmonks/stack-too-deep-error-in-solidity-608d1bd6a1ea\n    mapping(address => SPVMappings) internal spvMappings;\n\n    // Mapping of current managers, true if a wallet is currently managing an\n    // SPV. Manager wallets are required to be unique to prevent commingling of\n    // assets between SPVs and to ensure that transparency is provided to the\n    // LPs\n    mapping(address => bool) currentManagers;\n\n    // Events emitted when LPs invest or withdraw from an SPV. Used to track LP\n    // activity, since that cannot be derived from a mapping (there is no way to\n    // search a mapping since it contains all possible addresses initialized to\n    // default values)\n    event lpInvestedInSPV(\n        address indexed lpAddress,\n        address indexed spvAddress,\n        uint256 amountInvested,\n        uint256 timestamp\n    );\n\n    event lpWithdrewFromSPV(\n        address indexed lpAddress,\n        address indexed spvAddress,\n        uint256 amountWithdrawn,\n        address withdrawalERC20ContractAddress,\n        uint256 timestamp\n    );\n\n    event memo(\n        address indexed spvAddress,\n        address indexed currentManager,\n        bytes32 blake2b328HashPartOne,\n        bytes32 blake2b328HashPartTwo,\n        uint256 timestamp\n    );\n\n    /// @notice Only proceed if the msg.sender is the current manager\n    modifier rejectIfNotCurrentManager(address spvAddress) {\n        require(\n            msg.sender == spvValues[spvAddress].currentManager,\n            \"ERR_SENDER_NOT_CURRENT_MANAGER\"\n        );\n        _;\n    }\n\n    /// @notice Only proceed if the SPV is open\n    modifier onlySPVOpen(address spvAddress) {\n        closeSPVIfPastCloseDate(spvAddress);\n        // Require that the SPV is open to continue\n        require(spvValues[spvAddress].spvOpen, \"ERR_SPV_NOT_OPEN\");\n        _;\n    }\n\n    /// @notice Only proceed if the SPV is closed\n    modifier onlySPVClosed(address spvAddress) {\n        closeSPVIfPastCloseDate(spvAddress);\n        // Require that the SPV is closed to continue\n        require(!spvValues[spvAddress].spvOpen, \"ERR_SPV_NOT_CLOSED\");\n        _;\n    }\n\n    /// @notice Only proceed if distributions have not been enabled\n    modifier onlyBeforeDistributionsEnabled(address spvAddress) {\n        closeSPVIfPastCloseDate(spvAddress);\n        require(\n            !spvValues[spvAddress].distributionsEnabled,\n            \"ERR_DISTRIBUTIONS_ALREADY_ENABLED\"\n        );\n        _;\n    }\n\n    /// @notice Only proceed after distributions have been enabled\n    modifier onlyAfterDistributionsEnabled(address spvAddress) {\n        closeSPVIfPastCloseDate(spvAddress);\n        require(\n            spvValues[spvAddress].distributionsEnabled,\n            \"ERR_DISTRIBUTIONS_NOT_ENABLED\"\n        );\n        _;\n    }\n\n    /// @notice Only proceed if the allowlist is enabled\n    modifier onlyAllowlistEnabled(address spvAddress) {\n        // Require that the SPV has an allowlist to continue\n        require(\n            spvValues[spvAddress].allowlistEnabled,\n            \"ERR_ALLOWLIST_NOT_IN_USE\"\n        );\n        _;\n    }\n\n    /// @notice Only proceed if the allowlist is disabled\n    modifier onlyAllowlistDisabled(address spvAddress) {\n        // Require that the SPV has an allowlist to continue\n        require(\n            !spvValues[spvAddress].allowlistEnabled,\n            \"ERR_ALLOWLIST_IN_USE\"\n        );\n        _;\n    }\n\n    /// @notice Only proceed if the LP attests that they are an accredited\n    /// investor\n    modifier onlyAccredited(bool accredited) {\n        // Require that accredited is true to continue\n        require(accredited, \"ERR_LP_MUST_BE_ACCREDITED\");\n        _;\n    }\n\n    /// @dev This check should always occur before checking if the SPV is open or closed\n    function closeSPVIfPastCloseDate(address spvAddress) internal {\n        // Check if an SPV is *past* the close date (if the close date is equal\n        // to the current block timestamp, the SPV will remain open)\n        if (\n            spvValues[spvAddress].spvOpen == true &&\n            block.timestamp > spvValues[spvAddress].closeDate\n        ) {\n            spvValues[spvAddress].spvOpen = false;\n        }\n    }\n\n    /// @param primaryERC20ContractAddress The address of the ERC20 used for\n    /// deposits (e.g. DAI or USDC's contract addresses) and withdrawals.\n    /// Stablecoins are strongly recommended, especially for funds that are open\n    /// for an extended period of time. (Otherwise one contributor might\n    /// contribute one unit when a token is $100, and another contributor might\n    /// contribute one unit when a token is $200, and they would have the same\n    /// percentage ownership because they have both contributed one unit of a\n    /// token. Stablecoins prevent this because the value is consistent.)\n    /// @param syndicateProfitSharePercent The Syndicate profit share adjusted by\n    /// PERCENT_MULTIPLE (set to 1000). For example, the minimum profit share of\n    /// .30% should be passed in as 300 (since it is .30% * 1000). This means\n    /// that the max precision is .001%\n    /// @param closeDate The date that the SPV will automatically close in UNIX time.\n    /// @param maxDeposit The max deposit per wallet address.\n    /// @param maxTotalDeposits The max deposit amount for the fund/SPV.\n    /// @param allowlistEnabled False allows contributions to be sent without the manager needing to allow them. The manager can always reject a contribution before an SPV closes with rejectLPInvestment()\n    /// @dev The rejectIfNotCurrentManager modifier is not necessary here since the SPV is being initialized and has not been created yet\n    /// @dev This function is high risk. If a current SPV can be overwritten, someone could take control of the deposits by changing the current manager\n    function createSPV(\n        address primaryERC20ContractAddress,\n        uint256 syndicateProfitSharePercent,\n        uint256 closeDate,\n        uint256 maxDeposit,\n        uint256 maxTotalDeposits,\n        bool allowlistEnabled\n    ) public whenNotPaused() {\n        // HIGH RISK: Without this line, an SPV can be overwritten and the deposits can be redirected\n        require(\n            spvValues[msg.sender].currentManager == address(0),\n            \"ERR_CURRENT_MANAGER_ALREADY_PRESENT\"\n        );\n\n        // Ensure that the wallet address is unique to this SPV\n        require(\n            currentManagers[msg.sender] == false,\n            \"ERR_CURRENT_MANAGER_ALREADY_MANAGING_ONE_SPV\"\n        );\n\n        require(\n            closeDate > block.timestamp,\n            \"ERR_CLOSE_DATE_MUST_BE_AFTER_BLOCK_TIMESTAMP\"\n        );\n\n        require(\n            syndicateProfitSharePercent >= 300 ether,\n            \"Syndicate profit share must be greater than or equal to 300 (0.30%)\"\n        );\n        spvValues[msg.sender].currentManager = msg.sender;\n        // Specify that the msg.sender is now managing a fund\n        currentManagers[msg.sender] == true;\n        spvValues[msg.sender]\n            .depositERC20ContractAddress = primaryERC20ContractAddress;\n        spvMappings[msg.sender].distributionERC20ContractAddresses[\n            primaryERC20ContractAddress\n        ] = true;\n        spvValues[msg.sender]\n            .syndicateProfitSharePercent = syndicateProfitSharePercent;\n        spvValues[msg.sender].spvOpen = true;\n        spvValues[msg.sender].closeDate = closeDate;\n        spvValues[msg.sender].allowlistEnabled = allowlistEnabled;\n        spvValues[msg.sender].maxDeposit = maxDeposit;\n        spvValues[msg.sender].maxTotalDeposits = maxTotalDeposits;\n        // Set schema version to V1\n        spvValues[msg.sender].version = 1;\n        spvMappings[msg.sender].version = 1;\n    }\n\n    /// @notice Allow an LP to invest in an SPV\n    /// @param spvAddress The address that the LP is investing in\n    /// @param amount The amount of the investment (note that this is calculated\n    /// using the primary ERC20 token)\n    /// @param accredited Attestation that the LP is an accredited investor. Must\n    /// be true to continue\n    /// @dev Consider removing the onlySPVOpen modifier since the processDeposit\n    /// function has the same modifier, if you want to save on gas costs. Right\n    /// now, the duplicate modifiers provide additional safety when developing at\n    /// the cost of a small increase in gas.\n    function lpInvestInSPV(\n        address spvAddress,\n        uint256 amount,\n        bool accredited\n    ) public onlySPVOpen(spvAddress) onlyAccredited(accredited) {\n        if (\n            !spvValues[spvAddress].allowlistEnabled ||\n            spvMappings[spvAddress].allowedAddresses[msg.sender]\n        ) {\n            // Check if  LP Address maxDeposit will be exceeded on deposit\n            // ensures LP doesn't deposit more than the SPV allows for each address\n            require(\n                spvValues[spvAddress].maxDeposit >=\n                    SafeMathUpgradeable.add(\n                        spvMappings[spvAddress].deposits[msg.sender],\n                        amount\n                    ),\n                \"ERR_MAX_DEPOSIT_REACHED_FOR_LP_ADDRESS\"\n            );\n            // Check if SPV max fund has been reached\n            // ensures LP can't deposit beyond the SPV threshold\n            require(\n                spvValues[spvAddress].maxTotalDeposits >=\n                    SafeMathUpgradeable.add(\n                        spvValues[spvAddress].totalDeposits,\n                        amount\n                    ),\n                \"ERR_MAX_TOTAL_DEPOSIT_REACHED_FOR_SPV\"\n            );\n\n            processDeposit(\n                spvAddress,\n                spvValues[spvAddress].currentManager,\n                spvValues[spvAddress].depositERC20ContractAddress,\n                amount\n            );\n        } else {\n            require(\n                spvMappings[spvAddress].allowedAddresses[msg.sender],\n                \"ERR_LP_NOT_ALLOWED\"\n            );\n        }\n    }\n\n    /// @notice Withdrawal options are different if the SPV is open or closed. If it is open, only the deposit ERC20 can be withdrawn. If it is closed and distributions are disabled, no ERC20s of any kind can be withdrawn. If it is closed and distributions are enabled, any ERC20 address can be withdrawn. Distributions can be enabled by setting a distribution for the first time.\n    /// @dev Withdrawals are restricted to the primary or secondary ERC20\n    /// contract address. If we allowed any arbitrary ERC20 address, we would\n    /// also need to track percentages for each arbitrary ERC20 address. This is\n    /// significantly outside of the scope of the SPV contract and should be\n    /// saved for future asset management contracts\n    function lpWithdrawFromSPV(\n        address spvAddress,\n        address erc20ContractAddress,\n        uint256 amount\n    ) public {\n        // This check is also handled in processWithdrawal below. We could\n        // consider removing it from here\n        require(\n            erc20ContractAddress ==\n                spvValues[spvAddress].depositERC20ContractAddress ||\n                spvMappings[spvAddress].distributionERC20ContractAddresses[\n                    erc20ContractAddress\n                ],\n            \"ERR_CLOSED_SPV_CAN_ONLY_WITHDRAW_DEPOSIT_OR_DISTRIBUTION_ERC20\"\n        );\n        processWithdrawal(spvAddress, erc20ContractAddress, amount);\n    }\n\n    /// @notice This is only used when the allowlist is disabled. When an allowlist\n    /// is enabled, LPs have already been pre-approved so there is no need to reject\n    /// investments.\n    function rejectLPInvestment(address spvAddress, address lpAddress)\n        public\n        rejectIfNotCurrentManager(spvAddress)\n        onlySPVOpen(spvAddress)\n        onlyAllowlistDisabled(spvAddress)\n    {}\n\n    /// @notice Allowing addresses is unnecessary if you pass in setAutoConfirmDeposit(true)\n    function allowAddress(address spvAddress, address lpAddress)\n        public\n        rejectIfNotCurrentManager(spvAddress)\n        onlySPVOpen(spvAddress)\n        onlyAllowlistEnabled(spvAddress)\n    {\n        spvMappings[spvAddress].allowedAddresses[lpAddress] = true;\n    }\n\n    /// @param spvAddress The address to the SPV that will accept the allowedAdresses\n    /// @param lpAddresses and Array/List of addresses to be allowed by the SPV\n    /// @notice Allowing addresses is unnecessary if you pass in setAutoConfirmDeposit(true)\n    function allowMultipleAddresses(\n        address spvAddress,\n        address[] memory lpAddresses\n    )\n        public\n        rejectIfNotCurrentManager(spvAddress)\n        onlySPVOpen(spvAddress)\n        onlyAllowlistEnabled(spvAddress)\n    {\n        for (uint256 i = 0; i < lpAddresses.length; i++) {\n            spvMappings[spvAddress].allowedAddresses[lpAddresses[i]] = true;\n        }\n    }\n\n    /// @notice All addresses are denied by default, so this is only necessary if\n    /// you want to remove a previously allowed address\n    function denyAddress(address spvAddress, address lpAddress)\n        public\n        rejectIfNotCurrentManager(spvAddress)\n        onlySPVOpen(spvAddress)\n        onlyAllowlistEnabled(spvAddress)\n    {\n        spvMappings[spvAddress].allowedAddresses[lpAddress] = false;\n    }\n\n    /// @dev Manager fees can only be set higher while the SPV is open to prevent\n    /// managers from changing fees on LPs without the ability to act on those\n    /// fee changes. The manager can only change fees while LPs still have the\n    /// ability to pull their money out. After that point, fees can only be\n    /// lowered and not raised.\n    function setManagerFees(\n        address spvAddress,\n        uint256 managerManagementFeePercent,\n        uint256 managerPerformanceFeePercent\n    ) public rejectIfNotCurrentManager(spvAddress) {\n        require(\n            managerManagementFeePercent >= 0 &&\n                managerPerformanceFeePercent >= 0,\n            \"ERR_FEES_MUST_BE_GREATER_THAN_OR_EQUAL_TO_0\"\n        );\n        // The manager can only raise the fees after the SPV is open\n        if (\n            managerManagementFeePercent >\n            spvValues[spvAddress].managerManagementFeePercent ||\n            managerPerformanceFeePercent >\n            spvValues[spvAddress].managerPerformanceFeePercent\n        ) {\n            require(\n                spvValues[spvAddress].spvOpen,\n                \"ERR_FEES_CAN_ONLY_BE_LOWERED_SPV_MUST_BE_OPEN_TO_RAISE_FEES\"\n            );\n            spvValues[spvAddress]\n                .managerManagementFeePercent = managerManagementFeePercent;\n            spvValues[spvAddress]\n                .managerPerformanceFeePercent = managerPerformanceFeePercent;\n        }\n        // The manager can lower the fees under any conditions. This line will\n        // only execute if the fees are less than or equal to the current fees\n        else {\n            spvValues[spvAddress]\n                .managerManagementFeePercent = managerManagementFeePercent;\n            spvValues[spvAddress]\n                .managerPerformanceFeePercent = managerPerformanceFeePercent;\n        }\n    }\n\n    /// @dev The manager can burn the fees or send them to an address that they\n    /// do not own if they'd like, there is no requirement that the\n    /// managerFeeAddress cannot equal address(0) or e.g. the address of a\n    /// charity\n    function setManagerFeeAddress(address spvAddress, address managerFeeAddress)\n        public\n        rejectIfNotCurrentManager(spvAddress)\n    {\n        // The manager must set a fee address that is different from the\n        // manager's address. This is to avoid commingling the SPV's assets with\n        // the manager's profits\n        require(\n            managerFeeAddress != spvValues[spvAddress].currentManager &&\n                managerFeeAddress != spvValues[spvAddress].pendingManager,\n            \"ERR_MANAGER_FEE_ADDRESS_CANNOT_BE_CURRENT_OR_PENDING_MANAGER\"\n        );\n        spvValues[spvAddress].managerFeeAddress = managerFeeAddress;\n    }\n\n    /// @notice Mark a distribution as available\n    /// @notice If this function is called before distributions are enabled, it\n    /// will automatically enable distributions. Once enabled, distributions\n    /// cannot be disabled.\n    /// @notice After enabling distributions, the secondary ERC20 address cannot\n    /// be changed\n    function setDistribution(\n        address spvAddress,\n        address distributionERC20Address,\n        uint256 amount\n    ) public rejectIfNotCurrentManager(spvAddress) onlySPVClosed(spvAddress) {\n        // Enable distributions if they are currently disabled\n        if (!spvValues[spvAddress].distributionsEnabled) {\n            spvValues[spvAddress].distributionsEnabled = true;\n        }\n\n        IERC20Upgradeable distributionERC20 =\n            IERC20Upgradeable(distributionERC20Address);\n        // Check distribution amount is less than or equal to the balance and allowance from the ERC20\n\n        uint256 allowance =\n            distributionERC20.allowance(\n                spvValues[spvAddress].currentManager,\n                address(this)\n            );\n        // The -1 check for the allowance handles unlimited approval in the case\n        // of DAI. Note that unlimited approval is not recommended for security\n        // reasons, since unlimited approval could allow all tokens to be\n        // drained in the case of a bug.\n        // For more on infinite approval, see the following resources on DAI:\n        // https://docs.makerdao.com/smart-contract-modules/dai-module/dai-detailed-documentation#differences-from-erc-20\n        // https://github.com/makerdao/dss/blob/e2cdd97046d456b760c1223b5ffb86c540b9e096/src/dai.sol#L78\n        // TODO: Review unlimited approval check below to ensure that it is\n        // correct. This should be checked in the tests.\n        require(\n            amount <= allowance || allowance == uint256(-1),\n            \"ERR_AMOUNT_GREATER_THAN_ALLOWANCE\"\n        );\n\n        uint256 balance =\n            distributionERC20.balanceOf(spvValues[spvAddress].currentManager);\n        require(amount <= balance, \"ERR_AMOUNT_GREATER_THAN_BALANCE\");\n\n        // If the allowance and balance checks pass, proceed with marking the distribution as available and emitting an event\n        // Only set the distribution ERC20 Contract Address if it was previously unset\n        if (\n            !spvMappings[spvAddress].distributionERC20ContractAddresses[\n                distributionERC20Address\n            ]\n        ) {\n            spvMappings[spvAddress].distributionERC20ContractAddresses[\n                distributionERC20Address\n            ] = true;\n            // TODO: Emit event that a new distribution ERC20 address has been sent\n        }\n\n        // HIGH RISK: It is important to keep the total and unclaimed distributions\n        // values in sync when a new distribution is added\n        spvMappings[spvAddress].totalDistributions[\n            distributionERC20Address\n        ] = spvMappings[spvAddress].totalDistributions[distributionERC20Address]\n            .add(amount);\n\n        spvMappings[spvAddress].totalUnclaimedDistributions[\n            distributionERC20Address\n        ] = spvMappings[spvAddress].totalUnclaimedDistributions[\n            distributionERC20Address\n        ]\n            .add(amount);\n    }\n\n    /// @notice Close an SPV to new deposits. An SPV must be closed before\n    /// distributions can be redeemed.\n    /// @notice Once an SPV is closed, it cannot be opened again. This is to\n    /// prevent issues with redeeming distributions interacting with new deposits\n    /// (e.g. a user with a 10% stake performs a withdrawal, and then a deposit\n    /// occurs that dilutes them down to a 1% stake. From that point onward, they\n    /// would only be entitled to 1% of the distributions)\n    function closeSPV(address spvAddress)\n        public\n        rejectIfNotCurrentManager(spvAddress)\n        onlySPVOpen(spvAddress)\n    {\n        spvValues[spvAddress].spvOpen = false;\n    }\n\n    /// @notice The current manager is pending until they claim the\n    /// currentManager status. This ensures that the new current manager has\n    /// control over their wallet and has also agreed to manage the fund.\n    /// @notice To reset a pendingManager request, just set the pendingManager to\n    /// be address(0). This is the value that it is initialized at within the\n    /// SingleSPV struct (it is the default value for all addresses)\n    function setPendingManager(address spvAddress, address pendingManager)\n        public\n        rejectIfNotCurrentManager(spvAddress)\n    {\n        require(\n            currentManagers[pendingManager] == false,\n            \"ERR_PENDING_MANAGER_ALREADY_MANAGES_ONE_FUND\"\n        );\n        // The manager must set a fee address that is different from the\n        // manager's address. This is to avoid commingling the SPV's assets with\n        // the manager's profits\n        require(\n            pendingManager != spvValues[spvAddress].managerFeeAddress,\n            \"ERR_PENDING_MANAGER_CANNOT_EQUAL_MANAGER_FEE_ADDRESS\"\n        );\n        spvValues[spvAddress].pendingManager = pendingManager;\n    }\n\n    /// @notice Used by the pending manager to claim current manager status\n    function confirmPendingManager(address spvAddress) public {\n        // Local variables with a value type (like addresses) are stored in\n        // memory. We don't need to (and in fact, cannot) specify this\n        // explicitly for addresses\n        address oldCurrentManager = spvValues[spvAddress].currentManager;\n        address newCurrentManager = spvValues[spvAddress].pendingManager;\n\n        // HIGH RISK: Without this line, anyone could steal a fund from a\n        // pendingManager\n        require(\n            msg.sender == newCurrentManager,\n            \"ERR_MSG_SENDER_IS_NOT_PENDING_MANAGER\"\n        );\n        require(\n            currentManagers[newCurrentManager] == false,\n            \"ERR_MSG_SENDER_ALREADY_MANAGES_ONE_FUND\"\n        );\n        // The manager must set a fee address that is different from the\n        // manager's address. This is to avoid commingling the SPV's assets with\n        // the manager's profits\n        require(\n            msg.sender != spvValues[spvAddress].managerFeeAddress,\n            \"ERR_MSG_SENDER_CANNOT_EQUAL_MANAGER_FEE_ADDRESS\"\n        );\n\n        // We use spvValues[spvAddress].pendingManager here (stored as\n        // newCurrentManager) to ensure that a failure of the require statement\n        // above does not lead to the fund being stolen by the msg.sender. We do\n        // not set the currentManager to be msg.sender, in case we fail to\n        // properly check that newCurrentManager is the msg.sender\n        spvValues[spvAddress].currentManager = newCurrentManager;\n\n        currentManagers[newCurrentManager] == true;\n        currentManagers[oldCurrentManager] == false;\n    }\n\n    function setAutoConfirmDeposit(address spvAddress, bool allowlistEnabled)\n        public\n        rejectIfNotCurrentManager(spvAddress)\n        onlySPVOpen(spvAddress)\n    {\n        spvValues[spvAddress].allowlistEnabled = allowlistEnabled;\n    }\n\n    /// @notice Mark an SPV as inactive. This signals that the SPV is no longer\n    /// in use. This only changes the UI that end users see and has no practical\n    /// implementation. If you would like to shut down a SPV, you should close\n    /// the SPV and enable distributions instead.\n    /// @param spvAddress The address of the SPV\n    /// @param inactiveStatus Pass in true to mark the SPV as inactive. False\n    /// (the default value upon SPV initialization) marks the SPV as active.\n    function setSPVInactiveStatus(address spvAddress, bool inactiveStatus)\n        public\n        rejectIfNotCurrentManager(spvAddress)\n    {\n        spvValues[spvAddress].inactive = inactiveStatus;\n    }\n\n    function setMetadata(\n        address spvAddress,\n        string calldata metadataKey,\n        string calldata metadataValue\n    ) public rejectIfNotCurrentManager(spvAddress) {\n        spvMappings[spvAddress].metadata[metadataKey] = metadataValue;\n    }\n\n    /// @notice Emit an event that references a memo stored as 64 byte hash. IPFS\n    /// is recommended. If an IPFS hash is used, it must be `blake2b-328` so that\n    /// it can be stored in 64 bytes\n    /// @notice This can be used to store a fund thesis or describe a transaction\n    /// that a fund manager made in their wallet. This provides transparency by\n    /// notifying LPs of transactions and allowing them to verify the proper use\n    /// of funds.\n    /// @dev For more on the recommendation to use `blake2b-328` hashes, see\n    /// https://medium.com/temporal-cloud/efficient-usable-and-cheap-storage-of-ipfs-hashes-in-solidity-smart-contracts-eb3bef129eba\n    function emitMemo(\n        address spvAddress,\n        bytes32 blake2b328HashPartOne,\n        bytes32 blake2b328HashPartTwo\n    ) public rejectIfNotCurrentManager(spvAddress) {\n        emit memo(\n            spvAddress,\n            msg.sender,\n            blake2b328HashPartOne,\n            blake2b328HashPartTwo,\n            block.timestamp\n        );\n    }\n\n    /// @notice Return the settings for an SPV\n    /// @param spvAddress The address of the SPV\n    /// @return SPVValues struct\n    /// @dev This function **must** be kept up to date with the web3 UI when\n    /// making changes. All PRs that change this function **must** be coordinated\n    /// with an engineer on the Web3 Dashboard.\n    function getSPVValues(address spvAddress)\n        public\n        view\n        returns (SPVValues memory)\n    {\n        return spvValues[spvAddress];\n    }\n\n    /// @notice Return the LP info for an SPV\n    /// @param spvAddress The address of the SPV\n    /// @param lpAddress The address of the LP\n    /// @return Tuple of:\n    /// spvMappings[spvAddress].deposits[lpAddress],\n    /// spvMappings[spvAddress].claimedPrimaryDistributions[lpAddress],\n    /// spvMappings[spvAddress].claimedSecondaryDistributions[lpAddress],\n    /// spvMappings[spvAddress].allowedAddresses[lpAddress]\n    /// @dev This function **must** be kept up to date with the web3 UI when\n    /// making changes. All PRs that change this function **must** be coordinated\n    /// with an engineer on the Web3 Dashboard.\n    function getSPVLPInfo(address spvAddress, address lpAddress)\n        public\n        view\n        returns (\n            uint256,\n            uint256,\n            bool\n        )\n    {\n        return (\n            spvMappings[spvAddress].deposits[lpAddress],\n            spvMappings[spvAddress].claimedDistributions[lpAddress][\n                spvValues[spvAddress].depositERC20ContractAddress\n            ],\n            spvMappings[spvAddress].allowedAddresses[lpAddress]\n        );\n    }\n\n    function getClaimedDistributions(\n        address spvAddress,\n        address lpAddress,\n        address distributionERC20ContractAddress\n    ) public view returns (uint256) {\n        return\n            spvMappings[spvAddress].claimedDistributions[lpAddress][\n                distributionERC20ContractAddress\n            ];\n    }\n\n    /// @notice Return the metadata for a given key within an SPV\n    /// @param spvAddress The address of the SPV\n    /// @param metadataKey The string that is the key of the metadata to look up\n    /// @return metadataValue as a string\n    function getSPVMetadata(address spvAddress, string calldata metadataKey)\n        public\n        view\n        returns (string memory)\n    {\n        return spvMappings[spvAddress].metadata[metadataKey];\n    }\n\n    /// @notice Process a deposit to an SPV\n    /// @param spvAddress The address of the SPV\n    /// @param depositERC20ContractAddress The ERC20 contract address of the\n    /// token that is being used for the deposit\n    /// @param amount The amount that the msg.sender is depositing\n    /// @dev The onlySPVOpen modifier is handled by the methods that call this\n    /// (lpInvestInSPV). This modifier is a duplicate and could be removed to\n    /// save on gas costs, at the expense of possibly introducing bugs in\n    /// investing in close SPVs down the road. For safety's sake, we'll keep it\n    /// in for now -- investing in a closed SPV causes a whole host of issues,\n    /// so it's worth the small increase in gas for the protection that we get\n    /// from its presence.\n    /// @dev This function is high risk. If the `.transferFrom` line can be\n    /// redirected elsewhere, deposits could be stolen. In addition, if the\n    /// deposits are not properly tracked, a user could withdraw more than their\n    /// allocated share of the distributions.\n    function processDeposit(\n        address spvAddress,\n        address currentManagerAddress,\n        address depositERC20ContractAddress,\n        uint256 amount\n    ) internal whenNotPaused() onlySPVOpen(spvAddress) {\n        require(\n            depositERC20ContractAddress ==\n                spvValues[spvAddress].depositERC20ContractAddress,\n            \"ERR_ERC20_DOES_NOT_MATCH_DEPOSIT_ERC20\"\n        );\n        IERC20Upgradeable depositERC20 =\n            IERC20Upgradeable(\n                spvValues[spvAddress].depositERC20ContractAddress\n            );\n\n        // We could check the allowance first before calling `transferFrom()` if\n        // we wanted to, but this would use up more gas. I believe that the\n        // `transferFrom()` should cause a revert if the allowance or balance is\n        // insufficient, so we don't need to conduct a check here for it. We do\n        // need to ensure that everything related to a confirmed transaction\n        // occurs after `transferFrom()`\n\n        // HIGH RISK: If we did not use `msg.sender`, this could be used to\n        // steal funds from users other than the wallet holder (or smart\n        // contract owner, if a DAO is making the deposit).\n        depositERC20.transferFrom(msg.sender, currentManagerAddress, amount);\n\n        // Increase the deposits after a transferFrom. The transferFrom will\n        // have reverted upon failure, so we can allow this to proceed.\n\n        // Increase the deposit total for the LP\n        spvMappings[spvAddress].deposits[msg.sender] += amount;\n        // Increase the total deposits. It's *very important* to keep this in\n        // sync with the LP deposits. If these values are out of sync, we cannot\n        // calculate percentage ownership of an SPV properly\n        spvValues[spvAddress].totalDeposits += amount;\n\n        // Emit LP invested in SPV event\n        emit lpInvestedInSPV(msg.sender, spvAddress, amount, block.timestamp);\n    }\n\n    /// @notice Withdraws deposits from an open fund in primary tokens;\n    /// transfers distributions from a closed fund in either primary or\n    /// secondary tokens.\n    /// @param spvAddress The address of the SPV\n    /// @param withdrawalERC20ContractAddress The address of the tokens\n    /// awaiting distribution.  This parameter implicitly specifies the type of\n    /// distribution (i.e. in primary or secondary tokens) that is being\n    /// withdrawn.\n    /// @param amount Amount in primary or secondary distribution tokens (as\n    /// specified by withdrawalERC20ContractAddress)\n    /// @dev This function is high risk. If the `.transferFrom` line can be\n    /// redirected elsewhere, withdrawals could be stolen. In addition, if the\n    /// withdrawals are not properly tracked, a user could withdraw more than\n    /// their allocated share of the distributions.\n    function processWithdrawal(\n        address spvAddress,\n        address withdrawalERC20ContractAddress,\n        uint256 amount\n    ) internal whenNotPaused() {\n        // If the SPV is open, you can withdraw the primary ERC20 token to take\n        // your money back. This is deducted from your deposit. Because you are\n        // receiving your money back before there are any profits, there are no\n        // fees associated with this action.\n        if (spvValues[spvAddress].spvOpen) {\n            // Ensure that the primary ERC20 is the only withdrawal option\n            // before a fund closes (otherwise a user could take secondary\n            // tokens before they are distributed)\n            require(\n                spvValues[spvAddress].depositERC20ContractAddress ==\n                    withdrawalERC20ContractAddress,\n                \"ERR_OPEN_SPV_CAN_ONLY_WITHDRAW_DEPOSIT_ERC20\"\n            );\n\n            // HIGH RISK: Without this line, a user could withdraw more than\n            // they put into the fund\n            require(\n                amount <= spvMappings[spvAddress].deposits[msg.sender],\n                \"ERR_WITHDRAWAL_AMOUNT_GREATER_THAN_DEPOSIT\"\n            );\n\n            // Rely on the primaryERC20ContractAddress since that is the only\n            // allowed option when a fund is open\n            IERC20Upgradeable withdrawalERC20 =\n                IERC20Upgradeable(\n                    spvValues[spvAddress].depositERC20ContractAddress\n                );\n\n            // HIGH RISK: If we did not use `msg.sender`, this could be used to\n            // redirect funds from users other than the wallet holder (or smart\n            // contract owner, if a DAO is making the withdrawal).\n            withdrawalERC20.transferFrom(\n                spvValues[spvAddress].currentManager,\n                msg.sender,\n                amount\n            );\n\n            // Decrease the deposits after a transferFrom. The transferFrom will\n            // have reverted upon failure, so we can allow this to proceed.\n\n            // Decrease the deposit total for the LP\n            spvMappings[spvAddress].deposits[msg.sender] -= amount;\n            // Decrease the total deposits. It's *very important* to keep this\n            // in sync with the LP deposits. If these values are out of sync,\n            // we cannot calculate percentage ownership of an SPV properly.\n            spvValues[spvAddress].totalDeposits -= amount;\n\n            // Emit LP withdrew from SPV event\n            emit lpWithdrewFromSPV(\n                msg.sender,\n                spvAddress,\n                amount,\n                withdrawalERC20ContractAddress,\n                block.timestamp\n            );\n        }\n        // If the SPV is closed but distributions have not been enabled, the SPV\n        // manager needs the SPVs for investment. Therefore, the funds cannot be\n        // withdrawn until the SPV manager enables distributions.\n        else if (\n            !spvValues[spvAddress].spvOpen &&\n            !spvValues[spvAddress].distributionsEnabled\n        ) {\n            revert(\"ERR_SPV_CLOSED_BUT_DISTRIBUTIONS_NOT_ENABLED\");\n        }\n        // If the SPV is closed and distributions are enabled, funds can be\n        // withdrawn in the primary or secondary ERC20 token. This is added\n        // to the sender's claimed distribution totals to track the remaining\n        // amount they are eligible to withdraw. Fees are sent to the manager\n        // and Syndicate upon withdrawal.\n        else if (\n            !spvValues[spvAddress].spvOpen &&\n            spvValues[spvAddress].distributionsEnabled\n        ) {\n            require(\n                spvMappings[spvAddress].distributionERC20ContractAddresses[\n                    withdrawalERC20ContractAddress\n                ],\n                \"ERR_MANAGER_MUST_SET_DISTRIBUTION_FOR_WITHDRAWAL_ERC20\"\n            );\n            // If this error is thrown, then we have not properly\n            // tracked totalUnclaimedDistributions[erc20Index].\n            require(\n                amount <=\n                    spvMappings[spvAddress].totalUnclaimedDistributions[\n                        withdrawalERC20ContractAddress\n                    ],\n                \"ERR_INSUFFICIENT_UNCLAIMED_DISTRIBUTIONS\"\n            );\n            // HIGH RISK: Without this line, a user could withdraw more than\n            // they are eligible to.\n            require(\n                amount <=\n                    calculateEligibleWithdrawal(\n                        spvMappings[spvAddress].deposits[msg.sender],\n                        spvValues[spvAddress].totalDeposits,\n                        spvMappings[spvAddress].claimedDistributions[\n                            msg.sender\n                        ][withdrawalERC20ContractAddress],\n                        spvMappings[spvAddress].totalDistributions[\n                            withdrawalERC20ContractAddress\n                        ]\n                    ),\n                \"ERR_WITHDRAWAL_AMOUNT_GREATER_THAN_ELIGIBLE\"\n            );\n\n            IERC20Upgradeable withdrawalERC20 =\n                IERC20Upgradeable(withdrawalERC20ContractAddress);\n\n            uint256 amountToSyndicate;\n            uint256 amountToManager;\n            uint256 amountToUser;\n\n            // Tuples are not proper types on Solidity, so we cannot access\n            // them by quering the index of the tuple\n            // https://docs.soliditylang.org/en/latest/control-structures.html#assignment\n            (, amountToSyndicate) = calculateProfitShare(\n                amount,\n                spvValues[spvAddress].syndicateProfitSharePercent\n            );\n            (, amountToManager) = calculateProfitShare(\n                amount,\n                spvValues[spvAddress].managerPerformanceFeePercent\n            );\n            // Get amount by subtracting from the manager and the Syndicate\n            // profit shares. This is a protection against errors in the fee\n            // calculation.\n            amountToUser = amount.sub(amountToSyndicate).sub(amountToUser);\n\n            // Additional sanity check to ensure that the user is not\n            // withdrawing an amount greater than what they're entitled to\n            // or withdrawing a negative amount. There are cases where a\n            // user may withdraw 0 (e.g. If Syndicate or the manager\n            // receives 100% of the distributions, in the case of a charity)\n            require(\n                (amount >= amountToUser && amountToUser >= 0),\n                \"ERR_AMOUNT_TO_USER_HIGHER_THAN_WITHDRAWAL_AMOUNT_OR_LESS_THAN_ZERO\"\n            );\n            // I believe that there are cases where this can fail (e.g. if\n            // there is wei left over from truncating the division). We can\n            // catch this during formal verification and determine whether\n            // we want to make amount >= instead of == or just give the\n            // remaining wei to the user\n            require(\n                amount ==\n                    amountToSyndicate.add(amountToManager).add(amountToUser),\n                \"WITHDRAWAL_AMOUNT_IS_NOT_EQUAL_TO_TOTAL_AMOUNTS_AFTER_FEES\"\n            );\n\n            // The user should get paid first, then Syndicate, then the\n            // manager. This is because the manager controls the allowance --\n            // otherwise the manager could stop someone from getting paid by\n            // lowering the allowance below the distribution amount. If the\n            // manager wants to get paid, they need to set a proper\n            // allowance and not have any of these transfers fail.\n            // HIGH RISK: If we did not use `msg.sender`, this could be\n            // used to redirect funds from users other than the wallet\n            // holder (or smart contract owner, if a DAO is making the\n            // withdrawal).\n            withdrawalERC20.transferFrom(\n                spvValues[spvAddress].currentManager,\n                msg.sender,\n                amountToUser\n            );\n\n            // Increase the claimed distributions after a transferFrom. The\n            // transferFrom will have reverted upon failure, so we can\n            // allow this to proceed.\n            // HIGH RISK: We increase the amounts after each transferFrom to\n            // ensure that the amounts are accurately recorded if a single\n            // transferFrom fails. If we increased the amounts after the\n            // transferFrom sequence, any one of the transferFrom calls\n            // failing would cause the entire withdrawal to go unrecorded\n            spvMappings[spvAddress].claimedDistributions[msg.sender][\n                withdrawalERC20ContractAddress\n            ] = SafeMathUpgradeable.add(\n                spvMappings[spvAddress].claimedDistributions[msg.sender][\n                    withdrawalERC20ContractAddress\n                ],\n                amountToUser\n            );\n\n            // Increase the LP's claimed distributions\n            // Subtract from SPV's total distributions available.  It is\n            // *very important* to keep this in sync with the LP claimed\n            // distributions. If these values are out of sync, we cannot\n            // calculate percentage ownership of an SPV properly.\n            spvMappings[spvAddress].totalUnclaimedDistributions[\n                withdrawalERC20ContractAddress\n            ] = SafeMathUpgradeable.sub(\n                spvMappings[spvAddress].totalUnclaimedDistributions[\n                    withdrawalERC20ContractAddress\n                ],\n                amountToUser\n            );\n\n            // Follow the same transfer process for the Syndicate\n            // distribution share\n            withdrawalERC20.transferFrom(\n                spvValues[spvAddress].currentManager,\n                spvValues[spvAddress].managerFeeAddress,\n                amountToSyndicate\n            );\n\n            spvMappings[spvAddress].claimedDistributions[msg.sender][\n                withdrawalERC20ContractAddress\n            ] = SafeMathUpgradeable.add(\n                spvMappings[spvAddress].claimedDistributions[msg.sender][\n                    withdrawalERC20ContractAddress\n                ],\n                amountToSyndicate\n            );\n\n            withdrawalERC20.transferFrom(\n                spvValues[spvAddress].currentManager,\n                spvValues[spvAddress].managerFeeAddress,\n                amountToManager\n            );\n\n            spvMappings[spvAddress].claimedDistributions[msg.sender][\n                withdrawalERC20ContractAddress\n            ] = SafeMathUpgradeable.add(\n                spvMappings[spvAddress].claimedDistributions[msg.sender][\n                    withdrawalERC20ContractAddress\n                ],\n                amountToManager\n            );\n\n            // Emit LP withdrew from SPV event\n            // This can be used to calculate the total withdrawals for a user\n            emit lpWithdrewFromSPV(\n                msg.sender,\n                spvAddress,\n                amount,\n                withdrawalERC20ContractAddress,\n                block.timestamp\n            );\n        }\n    }\n\n    /// @notice Calculates the maximum value in distribution tokens (in either\n    /// primary or secondary ERC20) that an LP can withdraw based on their\n    /// percentage ownership at the moment that the fund closed and the\n    /// distributions that they have already received.\n    /// @param userContributions Total user has deposited to the fund\n    /// @param totalContributions Total contributions (from anyone) to the fund\n    /// @param claimedDistributions Value in distributions that user has\n    /// withdrawn from the fund already.  Make sure this matches the token type\n    /// (primary or secondary) passed in for totalDistributions.\n    /// @param totalDistributions Total distributions available from the fund,\n    /// claimed or not.  Make sure this matches the token type (primary or\n    /// secondary) passed in for claimedDistributions.\n    /// @return Value in distributions that user is eligible to withdraw\n    /// @dev HIGH RISK: If this calculation is incorrect, a user could withdraw\n    /// more or less than they are entitled to.\n    function calculateEligibleWithdrawal(\n        uint256 userContributions,\n        uint256 totalContributions,\n        uint256 claimedDistributions,\n        uint256 totalDistributions\n    ) public pure returns (uint256) {\n        // If the fund is empty, we need to return to prevent division by 0\n        if (totalContributions == 0) return 0;\n        // Solves this equation for eligibleWithdrawal:\n        // userContributions / totalContributions = (eligibleWithdrawal +\n        //      claimedDistributions) / totalDistributions\n        uint256 eligibleWithdrawal =\n            SafeMathUpgradeable.sub(\n                SafeMathUpgradeable.div(\n                    SafeMathUpgradeable.mul(\n                        userContributions,\n                        totalDistributions\n                    ),\n                    totalContributions\n                ),\n                claimedDistributions\n            );\n        require(eligibleWithdrawal > 0, \"ERR_NO_ELIGIBLE_WITHDRAWAL\");\n        return eligibleWithdrawal;\n    }\n\n    // TODO: Allow managers to set a profit share to Syndicate that they can only raise, not lower\n\n    /// @param withdrawal Total amount to user is sending\n    /// @param profitShareNumerator Establish fractional profit share (decimal\n    /// %'s get messy fast). The profit share denominator is always\n    /// PROFIT_SHARE_DENOMINATOR, which is set to 10000. Examples of different\n    /// percentages can be found in the calculateProfitShare tests\n    /// @return Tuple of (withdrawalToUser, withdrawalToProfitShare) The\n    /// withdrawal that the user will\n    /// receive and the amount of the profit share that the Syndicate treasury\n    /// (or, if adapted to asset management, the Syndicate manager) will receive\n    /// during withdrawal\n    function calculateProfitShare(\n        uint256 withdrawal,\n        uint256 profitShareNumerator\n    ) public pure returns (uint256, uint256) {\n        uint256 withdrawalToProfitShare =\n            SafeMathUpgradeable.div(\n                SafeMathUpgradeable.mul(withdrawal, profitShareNumerator),\n                PROFIT_SHARE_DENOMINATOR\n            );\n        uint256 withdrawalToUser = withdrawal - withdrawalToProfitShare;\n        return (withdrawalToUser, withdrawalToProfitShare);\n    }\n\n    /// @notice Emergency pause function that can only be triggered by the\n    /// contract owner\n    /// @notice Its purpose is to pause deposits and withdrawals. All other\n    /// functions will work when paused\n    function pauseContract() public onlyOwner {\n        _pause();\n    }\n\n    /// @notice Emergency unpause function that can only be triggered by the\n    /// contract owner\n    /// @notice Its purpose is to unpause deposits and withdrawals. All other\n    /// functions will work when paused\n    function unPauseContract() public onlyOwner {\n        _unpause();\n    }\n\n    /// @notice Renounce ownership of the contract\n    /// @notice Unpause the contract before ownership is renounced, to ensure\n    /// that deposits/withdrawals are not locked\n    function renounceOwnership() public override onlyOwner {\n        unPauseContract();\n        super.renounceOwnership();\n    }\n\n    // Added a storage gap for future variable additions.\n    // See https://docs.openzeppelin.com/contracts/3.x/upgradeable#storage_gaps\n    uint256[50] __gap;\n}\n",
  "sourcePath": "/home/mbuvi/syndicate/Syndicate-SPV/contracts/SyndicateSPV.sol",
  "compiler": {
    "name": "solc",
    "version": "0.7.6+commit.7338295f.Emscripten.clang"
  },
  "schemaVersion": "3.3.4",
  "updatedAt": "2021-03-22T15:11:13.328Z",
  "devdoc": {
    "author": "Will Papper and Syndicate Inc.",
    "kind": "dev",
    "methods": {
      "allowMultipleAddresses(address,address[])": {
        "params": {
          "lpAddresses": "and Array/List of addresses to be allowed by the SPV",
          "spvAddress": "The address to the SPV that will accept the allowedAdresses"
        }
      },
      "calculateEligibleWithdrawal(uint256,uint256,uint256,uint256)": {
        "details": "HIGH RISK: If this calculation is incorrect, a user could withdraw more or less than they are entitled to.",
        "params": {
          "claimedDistributions": "Value in distributions that user has withdrawn from the fund already.  Make sure this matches the token type (primary or secondary) passed in for totalDistributions.",
          "totalContributions": "Total contributions (from anyone) to the fund",
          "totalDistributions": "Total distributions available from the fund, claimed or not.  Make sure this matches the token type (primary or secondary) passed in for claimedDistributions.",
          "userContributions": "Total user has deposited to the fund"
        },
        "returns": {
          "_0": "Value in distributions that user is eligible to withdraw"
        }
      },
      "calculateProfitShare(uint256,uint256)": {
        "params": {
          "profitShareNumerator": "Establish fractional profit share (decimal %'s get messy fast). The profit share denominator is always PROFIT_SHARE_DENOMINATOR, which is set to 10000. Examples of different percentages can be found in the calculateProfitShare tests",
          "withdrawal": "Total amount to user is sending"
        },
        "returns": {
          "_0": "Tuple of (withdrawalToUser, withdrawalToProfitShare) The withdrawal that the user will receive and the amount of the profit share that the Syndicate treasury (or, if adapted to asset management, the Syndicate manager) will receive during withdrawal"
        }
      },
      "createSPV(address,uint256,uint256,uint256,uint256,bool)": {
        "details": "The rejectIfNotCurrentManager modifier is not necessary here since the SPV is being initialized and has not been created yetThis function is high risk. If a current SPV can be overwritten, someone could take control of the deposits by changing the current manager",
        "params": {
          "allowlistEnabled": "False allows contributions to be sent without the manager needing to allow them. The manager can always reject a contribution before an SPV closes with rejectLPInvestment()",
          "closeDate": "The date that the SPV will automatically close in UNIX time.",
          "maxDeposit": "The max deposit per wallet address.",
          "maxTotalDeposits": "The max deposit amount for the fund/SPV.",
          "primaryERC20ContractAddress": "The address of the ERC20 used for deposits (e.g. DAI or USDC's contract addresses) and withdrawals. Stablecoins are strongly recommended, especially for funds that are open for an extended period of time. (Otherwise one contributor might contribute one unit when a token is $100, and another contributor might contribute one unit when a token is $200, and they would have the same percentage ownership because they have both contributed one unit of a token. Stablecoins prevent this because the value is consistent.)",
          "syndicateProfitSharePercent": "The Syndicate profit share adjusted by PERCENT_MULTIPLE (set to 1000). For example, the minimum profit share of .30% should be passed in as 300 (since it is .30% * 1000). This means that the max precision is .001%"
        }
      },
      "emitMemo(address,bytes32,bytes32)": {
        "details": "For more on the recommendation to use `blake2b-328` hashes, see https://medium.com/temporal-cloud/efficient-usable-and-cheap-storage-of-ipfs-hashes-in-solidity-smart-contracts-eb3bef129eba"
      },
      "getSPVLPInfo(address,address)": {
        "details": "This function **must** be kept up to date with the web3 UI when making changes. All PRs that change this function **must** be coordinated with an engineer on the Web3 Dashboard.",
        "params": {
          "lpAddress": "The address of the LP",
          "spvAddress": "The address of the SPV"
        },
        "returns": {
          "_0": "Tuple of: spvMappings[spvAddress].deposits[lpAddress], spvMappings[spvAddress].claimedPrimaryDistributions[lpAddress], spvMappings[spvAddress].claimedSecondaryDistributions[lpAddress], spvMappings[spvAddress].allowedAddresses[lpAddress]"
        }
      },
      "getSPVMetadata(address,string)": {
        "params": {
          "metadataKey": "The string that is the key of the metadata to look up",
          "spvAddress": "The address of the SPV"
        },
        "returns": {
          "_0": "metadataValue as a string"
        }
      },
      "getSPVValues(address)": {
        "details": "This function **must** be kept up to date with the web3 UI when making changes. All PRs that change this function **must** be coordinated with an engineer on the Web3 Dashboard.",
        "params": {
          "spvAddress": "The address of the SPV"
        },
        "returns": {
          "_0": "SPVValues struct"
        }
      },
      "lpInvestInSPV(address,uint256,bool)": {
        "details": "Consider removing the onlySPVOpen modifier since the processDeposit function has the same modifier, if you want to save on gas costs. Right now, the duplicate modifiers provide additional safety when developing at the cost of a small increase in gas.",
        "params": {
          "accredited": "Attestation that the LP is an accredited investor. Must be true to continue",
          "amount": "The amount of the investment (note that this is calculated using the primary ERC20 token)",
          "spvAddress": "The address that the LP is investing in"
        }
      },
      "lpWithdrawFromSPV(address,address,uint256)": {
        "details": "Withdrawals are restricted to the primary or secondary ERC20 contract address. If we allowed any arbitrary ERC20 address, we would also need to track percentages for each arbitrary ERC20 address. This is significantly outside of the scope of the SPV contract and should be saved for future asset management contracts"
      },
      "owner()": {
        "details": "Returns the address of the current owner."
      },
      "paused()": {
        "details": "Returns true if the contract is paused, and false otherwise."
      },
      "setManagerFeeAddress(address,address)": {
        "details": "The manager can burn the fees or send them to an address that they do not own if they'd like, there is no requirement that the managerFeeAddress cannot equal address(0) or e.g. the address of a charity"
      },
      "setManagerFees(address,uint256,uint256)": {
        "details": "Manager fees can only be set higher while the SPV is open to prevent managers from changing fees on LPs without the ability to act on those fee changes. The manager can only change fees while LPs still have the ability to pull their money out. After that point, fees can only be lowered and not raised."
      },
      "setSPVInactiveStatus(address,bool)": {
        "params": {
          "inactiveStatus": "Pass in true to mark the SPV as inactive. False (the default value upon SPV initialization) marks the SPV as active.",
          "spvAddress": "The address of the SPV"
        }
      },
      "transferOwnership(address)": {
        "details": "Transfers ownership of the contract to a new account (`newOwner`). Can only be called by the current owner."
      }
    },
    "title": "SPV management contract",
    "version": 1
  },
  "userdoc": {
    "kind": "user",
    "methods": {
      "allowAddress(address,address)": {
        "notice": "Allowing addresses is unnecessary if you pass in setAutoConfirmDeposit(true)"
      },
      "allowMultipleAddresses(address,address[])": {
        "notice": "Allowing addresses is unnecessary if you pass in setAutoConfirmDeposit(true)"
      },
      "calculateEligibleWithdrawal(uint256,uint256,uint256,uint256)": {
        "notice": "Calculates the maximum value in distribution tokens (in either primary or secondary ERC20) that an LP can withdraw based on their percentage ownership at the moment that the fund closed and the distributions that they have already received."
      },
      "closeSPV(address)": {
        "notice": "Close an SPV to new deposits. An SPV must be closed before distributions can be redeemed.Once an SPV is closed, it cannot be opened again. This is to prevent issues with redeeming distributions interacting with new deposits (e.g. a user with a 10% stake performs a withdrawal, and then a deposit occurs that dilutes them down to a 1% stake. From that point onward, they would only be entitled to 1% of the distributions)"
      },
      "confirmPendingManager(address)": {
        "notice": "Used by the pending manager to claim current manager status"
      },
      "denyAddress(address,address)": {
        "notice": "All addresses are denied by default, so this is only necessary if you want to remove a previously allowed address"
      },
      "emitMemo(address,bytes32,bytes32)": {
        "notice": "Emit an event that references a memo stored as 64 byte hash. IPFS is recommended. If an IPFS hash is used, it must be `blake2b-328` so that it can be stored in 64 bytesThis can be used to store a fund thesis or describe a transaction that a fund manager made in their wallet. This provides transparency by notifying LPs of transactions and allowing them to verify the proper use of funds."
      },
      "getSPVLPInfo(address,address)": {
        "notice": "Return the LP info for an SPV"
      },
      "getSPVMetadata(address,string)": {
        "notice": "Return the metadata for a given key within an SPV"
      },
      "getSPVValues(address)": {
        "notice": "Return the settings for an SPV"
      },
      "lpInvestInSPV(address,uint256,bool)": {
        "notice": "Allow an LP to invest in an SPV"
      },
      "lpWithdrawFromSPV(address,address,uint256)": {
        "notice": "Withdrawal options are different if the SPV is open or closed. If it is open, only the deposit ERC20 can be withdrawn. If it is closed and distributions are disabled, no ERC20s of any kind can be withdrawn. If it is closed and distributions are enabled, any ERC20 address can be withdrawn. Distributions can be enabled by setting a distribution for the first time."
      },
      "pauseContract()": {
        "notice": "Emergency pause function that can only be triggered by the contract ownerIts purpose is to pause deposits and withdrawals. All other functions will work when paused"
      },
      "rejectLPInvestment(address,address)": {
        "notice": "This is only used when the allowlist is disabled. When an allowlist is enabled, LPs have already been pre-approved so there is no need to reject investments."
      },
      "renounceOwnership()": {
        "notice": "Renounce ownership of the contractUnpause the contract before ownership is renounced, to ensure that deposits/withdrawals are not locked"
      },
      "setDistribution(address,address,uint256)": {
        "notice": "Mark a distribution as availableIf this function is called before distributions are enabled, it will automatically enable distributions. Once enabled, distributions cannot be disabled.After enabling distributions, the secondary ERC20 address cannot be changed"
      },
      "setPendingManager(address,address)": {
        "notice": "The current manager is pending until they claim the currentManager status. This ensures that the new current manager has control over their wallet and has also agreed to manage the fund.To reset a pendingManager request, just set the pendingManager to be address(0). This is the value that it is initialized at within the SingleSPV struct (it is the default value for all addresses)"
      },
      "setSPVInactiveStatus(address,bool)": {
        "notice": "Mark an SPV as inactive. This signals that the SPV is no longer in use. This only changes the UI that end users see and has no practical implementation. If you would like to shut down a SPV, you should close the SPV and enable distributions instead."
      },
      "unPauseContract()": {
        "notice": "Emergency unpause function that can only be triggered by the contract ownerIts purpose is to unpause deposits and withdrawals. All other functions will work when paused"
      }
    },
    "version": 1
  }
}