{
  "contractName": "SyndicateIntegrationsCoordinatorLogicV0",
  "abi": [
    {
      "inputs": [],
      "stateMutability": "nonpayable",
      "type": "constructor"
    },
    {
      "anonymous": false,
      "inputs": [
        {
          "indexed": true,
          "internalType": "address",
          "name": "previousOwner",
          "type": "address"
        },
        {
          "indexed": true,
          "internalType": "address",
          "name": "newOwner",
          "type": "address"
        }
      ],
      "name": "OwnershipTransferred",
      "type": "event"
    },
    {
      "anonymous": false,
      "inputs": [
        {
          "indexed": false,
          "internalType": "address",
          "name": "account",
          "type": "address"
        }
      ],
      "name": "Paused",
      "type": "event"
    },
    {
      "anonymous": false,
      "inputs": [
        {
          "indexed": false,
          "internalType": "address",
          "name": "account",
          "type": "address"
        }
      ],
      "name": "Unpaused",
      "type": "event"
    },
    {
      "anonymous": false,
      "inputs": [
        {
          "indexed": false,
          "internalType": "address",
          "name": "owner",
          "type": "address"
        }
      ],
      "name": "ownerRenouncedPause",
      "type": "event"
    },
    {
      "anonymous": false,
      "inputs": [
        {
          "indexed": true,
          "internalType": "address",
          "name": "contractFeeAddress",
          "type": "address"
        },
        {
          "indexed": false,
          "internalType": "uint256",
          "name": "timestamp",
          "type": "uint256"
        }
      ],
      "name": "ownerSetterSyndicateFeeAddress",
      "type": "event"
    },
    {
      "inputs": [],
      "name": "BASIS_POINTS_DENOMINATOR",
      "outputs": [
        {
          "internalType": "uint256",
          "name": "",
          "type": "uint256"
        }
      ],
      "stateMutability": "view",
      "type": "function"
    },
    {
      "inputs": [],
      "name": "owner",
      "outputs": [
        {
          "internalType": "address",
          "name": "",
          "type": "address"
        }
      ],
      "stateMutability": "view",
      "type": "function"
    },
    {
      "inputs": [],
      "name": "ownerPauseContract",
      "outputs": [],
      "stateMutability": "nonpayable",
      "type": "function"
    },
    {
      "inputs": [],
      "name": "ownerRenounceOwnership",
      "outputs": [],
      "stateMutability": "nonpayable",
      "type": "function"
    },
    {
      "inputs": [],
      "name": "ownerRenouncePause",
      "outputs": [],
      "stateMutability": "nonpayable",
      "type": "function"
    },
    {
      "inputs": [
        {
          "internalType": "address",
          "name": "feeAddress",
          "type": "address"
        }
      ],
      "name": "ownerSetSyndicateFeeAddress",
      "outputs": [],
      "stateMutability": "nonpayable",
      "type": "function"
    },
    {
      "inputs": [
        {
          "internalType": "address",
          "name": "newOwner",
          "type": "address"
        }
      ],
      "name": "ownerTransferOwnership",
      "outputs": [],
      "stateMutability": "nonpayable",
      "type": "function"
    },
    {
      "inputs": [],
      "name": "ownerUnpauseContract",
      "outputs": [],
      "stateMutability": "nonpayable",
      "type": "function"
    },
    {
      "inputs": [],
      "name": "paused",
      "outputs": [
        {
          "internalType": "bool",
          "name": "",
          "type": "bool"
        }
      ],
      "stateMutability": "view",
      "type": "function"
    },
    {
      "inputs": [],
      "name": "renounceOwnership",
      "outputs": [],
      "stateMutability": "nonpayable",
      "type": "function"
    },
    {
      "inputs": [
        {
          "internalType": "address",
          "name": "newOwner",
          "type": "address"
        }
      ],
      "name": "transferOwnership",
      "outputs": [],
      "stateMutability": "nonpayable",
      "type": "function"
    },
    {
      "inputs": [
        {
          "internalType": "string",
          "name": "toHash",
          "type": "string"
        }
      ],
      "name": "hash",
      "outputs": [
        {
          "internalType": "bytes32",
          "name": "hashed",
          "type": "bytes32"
        }
      ],
      "stateMutability": "pure",
      "type": "function"
    },
    {
      "inputs": [
        {
          "internalType": "bytes32",
          "name": "contractHash",
          "type": "bytes32"
        }
      ],
      "name": "getAddress",
      "outputs": [
        {
          "internalType": "address",
          "name": "_address",
          "type": "address"
        }
      ],
      "stateMutability": "view",
      "type": "function"
    },
    {
      "inputs": [
        {
          "internalType": "bytes32[]",
          "name": "hashes",
          "type": "bytes32[]"
        },
        {
          "internalType": "address[]",
          "name": "addresses",
          "type": "address[]"
        }
      ],
      "name": "upsertContracts",
      "outputs": [],
      "stateMutability": "nonpayable",
      "type": "function"
    },
    {
      "inputs": [
        {
          "internalType": "bytes32",
          "name": "_hash",
          "type": "bytes32"
        }
      ],
      "name": "removeContract",
      "outputs": [],
      "stateMutability": "nonpayable",
      "type": "function"
    }
  ],
  "bytecode": "0x6080604052600180546001600160a81b0319167340db79f7f18c468c6552538b488c58b5e72bf4d917905534801561003657600080fd5b50600080546001600160a01b031916339081178255604051909182917f8be0079c531659141344cd1fd0a4f28419497f9722a3daafe3b4186f6b6457e0908290a3506000805460ff60a01b19169055610b4e806100946000396000f3fe608060405234801561001057600080fd5b50600436106100f55760003560e01c80638da5cb5b11610097578063bfd9a7e111610066578063bfd9a7e1146101d4578063cfa498a3146101e7578063dac128ad146101f0578063f2fde38b146101f857600080fd5b80638da5cb5b1461017c578063a09cca931461018d578063a43e04d8146101a0578063b411ee94146101b357600080fd5b80635c975abb116100d35780635c975abb14610147578063715018a61461016457806379f90d6c1461016c57806381abf4081461017457600080fd5b806312285d40146100fa57806321f8a721146101045780635194993814610134575b600080fd5b61010261020b565b005b610117610112366004610a09565b610248565b6040516001600160a01b0390911681526020015b60405180910390f35b61010261014236600461099d565b6102bb565b600054600160a01b900460ff16604051901515815260200161012b565b6101026103c6565b61010261043a565b6101026104b8565b6000546001600160a01b0316610117565b61010261019b36600461096d565b610504565b6101026101ae366004610a09565b61053a565b6101c66101c1366004610a22565b6105d9565b60405190815260200161012b565b6101026101e236600461096d565b61060c565b6101c661271081565b61010261068a565b61010261020636600461096d565b610717565b6000546001600160a01b0316331461023e5760405162461bcd60e51b815260040161023590610aa4565b60405180910390fd5b610246610801565b565b6000818152600260205260408120546001600160a01b031661029f5760405162461bcd60e51b815260206004820152601060248201526f1393d7d4d550d217d0d3d395149050d560821b6044820152606401610235565b506000908152600260205260409020546001600160a01b031690565b6000546001600160a01b031633146102e55760405162461bcd60e51b815260040161023590610aa4565b82811461032b5760405162461bcd60e51b815260206004820152601460248201527320a92920acafa622a723aa2429afa224a32322a960611b6044820152606401610235565b60005b838110156103bf5782828281811061034857610348610b02565b905060200201602081019061035d919061096d565b6002600087878581811061037357610373610b02565b90506020020135815260200190815260200160002060006101000a8154816001600160a01b0302191690836001600160a01b0316021790555080806103b790610ad9565b91505061032e565b5050505050565b6000546001600160a01b031633146103f05760405162461bcd60e51b815260040161023590610aa4565b600080546040516001600160a01b03909116907f8be0079c531659141344cd1fd0a4f28419497f9722a3daafe3b4186f6b6457e0908390a3600080546001600160a01b0319169055565b6000546001600160a01b031633146104645760405162461bcd60e51b815260040161023590610aa4565b600154600160a01b900460ff16156104b05760405162461bcd60e51b815260206004820152600f60248201526e14105554d157d4915393d55390d151608a1b6044820152606401610235565b610246610899565b6000546001600160a01b031633146104e25760405162461bcd60e51b815260040161023590610aa4565b600054600160a01b900460ff16156104fc576104fc61020b565b6102466103c6565b6000546001600160a01b0316331461052e5760405162461bcd60e51b815260040161023590610aa4565b61053781610717565b50565b6000546001600160a01b031633146105645760405162461bcd60e51b815260040161023590610aa4565b6000818152600260205260409020546001600160a01b03166105bb5760405162461bcd60e51b815260206004820152601060248201526f1393d7d4d550d217d0d3d395149050d560821b6044820152606401610235565b600090815260026020526040902080546001600160a01b0319169055565b600082826040516020016105ee929190610a94565b60405160208183030381529060405280519060200120905092915050565b6000546001600160a01b031633146106365760405162461bcd60e51b815260040161023590610aa4565b600180546001600160a01b0319166001600160a01b0383169081179091556040514281527f1a49e1bcd954390033d0a77f7090e458f8d292a5dca5ff1424c84446d37690f99060200160405180910390a250565b6000546001600160a01b031633146106b45760405162461bcd60e51b815260040161023590610aa4565b600054600160a01b900460ff16156106ce576106ce61020b565b6001805460ff60a01b1916600160a01b1790556040513381527f8d464c3056e69b8da97814dbfddc04a614af8e35b3f030ba6ac9fbc881f2a35b906020015b60405180910390a1565b6000546001600160a01b031633146107415760405162461bcd60e51b815260040161023590610aa4565b6001600160a01b0381166107a65760405162461bcd60e51b815260206004820152602660248201527f4f776e61626c653a206e6577206f776e657220697320746865207a65726f206160448201526564647265737360d01b6064820152608401610235565b600080546040516001600160a01b03808516939216917f8be0079c531659141344cd1fd0a4f28419497f9722a3daafe3b4186f6b6457e091a3600080546001600160a01b0319166001600160a01b0392909216919091179055565b600054600160a01b900460ff166108515760405162461bcd60e51b815260206004820152601460248201527314185d5cd8589b194e881b9bdd081c185d5cd95960621b6044820152606401610235565b6000805460ff60a01b191690557f5db9ee0a495bf2e6ff9c91a7834c1ba4fdd244a5e8aa4e537bd38aeae4b073aa335b6040516001600160a01b03909116815260200161070d565b600054600160a01b900460ff16156108e65760405162461bcd60e51b815260206004820152601060248201526f14185d5cd8589b194e881c185d5cd95960821b6044820152606401610235565b6000805460ff60a01b1916600160a01b1790557f62e78cea01bee320cd4e420270b5ea74000d11b0c9f74754ebdbfc544b05a2586108813390565b60008083601f84011261093357600080fd5b50813567ffffffffffffffff81111561094b57600080fd5b6020830191508360208260051b850101111561096657600080fd5b9250929050565b60006020828403121561097f57600080fd5b81356001600160a01b038116811461099657600080fd5b9392505050565b600080600080604085870312156109b357600080fd5b843567ffffffffffffffff808211156109cb57600080fd5b6109d788838901610921565b909650945060208701359150808211156109f057600080fd5b506109fd87828801610921565b95989497509550505050565b600060208284031215610a1b57600080fd5b5035919050565b60008060208385031215610a3557600080fd5b823567ffffffffffffffff80821115610a4d57600080fd5b818501915085601f830112610a6157600080fd5b813581811115610a7057600080fd5b866020828501011115610a8257600080fd5b60209290920196919550909350505050565b8183823760009101908152919050565b6020808252818101527f4f776e61626c653a2063616c6c6572206973206e6f7420746865206f776e6572604082015260600190565b6000600019821415610afb57634e487b7160e01b600052601160045260246000fd5b5060010190565b634e487b7160e01b600052603260045260246000fdfea264697066735822122027385843eb0bd851426128a94434d84ecb286f2178076edeac062ac69353880064736f6c63430008050033",
  "immutableReferences": {},
  "source": "// SPDX-License-Identifier: UNLICENSED\n\npragma solidity ^0.8.0;\n\nimport \"./SyndicateOwnerLogic.sol\";\n\n/// @notice Stores contract/address pairs of deployed Syndicate\n/// contracts.\ncontract SyndicateIntegrationsCoordinatorLogicV0 is SyndicateOwnerLogic {\n    /// @dev Currently we store the data inside the logic contract.\n    /// Once we feel comfortable with what data is needed by outside\n    /// parties we will split this into separate contracts.\n    mapping(bytes32 => address) private contractAddress;\n\n    constructor() SyndicateOwnerLogic() {}\n\n    /// @notice Computes and returns the hash of provided string for use in\n    /// functions that only accept hashed strings as parameters\n    /// @param toHash String to hash\n    /// @return hashed The hash of the string\n    function hash(string calldata toHash) public pure returns (bytes32 hashed) {\n        return keccak256(abi.encodePacked(toHash));\n    }\n\n    /// @notice Getter for the address that a contract is deployed at\n    /// @param contractHash The hashed contract name\n    /// @return _address The address where the contract is deployed\n    function getAddress(bytes32 contractHash)\n        public\n        view\n        returns (address _address)\n    {\n        require(contractAddress[contractHash] != address(0), \"NO_SUCH_CONTRACT\");\n        return (contractAddress[contractHash]);\n    }\n\n    /// @notice Add or update contract/address pairs.\n    /// @param hashes The hashed contract names\n    /// @param addresses The addresses of the contracts\n    function upsertContracts(\n        bytes32[] calldata hashes,\n        address[] calldata addresses\n    ) public onlyOwner {\n        // Both passed-in arrays must have the same length\n        require(hashes.length == addresses.length, \"ARRAY_LENGTHS_DIFFER\");\n        for (uint256 i = 0; i < hashes.length; i++) {\n            contractAddress[hashes[i]] = addresses[i];\n        }\n    }\n\n    /// @notice Remove a contract\n    /// @param _hash The hashed contract name\n    function removeContract(bytes32 _hash) public onlyOwner {\n        require(contractAddress[_hash] != address(0), \"NO_SUCH_CONTRACT\");\n        contractAddress[_hash] = address(0);\n    }\n}\n",
  "sourcePath": "/home/will/Syndicate/contracts/SyndicateIntegrationsCoordinatorLogicV0.sol",
  "compiler": {
    "name": "solc",
    "version": "0.8.5+commit.a4f2e591.Emscripten.clang"
  },
  "schemaVersion": "3.4.0",
  "updatedAt": "2021-06-21T04:55:02.422Z",
  "devdoc": {
    "kind": "dev",
    "methods": {
      "getAddress(bytes32)": {
        "params": {
          "contractHash": "The hashed contract name"
        },
        "returns": {
          "_address": "The address where the contract is deployed"
        }
      },
      "hash(string)": {
        "params": {
          "toHash": "String to hash"
        },
        "returns": {
          "hashed": "The hash of the string"
        }
      },
      "owner()": {
        "details": "Returns the address of the current owner."
      },
      "ownerSetSyndicateFeeAddress(address)": {
        "params": {
          "feeAddress": "The owner's new contract fee address"
        }
      },
      "ownerTransferOwnership(address)": {
        "params": {
          "newOwner": "The new owner's address."
        }
      },
      "paused()": {
        "details": "Returns true if the contract is paused, and false otherwise."
      },
      "removeContract(bytes32)": {
        "params": {
          "_hash": "The hashed contract name"
        }
      },
      "renounceOwnership()": {
        "details": "Leaves the contract without owner. It will not be possible to call `onlyOwner` functions anymore. Can only be called by the current owner. NOTE: Renouncing ownership will leave the contract without an owner, thereby removing any functionality that is only available to the owner."
      },
      "transferOwnership(address)": {
        "details": "Transfers ownership of the contract to a new account (`newOwner`). Can only be called by the current owner."
      },
      "upsertContracts(bytes32[],address[])": {
        "params": {
          "addresses": "The addresses of the contracts",
          "hashes": "The hashed contract names"
        }
      }
    },
    "stateVariables": {
      "contractAddress": {
        "details": "Currently we store the data inside the logic contract. Once we feel comfortable with what data is needed by outside parties we will split this into separate contracts."
      }
    },
    "version": 1
  },
  "userdoc": {
    "events": {
      "ownerRenouncedPause(address)": {
        "notice": "Emit an event when the owner renounces ability to pause the contract"
      },
      "ownerSetterSyndicateFeeAddress(address,uint256)": {
        "notice": "Emit an event when the owner of the contract sets a new contract fee address"
      }
    },
    "kind": "user",
    "methods": {
      "getAddress(bytes32)": {
        "notice": "Getter for the address that a contract is deployed at"
      },
      "hash(string)": {
        "notice": "Computes and returns the hash of provided string for use in functions that only accept hashed strings as parameters"
      },
      "ownerPauseContract()": {
        "notice": "Emergency pause function that can only be triggered by the contract ownerIts purpose is to pause functions with the whenNotPaused() modifier.  All other functions will work when paused"
      },
      "ownerRenounceOwnership()": {
        "notice": "Renounce ownership of the contractIf necessary, unpauses the contract before ownership is renounced to ensure that functions with the whenNotPaused() modifier are not locked"
      },
      "ownerRenouncePause()": {
        "notice": "Used by the owner to renounce ability to pause the contractIf necessary, unpauses the contract before ownership is renounced to ensure that functions with the whenNotPaused() modifier are not locked"
      },
      "ownerSetSyndicateFeeAddress(address)": {
        "notice": "set a new fee address for the contract function that can only be triggered by the contract owner."
      },
      "ownerTransferOwnership(address)": {
        "notice": "Transfers ownership to the provided address."
      },
      "ownerUnpauseContract()": {
        "notice": "Emergency unpause function that can only be triggered by the contract ownerIts purpose is to unpause functions with the whenNotPaused() modifier.  All other functions will work when paused"
      },
      "removeContract(bytes32)": {
        "notice": "Remove a contract"
      },
      "upsertContracts(bytes32[],address[])": {
        "notice": "Add or update contract/address pairs."
      }
    },
    "notice": "Stores contract/address pairs of deployed Syndicate contracts.",
    "version": 1
  }
}