{
  "contractName": "SyndicateClosedEndFundDistributionLogicV0",
  "abi": [
    {
      "inputs": [
        {
          "internalType": "address",
          "name": "owner",
          "type": "address"
        },
        {
          "internalType": "address",
          "name": "storeAddress",
          "type": "address"
        }
      ],
      "stateMutability": "nonpayable",
      "type": "constructor"
    },
    {
      "anonymous": false,
      "inputs": [
        {
          "indexed": true,
          "internalType": "address",
          "name": "syndicateAddress",
          "type": "address"
        },
        {
          "indexed": true,
          "internalType": "address",
          "name": "distributionERC20Address",
          "type": "address"
        },
        {
          "indexed": false,
          "internalType": "uint256",
          "name": "amountToMembers",
          "type": "uint256"
        },
        {
          "indexed": false,
          "internalType": "uint256",
          "name": "amountToSyndicate",
          "type": "uint256"
        },
        {
          "indexed": false,
          "internalType": "uint256",
          "name": "amountToManager",
          "type": "uint256"
        }
      ],
      "name": "DistributionAdded",
      "type": "event"
    },
    {
      "anonymous": false,
      "inputs": [
        {
          "indexed": true,
          "internalType": "address",
          "name": "syndicateAddress",
          "type": "address"
        },
        {
          "indexed": true,
          "internalType": "address",
          "name": "distributionERC20Address",
          "type": "address"
        },
        {
          "indexed": true,
          "internalType": "address",
          "name": "memberAddress",
          "type": "address"
        },
        {
          "indexed": false,
          "internalType": "uint256",
          "name": "amount",
          "type": "uint256"
        },
        {
          "indexed": false,
          "internalType": "string",
          "name": "actor",
          "type": "string"
        }
      ],
      "name": "DistributionClaimed",
      "type": "event"
    },
    {
      "anonymous": false,
      "inputs": [
        {
          "indexed": true,
          "internalType": "address",
          "name": "syndicateAddress",
          "type": "address"
        },
        {
          "indexed": true,
          "internalType": "address",
          "name": "distributionERC20Address",
          "type": "address"
        }
      ],
      "name": "DistributionERC20AddressAdded",
      "type": "event"
    },
    {
      "anonymous": false,
      "inputs": [
        {
          "indexed": true,
          "internalType": "address",
          "name": "previousOwner",
          "type": "address"
        },
        {
          "indexed": true,
          "internalType": "address",
          "name": "newOwner",
          "type": "address"
        }
      ],
      "name": "OwnershipTransferred",
      "type": "event"
    },
    {
      "anonymous": false,
      "inputs": [
        {
          "indexed": true,
          "internalType": "address",
          "name": "contractFeeAddress",
          "type": "address"
        }
      ],
      "name": "SyndicateFeeAddressUpdated",
      "type": "event"
    },
    {
      "inputs": [],
      "name": "BASIS_POINTS_DENOMINATOR",
      "outputs": [
        {
          "internalType": "uint256",
          "name": "",
          "type": "uint256"
        }
      ],
      "stateMutability": "view",
      "type": "function"
    },
    {
      "inputs": [],
      "name": "getSyndicateFeeAddress",
      "outputs": [
        {
          "internalType": "address",
          "name": "",
          "type": "address"
        }
      ],
      "stateMutability": "view",
      "type": "function"
    },
    {
      "inputs": [],
      "name": "owner",
      "outputs": [
        {
          "internalType": "address",
          "name": "",
          "type": "address"
        }
      ],
      "stateMutability": "view",
      "type": "function"
    },
    {
      "inputs": [],
      "name": "ownerRenounceOwnership",
      "outputs": [],
      "stateMutability": "nonpayable",
      "type": "function"
    },
    {
      "inputs": [
        {
          "internalType": "address",
          "name": "feeAddress",
          "type": "address"
        }
      ],
      "name": "ownerSetSyndicateFeeAddress",
      "outputs": [],
      "stateMutability": "nonpayable",
      "type": "function"
    },
    {
      "inputs": [
        {
          "internalType": "address",
          "name": "newOwner",
          "type": "address"
        }
      ],
      "name": "ownerTransferOwnership",
      "outputs": [],
      "stateMutability": "nonpayable",
      "type": "function"
    },
    {
      "inputs": [],
      "name": "renounceOwnership",
      "outputs": [],
      "stateMutability": "nonpayable",
      "type": "function"
    },
    {
      "inputs": [
        {
          "internalType": "address",
          "name": "newOwner",
          "type": "address"
        }
      ],
      "name": "transferOwnership",
      "outputs": [],
      "stateMutability": "nonpayable",
      "type": "function"
    },
    {
      "inputs": [
        {
          "internalType": "address",
          "name": "syndicateAddress",
          "type": "address"
        },
        {
          "internalType": "address[]",
          "name": "distributionERC20Addresses",
          "type": "address[]"
        },
        {
          "internalType": "uint256[]",
          "name": "amounts",
          "type": "uint256[]"
        }
      ],
      "name": "managerSetDistributions",
      "outputs": [],
      "stateMutability": "nonpayable",
      "type": "function"
    },
    {
      "inputs": [
        {
          "internalType": "address",
          "name": "syndicateAddress",
          "type": "address"
        },
        {
          "internalType": "address[]",
          "name": "distributionERC20Addresses",
          "type": "address[]"
        },
        {
          "internalType": "address[]",
          "name": "memberAddresses",
          "type": "address[]"
        },
        {
          "internalType": "uint256[]",
          "name": "amounts",
          "type": "uint256[]"
        }
      ],
      "name": "managerSetDistributionsClaimedForMembers",
      "outputs": [],
      "stateMutability": "nonpayable",
      "type": "function"
    },
    {
      "inputs": [
        {
          "internalType": "address",
          "name": "syndicateAddress",
          "type": "address"
        },
        {
          "internalType": "address[]",
          "name": "distributionERC20Addresses",
          "type": "address[]"
        },
        {
          "internalType": "uint256[]",
          "name": "amounts",
          "type": "uint256[]"
        }
      ],
      "name": "memberClaimDistributions",
      "outputs": [],
      "stateMutability": "nonpayable",
      "type": "function"
    },
    {
      "inputs": [
        {
          "internalType": "address",
          "name": "syndicateAddress",
          "type": "address"
        },
        {
          "internalType": "address",
          "name": "distributionERC20Address",
          "type": "address"
        }
      ],
      "name": "getDistributionTotal",
      "outputs": [
        {
          "internalType": "uint256",
          "name": "",
          "type": "uint256"
        }
      ],
      "stateMutability": "view",
      "type": "function"
    },
    {
      "inputs": [
        {
          "internalType": "address",
          "name": "syndicateAddress",
          "type": "address"
        },
        {
          "internalType": "address",
          "name": "distributionERC20Address",
          "type": "address"
        },
        {
          "internalType": "address",
          "name": "memberAddress",
          "type": "address"
        }
      ],
      "name": "getDistributionClaimedMember",
      "outputs": [
        {
          "internalType": "uint256",
          "name": "",
          "type": "uint256"
        }
      ],
      "stateMutability": "view",
      "type": "function"
    },
    {
      "inputs": [
        {
          "internalType": "address",
          "name": "syndicateAddress",
          "type": "address"
        },
        {
          "internalType": "address",
          "name": "distributionERC20Address",
          "type": "address"
        },
        {
          "internalType": "address",
          "name": "memberAddress",
          "type": "address"
        }
      ],
      "name": "getDistributionUnclaimedMember",
      "outputs": [
        {
          "internalType": "uint256",
          "name": "",
          "type": "uint256"
        }
      ],
      "stateMutability": "view",
      "type": "function"
    },
    {
      "inputs": [
        {
          "internalType": "address",
          "name": "syndicateAddress",
          "type": "address"
        },
        {
          "internalType": "address",
          "name": "distributionERC20Address",
          "type": "address"
        }
      ],
      "name": "getDistributionClaimedTotal",
      "outputs": [
        {
          "internalType": "uint256",
          "name": "",
          "type": "uint256"
        }
      ],
      "stateMutability": "view",
      "type": "function"
    },
    {
      "inputs": [
        {
          "internalType": "uint256",
          "name": "depositMember",
          "type": "uint256"
        },
        {
          "internalType": "uint256",
          "name": "depositTotal",
          "type": "uint256"
        },
        {
          "internalType": "uint256",
          "name": "distributionClaimedMember",
          "type": "uint256"
        },
        {
          "internalType": "uint256",
          "name": "distributionTotal",
          "type": "uint256"
        }
      ],
      "name": "calculateEligibleDistribution",
      "outputs": [
        {
          "internalType": "uint256",
          "name": "",
          "type": "uint256"
        }
      ],
      "stateMutability": "pure",
      "type": "function"
    },
    {
      "inputs": [
        {
          "internalType": "uint256",
          "name": "amount",
          "type": "uint256"
        },
        {
          "internalType": "uint256",
          "name": "syndicateDistributionShareBasisPoints",
          "type": "uint256"
        },
        {
          "internalType": "uint256",
          "name": "managerDistributionShareBasisPoints",
          "type": "uint256"
        }
      ],
      "name": "calculateDistributionShares",
      "outputs": [
        {
          "internalType": "uint256",
          "name": "",
          "type": "uint256"
        },
        {
          "internalType": "uint256",
          "name": "",
          "type": "uint256"
        },
        {
          "internalType": "uint256",
          "name": "",
          "type": "uint256"
        }
      ],
      "stateMutability": "pure",
      "type": "function"
    }
  ],
  "bytecode": "0x6080604052600280546001600160a01b0319167340db79f7f18c468c6552538b488c58b5e72bf4d91790553480156200003757600080fd5b5060405162002500380380620025008339810160408190526200005a91620001fa565b6001600081815581546001600160a01b03191633908117909255604051849284928492829190600080516020620024e0833981519152908290a350620000a081620000cb565b50600380546001600160a01b0319166001600160a01b03929092169190911790555062000232915050565b6001546001600160a01b031633146200012b5760405162461bcd60e51b815260206004820181905260248201527f4f776e61626c653a2063616c6c6572206973206e6f7420746865206f776e657260448201526064015b60405180910390fd5b6001600160a01b038116620001925760405162461bcd60e51b815260206004820152602660248201527f4f776e61626c653a206e6577206f776e657220697320746865207a65726f206160448201526564647265737360d01b606482015260840162000122565b6001546040516001600160a01b03808416921690600080516020620024e083398151915290600090a3600180546001600160a01b0319166001600160a01b0392909216919091179055565b80516001600160a01b0381168114620001f557600080fd5b919050565b600080604083850312156200020e57600080fd5b6200021983620001dd565b91506200022960208401620001dd565b90509250929050565b61229e80620002426000396000f3fe608060405234801561001057600080fd5b506004361061010b5760003560e01c8063a09cca93116100a2578063c8c09b6511610071578063c8c09b6514610220578063cad0a37314610233578063cfa498a314610244578063f2fde38b1461024d578063f8e5aa951461026057600080fd5b8063a09cca93146101d4578063b4e121db146101e7578063bd0b6514146101fa578063bfd9a7e11461020d57600080fd5b8063715018a6116100de578063715018a614610171578063748525531461017957806381abf408146101a75780638da5cb5b146101af57600080fd5b80630bff3a7914610110578063373b2a261461013657806361829dfe1461014b578063707e41cd1461015e575b600080fd5b61012361011e366004611ee7565b610273565b6040519081526020015b60405180910390f35b610149610144366004611f32565b610309565b005b610123610159366004611eae565b6103f6565b61012361016c3660046120c9565b610480565b6101496104bb565b61018c61018736600461209d565b61052f565b6040805193845260208401929092529082015260600161012d565b6101496105e3565b6001546001600160a01b03165b6040516001600160a01b03909116815260200161012d565b6101496101e2366004611e74565b610617565b6101496101f5366004611fdf565b61064d565b610149610208366004611fdf565b6106f3565b61014961021b366004611e74565b61093c565b61012361022e366004611eae565b6109b0565b6002546001600160a01b03166101bc565b61012361271081565b61014961025b366004611e74565b6109e2565b61012361026e366004611ee7565b610acd565b60035460405163a948191b60e01b81526001600160a01b03858116600483015284811660248301528381166044830152600092169063a948191b9060640160206040518083038186803b1580156102c957600080fd5b505afa1580156102dd573d6000803e3d6000fd5b505050506040513d601f19601f820116820180604052508101906103019190612084565b949350505050565b8661031381610c53565b8761031d81610d1e565b8861032781610dd3565b858414801561033557508784145b61035a5760405162461bcd60e51b815260040161035190612139565b60405180910390fd5b60005b868110156103e9576103d78b8b8b8481811061037b5761037b61223d565b90506020020160208101906103909190611e74565b8a8a858181106103a2576103a261223d565b90506020020160208101906103b79190611e74565b8989868181106103c9576103c961223d565b905060200201356001610e91565b806103e18161220c565b91505061035d565b5050505050505050505050565b6003546040516308d2205560e31b81526000916001600160a01b03169063469102a89061042990869086906004016120fb565b60206040518083038186803b15801561044157600080fd5b505afa158015610455573d6000803e3d6000fd5b505050506040513d601f19601f820116820180604052508101906104799190612084565b9392505050565b60008361048f57506000610301565b6000838561049d85896121d6565b6104a791906121b4565b6104b191906121f5565b9695505050505050565b6001546001600160a01b031633146104e55760405162461bcd60e51b815260040161035190612167565b6001546040516000916001600160a01b0316907f8be0079c531659141344cd1fd0a4f28419497f9722a3daafe3b4186f6b6457e0908390a3600180546001600160a01b0319169055565b600080808061271061054187896121d6565b61054b91906121b4565b9050600061271061055c878a6121d6565b61056691906121b4565b9050600082610575838b6121f5565b61057f91906121f5565b90508161058c848361219c565b610596919061219c565b89146105d65760405162461bcd60e51b815260206004820152600f60248201526e11915157d0d05310d7d19052531151608a1b6044820152606401610351565b9891975095509350505050565b6001546001600160a01b0316331461060d5760405162461bcd60e51b815260040161035190612167565b6106156104bb565b565b6001546001600160a01b031633146106415760405162461bcd60e51b815260040161035190612167565b61064a816109e2565b50565b846106578161169e565b8561066181610d1e565b8483146106805760405162461bcd60e51b815260040161035190612139565b60005b858110156106e9576106d7888888848181106106a1576106a161223d565b90506020020160208101906106b69190611e74565b338888868181106106c9576106c961223d565b905060200201356000610e91565b806106e18161220c565b915050610683565b5050505050505050565b846106fd81610c53565b8561070781610d1e565b8483146107265760405162461bcd60e51b815260040161035190612139565b600354604051630622493160e41b81526001600160a01b0389811660048301529091169063622493109060240160206040518083038186803b15801561076b57600080fd5b505afa15801561077f573d6000803e3d6000fd5b505050506040513d601f19601f820116820180604052508101906107a39190612062565b6108d657600354604051630dc35bbb60e41b81526001600160a01b038981166004830152600092169063dc35bbb09060240160206040518083038186803b1580156107ed57600080fd5b505afa158015610801573d6000803e3d6000fd5b505050506040513d601f19601f820116820180604052508101906108259190611e91565b6001600160a01b0316141561086f5760405162461bcd60e51b815260206004820152601060248201526f11915157d051111497d393d517d4d15560821b6044820152606401610351565b6003546040516365fc5f8b60e11b81526001600160a01b038981166004830152600160248301529091169063cbf8bf1690604401600060405180830381600087803b1580156108bd57600080fd5b505af11580156108d1573d6000803e3d6000fd5b505050505b60005b858110156106e95761092a888888848181106108f7576108f761223d565b905060200201602081019061090c9190611e74565b87878581811061091e5761091e61223d565b9050602002013561176a565b806109348161220c565b9150506108d9565b6001546001600160a01b031633146109665760405162461bcd60e51b815260040161035190612167565b600280546001600160a01b0319166001600160a01b0383169081179091556040517fcf41d0875fade187fa408cd5e4f56e25cda2fae1cff91d42f08c1db396349a2d90600090a250565b60035460405162c0219760e51b81526000916001600160a01b03169063180432e09061042990869086906004016120fb565b6001546001600160a01b03163314610a0c5760405162461bcd60e51b815260040161035190612167565b6001600160a01b038116610a715760405162461bcd60e51b815260206004820152602660248201527f4f776e61626c653a206e6577206f776e657220697320746865207a65726f206160448201526564647265737360d01b6064820152608401610351565b6001546040516001600160a01b038084169216907f8be0079c531659141344cd1fd0a4f28419497f9722a3daafe3b4186f6b6457e090600090a3600180546001600160a01b0319166001600160a01b0392909216919091179055565b600354604051630181a99d60e41b8152600091829182918291829182916001600160a01b039091169063181a99d090610b0c908c908b906004016120fb565b60206040518083038186803b158015610b2457600080fd5b505afa158015610b38573d6000803e3d6000fd5b505050506040513d601f19601f82011682018060405250810190610b5c9190612084565b6003546040516335869d0960e11b81526001600160a01b038c81166004830152929750911690636b0d3a129060240160206040518083038186803b158015610ba357600080fd5b505afa158015610bb7573d6000803e3d6000fd5b505050506040513d601f19601f82011682018060405250810190610bdb9190612084565b9350610be8898989610273565b9250610bf489896109b0565b9150610c0285858585610480565b905060008111610c475760405162461bcd60e51b815260206004820152601060248201526f1393d7d1531251d250931157d11254d560821b6044820152606401610351565b98975050505050505050565b600354604051630e8aef6f60e41b81526001600160a01b0383811660048301529091169063e8aef6f09060240160206040518083038186803b158015610c9857600080fd5b505afa158015610cac573d6000803e3d6000fd5b505050506040513d601f19601f82011682018060405250810190610cd09190611e91565b6001600160a01b0316336001600160a01b03161461064a5760405162461bcd60e51b815260206004820152600b60248201526a29a2292fa727aa2fa6a3a960a91b6044820152606401610351565b60035460405163172a8c1f60e31b81526001600160a01b0383811660048301529091169063b95460f89060240160206040518083038186803b158015610d6357600080fd5b505afa158015610d77573d6000803e3d6000fd5b505050506040513d601f19601f82011682018060405250810190610d9b9190612062565b1561064a5760405162461bcd60e51b815260206004820152600860248201526729aca72fa7a822a760c11b6044820152606401610351565b60035460405163adc1017f60e01b81526001600160a01b0383811660048301529091169063adc1017f9060240160206040518083038186803b158015610e1857600080fd5b505afa158015610e2c573d6000803e3d6000fd5b505050506040513d601f19601f82011682018060405250810190610e509190612062565b61064a5760405162461bcd60e51b815260206004820152601260248201527153594e5f4e4f545f4d4f4449464941424c4560701b6044820152606401610351565b610e99611d68565b600354604051630622493160e41b81526001600160a01b0387811660048301529091169063622493109060240160206040518083038186803b158015610ede57600080fd5b505afa158015610ef2573d6000803e3d6000fd5b505050506040513d601f19601f82011682018060405250810190610f169190612062565b610f595760405162461bcd60e51b815260206004820152601460248201527353594e5f4e4f545f444953545249425554494e4760601b6044820152606401610351565b60035460405163653414e160e01b81526001600160a01b039091169063653414e190610f8b90889088906004016120fb565b60206040518083038186803b158015610fa357600080fd5b505afa158015610fb7573d6000803e3d6000fd5b505050506040513d601f19601f82011682018060405250810190610fdb9190612062565b61101a5760405162461bcd60e51b815260206004820152601060248201526f04e4f5f444953545f41545f45524332360841b6044820152606401610351565b600082116110545760405162461bcd60e51b81526020600482015260076024820152660444953543c3d360cc1b6044820152606401610351565b600354604051630181a99d60e41b8152611263916001600160a01b03169063181a99d09061108890899088906004016120fb565b60206040518083038186803b1580156110a057600080fd5b505afa1580156110b4573d6000803e3d6000fd5b505050506040513d601f19601f820116820180604052508101906110d89190612084565b6003546040516335869d0960e11b81526001600160a01b03898116600483015290911690636b0d3a129060240160206040518083038186803b15801561111d57600080fd5b505afa158015611131573d6000803e3d6000fd5b505050506040513d601f19601f820116820180604052508101906111559190612084565b60035460405163a948191b60e01b81526001600160a01b038a81166004830152898116602483015288811660448301529091169063a948191b9060640160206040518083038186803b1580156111aa57600080fd5b505afa1580156111be573d6000803e3d6000fd5b505050506040513d601f19601f820116820180604052508101906111e29190612084565b60035460405162c0219760e51b81526001600160a01b039091169063180432e090611213908c908c906004016120fb565b60206040518083038186803b15801561122b57600080fd5b505afa15801561123f573d6000803e3d6000fd5b505050506040513d601f19601f8201168201806040525081019061016c9190612084565b8211156112a25760405162461bcd60e51b815260206004820152600d60248201526c444953543e454c494749424c4560981b6044820152606401610351565b60035460405163a948191b60e01b81526001600160a01b038781166004830152868116602483015285811660448301529091169063da375d17908790879087908790869063a948191b9060640160206040518083038186803b15801561130757600080fd5b505afa15801561131b573d6000803e3d6000fd5b505050506040513d601f19601f8201168201806040525081019061133f9190612084565b611349919061219c565b6040516001600160e01b031960e087901b1681526001600160a01b0394851660048201529284166024840152921660448201526064810191909152608401600060405180830381600087803b1580156113a157600080fd5b505af11580156113b5573d6000803e3d6000fd5b50506003546040516308d2205560e31b81526001600160a01b03909116925063e58eb85c9150879087908690859063469102a8906113f990869086906004016120fb565b60206040518083038186803b15801561141157600080fd5b505afa158015611425573d6000803e3d6000fd5b505050506040513d601f19601f820116820180604052508101906114499190612084565b611453919061219c565b6040518463ffffffff1660e01b815260040161147193929190612115565b600060405180830381600087803b15801561148b57600080fd5b505af115801561149f573d6000803e3d6000fd5b50505050801561152457826001600160a01b0316846001600160a01b0316866001600160a01b03167feec8c53c2b98e687fb1cad9a6cc1213f1316f4c8c7d96a440c2740858deaf1e4856040516115179181526040602082018190526007908201526636b0b730b3b2b960c91b606082015260800190565b60405180910390a4611697565b600354604051630e8aef6f60e41b81526001600160a01b0387811660048301528692818416926323b872dd929091169063e8aef6f09060240160206040518083038186803b15801561157557600080fd5b505afa158015611589573d6000803e3d6000fd5b505050506040513d601f19601f820116820180604052508101906115ad9190611e91565b86866040518463ffffffff1660e01b81526004016115cd93929190612115565b602060405180830381600087803b1580156115e757600080fd5b505af11580156115fb573d6000803e3d6000fd5b505050506040513d601f19601f8201168201806040525081019061161f9190612062565b50836001600160a01b0316856001600160a01b0316876001600160a01b03167feec8c53c2b98e687fb1cad9a6cc1213f1316f4c8c7d96a440c2740858deaf1e48660405161168d9181526040602082018190526006908201526536b2b6b132b960d11b606082015260800190565b60405180910390a4505b5050505050565b600354604051630e8aef6f60e41b81526001600160a01b0383811660048301529091169063e8aef6f09060240160206040518083038186803b1580156116e357600080fd5b505afa1580156116f7573d6000803e3d6000fd5b505050506040513d601f19601f8201168201806040525081019061171b9190611e91565b6001600160a01b0316336001600160a01b0316141561064a5760405162461bcd60e51b815260206004820152600b60248201526a29a2292fa727aa2fa6a12960a91b6044820152606401610351565b611772611d68565b60035460405163653414e160e01b815283916001600160a01b03169063653414e1906117a490879085906004016120fb565b60206040518083038186803b1580156117bc57600080fd5b505afa1580156117d0573d6000803e3d6000fd5b505050506040513d601f19601f820116820180604052508101906117f49190612062565b61189f57600354604051635170da1760e11b81526001600160a01b0386811660048301528581166024830152600160448301529091169063a2e1b42e90606401600060405180830381600087803b15801561184e57600080fd5b505af1158015611862573d6000803e3d6000fd5b50506040516001600160a01b038087169350871691507f23df2b5b5b8893a8ce300ac5b5ec3958b91a54a8ccd3f74963980399809a5f9990600090a35b60035460405163deebf2eb60e01b81526001600160a01b038681166004830152600092839283926119a592889291169063deebf2eb9060240160206040518083038186803b1580156118f057600080fd5b505afa158015611904573d6000803e3d6000fd5b505050506040513d601f19601f820116820180604052508101906119289190612084565b6003546040516397cc677160e01b81526001600160a01b038c81166004830152909116906397cc67719060240160206040518083038186803b15801561196d57600080fd5b505afa158015611981573d6000803e3d6000fd5b505050506040513d601f19601f820116820180604052508101906101879190612084565b60035460405162c0219760e51b815293965091945092506001600160a01b0316906314551a7690899089908790859063180432e0906119ea90869086906004016120fb565b60206040518083038186803b158015611a0257600080fd5b505afa158015611a16573d6000803e3d6000fd5b505050506040513d601f19601f82011682018060405250810190611a3a9190612084565b611a44919061219c565b6040518463ffffffff1660e01b8152600401611a6293929190612115565b600060405180830381600087803b158015611a7c57600080fd5b505af1158015611a90573d6000803e3d6000fd5b5050600354604051630e8aef6f60e41b81526001600160a01b038b8116600483015288811694506323b872dd93509091169063e8aef6f09060240160206040518083038186803b158015611ae357600080fd5b505afa158015611af7573d6000803e3d6000fd5b505050506040513d601f19601f82011682018060405250810190611b1b9190611e91565b6002546001600160a01b0316856040518463ffffffff1660e01b8152600401611b4693929190612115565b602060405180830381600087803b158015611b6057600080fd5b505af1158015611b74573d6000803e3d6000fd5b505050506040513d601f19601f82011682018060405250810190611b989190612062565b50600354604051630e8aef6f60e41b81526001600160a01b038981166004830152868116926323b872dd9291169063e8aef6f09060240160206040518083038186803b158015611be757600080fd5b505afa158015611bfb573d6000803e3d6000fd5b505050506040513d601f19601f82011682018060405250810190611c1f9190611e91565b600354604051630dc35bbb60e41b81526001600160a01b038c811660048301529091169063dc35bbb09060240160206040518083038186803b158015611c6457600080fd5b505afa158015611c78573d6000803e3d6000fd5b505050506040513d601f19601f82011682018060405250810190611c9c9190611e91565b846040518463ffffffff1660e01b8152600401611cbb93929190612115565b602060405180830381600087803b158015611cd557600080fd5b505af1158015611ce9573d6000803e3d6000fd5b505050506040513d601f19601f82011682018060405250810190611d0d9190612062565b5060408051848152602081018490529081018290526001600160a01b0380881691908916907fbb69d709c1d3a1e6977dbee16fdd00c91bdd0490a37d2d30005ae2783d8e56aa9060600160405180910390a350505050505050565b60035460405163ad74c29960e01b81523060048201526001600160a01b039091169063ad74c2999060240160206040518083038186803b158015611dab57600080fd5b505afa158015611dbf573d6000803e3d6000fd5b505050506040513d601f19601f82011682018060405250810190611de39190612062565b6106155760405162461bcd60e51b81526020600482015260166024820152751253959053125117d313d1d250d7d0d3d395149050d560521b6044820152606401610351565b60008083601f840112611e3a57600080fd5b50813567ffffffffffffffff811115611e5257600080fd5b6020830191508360208260051b8501011115611e6d57600080fd5b9250929050565b600060208284031215611e8657600080fd5b813561047981612253565b600060208284031215611ea357600080fd5b815161047981612253565b60008060408385031215611ec157600080fd5b8235611ecc81612253565b91506020830135611edc81612253565b809150509250929050565b600080600060608486031215611efc57600080fd5b8335611f0781612253565b92506020840135611f1781612253565b91506040840135611f2781612253565b809150509250925092565b60008060008060008060006080888a031215611f4d57600080fd5b8735611f5881612253565b9650602088013567ffffffffffffffff80821115611f7557600080fd5b611f818b838c01611e28565b909850965060408a0135915080821115611f9a57600080fd5b611fa68b838c01611e28565b909650945060608a0135915080821115611fbf57600080fd5b50611fcc8a828b01611e28565b989b979a50959850939692959293505050565b600080600080600060608688031215611ff757600080fd5b853561200281612253565b9450602086013567ffffffffffffffff8082111561201f57600080fd5b61202b89838a01611e28565b9096509450604088013591508082111561204457600080fd5b5061205188828901611e28565b969995985093965092949392505050565b60006020828403121561207457600080fd5b8151801515811461047957600080fd5b60006020828403121561209657600080fd5b5051919050565b6000806000606084860312156120b257600080fd5b505081359360208301359350604090920135919050565b600080600080608085870312156120df57600080fd5b5050823594602084013594506040840135936060013592509050565b6001600160a01b0392831681529116602082015260400190565b6001600160a01b039384168152919092166020820152604081019190915260600190565b60208082526014908201527320a92920acafa622a723aa2429afa224a32322a960611b604082015260600190565b6020808252818101527f4f776e61626c653a2063616c6c6572206973206e6f7420746865206f776e6572604082015260600190565b600082198211156121af576121af612227565b500190565b6000826121d157634e487b7160e01b600052601260045260246000fd5b500490565b60008160001904831182151516156121f0576121f0612227565b500290565b60008282101561220757612207612227565b500390565b600060001982141561222057612220612227565b5060010190565b634e487b7160e01b600052601160045260246000fd5b634e487b7160e01b600052603260045260246000fd5b6001600160a01b038116811461064a57600080fdfea264697066735822122082b6f223d89192a6e4bd3f8566a045c7a7e481f7f9a952feb99891ca1e16904864736f6c634300080600338be0079c531659141344cd1fd0a4f28419497f9722a3daafe3b4186f6b6457e0",
  "immutableReferences": {},
  "source": "// SPDX-License-Identifier: UNLICENSED\n\npragma solidity ^0.8.0;\n\nimport \"@openzeppelin/contracts/token/ERC20/utils/SafeERC20.sol\";\nimport \"./SyndicateClosedEndFundLogic.sol\";\nimport \"./interfaces/ISyndicateClosedEndFundDistributionLogicV0.sol\";\n\n/// @author Syndicate Inc.\n/// @notice Handle member distribution accounting and ERC20 transfers\ncontract SyndicateClosedEndFundDistributionLogicV0 is\n    ISyndicateClosedEndFundDistributionLogicV0,\n    SyndicateClosedEndFundLogic\n{\n    using SafeERC20 for IERC20;\n\n    /// @notice Used to initialize the Syndicate contract.\n    constructor(address owner, address storeAddress)\n        SyndicateClosedEndFundLogic(owner, storeAddress)\n    {}\n\n    // Events-------------------------------------------------------------------\n\n    /// @notice A manager sets a distribution for a new ERC20 address.\n    /// This is called by `managerSetDistributions()` the first time a\n    /// distribution is set for a particular ERC20 address.\n    event DistributionERC20AddressAdded(\n        address indexed syndicateAddress,\n        address indexed distributionERC20Address\n    );\n\n    /// @notice A manager sets a distribution. It is important that the manager\n    /// holds such distribution assets in their wallet for members to claim.\n    event DistributionAdded(\n        address indexed syndicateAddress,\n        address indexed distributionERC20Address,\n        uint256 amountToMembers,\n        uint256 amountToSyndicate,\n        uint256 amountToManager\n    );\n\n    /// @notice A member claims a distribution by withdrawing their assets or a\n    /// manager sets a distribution claimed on behalf of a member. Managers\n    /// can only claim a distribution for a member on modifiable syndicates.\n    /// @dev `actor` is used to differentiate between who is triggering the\n    /// event emission. Current options are \"member\" and \"manager\", but more\n    /// may be introduced (e.g. \"integration\").\n    event DistributionClaimed(\n        address indexed syndicateAddress,\n        address indexed distributionERC20Address,\n        address indexed memberAddress,\n        uint256 amount,\n        string actor\n    );\n\n    // Functions----------------------------------------------------------------\n\n    /// @notice Used by a manager to initialize or increase the available\n    /// distributions for multiple ERC20 tokens after a Syndicate has been\n    /// closed.\n    /// @param syndicateAddress The address of the Syndicate\n    /// @param distributionERC20Addresses The ERC20 contract addresses of the\n    /// distributions. Distributions can be set for any ERC20 token, including\n    /// the deposit token.\n    /// @param amounts The amounts to be added to the available distributions\n    /// of each ERC20 token indexed in `distributionERC20Addresses`. This array\n    /// must have the same length as `distributionERC20Addresses`.\n    function managerSetDistributions(\n        address syndicateAddress,\n        address[] calldata distributionERC20Addresses,\n        uint256[] calldata amounts\n    )\n        public\n        override\n        onlyManager(syndicateAddress)\n        onlyClosed(syndicateAddress)\n    {\n        // Both passed-in arrays must have the same length\n        require(\n            distributionERC20Addresses.length == amounts.length,\n            \"ARRAY_LENGTHS_DIFFER\"\n        );\n\n        // Enable distributions if they are currently disabled\n        if (!store.distributing(syndicateAddress)) {\n            require(\n                store.managerFeeAddress(syndicateAddress) != address(0),\n                \"FEE_ADDR_NOT_SET\"\n            );\n            store.setDistributing(syndicateAddress, true);\n        }\n\n        for (uint256 i = 0; i < distributionERC20Addresses.length; i++) {\n            _setDistribution(\n                syndicateAddress,\n                distributionERC20Addresses[i],\n                amounts[i]\n            );\n        }\n    }\n\n    /// @notice Used by a manager to modify the claimed distribution amount for\n    /// a given member address\n    /// @param syndicateAddress The address of the Syndicate\n    /// @param memberAddresses The addresses of the members whose info is being\n    /// set.\n    /// @param distributionERC20Addresses The ERC20 contract addresses of the\n    /// distribution.\n    /// @param amounts The amounts to increase the claimed distribution of the\n    /// corresponding index in memberAddresses. All paramter arrays must match\n    /// exactly in length.\n    /// @notice This function can only be called if the Syndicate is modifiable.\n    /// The modifiable boolean is set by the manager on creation and cannot be\n    /// changed after the Syndicate is created.\n    /// @notice Claimed distributions can only be raised. If we allowed a\n    /// manager to lower a member's claimed distributions, the manager's token\n    /// allowance and token balance may not be enough to cover all future\n    /// distributions.\n    /// @notice Claimed distributions cannot exceed the member's eligible\n    /// distributions as calculated from their deposit. If we allowed a manager\n    /// to raise a member's claimed distributions above their eligible\n    /// distributions, we would have to adjust `distributionTotal` accordingly\n    /// and this would result in every other member being eligible for an\n    /// additional distribution, which the manager may not have a sufficient\n    /// allowance/balance to cover.\n    /// @notice This function can only be called after distributions are\n    /// enabled. Before distributions are enabled, there is no reason to call\n    /// this function since there are no distributions available to claim.\n    function managerSetDistributionsClaimedForMembers(\n        address syndicateAddress,\n        address[] calldata distributionERC20Addresses,\n        address[] calldata memberAddresses,\n        uint256[] calldata amounts\n    )\n        public\n        override\n        onlyManager(syndicateAddress)\n        onlyClosed(syndicateAddress)\n        onlyModifiable(syndicateAddress)\n    {\n        // All three passed-in arrays must have the same length\n        require(\n            memberAddresses.length == amounts.length &&\n                distributionERC20Addresses.length == amounts.length,\n            \"ARRAY_LENGTHS_DIFFER\"\n        );\n\n        for (uint256 i = 0; i < memberAddresses.length; i++) {\n            _claimDistribution(\n                syndicateAddress,\n                distributionERC20Addresses[i],\n                memberAddresses[i],\n                amounts[i],\n                true\n            );\n        }\n    }\n\n    /// @param syndicateAddress The Syndicate that a member will claim\n    /// distributions from\n    /// @param distributionERC20Addresses The token types to be transferred\n    /// from the Syndicate to the member. Members may only claim distributions\n    /// from ERC20 contract addresses that the manager has set for distribution.\n    /// @param amounts The amounts (in token types specified by\n    /// `distributionERC20Addresses`) to be claimed\n    /// @notice The member is identified via `msg.sender`. This function must\n    /// be called from the address associated with the member's deposit.\n    /// @notice This function may only be called after the Syndicate is closed\n    /// by the manager, though the Syndicate may be closed for some time before\n    /// a distribution is set (e.g. after funds have been raised but while they\n    /// are being used for investments)\n    /// @dev Distribution claims are processed before any fees that an ERC20\n    /// token may assess. The amount that all users receive may be lower if an\n    /// ERC20 token takes a fee upon transfers.\n    function memberClaimDistributions(\n        address syndicateAddress,\n        address[] calldata distributionERC20Addresses,\n        uint256[] calldata amounts\n    )\n        public\n        override\n        onlyNotManager(syndicateAddress)\n        onlyClosed(syndicateAddress)\n    {\n        // Both passed-in arrays must have the same length\n        require(\n            distributionERC20Addresses.length == amounts.length,\n            \"ARRAY_LENGTHS_DIFFER\"\n        );\n\n        for (uint256 i = 0; i < distributionERC20Addresses.length; i++) {\n            _claimDistribution(\n                syndicateAddress,\n                distributionERC20Addresses[i],\n                msg.sender,\n                amounts[i],\n                false\n            );\n        }\n    }\n\n    /// @notice Get a Syndicate's total distributions for a given ERC20\n    /// @param syndicateAddress The address of the Syndicate\n    /// @param distributionERC20Address The ERC20 address of the token whose\n    /// distributions are being queried\n    /// @return The `distributionTotal` for a given `distributionERC20Address`\n    function getDistributionTotal(\n        address syndicateAddress,\n        address distributionERC20Address\n    ) public view override returns (uint256) {\n        return\n            store.distributionTotal(syndicateAddress, distributionERC20Address);\n    }\n\n    /// @notice Get a member's claimed distributions for a given ERC20\n    /// @param syndicateAddress The address of the Syndicate\n    /// @param memberAddress The address of the member whose info is being\n    /// queried\n    /// @param distributionERC20Address The ERC20 address of the token whose\n    /// distributions are being queried\n    /// @return The distribution claimed by a member for a given\n    /// `distributionERC20Address`\n    function getDistributionClaimedMember(\n        address syndicateAddress,\n        address distributionERC20Address,\n        address memberAddress\n    ) public view override returns (uint256) {\n        return\n            store.distributionClaimedMember(\n                syndicateAddress,\n                distributionERC20Address,\n                memberAddress\n            );\n    }\n\n    /// @notice Get a member's unclaimed distribution for a given ERC20\n    /// @param syndicateAddress The address of the Syndicate\n    /// @param memberAddress The address of the member whose info is being\n    /// queried\n    /// @param distributionERC20Address The ERC20 address of the token whose\n    /// distributions are being queried\n    /// @return The unclaimed distribution for a member for a given\n    /// `distributionERC20Address`\n    function getDistributionUnclaimedMember(\n        address syndicateAddress,\n        address distributionERC20Address,\n        address memberAddress\n    ) public view override returns (uint256) {\n        uint256 depositMember;\n        uint256 depositTotal;\n        uint256 distributionClaimedMember;\n        uint256 distributionTotal;\n        uint256 eligibleDistribution;\n\n        depositMember = store.depositMember(syndicateAddress, memberAddress);\n        depositTotal = store.depositTotal(syndicateAddress);\n        distributionClaimedMember = getDistributionClaimedMember(\n            syndicateAddress,\n            distributionERC20Address,\n            memberAddress\n        );\n        distributionTotal = getDistributionTotal(\n            syndicateAddress,\n            distributionERC20Address\n        );\n\n        eligibleDistribution = calculateEligibleDistribution(\n            depositMember,\n            depositTotal,\n            distributionClaimedMember,\n            distributionTotal\n        );\n        require(eligibleDistribution > 0, \"NO_ELIGIBLE_DIST\");\n\n        return eligibleDistribution;\n    }\n\n    /// @notice Get a Syndicate's total claimed distributions for a given ERC20\n    /// @param syndicateAddress The address of the Syndicate\n    /// @param distributionERC20Address The ERC20 address of the token whose\n    /// distributions are being queried\n    /// @return The `distributionTotal` for a given `distributionERC20Address`\n    function getDistributionClaimedTotal(\n        address syndicateAddress,\n        address distributionERC20Address\n    ) public view override returns (uint256) {\n        return\n            store.distributionClaimedTotal(\n                syndicateAddress,\n                distributionERC20Address\n            );\n    }\n\n    /// @notice Calculates the maximum value in distribution tokens that a\n    /// member can withdraw based on their percent ownership of the Syndicate,\n    /// the total amount of a particular token available for distribution, and\n    /// the amount of that distribution token that the member has already\n    /// claimed.\n    /// @param depositMember Member's deposit to the Syndicate at the moment\n    /// that it was closed by the manager\n    /// @param depositTotal Total deposits (from anyone) to the Syndicate\n    /// @param distributionClaimedMember Value in distributions that user has\n    /// withdrawn from the fund already.  Make sure this matches the token type\n    /// of `distributionTotal`.\n    /// @param distributionTotal Total distributions available from the fund,\n    /// claimed or not.  Make sure this matches the token type of\n    /// `distributionClaimedMember`.\n    /// @return Value in distributions that user is eligible to withdraw\n    /// @dev HIGH RISK: If this calculation is incorrect, a user could withdraw\n    /// more or less than they are entitled to.\n    function calculateEligibleDistribution(\n        uint256 depositMember,\n        uint256 depositTotal,\n        uint256 distributionClaimedMember,\n        uint256 distributionTotal\n    ) public pure override returns (uint256) {\n        // If the fund is empty, we need to return to prevent division by 0\n        if (depositTotal == 0) return 0;\n        // Solves this equation for eligibleDistributions:\n        // depositMember / depositTotal = (eligibleDistributions +\n        //      distributionClaimedMember) / distributionTotal\n        uint256 eligibleDistributions = (((depositMember * distributionTotal) /\n            depositTotal) - distributionClaimedMember);\n        return eligibleDistributions;\n    }\n\n    /// @notice Calculates the amount of a distribution that goes to the members,\n    /// Syndicate Protocol, and the syndicate manager.\n    /// @param amount Total amount to be withdrawn, including fees.\n    /// @param syndicateDistributionShareBasisPoints Distribution share to\n    /// Syndicate Protocol in basis points (i.e. as a fraction divided by 10000)\n    /// @param managerDistributionShareBasisPoints Share to the syndicate manager\n    /// in basis points (i.e. as a fraction divided by 10000)\n    /// @return Tuple of the amounts (toMembers, toSyndicate, toManager) that\n    /// will be transferred, together adding up to the passed amount.\n    function calculateDistributionShares(\n        uint256 amount,\n        uint256 syndicateDistributionShareBasisPoints,\n        uint256 managerDistributionShareBasisPoints\n    )\n        public\n        pure\n        override\n        returns (\n            uint256,\n            uint256,\n            uint256\n        )\n    {\n        uint256 toSyndicate = (amount * syndicateDistributionShareBasisPoints) /\n            BASIS_POINTS_DENOMINATOR;\n        uint256 toManager = (amount * managerDistributionShareBasisPoints) /\n            BASIS_POINTS_DENOMINATOR;\n        uint256 toMembers = amount - toManager - toSyndicate;\n\n        // I believe that there are cases where this can fail (e.g. if\n        // there is wei left over from truncating the division). We can\n        // catch this during formal verification and determine whether\n        // we want to make amount >= instead of == or just give the\n        // remaining wei to the user\n        require(\n            amount == toMembers + toSyndicate + toManager,\n            \"FEE_CALC_FAILED\"\n        );\n\n        return (toMembers, toSyndicate, toManager);\n    }\n\n    // Internal functions-------------------------------------------------------\n\n    /// @notice Initalize or increase a distribution for a Syndicate\n    /// @param syndicateAddress The address of the Syndicate\n    /// @param distributionERC20Address The ERC20 contract address of the\n    /// distribution\n    /// @param amount The amount by which the available distribution should be\n    /// increased.\n    /// @notice Syndicate distribution shares and manager distribution shares are\n    /// assessed when a distribution is set by a manager, not when a distribution\n    ///  is claimed by a user. This ensures that unclaimed distributions do not\n    /// prevent Syndicate and managers from receiving their portion of the\n    /// distribution, and in general makes receiving distributions much more predictable.\n    /// @notice This function does not verify that the manager has set an\n    /// appropriate allowance for the desired balance. It is the responsibility\n    /// of the manager to do so, since any allowance checks that could occur in\n    /// this function would be vulnerable to front-running.\n    /// @dev Note that distribution amount available to users is after Syndicate's\n    /// and the manager's shares are assessed. For example, if a manager sets a\n    /// distribution of 1000 DAI and the distribution share to Syndicate is 0.50%\n    /// (50 basis points) and the manager's distribution share is 2.00% (200 basis\n    /// points), the amount available for distribution to users would be 97.5%\n    /// of 1000 -- i.e. 975 USDC.\n    /// @dev This function makes setting large number of distributions slightly\n    /// more gas efficient by creating an internal setDistribution function that\n    /// skips the modifier check.\n    function _setDistribution(\n        address syndicateAddress,\n        address distributionERC20Address,\n        uint256 amount\n    ) internal onlyLogicContractAllowedGuard() {\n        IERC20 distributionERC20 = IERC20(distributionERC20Address);\n\n        // Checks\n\n        // If the ERC20 address has not already been set for distribution in\n        // `SyndicateMappings`, mark it as available, and emit an event\n        // broadcasting that a new token is available for distribution.\n        if (\n            !store.distributionERC20Addresses(\n                syndicateAddress,\n                distributionERC20Address\n            )\n        ) {\n            store.setDistributionERC20Addresses(\n                syndicateAddress,\n                distributionERC20Address,\n                true\n            );\n            emit DistributionERC20AddressAdded(\n                syndicateAddress,\n                distributionERC20Address\n            );\n        }\n\n        // Effects\n        uint256 amountToMembers;\n        uint256 amountToSyndicate;\n        uint256 amountToManager;\n\n        (\n            amountToMembers,\n            amountToSyndicate,\n            amountToManager\n        ) = calculateDistributionShares(\n            amount,\n            store.syndicateDistributionShareBasisPoints(syndicateAddress),\n            store.managerDistributionShareBasisPoints(syndicateAddress)\n        );\n\n        // Increment the distribution total and emit an event\n        store.setDistributionTotal(\n            syndicateAddress,\n            distributionERC20Address,\n            store.distributionTotal(\n                syndicateAddress,\n                distributionERC20Address\n            ) + amountToMembers\n        );\n\n        // Interactions\n        distributionERC20.transferFrom(\n            store.managerCurrent(syndicateAddress),\n            getSyndicateFeeAddress(),\n            amountToSyndicate\n        );\n\n        distributionERC20.transferFrom(\n            store.managerCurrent(syndicateAddress),\n            store.managerFeeAddress(syndicateAddress),\n            amountToManager\n        );\n\n        emit DistributionAdded(\n            syndicateAddress,\n            distributionERC20Address,\n            amountToMembers,\n            amountToSyndicate,\n            amountToManager\n        );\n    }\n\n    function _claimDistribution(\n        address syndicateAddress,\n        address distributionERC20Address,\n        address memberAddress,\n        uint256 amount,\n        bool calledByManager\n    ) internal onlyLogicContractAllowedGuard() {\n        // If the Syndicate is closed but distributions have not been enabled,\n        // the Syndicate manager may be using the funds for investment.\n        // Therefore, withdrawals are unavailable until distributions are\n        // enabled.\n        require(store.distributing(syndicateAddress), \"SYN_NOT_DISTRIBUTING\");\n        // If the Syndicate is closed and distributions are enabled, funds can\n        // be withdrawn in any ERC20 token set for distribution. This is added\n        // to the sender's claimed distribution totals to track the remaining\n        // amount they are eligible to withdraw. Fees are sent to the manager\n        // and Syndicate upon withdrawal.\n\n        // Distribution ERC20 must be enabled for withdrawals by manager.\n        require(\n            store.distributionERC20Addresses(\n                syndicateAddress,\n                distributionERC20Address\n            ),\n            \"NO_DIST_AT_ERC20\"\n        );\n\n        // Without this line, a member could spam withdrawals of 0. It is\n        // additionally necessary to protect `_processWithdrawalOpen` from\n        // decrementing `numMembersCurrent` when a member with a deposit of 0\n        // withdraws 0.\n        require(amount > 0, \"DIST<=0\");\n\n        // The withdrawal amount must not exceed the member's distribution share\n        // in the Syndicate less the distributions they have already\n        // claimed.\n        // HIGH RISK: Without this check, a user could withdraw more than\n        // they are eligible to.\n        require(\n            amount <=\n                calculateEligibleDistribution(\n                    store.depositMember(syndicateAddress, memberAddress),\n                    store.depositTotal(syndicateAddress),\n                    store.distributionClaimedMember(\n                        syndicateAddress,\n                        distributionERC20Address,\n                        memberAddress\n                    ),\n                    store.distributionTotal(\n                        syndicateAddress,\n                        distributionERC20Address\n                    )\n                ),\n            \"DIST>ELIGIBLE\"\n        );\n\n        // Effects\n        // Increase the member's claimed distributions\n        store.setDistributionClaimedMember(\n            syndicateAddress,\n            distributionERC20Address,\n            memberAddress,\n            store.distributionClaimedMember(\n                syndicateAddress,\n                distributionERC20Address,\n                memberAddress\n            ) + amount\n        );\n\n        // Increase total claimed distributions\n        store.setDistributionClaimedTotal(\n            syndicateAddress,\n            distributionERC20Address,\n            store.distributionClaimedTotal(\n                syndicateAddress,\n                distributionERC20Address\n            ) + amount\n        );\n\n        if (calledByManager) {\n            emit DistributionClaimed(\n                syndicateAddress,\n                distributionERC20Address,\n                memberAddress,\n                amount,\n                \"manager\"\n            );\n        } else {\n            IERC20 withdrawalERC20 = IERC20(distributionERC20Address);\n\n            // The user should get paid first, then Syndicate, then the\n            // manager. This is because the manager controls the allowance --\n            // otherwise the manager could stop someone from getting paid by\n            // lowering the allowance below the distribution amount. If the\n            // manager wants to get paid, they need to set a proper\n            // allowance and not have any of these transfers fail.\n            // Note that if any one transfer reverts, the entire transaction\n            // will safely revert. This ordering just accounts for ERC-20s that\n            // might have used a custom implementation and not revert upon a\n            // `transferFrom()` that exceeds the balance or the allowance\n            // HIGH RISK: If we did not use `msg.sender`, this could be\n            // used to redirect funds from users other than the wallet\n            // holder (or smart contract owner, if a DAO is making the\n            // withdrawal).\n            withdrawalERC20.transferFrom(\n                store.managerCurrent(syndicateAddress),\n                memberAddress,\n                amount\n            );\n\n            emit DistributionClaimed(\n                syndicateAddress,\n                distributionERC20Address,\n                memberAddress,\n                amount,\n                \"member\"\n            );\n        }\n    }\n}\n",
  "sourcePath": "/Users/mbuvi/syndicates/Syndicate/contracts/SyndicateClosedEndFundDistributionLogicV0.sol",
  "compiler": {
    "name": "solc",
    "version": "0.8.6+commit.11564f7e.Emscripten.clang"
  },
  "schemaVersion": "3.3.4",
  "updatedAt": "2021-07-22T17:37:06.642Z",
  "devdoc": {
    "author": "Syndicate Inc.",
    "events": {
      "DistributionClaimed(address,address,address,uint256,string)": {
        "details": "`actor` is used to differentiate between who is triggering the event emission. Current options are \"member\" and \"manager\", but more may be introduced (e.g. \"integration\")."
      }
    },
    "kind": "dev",
    "methods": {
      "calculateDistributionShares(uint256,uint256,uint256)": {
        "params": {
          "amount": "Total amount to be withdrawn, including fees.",
          "managerDistributionShareBasisPoints": "Share to the syndicate manager in basis points (i.e. as a fraction divided by 10000)",
          "syndicateDistributionShareBasisPoints": "Distribution share to Syndicate Protocol in basis points (i.e. as a fraction divided by 10000)"
        },
        "returns": {
          "_0": "Tuple of the amounts (toMembers, toSyndicate, toManager) that will be transferred, together adding up to the passed amount."
        }
      },
      "calculateEligibleDistribution(uint256,uint256,uint256,uint256)": {
        "details": "HIGH RISK: If this calculation is incorrect, a user could withdraw more or less than they are entitled to.",
        "params": {
          "depositMember": "Member's deposit to the Syndicate at the moment that it was closed by the manager",
          "depositTotal": "Total deposits (from anyone) to the Syndicate",
          "distributionClaimedMember": "Value in distributions that user has withdrawn from the fund already.  Make sure this matches the token type of `distributionTotal`.",
          "distributionTotal": "Total distributions available from the fund, claimed or not.  Make sure this matches the token type of `distributionClaimedMember`."
        },
        "returns": {
          "_0": "Value in distributions that user is eligible to withdraw"
        }
      },
      "getDistributionClaimedMember(address,address,address)": {
        "params": {
          "distributionERC20Address": "The ERC20 address of the token whose distributions are being queried",
          "memberAddress": "The address of the member whose info is being queried",
          "syndicateAddress": "The address of the Syndicate"
        },
        "returns": {
          "_0": "The distribution claimed by a member for a given `distributionERC20Address`"
        }
      },
      "getDistributionClaimedTotal(address,address)": {
        "params": {
          "distributionERC20Address": "The ERC20 address of the token whose distributions are being queried",
          "syndicateAddress": "The address of the Syndicate"
        },
        "returns": {
          "_0": "The `distributionTotal` for a given `distributionERC20Address`"
        }
      },
      "getDistributionTotal(address,address)": {
        "params": {
          "distributionERC20Address": "The ERC20 address of the token whose distributions are being queried",
          "syndicateAddress": "The address of the Syndicate"
        },
        "returns": {
          "_0": "The `distributionTotal` for a given `distributionERC20Address`"
        }
      },
      "getDistributionUnclaimedMember(address,address,address)": {
        "params": {
          "distributionERC20Address": "The ERC20 address of the token whose distributions are being queried",
          "memberAddress": "The address of the member whose info is being queried",
          "syndicateAddress": "The address of the Syndicate"
        },
        "returns": {
          "_0": "The unclaimed distribution for a member for a given `distributionERC20Address`"
        }
      },
      "getSyndicateFeeAddress()": {
        "details": "This function is needed to allow inheriting contracts to only be able to view but not change syndicateFeeAddress without going through ownerSetSyndicateFeeAddress"
      },
      "managerSetDistributions(address,address[],uint256[])": {
        "params": {
          "amounts": "The amounts to be added to the available distributions of each ERC20 token indexed in `distributionERC20Addresses`. This array must have the same length as `distributionERC20Addresses`.",
          "distributionERC20Addresses": "The ERC20 contract addresses of the distributions. Distributions can be set for any ERC20 token, including the deposit token.",
          "syndicateAddress": "The address of the Syndicate"
        }
      },
      "managerSetDistributionsClaimedForMembers(address,address[],address[],uint256[])": {
        "params": {
          "amounts": "The amounts to increase the claimed distribution of the corresponding index in memberAddresses. All paramter arrays must match exactly in length.",
          "distributionERC20Addresses": "The ERC20 contract addresses of the distribution.",
          "memberAddresses": "The addresses of the members whose info is being set.",
          "syndicateAddress": "The address of the Syndicate"
        }
      },
      "memberClaimDistributions(address,address[],uint256[])": {
        "details": "Distribution claims are processed before any fees that an ERC20 token may assess. The amount that all users receive may be lower if an ERC20 token takes a fee upon transfers.",
        "params": {
          "amounts": "The amounts (in token types specified by `distributionERC20Addresses`) to be claimed",
          "distributionERC20Addresses": "The token types to be transferred from the Syndicate to the member. Members may only claim distributions from ERC20 contract addresses that the manager has set for distribution.",
          "syndicateAddress": "The Syndicate that a member will claim distributions from"
        }
      },
      "owner()": {
        "details": "Returns the address of the current owner."
      },
      "ownerSetSyndicateFeeAddress(address)": {
        "params": {
          "feeAddress": "The owner's new contract fee address"
        }
      },
      "ownerTransferOwnership(address)": {
        "params": {
          "newOwner": "The new owner's address."
        }
      },
      "renounceOwnership()": {
        "details": "Leaves the contract without owner. It will not be possible to call `onlyOwner` functions anymore. Can only be called by the current owner. NOTE: Renouncing ownership will leave the contract without an owner, thereby removing any functionality that is only available to the owner."
      },
      "transferOwnership(address)": {
        "details": "Transfers ownership of the contract to a new account (`newOwner`). Can only be called by the current owner."
      }
    },
    "version": 1
  },
  "userdoc": {
    "events": {
      "DistributionAdded(address,address,uint256,uint256,uint256)": {
        "notice": "A manager sets a distribution. It is important that the manager holds such distribution assets in their wallet for members to claim."
      },
      "DistributionClaimed(address,address,address,uint256,string)": {
        "notice": "A member claims a distribution by withdrawing their assets or a manager sets a distribution claimed on behalf of a member. Managers can only claim a distribution for a member on modifiable syndicates."
      },
      "DistributionERC20AddressAdded(address,address)": {
        "notice": "A manager sets a distribution for a new ERC20 address. This is called by `managerSetDistributions()` the first time a distribution is set for a particular ERC20 address."
      },
      "SyndicateFeeAddressUpdated(address)": {
        "notice": "The owner updates the contract fee address."
      }
    },
    "kind": "user",
    "methods": {
      "calculateDistributionShares(uint256,uint256,uint256)": {
        "notice": "Calculates the amount of a distribution that goes to the members, Syndicate Protocol, and the syndicate manager."
      },
      "calculateEligibleDistribution(uint256,uint256,uint256,uint256)": {
        "notice": "Calculates the maximum value in distribution tokens that a member can withdraw based on their percent ownership of the Syndicate, the total amount of a particular token available for distribution, and the amount of that distribution token that the member has already claimed."
      },
      "constructor": {
        "notice": "Used to initialize the Syndicate contract."
      },
      "getDistributionClaimedMember(address,address,address)": {
        "notice": "Get a member's claimed distributions for a given ERC20"
      },
      "getDistributionClaimedTotal(address,address)": {
        "notice": "Get a Syndicate's total claimed distributions for a given ERC20"
      },
      "getDistributionTotal(address,address)": {
        "notice": "Get a Syndicate's total distributions for a given ERC20"
      },
      "getDistributionUnclaimedMember(address,address,address)": {
        "notice": "Get a member's unclaimed distribution for a given ERC20"
      },
      "getSyndicateFeeAddress()": {
        "notice": "getter function for syndicate fee address."
      },
      "managerSetDistributions(address,address[],uint256[])": {
        "notice": "Used by a manager to initialize or increase the available distributions for multiple ERC20 tokens after a Syndicate has been closed."
      },
      "managerSetDistributionsClaimedForMembers(address,address[],address[],uint256[])": {
        "notice": "Used by a manager to modify the claimed distribution amount for a given member addressThis function can only be called if the Syndicate is modifiable. The modifiable boolean is set by the manager on creation and cannot be changed after the Syndicate is created.Claimed distributions can only be raised. If we allowed a manager to lower a member's claimed distributions, the manager's token allowance and token balance may not be enough to cover all future distributions.Claimed distributions cannot exceed the member's eligible distributions as calculated from their deposit. If we allowed a manager to raise a member's claimed distributions above their eligible distributions, we would have to adjust `distributionTotal` accordingly and this would result in every other member being eligible for an additional distribution, which the manager may not have a sufficient allowance/balance to cover.This function can only be called after distributions are enabled. Before distributions are enabled, there is no reason to call this function since there are no distributions available to claim."
      },
      "memberClaimDistributions(address,address[],uint256[])": {
        "notice": "The member is identified via `msg.sender`. This function must be called from the address associated with the member's deposit.This function may only be called after the Syndicate is closed by the manager, though the Syndicate may be closed for some time before a distribution is set (e.g. after funds have been raised but while they are being used for investments)"
      },
      "ownerRenounceOwnership()": {
        "notice": "Renounce ownership of the contract"
      },
      "ownerSetSyndicateFeeAddress(address)": {
        "notice": "set a new fee address for the contract function that can only be triggered by the contract owner."
      },
      "ownerTransferOwnership(address)": {
        "notice": "Transfers ownership to the provided address."
      }
    },
    "notice": "Handle member distribution accounting and ERC20 transfers",
    "version": 1
  }
}