{
  "contractName": "Syndicate",
  "abi": [
    {
      "anonymous": false,
      "inputs": [
        {
          "indexed": true,
          "internalType": "address",
          "name": "previousOwner",
          "type": "address"
        },
        {
          "indexed": true,
          "internalType": "address",
          "name": "newOwner",
          "type": "address"
        }
      ],
      "name": "OwnershipTransferred",
      "type": "event"
    },
    {
      "anonymous": false,
      "inputs": [
        {
          "indexed": false,
          "internalType": "address",
          "name": "account",
          "type": "address"
        }
      ],
      "name": "Paused",
      "type": "event"
    },
    {
      "anonymous": false,
      "inputs": [
        {
          "indexed": false,
          "internalType": "address",
          "name": "account",
          "type": "address"
        }
      ],
      "name": "Unpaused",
      "type": "event"
    },
    {
      "anonymous": false,
      "inputs": [
        {
          "indexed": true,
          "internalType": "address",
          "name": "lpAddress",
          "type": "address"
        },
        {
          "indexed": true,
          "internalType": "address",
          "name": "syndicateAddress",
          "type": "address"
        },
        {
          "indexed": false,
          "internalType": "uint256",
          "name": "amountInvested",
          "type": "uint256"
        },
        {
          "indexed": false,
          "internalType": "uint256",
          "name": "timestamp",
          "type": "uint256"
        }
      ],
      "name": "lpInvestedInSyndicate",
      "type": "event"
    },
    {
      "anonymous": false,
      "inputs": [
        {
          "indexed": true,
          "internalType": "address",
          "name": "lpAddress",
          "type": "address"
        },
        {
          "indexed": true,
          "internalType": "address",
          "name": "syndicateAddress",
          "type": "address"
        },
        {
          "indexed": false,
          "internalType": "uint256",
          "name": "amountWithdrawn",
          "type": "uint256"
        },
        {
          "indexed": false,
          "internalType": "address",
          "name": "withdrawalERC20ContractAddress",
          "type": "address"
        },
        {
          "indexed": false,
          "internalType": "uint256",
          "name": "timestamp",
          "type": "uint256"
        }
      ],
      "name": "lpWithdrewDepositFromSyndicate",
      "type": "event"
    },
    {
      "anonymous": false,
      "inputs": [
        {
          "indexed": true,
          "internalType": "address",
          "name": "lpAddress",
          "type": "address"
        },
        {
          "indexed": true,
          "internalType": "address",
          "name": "syndicateAddress",
          "type": "address"
        },
        {
          "indexed": false,
          "internalType": "uint256",
          "name": "amountWithdrawn",
          "type": "uint256"
        },
        {
          "indexed": false,
          "internalType": "address",
          "name": "withdrawalERC20ContractAddress",
          "type": "address"
        },
        {
          "indexed": false,
          "internalType": "uint256",
          "name": "timestamp",
          "type": "uint256"
        }
      ],
      "name": "lpWithdrewDistributionFromSyndicate",
      "type": "event"
    },
    {
      "anonymous": false,
      "inputs": [
        {
          "indexed": true,
          "internalType": "address",
          "name": "syndicateAddress",
          "type": "address"
        },
        {
          "indexed": true,
          "internalType": "address",
          "name": "currentManager",
          "type": "address"
        },
        {
          "indexed": false,
          "internalType": "bytes32",
          "name": "blake2b328HashPartOne",
          "type": "bytes32"
        },
        {
          "indexed": false,
          "internalType": "bytes32",
          "name": "blake2b328HashPartTwo",
          "type": "bytes32"
        },
        {
          "indexed": false,
          "internalType": "uint256",
          "name": "timestamp",
          "type": "uint256"
        }
      ],
      "name": "memo",
      "type": "event"
    },
    {
      "inputs": [],
      "name": "owner",
      "outputs": [
        {
          "internalType": "address",
          "name": "",
          "type": "address"
        }
      ],
      "stateMutability": "view",
      "type": "function"
    },
    {
      "inputs": [],
      "name": "paused",
      "outputs": [
        {
          "internalType": "bool",
          "name": "",
          "type": "bool"
        }
      ],
      "stateMutability": "view",
      "type": "function"
    },
    {
      "inputs": [
        {
          "internalType": "address",
          "name": "newOwner",
          "type": "address"
        }
      ],
      "name": "transferOwnership",
      "outputs": [],
      "stateMutability": "nonpayable",
      "type": "function"
    },
    {
      "inputs": [
        {
          "internalType": "address",
          "name": "syndicateAddress",
          "type": "address"
        },
        {
          "internalType": "uint256",
          "name": "maxDeposit",
          "type": "uint256"
        }
      ],
      "name": "setMaxDeposit",
      "outputs": [],
      "stateMutability": "nonpayable",
      "type": "function"
    },
    {
      "inputs": [
        {
          "internalType": "address",
          "name": "syndicateAddress",
          "type": "address"
        },
        {
          "internalType": "uint256",
          "name": "maxTotalDeposits",
          "type": "uint256"
        }
      ],
      "name": "setMaxTotalDeposits",
      "outputs": [],
      "stateMutability": "nonpayable",
      "type": "function"
    },
    {
      "inputs": [
        {
          "internalType": "address",
          "name": "depositERC20ContractAddress",
          "type": "address"
        },
        {
          "internalType": "uint256",
          "name": "syndicateProfitSharePercent",
          "type": "uint256"
        },
        {
          "internalType": "uint256",
          "name": "closeDate",
          "type": "uint256"
        },
        {
          "internalType": "uint256",
          "name": "maxDeposit",
          "type": "uint256"
        },
        {
          "internalType": "uint256",
          "name": "maxTotalDeposits",
          "type": "uint256"
        },
        {
          "internalType": "bool",
          "name": "allowlistEnabled",
          "type": "bool"
        }
      ],
      "name": "createSyndicate",
      "outputs": [],
      "stateMutability": "nonpayable",
      "type": "function"
    },
    {
      "inputs": [
        {
          "internalType": "address",
          "name": "syndicateAddress",
          "type": "address"
        },
        {
          "internalType": "uint256",
          "name": "amount",
          "type": "uint256"
        },
        {
          "internalType": "bool",
          "name": "accredited",
          "type": "bool"
        }
      ],
      "name": "lpInvestInSyndicate",
      "outputs": [],
      "stateMutability": "nonpayable",
      "type": "function"
    },
    {
      "inputs": [
        {
          "internalType": "address",
          "name": "syndicateAddress",
          "type": "address"
        },
        {
          "internalType": "address",
          "name": "erc20ContractAddress",
          "type": "address"
        },
        {
          "internalType": "uint256",
          "name": "amount",
          "type": "uint256"
        }
      ],
      "name": "lpWithdrawFromSyndicate",
      "outputs": [],
      "stateMutability": "nonpayable",
      "type": "function"
    },
    {
      "inputs": [
        {
          "internalType": "address",
          "name": "syndicateAddress",
          "type": "address"
        },
        {
          "internalType": "bool",
          "name": "allowlistEnabled",
          "type": "bool"
        }
      ],
      "name": "setAutoConfirmDeposit",
      "outputs": [],
      "stateMutability": "nonpayable",
      "type": "function"
    },
    {
      "inputs": [
        {
          "internalType": "address",
          "name": "syndicateAddress",
          "type": "address"
        },
        {
          "internalType": "address",
          "name": "lpAddress",
          "type": "address"
        }
      ],
      "name": "rejectLPInvestment",
      "outputs": [],
      "stateMutability": "nonpayable",
      "type": "function"
    },
    {
      "inputs": [
        {
          "internalType": "address",
          "name": "syndicateAddress",
          "type": "address"
        },
        {
          "internalType": "address[]",
          "name": "lpAddresses",
          "type": "address[]"
        }
      ],
      "name": "allowAddresses",
      "outputs": [],
      "stateMutability": "nonpayable",
      "type": "function"
    },
    {
      "inputs": [
        {
          "internalType": "address",
          "name": "syndicateAddress",
          "type": "address"
        },
        {
          "internalType": "address",
          "name": "lpAddress",
          "type": "address"
        }
      ],
      "name": "denyAddress",
      "outputs": [],
      "stateMutability": "nonpayable",
      "type": "function"
    },
    {
      "inputs": [
        {
          "internalType": "address",
          "name": "syndicateAddress",
          "type": "address"
        },
        {
          "internalType": "address",
          "name": "pendingManagerAddress",
          "type": "address"
        }
      ],
      "name": "setPendingManager",
      "outputs": [],
      "stateMutability": "nonpayable",
      "type": "function"
    },
    {
      "inputs": [
        {
          "internalType": "address",
          "name": "syndicateAddress",
          "type": "address"
        }
      ],
      "name": "confirmPendingManager",
      "outputs": [],
      "stateMutability": "nonpayable",
      "type": "function"
    },
    {
      "inputs": [
        {
          "internalType": "address",
          "name": "syndicateAddress",
          "type": "address"
        },
        {
          "internalType": "uint256",
          "name": "managerManagementFeePercent",
          "type": "uint256"
        },
        {
          "internalType": "uint256",
          "name": "managerPerformanceFeePercent",
          "type": "uint256"
        }
      ],
      "name": "setManagerFees",
      "outputs": [],
      "stateMutability": "nonpayable",
      "type": "function"
    },
    {
      "inputs": [
        {
          "internalType": "address",
          "name": "syndicateAddress",
          "type": "address"
        },
        {
          "internalType": "address",
          "name": "managerFeeAddress",
          "type": "address"
        }
      ],
      "name": "setManagerFeeAddress",
      "outputs": [],
      "stateMutability": "nonpayable",
      "type": "function"
    },
    {
      "inputs": [
        {
          "internalType": "address",
          "name": "syndicateAddress",
          "type": "address"
        }
      ],
      "name": "closeSyndicate",
      "outputs": [],
      "stateMutability": "nonpayable",
      "type": "function"
    },
    {
      "inputs": [
        {
          "internalType": "address",
          "name": "syndicateAddress",
          "type": "address"
        },
        {
          "internalType": "address",
          "name": "distributionERC20Address",
          "type": "address"
        },
        {
          "internalType": "uint256",
          "name": "amount",
          "type": "uint256"
        }
      ],
      "name": "setDistribution",
      "outputs": [],
      "stateMutability": "nonpayable",
      "type": "function"
    },
    {
      "inputs": [
        {
          "internalType": "address",
          "name": "syndicateAddress",
          "type": "address"
        },
        {
          "internalType": "bool",
          "name": "inactiveStatus",
          "type": "bool"
        }
      ],
      "name": "setSyndicateInactiveStatus",
      "outputs": [],
      "stateMutability": "nonpayable",
      "type": "function"
    },
    {
      "inputs": [
        {
          "internalType": "address",
          "name": "syndicateAddress",
          "type": "address"
        },
        {
          "internalType": "string",
          "name": "metadataKey",
          "type": "string"
        },
        {
          "internalType": "string",
          "name": "metadataValue",
          "type": "string"
        }
      ],
      "name": "setMetadata",
      "outputs": [],
      "stateMutability": "nonpayable",
      "type": "function"
    },
    {
      "inputs": [
        {
          "internalType": "address",
          "name": "syndicateAddress",
          "type": "address"
        },
        {
          "internalType": "bytes32",
          "name": "blake2b328HashPartOne",
          "type": "bytes32"
        },
        {
          "internalType": "bytes32",
          "name": "blake2b328HashPartTwo",
          "type": "bytes32"
        }
      ],
      "name": "emitMemo",
      "outputs": [],
      "stateMutability": "nonpayable",
      "type": "function"
    },
    {
      "inputs": [
        {
          "internalType": "address",
          "name": "syndicateAddress",
          "type": "address"
        }
      ],
      "name": "getSyndicateValues",
      "outputs": [
        {
          "components": [
            {
              "internalType": "address",
              "name": "depositERC20ContractAddress",
              "type": "address"
            },
            {
              "internalType": "uint256",
              "name": "maxDeposit",
              "type": "uint256"
            },
            {
              "internalType": "uint256",
              "name": "maxTotalDeposits",
              "type": "uint256"
            },
            {
              "internalType": "uint256",
              "name": "totalDeposits",
              "type": "uint256"
            },
            {
              "internalType": "uint256",
              "name": "closeDate",
              "type": "uint256"
            },
            {
              "internalType": "uint256",
              "name": "syndicateProfitSharePercent",
              "type": "uint256"
            },
            {
              "internalType": "uint256",
              "name": "managerManagementFeePercent",
              "type": "uint256"
            },
            {
              "internalType": "uint256",
              "name": "managerPerformanceFeePercent",
              "type": "uint256"
            },
            {
              "internalType": "uint256[2]",
              "name": "managerPerformanceThreshold",
              "type": "uint256[2]"
            },
            {
              "internalType": "address",
              "name": "currentManager",
              "type": "address"
            },
            {
              "internalType": "address",
              "name": "pendingManager",
              "type": "address"
            },
            {
              "internalType": "address",
              "name": "managerFeeAddress",
              "type": "address"
            },
            {
              "internalType": "bool",
              "name": "syndicateOpen",
              "type": "bool"
            },
            {
              "internalType": "bool",
              "name": "distributionsEnabled",
              "type": "bool"
            },
            {
              "internalType": "bool",
              "name": "allowlistEnabled",
              "type": "bool"
            },
            {
              "internalType": "bool",
              "name": "inactive",
              "type": "bool"
            },
            {
              "internalType": "uint256",
              "name": "creationDate",
              "type": "uint256"
            },
            {
              "internalType": "uint256",
              "name": "version",
              "type": "uint256"
            },
            {
              "internalType": "uint256[20]",
              "name": "__reservedUint256",
              "type": "uint256[20]"
            },
            {
              "internalType": "address[20]",
              "name": "__reservedAddress",
              "type": "address[20]"
            }
          ],
          "internalType": "struct Syndicate.SyndicateValues",
          "name": "",
          "type": "tuple"
        }
      ],
      "stateMutability": "view",
      "type": "function"
    },
    {
      "inputs": [
        {
          "internalType": "address",
          "name": "syndicateAddress",
          "type": "address"
        },
        {
          "internalType": "address",
          "name": "lpAddress",
          "type": "address"
        }
      ],
      "name": "getSyndicateLPInfo",
      "outputs": [
        {
          "internalType": "uint256",
          "name": "",
          "type": "uint256"
        },
        {
          "internalType": "uint256",
          "name": "",
          "type": "uint256"
        },
        {
          "internalType": "bool",
          "name": "",
          "type": "bool"
        }
      ],
      "stateMutability": "view",
      "type": "function"
    },
    {
      "inputs": [
        {
          "internalType": "address",
          "name": "syndicateAddress",
          "type": "address"
        },
        {
          "internalType": "address",
          "name": "distributionERC20ContractAddress",
          "type": "address"
        }
      ],
      "name": "getTotalDistributions",
      "outputs": [
        {
          "internalType": "uint256",
          "name": "",
          "type": "uint256"
        }
      ],
      "stateMutability": "view",
      "type": "function"
    },
    {
      "inputs": [
        {
          "internalType": "address",
          "name": "syndicateAddress",
          "type": "address"
        },
        {
          "internalType": "address",
          "name": "lpAddress",
          "type": "address"
        },
        {
          "internalType": "address",
          "name": "distributionERC20ContractAddress",
          "type": "address"
        }
      ],
      "name": "getClaimedDistributions",
      "outputs": [
        {
          "internalType": "uint256",
          "name": "",
          "type": "uint256"
        }
      ],
      "stateMutability": "view",
      "type": "function"
    },
    {
      "inputs": [
        {
          "internalType": "address",
          "name": "syndicateAddress",
          "type": "address"
        },
        {
          "internalType": "address",
          "name": "lpAddress",
          "type": "address"
        },
        {
          "internalType": "address",
          "name": "distributionERC20ContractAddress",
          "type": "address"
        }
      ],
      "name": "getUnclaimedDistributions",
      "outputs": [
        {
          "internalType": "uint256",
          "name": "",
          "type": "uint256"
        }
      ],
      "stateMutability": "view",
      "type": "function"
    },
    {
      "inputs": [
        {
          "internalType": "address",
          "name": "syndicateAddress",
          "type": "address"
        },
        {
          "internalType": "string",
          "name": "metadataKey",
          "type": "string"
        }
      ],
      "name": "getSyndicateMetadata",
      "outputs": [
        {
          "internalType": "string",
          "name": "",
          "type": "string"
        }
      ],
      "stateMutability": "view",
      "type": "function"
    },
    {
      "inputs": [
        {
          "internalType": "uint256",
          "name": "userContributions",
          "type": "uint256"
        },
        {
          "internalType": "uint256",
          "name": "totalContributions",
          "type": "uint256"
        },
        {
          "internalType": "uint256",
          "name": "claimedDistributions",
          "type": "uint256"
        },
        {
          "internalType": "uint256",
          "name": "totalDistributions",
          "type": "uint256"
        }
      ],
      "name": "calculateEligibleWithdrawal",
      "outputs": [
        {
          "internalType": "uint256",
          "name": "",
          "type": "uint256"
        }
      ],
      "stateMutability": "pure",
      "type": "function"
    },
    {
      "inputs": [
        {
          "internalType": "uint256",
          "name": "withdrawal",
          "type": "uint256"
        },
        {
          "internalType": "uint256",
          "name": "profitShareNumerator",
          "type": "uint256"
        }
      ],
      "name": "calculateProfitShare",
      "outputs": [
        {
          "internalType": "uint256",
          "name": "",
          "type": "uint256"
        },
        {
          "internalType": "uint256",
          "name": "",
          "type": "uint256"
        }
      ],
      "stateMutability": "pure",
      "type": "function"
    },
    {
      "inputs": [],
      "name": "pauseContract",
      "outputs": [],
      "stateMutability": "nonpayable",
      "type": "function"
    },
    {
      "inputs": [],
      "name": "unPauseContract",
      "outputs": [],
      "stateMutability": "nonpayable",
      "type": "function"
    },
    {
      "inputs": [],
      "name": "renounceOwnership",
      "outputs": [],
      "stateMutability": "nonpayable",
      "type": "function"
    }
  ],
  "bytecode": "0x608060405234801561001057600080fd5b506141a4806100206000396000f3fe608060405234801561001057600080fd5b50600436106101f05760003560e01c80638da5cb5b1161010f578063ddb282d7116100a2578063eb3b0cba11610071578063eb3b0cba1461043b578063f2fde38b1461044e578063f3bb616714610461578063fb5e6be214610474576101f0565b8063ddb282d7146103ef578063e498116f14610402578063e93e04c414610415578063ead7778a14610428576101f0565b8063b39bf067116100de578063b39bf067146103ae578063bac15203146103c1578063c4cadbf2146103c9578063d6d60467146103dc576101f0565b80638da5cb5b146103535780638e0018401461036857806398fe09a11461037b578063afc7d8db1461038e576101f0565b806347bfebde11610187578063715018a611610156578063715018a61461031257806373f65f8a1461031a5780637e0c93821461032d57806387026af814610340576101f0565b806347bfebde146102b55780634b09cc98146102c8578063560c229e146102db5780635c975abb146102fd576101f0565b80633dfcec61116101c35780633dfcec61146102665780633e2946f7146102875780633ec419371461029a578063439766ce146102ad576101f0565b806311a2d09b146101f55780631578bfc51461020a57806334f93dc31461021d5780633b70401814610246575b600080fd5b61020861020336600461305a565b610487565b005b6102086102183660046130e8565b61054b565b61023061022b36600461343a565b6105c7565b60405161023d91906140ab565b60405180910390f35b61025961025436600461305a565b610621565b60405161023d9190613f67565b610279610274366004613419565b6107e5565b60405161023d9291906140d3565b610208610295366004613221565b610817565b6102086102a83660046131eb565b6108aa565b610208610921565b6102086102c3366004613074565b61098d565b6102086102d63660046131eb565b610a69565b6102ee6102e9366004613074565b610b2d565b60405161023d939291906140e1565b610305610b92565b60405161023d9190613552565b610208610b9b565b610208610328366004613322565b610c0d565b61020861033b366004613322565b610c6b565b61020861034e366004613221565b610cc9565b61035b610de7565b60405161023d9190613500565b6102306103763660046130a6565b610df6565b61020861038936600461305a565b610e2f565b6103a161039c366004613253565b610f2c565b60405161023d9190613573565b6102306103bc366004613074565b610ff9565b61020861102a565b6102086103d736600461338a565b611094565b6102086103ea3660046130e8565b611286565b6102306103fd3660046130a6565b6115f3565b610208610410366004613074565b61164b565b610208610423366004613074565b611751565b610208610436366004613123565b6119c8565b6102086104493660046132a4565b611b1c565b61020861045c36600461305a565b611bb7565b61020861046f36600461334b565b611cba565b610208610482366004613074565b611ece565b6001600160a01b038181166000908152609760205260409020600a015482911633146104ce5760405162461bcd60e51b81526004016104c59061369b565b60405180910390fd5b816104d881611ff7565b6001600160a01b0381166000908152609760205260409020600c0154600160a01b900460ff1661051a5760405162461bcd60e51b81526004016104c5906139d9565b50506001600160a01b03166000908152609760205260409020600c8101805460ff60a01b1916905542600490910155565b6001600160a01b038084166000908152609760205260409020548382169116148061059b57506001600160a01b0380841660009081526098602090815260408083209386168352929052205460ff165b6105b75760405162461bcd60e51b81526004016104c590613b26565b6105c283838361207f565b505050565b6000836105d657506000610619565b60006105f46105ee6105e8888661292c565b8761298c565b856129f3565b9050600081116106165760405162461bcd60e51b81526004016104c590613887565b90505b949350505050565b610629612e6f565b6001600160a01b0382811660009081526097602090815260409182902082516102808101845281549094168452600181015491840191909152600280820154848401526003820154606085015260048201546080850152600582015460a0850152600682015460c0850152600782015460e0850152825180840193849052919261010085019291600885019182845b8154815260200190600101908083116106b8575050509183525050600a8201546001600160a01b039081166020830152600b8301548116604080840191909152600c840154918216606084015260ff600160a01b8304811615156080850152600160a81b83048116151560a0850152600160b01b83048116151560c0850152600160b81b909204909116151560e0830152600d830154610100830152600e83015461012083015280516102808101918290526101409092019190600f84019060149082845b81548152602001906001019080831161077d5750505091835250506040805161028081019182905260209092019190602384019060149082845b81546001600160a01b031681526001909101906020018083116107b75750505050508152505090505b919050565b60008060006108076107f7868661292c565b69021e19e0c9bab240000061298c565b80860393509150505b9250929050565b6001600160a01b038381166000908152609760205260409020600a015484911633146108555760405162461bcd60e51b81526004016104c59061369b565b336001600160a01b0316846001600160a01b03167f21bf0eb15a9d48a31ac05b80d0e5d83a52fd1f0124bcccb725bb4377b0a2f5c885854260405161089c9392919061355d565b60405180910390a350505050565b6001600160a01b038281166000908152609760205260409020600a015483911633146108e85760405162461bcd60e51b81526004016104c59061369b565b506001600160a01b039091166000908152609760205260409020600c018054911515600160b81b0260ff60b81b19909216919091179055565b610929612a50565b6001600160a01b031661093a610de7565b6001600160a01b031614610983576040805162461bcd60e51b8152602060048201819052602482015260008051602061414f833981519152604482015290519081900360640190fd5b61098b612a54565b565b6001600160a01b038281166000908152609760205260409020600a015483911633146109cb5760405162461bcd60e51b81526004016104c59061369b565b6001600160a01b038084166000908152609760205260409020600a0154838216911614801590610a1b57506001600160a01b038084166000908152609760205260409020600b0154838216911614155b610a375760405162461bcd60e51b81526004016104c5906138be565b506001600160a01b039182166000908152609760205260409020600c0180546001600160a01b03191691909216179055565b6001600160a01b038281166000908152609760205260409020600a01548391163314610aa75760405162461bcd60e51b81526004016104c59061369b565b82610ab181611ff7565b6001600160a01b0381166000908152609760205260409020600c0154600160a01b900460ff16610af35760405162461bcd60e51b81526004016104c5906139d9565b50506001600160a01b039091166000908152609760205260409020600c018054911515600160b01b0260ff60b01b19909216919091179055565b6001600160a01b03808316600081815260986020908152604080832086861680855260038201845282852054818652600483018552838620968652609785528386205490971685529483528184205494845260050190915290205460ff169250925092565b60655460ff1690565b610ba3612a50565b6001600160a01b0316610bb4610de7565b6001600160a01b031614610bfd576040805162461bcd60e51b8152602060048201819052602482015260008051602061414f833981519152604482015290519081900360640190fd5b610c0561102a565b61098b612af4565b6001600160a01b038281166000908152609760205260409020600a01548391163314610c4b5760405162461bcd60e51b81526004016104c59061369b565b506001600160a01b03909116600090815260976020526040902060010155565b6001600160a01b038281166000908152609760205260409020600a01548391163314610ca95760405162461bcd60e51b81526004016104c59061369b565b506001600160a01b03909116600090815260976020526040902060020155565b6001600160a01b038381166000908152609760205260409020600a01548491163314610d075760405162461bcd60e51b81526004016104c59061369b565b6001600160a01b038416600090815260976020526040902060060154831180610d4a57506001600160a01b03841660009081526097602052604090206007015482115b15610dbb576001600160a01b0384166000908152609760205260409020600c0154600160a01b900460ff16610d915760405162461bcd60e51b81526004016104c590613e83565b6001600160a01b038416600090815260976020526040902060068101849055600701829055610de1565b6001600160a01b0384166000908152609760205260409020600681018490556007018290555b50505050565b6033546001600160a01b031690565b6001600160a01b039283166000908152609860209081526040808320948616835260049094018152838220929094168152925290205490565b6001600160a01b038082166000908152609760205260409020600a810154600b909101549082169116338114610e775760405162461bcd60e51b81526004016104c590613ae1565b6001600160a01b03811660009081526099602052604090205460ff1615610eb05760405162461bcd60e51b81526004016104c590613ddf565b6001600160a01b038381166000908152609760205260409020600c015416331415610eed5760405162461bcd60e51b81526004016104c590613eea565b6001600160a01b0392831660009081526097602090815260408220600a0180546001600160a01b03191693861693909317909255609990915291169052565b6001600160a01b03831660009081526098602052604090819020905160609160060190610f5c90859085906134f0565b9081526040805160209281900383018120805460026001821615610100026000190190911604601f81018590048502830185019093528282529092909190830182828015610feb5780601f10610fc057610100808354040283529160200191610feb565b820191906000526020600020905b815481529060010190602001808311610fce57829003601f168201915b505050505090509392505050565b6001600160a01b03808316600090815260986020908152604080832093851683526001909301905220545b92915050565b611032612a50565b6001600160a01b0316611043610de7565b6001600160a01b03161461108c576040805162461bcd60e51b8152602060048201819052602482015260008051602061414f833981519152604482015290519081900360640190fd5b61098b612ba0565b61109c610b92565b156110e1576040805162461bcd60e51b815260206004820152601060248201526f14185d5cd8589b194e881c185d5cd95960821b604482015290519081900360640190fd5b336110fe5760405162461bcd60e51b81526004016104c590613da8565b336000908152609760205260409020600a01546001600160a01b031615801561113757503360009081526099602052604090205460ff16155b801561115d5750336000908152609760205260409020600c0154600160b81b900460ff16155b6111795760405162461bcd60e51b81526004016104c590613664565b4284116111985760405162461bcd60e51b81526004016104c590613c2a565b681043561a88293000008510156111c15760405162461bcd60e51b81526004016104c590613971565b33600081815260976020908152604080832080546001600160a01b03909b166001600160a01b03199b8c1681178255600180830199909955600282019790975560048101989098556005880198909855600a870180549099168317909855600c86018054931515600160b01b0262ffffff60a81b1960ff60a01b19909516600160a01b17949094169390931790925542600d860155600e90940183905560988652848120918152818652938420805460ff191683179055919092526007015560999052565b6001600160a01b038381166000908152609760205260409020600a015484911633146112c45760405162461bcd60e51b81526004016104c59061369b565b836112ce81611ff7565b6001600160a01b0381166000908152609760205260409020600c0154600160a01b900460ff16156113115760405162461bcd60e51b81526004016104c590613d71565b6001600160a01b0385166000908152609760205260409020600c0154600160a81b900460ff16611368576001600160a01b0385166000908152609760205260409020600c01805460ff60a81b1916600160a81b1790555b6001600160a01b03858116600090815260976020526040808220600a01549051636eb1769f60e11b815287938085169263dd62ed3e926113b19291909116903090600401613538565b60206040518083038186803b1580156113c957600080fd5b505afa1580156113dd573d6000803e3d6000fd5b505050506040513d601f19601f820116820180604052508101906114019190613401565b90508085111580611413575060001981145b61142f5760405162461bcd60e51b81526004016104c590613c76565b6001600160a01b03878116600090815260976020526040808220600a015490516370a0823160e01b81529192808616926370a0823192611473921690600401613500565b60206040518083038186803b15801561148b57600080fd5b505afa15801561149f573d6000803e3d6000fd5b505050506040513d601f19601f820116820180604052508101906114c39190613401565b9050808611156114e55760405162461bcd60e51b81526004016104c590613850565b6001600160a01b038089166000908152609860209081526040808320938b168352929052205460ff16611543576001600160a01b038089166000908152609860209081526040808320938b16835292905220805460ff191660011790555b6001600160a01b038089166000908152609860209081526040808320938b1683526001909301905220546115779087612c23565b6001600160a01b038981166000908152609860209081526040808320938c16835260018401825280832094909455600290920190915220546115b99087612c23565b6001600160a01b0398891660009081526098602090815260408083209a909b16825260029099019098529790962096909655505050505050565b60008060008060006116058888610b2d565b50909450611614905088610621565b606001519250611625888888610df6565b91506116318887610ff9565b905061163f848484846105c7565b98975050505050505050565b6001600160a01b038281166000908152609760205260409020600a015483911633146116895760405162461bcd60e51b81526004016104c59061369b565b8261169381611ff7565b6001600160a01b0381166000908152609760205260409020600c0154600160a01b900460ff166116d55760405162461bcd60e51b81526004016104c5906139d9565b6001600160a01b0384166000908152609760205260409020600c01548490600160b01b900460ff166117195760405162461bcd60e51b81526004016104c590613bbc565b5050506001600160a01b039182166000908152609860209081526040808320939094168252600590920190915220805460ff19169055565b6001600160a01b038281166000908152609760205260409020600a0154839116331461178f5760405162461bcd60e51b81526004016104c59061369b565b8261179981611ff7565b6001600160a01b0381166000908152609760205260409020600c0154600160a01b900460ff166117db5760405162461bcd60e51b81526004016104c5906139d9565b6001600160a01b0384166000908152609760205260409020600c01548490600160b01b900460ff16156118205760405162461bcd60e51b81526004016104c590613f39565b6001600160a01b03808616600081815260986020908152604080832089861684526003018252808320549383526097909152908190208054600a9091015491516323b872dd60e01b815292939081169283926323b872dd9261188b929116908a908790600401613514565b602060405180830381600087803b1580156118a557600080fd5b505af11580156118b9573d6000803e3d6000fd5b505050506040513d601f19601f820116820180604052508101906118dd91906133e5565b506001600160a01b038088166000908152609860209081526040808320938a16835260039093019052205461191290836129f3565b6001600160a01b038089166000818152609860209081526040808320948c1683526003948501825280832095909555918152609790915291909120015461195990836129f3565b6001600160a01b03808916600081815260976020526040908190206003810194909455925492519092898316927f9fb1c360a5955b84ed6f0cbe44b254c2ee34ceba9726daa8de436c9f3be26ced926119b7928892169042906140b4565b60405180910390a350505050505050565b6001600160a01b038281166000908152609760205260409020600a01548391163314611a065760405162461bcd60e51b81526004016104c59061369b565b82611a1081611ff7565b6001600160a01b0381166000908152609760205260409020600c0154600160a01b900460ff16611a525760405162461bcd60e51b81526004016104c5906139d9565b6001600160a01b0384166000908152609760205260409020600c01548490600160b01b900460ff16611a965760405162461bcd60e51b81526004016104c590613bbc565b60005b8451811015611b1457600160986000886001600160a01b03166001600160a01b031681526020019081526020016000206005016000878481518110611ada57fe5b6020908102919091018101516001600160a01b03168252810191909152604001600020805460ff1916911515919091179055600101611a99565b505050505050565b6001600160a01b038581166000908152609760205260409020600a01548691163314611b5a5760405162461bcd60e51b81526004016104c59061369b565b828260986000896001600160a01b03166001600160a01b031681526020019081526020016000206006018787604051611b949291906134f0565b908152604051908190036020019020611bae929091612f25565b50505050505050565b611bbf612a50565b6001600160a01b0316611bd0610de7565b6001600160a01b031614611c19576040805162461bcd60e51b8152602060048201819052602482015260008051602061414f833981519152604482015290519081900360640190fd5b6001600160a01b038116611c5e5760405162461bcd60e51b81526004018080602001828103825260268152602001806141086026913960400191505060405180910390fd5b6033546040516001600160a01b038084169216907f8be0079c531659141344cd1fd0a4f28419497f9722a3daafe3b4186f6b6457e090600090a3603380546001600160a01b0319166001600160a01b0392909216919091179055565b82611cc481611ff7565b6001600160a01b0381166000908152609760205260409020600c0154600160a01b900460ff16611d065760405162461bcd60e51b81526004016104c5906139d9565b8180611d245760405162461bcd60e51b81526004016104c590613bf3565b6001600160a01b0385166000908152609760205260409020600c0154600160b01b900460ff161580611d7c57506001600160a01b038516600090815260986020908152604080832033845260050190915290205460ff165b15611e81576001600160a01b0385166000908152609860209081526040808320338452600301909152902054611db29085612c23565b6001600160a01b0386166000908152609760205260409020600101541015611dec5760405162461bcd60e51b81526004016104c5906137bc565b6001600160a01b038516600090815260976020526040902060030154611e129085612c23565b6001600160a01b0386166000908152609760205260409020600201541015611e4c5760405162461bcd60e51b81526004016104c590613726565b6001600160a01b038086166000908152609760205260409020600a8101549054611e7c9288928116911687612c7d565b611ec7565b6001600160a01b038516600090815260986020908152604080832033845260050190915290205460ff16611ec75760405162461bcd60e51b81526004016104c590613b90565b5050505050565b6001600160a01b038281166000908152609760205260409020600a01548391163314611f0c5760405162461bcd60e51b81526004016104c59061369b565b6001600160a01b03821660009081526099602052604090205460ff1615611f455760405162461bcd60e51b81526004016104c590613618565b6001600160a01b038381166000908152609760205260409020600a015481169083161415611f855760405162461bcd60e51b81526004016104c590613802565b6001600160a01b038084166000908152609760205260409020600c015483821691161415611fc55760405162461bcd60e51b81526004016104c5906136d2565b506001600160a01b039182166000908152609760205260409020600b0180546001600160a01b03191691909216179055565b6001600160a01b0381166000908152609760205260409020600c0154600160a01b900460ff161515600114801561204857506001600160a01b03811660009081526097602052604090206004015442115b1561207c576001600160a01b0381166000908152609760205260409020600c8101805460ff60a01b19169055426004909101555b50565b612087610b92565b156120cc576040805162461bcd60e51b815260206004820152601060248201526f14185d5cd8589b194e881c185d5cd95960821b604482015290519081900360640190fd5b6001600160a01b0383166000908152609760205260409020600c0154600160a01b900460ff16156122f1576001600160a01b038381166000908152609760205260409020548116908316146121335760405162461bcd60e51b81526004016104c590613cb7565b6001600160a01b03831660009081526098602090815260408083203384526003019091529020548111156121795760405162461bcd60e51b81526004016104c590613a51565b6001600160a01b03808416600090815260976020526040908190208054600a9091015491516323b872dd60e01b81529083169283926323b872dd926121c992919091169033908790600401613514565b602060405180830381600087803b1580156121e357600080fd5b505af11580156121f7573d6000803e3d6000fd5b505050506040513d601f19601f8201168201806040525081019061221b91906133e5565b506001600160a01b038416600090815260986020908152604080832033845260030190915290205461224d90836129f3565b6001600160a01b038516600081815260986020908152604080832033845260039081018352818420959095559282526097905220015461228d90836129f3565b6001600160a01b0385166000818152609760205260409081902060030192909255905133907f9fb1c360a5955b84ed6f0cbe44b254c2ee34ceba9726daa8de436c9f3be26ced906122e3908690889042906140b4565b60405180910390a3506105c2565b6001600160a01b0383166000908152609760205260409020600c0154600160a01b900460ff1615801561234757506001600160a01b0383166000908152609760205260409020600c0154600160a81b900460ff16155b156123645760405162461bcd60e51b81526004016104c5906135c6565b6001600160a01b0383166000908152609760205260409020600c0154600160a01b900460ff161580156123b957506001600160a01b0383166000908152609760205260409020600c0154600160a81b900460ff165b156105c2576001600160a01b0380841660009081526098602090815260408083209386168352929052205460ff166124035760405162461bcd60e51b81526004016104c59061391b565b6001600160a01b038084166000908152609860209081526040808320938616835260029093019052205481111561244c5760405162461bcd60e51b81526004016104c590613a09565b6001600160a01b0383811660008181526098602090815260408083203380855260038083018552838620549686526097855283862001549085526004820184528285209689168552958352818420546001909101909252909120546124b29391906105c7565b8111156124d15760405162461bcd60e51b81526004016104c590613771565b6001600160a01b038316600090815260976020526040812060050154839190819081906124ff9086906107e5565b6001600160a01b03891660009081526097602052604090206007015490945061252a915086906107e5565b925061254290508261253c87866129f3565b906129f3565b9050808510158015612552575060015b61256e5760405162461bcd60e51b81526004016104c590613d09565b6125828161257c8585612c23565b90612c23565b85146125a05760405162461bcd60e51b81526004016104c590613e26565b6001600160a01b0387811660009081526097602052604090819020600a015490516323b872dd60e01b8152828716926323b872dd926125e89291169033908690600401613514565b602060405180830381600087803b15801561260257600080fd5b505af1158015612616573d6000803e3d6000fd5b505050506040513d601f19601f8201168201806040525081019061263a91906133e5565b506001600160a01b0380881660009081526098602090815260408083203384526004018252808320938a16835292905220546126769082612c23565b6001600160a01b038881166000908152609860209081526040808320338452600481018352818420948c16845293825280832094909455600290920190915220546126c190826129f3565b6001600160a01b0380891660008181526098602090815260408083208c861684526002018252808320959095559181526097909152829020600a810154600c9091015492516323b872dd60e01b8152878316936323b872dd9361272e938116929116908890600401613514565b602060405180830381600087803b15801561274857600080fd5b505af115801561275c573d6000803e3d6000fd5b505050506040513d601f19601f8201168201806040525081019061278091906133e5565b506001600160a01b0380881660009081526098602090815260408083203384526004018252808320938a16835292905220546127bc9084612c23565b6001600160a01b038089166000818152609860209081526040808320338452600490810183528184208d8716855283528184209690965592825260979052819020600a810154600c9091015491516323b872dd60e01b8152888416946323b872dd9461283094938116931691889101613514565b602060405180830381600087803b15801561284a57600080fd5b505af115801561285e573d6000803e3d6000fd5b505050506040513d601f19601f8201168201806040525081019061288291906133e5565b506001600160a01b0380881660009081526098602090815260408083203384526004018252808320938a16835292905220546128be9083612c23565b6001600160a01b0380891660008181526098602090815260408083203380855260049091018352818420958d16845294909152908190209390935591517f651dbdd190442b5f1cd4262d563aa3c80f1db10ef61940118518e1276868e98a906119b79089908b9042906140b4565b60008261293b57506000611024565b8282028284828161294857fe5b04146129855760405162461bcd60e51b815260040180806020018281038252602181526020018061412e6021913960400191505060405180910390fd5b9392505050565b60008082116129e2576040805162461bcd60e51b815260206004820152601a60248201527f536166654d6174683a206469766973696f6e206279207a65726f000000000000604482015290519081900360640190fd5b8183816129eb57fe5b049392505050565b600082821115612a4a576040805162461bcd60e51b815260206004820152601e60248201527f536166654d6174683a207375627472616374696f6e206f766572666c6f770000604482015290519081900360640190fd5b50900390565b3390565b612a5c610b92565b15612aa1576040805162461bcd60e51b815260206004820152601060248201526f14185d5cd8589b194e881c185d5cd95960821b604482015290519081900360640190fd5b6065805460ff191660011790557f62e78cea01bee320cd4e420270b5ea74000d11b0c9f74754ebdbfc544b05a258612ad7612a50565b604080516001600160a01b039092168252519081900360200190a1565b612afc612a50565b6001600160a01b0316612b0d610de7565b6001600160a01b031614612b56576040805162461bcd60e51b8152602060048201819052602482015260008051602061414f833981519152604482015290519081900360640190fd5b6033546040516000916001600160a01b0316907f8be0079c531659141344cd1fd0a4f28419497f9722a3daafe3b4186f6b6457e0908390a3603380546001600160a01b0319169055565b612ba8610b92565b612bf0576040805162461bcd60e51b815260206004820152601460248201527314185d5cd8589b194e881b9bdd081c185d5cd95960621b604482015290519081900360640190fd5b6065805460ff191690557f5db9ee0a495bf2e6ff9c91a7834c1ba4fdd244a5e8aa4e537bd38aeae4b073aa612ad7612a50565b600082820183811015612985576040805162461bcd60e51b815260206004820152601b60248201527f536166654d6174683a206164646974696f6e206f766572666c6f770000000000604482015290519081900360640190fd5b612c85610b92565b15612cca576040805162461bcd60e51b815260206004820152601060248201526f14185d5cd8589b194e881c185d5cd95960821b604482015290519081900360640190fd5b83612cd481611ff7565b6001600160a01b0381166000908152609760205260409020600c0154600160a01b900460ff16612d165760405162461bcd60e51b81526004016104c5906139d9565b6001600160a01b03808616600090815260976020526040902054848216911614612d525760405162461bcd60e51b81526004016104c590613a9b565b6001600160a01b03808616600090815260976020526040908190205490516323b872dd60e01b815291169081906323b872dd90612d9790339089908890600401613514565b602060405180830381600087803b158015612db157600080fd5b505af1158015612dc5573d6000803e3d6000fd5b505050506040513d601f19601f82011682018060405250810190612de991906133e5565b506001600160a01b0386166000818152609860209081526040808320338085526003918201845282852080548a01905585855260979093529281902090920180548701905590517fc2338029c569368d57ada163fc5a80d774322cd216012f45362d4f9c82eb066290612e5f90879042906140d3565b60405180910390a3505050505050565b60405180610280016040528060006001600160a01b0316815260200160008152602001600081526020016000815260200160008152602001600081526020016000815260200160008152602001612ec4612fb1565b815260006020820181905260408201819052606082018190526080820181905260a0820181905260c0820181905260e08201819052610100820181905261012082015261014001612f13612fcf565b8152602001612f20612fcf565b905290565b828054600181600116156101000203166002900490600052602060002090601f016020900481019282612f5b5760008555612fa1565b82601f10612f745782800160ff19823516178555612fa1565b82800160010185558215612fa1579182015b82811115612fa1578235825591602001919060010190612f86565b50612fad929150612fee565b5090565b60405180604001604052806002906020820280368337509192915050565b6040518061028001604052806014906020820280368337509192915050565b5b80821115612fad5760008155600101612fef565b80356001600160a01b03811681146107e057600080fd5b60008083601f84011261302b578182fd5b50813567ffffffffffffffff811115613042578182fd5b60208301915083602082850101111561081057600080fd5b60006020828403121561306b578081fd5b61298582613003565b60008060408385031215613086578081fd5b61308f83613003565b915061309d60208401613003565b90509250929050565b6000806000606084860312156130ba578081fd5b6130c384613003565b92506130d160208501613003565b91506130df60408501613003565b90509250925092565b6000806000606084860312156130fc578283fd5b61310584613003565b925061311360208501613003565b9150604084013590509250925092565b60008060408385031215613135578182fd5b61313e83613003565b915060208084013567ffffffffffffffff8082111561315b578384fd5b818601915086601f83011261316e578384fd5b81358181111561317a57fe5b8381026040518582820101818110858211171561319357fe5b604052828152858101935084860182860187018b10156131b1578788fd5b8795505b838610156131da576131c681613003565b8552600195909501949386019386016131b5565b508096505050505050509250929050565b600080604083850312156131fd578182fd5b61320683613003565b91506020830135613216816140f9565b809150509250929050565b600080600060608486031215613235578283fd5b61323e84613003565b95602085013595506040909401359392505050565b600080600060408486031215613267578283fd5b61327084613003565b9250602084013567ffffffffffffffff81111561328b578283fd5b6132978682870161301a565b9497909650939450505050565b6000806000806000606086880312156132bb578081fd5b6132c486613003565b9450602086013567ffffffffffffffff808211156132e0578283fd5b6132ec89838a0161301a565b90965094506040880135915080821115613304578283fd5b506133118882890161301a565b969995985093965092949392505050565b60008060408385031215613334578182fd5b61333d83613003565b946020939093013593505050565b60008060006060848603121561335f578283fd5b61336884613003565b925060208401359150604084013561337f816140f9565b809150509250925092565b60008060008060008060c087890312156133a2578384fd5b6133ab87613003565b95506020870135945060408701359350606087013592506080870135915060a08701356133d7816140f9565b809150509295509295509295565b6000602082840312156133f6578081fd5b8151612985816140f9565b600060208284031215613412578081fd5b5051919050565b6000806040838503121561342b578182fd5b50508035926020909101359150565b6000806000806080858703121561344f578182fd5b5050823594602084013594506040840135936060013592509050565b6001600160a01b03169052565b8060005b6014811015610de15781516001600160a01b031684526020938401939091019060010161347c565b8060005b6014811015610de15781518452602093840193909101906001016134a8565b8060005b6002811015610de15781518452602093840193909101906001016134cb565b15159052565b6000828483379101908152919050565b6001600160a01b0391909116815260200190565b6001600160a01b039384168152919092166020820152604081019190915260600190565b6001600160a01b0392831681529116602082015260400190565b901515815260200190565b9283526020830191909152604082015260600190565b6000602080835283518082850152825b8181101561359f57858101830151858201604001528201613583565b818111156135b05783604083870101525b50601f01601f1916929092016040019392505050565b60208082526032908201527f4552525f53796e6469636174655f434c4f5345445f4255545f4449535452494260408201527115551253d394d7d393d517d153905093115160721b606082015260800190565b6020808252602c908201527f4552525f50454e44494e475f4d414e414745525f414c52454144595f4d414e4160408201526b11d154d7d3d39157d195539160a21b606082015260800190565b6020808252601c908201527f4552525f53594e4449434154455f414c52454144595f45584953545300000000604082015260600190565b6020808252601e908201527f4552525f53454e4445525f4e4f545f43555252454e545f4d414e414745520000604082015260600190565b60208082526034908201527f4552525f50454e44494e475f4d414e414745525f43414e4e4f545f455155414c6040820152735f4d414e414745525f4645455f4144445245535360601b606082015260800190565b6020808252602b908201527f4552525f4d41585f544f54414c5f4445504f5349545f524541434845445f464f60408201526a525f53796e64696361746560a81b606082015260800190565b6020808252602b908201527f4552525f5749544844524157414c5f414d4f554e545f475245415445525f544860408201526a414e5f454c494749424c4560a81b606082015260800190565b60208082526026908201527f4552525f4d41585f4445504f5349545f524541434845445f464f525f4c505f4160408201526544445245535360d01b606082015260800190565b6020808252602e908201527f4552525f50454e44494e475f4d414e414745525f49535f414c52454144595f4360408201526d2aa92922a72a2fa6a0a720a3a2a960911b606082015260800190565b6020808252601f908201527f4552525f414d4f554e545f475245415445525f5448414e5f42414c414e434500604082015260600190565b6020808252601a908201527f4552525f4e4f5f454c494749424c455f5749544844524157414c000000000000604082015260600190565b6020808252603c908201527f4552525f4d414e414745525f4645455f414444524553535f43414e4e4f545f4260408201527f455f43555252454e545f4f525f50454e44494e475f4d414e4147455200000000606082015260800190565b60208082526036908201527f4552525f4d414e414745525f4d5553545f5345545f444953545249425554494f60408201527504e5f464f525f5749544844524157414c5f45524332360541b606082015260800190565b60208082526042908201527f53796e6469636174652070726f666974207368617265206d757374206265206760408201527f726561746572207468616e206f7220657175616c20746f203330302028302e33606082015261252960f01b608082015260a00190565b60208082526016908201527522a9292fa9bcb73234b1b0ba32afa727aa2fa7a822a760511b604082015260600190565b60208082526028908201527f4552525f494e53554646494349454e545f554e434c41494d45445f444953545260408201526749425554494f4e5360c01b606082015260800190565b6020808252602a908201527f4552525f5749544844524157414c5f414d4f554e545f475245415445525f5448604082015269105397d1115413d4d25560b21b606082015260800190565b60208082526026908201527f4552525f45524332305f444f45535f4e4f545f4d415443485f4445504f53495460408201526505f45524332360d41b606082015260800190565b60208082526025908201527f4552525f4d53475f53454e4445525f49535f4e4f545f50454e44494e475f4d416040820152642720a3a2a960d91b606082015260800190565b60208082526044908201527f4552525f434c4f5345445f53796e6469636174655f43414e5f4f4e4c595f574960408201527f5448445241575f4445504f5349545f4f525f444953545249425554494f4e5f456060820152630524332360e41b608082015260a00190565b60208082526012908201527111549497d31417d393d517d0531313d5d15160721b604082015260600190565b60208082526018908201527f4552525f414c4c4f574c4953545f4e4f545f494e5f5553450000000000000000604082015260600190565b60208082526019908201527f4552525f4c505f4d5553545f42455f4143435245444954454400000000000000604082015260600190565b6020808252602c908201527f4552525f434c4f53455f444154455f4d5553545f42455f41465445525f424c4f60408201526b0434b5f54494d455354414d560a41b606082015260800190565b60208082526021908201527f4552525f414d4f554e545f475245415445525f5448414e5f414c4c4f57414e436040820152604560f81b606082015260800190565b60208082526032908201527f4552525f4f50454e5f53796e6469636174655f43414e5f4f4e4c595f574954486040820152710445241575f4445504f5349545f45524332360741b606082015260800190565b60208082526042908201527f4552525f414d4f554e545f544f5f555345525f4849474845525f5448414e5f5760408201527f49544844524157414c5f414d4f554e545f4f525f4c4553535f5448414e5f5a45606082015261524f60f01b608082015260a00190565b60208082526018908201527f4552525f53796e6469636174655f4e4f545f434c4f5345440000000000000000604082015260600190565b6020808252601d908201527f4552525f43414e4e4f545f484f4c445f46554e44535f41545f5a45524f000000604082015260600190565b60208082526027908201527f4552525f4d53475f53454e4445525f414c52454144595f4d414e414745535f4f604082015266139157d195539160ca1b606082015260800190565b6020808252603a908201527f5749544844524157414c5f414d4f554e545f49535f4e4f545f455155414c5f5460408201527f4f5f544f54414c5f414d4f554e54535f41465445525f46454553000000000000606082015260800190565b60208082526041908201527f4552525f464545535f43414e5f4f4e4c595f42455f4c4f57455245445f53796e60408201527f6469636174655f4d5553545f42455f4f50454e5f544f5f52414953455f4645456060820152605360f81b608082015260a00190565b6020808252602f908201527f4552525f4d53475f53454e4445525f43414e4e4f545f455155414c5f4d414e4160408201526e4745525f4645455f4144445245535360881b606082015260800190565b6020808252601490820152734552525f414c4c4f574c4953545f494e5f55534560601b604082015260600190565b600061076082019050613f7b82845161346b565b6020830151602083015260408301516040830152606083015160608301526080830151608083015260a083015160a083015260c083015160c083015260e083015160e083015261010080840151613fd4828501826134c7565b5050610120830151610140613feb8185018361346b565b8401519050610160613fff8482018361346b565b84015190506101806140138482018361346b565b84015190506101a0614027848201836134ea565b84015190506101c061403b848201836134ea565b84015190506101e061404f848201836134ea565b8401519050610200614063848201836134ea565b84015161022084810191909152840151610240808501919091528401519050610260614091818501836134a4565b84015190506140a46104e0840182613478565b5092915050565b90815260200190565b9283526001600160a01b03919091166020830152604082015260600190565b918252602082015260400190565b92835260208301919091521515604082015260600190565b801515811461207c57600080fdfe4f776e61626c653a206e6577206f776e657220697320746865207a65726f2061646472657373536166654d6174683a206d756c7469706c69636174696f6e206f766572666c6f774f776e61626c653a2063616c6c6572206973206e6f7420746865206f776e6572a26469706673582212206211c0a5e8ad9cd9d04be807b79500b944e4a640d56fdfdb7dafc83f2d7825b164736f6c63430007060033",
  "immutableReferences": {},
  "source": "// SPDX-License-Identifier: UNLICENSED\n\npragma solidity >=0.6.0 <0.8.0;\n// ABIEncoderV2 is necessary for returning structs in functions. This will be\n// the default in 0.8.0 and is no longer experimental:\n// https://blog.soliditylang.org/2020/12/16/solidity-v0.8.0-release-announcement/\npragma abicoder v2;\n\nimport \"@openzeppelin/contracts-upgradeable/access/OwnableUpgradeable.sol\";\nimport \"@openzeppelin/contracts-upgradeable/utils/PausableUpgradeable.sol\";\nimport \"@openzeppelin/contracts-upgradeable/math/SafeMathUpgradeable.sol\";\nimport \"@openzeppelin/contracts-upgradeable/token/ERC20/IERC20Upgradeable.sol\";\n\n/// @author Will Papper and Syndicate Inc.\n/// @title Syndicate management contract\ncontract Syndicate is OwnableUpgradeable, PausableUpgradeable {\n    // Use OpenZeppelin SafeMath library for uint\n    using SafeMathUpgradeable for uint256;\n\n    // Use a consistent denominator for the profit share calculations\n    uint256 constant PROFIT_SHARE_DENOMINATOR = 10000 ether;\n\n    // This is a placeholder for Will's personal wallet and *must* be changed\n    // before launch\n    address constant SYNDICATE_FEE_ADDRESS =\n        0xdd3767ABcAB26f261e2508A1DA1914053c7DDa78;\n\n    // If you make any changes to SyndicateValues, ensure that you update\n    // getSyndicateValues as well\n    struct SyndicateValues {\n        // The address used for tracking deposits. A stablecoin is recommended\n        // since this is used to calculate ownership, and fluctations in value\n        // can affect these ownership calculations\n        address depositERC20ContractAddress;\n        // The maximum amount that a single address can deposit. This is useful\n        // when you want to restrict the amount that each wallet can deposit\n        // into the fund to ensure that ownership is distributed among many\n        // people. In the future, we can consider having a mapping that allows\n        // you to set per-user deposit thresholds but this is better saved for\n        // the asset management contract.\n        uint256 maxDeposit;\n        // The maximum amount that a fund can raise\n        uint256 maxTotalDeposits;\n        // The total deposits are used for calculating percentage stakes (e.g. ownership)\n        uint256 totalDeposits;\n        // When the Syndicate is closed, this date is automatically updated to the\n        // date that it was closed. This date can be used for calculating\n        // management fees.\n        uint256 closeDate;\n        uint256 syndicateProfitSharePercent;\n        // A standard structure would be a 2% management fee and a 20%\n        // performance fee. For more info, see:\n        // https://www.investopedia.com/terms/t/two_and_twenty.asp\n        uint256 managerManagementFeePercent;\n        uint256 managerPerformanceFeePercent;\n        // The threshold for distributions after which managers receive\n        // performance fees\n        // 0 is for the deposit ERC20 address, 1 is for all other ERC20\n        // addresses\n        uint256[2] managerPerformanceThreshold;\n        address currentManager;\n        // Used to transition ownership of a Syndicate. A new current manager needs\n        // to claim the Syndicate after being assigned as a pending manager\n        address pendingManager;\n        // The manager must set a fee address that is different from the\n        // manager's address. This is to avoid commingling the Syndicate's assets with\n        // the manager's profits\n        address managerFeeAddress;\n        bool syndicateOpen;\n        bool distributionsEnabled;\n        bool allowlistEnabled;\n        bool inactive;\n        // Track the creation date in UNIX time. This is also available in the\n        // events but the events are tougher to access on chain. This creation\n        // date should be relied upon as the source of truth, not the timestamp\n        // for the createSyndicate event\n        uint256 creationDate;\n        // Track the version number for future schema migrations\n        uint256 version;\n        // Reserve space in the struct so that it is upgrade safe\n        // See https://forum.openzeppelin.com/t/how-to-use-a-struct-in-an-upgradable-contract/832/5\n        // Gas usage for createSyndicate without reservations: 130549 gwei\n        // Gas usage for createSyndicate with reservations: 130549 gwei\n        // These reservations consume no gas.\n        // There is more info on how empty arrays are handled here:\n        // https://www.reddit.com/r/ethereum/comments/7f9xjl/evm_question_static_vs_dynamic_arrays/\n        uint256[20] __reservedUint256;\n        address[20] __reservedAddress;\n    }\n\n    // If you make any changes to SyndicateMappings, ensure that you update getSyndicateMappings\n    // as well\n    // This struct is separate from the Syndicate settings struct because it contains\n    // a mapping. Mappings in structs create a whole host of issues in terms of\n    // how they can be returned, so it's convenient to separate the mappings\n    // from the rest of the struct\n    struct SyndicateMappings {\n        // Mapping is the ERC20 contract address -> whether it is available for\n        // distributions.\n        mapping(address => bool) distributionERC20ContractAddresses;\n        // Mapping is the ERC20 contract address -> the amount available as a\n        // distribution\n        mapping(address => uint256) totalDistributions;\n        mapping(address => uint256) totalUnclaimedDistributions;\n        // Tracks the amount that an LP has put into a Syndicate\n        mapping(address => uint256) deposits;\n        // Tracks the amount that an address has claimed for a specific ERC20\n        // contract address\n        mapping(address => mapping(address => uint256)) claimedDistributions;\n        // The addresses that are approved to contribute to the Syndicate\n        // The allowlist is enabled when allowlistEnabled is true\n        // We don't maintain a specific blocklist because someone could\n        // trivially create new addresses\n        mapping(address => bool) allowedAddresses;\n        // Generic metadata mapping for storing arbitrary data\n        mapping(string => string) metadata;\n        // Track the version number for future schema migrations\n        uint256 version;\n        // Reserve space in the struct so that it is upgrade safe\n        // See https://forum.openzeppelin.com/t/how-to-use-a-struct-in-an-upgradable-contract/832/5\n        mapping(address => uint256) reservedAddressUint256MappingZero;\n        mapping(address => uint256) reservedAddressUint256MappingOne;\n        mapping(address => uint256) reservedAddressUint256MappingTwo;\n        mapping(address => uint256) reservedAddressUint256MappingThree;\n        mapping(address => uint256) reservedAddressUint256MappingFour;\n        mapping(address => bool) reservedAddressBoolMappingZero;\n        mapping(address => bool) reservedAddressBoolMappingOne;\n        mapping(address => bool) reservedAddressBoolMappingTwo;\n        mapping(address => bool) reservedAddressBoolMappingThree;\n        mapping(address => bool) reservedAddressBoolMappingFour;\n    }\n\n    // Map a Syndicate manager's address to their Syndicate's settings\n    // The mapping's address is determined via the msg.sender that calls createSyndicate\n    mapping(address => SyndicateValues) syndicateValues;\n\n    // This mapping must be internal, otherwise you'll get \"Stack to deep, try\n    // removing local variables\" as an error when including a large number of\n    // variables in the SyndicateMappings struct. (This first occurred when we added a\n    // 16th variable that was not a bool to SingleSyndicate). This is because Solidity\n    // attempts to generate automatic getters and setters for the mapping and\n    // therefore the struct. The result of this is that we need to create our\n    // own getters and setters. We also will be unable to instantiate SingleSyndicate\n    // as a local variable inside of any function, which is mitigated by the\n    // fact that we always rely on the global syndicateMappings mapping. Being unable to\n    // instantiate the local variable in a function also has less practical\n    // impact because the struct must be initialized in storage anyway because\n    // \"Type struct Syndicate.SyndicateMappings is only valid in storage because it\n    // contains a (nested) mapping.\"\n    // See https://ethereum.stackexchange.com/questions/64496/is-it-possible-to-have-15-variables-in-a-struct-in-solidity\n    // A tip off in solving this was that neither structs nor mappings are\n    // passed as values to the function.\n    // See https://medium.com/coinmonks/stack-too-deep-error-in-solidity-608d1bd6a1ea\n    mapping(address => SyndicateMappings) internal syndicateMappings;\n\n    // Mapping of current managers, true if a wallet is currently managing an\n    // Syndicate. Manager wallets are required to be unique to prevent commingling of\n    // assets between Syndicates and to ensure that transparency is provided to the\n    // LPs\n    mapping(address => bool) currentManagers;\n\n    // Events emitted when LPs invest or withdraw from a Syndicate. Used to track LP\n    // activity, since that cannot be derived from a mapping (there is no way to\n    // search a mapping since it contains all possible addresses initialized to\n    // default values)\n\n    /// @notice Emit an event when an LP invests in a Syndicate\n    /// @dev This is the only way to search for an LP's Syndicates. The\n    /// Syndicates on chain rely on a mapping, so they are not iterable. Instead,\n    /// it's necessary to search through an indexed lpAddress off-chain to get a\n    /// list of an LP's Syndicates for screens such as the My Syndicates screen.\n    /// @dev This must be reconciled with lpWithdrewDepositFromSyndicate to get a\n    /// list of all Syndicates that an LP is currently invested in.\n    event lpInvestedInSyndicate(\n        address indexed lpAddress,\n        address indexed syndicateAddress,\n        uint256 amountInvested,\n        uint256 timestamp\n    );\n\n    /// @notice Emit an event when an LP withdraws a deposit from a Syndicate. If\n    /// an LP withdraws the full deposit that they originally invested, then they\n    /// no longer have any holdings in a specific Syndicate\n    /// @dev A separate event is emitted for withdrawing a distribution\n    event lpWithdrewDepositFromSyndicate(\n        address indexed lpAddress,\n        address indexed syndicateAddress,\n        uint256 amountWithdrawn,\n        address withdrawalERC20ContractAddress,\n        uint256 timestamp\n    );\n\n    /// @notice Emit an event when an LP withdraws a distribution from a Syndicate\n    /// @dev A separate event is emitted for withdrawing a deposit\n    event lpWithdrewDistributionFromSyndicate(\n        address indexed lpAddress,\n        address indexed syndicateAddress,\n        uint256 amountWithdrawn,\n        address withdrawalERC20ContractAddress,\n        uint256 timestamp\n    );\n\n    /// @notice Emit an event when a manager associates a memo with a Syndicate\n    /// @dev The memos are not stored within this contract directly, only via\n    /// this event. They are not recorded within the struct. If a manager wants\n    /// to store a value within the struct, they should use `setMetadata()`\n    event memo(\n        address indexed syndicateAddress,\n        address indexed currentManager,\n        bytes32 blake2b328HashPartOne,\n        bytes32 blake2b328HashPartTwo,\n        uint256 timestamp\n    );\n\n    /// @notice Only proceed if the msg.sender is the current manager\n    modifier rejectIfNotCurrentManager(address syndicateAddress) {\n        require(\n            msg.sender == syndicateValues[syndicateAddress].currentManager,\n            \"ERR_SENDER_NOT_CURRENT_MANAGER\"\n        );\n        _;\n    }\n\n    /// @notice Only proceed if the Syndicate is open\n    modifier onlySyndicateOpen(address syndicateAddress) {\n        closeSyndicateIfPastCloseDate(syndicateAddress);\n        // Require that the Syndicate is open to continue\n        require(\n            syndicateValues[syndicateAddress].syndicateOpen,\n            \"ERR_Syndicate_NOT_OPEN\"\n        );\n        _;\n    }\n\n    /// @notice Only proceed if the Syndicate is closed\n    modifier onlySyndicateClosed(address syndicateAddress) {\n        closeSyndicateIfPastCloseDate(syndicateAddress);\n        // Require that the Syndicate is closed to continue\n        require(\n            !syndicateValues[syndicateAddress].syndicateOpen,\n            \"ERR_Syndicate_NOT_CLOSED\"\n        );\n        _;\n    }\n\n    /// @notice Only proceed if the allowlist is enabled\n    modifier onlyAllowlistEnabled(address syndicateAddress) {\n        // Require that the Syndicate has an allowlist to continue\n        require(\n            syndicateValues[syndicateAddress].allowlistEnabled,\n            \"ERR_ALLOWLIST_NOT_IN_USE\"\n        );\n        _;\n    }\n\n    /// @notice Only proceed if the allowlist is disabled\n    modifier onlyAllowlistDisabled(address syndicateAddress) {\n        // Require that the Syndicate has an allowlist to continue\n        require(\n            !syndicateValues[syndicateAddress].allowlistEnabled,\n            \"ERR_ALLOWLIST_IN_USE\"\n        );\n        _;\n    }\n\n    /// @notice Set the maximum total deposit a single LP can contribute to the\n    /// fund\n    function setMaxDeposit(address syndicateAddress, uint256 maxDeposit)\n        public\n        rejectIfNotCurrentManager(syndicateAddress)\n    {\n        require(\n            maxDeposit >= 0,\n            \"ERR_MAX_DEPOSIT_MUST_BE_GREATER_THAN_OR_EQUAL_TO_0\"\n        );\n        syndicateValues[syndicateAddress].maxDeposit = maxDeposit;\n    }\n\n    /// @notice Set the maximum amount that an SPV can receive in deposits\n    function setMaxTotalDeposits(\n        address syndicateAddress,\n        uint256 maxTotalDeposits\n    ) public rejectIfNotCurrentManager(syndicateAddress) {\n        require(\n            maxTotalDeposits >= 0,\n            \"ERR_MAX_TOTAL_DEPOSITS_MUST_BE_GREATER_THAN_OR_EQUAL_TO_0\"\n        );\n        syndicateValues[syndicateAddress].maxTotalDeposits = maxTotalDeposits;\n    }\n\n    /// @notice Only proceed if the LP attests that they are an accredited\n    /// investor. This is to comply with SEC Rule 506(b) of Regulation D\n    /// @notice Under Rule 506(b), up to 35 non-accredited investors can invest\n    /// in a private placement. These non-accredited investors must have\n    /// sufficient knowledge and experience, which is difficult to verify in a\n    /// decentralized context. As a result, we leave it up to the Syndicate\n    /// manager to track their own list of up to 35 non-accredited investors and\n    /// add them to the allowlist. The Syndicate manager must provide disclosures\n    /// to non-accredited investors that comply with Regulation A offerings, give\n    /// non-accredited investors financial statement information specified in\n    /// Rule 506, and be avaialble to answer questions from potential LPs who are\n    /// non-accredited investors. This responsibility rests with the Syndicate\n    /// manager. See https://www.sec.gov/smallbusiness/exemptofferings/rule506b\n    /// @notice Nothing in this documentation should be considered legal\n    /// advice. If you are seeking any clarification, please email us at\n    /// hello[at]syndicateprotocol.org.\n    modifier onlyAccredited(bool accredited) {\n        // Require that accredited is true to continue\n        require(accredited, \"ERR_LP_MUST_BE_ACCREDITED\");\n        _;\n    }\n\n    /// @notice Only proceed if distributions have not been enabled\n    modifier onlyBeforeDistributionsEnabled(address syndicateAddress) {\n        closeSyndicateIfPastCloseDate(syndicateAddress);\n        require(\n            !syndicateValues[syndicateAddress].distributionsEnabled,\n            \"ERR_DISTRIBUTIONS_ALREADY_ENABLED\"\n        );\n        _;\n    }\n\n    /// @notice Only proceed after distributions have been enabled\n    modifier onlyAfterDistributionsEnabled(address syndicateAddress) {\n        closeSyndicateIfPastCloseDate(syndicateAddress);\n        require(\n            syndicateValues[syndicateAddress].distributionsEnabled,\n            \"ERR_DISTRIBUTIONS_NOT_ENABLED\"\n        );\n        _;\n    }\n\n    /// @notice Close a Syndicate if the current `block.timestamp` is past the\n    /// closeDate\n    /// @dev This check should always occur before checking if the Syndicate is\n    /// open or closed.\n    /// @dev Note that the closeDate will update to the current block.timestamp\n    /// upon closing the Syndicate.\n    function closeSyndicateIfPastCloseDate(address syndicateAddress) internal {\n        // Check if a Syndicate is *past* the close date (if the close date is equal\n        // to the current block timestamp, the Syndicate will remain open)\n        if (\n            syndicateValues[syndicateAddress].syndicateOpen == true &&\n            block.timestamp > syndicateValues[syndicateAddress].closeDate\n        ) {\n            syndicateValues[syndicateAddress].syndicateOpen = false;\n            syndicateValues[syndicateAddress].closeDate = block.timestamp;\n        }\n    }\n\n    /// @notice Used by a manager to create a Syndicate with the address of the\n    /// `msg.sender`\n    /// @param depositERC20ContractAddress The address of the ERC20 used for\n    /// deposits (e.g. DAI or USDC's contract addresses) and withdrawals.\n    /// Stablecoins are strongly recommended, especially for funds that are open\n    /// for an extended period of time. (Otherwise one contributor might\n    /// contribute one unit when a token is $100, and another contributor might\n    /// contribute one unit when a token is $200, and they would have the same\n    /// percentage ownership because they have both contributed one unit of a\n    /// token. Stablecoins prevent this because the value is consistent.)\n    /// @param syndicateProfitSharePercent The profit share that is sent to the\n    /// Syndicate treasury. Syndicate profit share adjusted by PERCENT_MULTIPLE\n    /// (set to 10000 ether). For example, the minimum profit share of 0.30%\n    /// should be passed in as 30 ether (since it is 0.30% * 10000 ether). This\n    /// means that the max precision is 0.01%. There are helpful examples for\n    /// common values in the calculateProfitShare within Syndicate.js.\n    /// @param closeDate The date that the Syndicate will automatically close in\n    /// UNIX time.\n    /// @param maxDeposit The max deposit per wallet address.\n    /// @param maxTotalDeposits The max deposit amount for the fund/Syndicate.\n    /// @param allowlistEnabled False allows contributions to be sent without the\n    /// manager needing to allow them. The manager can always reject a\n    /// contribution before a Syndicate closes with `rejectLPInvestment()`\n    /// @dev The rejectIfNotCurrentManager modifier is not necessary here since\n    /// the Syndicate is being initialized and has not been created yet\n    /// @dev This function is high risk. If a current Syndicate can be\n    /// overwritten, someone could take control of the deposits by changing the\n    /// current manager\n    /// @dev The address of the Syndicate cannot be changed away from the\n    /// msg.sender, but the manager address can be changed\n    function createSyndicate(\n        address depositERC20ContractAddress,\n        uint256 syndicateProfitSharePercent,\n        uint256 closeDate,\n        uint256 maxDeposit,\n        uint256 maxTotalDeposits,\n        bool allowlistEnabled\n    ) public whenNotPaused() {\n        // This requirement is only in place for a Certora Prover check; the \n        // condition should never be met when the contract is deployed to a \n        // real network.\n        require(msg.sender != address(0), \"ERR_CANNOT_HOLD_FUNDS_AT_ZERO\");\n\n        // HIGH RISK: Without this line, a Syndicate can be overwritten and the\n        // deposits can be redirected\n        require(\n            syndicateValues[msg.sender].currentManager == address(0) &&\n                currentManagers[msg.sender] == false &&\n                !syndicateValues[msg.sender].inactive,\n            \"ERR_SYNDICATE_ALREADY_EXISTS\"\n        );\n\n        // Ensure that the closeDate is in the future\n        require(\n            closeDate > block.timestamp,\n            \"ERR_CLOSE_DATE_MUST_BE_AFTER_BLOCK_TIMESTAMP\"\n        );\n\n        // Check that the minimum profit share to Syndicate Protocol is met\n        require(\n            syndicateProfitSharePercent >= 300 ether,\n            \"Syndicate profit share must be greater than or equal to 300 (0.3%)\"\n        );\n\n        // Initialize applicable attributes in syndicateValues\n        syndicateValues[msg.sender]\n            .depositERC20ContractAddress = depositERC20ContractAddress;\n        syndicateValues[msg.sender].maxDeposit = maxDeposit;\n        syndicateValues[msg.sender].maxTotalDeposits = maxTotalDeposits;\n        syndicateValues[msg.sender].closeDate = closeDate;\n        syndicateValues[msg.sender]\n            .syndicateProfitSharePercent = syndicateProfitSharePercent;\n        syndicateValues[msg.sender].currentManager = msg.sender;\n        syndicateValues[msg.sender].syndicateOpen = true;\n        syndicateValues[msg.sender].distributionsEnabled = false;\n        syndicateValues[msg.sender].inactive = false;\n        syndicateValues[msg.sender].allowlistEnabled = allowlistEnabled;\n        syndicateValues[msg.sender].creationDate = block.timestamp;\n        // Set schema version to V1\n        syndicateValues[msg.sender].version = 1;\n\n        // Initialize applicable attributes in syndicateMappings\n        syndicateMappings[msg.sender].distributionERC20ContractAddresses[\n            depositERC20ContractAddress\n        ] = true;\n        syndicateMappings[msg.sender].version = 1;\n\n        // Specify that the msg.sender is now managing a fund\n        currentManagers[msg.sender] == true;\n    }\n\n    /// @notice Used by an LP to invest in a Syndicate\n    /// @param syndicateAddress The Syndicate address that the LP is investing in\n    /// @param amount The amount of the investment (note that this is calculated\n    /// using the primary ERC20 token)\n    /// @param accredited Attestation that the LP is an accredited investor. Must\n    /// be true to continue. This is to comply with SEC Rule 506(b) of\n    /// Regulation D\n    /// @dev The LP's investment is tied to their current address via\n    /// `msg.sender`. Functionality to transfer LP investments to new owners will\n    /// likely be added in the future.\n    function lpInvestInSyndicate(\n        address syndicateAddress,\n        uint256 amount,\n        bool accredited\n    ) public onlySyndicateOpen(syndicateAddress) onlyAccredited(accredited) {\n        if (\n            !syndicateValues[syndicateAddress].allowlistEnabled ||\n            syndicateMappings[syndicateAddress].allowedAddresses[msg.sender]\n        ) {\n            // Check if LP Address maxDeposit will be exceeded on deposit\n            // ensures LP doesn't deposit more than the Syndicate allows for each address\n            require(\n                syndicateValues[syndicateAddress].maxDeposit >=\n                    SafeMathUpgradeable.add(\n                        syndicateMappings[syndicateAddress].deposits[\n                            msg.sender\n                        ],\n                        amount\n                    ),\n                \"ERR_MAX_DEPOSIT_REACHED_FOR_LP_ADDRESS\"\n            );\n            // Check if Syndicate max fund has been reached\n            // ensures LP can't deposit beyond the Syndicate threshold\n            require(\n                syndicateValues[syndicateAddress].maxTotalDeposits >=\n                    SafeMathUpgradeable.add(\n                        syndicateValues[syndicateAddress].totalDeposits,\n                        amount\n                    ),\n                \"ERR_MAX_TOTAL_DEPOSIT_REACHED_FOR_Syndicate\"\n            );\n\n            processDeposit(\n                syndicateAddress,\n                syndicateValues[syndicateAddress].currentManager,\n                syndicateValues[syndicateAddress].depositERC20ContractAddress,\n                amount\n            );\n        } else {\n            require(\n                syndicateMappings[syndicateAddress].allowedAddresses[\n                    msg.sender\n                ],\n                \"ERR_LP_NOT_ALLOWED\"\n            );\n        }\n    }\n\n    /// @notice Used by an LP to withdraw a deposit or distribution from a Syndicate\n    /// @param syndicateAddress The Syndicate that an LP wants to withdraw from\n    /// @param erc20ContractAddress The ERC 20 address to be transferred from the\n    /// manager to the LP.\n    /// @param amount The amount to withdraw\n    /// @notice The LP is identified via `msg.sender`. This call must be made\n    /// from the LP address that originally called lpInvestInSyndicate until the\n    /// functionality to transfer LP investments is added\n    /// @notice Withdrawal options are different if the Syndicate is open or\n    /// closed. If it is open, only the deposit ERC20 can be withdrawn. If it is\n    /// closed and distributions are disabled, no ERC20s of any kind can be\n    /// withdrawn. If it is closed and distributions are enabled, any ERC20\n    /// address can be withdrawn. Distributions are automatically enabled by the\n    /// manager when they set a distribution for the first time.\n    /// @dev Withdrawals are restricted to the primary or secondary ERC20\n    /// contract address. If we allowed any arbitrary ERC20 address, we would\n    /// also need to track percentages for each arbitrary ERC20 address. This is\n    /// significantly outside of the scope of the Syndicate contract and should be\n    /// saved for future asset management contracts\n    function lpWithdrawFromSyndicate(\n        address syndicateAddress,\n        address erc20ContractAddress,\n        uint256 amount\n    ) public {\n        // This check is also handled in processWithdrawal below. We could\n        // consider removing it from here\n        require(\n            erc20ContractAddress ==\n                syndicateValues[syndicateAddress].depositERC20ContractAddress ||\n                syndicateMappings[syndicateAddress]\n                    .distributionERC20ContractAddresses[erc20ContractAddress],\n            \"ERR_CLOSED_Syndicate_CAN_ONLY_WITHDRAW_DEPOSIT_OR_DISTRIBUTION_ERC20\"\n        );\n        processWithdrawal(syndicateAddress, erc20ContractAddress, amount);\n    }\n\n    function setAutoConfirmDeposit(\n        address syndicateAddress,\n        bool allowlistEnabled\n    )\n        public\n        rejectIfNotCurrentManager(syndicateAddress)\n        onlySyndicateOpen(syndicateAddress)\n    {\n        syndicateValues[syndicateAddress].allowlistEnabled = allowlistEnabled;\n    }\n\n    /// @notice Used by a manager to reject an LP investment\n    /// @param syndicateAddress The Syndicate that the LP invested in\n    /// @param lpAddress The LP whose WHOLE contribution is being returned\n    /// @notice This is only used when the allowlist is disabled. When an\n    /// allowlist is enabled, LPs have already been pre-approved so there is no\n    /// need to reject investments. LPs should have certainty that their\n    /// deposits are being accepted when the allowlist is enabled.\n    function rejectLPInvestment(address syndicateAddress, address lpAddress)\n        public\n        rejectIfNotCurrentManager(syndicateAddress)\n        onlySyndicateOpen(syndicateAddress)\n        onlyAllowlistDisabled(syndicateAddress)\n    {\n        uint256 returnAmount =\n            syndicateMappings[syndicateAddress].deposits[lpAddress];\n\n        // Does not call processWithdrawal because (1) the Syndicate could be\n        // paused; and (2) processWithdrawal calls msg.sender (which in this\n        // case is the manager, not the investor).\n\n        IERC20Upgradeable primaryERC20 =\n            IERC20Upgradeable(\n                syndicateValues[syndicateAddress].depositERC20ContractAddress\n            );\n\n        primaryERC20.transferFrom(\n            syndicateValues[syndicateAddress].currentManager,\n            lpAddress,\n            returnAmount\n        );\n\n        // Decrease the deposits after a transferFrom. The transferFrom will\n        // have reverted upon failure, so we can allow this to proceed.\n\n        // Decrease the deposit total for the LP\n        syndicateMappings[syndicateAddress].deposits[\n            lpAddress\n        ] = SafeMathUpgradeable.sub(\n            syndicateMappings[syndicateAddress].deposits[lpAddress],\n            returnAmount\n        );\n        // Decrease the total deposits. It's *very important* to keep this\n        // in sync with the LP deposits. If these values are out of sync,\n        // we cannot calculate percentage ownership of a Syndicate properly.\n        syndicateValues[syndicateAddress].totalDeposits = SafeMathUpgradeable\n            .sub(syndicateValues[syndicateAddress].totalDeposits, returnAmount);\n\n        // Emit event\n        emit lpWithdrewDepositFromSyndicate(\n            lpAddress,\n            syndicateAddress,\n            returnAmount,\n            syndicateValues[syndicateAddress].depositERC20ContractAddress,\n            block.timestamp\n        );\n    }\n\n    /// @notice Used by a manager to add an array of LP addresses to the allowlist\n    /// @param syndicateAddress The address of the Syndicate that will accept the\n    /// allowedAdresses\n    /// @param lpAddresses An array of addresses to be allowed by the Syndicate\n    /// @notice There are two permission levels for a Syndicate:\n    /// @notice 1. Addresses must be pre-approved by the manager and added to the\n    /// allowlist before an LP can invest. These will have an event associated\n    /// with them to allow for easy searching, but the event has not been created\n    /// yet. This is when this function must be used.\n    /// @notice 2. All addresses are allowed, and investments can be rejected\n    /// after the fact. This is useful if you want to allow anyone to invest in a\n    /// Syndicate (for example, for a non-profit might enable this because there\n    /// is no expectation of profits and therefore they wouldn't need to be as\n    /// concerned about approving every user who contributes to a Syndicate)\n    /// @notice Allowing addresses is unnecessary if you pass in\n    /// setAutoConfirmDeposit(true). This enables the second permissions option,\n    /// where all addresses are allowed by default and can be rejected after the\n    /// fact with rejectLPInvestment. As a result, this function only can be used\n    /// when the allowlist is enabled.\n    /// @dev Allowing a single address costs 31527 in gas without an array and\n    /// 32445 in gas with an array. This is a difference in cost of $0.17 at\n    /// current gas prices, which is a worthwhile trade off considering that (a)\n    /// allowing only one address will be less common than allowing multiple\n    /// addresses and (b) having two different allowAddress functions poses a\n    /// security risk if we forget to reconcile changes between them\n    function allowAddresses(\n        address syndicateAddress,\n        address[] memory lpAddresses\n    )\n        public\n        rejectIfNotCurrentManager(syndicateAddress)\n        onlySyndicateOpen(syndicateAddress)\n        onlyAllowlistEnabled(syndicateAddress)\n    {\n        for (uint256 i = 0; i < lpAddresses.length; i++) {\n            syndicateMappings[syndicateAddress].allowedAddresses[\n                lpAddresses[i]\n            ] = true;\n        }\n    }\n\n    /// @notice Used by a manager to deny an address that has been previously\n    /// added to the allowlist\n    /// @param syndicateAddress The address of the Syndicate that contains the\n    /// allowlist\n    /// @param lpAddress The LP address that should be denied\n    /// @notice This function only proceeds when the allowlist is enabled. A\n    /// manager cannot deny an address when the allowlist is disabled since there\n    /// is an incredible number of possible wallet addresses. Instead, a manager\n    /// should use `rejectLPInvestment()`\n    /// @notice Denying an LP address that has previously been allowed does not\n    /// reject an investment or return a contribution. The deposit is still kept\n    /// in the SPV.\n    /// @notice All addresses are denied by default when an allowlist is enabled,\n    /// so this is only necessary if you want to remove a previously allowed\n    /// address\n    function denyAddress(address syndicateAddress, address lpAddress)\n        public\n        rejectIfNotCurrentManager(syndicateAddress)\n        onlySyndicateOpen(syndicateAddress)\n        onlyAllowlistEnabled(syndicateAddress)\n    {\n        syndicateMappings[syndicateAddress].allowedAddresses[lpAddress] = false;\n    }\n\n    /// @notice Used by the current manager to nominate a new manager\n    /// @param syndicateAddress The address of the Syndicate\n    /// @param pendingManagerAddress The address of the new manager\n    /// @notice The current manager is pending until they claim the\n    /// currentManager status. This ensures that the new current manager has\n    /// control over their wallet and has also agreed to manage the fund.\n    /// @notice Changing a manager does not change the syndicateAddress. The\n    /// syndicateAddress is permanent but has no effect beyond acting as an identifier.\n    /// @notice To reset a pendingManager request, just set the pendingManager to\n    /// be address(0). This is the value that it is initialized at within the\n    /// SingleSyndicate struct (it is the default value for all addresses)\n    function setPendingManager(\n        address syndicateAddress,\n        address pendingManagerAddress\n    ) public rejectIfNotCurrentManager(syndicateAddress) {\n        // Every manager can only manage one Syndicate\n        require(\n            currentManagers[pendingManagerAddress] == false,\n            \"ERR_PENDING_MANAGER_ALREADY_MANAGES_ONE_FUND\"\n        );\n\n        // The current manager cannot set themselves as the pending manager\n        // They already manage the Syndicate, so this action doesn't make sense\n        require(\n            syndicateValues[syndicateAddress].currentManager !=\n                pendingManagerAddress,\n            \"ERR_PENDING_MANAGER_IS_ALREADY_CURRENT_MANAGER\"\n        );\n        // The manager must set a fee address that is different from the\n        // manager's address. This is to avoid commingling the Syndicate's assets with\n        // the manager's profits\n        require(\n            pendingManagerAddress !=\n                syndicateValues[syndicateAddress].managerFeeAddress,\n            \"ERR_PENDING_MANAGER_CANNOT_EQUAL_MANAGER_FEE_ADDRESS\"\n        );\n        syndicateValues[syndicateAddress]\n            .pendingManager = pendingManagerAddress;\n    }\n\n    /// @notice Used by the pending manager to claim current manager status\n    /// @param syndicateAddress The address of the Syndicate\n    /// @notice The pending manager is identified by `msg.sender`, which proves\n    /// that they have control over their address\n    /// @notice Changing a manager does not change the syndicateAddress. The\n    /// syndicateAddress is permanent but has no effect beyond acting as an\n    /// identifier.\n    function confirmPendingManager(address syndicateAddress) public {\n        // Local variables with a value type (like addresses) are stored in\n        // memory. We don't need to (and in fact, cannot) specify this\n        // explicitly for addresses\n        address oldCurrentManager =\n            syndicateValues[syndicateAddress].currentManager;\n        address newCurrentManager =\n            syndicateValues[syndicateAddress].pendingManager;\n\n        // HIGH RISK: Without this line, anyone could steal a fund from a\n        // pendingManager\n        require(\n            msg.sender == newCurrentManager,\n            \"ERR_MSG_SENDER_IS_NOT_PENDING_MANAGER\"\n        );\n        require(\n            currentManagers[newCurrentManager] == false,\n            \"ERR_MSG_SENDER_ALREADY_MANAGES_ONE_FUND\"\n        );\n        // The manager must set a fee address that is different from the\n        // manager's address. This is to avoid commingling the Syndicate's assets with\n        // the manager's profits\n        require(\n            msg.sender != syndicateValues[syndicateAddress].managerFeeAddress,\n            \"ERR_MSG_SENDER_CANNOT_EQUAL_MANAGER_FEE_ADDRESS\"\n        );\n\n        // We use syndicateValues[syndicateAddress].pendingManager here (stored as\n        // newCurrentManager) to ensure that a failure of the require statement\n        // above does not lead to the fund being stolen by the msg.sender. We do\n        // not set the currentManager to be msg.sender, in case we fail to\n        // properly check that newCurrentManager is the msg.sender\n        syndicateValues[syndicateAddress].currentManager = newCurrentManager;\n\n        currentManagers[newCurrentManager] == true;\n        currentManagers[oldCurrentManager] == false;\n    }\n\n    /// @notice Used by a manager to set their management and performance fees\n    /// @param syndicateAddress The address of the Syndicate to set fees for\n    /// @param managerManagementFeePercent The management fee of a Syndicate\n    /// manager, calculated per year (e.g. 2% per year, which would be passed in\n    /// as 200 ether because the fees are adjusted by PERCENT_MULTIPLE, which is\n    /// set to 10000 ether. See the syndicateProfitShare documentation in\n    /// `createSyndicate()` for more information on this calculation)\n    /// @param managerPerformanceFeePercent The performance fee of a Syndicate\n    /// manager, received when an LP makes a withdrawal (e.g. 20% percent per\n    /// distribution upon withdrawal, which would be passed in as 2000 ether)\n    /// @dev Manager fees can only be set higher while the Syndicate is open to\n    /// prevent managers from changing fees on LPs without the ability to act on\n    /// those fee changes. The manager can only raise fees while LPs still have\n    /// the ability to pull their money out. After the Syndicate is closed, fees\n    /// can only be lowered and cannot be raised.\n    /// @dev In the future, we will include a timelock on all changes to raise\n    /// fees. Since the current architecture requires trust in a manager because\n    /// the manager holds the funds, this risk is one that we are willing to\n    /// accept in the short-term.\n    function setManagerFees(\n        address syndicateAddress,\n        uint256 managerManagementFeePercent,\n        uint256 managerPerformanceFeePercent\n    ) public rejectIfNotCurrentManager(syndicateAddress) {\n        require(\n            managerManagementFeePercent >= 0 &&\n                managerPerformanceFeePercent >= 0,\n            \"ERR_FEES_MUST_BE_GREATER_THAN_OR_EQUAL_TO_0\"\n        );\n        // The manager can only raise the fees after the Syndicate is open\n        if (\n            managerManagementFeePercent >\n            syndicateValues[syndicateAddress].managerManagementFeePercent ||\n            managerPerformanceFeePercent >\n            syndicateValues[syndicateAddress].managerPerformanceFeePercent\n        ) {\n            require(\n                syndicateValues[syndicateAddress].syndicateOpen,\n                \"ERR_FEES_CAN_ONLY_BE_LOWERED_Syndicate_MUST_BE_OPEN_TO_RAISE_FEES\"\n            );\n            syndicateValues[syndicateAddress]\n                .managerManagementFeePercent = managerManagementFeePercent;\n            syndicateValues[syndicateAddress]\n                .managerPerformanceFeePercent = managerPerformanceFeePercent;\n        }\n        // The manager can lower the fees under any conditions. This line will\n        // only execute if the fees are less than or equal to the current fees\n        else {\n            syndicateValues[syndicateAddress]\n                .managerManagementFeePercent = managerManagementFeePercent;\n            syndicateValues[syndicateAddress]\n                .managerPerformanceFeePercent = managerPerformanceFeePercent;\n        }\n    }\n\n    /// @notice Used by a manager to set the address where fees should be sent\n    /// @param syndicateAddress The address of the Syndicate\n    /// @param managerFeeAddress The address where manager fees should be sent.\n    /// This cannot be the current or pending Syndicate manager\n    /// @dev The manager can burn the fees or send them to an address that they\n    /// do not own if they'd like, there is no requirement that the\n    /// managerFeeAddress cannot equal address(0) or e.g. the address of a\n    /// charity\n    function setManagerFeeAddress(\n        address syndicateAddress,\n        address managerFeeAddress\n    ) public rejectIfNotCurrentManager(syndicateAddress) {\n        // The manager must set a fee address that is different from the\n        // manager's address. This is to avoid commingling the Syndicate's assets with\n        // the manager's profits\n        require(\n            managerFeeAddress !=\n                syndicateValues[syndicateAddress].currentManager &&\n                managerFeeAddress !=\n                syndicateValues[syndicateAddress].pendingManager,\n            \"ERR_MANAGER_FEE_ADDRESS_CANNOT_BE_CURRENT_OR_PENDING_MANAGER\"\n        );\n        syndicateValues[syndicateAddress].managerFeeAddress = managerFeeAddress;\n    }\n\n    /// @notice Used by a manager to close a Syndicate to new deposits.\n    /// @param syndicateAddress The address of the Syndicate\n    /// @notice A Syndicate must be closed before distributions can be redeemed.\n    /// @notice Once a Syndicate is closed, it cannot be opened again. This is to\n    /// prevent issues with redeeming distributions interacting with new deposits\n    /// (e.g. a user with a 10% stake performs a withdrawal, and then a deposit\n    /// occurs that dilutes them down to a 1% stake. From that point onward, they\n    /// would only be entitled to 1% of the distributions)\n    /// @dev Closing a Syndicate updates the closeDate to the current block\n    /// timestamp This can be used for calculating management fees or determining\n    /// how long the Syndicate has been deploying funds.\n    function closeSyndicate(address syndicateAddress)\n        public\n        rejectIfNotCurrentManager(syndicateAddress)\n        onlySyndicateOpen(syndicateAddress)\n    {\n        syndicateValues[syndicateAddress].syndicateOpen = false;\n        syndicateValues[syndicateAddress].closeDate = block.timestamp;\n    }\n\n    /// @notice Used by a manager to mark a distribution as available\n    /// @param syndicateAddress The address of the Syndicate\n    /// @param distributionERC20Address The ERC20 contract address of the\n    /// distribution\n    /// @param amount The amount of the distribution\n    /// @notice If this function is called before distributions are enabled, it\n    /// will automatically enable distributions. Once enabled, distributions\n    /// cannot be disabled.\n    /// @notice Distributions can be set for any ERC20 token, including the\n    /// deposit token\n    /// @notice A sufficient allowance and balance must be set for the amount\n    /// before this can proceed. The currentManager address must give an\n    /// allowance greater than or equal to the distribution amount to the\n    /// Syndicate contract address. Unlimited allowances are not recommended\n    /// because they pose a security risk in case of a vulnerability in the\n    /// contract.\n    /// @notice Managers only receive performance fees when a user withdraws a\n    /// distribution, not when the manager sets the distribution. This prevents\n    /// managers from setting a high allowance, taking their fee, and then\n    /// cutting off the allowance and not allowing LPs to withdraw.\n    function setDistribution(\n        address syndicateAddress,\n        address distributionERC20Address,\n        uint256 amount\n    )\n        public\n        rejectIfNotCurrentManager(syndicateAddress)\n        onlySyndicateClosed(syndicateAddress)\n    {\n        // Enable distributions if they are currently disabled\n        if (!syndicateValues[syndicateAddress].distributionsEnabled) {\n            syndicateValues[syndicateAddress].distributionsEnabled = true;\n        }\n\n        IERC20Upgradeable distributionERC20 =\n            IERC20Upgradeable(distributionERC20Address);\n\n        // Check distribution amount is less than or equal to the balance and\n        // allowance from the ERC20\n        uint256 allowance =\n            distributionERC20.allowance(\n                syndicateValues[syndicateAddress].currentManager,\n                address(this)\n            );\n\n        // The -1 check for the allowance handles unlimited approval in the case\n        // of DAI. Note that unlimited approval is not recommended for security\n        // reasons, since unlimited approval could allow all tokens to be\n        // drained in the case of a bug.\n        // For more on infinite approval, see the following resources on DAI:\n        // https://docs.makerdao.com/smart-contract-modules/dai-module/dai-detailed-documentation#differences-from-erc-20\n        // https://github.com/makerdao/dss/blob/e2cdd97046d456b760c1223b5ffb86c540b9e096/src/dai.sol#L78\n        // TODO: Review unlimited approval check below to ensure that it is\n        // correct. This should be checked in the tests.\n        require(\n            amount <= allowance || allowance == uint256(-1),\n            \"ERR_AMOUNT_GREATER_THAN_ALLOWANCE\"\n        );\n\n        uint256 balance =\n            distributionERC20.balanceOf(\n                syndicateValues[syndicateAddress].currentManager\n            );\n        require(amount <= balance, \"ERR_AMOUNT_GREATER_THAN_BALANCE\");\n\n        // If the allowance and balance checks pass, proceed with marking the distribution as available and emitting an event\n        // Only set the distribution ERC20 Contract Address if it was previously unset\n        if (\n            !syndicateMappings[syndicateAddress]\n                .distributionERC20ContractAddresses[distributionERC20Address]\n        ) {\n            syndicateMappings[syndicateAddress]\n                .distributionERC20ContractAddresses[\n                distributionERC20Address\n            ] = true;\n            // TODO: Emit event that a new distribution ERC20 address has been sent\n        }\n\n        // HIGH RISK: It is important to keep the total and unclaimed distributions\n        // values in sync when a new distribution is added\n        syndicateMappings[syndicateAddress].totalDistributions[\n            distributionERC20Address\n        ] = syndicateMappings[syndicateAddress].totalDistributions[\n            distributionERC20Address\n        ]\n            .add(amount);\n\n        syndicateMappings[syndicateAddress].totalUnclaimedDistributions[\n            distributionERC20Address\n        ] = syndicateMappings[syndicateAddress].totalUnclaimedDistributions[\n            distributionERC20Address\n        ]\n            .add(amount);\n    }\n\n    /// @notice Used by a manager to mark a Syndicate as inactive or active\n    /// @param syndicateAddress The address of the Syndicate\n    /// @param inactiveStatus The boolean representing whether the Syndicate is\n    /// inactive. Set inactiveStatus to true if the Syndicate is inactive.\n    /// inactiveStatus is initialized to false upon creation of the Syndicate\n    /// @notice This signals that the Syndicate is no longer in use. This only\n    /// changes the UI that end users see and has no implications for the\n    /// operation of the smart contract. If a manager would like to shut down a\n    /// Syndicate, they should close the Syndicate and enable distributions.\n    function setSyndicateInactiveStatus(\n        address syndicateAddress,\n        bool inactiveStatus\n    ) public rejectIfNotCurrentManager(syndicateAddress) {\n        syndicateValues[syndicateAddress].inactive = inactiveStatus;\n    }\n\n    function setMetadata(\n        address syndicateAddress,\n        string calldata metadataKey,\n        string calldata metadataValue\n    ) public rejectIfNotCurrentManager(syndicateAddress) {\n        syndicateMappings[syndicateAddress].metadata[\n            metadataKey\n        ] = metadataValue;\n    }\n\n    /// @notice Emit an event that references a memo stored as 64 byte hash.\n    /// @param syndicateAddress The address of the Syndicate\n    /// @param blake2b328HashPartOne The first 32 bytes of the hash\n    /// @param blake2b328HashPartTwo The second 32 bytes of the hash\n    /// @notice IPFS is recommended. If an IPFS hash is used, it must be\n    /// `blake2b-328` so that it can be stored in 64 bytes.\n    /// @notice This can be used to store a fund thesis or describe a transaction\n    /// that a fund manager made in their wallet. This provides transparency by\n    /// notifying LPs of transactions and allowing them to verify the proper use\n    /// of funds.\n    /// @dev For more on the recommendation to use `blake2b-328` hashes, see\n    /// https://medium.com/temporal-cloud/efficient-usable-and-cheap-storage-of-ipfs-hashes-in-solidity-smart-contracts-eb3bef129eba\n    function emitMemo(\n        address syndicateAddress,\n        bytes32 blake2b328HashPartOne,\n        bytes32 blake2b328HashPartTwo\n    ) public rejectIfNotCurrentManager(syndicateAddress) {\n        emit memo(\n            syndicateAddress,\n            msg.sender,\n            blake2b328HashPartOne,\n            blake2b328HashPartTwo,\n            block.timestamp\n        );\n    }\n\n    /// @notice Get the values for a Syndicate\n    /// @param syndicateAddress The address of the Syndicate\n    /// @return SyndicateValues struct\n    /// @dev This function **must** be kept up to date with the web3 UI when\n    /// making changes. All PRs that change this function **must** be coordinated\n    /// with an engineer on the Web3 Dashboard.\n    function getSyndicateValues(address syndicateAddress)\n        public\n        view\n        returns (SyndicateValues memory)\n    {\n        return syndicateValues[syndicateAddress];\n    }\n\n    /// @notice Get the LP info for a Syndicate\n    /// @param syndicateAddress The address of the Syndicate\n    /// @param lpAddress The address of the LP whose info is being queried\n    /// @return Tuple of:\n    /// syndicateMappings[syndicateAddress].deposits[lpAddress],\n    /// syndicateMappings[syndicateAddress].claimedDistributions[lpAddress][depositERC20ContractAddress],\n    /// syndicateMappings[syndicateAddress].allowedAddresses[lpAddress]\n    /// @notice To get the claimed distributiosn for another ERC20, use `getClaimedDistributions()`\n    /// @dev This function **must** be kept up to date with the Web3 UI when\n    /// making changes. All PRs that change this function **must** be coordinated\n    /// with an engineer on the Web3 Dashboard.\n    function getSyndicateLPInfo(address syndicateAddress, address lpAddress)\n        public\n        view\n        returns (\n            uint256,\n            uint256,\n            bool\n        )\n    {\n        return (\n            syndicateMappings[syndicateAddress].deposits[lpAddress],\n            syndicateMappings[syndicateAddress].claimedDistributions[lpAddress][\n                syndicateValues[syndicateAddress].depositERC20ContractAddress\n            ],\n            syndicateMappings[syndicateAddress].allowedAddresses[lpAddress]\n        );\n    }\n\n    /// @notice Get Sydicate's total distributions per given ERC20\n    /// @param syndicateAddress The address of the Syndicate\n    /// @param distributionERC20ContractAddress The address of the ERC20\n    /// to return total distributions\n    /// @return totalDistributions for a given distributionERC20ContractAddress\n    function getTotalDistributions(\n        address syndicateAddress,\n        address distributionERC20ContractAddress\n    ) public view returns (uint256) {\n        return \n            syndicateMappings[syndicateAddress].totalDistributions[distributionERC20ContractAddress];\n    }\n\n    /// @notice Get an LP's claimed distributions for a given ERC20\n    /// @param syndicateAddress The address of the Syndicate\n    /// @param lpAddress The address of the LP whose info is being queried\n    /// @param distributionERC20ContractAddress The address of the ERC20\n    /// to return the LP's claimed distributions\n    /// @return claimedDistributions by an LP for a given\n    /// distributionERC20ContractAddress\n    function getClaimedDistributions(\n        address syndicateAddress,\n        address lpAddress,\n        address distributionERC20ContractAddress\n    ) public view returns (uint256) {\n        return\n            syndicateMappings[syndicateAddress].claimedDistributions[lpAddress][\n                distributionERC20ContractAddress\n            ];\n    }\n\n    /// @notice Get an LP's unclaimed distribution for a given ERC20\n    /// @param syndicateAddress The address of the Syndicate\n    /// @param lpAddress The address of the LP whose info is being queried\n    /// @param distributionERC20ContractAddress The address of the ERC20\n    /// to return the LP's unclaimed distributions\n    /// @return unclaimedDistributions by an LP for a given\n    /// distributionERC20ContractAddress\n    function getUnclaimedDistributions(\n        address syndicateAddress,\n        address lpAddress,\n        address distributionERC20ContractAddress\n    ) public view returns (uint256) {\n\n        uint256 userContributions;\n        uint256 totalContributions;\n        uint256 claimedDistributions;\n        uint256 totalDistributions;\n\n        (userContributions, ,) = getSyndicateLPInfo(syndicateAddress, lpAddress);\n        totalContributions = getSyndicateValues(syndicateAddress).totalDeposits;\n        claimedDistributions = getClaimedDistributions(\n            syndicateAddress,\n            lpAddress,\n            distributionERC20ContractAddress\n        );\n        totalDistributions = getTotalDistributions(syndicateAddress, distributionERC20ContractAddress);\n\n        return\n            calculateEligibleWithdrawal(\n                userContributions,\n                totalContributions,\n                claimedDistributions,\n                totalDistributions\n            );\n    }\n\n    /// @notice Get the metadata for a given key within a Syndicate\n    /// @param syndicateAddress The address of the Syndicate\n    /// @param metadataKey The string that is the key of the metadata to look up\n    /// @return metadataValue as a string\n    function getSyndicateMetadata(\n        address syndicateAddress,\n        string calldata metadataKey\n    ) public view returns (string memory) {\n        return syndicateMappings[syndicateAddress].metadata[metadataKey];\n    }\n\n    /// @notice Process a deposit to a Syndicate\n    /// @param syndicateAddress The address of the Syndicate\n    /// @param depositERC20ContractAddress The ERC20 contract address of the\n    /// token that is being used for the deposit\n    /// @param amount The amount that the msg.sender is depositing\n    /// @dev The onlySyndicateOpen modifier is handled by the methods that call this\n    /// (lpInvestInSyndicate). This modifier is a duplicate and could be removed to\n    /// save on gas costs, at the expense of possibly introducing bugs in\n    /// investing in close Syndicates down the road. For safety's sake, we'll keep it\n    /// in for now -- investing in a closed Syndicate causes a whole host of issues,\n    /// so it's worth the small increase in gas for the protection that we get\n    /// from its presence.\n    /// @dev This function is high risk. If the `.transferFrom` line can be\n    /// redirected elsewhere, deposits could be stolen. In addition, if the\n    /// deposits are not properly tracked, a user could withdraw more than their\n    /// allocated share of the distributions.\n    function processDeposit(\n        address syndicateAddress,\n        address currentManagerAddress,\n        address depositERC20ContractAddress,\n        uint256 amount\n    ) internal whenNotPaused() onlySyndicateOpen(syndicateAddress) {\n        require(\n            depositERC20ContractAddress ==\n                syndicateValues[syndicateAddress].depositERC20ContractAddress,\n            \"ERR_ERC20_DOES_NOT_MATCH_DEPOSIT_ERC20\"\n        );\n        IERC20Upgradeable depositERC20 =\n            IERC20Upgradeable(\n                syndicateValues[syndicateAddress].depositERC20ContractAddress\n            );\n\n        // We could check the allowance first before calling `transferFrom()` if\n        // we wanted to, but this would use up more gas. I believe that the\n        // `transferFrom()` should cause a revert if the allowance or balance is\n        // insufficient, so we don't need to conduct a check here for it. We do\n        // need to ensure that everything related to a confirmed transaction\n        // occurs after `transferFrom()`\n\n        // HIGH RISK: If we did not use `msg.sender`, this could be used to\n        // steal funds from users other than the wallet holder (or smart\n        // contract owner, if a DAO is making the deposit).\n        depositERC20.transferFrom(msg.sender, currentManagerAddress, amount);\n\n        // Increase the deposits after a transferFrom. The transferFrom will\n        // have reverted upon failure, so we can allow this to proceed.\n\n        // Increase the deposit total for the LP\n        syndicateMappings[syndicateAddress].deposits[msg.sender] += amount;\n        // Increase the total deposits. It's *very important* to keep this in\n        // sync with the LP deposits. If these values are out of sync, we cannot\n        // calculate percentage ownership of a Syndicate properly\n        syndicateValues[syndicateAddress].totalDeposits += amount;\n\n        // Emit LP invested in Syndicate event\n        emit lpInvestedInSyndicate(\n            msg.sender,\n            syndicateAddress,\n            amount,\n            block.timestamp\n        );\n    }\n\n    /// @notice Withdraws deposits from an open fund in primary tokens;\n    /// transfers distributions from a closed fund in either primary or\n    /// secondary tokens.\n    /// @param syndicateAddress The address of the Syndicate\n    /// @param withdrawalERC20ContractAddress The address of the tokens\n    /// awaiting distribution.  This parameter implicitly specifies the type of\n    /// distribution (i.e. in primary or secondary tokens) that is being\n    /// withdrawn.\n    /// @param amount Amount in primary or secondary distribution tokens (as\n    /// specified by withdrawalERC20ContractAddress)\n    /// @dev This function is high risk. If the `.transferFrom` line can be\n    /// redirected elsewhere, withdrawals could be stolen. In addition, if the\n    /// withdrawals are not properly tracked, a user could withdraw more than\n    /// their allocated share of the distributions.\n    function processWithdrawal(\n        address syndicateAddress,\n        address withdrawalERC20ContractAddress,\n        uint256 amount\n    ) internal whenNotPaused() {\n        // If the Syndicate is open, you can withdraw the primary ERC20 token to take\n        // your money back. This is deducted from your deposit. Because you are\n        // receiving your money back before there are any profits, there are no\n        // fees associated with this action.\n        if (syndicateValues[syndicateAddress].syndicateOpen) {\n            // Ensure that the primary ERC20 is the only withdrawal option\n            // before a fund closes (otherwise a user could take secondary\n            // tokens before they are distributed)\n            require(\n                syndicateValues[syndicateAddress].depositERC20ContractAddress ==\n                    withdrawalERC20ContractAddress,\n                \"ERR_OPEN_Syndicate_CAN_ONLY_WITHDRAW_DEPOSIT_ERC20\"\n            );\n\n            // HIGH RISK: Without this line, a user could withdraw more than\n            // they put into the fund\n            require(\n                amount <=\n                    syndicateMappings[syndicateAddress].deposits[msg.sender],\n                \"ERR_WITHDRAWAL_AMOUNT_GREATER_THAN_DEPOSIT\"\n            );\n\n            // Rely on the primaryERC20ContractAddress since that is the only\n            // allowed option when a fund is open\n            IERC20Upgradeable withdrawalERC20 =\n                IERC20Upgradeable(\n                    syndicateValues[syndicateAddress]\n                        .depositERC20ContractAddress\n                );\n\n            // HIGH RISK: If we did not use `msg.sender`, this could be used to\n            // redirect funds from users other than the wallet holder (or smart\n            // contract owner, if a DAO is making the withdrawal).\n            withdrawalERC20.transferFrom(\n                syndicateValues[syndicateAddress].currentManager,\n                msg.sender,\n                amount\n            );\n\n            // Decrease the deposits after a transferFrom. The transferFrom will\n            // have reverted upon failure, so we can allow this to proceed.\n\n            // Decrease the deposit total for the LP\n            syndicateMappings[syndicateAddress].deposits[\n                msg.sender\n            ] = SafeMathUpgradeable.sub(\n                syndicateMappings[syndicateAddress].deposits[msg.sender],\n                amount\n            );\n            // Decrease the total deposits. It's *very important* to keep this\n            // in sync with the LP deposits. If these values are out of sync,\n            // we cannot calculate percentage ownership of a Syndicate properly.\n            syndicateValues[syndicateAddress]\n                .totalDeposits = SafeMathUpgradeable.sub(\n                syndicateValues[syndicateAddress].totalDeposits,\n                amount\n            );\n\n            // Keep track of the amount that the LP has withdrawn via an event\n            emit lpWithdrewDepositFromSyndicate(\n                msg.sender,\n                syndicateAddress,\n                amount,\n                withdrawalERC20ContractAddress,\n                block.timestamp\n            );\n        }\n        // If the Syndicate is closed but distributions have not been enabled, the Syndicate\n        // manager needs the Syndicates for investment. Therefore, the funds cannot be\n        // withdrawn until the Syndicate manager enables distributions.\n        else if (\n            !syndicateValues[syndicateAddress].syndicateOpen &&\n            !syndicateValues[syndicateAddress].distributionsEnabled\n        ) {\n            revert(\"ERR_Syndicate_CLOSED_BUT_DISTRIBUTIONS_NOT_ENABLED\");\n        }\n        // If the Syndicate is closed and distributions are enabled, funds can be\n        // withdrawn in the primary or secondary ERC20 token. This is added\n        // to the sender's claimed distribution totals to track the remaining\n        // amount they are eligible to withdraw. Fees are sent to the manager\n        // and Syndicate upon withdrawal.\n        else if (\n            !syndicateValues[syndicateAddress].syndicateOpen &&\n            syndicateValues[syndicateAddress].distributionsEnabled\n        ) {\n            require(\n                syndicateMappings[syndicateAddress]\n                    .distributionERC20ContractAddresses[\n                    withdrawalERC20ContractAddress\n                ],\n                \"ERR_MANAGER_MUST_SET_DISTRIBUTION_FOR_WITHDRAWAL_ERC20\"\n            );\n            // If this error is thrown, then we have not properly\n            // tracked totalUnclaimedDistributions[erc20Index].\n            require(\n                amount <=\n                    syndicateMappings[syndicateAddress]\n                        .totalUnclaimedDistributions[\n                        withdrawalERC20ContractAddress\n                    ],\n                \"ERR_INSUFFICIENT_UNCLAIMED_DISTRIBUTIONS\"\n            );\n            // HIGH RISK: Without this line, a user could withdraw more than\n            // they are eligible to.\n            require(\n                amount <=\n                    calculateEligibleWithdrawal(\n                        syndicateMappings[syndicateAddress].deposits[\n                            msg.sender\n                        ],\n                        syndicateValues[syndicateAddress].totalDeposits,\n                        syndicateMappings[syndicateAddress]\n                            .claimedDistributions[msg.sender][\n                            withdrawalERC20ContractAddress\n                        ],\n                        syndicateMappings[syndicateAddress].totalDistributions[\n                            withdrawalERC20ContractAddress\n                        ]\n                    ),\n                \"ERR_WITHDRAWAL_AMOUNT_GREATER_THAN_ELIGIBLE\"\n            );\n\n            IERC20Upgradeable withdrawalERC20 =\n                IERC20Upgradeable(withdrawalERC20ContractAddress);\n\n            uint256 amountToSyndicate;\n            uint256 amountToManager;\n            uint256 amountToUser;\n\n            // Tuples are not proper types on Solidity, so we cannot access\n            // them by quering the index of the tuple\n            // https://docs.soliditylang.org/en/latest/control-structures.html#assignment\n            (, amountToSyndicate) = calculateProfitShare(\n                amount,\n                syndicateValues[syndicateAddress].syndicateProfitSharePercent\n            );\n            (, amountToManager) = calculateProfitShare(\n                amount,\n                syndicateValues[syndicateAddress].managerPerformanceFeePercent\n            );\n            // Get amount by subtracting from the manager and the Syndicate\n            // profit shares. This is a protection against errors in the fee\n            // calculation.\n            amountToUser = amount.sub(amountToSyndicate).sub(amountToManager);\n\n            // Additional sanity check to ensure that the user is not\n            // withdrawing an amount greater than what they're entitled to\n            // or withdrawing a negative amount. There are cases where a\n            // user may withdraw 0 (e.g. If Syndicate or the manager\n            // receives 100% of the distributions, in the case of a charity)\n            require(\n                (amount >= amountToUser && amountToUser >= 0),\n                \"ERR_AMOUNT_TO_USER_HIGHER_THAN_WITHDRAWAL_AMOUNT_OR_LESS_THAN_ZERO\"\n            );\n            // I believe that there are cases where this can fail (e.g. if\n            // there is wei left over from truncating the division). We can\n            // catch this during formal verification and determine whether\n            // we want to make amount >= instead of == or just give the\n            // remaining wei to the user\n            require(\n                amount ==\n                    amountToSyndicate.add(amountToManager).add(amountToUser),\n                \"WITHDRAWAL_AMOUNT_IS_NOT_EQUAL_TO_TOTAL_AMOUNTS_AFTER_FEES\"\n            );\n\n            // The user should get paid first, then Syndicate, then the\n            // manager. This is because the manager controls the allowance --\n            // otherwise the manager could stop someone from getting paid by\n            // lowering the allowance below the distribution amount. If the\n            // manager wants to get paid, they need to set a proper\n            // allowance and not have any of these transfers fail.\n            // HIGH RISK: If we did not use `msg.sender`, this could be\n            // used to redirect funds from users other than the wallet\n            // holder (or smart contract owner, if a DAO is making the\n            // withdrawal).\n            withdrawalERC20.transferFrom(\n                syndicateValues[syndicateAddress].currentManager,\n                msg.sender,\n                amountToUser\n            );\n\n            // Increase the claimed distributions after a transferFrom. The\n            // transferFrom will have reverted upon failure, so we can\n            // allow this to proceed.\n            // HIGH RISK: We increase the amounts after each transferFrom to\n            // ensure that the amounts are accurately recorded if a single\n            // transferFrom fails. If we increased the amounts after the\n            // transferFrom sequence, any one of the transferFrom calls\n            // failing would cause the entire withdrawal to go unrecorded\n            syndicateMappings[syndicateAddress].claimedDistributions[\n                msg.sender\n            ][withdrawalERC20ContractAddress] = SafeMathUpgradeable.add(\n                syndicateMappings[syndicateAddress].claimedDistributions[\n                    msg.sender\n                ][withdrawalERC20ContractAddress],\n                amountToUser\n            );\n\n            // Increase the LP's claimed distributions\n            // Subtract from Syndicate's total distributions available.  It is\n            // *very important* to keep this in sync with the LP claimed\n            // distributions. If these values are out of sync, we cannot\n            // calculate percentage ownership of a Syndicate properly.\n            syndicateMappings[syndicateAddress].totalUnclaimedDistributions[\n                withdrawalERC20ContractAddress\n            ] = SafeMathUpgradeable.sub(\n                syndicateMappings[syndicateAddress].totalUnclaimedDistributions[\n                    withdrawalERC20ContractAddress\n                ],\n                amountToUser\n            );\n\n            // Follow the same transfer process for the Syndicate\n            // distribution share\n            withdrawalERC20.transferFrom(\n                syndicateValues[syndicateAddress].currentManager,\n                syndicateValues[syndicateAddress].managerFeeAddress,\n                amountToSyndicate\n            );\n\n            syndicateMappings[syndicateAddress].claimedDistributions[\n                msg.sender\n            ][withdrawalERC20ContractAddress] = SafeMathUpgradeable.add(\n                syndicateMappings[syndicateAddress].claimedDistributions[\n                    msg.sender\n                ][withdrawalERC20ContractAddress],\n                amountToSyndicate\n            );\n\n            withdrawalERC20.transferFrom(\n                syndicateValues[syndicateAddress].currentManager,\n                syndicateValues[syndicateAddress].managerFeeAddress,\n                amountToManager\n            );\n\n            syndicateMappings[syndicateAddress].claimedDistributions[\n                msg.sender\n            ][withdrawalERC20ContractAddress] = SafeMathUpgradeable.add(\n                syndicateMappings[syndicateAddress].claimedDistributions[\n                    msg.sender\n                ][withdrawalERC20ContractAddress],\n                amountToManager\n            );\n\n            // Keep track of the amount that the LP has withdrawn via an event\n            emit lpWithdrewDistributionFromSyndicate(\n                msg.sender,\n                syndicateAddress,\n                amount,\n                withdrawalERC20ContractAddress,\n                block.timestamp\n            );\n        }\n    }\n\n    /// @notice Calculates the maximum value in distribution tokens (in either\n    /// primary or secondary ERC20) that an LP can withdraw based on their\n    /// percentage ownership at the moment that the fund closed and the\n    /// distributions that they have already received.\n    /// @param userContributions Total user has deposited to the fund\n    /// @param totalContributions Total contributions (from anyone) to the fund\n    /// @param claimedDistributions Value in distributions that user has\n    /// withdrawn from the fund already.  Make sure this matches the token type\n    /// (primary or secondary) passed in for totalDistributions.\n    /// @param totalDistributions Total distributions available from the fund,\n    /// claimed or not.  Make sure this matches the token type (primary or\n    /// secondary) passed in for claimedDistributions.\n    /// @return Value in distributions that user is eligible to withdraw\n    /// @dev HIGH RISK: If this calculation is incorrect, a user could withdraw\n    /// more or less than they are entitled to.\n    function calculateEligibleWithdrawal(\n        uint256 userContributions,\n        uint256 totalContributions,\n        uint256 claimedDistributions,\n        uint256 totalDistributions\n    ) public pure returns (uint256) {\n        // If the fund is empty, we need to return to prevent division by 0\n        if (totalContributions == 0) return 0;\n        // Solves this equation for eligibleWithdrawal:\n        // userContributions / totalContributions = (eligibleWithdrawal +\n        //      claimedDistributions) / totalDistributions\n        uint256 eligibleWithdrawal =\n            SafeMathUpgradeable.sub(\n                SafeMathUpgradeable.div(\n                    SafeMathUpgradeable.mul(\n                        userContributions,\n                        totalDistributions\n                    ),\n                    totalContributions\n                ),\n                claimedDistributions\n            );\n        require(eligibleWithdrawal > 0, \"ERR_NO_ELIGIBLE_WITHDRAWAL\");\n        return eligibleWithdrawal;\n    }\n\n    /// @param withdrawal Total amount to user is sending\n    /// @param profitShareNumerator Establish fractional profit share (decimal\n    /// %'s get messy fast). The profit share denominator is always\n    /// PROFIT_SHARE_DENOMINATOR, which is set to 10000. Examples of different\n    /// percentages can be found in the calculateProfitShare tests\n    /// @return Tuple of (withdrawalToUser, withdrawalToProfitShare) The\n    /// withdrawal that the user will\n    /// receive and the amount of the profit share that the Syndicate treasury\n    /// (or, if adapted to asset management, the Syndicate manager) will receive\n    /// during withdrawal\n    function calculateProfitShare(\n        uint256 withdrawal,\n        uint256 profitShareNumerator\n    ) public pure returns (uint256, uint256) {\n        uint256 withdrawalToProfitShare =\n            SafeMathUpgradeable.div(\n                SafeMathUpgradeable.mul(withdrawal, profitShareNumerator),\n                PROFIT_SHARE_DENOMINATOR\n            );\n        uint256 withdrawalToUser = withdrawal - withdrawalToProfitShare;\n        return (withdrawalToUser, withdrawalToProfitShare);\n    }\n\n    /// @notice Emergency pause function that can only be triggered by the\n    /// contract owner\n    /// @notice Its purpose is to pause deposits and withdrawals. All other\n    /// functions will work when paused\n    function pauseContract() public onlyOwner {\n        _pause();\n    }\n\n    /// @notice Emergency unpause function that can only be triggered by the\n    /// contract owner\n    /// @notice Its purpose is to unpause deposits and withdrawals. All other\n    /// functions will work when paused\n    function unPauseContract() public onlyOwner {\n        _unpause();\n    }\n\n    /// @notice Renounce ownership of the contract\n    /// @notice Unpause the contract before ownership is renounced, to ensure\n    /// that deposits/withdrawals are not locked\n    function renounceOwnership() public override onlyOwner {\n        unPauseContract();\n        super.renounceOwnership();\n    }\n\n    // Added a storage gap for future variable additions.\n    // See https://docs.openzeppelin.com/contracts/3.x/upgradeable#storage_gaps\n    uint256[50] __gap;\n}\n",
  "sourcePath": "/Users/jillowoche/Desktop/SYNDICATE/Syndicate-SPV/contracts/Syndicate.sol",
  "compiler": {
    "name": "solc",
    "version": "0.7.6+commit.7338295f.Emscripten.clang"
  },
  "schemaVersion": "3.3.4",
  "updatedAt": "2021-03-30T15:08:20.551Z",
  "devdoc": {
    "author": "Will Papper and Syndicate Inc.",
    "events": {
      "lpInvestedInSyndicate(address,address,uint256,uint256)": {
        "details": "This is the only way to search for an LP's Syndicates. The Syndicates on chain rely on a mapping, so they are not iterable. Instead, it's necessary to search through an indexed lpAddress off-chain to get a list of an LP's Syndicates for screens such as the My Syndicates screen.This must be reconciled with lpWithdrewDepositFromSyndicate to get a list of all Syndicates that an LP is currently invested in."
      },
      "lpWithdrewDepositFromSyndicate(address,address,uint256,address,uint256)": {
        "details": "A separate event is emitted for withdrawing a distribution"
      },
      "lpWithdrewDistributionFromSyndicate(address,address,uint256,address,uint256)": {
        "details": "A separate event is emitted for withdrawing a deposit"
      },
      "memo(address,address,bytes32,bytes32,uint256)": {
        "details": "The memos are not stored within this contract directly, only via this event. They are not recorded within the struct. If a manager wants to store a value within the struct, they should use `setMetadata()`"
      }
    },
    "kind": "dev",
    "methods": {
      "allowAddresses(address,address[])": {
        "details": "Allowing a single address costs 31527 in gas without an array and 32445 in gas with an array. This is a difference in cost of $0.17 at current gas prices, which is a worthwhile trade off considering that (a) allowing only one address will be less common than allowing multiple addresses and (b) having two different allowAddress functions poses a security risk if we forget to reconcile changes between them",
        "params": {
          "lpAddresses": "An array of addresses to be allowed by the Syndicate",
          "syndicateAddress": "The address of the Syndicate that will accept the allowedAdresses"
        }
      },
      "calculateEligibleWithdrawal(uint256,uint256,uint256,uint256)": {
        "details": "HIGH RISK: If this calculation is incorrect, a user could withdraw more or less than they are entitled to.",
        "params": {
          "claimedDistributions": "Value in distributions that user has withdrawn from the fund already.  Make sure this matches the token type (primary or secondary) passed in for totalDistributions.",
          "totalContributions": "Total contributions (from anyone) to the fund",
          "totalDistributions": "Total distributions available from the fund, claimed or not.  Make sure this matches the token type (primary or secondary) passed in for claimedDistributions.",
          "userContributions": "Total user has deposited to the fund"
        },
        "returns": {
          "_0": "Value in distributions that user is eligible to withdraw"
        }
      },
      "calculateProfitShare(uint256,uint256)": {
        "params": {
          "profitShareNumerator": "Establish fractional profit share (decimal %'s get messy fast). The profit share denominator is always PROFIT_SHARE_DENOMINATOR, which is set to 10000. Examples of different percentages can be found in the calculateProfitShare tests",
          "withdrawal": "Total amount to user is sending"
        },
        "returns": {
          "_0": "Tuple of (withdrawalToUser, withdrawalToProfitShare) The withdrawal that the user will receive and the amount of the profit share that the Syndicate treasury (or, if adapted to asset management, the Syndicate manager) will receive during withdrawal"
        }
      },
      "closeSyndicate(address)": {
        "details": "Closing a Syndicate updates the closeDate to the current block timestamp This can be used for calculating management fees or determining how long the Syndicate has been deploying funds.",
        "params": {
          "syndicateAddress": "The address of the Syndicate"
        }
      },
      "confirmPendingManager(address)": {
        "params": {
          "syndicateAddress": "The address of the Syndicate"
        }
      },
      "createSyndicate(address,uint256,uint256,uint256,uint256,bool)": {
        "details": "The rejectIfNotCurrentManager modifier is not necessary here since the Syndicate is being initialized and has not been created yetThis function is high risk. If a current Syndicate can be overwritten, someone could take control of the deposits by changing the current managerThe address of the Syndicate cannot be changed away from the msg.sender, but the manager address can be changed",
        "params": {
          "allowlistEnabled": "False allows contributions to be sent without the manager needing to allow them. The manager can always reject a contribution before a Syndicate closes with `rejectLPInvestment()`",
          "closeDate": "The date that the Syndicate will automatically close in UNIX time.",
          "depositERC20ContractAddress": "The address of the ERC20 used for deposits (e.g. DAI or USDC's contract addresses) and withdrawals. Stablecoins are strongly recommended, especially for funds that are open for an extended period of time. (Otherwise one contributor might contribute one unit when a token is $100, and another contributor might contribute one unit when a token is $200, and they would have the same percentage ownership because they have both contributed one unit of a token. Stablecoins prevent this because the value is consistent.)",
          "maxDeposit": "The max deposit per wallet address.",
          "maxTotalDeposits": "The max deposit amount for the fund/Syndicate.",
          "syndicateProfitSharePercent": "The profit share that is sent to the Syndicate treasury. Syndicate profit share adjusted by PERCENT_MULTIPLE (set to 10000 ether). For example, the minimum profit share of 0.30% should be passed in as 30 ether (since it is 0.30% * 10000 ether). This means that the max precision is 0.01%. There are helpful examples for common values in the calculateProfitShare within Syndicate.js."
        }
      },
      "denyAddress(address,address)": {
        "params": {
          "lpAddress": "The LP address that should be denied",
          "syndicateAddress": "The address of the Syndicate that contains the allowlist"
        }
      },
      "emitMemo(address,bytes32,bytes32)": {
        "details": "For more on the recommendation to use `blake2b-328` hashes, see https://medium.com/temporal-cloud/efficient-usable-and-cheap-storage-of-ipfs-hashes-in-solidity-smart-contracts-eb3bef129eba",
        "params": {
          "blake2b328HashPartOne": "The first 32 bytes of the hash",
          "blake2b328HashPartTwo": "The second 32 bytes of the hash",
          "syndicateAddress": "The address of the Syndicate"
        }
      },
      "getClaimedDistributions(address,address,address)": {
        "params": {
          "distributionERC20ContractAddress": "The address of the ERC20 to return the LP's claimed distributions",
          "lpAddress": "The address of the LP whose info is being queried",
          "syndicateAddress": "The address of the Syndicate"
        },
        "returns": {
          "_0": "claimedDistributions by an LP for a given distributionERC20ContractAddress"
        }
      },
      "getSyndicateLPInfo(address,address)": {
        "details": "This function **must** be kept up to date with the Web3 UI when making changes. All PRs that change this function **must** be coordinated with an engineer on the Web3 Dashboard.",
        "params": {
          "lpAddress": "The address of the LP whose info is being queried",
          "syndicateAddress": "The address of the Syndicate"
        },
        "returns": {
          "_0": "Tuple of: syndicateMappings[syndicateAddress].deposits[lpAddress], syndicateMappings[syndicateAddress].claimedDistributions[lpAddress][depositERC20ContractAddress], syndicateMappings[syndicateAddress].allowedAddresses[lpAddress]"
        }
      },
      "getSyndicateMetadata(address,string)": {
        "params": {
          "metadataKey": "The string that is the key of the metadata to look up",
          "syndicateAddress": "The address of the Syndicate"
        },
        "returns": {
          "_0": "metadataValue as a string"
        }
      },
      "getSyndicateValues(address)": {
        "details": "This function **must** be kept up to date with the web3 UI when making changes. All PRs that change this function **must** be coordinated with an engineer on the Web3 Dashboard.",
        "params": {
          "syndicateAddress": "The address of the Syndicate"
        },
        "returns": {
          "_0": "SyndicateValues struct"
        }
      },
      "getTotalDistributions(address,address)": {
        "params": {
          "distributionERC20ContractAddress": "The address of the ERC20 to return total distributions",
          "syndicateAddress": "The address of the Syndicate"
        },
        "returns": {
          "_0": "totalDistributions for a given distributionERC20ContractAddress"
        }
      },
      "getUnclaimedDistributions(address,address,address)": {
        "params": {
          "distributionERC20ContractAddress": "The address of the ERC20 to return the LP's unclaimed distributions",
          "lpAddress": "The address of the LP whose info is being queried",
          "syndicateAddress": "The address of the Syndicate"
        },
        "returns": {
          "_0": "unclaimedDistributions by an LP for a given distributionERC20ContractAddress"
        }
      },
      "lpInvestInSyndicate(address,uint256,bool)": {
        "details": "The LP's investment is tied to their current address via `msg.sender`. Functionality to transfer LP investments to new owners will likely be added in the future.",
        "params": {
          "accredited": "Attestation that the LP is an accredited investor. Must be true to continue. This is to comply with SEC Rule 506(b) of Regulation D",
          "amount": "The amount of the investment (note that this is calculated using the primary ERC20 token)",
          "syndicateAddress": "The Syndicate address that the LP is investing in"
        }
      },
      "lpWithdrawFromSyndicate(address,address,uint256)": {
        "details": "Withdrawals are restricted to the primary or secondary ERC20 contract address. If we allowed any arbitrary ERC20 address, we would also need to track percentages for each arbitrary ERC20 address. This is significantly outside of the scope of the Syndicate contract and should be saved for future asset management contracts",
        "params": {
          "amount": "The amount to withdraw",
          "erc20ContractAddress": "The ERC 20 address to be transferred from the manager to the LP.",
          "syndicateAddress": "The Syndicate that an LP wants to withdraw from"
        }
      },
      "owner()": {
        "details": "Returns the address of the current owner."
      },
      "paused()": {
        "details": "Returns true if the contract is paused, and false otherwise."
      },
      "rejectLPInvestment(address,address)": {
        "params": {
          "lpAddress": "The LP whose WHOLE contribution is being returned",
          "syndicateAddress": "The Syndicate that the LP invested in"
        }
      },
      "setDistribution(address,address,uint256)": {
        "params": {
          "amount": "The amount of the distribution",
          "distributionERC20Address": "The ERC20 contract address of the distribution",
          "syndicateAddress": "The address of the Syndicate"
        }
      },
      "setManagerFeeAddress(address,address)": {
        "details": "The manager can burn the fees or send them to an address that they do not own if they'd like, there is no requirement that the managerFeeAddress cannot equal address(0) or e.g. the address of a charity",
        "params": {
          "managerFeeAddress": "The address where manager fees should be sent. This cannot be the current or pending Syndicate manager",
          "syndicateAddress": "The address of the Syndicate"
        }
      },
      "setManagerFees(address,uint256,uint256)": {
        "details": "Manager fees can only be set higher while the Syndicate is open to prevent managers from changing fees on LPs without the ability to act on those fee changes. The manager can only raise fees while LPs still have the ability to pull their money out. After the Syndicate is closed, fees can only be lowered and cannot be raised.In the future, we will include a timelock on all changes to raise fees. Since the current architecture requires trust in a manager because the manager holds the funds, this risk is one that we are willing to accept in the short-term.",
        "params": {
          "managerManagementFeePercent": "The management fee of a Syndicate manager, calculated per year (e.g. 2% per year, which would be passed in as 200 ether because the fees are adjusted by PERCENT_MULTIPLE, which is set to 10000 ether. See the syndicateProfitShare documentation in `createSyndicate()` for more information on this calculation)",
          "managerPerformanceFeePercent": "The performance fee of a Syndicate manager, received when an LP makes a withdrawal (e.g. 20% percent per distribution upon withdrawal, which would be passed in as 2000 ether)",
          "syndicateAddress": "The address of the Syndicate to set fees for"
        }
      },
      "setPendingManager(address,address)": {
        "params": {
          "pendingManagerAddress": "The address of the new manager",
          "syndicateAddress": "The address of the Syndicate"
        }
      },
      "setSyndicateInactiveStatus(address,bool)": {
        "params": {
          "inactiveStatus": "The boolean representing whether the Syndicate is inactive. Set inactiveStatus to true if the Syndicate is inactive. inactiveStatus is initialized to false upon creation of the Syndicate",
          "syndicateAddress": "The address of the Syndicate"
        }
      },
      "transferOwnership(address)": {
        "details": "Transfers ownership of the contract to a new account (`newOwner`). Can only be called by the current owner."
      }
    },
    "title": "Syndicate management contract",
    "version": 1
  },
  "userdoc": {
    "events": {
      "lpInvestedInSyndicate(address,address,uint256,uint256)": {
        "notice": "Emit an event when an LP invests in a Syndicate"
      },
      "lpWithdrewDepositFromSyndicate(address,address,uint256,address,uint256)": {
        "notice": "Emit an event when an LP withdraws a deposit from a Syndicate. If an LP withdraws the full deposit that they originally invested, then they no longer have any holdings in a specific Syndicate"
      },
      "lpWithdrewDistributionFromSyndicate(address,address,uint256,address,uint256)": {
        "notice": "Emit an event when an LP withdraws a distribution from a Syndicate"
      },
      "memo(address,address,bytes32,bytes32,uint256)": {
        "notice": "Emit an event when a manager associates a memo with a Syndicate"
      }
    },
    "kind": "user",
    "methods": {
      "allowAddresses(address,address[])": {
        "notice": "Used by a manager to add an array of LP addresses to the allowlistThere are two permission levels for a Syndicate:1. Addresses must be pre-approved by the manager and added to the allowlist before an LP can invest. These will have an event associated with them to allow for easy searching, but the event has not been created yet. This is when this function must be used.2. All addresses are allowed, and investments can be rejected after the fact. This is useful if you want to allow anyone to invest in a Syndicate (for example, for a non-profit might enable this because there is no expectation of profits and therefore they wouldn't need to be as concerned about approving every user who contributes to a Syndicate)Allowing addresses is unnecessary if you pass in setAutoConfirmDeposit(true). This enables the second permissions option, where all addresses are allowed by default and can be rejected after the fact with rejectLPInvestment. As a result, this function only can be used when the allowlist is enabled."
      },
      "calculateEligibleWithdrawal(uint256,uint256,uint256,uint256)": {
        "notice": "Calculates the maximum value in distribution tokens (in either primary or secondary ERC20) that an LP can withdraw based on their percentage ownership at the moment that the fund closed and the distributions that they have already received."
      },
      "closeSyndicate(address)": {
        "notice": "Used by a manager to close a Syndicate to new deposits.A Syndicate must be closed before distributions can be redeemed.Once a Syndicate is closed, it cannot be opened again. This is to prevent issues with redeeming distributions interacting with new deposits (e.g. a user with a 10% stake performs a withdrawal, and then a deposit occurs that dilutes them down to a 1% stake. From that point onward, they would only be entitled to 1% of the distributions)"
      },
      "confirmPendingManager(address)": {
        "notice": "Used by the pending manager to claim current manager statusThe pending manager is identified by `msg.sender`, which proves that they have control over their addressChanging a manager does not change the syndicateAddress. The syndicateAddress is permanent but has no effect beyond acting as an identifier."
      },
      "createSyndicate(address,uint256,uint256,uint256,uint256,bool)": {
        "notice": "Used by a manager to create a Syndicate with the address of the `msg.sender`"
      },
      "denyAddress(address,address)": {
        "notice": "Used by a manager to deny an address that has been previously added to the allowlistThis function only proceeds when the allowlist is enabled. A manager cannot deny an address when the allowlist is disabled since there is an incredible number of possible wallet addresses. Instead, a manager should use `rejectLPInvestment()`Denying an LP address that has previously been allowed does not reject an investment or return a contribution. The deposit is still kept in the SPV.All addresses are denied by default when an allowlist is enabled, so this is only necessary if you want to remove a previously allowed address"
      },
      "emitMemo(address,bytes32,bytes32)": {
        "notice": "Emit an event that references a memo stored as 64 byte hash.IPFS is recommended. If an IPFS hash is used, it must be `blake2b-328` so that it can be stored in 64 bytes.This can be used to store a fund thesis or describe a transaction that a fund manager made in their wallet. This provides transparency by notifying LPs of transactions and allowing them to verify the proper use of funds."
      },
      "getClaimedDistributions(address,address,address)": {
        "notice": "Get an LP's claimed distributions for a given ERC20"
      },
      "getSyndicateLPInfo(address,address)": {
        "notice": "Get the LP info for a SyndicateTo get the claimed distributiosn for another ERC20, use `getClaimedDistributions()`"
      },
      "getSyndicateMetadata(address,string)": {
        "notice": "Get the metadata for a given key within a Syndicate"
      },
      "getSyndicateValues(address)": {
        "notice": "Get the values for a Syndicate"
      },
      "getTotalDistributions(address,address)": {
        "notice": "Get Sydicate's total distributions per given ERC20"
      },
      "getUnclaimedDistributions(address,address,address)": {
        "notice": "Get an LP's unclaimed distribution for a given ERC20"
      },
      "lpInvestInSyndicate(address,uint256,bool)": {
        "notice": "Used by an LP to invest in a Syndicate"
      },
      "lpWithdrawFromSyndicate(address,address,uint256)": {
        "notice": "Used by an LP to withdraw a deposit or distribution from a SyndicateThe LP is identified via `msg.sender`. This call must be made from the LP address that originally called lpInvestInSyndicate until the functionality to transfer LP investments is addedWithdrawal options are different if the Syndicate is open or closed. If it is open, only the deposit ERC20 can be withdrawn. If it is closed and distributions are disabled, no ERC20s of any kind can be withdrawn. If it is closed and distributions are enabled, any ERC20 address can be withdrawn. Distributions are automatically enabled by the manager when they set a distribution for the first time."
      },
      "pauseContract()": {
        "notice": "Emergency pause function that can only be triggered by the contract ownerIts purpose is to pause deposits and withdrawals. All other functions will work when paused"
      },
      "rejectLPInvestment(address,address)": {
        "notice": "Used by a manager to reject an LP investmentThis is only used when the allowlist is disabled. When an allowlist is enabled, LPs have already been pre-approved so there is no need to reject investments. LPs should have certainty that their deposits are being accepted when the allowlist is enabled."
      },
      "renounceOwnership()": {
        "notice": "Renounce ownership of the contractUnpause the contract before ownership is renounced, to ensure that deposits/withdrawals are not locked"
      },
      "setDistribution(address,address,uint256)": {
        "notice": "Used by a manager to mark a distribution as availableIf this function is called before distributions are enabled, it will automatically enable distributions. Once enabled, distributions cannot be disabled.Distributions can be set for any ERC20 token, including the deposit tokenA sufficient allowance and balance must be set for the amount before this can proceed. The currentManager address must give an allowance greater than or equal to the distribution amount to the Syndicate contract address. Unlimited allowances are not recommended because they pose a security risk in case of a vulnerability in the contract.Managers only receive performance fees when a user withdraws a distribution, not when the manager sets the distribution. This prevents managers from setting a high allowance, taking their fee, and then cutting off the allowance and not allowing LPs to withdraw."
      },
      "setManagerFeeAddress(address,address)": {
        "notice": "Used by a manager to set the address where fees should be sent"
      },
      "setManagerFees(address,uint256,uint256)": {
        "notice": "Used by a manager to set their management and performance fees"
      },
      "setMaxDeposit(address,uint256)": {
        "notice": "Set the maximum total deposit a single LP can contribute to the fund"
      },
      "setMaxTotalDeposits(address,uint256)": {
        "notice": "Set the maximum amount that an SPV can receive in deposits"
      },
      "setPendingManager(address,address)": {
        "notice": "Used by the current manager to nominate a new managerThe current manager is pending until they claim the currentManager status. This ensures that the new current manager has control over their wallet and has also agreed to manage the fund.Changing a manager does not change the syndicateAddress. The syndicateAddress is permanent but has no effect beyond acting as an identifier.To reset a pendingManager request, just set the pendingManager to be address(0). This is the value that it is initialized at within the SingleSyndicate struct (it is the default value for all addresses)"
      },
      "setSyndicateInactiveStatus(address,bool)": {
        "notice": "Used by a manager to mark a Syndicate as inactive or activeThis signals that the Syndicate is no longer in use. This only changes the UI that end users see and has no implications for the operation of the smart contract. If a manager would like to shut down a Syndicate, they should close the Syndicate and enable distributions."
      },
      "unPauseContract()": {
        "notice": "Emergency unpause function that can only be triggered by the contract ownerIts purpose is to unpause deposits and withdrawals. All other functions will work when paused"
      }
    },
    "version": 1
  }
}