{
  "contractName": "SyndicateSPV",
  "abi": [
    {
      "anonymous": false,
      "inputs": [
        {
          "indexed": true,
          "internalType": "address",
          "name": "previousOwner",
          "type": "address"
        },
        {
          "indexed": true,
          "internalType": "address",
          "name": "newOwner",
          "type": "address"
        }
      ],
      "name": "OwnershipTransferred",
      "type": "event"
    },
    {
      "anonymous": false,
      "inputs": [
        {
          "indexed": false,
          "internalType": "address",
          "name": "account",
          "type": "address"
        }
      ],
      "name": "Paused",
      "type": "event"
    },
    {
      "anonymous": false,
      "inputs": [
        {
          "indexed": false,
          "internalType": "address",
          "name": "account",
          "type": "address"
        }
      ],
      "name": "Unpaused",
      "type": "event"
    },
    {
      "anonymous": false,
      "inputs": [
        {
          "indexed": true,
          "internalType": "address",
          "name": "lpAddress",
          "type": "address"
        },
        {
          "indexed": true,
          "internalType": "address",
          "name": "spvAddress",
          "type": "address"
        },
        {
          "indexed": false,
          "internalType": "uint256",
          "name": "amountInvested",
          "type": "uint256"
        },
        {
          "indexed": false,
          "internalType": "uint256",
          "name": "timestamp",
          "type": "uint256"
        }
      ],
      "name": "lpInvestedInSPV",
      "type": "event"
    },
    {
      "anonymous": false,
      "inputs": [
        {
          "indexed": true,
          "internalType": "address",
          "name": "lpAddress",
          "type": "address"
        },
        {
          "indexed": true,
          "internalType": "address",
          "name": "spvAddress",
          "type": "address"
        },
        {
          "indexed": false,
          "internalType": "uint256",
          "name": "amountWithdrawn",
          "type": "uint256"
        },
        {
          "indexed": false,
          "internalType": "uint256",
          "name": "timestamp",
          "type": "uint256"
        }
      ],
      "name": "lpWithdrewFromSPV",
      "type": "event"
    },
    {
      "anonymous": false,
      "inputs": [
        {
          "indexed": true,
          "internalType": "address",
          "name": "spvAddress",
          "type": "address"
        },
        {
          "indexed": true,
          "internalType": "address",
          "name": "currentManager",
          "type": "address"
        },
        {
          "indexed": false,
          "internalType": "bytes32",
          "name": "blake2b328HashPartOne",
          "type": "bytes32"
        },
        {
          "indexed": false,
          "internalType": "bytes32",
          "name": "blake2b328HashPartTwo",
          "type": "bytes32"
        },
        {
          "indexed": false,
          "internalType": "uint256",
          "name": "timestamp",
          "type": "uint256"
        }
      ],
      "name": "memo",
      "type": "event"
    },
    {
      "inputs": [],
      "name": "owner",
      "outputs": [
        {
          "internalType": "address",
          "name": "",
          "type": "address"
        }
      ],
      "stateMutability": "view",
      "type": "function"
    },
    {
      "inputs": [],
      "name": "paused",
      "outputs": [
        {
          "internalType": "bool",
          "name": "",
          "type": "bool"
        }
      ],
      "stateMutability": "view",
      "type": "function"
    },
    {
      "inputs": [
        {
          "internalType": "address",
          "name": "newOwner",
          "type": "address"
        }
      ],
      "name": "transferOwnership",
      "outputs": [],
      "stateMutability": "nonpayable",
      "type": "function"
    },
    {
      "inputs": [
        {
          "internalType": "address",
          "name": "primaryERC20ContractAddress",
          "type": "address"
        },
        {
          "internalType": "address",
          "name": "secondaryERC20ContractAddress",
          "type": "address"
        },
        {
          "internalType": "uint256",
          "name": "syndicateProfitSharePercent",
          "type": "uint256"
        },
        {
          "internalType": "uint256",
          "name": "closeDate",
          "type": "uint256"
        },
        {
          "internalType": "uint256",
          "name": "maxDeposit",
          "type": "uint256"
        },
        {
          "internalType": "uint256",
          "name": "maxTotalDeposits",
          "type": "uint256"
        },
        {
          "internalType": "bool",
          "name": "allowlistEnabled",
          "type": "bool"
        }
      ],
      "name": "createSPV",
      "outputs": [],
      "stateMutability": "nonpayable",
      "type": "function"
    },
    {
      "inputs": [
        {
          "internalType": "address",
          "name": "spvAddress",
          "type": "address"
        },
        {
          "internalType": "uint256",
          "name": "amount",
          "type": "uint256"
        },
        {
          "internalType": "bool",
          "name": "accredited",
          "type": "bool"
        }
      ],
      "name": "lpInvestInSPV",
      "outputs": [],
      "stateMutability": "nonpayable",
      "type": "function"
    },
    {
      "inputs": [
        {
          "internalType": "address",
          "name": "spvAddress",
          "type": "address"
        },
        {
          "internalType": "address",
          "name": "ERC20ContractAddress",
          "type": "address"
        },
        {
          "internalType": "uint256",
          "name": "amount",
          "type": "uint256"
        }
      ],
      "name": "lpWithdrawFromSPV",
      "outputs": [],
      "stateMutability": "nonpayable",
      "type": "function"
    },
    {
      "inputs": [
        {
          "internalType": "address",
          "name": "spvAddress",
          "type": "address"
        },
        {
          "internalType": "address",
          "name": "lpAddress",
          "type": "address"
        }
      ],
      "name": "rejectLPInvestment",
      "outputs": [],
      "stateMutability": "nonpayable",
      "type": "function"
    },
    {
      "inputs": [
        {
          "internalType": "address",
          "name": "spvAddress",
          "type": "address"
        },
        {
          "internalType": "address",
          "name": "lpAddress",
          "type": "address"
        }
      ],
      "name": "allowAddress",
      "outputs": [],
      "stateMutability": "nonpayable",
      "type": "function"
    },
    {
      "inputs": [
        {
          "internalType": "address",
          "name": "spvAddress",
          "type": "address"
        },
        {
          "internalType": "address",
          "name": "lpAddress",
          "type": "address"
        }
      ],
      "name": "denyAddress",
      "outputs": [],
      "stateMutability": "nonpayable",
      "type": "function"
    },
    {
      "inputs": [
        {
          "internalType": "address",
          "name": "spvAddress",
          "type": "address"
        },
        {
          "internalType": "address",
          "name": "secondaryERC20ContractAddress",
          "type": "address"
        }
      ],
      "name": "setSecondaryERC20ContractAddress",
      "outputs": [],
      "stateMutability": "nonpayable",
      "type": "function"
    },
    {
      "inputs": [
        {
          "internalType": "address",
          "name": "spvAddress",
          "type": "address"
        }
      ],
      "name": "setDistributionsEnabled",
      "outputs": [],
      "stateMutability": "nonpayable",
      "type": "function"
    },
    {
      "inputs": [
        {
          "internalType": "address",
          "name": "spvAddress",
          "type": "address"
        }
      ],
      "name": "closeSPV",
      "outputs": [],
      "stateMutability": "nonpayable",
      "type": "function"
    },
    {
      "inputs": [
        {
          "internalType": "address",
          "name": "spvAddress",
          "type": "address"
        },
        {
          "internalType": "address",
          "name": "pendingManager",
          "type": "address"
        }
      ],
      "name": "setPendingManager",
      "outputs": [],
      "stateMutability": "nonpayable",
      "type": "function"
    },
    {
      "inputs": [
        {
          "internalType": "address",
          "name": "spvAddress",
          "type": "address"
        }
      ],
      "name": "confirmPendingManager",
      "outputs": [],
      "stateMutability": "nonpayable",
      "type": "function"
    },
    {
      "inputs": [
        {
          "internalType": "address",
          "name": "spvAddress",
          "type": "address"
        },
        {
          "internalType": "bool",
          "name": "allowlistEnabled",
          "type": "bool"
        }
      ],
      "name": "setAutoConfirmDeposit",
      "outputs": [],
      "stateMutability": "nonpayable",
      "type": "function"
    },
    {
      "inputs": [
        {
          "internalType": "address",
          "name": "spvAddress",
          "type": "address"
        },
        {
          "internalType": "bool",
          "name": "inactiveStatus",
          "type": "bool"
        }
      ],
      "name": "setSPVInactiveStatus",
      "outputs": [],
      "stateMutability": "nonpayable",
      "type": "function"
    },
    {
      "inputs": [
        {
          "internalType": "address",
          "name": "spvAddress",
          "type": "address"
        },
        {
          "internalType": "string",
          "name": "metadataKey",
          "type": "string"
        },
        {
          "internalType": "string",
          "name": "metadataValue",
          "type": "string"
        }
      ],
      "name": "setMetadata",
      "outputs": [],
      "stateMutability": "nonpayable",
      "type": "function"
    },
    {
      "inputs": [
        {
          "internalType": "address",
          "name": "spvAddress",
          "type": "address"
        },
        {
          "internalType": "bytes32",
          "name": "blake2b328HashPartOne",
          "type": "bytes32"
        },
        {
          "internalType": "bytes32",
          "name": "blake2b328HashPartTwo",
          "type": "bytes32"
        }
      ],
      "name": "emitMemo",
      "outputs": [],
      "stateMutability": "nonpayable",
      "type": "function"
    },
    {
      "inputs": [
        {
          "internalType": "address",
          "name": "spvAddress",
          "type": "address"
        }
      ],
      "name": "getSPVSettings",
      "outputs": [
        {
          "components": [
            {
              "internalType": "uint256",
              "name": "maxDeposit",
              "type": "uint256"
            },
            {
              "internalType": "uint256",
              "name": "maxTotalDeposits",
              "type": "uint256"
            },
            {
              "internalType": "uint256",
              "name": "totalDeposits",
              "type": "uint256"
            },
            {
              "internalType": "uint256",
              "name": "totalPrimaryDistributions",
              "type": "uint256"
            },
            {
              "internalType": "uint256",
              "name": "totalSecondaryDistributions",
              "type": "uint256"
            },
            {
              "internalType": "uint256",
              "name": "totalUnclaimedPrimaryDistributions",
              "type": "uint256"
            },
            {
              "internalType": "uint256",
              "name": "totalUnclaimedSecondaryDistributions",
              "type": "uint256"
            },
            {
              "internalType": "uint256",
              "name": "syndicateProfitSharePercent",
              "type": "uint256"
            },
            {
              "internalType": "uint256",
              "name": "closeDate",
              "type": "uint256"
            },
            {
              "internalType": "address",
              "name": "currentManager",
              "type": "address"
            },
            {
              "internalType": "address",
              "name": "pendingManager",
              "type": "address"
            },
            {
              "internalType": "address",
              "name": "primaryERC20ContractAddress",
              "type": "address"
            },
            {
              "internalType": "address",
              "name": "secondaryERC20ContractAddress",
              "type": "address"
            },
            {
              "internalType": "bool",
              "name": "spvOpen",
              "type": "bool"
            },
            {
              "internalType": "bool",
              "name": "distributionsEnabled",
              "type": "bool"
            },
            {
              "internalType": "bool",
              "name": "allowlistEnabled",
              "type": "bool"
            },
            {
              "internalType": "bool",
              "name": "inactive",
              "type": "bool"
            },
            {
              "internalType": "uint256[20]",
              "name": "__reservedUint256",
              "type": "uint256[20]"
            },
            {
              "internalType": "address[20]",
              "name": "__reservedAddress",
              "type": "address[20]"
            }
          ],
          "internalType": "struct SyndicateSPV.SPVSettings",
          "name": "",
          "type": "tuple"
        }
      ],
      "stateMutability": "view",
      "type": "function"
    },
    {
      "inputs": [
        {
          "internalType": "address",
          "name": "spvAddress",
          "type": "address"
        },
        {
          "internalType": "address",
          "name": "lpAddress",
          "type": "address"
        }
      ],
      "name": "getSPVLPInfo",
      "outputs": [
        {
          "internalType": "uint256",
          "name": "",
          "type": "uint256"
        },
        {
          "internalType": "uint256",
          "name": "",
          "type": "uint256"
        },
        {
          "internalType": "uint256",
          "name": "",
          "type": "uint256"
        },
        {
          "internalType": "bool",
          "name": "",
          "type": "bool"
        }
      ],
      "stateMutability": "view",
      "type": "function"
    },
    {
      "inputs": [
        {
          "internalType": "address",
          "name": "spvAddress",
          "type": "address"
        },
        {
          "internalType": "string",
          "name": "metadataKey",
          "type": "string"
        }
      ],
      "name": "getSPVMetadata",
      "outputs": [
        {
          "internalType": "string",
          "name": "",
          "type": "string"
        }
      ],
      "stateMutability": "view",
      "type": "function"
    },
    {
      "inputs": [
        {
          "internalType": "uint256",
          "name": "userContributions",
          "type": "uint256"
        },
        {
          "internalType": "uint256",
          "name": "totalContributions",
          "type": "uint256"
        },
        {
          "internalType": "uint256",
          "name": "claimedDistributions",
          "type": "uint256"
        },
        {
          "internalType": "uint256",
          "name": "totalDistributions",
          "type": "uint256"
        }
      ],
      "name": "calculateEligibleWithdrawal",
      "outputs": [
        {
          "internalType": "uint256",
          "name": "",
          "type": "uint256"
        }
      ],
      "stateMutability": "pure",
      "type": "function"
    },
    {
      "inputs": [
        {
          "internalType": "uint256",
          "name": "withdrawal",
          "type": "uint256"
        },
        {
          "internalType": "uint256",
          "name": "profitShareNumerator",
          "type": "uint256"
        }
      ],
      "name": "calculateProfitShare",
      "outputs": [
        {
          "internalType": "uint256",
          "name": "",
          "type": "uint256"
        },
        {
          "internalType": "uint256",
          "name": "",
          "type": "uint256"
        }
      ],
      "stateMutability": "pure",
      "type": "function"
    },
    {
      "inputs": [],
      "name": "pauseContract",
      "outputs": [],
      "stateMutability": "nonpayable",
      "type": "function"
    },
    {
      "inputs": [],
      "name": "unPauseContract",
      "outputs": [],
      "stateMutability": "nonpayable",
      "type": "function"
    },
    {
      "inputs": [],
      "name": "renounceOwnership",
      "outputs": [],
      "stateMutability": "nonpayable",
      "type": "function"
    }
  ],
  "bytecode": "0x608060405234801561001057600080fd5b50613202806100206000396000f3fe608060405234801561001057600080fd5b506004361061018e5760003560e01c806377bfc391116100de578063bac1520311610097578063ead8f06911610071578063ead8f06914610368578063eb3b0cba1461037b578063f2fde38b1461038e578063fb5e6be2146103a15761018e565b8063bac152031461033a578063e498116f14610342578063e93e04c4146103555761018e565b806377bfc391146102b65780637c74d43e146102d95780638da5cb5b146102ec578063989a98631461030157806398fe09a114610314578063a6981a3e146103275761018e565b8063439766ce1161014b5780635c975abb116101255780635c975abb146102735780636bfe83dc14610288578063711340111461029b578063715018a6146102ae5761018e565b8063439766ce146102385780634b09cc98146102405780635201cacb146102535761018e565b8063014135b21461019357806316520b92146101a8578063234d6b19146101d157806334f93dc3146101e45780633dfcec61146102045780633e2946f714610225575b600080fd5b6101a66101a1366004612571565b6103b4565b005b6101bb6101b63660046124e3565b61054b565b6040516101c89190612fec565b60405180910390f35b6101a66101df366004612504565b6106d6565b6101f76101f2366004612791565b610859565b6040516101c89190613123565b610217610212366004612770565b6108b3565b6040516101c892919061312c565b6101a6610233366004612614565b6108e5565b6101a6610978565b6101a661024e3660046125de565b6109e4565b610266610261366004612646565b610aa8565b6040516101c89190612893565b61027b610b75565b6040516101c89190612872565b6101a66102963660046124e3565b610b7e565b6101a66102a93660046124e3565b610c31565b6101a6610d39565b6102c96102c4366004612504565b610dab565b6040516101c8949392919061313a565b6101a66102e7366004612536565b610dff565b6102f4610f13565b6040516101c8919061283a565b6101a661030f366004612504565b610f22565b6101a66103223660046124e3565b61102b565b6101a6610335366004612715565b6110eb565b6101a66112f6565b6101a6610350366004612504565b611360565b6101a6610363366004612504565b611466565b6101a66103763660046125de565b611535565b6101a6610389366004612697565b6115ac565b6101a661039c3660046124e3565b611647565b6101a66103af366004612504565b61174a565b6103bc610b75565b15610401576040805162461bcd60e51b815260206004820152601060248201526f14185d5cd8589b194e881c185d5cd95960821b604482015290519081900360640190fd5b336000908152609760205260409020600901546001600160a01b0316156104435760405162461bcd60e51b815260040161043a90612d4f565b60405180910390fd5b3360009081526099602052604090205460ff16156104735760405162461bcd60e51b815260040161043a90612b75565b4284116104925760405162461bcd60e51b815260040161043a90612e2c565b681043561a88293000008510156104bb5760405162461bcd60e51b815260040161043a906129a9565b3360008181526097602052604090206009810180546001600160a01b03199081169093179055600b810180546001600160a01b039a8b16908416179055600c8101805460078301989098556008820196909655911515600160b01b0260ff60b01b1960ff60a01b1998909916969091169590951795909516600160a01b1795909516929092179055815560010155565b610553612303565b6001600160a01b03808316600090815260976020908152604091829020825161026081018452815481526001820154928101929092526002810154828401526003810154606083015260048101546080830152600581015460a0830152600681015460c0830152600781015460e0830152600881015461010083015260098101548416610120830152600a8101548416610140830152600b8101548416610160830152600c81015493841661018083015260ff600160a01b8504811615156101a0840152600160a81b8504811615156101c0840152600160b01b8504811615156101e0840152600160b81b9094049093161515610200820152815161028081019092529190610220830190600d830160148282826020028201915b81548152602001906001019080831161066e5750505091835250506040805161028081019182905260209092019190602184019060149082845b81546001600160a01b031681526001909101906020018083116106a85750505050508152505090505b919050565b6001600160a01b0382811660009081526097602052604090206009015483911633146107145760405162461bcd60e51b815260040161043a90612a12565b6001600160a01b038084166000908152609760205260409020600b0154838216911614156107545760405162461bcd60e51b815260040161043a906128e6565b6001600160a01b0383166000908152609760205260409020600c0154600160a81b900460ff166107b4576001600160a01b038381166000908152609760205260409020600c0180546001600160a01b031916918416919091179055610854565b6001600160a01b0383166000908152609760205260409020600c0154600160a81b900460ff16801561080157506001600160a01b038381166000908152609760205260409020600c015416155b1561083c576001600160a01b038381166000908152609760205260409020600c0180546001600160a01b031916918416919091179055610854565b60405162461bcd60e51b815260040161043a90612c3d565b505050565b600083610868575060006108ab565b600061088661088061087a88866117f3565b87611855565b856118bc565b9050600081116108a85760405162461bcd60e51b815260040161043a90612bc1565b90505b949350505050565b60008060006108d56108c586866117f3565b69021e19e0c9bab2400000611855565b80860393509150505b9250929050565b6001600160a01b0383811660009081526097602052604090206009015484911633146109235760405162461bcd60e51b815260040161043a90612a12565b336001600160a01b0316846001600160a01b03167f21bf0eb15a9d48a31ac05b80d0e5d83a52fd1f0124bcccb725bb4377b0a2f5c885854260405161096a9392919061287d565b60405180910390a350505050565b610980611919565b6001600160a01b0316610991610f13565b6001600160a01b0316146109da576040805162461bcd60e51b815260206004820181905260248201526000805160206131ad833981519152604482015290519081900360640190fd5b6109e261191d565b565b6001600160a01b038281166000908152609760205260409020600901548391163314610a225760405162461bcd60e51b815260040161043a90612a12565b82610a2c816119bd565b6001600160a01b0381166000908152609760205260409020600c0154600160a01b900460ff16610a6e5760405162461bcd60e51b815260040161043a90612f5d565b50506001600160a01b039091166000908152609760205260409020600c018054911515600160b01b0260ff60b01b19909216919091179055565b6001600160a01b03831660009081526098602052604090819020905160609160040190610ad8908590859061282a565b9081526040805160209281900383018120805460026001821615610100026000190190911604601f81018590048502830185019093528282529092909190830182828015610b675780601f10610b3c57610100808354040283529160200191610b67565b820191906000526020600020905b815481529060010190602001808311610b4a57829003601f168201915b505050505090509392505050565b60655460ff1690565b6001600160a01b038181166000908152609760205260409020600901548291163314610bbc5760405162461bcd60e51b815260040161043a90612a12565b81610bc6816119bd565b6001600160a01b0381166000908152609760205260409020600c0154600160a01b900460ff16610c085760405162461bcd60e51b815260040161043a90612f5d565b50506001600160a01b03166000908152609760205260409020600c01805460ff60a01b19169055565b6001600160a01b038181166000908152609760205260409020600901548291163314610c6f5760405162461bcd60e51b815260040161043a90612a12565b81610c79816119bd565b6001600160a01b0381166000908152609760205260409020600c0154600160a01b900460ff1615610cbc5760405162461bcd60e51b815260040161043a90612931565b82610cc6816119bd565b6001600160a01b0381166000908152609760205260409020600c0154600160a81b900460ff1615610d095760405162461bcd60e51b815260040161043a90612e78565b5050506001600160a01b03166000908152609760205260409020600c01805460ff60a81b1916600160a81b179055565b610d41611919565b6001600160a01b0316610d52610f13565b6001600160a01b031614610d9b576040805162461bcd60e51b815260206004820181905260248201526000805160206131ad833981519152604482015290519081900360640190fd5b610da36112f6565b6109e2611a3d565b6001600160a01b039182166000908152609860209081526040808320939094168252828152838220546001840182528483205460028501835285842054600390950190925293909120549293909260ff1690565b82610e09816119bd565b6001600160a01b0381166000908152609760205260409020600c0154600160a01b900460ff1615610e4c5760405162461bcd60e51b815260040161043a90612931565b83610e56816119bd565b6001600160a01b0381166000908152609760205260409020600c0154600160a81b900460ff16610e985760405162461bcd60e51b815260040161043a90612f87565b6001600160a01b038086166000908152609760205260409020600b015485821691161480610ee557506001600160a01b038086166000908152609760205260409020600c01548582169116145b610f015760405162461bcd60e51b815260040161043a90612f00565b610f0c858585611ae9565b5050505050565b6033546001600160a01b031690565b6001600160a01b038281166000908152609760205260409020600901548391163314610f605760405162461bcd60e51b815260040161043a90612a12565b82610f6a816119bd565b6001600160a01b0381166000908152609760205260409020600c0154600160a01b900460ff16610fac5760405162461bcd60e51b815260040161043a90612f5d565b6001600160a01b0384166000908152609760205260409020600c01548490600160b01b900460ff16610ff05760405162461bcd60e51b815260040161043a90612dbe565b5050506001600160a01b039182166000908152609860209081526040808320939094168252600390920190915220805460ff19166001179055565b6001600160a01b0380821660009081526097602052604090206009810154600a9091015490821691163381146110735760405162461bcd60e51b815260040161043a90612d0a565b6001600160a01b03811660009081526099602052604090205460ff16156110ac5760405162461bcd60e51b815260040161043a90612eb9565b6001600160a01b039283166000908152609760209081526040822060090180546001600160a01b03191693861693909317909255609990915291169052565b826110f5816119bd565b6001600160a01b0381166000908152609760205260409020600c0154600160a01b900460ff166111375760405162461bcd60e51b815260040161043a90612f5d565b81806111555760405162461bcd60e51b815260040161043a90612df5565b6001600160a01b0385166000908152609760205260409020600c0154600160b01b900460ff1615806111ad57506001600160a01b038516600090815260986020908152604080832033845260030190915290205460ff165b156112b0576001600160a01b03851660009081526098602090815260408083203384529091529020546111e09085612032565b6001600160a01b03861660009081526097602052604090205410156112175760405162461bcd60e51b815260040161043a90612a95565b6001600160a01b03851660009081526097602052604090206002015461123d9085612032565b6001600160a01b03861660009081526097602052604090206001015410156112775760405162461bcd60e51b815260040161043a90612bf8565b6001600160a01b0380861660009081526097602052604090206009810154600b909101546112ab928892811691168761208c565b610f0c565b6001600160a01b038516600090815260986020908152604080832033845260030190915290205460ff16610f0c5760405162461bcd60e51b815260040161043a90612d92565b6112fe611919565b6001600160a01b031661130f610f13565b6001600160a01b031614611358576040805162461bcd60e51b815260206004820181905260248201526000805160206131ad833981519152604482015290519081900360640190fd5b6109e2612280565b6001600160a01b03828116600090815260976020526040902060090154839116331461139e5760405162461bcd60e51b815260040161043a90612a12565b826113a8816119bd565b6001600160a01b0381166000908152609760205260409020600c0154600160a01b900460ff166113ea5760405162461bcd60e51b815260040161043a90612f5d565b6001600160a01b0384166000908152609760205260409020600c01548490600160b01b900460ff1661142e5760405162461bcd60e51b815260040161043a90612dbe565b5050506001600160a01b039182166000908152609860209081526040808320939094168252600390920190915220805460ff19169055565b6001600160a01b0382811660009081526097602052604090206009015483911633146114a45760405162461bcd60e51b815260040161043a90612a12565b826114ae816119bd565b6001600160a01b0381166000908152609760205260409020600c0154600160a01b900460ff166114f05760405162461bcd60e51b815260040161043a90612f5d565b6001600160a01b0384166000908152609760205260409020600c01548490600160b01b900460ff1615610f0c5760405162461bcd60e51b815260040161043a90612fbe565b6001600160a01b0382811660009081526097602052604090206009015483911633146115735760405162461bcd60e51b815260040161043a90612a12565b506001600160a01b039091166000908152609760205260409020600c018054911515600160b81b0260ff60b81b19909216919091179055565b6001600160a01b0385811660009081526097602052604090206009015486911633146115ea5760405162461bcd60e51b815260040161043a90612a12565b828260986000896001600160a01b03166001600160a01b03168152602001908152602001600020600401878760405161162492919061282a565b90815260405190819003602001902061163e9290916123cc565b50505050505050565b61164f611919565b6001600160a01b0316611660610f13565b6001600160a01b0316146116a9576040805162461bcd60e51b815260206004820181905260248201526000805160206131ad833981519152604482015290519081900360640190fd5b6001600160a01b0381166116ee5760405162461bcd60e51b81526004018080602001828103825260268152602001806131666026913960400191505060405180910390fd5b6033546040516001600160a01b038084169216907f8be0079c531659141344cd1fd0a4f28419497f9722a3daafe3b4186f6b6457e090600090a3603380546001600160a01b0319166001600160a01b0392909216919091179055565b6001600160a01b0382811660009081526097602052604090206009015483911633146117885760405162461bcd60e51b815260040161043a90612a12565b6001600160a01b03821660009081526099602052604090205460ff16156117c15760405162461bcd60e51b815260040161043a9061295d565b506001600160a01b039182166000908152609760205260409020600a0180546001600160a01b03191691909216179055565b6000826118025750600061184f565b8282028284828161180f57fe5b041461184c5760405162461bcd60e51b815260040180806020018281038252602181526020018061318c6021913960400191505060405180910390fd5b90505b92915050565b60008082116118ab576040805162461bcd60e51b815260206004820152601a60248201527f536166654d6174683a206469766973696f6e206279207a65726f000000000000604482015290519081900360640190fd5b8183816118b457fe5b049392505050565b600082821115611913576040805162461bcd60e51b815260206004820152601e60248201527f536166654d6174683a207375627472616374696f6e206f766572666c6f770000604482015290519081900360640190fd5b50900390565b3390565b611925610b75565b1561196a576040805162461bcd60e51b815260206004820152601060248201526f14185d5cd8589b194e881c185d5cd95960821b604482015290519081900360640190fd5b6065805460ff191660011790557f62e78cea01bee320cd4e420270b5ea74000d11b0c9f74754ebdbfc544b05a2586119a0611919565b604080516001600160a01b039092168252519081900360200190a1565b6001600160a01b0381166000908152609760205260409020600c0154600160a01b900460ff1615156001148015611a0e57506001600160a01b03811660009081526097602052604090206008015442115b15611a3a576001600160a01b0381166000908152609760205260409020600c01805460ff60a01b191690555b50565b611a45611919565b6001600160a01b0316611a56610f13565b6001600160a01b031614611a9f576040805162461bcd60e51b815260206004820181905260248201526000805160206131ad833981519152604482015290519081900360640190fd5b6033546040516000916001600160a01b0316907f8be0079c531659141344cd1fd0a4f28419497f9722a3daafe3b4186f6b6457e0908390a3603380546001600160a01b0319169055565b611af1610b75565b15611b36576040805162461bcd60e51b815260206004820152601060248201526f14185d5cd8589b194e881c185d5cd95960821b604482015290519081900360640190fd5b6001600160a01b0383166000908152609760205260409020600c0154600160a01b900460ff1615611d0a576001600160a01b038381166000908152609760205260409020600b0154811690831614611ba05760405162461bcd60e51b815260040161043a90612b29565b6001600160a01b0383166000908152609860209081526040808320338452909152902054811115611be35760405162461bcd60e51b815260040161043a90612cc0565b6001600160a01b0380841660009081526097602052604090819020600b81015460099091015491516323b872dd60e01b81529083169283926323b872dd92611c369291909116903390879060040161284e565b602060405180830381600087803b158015611c5057600080fd5b505af1158015611c64573d6000803e3d6000fd5b505050506040513d601f19601f82011682018060405250810190611c889190612754565b506001600160a01b038416600081815260986020908152604080832033808552908352818420805488900390558484526097909252918290206002018054869003905590517fa0a49f57b032657431bc796db92647d268bfc72070c73b9f856e0904a2fa07a990611cfc908690429061312c565b60405180910390a350610854565b6001600160a01b0383166000908152609760205260409020600c0154600160a01b900460ff16158015611d6057506001600160a01b0383166000908152609760205260409020600c0154600160a81b900460ff16155b15611d7d5760405162461bcd60e51b815260040161043a90612a49565b6001600160a01b0383166000908152609760205260409020600c0154600160a01b900460ff16158015611dd257506001600160a01b0383166000908152609760205260409020600c0154600160a81b900460ff165b15610854576001600160a01b038381166000908152609760205260409020600b015481169083161480611e2457506001600160a01b038381166000908152609760205260409020600c01548116908316145b611e405760405162461bcd60e51b815260040161043a90612f00565b6001600160a01b038381166000908152609760205260409020600b015481169083161415611eae576001600160a01b0383166000908152609860209081526040808320338452600101909152902054811115611be35760405162461bcd60e51b815260040161043a90612cc0565b6001600160a01b038381166000908152609760205260409020600c015481169083161415610854576001600160a01b0383166000908152609860209081526040808320338452909152902054811115611f195760405162461bcd60e51b815260040161043a90612cc0565b6001600160a01b0380841660009081526097602052604090819020600b81015460099091015491516323b872dd60e01b81529083169283926323b872dd92611f6c9291909116903390879060040161284e565b602060405180830381600087803b158015611f8657600080fd5b505af1158015611f9a573d6000803e3d6000fd5b505050506040513d601f19601f82011682018060405250810190611fbe9190612754565b506001600160a01b038416600081815260986020908152604080832033808552908352818420805488900390558484526097909252918290206002018054869003905590517fa0a49f57b032657431bc796db92647d268bfc72070c73b9f856e0904a2fa07a99061096a908690429061312c565b60008282018381101561184c576040805162461bcd60e51b815260206004820152601b60248201527f536166654d6174683a206164646974696f6e206f766572666c6f770000000000604482015290519081900360640190fd5b612094610b75565b156120d9576040805162461bcd60e51b815260206004820152601060248201526f14185d5cd8589b194e881c185d5cd95960821b604482015290519081900360640190fd5b836120e3816119bd565b6001600160a01b0381166000908152609760205260409020600c0154600160a01b900460ff166121255760405162461bcd60e51b815260040161043a90612f5d565b6001600160a01b038086166000908152609760205260409020600b01548482169116146121645760405162461bcd60e51b815260040161043a90612adb565b6001600160a01b0380861660009081526097602052604090819020600b015490516323b872dd60e01b815291169081906323b872dd906121ac9033908990889060040161284e565b602060405180830381600087803b1580156121c657600080fd5b505af11580156121da573d6000803e3d6000fd5b505050506040513d601f19601f820116820180604052508101906121fe9190612754565b506001600160a01b03861660008181526098602090815260408083203380855290835281842080548901905584845260979092529182902060020180548701905590517f5ad73c30295dabed22a9ebcd236e5cf103ad5d0170ec7ead382f819d0b9cbac490612270908790429061312c565b60405180910390a3505050505050565b612288610b75565b6122d0576040805162461bcd60e51b815260206004820152601460248201527314185d5cd8589b194e881b9bdd081c185d5cd95960621b604482015290519081900360640190fd5b6065805460ff191690557f5db9ee0a495bf2e6ff9c91a7834c1ba4fdd244a5e8aa4e537bd38aeae4b073aa6119a0611919565b60405180610260016040528060008152602001600081526020016000815260200160008152602001600081526020016000815260200160008152602001600081526020016000815260200160006001600160a01b0316815260200160006001600160a01b0316815260200160006001600160a01b0316815260200160006001600160a01b031681526020016000151581526020016000151581526020016000151581526020016000151581526020016123ba612458565b81526020016123c7612458565b905290565b828054600181600116156101000203166002900490600052602060002090601f0160209004810192826124025760008555612448565b82601f1061241b5782800160ff19823516178555612448565b82800160010185558215612448579182015b8281111561244857823582559160200191906001019061242d565b50612454929150612477565b5090565b6040518061028001604052806014906020820280368337509192915050565b5b808211156124545760008155600101612478565b80356001600160a01b03811681146106d157600080fd5b60008083601f8401126124b4578182fd5b50813567ffffffffffffffff8111156124cb578182fd5b6020830191508360208285010111156108de57600080fd5b6000602082840312156124f4578081fd5b6124fd8261248c565b9392505050565b60008060408385031215612516578081fd5b61251f8361248c565b915061252d6020840161248c565b90509250929050565b60008060006060848603121561254a578081fd5b6125538461248c565b92506125616020850161248c565b9150604084013590509250925092565b600080600080600080600060e0888a03121561258b578283fd5b6125948861248c565b96506125a26020890161248c565b955060408801359450606088013593506080880135925060a0880135915060c08801356125ce81613157565b8091505092959891949750929550565b600080604083850312156125f0578182fd5b6125f98361248c565b9150602083013561260981613157565b809150509250929050565b600080600060608486031215612628578283fd5b6126318461248c565b95602085013595506040909401359392505050565b60008060006040848603121561265a578283fd5b6126638461248c565b9250602084013567ffffffffffffffff81111561267e578283fd5b61268a868287016124a3565b9497909650939450505050565b6000806000806000606086880312156126ae578081fd5b6126b78661248c565b9450602086013567ffffffffffffffff808211156126d3578283fd5b6126df89838a016124a3565b909650945060408801359150808211156126f7578283fd5b50612704888289016124a3565b969995985093965092949392505050565b600080600060608486031215612729578283fd5b6127328461248c565b925060208401359150604084013561274981613157565b809150509250925092565b600060208284031215612765578081fd5b815161184c81613157565b60008060408385031215612782578182fd5b50508035926020909101359150565b600080600080608085870312156127a6578384fd5b5050823594602084013594506040840135936060013592509050565b6001600160a01b03169052565b8060005b60148110156127fb5781516001600160a01b03168452602093840193909101906001016127d3565b50505050565b8060005b60148110156127fb578151845260209384019390910190600101612805565b15159052565b6000828483379101908152919050565b6001600160a01b0391909116815260200190565b6001600160a01b039384168152919092166020820152604081019190915260600190565b901515815260200190565b9283526020830191909152604082015260600190565b6000602080835283518082850152825b818110156128bf578581018301518582016040015282016128a3565b818111156128d05783604083870101525b50601f01601f1916929092016040019392505050565b6020808252602b908201527f4552525f5345434f4e444152595f45524332305f43414e4e4f545f42455f505260408201526a0494d4152595f45524332360ac1b606082015260800190565b60208082526012908201527111549497d4d41597d393d517d0d313d4d15160721b604082015260600190565b6020808252602c908201527f4552525f50454e44494e475f4d414e414745525f414c52454144595f4d414e4160408201526b11d154d7d3d39157d195539160a21b606082015260800190565b60208082526043908201527f53796e6469636174652070726f666974207368617265206d757374206265206760408201527f726561746572207468616e206f7220657175616c20746f203330302028302e3360608201526230252960e81b608082015260a00190565b6020808252601e908201527f4552525f53454e4445525f4e4f545f43555252454e545f4d414e414745520000604082015260600190565b6020808252602c908201527f4552525f5350565f434c4f5345445f4255545f444953545249425554494f4e5360408201526b17d393d517d153905093115160a21b606082015260800190565b60208082526026908201527f4552525f4d41585f4445504f5349545f524541434845445f464f525f4c505f4160408201526544445245535360d01b606082015260800190565b6020808252602e908201527f4552525f4445504f5349545f45524332305f444f45535f4e4f545f4d4154434860408201526d05f5052494d4152595f45524332360941b606082015260800190565b6020808252602c908201527f4552525f4f50454e5f5350565f43414e5f4f4e4c595f57495448445241575f5060408201526b052494d4152595f45524332360a41b606082015260800190565b6020808252602c908201527f4552525f43555252454e545f4d414e414745525f414c52454144595f4d414e4160408201526b23a4a723afa7a722afa9a82b60a11b606082015260800190565b6020808252601a908201527f4552525f4e4f5f454c494749424c455f5749544844524157414c000000000000604082015260600190565b60208082526025908201527f4552525f4d41585f544f54414c5f4445504f5349545f524541434845445f464f604082015264292fa9a82b60d91b606082015260800190565b6020808252605b908201527f4552525f43414e5f4f4e4c595f42455f5345545f49465f44495354524942555460408201527f494f4e535f44495341424c45445f4f525f444953545249425554494f4e535f4560608201527f4e41424c45445f414e445f5a45524f5f414444524553535f5345540000000000608082015260a00190565b6020808252602a908201527f4552525f5749544844524157414c5f414d4f554e545f475245415445525f5448604082015269105397d1115413d4d25560b21b606082015260800190565b60208082526025908201527f4552525f4d53475f53454e4445525f49535f4e4f545f50454e44494e475f4d416040820152642720a3a2a960d91b606082015260800190565b60208082526023908201527f4552525f43555252454e545f4d414e414745525f414c52454144595f5052455360408201526211539560ea1b606082015260800190565b60208082526012908201527111549497d31417d393d517d0531313d5d15160721b604082015260600190565b60208082526018908201527f4552525f414c4c4f574c4953545f4e4f545f494e5f5553450000000000000000604082015260600190565b60208082526019908201527f4552525f4c505f4d5553545f42455f4143435245444954454400000000000000604082015260600190565b6020808252602c908201527f4552525f434c4f53455f444154455f4d5553545f42455f41465445525f424c4f60408201526b0434b5f54494d455354414d560a41b606082015260800190565b60208082526021908201527f4552525f444953545249425554494f4e535f414c52454144595f454e41424c456040820152601160fa1b606082015260800190565b60208082526027908201527f4552525f4d53475f53454e4445525f414c52454144595f4d414e414745535f4f604082015266139157d195539160ca1b606082015260800190565b6020808252603b908201527f4552525f434c4f5345445f5350565f43414e5f4f4e4c595f574954484452415760408201527f5f5052494d4152595f4f525f5345434f4e444152595f45524332300000000000606082015260800190565b60208082526010908201526f22a9292fa9a82b2fa727aa2fa7a822a760811b604082015260600190565b6020808252601d908201527f4552525f444953545249425554494f4e535f4e4f545f454e41424c4544000000604082015260600190565b6020808252601490820152734552525f414c4c4f574c4953545f494e5f55534560601b604082015260600190565b600061072082019050825182526020830151602083015260408301516040830152606083015160608301526080830151608083015260a083015160a083015260c083015160c083015260e083015160e08301526101008084015181840152506101208084015161305e828501826127c2565b505061014080840151613073828501826127c2565b505061016080840151613088828501826127c2565b50506101808084015161309d828501826127c2565b50506101a0808401516130b282850182612824565b50506101c0808401516130c782850182612824565b50506101e0808401516130dc82850182612824565b5050610200808401516130f182850182612824565b50506102208084015161310682850182612801565b505061024083015161311c6104a08401826127cf565b5092915050565b90815260200190565b918252602082015260400190565b938452602084019290925260408301521515606082015260800190565b8015158114611a3a57600080fdfe4f776e61626c653a206e6577206f776e657220697320746865207a65726f2061646472657373536166654d6174683a206d756c7469706c69636174696f6e206f766572666c6f774f776e61626c653a2063616c6c6572206973206e6f7420746865206f776e6572a264697066735822122047b334b2edb81a8f6d509f3174f7d0a1d9b38f184581de2d1866294b8b49659264736f6c63430007060033",
  "immutableReferences": {},
  "source": "// SPDX-License-Identifier: UNLICENSED\n\npragma solidity >=0.6.0 <0.8.0;\n// ABIEncoderV2 is necessary for returning structs in functions. This will be\n// the default in 0.8.0 and is no longer experimental:\n// https://blog.soliditylang.org/2020/12/16/solidity-v0.8.0-release-announcement/\npragma abicoder v2;\n\nimport \"@openzeppelin/contracts-upgradeable/access/OwnableUpgradeable.sol\";\nimport \"@openzeppelin/contracts-upgradeable/utils/PausableUpgradeable.sol\";\nimport \"@openzeppelin/contracts-upgradeable/math/SafeMathUpgradeable.sol\";\nimport \"@openzeppelin/contracts-upgradeable/token/ERC20/IERC20Upgradeable.sol\";\n\n/// @author Will Papper and Syndicate Inc.\n/// @title SPV management contract\ncontract SyndicateSPV is OwnableUpgradeable, PausableUpgradeable {\n    // Use OpenZeppelin SafeMath library for uint\n    using SafeMathUpgradeable for uint256;\n\n    // Use a consistent denominator for the profit share calculations\n    uint256 constant PROFIT_SHARE_DENOMINATOR = 10000 ether;\n\n    // If you make any changes to SPVSettings, ensure that you update\n    // getSPVSettings as well\n    struct SPVSettings {\n        // The maximum amount that a single address can deposit. This is useful\n        // when you want to restrict the amount that each wallet can deposit\n        // into the fund to ensure that ownership is distributed among many\n        // people. In the future, we can consider having a mapping that allows\n        // you to set per-user deposit thresholds but this is better saved for\n        // the asset management contract.\n        uint256 maxDeposit;\n        // The maximum amount that a fund can raise\n        uint256 maxTotalDeposits;\n        // The total deposits are used for calculating percentage stakes (e.g. ownership)\n        uint256 totalDeposits;\n        uint256 totalPrimaryDistributions;\n        uint256 totalSecondaryDistributions;\n        uint256 totalUnclaimedPrimaryDistributions;\n        uint256 totalUnclaimedSecondaryDistributions;\n        uint256 syndicateProfitSharePercent;\n        uint256 closeDate;\n        address currentManager;\n        // Used to transition ownership of a fund. A new current manager needs\n        // to claim the fund after being assigned as a pending manager\n        address pendingManager;\n        // TODO: Make this into an array of ERC20ContractAddresses?\n        // Distributions can then become an array with a matching index\n        // This will use more gas but provide vastly more flexibility\n        address primaryERC20ContractAddress;\n        address secondaryERC20ContractAddress;\n        bool spvOpen;\n        bool distributionsEnabled;\n        bool allowlistEnabled;\n        bool inactive;\n        // Reserve space in the struct so that it is upgrade safe\n        // See https://forum.openzeppelin.com/t/how-to-use-a-struct-in-an-upgradable-contract/832/5\n        // Gas usage for createSPV without reservations: 130549 gwei\n        // Gas usage for createSPV with reservations: 130549 gwei\n        // As far as I can tell, these reservations consume no gas.\n        uint256[20] __reservedUint256;\n        address[20] __reservedAddress;\n    }\n\n    // If you make any changes to SPVMappings, ensure that you update getSPVMappings\n    // as well\n    // This struct is separate from the SPV settings struct because it contains\n    // a mapping. Mappings in structs create a whole host of issues in terms of\n    // how they can be returned, so it's convenient to separate the mappings\n    // from the rest of the struct\n    struct SPVMappings {\n        // Tracks the amount that an LP has put into a SPV\n        mapping(address => uint256) deposits;\n        // Tracks the primary distributions that an LP has withdrawn\n        mapping(address => uint256) claimedPrimaryDistributions;\n        // Tracks the secondary distributions that an LP has withdrawn\n        mapping(address => uint256) claimedSecondaryDistributions;\n        // The addresses that are approved to contribute to the SPV\n        // The allowlist is enabled when allowlistEnabled is true\n        // We don't maintain a specific blocklist because someone could trivially create new addresses\n        mapping(address => bool) allowedAddresses;\n        // Generic metadata mapping for storing arbitrary data\n        mapping(string => string) metadata;\n        // Reserve space in the struct so that it is upgrade safe\n        // See https://forum.openzeppelin.com/t/how-to-use-a-struct-in-an-upgradable-contract/832/5\n        mapping(address => uint256) reservedAddressUint256MappingZero;\n        mapping(address => uint256) reservedAddressUint256MappingOne;\n        mapping(address => uint256) reservedAddressUint256MappingTwo;\n        mapping(address => uint256) reservedAddressUint256MappingThree;\n        mapping(address => uint256) reservedAddressUint256MappingFour;\n        mapping(address => bool) reservedAddressBoolMappingZero;\n        mapping(address => bool) reservedAddressBoolMappingOne;\n        mapping(address => bool) reservedAddressBoolMappingTwo;\n        mapping(address => bool) reservedAddressBoolMappingThree;\n        mapping(address => bool) reservedAddressBoolMappingFour;\n    }\n\n    // Map an SPV manager's address to their SPV's settings\n    // The mapping's address is determined via the msg.sender that calls createSPV\n    mapping(address => SPVSettings) spvsSettings;\n\n    // This mapping must be internal, otherwise you'll get \"Stack to deep, try\n    // removing local variables\" as an error when including a large number of\n    // variables in the SPVMappings struct. (This first occurred when we added a\n    // 16th variable that was not a bool to SingleSPV). This is because Solidity\n    // attempts to generate automatic getters and setters for the mapping and\n    // therefore the struct. The result of this is that we need to create our\n    // own getters and setters. We also will be unable to instantiate SingleSPV\n    // as a local variable inside of any function, which is mitigated by the\n    // fact that we always rely on the global spvsMappings mapping. Being unable to\n    // instantiate the local variable in a function also has less practical\n    // impact because the struct must be initialized in storage anyway because\n    // \"Type struct SyndicateSPV.SPVMappings is only valid in storage because it\n    // contains a (nested) mapping.\"\n    // See https://ethereum.stackexchange.com/questions/64496/is-it-possible-to-have-15-variables-in-a-struct-in-solidity\n    // A tip off in solving this was that neither structs nor mappings are\n    // passed as values to the function.\n    // See https://medium.com/coinmonks/stack-too-deep-error-in-solidity-608d1bd6a1ea\n    mapping(address => SPVMappings) internal spvsMappings;\n\n    // Mapping of current managers, true if a wallet is currently managing an\n    // SPV. Manager wallets are required to be unique to prevent commingling of\n    // assets between SPVs and to ensure that transparency is provided to the\n    // LPs\n    mapping(address => bool) currentManagers;\n\n    // Events emitted when LPs invest or withdraw from an SPV. Used to track LP\n    // activity, since that cannot be derived from a mapping (there is no way to\n    // search a mapping since it contains all possible addresses initialized to\n    // default values)\n    event lpInvestedInSPV(\n        address indexed lpAddress,\n        address indexed spvAddress,\n        uint256 amountInvested,\n        uint256 timestamp\n    );\n\n    event lpWithdrewFromSPV(\n        address indexed lpAddress,\n        address indexed spvAddress,\n        uint256 amountWithdrawn,\n        uint256 timestamp\n    );\n\n    event memo(\n        address indexed spvAddress,\n        address indexed currentManager,\n        bytes32 blake2b328HashPartOne,\n        bytes32 blake2b328HashPartTwo,\n        uint256 timestamp\n    );\n\n    /// @notice Only proceed if the msg.sender is the current manager\n    modifier rejectIfNotCurrentManager(address spvAddress) {\n        require(\n            msg.sender == spvsSettings[spvAddress].currentManager,\n            \"ERR_SENDER_NOT_CURRENT_MANAGER\"\n        );\n        _;\n    }\n\n    /// @notice Only proceed if the SPV is open\n    modifier onlySPVOpen(address spvAddress) {\n        closeSPVIfPastCloseDate(spvAddress);\n        // Require that the SPV is open to continue\n        require(spvsSettings[spvAddress].spvOpen, \"ERR_SPV_NOT_OPEN\");\n        _;\n    }\n\n    /// @notice Only proceed if the SPV is closed\n    modifier onlySPVClosed(address spvAddress) {\n        closeSPVIfPastCloseDate(spvAddress);\n        // Require that the SPV is closed to continue\n        require(!spvsSettings[spvAddress].spvOpen, \"ERR_SPV_NOT_CLOSED\");\n        _;\n    }\n\n    /// @notice Only proceed if distributions have not been enabled\n    modifier onlyBeforeDistributionsEnabled(address spvAddress) {\n        closeSPVIfPastCloseDate(spvAddress);\n        require(\n            !spvsSettings[spvAddress].distributionsEnabled,\n            \"ERR_DISTRIBUTIONS_ALREADY_ENABLED\"\n        );\n        _;\n    }\n\n    /// @notice Only proceed after distributions have been enabled\n    modifier onlyAfterDistributionsEnabled(address spvAddress) {\n        closeSPVIfPastCloseDate(spvAddress);\n        require(\n            spvsSettings[spvAddress].distributionsEnabled,\n            \"ERR_DISTRIBUTIONS_NOT_ENABLED\"\n        );\n        _;\n    }\n\n    /// @notice Only proceed if the allowlist is enabled\n    modifier onlyAllowlistEnabled(address spvAddress) {\n        // Require that the SPV has an allowlist to continue\n        require(\n            spvsSettings[spvAddress].allowlistEnabled,\n            \"ERR_ALLOWLIST_NOT_IN_USE\"\n        );\n        _;\n    }\n\n    /// @notice Only proceed if the allowlist is disabled\n    modifier onlyAllowlistDisabled(address spvAddress) {\n        // Require that the SPV has an allowlist to continue\n        require(\n            !spvsSettings[spvAddress].allowlistEnabled,\n            \"ERR_ALLOWLIST_IN_USE\"\n        );\n        _;\n    }\n\n    /// @notice Only proceed if the LP attests that they are an accredited\n    /// investor\n    modifier onlyAccredited(bool accredited) {\n        // Require that accredited is true to continue\n        require(accredited, \"ERR_LP_MUST_BE_ACCREDITED\");\n        _;\n    }\n\n    /// @dev This check should always occur before checking if the SPV is open or closed\n    function closeSPVIfPastCloseDate(address spvAddress) internal {\n        // Check if an SPV is *past* the close date (if the close date is equal\n        // to the current block timestamp, the SPV will remain open)\n        if (\n            spvsSettings[spvAddress].spvOpen == true &&\n            block.timestamp > spvsSettings[spvAddress].closeDate\n        ) {\n            spvsSettings[spvAddress].spvOpen = false;\n        }\n    }\n\n    /// @param primaryERC20ContractAddress The address of the ERC20 used for\n    /// deposits (e.g. DAI or USDC's contract addresses) and withdrawals.\n    /// Stablecoins are strongly recommended, especially for funds that are open\n    /// for an extended period of time. (Otherwise one contributor might\n    /// contribute one unit when a token is $100, and another contributor might\n    /// contribute one unit when a token is $200, and they would have the same\n    /// percentage ownership because they have both contributed one unit of a\n    /// token. Stablecoins prevent this because the value is consistent.)\n    /// @param secondaryERC20ContractAddress An optional secondary address that\n    /// can be used for project tokens or other token distribution options. If\n    /// you don't currently know the secondary address, address(0) should be\n    /// passed in. This can be changed any time before distributions are enabled\n    /// using setSecondaryERC20ContractAddress() or after distributions are\n    /// enabled if address(0) is set\n    /// @param syndicateProfitSharePercent The Syndicate profit share adjusted by\n    /// PERCENT_MULTIPLE (set to 1000). For example, the minimum profit share of\n    /// .30% should be passed in as 300 (since it is .30% * 1000). This means\n    /// that the max precision is .001%\n    /// @param closeDate The date that the SPV will automatically close in UNIX time.\n    /// @param maxDeposit The max deposit per wallet address.\n    /// @param maxTotalDeposits The max deposit amount for the fund/SPV.\n    /// @param allowlistEnabled False allows contributions to be sent without the manager needing to allow them. The manager can always reject a contribution before an SPV closes with rejectLPInvestment()\n    /// @dev The rejectIfNotCurrentManager modifier is not necessary here since the SPV is being initialized and has not been created yet\n    /// @dev This function is high risk. If a current SPV can be overwritten, someone could take control of the deposits by changing the current manager\n    function createSPV(\n        address primaryERC20ContractAddress,\n        address secondaryERC20ContractAddress,\n        uint256 syndicateProfitSharePercent,\n        uint256 closeDate,\n        uint256 maxDeposit,\n        uint256 maxTotalDeposits,\n        bool allowlistEnabled\n    ) public whenNotPaused() {\n        // HIGH RISK: Without this line, an SPV can be overwritten and the deposits can be redirected\n        require(\n            spvsSettings[msg.sender].currentManager == address(0),\n            \"ERR_CURRENT_MANAGER_ALREADY_PRESENT\"\n        );\n\n        // Ensure that the wallet address is unique to this SPV\n        require(\n            currentManagers[msg.sender] == false,\n            \"ERR_CURRENT_MANAGER_ALREADY_MANAGING_ONE_SPV\"\n        );\n\n        require(\n            closeDate > block.timestamp,\n            \"ERR_CLOSE_DATE_MUST_BE_AFTER_BLOCK_TIMESTAMP\"\n        );\n\n        require(\n            syndicateProfitSharePercent >= 300 ether,\n            \"Syndicate profit share must be greater than or equal to 300 (0.30%)\"\n        );\n        spvsSettings[msg.sender].currentManager = msg.sender;\n        // Specify that the msg.sender is now managing a fund\n        currentManagers[msg.sender] == true;\n        spvsSettings[msg.sender]\n            .primaryERC20ContractAddress = primaryERC20ContractAddress;\n        spvsSettings[msg.sender]\n            .secondaryERC20ContractAddress = secondaryERC20ContractAddress;\n        spvsSettings[msg.sender]\n            .syndicateProfitSharePercent = syndicateProfitSharePercent;\n        spvsSettings[msg.sender].spvOpen = true;\n        spvsSettings[msg.sender].closeDate = closeDate;\n        spvsSettings[msg.sender].allowlistEnabled = allowlistEnabled;\n        spvsSettings[msg.sender].maxDeposit = maxDeposit;\n        spvsSettings[msg.sender].maxTotalDeposits = maxTotalDeposits;\n    }\n\n    /// @notice Allow an LP to invest in an SPV\n    /// @param spvAddress The address that the LP is investing in\n    /// @param amount The amount of the investment (note that this is calculated\n    /// using the primary ERC20 token)\n    /// @param accredited Attestation that the LP is an accredited investor. Must\n    /// be true to continue\n    /// @dev Consider removing the onlySPVOpen modifier since the processDeposit\n    /// function has the same modifier, if you want to save on gas costs. Right\n    /// now, the duplicate modifiers provide additional safety when developing at\n    /// the cost of a small increase in gas.\n    function lpInvestInSPV(\n        address spvAddress,\n        uint256 amount,\n        bool accredited\n    ) public onlySPVOpen(spvAddress) onlyAccredited(accredited) {\n        if (\n            !spvsSettings[spvAddress].allowlistEnabled ||\n            spvsMappings[spvAddress].allowedAddresses[msg.sender]\n        ) {\n            // Check if  LP Address maxDeposit will be exceeded on deposit\n            // ensures LP doesn't deposit more than the SPV allows for each address\n            require(\n                spvsSettings[spvAddress].maxDeposit >=\n                    SafeMathUpgradeable.add(\n                        spvsMappings[spvAddress].deposits[msg.sender],\n                        amount\n                    ),\n                \"ERR_MAX_DEPOSIT_REACHED_FOR_LP_ADDRESS\"\n            );\n            // Check if SPV max fund has been reached\n            // ensures LP can't deposit beyond the SPV threshold\n            require(\n                spvsSettings[spvAddress].maxTotalDeposits >=\n                    SafeMathUpgradeable.add(\n                        spvsSettings[spvAddress].totalDeposits,\n                        amount\n                    ),\n                \"ERR_MAX_TOTAL_DEPOSIT_REACHED_FOR_SPV\"\n            );\n\n            processDeposit(\n                spvAddress,\n                spvsSettings[spvAddress].currentManager,\n                spvsSettings[spvAddress].primaryERC20ContractAddress,\n                amount\n            );\n        } else {\n            require(\n                spvsMappings[spvAddress].allowedAddresses[msg.sender],\n                \"ERR_LP_NOT_ALLOWED\"\n            );\n        }\n    }\n\n    /// @dev Withdrawals are restricted to the primary or secondary ERC20\n    /// contract address. If we allowed any arbitrary ERC20 address, we would\n    /// also need to track percentages for each arbitrary ERC20 address. This is\n    /// significantly outside of the scope of the SPV contract and should be\n    /// saved for future asset management contracts\n    function lpWithdrawFromSPV(\n        address spvAddress,\n        address ERC20ContractAddress,\n        uint256 amount\n    )\n        public\n        onlySPVClosed(spvAddress)\n        onlyAfterDistributionsEnabled(spvAddress)\n    {\n        // This check is also handled in processWithdrawal below. We could\n        // consider removing it from here\n        require(\n            ERC20ContractAddress ==\n                spvsSettings[spvAddress].primaryERC20ContractAddress ||\n                ERC20ContractAddress ==\n                spvsSettings[spvAddress].secondaryERC20ContractAddress,\n            \"ERR_CLOSED_SPV_CAN_ONLY_WITHDRAW_PRIMARY_OR_SECONDARY_ERC20\"\n        );\n        processWithdrawal(spvAddress, ERC20ContractAddress, amount);\n    }\n\n    /// @notice This is only used when the allowlist is disabled. When an allowlist\n    /// is enabled, LPs have already been pre-approved so there is no need to reject\n    /// investments.\n    function rejectLPInvestment(address spvAddress, address lpAddress)\n        public\n        rejectIfNotCurrentManager(spvAddress)\n        onlySPVOpen(spvAddress)\n        onlyAllowlistDisabled(spvAddress)\n    {}\n\n    /// @notice Allowing addresses is unnecessary if you pass in setAutoConfirmDeposit(true)\n    function allowAddress(address spvAddress, address lpAddress)\n        public\n        rejectIfNotCurrentManager(spvAddress)\n        onlySPVOpen(spvAddress)\n        onlyAllowlistEnabled(spvAddress)\n    {\n        spvsMappings[spvAddress].allowedAddresses[lpAddress] = true;\n    }\n\n    /// @notice All addresses are denied by default, so this is only necessary if\n    /// you want to remove a previously allowed address\n    function denyAddress(address spvAddress, address lpAddress)\n        public\n        rejectIfNotCurrentManager(spvAddress)\n        onlySPVOpen(spvAddress)\n        onlyAllowlistEnabled(spvAddress)\n    {\n        spvsMappings[spvAddress].allowedAddresses[lpAddress] = false;\n    }\n\n    /// @notice Once distributions are enabled, this value cannot be changed\n    function setSecondaryERC20ContractAddress(\n        address spvAddress,\n        address secondaryERC20ContractAddress\n    ) public rejectIfNotCurrentManager(spvAddress) {\n        require(\n            secondaryERC20ContractAddress !=\n                spvsSettings[spvAddress].primaryERC20ContractAddress,\n            \"ERR_SECONDARY_ERC20_CANNOT_BE_PRIMARY_ERC20\"\n        );\n        // If distributions are not enabled, this can be set to anything besides\n        // the primaryERC20ContractAddress\n        if (!spvsSettings[spvAddress].distributionsEnabled) {\n            spvsSettings[spvAddress]\n                .secondaryERC20ContractAddress = secondaryERC20ContractAddress;\n        }\n        // If distributions are enabled, this can only be set once if the\n        // address is the zero address\n        else if (\n            spvsSettings[spvAddress].distributionsEnabled &&\n            spvsSettings[spvAddress].secondaryERC20ContractAddress == address(0)\n        ) {\n            spvsSettings[spvAddress]\n                .secondaryERC20ContractAddress = secondaryERC20ContractAddress;\n        }\n        // Revert if distributions are enabled and the\n        // secondaryERC20ContractAddress is not address(0). This is the only\n        // available case remaining so we can use an else here\n        else {\n            revert(\n                \"ERR_CAN_ONLY_BE_SET_IF_DISTRIBUTIONS_DISABLED_OR_DISTRIBUTIONS_ENABLED_AND_ZERO_ADDRESS_SET\"\n            );\n        }\n    }\n\n    /// @notice Once distributions are enabled, they cannot be disabled\n    function setDistributionsEnabled(address spvAddress)\n        public\n        rejectIfNotCurrentManager(spvAddress)\n        onlySPVClosed(spvAddress)\n        onlyBeforeDistributionsEnabled(spvAddress)\n    {\n        spvsSettings[spvAddress].distributionsEnabled = true;\n    }\n\n    /// @notice Close an SPV to new deposits. An SPV must be closed before\n    /// distributions can be redeemed.\n    /// @notice Once an SPV is closed, it cannot be opened again. This is to\n    /// prevent issues with redeeming distributions interacting with new deposits\n    /// (e.g. a user with a 10% stake performs a withdrawal, and then a deposit\n    /// occurs that dilutes them down to a 1% stake. From that point onward, they\n    /// would only be entitled to 1% of the distributions)\n    function closeSPV(address spvAddress)\n        public\n        rejectIfNotCurrentManager(spvAddress)\n        onlySPVOpen(spvAddress)\n    {\n        spvsSettings[spvAddress].spvOpen = false;\n    }\n\n    /// @notice The current manager is pending until they claim the\n    /// currentManager status. This ensures that the new current manager has\n    /// control over their wallet and has also agreed to manage the fund.\n    /// @notice To reset a pendingManager request, just set the pendingManager to\n    /// be address(0). This is the value that it is initialized at within the\n    /// SingleSPV struct (it is the default value for all addresses)\n    function setPendingManager(address spvAddress, address pendingManager)\n        public\n        rejectIfNotCurrentManager(spvAddress)\n    {\n        require(\n            currentManagers[pendingManager] == false,\n            \"ERR_PENDING_MANAGER_ALREADY_MANAGES_ONE_FUND\"\n        );\n        spvsSettings[spvAddress].pendingManager = pendingManager;\n    }\n\n    /// @notice Used by the pending manager to claim current manager status\n    function confirmPendingManager(address spvAddress) public {\n        // Local variables with a value type (like addresses) are stored in\n        // memory. We don't need to (and in fact, cannot) specify this\n        // explicitly for addresses\n        address oldCurrentManager = spvsSettings[spvAddress].currentManager;\n        address newCurrentManager = spvsSettings[spvAddress].pendingManager;\n\n        // HIGH RISK: Without this line, anyone could steal a fund from a\n        // pendingManager\n        require(\n            msg.sender == newCurrentManager,\n            \"ERR_MSG_SENDER_IS_NOT_PENDING_MANAGER\"\n        );\n        require(\n            currentManagers[newCurrentManager] == false,\n            \"ERR_MSG_SENDER_ALREADY_MANAGES_ONE_FUND\"\n        );\n\n        // We use spvsSettings[spvAddress].pendingManager here (stored as\n        // newCurrentManager) to ensure that a failure of the require statement\n        // above does not lead to the fund being stolen by the msg.sender. We do\n        // not set the currentManager to be msg.sender, in case we fail to\n        // properly check that newCurrentManager is the msg.sender\n        spvsSettings[spvAddress].currentManager = newCurrentManager;\n\n        currentManagers[newCurrentManager] == true;\n        currentManagers[oldCurrentManager] == false;\n    }\n\n    function setAutoConfirmDeposit(address spvAddress, bool allowlistEnabled)\n        public\n        rejectIfNotCurrentManager(spvAddress)\n        onlySPVOpen(spvAddress)\n    {\n        spvsSettings[spvAddress].allowlistEnabled = allowlistEnabled;\n    }\n\n    /// @notice Mark an SPV as inactive. This signals that the SPV is no longer\n    /// in use. This only changes the UI that end users see and has no practical\n    /// implementation. If you would like to shut down a SPV, you should close\n    /// the SPV and enable distributions instead.\n    /// @param spvAddress The address of the SPV\n    /// @param inactiveStatus Pass in true to mark the SPV as inactive. False\n    /// (the default value upon SPV initialization) marks the SPV as active.\n    function setSPVInactiveStatus(address spvAddress, bool inactiveStatus)\n        public\n        rejectIfNotCurrentManager(spvAddress)\n    {\n        spvsSettings[spvAddress].inactive = inactiveStatus;\n    }\n\n    function setMetadata(\n        address spvAddress,\n        string calldata metadataKey,\n        string calldata metadataValue\n    ) public rejectIfNotCurrentManager(spvAddress) {\n        spvsMappings[spvAddress].metadata[metadataKey] = metadataValue;\n    }\n\n    /// @notice Emit an event that references a memo stored as 64 byte hash. IPFS\n    /// is recommended. If an IPFS hash is used, it must be `blake2b-328` so that\n    /// it can be stored in 64 bytes\n    /// @notice This can be used to store a fund thesis or describe a transaction\n    /// that a fund manager made in their wallet. This provides transparency by\n    /// notifying LPs of transactions and allowing them to verify the proper use\n    /// of funds.\n    /// @dev For more on the recommendation to use `blake2b-328` hashes, see\n    /// https://medium.com/temporal-cloud/efficient-usable-and-cheap-storage-of-ipfs-hashes-in-solidity-smart-contracts-eb3bef129eba\n    function emitMemo(\n        address spvAddress,\n        bytes32 blake2b328HashPartOne,\n        bytes32 blake2b328HashPartTwo\n    ) public rejectIfNotCurrentManager(spvAddress) {\n        emit memo(\n            spvAddress,\n            msg.sender,\n            blake2b328HashPartOne,\n            blake2b328HashPartTwo,\n            block.timestamp\n        );\n    }\n\n    /// @notice Return the settings for an SPV\n    /// @param spvAddress The address of the SPV\n    /// @return SPVSettings struct\n    /// @dev This function **must** be kept up to date with the web3 UI when\n    /// making changes. All PRs that change this function **must** be coordinated\n    /// with an engineer on the Web3 Dashboard.\n    function getSPVSettings(address spvAddress)\n        public\n        view\n        returns (SPVSettings memory)\n    {\n        return spvsSettings[spvAddress];\n    }\n\n    /// @notice Return the LP info for an SPV\n    /// @param spvAddress The address of the SPV\n    /// @param lpAddress The address of the LP\n    /// @return Tuple of:\n    /// spvsMappings[spvAddress].deposits[lpAddress],\n    /// spvsMappings[spvAddress].claimedPrimaryDistributions[lpAddress],\n    /// spvsMappings[spvAddress].claimedSecondaryDistributions[lpAddress],\n    /// spvsMappings[spvAddress].allowedAddresses[lpAddress]\n    /// @dev This function **must** be kept up to date with the web3 UI when\n    /// making changes. All PRs that change this function **must** be coordinated\n    /// with an engineer on the Web3 Dashboard.\n    function getSPVLPInfo(address spvAddress, address lpAddress)\n        public\n        view\n        returns (\n            uint256,\n            uint256,\n            uint256,\n            bool\n        )\n    {\n        return (\n            spvsMappings[spvAddress].deposits[lpAddress],\n            spvsMappings[spvAddress].claimedPrimaryDistributions[lpAddress],\n            spvsMappings[spvAddress].claimedSecondaryDistributions[lpAddress],\n            spvsMappings[spvAddress].allowedAddresses[lpAddress]\n        );\n    }\n\n    /// @notice Return the metadata for a given key within an SPV\n    /// @param spvAddress The address of the SPV\n    /// @param metadataKey The string that is the key of the metadata to look up\n    /// @return metadataValue as a string\n    function getSPVMetadata(address spvAddress, string calldata metadataKey)\n        public\n        view\n        returns (string memory)\n    {\n        return spvsMappings[spvAddress].metadata[metadataKey];\n    }\n\n    /// @notice Process a deposit to an SPV\n    /// @param spvAddress The address of the SPV\n    /// @param primaryERC20ContractAddress The ERC20 contract address of the\n    /// token that is being used for the deposit\n    /// @param amount The amount that the msg.sender is depositing\n    /// @dev The onlySPVOpen modifier is handled by the methods that call this\n    /// (lpInvestInSPV). This modifier is a duplicate and could be removed to\n    /// save on gas costs, at the expense of possibly introducing bugs in\n    /// investing in close SPVs down the road. For safety's sake, we'll keep it\n    /// in for now -- investing in a closed SPV causes a whole host of issues,\n    /// so it's worth the small increase in gas for the protection that we get\n    /// from its presence.\n    /// @dev This function is high risk. If the `.transferFrom` line can be\n    /// redirected elsewhere, deposits could be stolen. In addition, if the\n    /// deposits are not properly tracked, a user could withdraw more than their\n    /// allocated share of the distributions.\n    function processDeposit(\n        address spvAddress,\n        address currentManagerAddress,\n        address primaryERC20ContractAddress,\n        uint256 amount\n    ) internal whenNotPaused() onlySPVOpen(spvAddress) {\n        require(\n            primaryERC20ContractAddress ==\n                spvsSettings[spvAddress].primaryERC20ContractAddress,\n            \"ERR_DEPOSIT_ERC20_DOES_NOT_MATCH_PRIMARY_ERC20\"\n        );\n        IERC20Upgradeable depositERC20 =\n            IERC20Upgradeable(\n                spvsSettings[spvAddress].primaryERC20ContractAddress\n            );\n\n        // We could check the allowance first before calling `transferFrom()` if\n        // we wanted to, but this would use up more gas. I believe that the\n        // `transferFrom()` should cause a revert if the allowance or balance is\n        // insufficient, so we don't need to conduct a check here for it. We do\n        // need to ensure that everything related to a confirmed transaction\n        // occurs after `transferFrom()`\n\n        // HIGH RISK: If we did not use `msg.sender`, this could be used to\n        // steal funds from users other than the wallet holder (or smart\n        // contract owner, if a DAO is making the deposit).\n        depositERC20.transferFrom(msg.sender, currentManagerAddress, amount);\n\n        // Increase the deposits after a transferFrom. The transferFrom will\n        // have reverted upon failure, so we can allow this to proceed.\n\n        // Increase the deposit total for the LP\n        spvsMappings[spvAddress].deposits[msg.sender] += amount;\n        // Increase the total deposits. It's *very important* to keep this in\n        // sync with the LP deposits. If these values are out of sync, we cannot\n        // calculate percentage ownership of an SPV properly\n        spvsSettings[spvAddress].totalDeposits += amount;\n\n        // Emit LP invested in SPV event\n        emit lpInvestedInSPV(msg.sender, spvAddress, amount, block.timestamp);\n    }\n\n    /// @dev This function is high risk. If the `.transferFrom` line can be\n    /// redirected elsewhere, withdrawals could be stolen. In addition, if the\n    /// withdrawals are not properly tracked, a user could withdraw more than their\n    /// allocated share of the distributions.\n    function processWithdrawal(\n        address spvAddress,\n        address withdrawalERC20ContractAddress,\n        uint256 amount\n    ) internal whenNotPaused() {\n        // If the SPV is open, you can withdraw the primary ERC20 token to take\n        // your money back. This is deducted from your deposit\n        if (spvsSettings[spvAddress].spvOpen) {\n            // Ensure that the primary ERC20 is the only withdrawal option\n            // before a fund closes (otherwise a user could take secondary\n            // tokens before they are distributed)\n            require(\n                spvsSettings[spvAddress].primaryERC20ContractAddress ==\n                    withdrawalERC20ContractAddress,\n                \"ERR_OPEN_SPV_CAN_ONLY_WITHDRAW_PRIMARY_ERC20\"\n            );\n\n            // HIGH RISK: Without this line, a user could withdraw more than\n            // they put into the fund\n            require(\n                amount <= spvsMappings[spvAddress].deposits[msg.sender],\n                \"ERR_WITHDRAWAL_AMOUNT_GREATER_THAN_DEPOSIT\"\n            );\n\n            // Rely on the primaryERC20ContractAddress since that is the only\n            // allowed option when a fund is open\n            IERC20Upgradeable withdrawalERC20 =\n                IERC20Upgradeable(\n                    spvsSettings[spvAddress].primaryERC20ContractAddress\n                );\n\n            // HIGH RISK: If we did not use `msg.sender`, this could be used to\n            // redirect funds from users other than the wallet holder (or smart\n            // contract owner, if a DAO is making the withdrawal).\n            withdrawalERC20.transferFrom(\n                spvsSettings[spvAddress].currentManager,\n                msg.sender,\n                amount\n            );\n\n            // Decrease the deposits after a transferFrom. The transferFrom will\n            // have reverted upon failure, so we can allow this to proceed.\n\n            // Decrease the deposit total for the LP\n            spvsMappings[spvAddress].deposits[msg.sender] -= amount;\n            // Decrease the total deposits. It's *very important* to keep this in\n            // sync with the LP deposits. If these values are out of sync, we cannot\n            // calculate percentage ownership of an SPV properly\n            spvsSettings[spvAddress].totalDeposits -= amount;\n\n            // Emit LP withdrew from SPV event\n            emit lpWithdrewFromSPV(\n                msg.sender,\n                spvAddress,\n                amount,\n                block.timestamp\n            );\n        }\n        // If the SPV is closed but distributions have not been enabled, the SPV\n        // manager needs the SPVs for investment. Therefore, the funds cannot be\n        // withdrawn until the SPV manager enables distributions.\n        else if (\n            !spvsSettings[spvAddress].spvOpen &&\n            !spvsSettings[spvAddress].distributionsEnabled\n        ) {\n            revert(\"ERR_SPV_CLOSED_BUT_DISTRIBUTIONS_NOT_ENABLED\");\n        }\n        // If the SPV is closed, you can withdraw the primary or secondary ERC20\n        // token. This is added to your withdrawal totals to track the amount\n        // remaining that you are able to withdraw.\n        else if (\n            !spvsSettings[spvAddress].spvOpen &&\n            spvsSettings[spvAddress].distributionsEnabled\n        ) {\n            // Ensure that the primary ERC20 and the secondary ERC20 are the\n            // only withdrawal options (otherwise a user could steal tokens from\n            // the current manager's wallet that the current manager does not\n            // intend to distribute)\n            require(\n                (spvsSettings[spvAddress].primaryERC20ContractAddress ==\n                    withdrawalERC20ContractAddress ||\n                    spvsSettings[spvAddress].secondaryERC20ContractAddress ==\n                    withdrawalERC20ContractAddress),\n                \"ERR_CLOSED_SPV_CAN_ONLY_WITHDRAW_PRIMARY_OR_SECONDARY_ERC20\"\n            );\n\n            if (\n                spvsSettings[spvAddress].primaryERC20ContractAddress ==\n                withdrawalERC20ContractAddress\n            ) {\n                // TODO: Continue modifications for primary ERC20s here\n                // HIGH RISK: Without this line, a user could withdraw more than\n                // they are eligible for\n                require(\n                    amount <=\n                        spvsMappings[spvAddress].claimedPrimaryDistributions[\n                            msg.sender\n                        ],\n                    \"ERR_WITHDRAWAL_AMOUNT_GREATER_THAN_DEPOSIT\"\n                );\n\n                IERC20Upgradeable withdrawalERC20 =\n                    IERC20Upgradeable(\n                        spvsSettings[spvAddress].primaryERC20ContractAddress\n                    );\n\n                // HIGH RISK: If we did not use `msg.sender`, this could be used to\n                // redirect funds from users other than the wallet holder (or smart\n                // contract owner, if a DAO is making the withdrawal).\n                withdrawalERC20.transferFrom(\n                    spvsSettings[spvAddress].currentManager,\n                    msg.sender,\n                    amount\n                );\n\n                // Decrease the deposits after a transferFrom. The transferFrom will\n                // have reverted upon failure, so we can allow this to proceed.\n\n                // Decrease the deposit total for the LP\n                spvsMappings[spvAddress].deposits[msg.sender] -= amount;\n                // Decrease the total deposits. It's *very important* to keep this in\n                // sync with the LP deposits. If these values are out of sync, we cannot\n                // calculate percentage ownership of an SPV properly\n                spvsSettings[spvAddress].totalDeposits -= amount;\n\n                // Emit LP withdrew from SPV event\n                emit lpWithdrewFromSPV(\n                    msg.sender,\n                    spvAddress,\n                    amount,\n                    block.timestamp\n                );\n            } else if (\n                spvsSettings[spvAddress].secondaryERC20ContractAddress ==\n                withdrawalERC20ContractAddress\n            ) {\n                // TODO: Continue modifications for secondary ERC20s here\n                // HIGH RISK: Without this line, a user could withdraw more than\n                // they put into the fund\n                require(\n                    amount <= spvsMappings[spvAddress].deposits[msg.sender],\n                    \"ERR_WITHDRAWAL_AMOUNT_GREATER_THAN_DEPOSIT\"\n                );\n\n                // Rely on the primaryERC20ContractAddress since that is the only\n                // allowed option when a fund is open\n                IERC20Upgradeable withdrawalERC20 =\n                    IERC20Upgradeable(\n                        spvsSettings[spvAddress].primaryERC20ContractAddress\n                    );\n\n                // HIGH RISK: If we did not use `msg.sender`, this could be used to\n                // redirect funds from users other than the wallet holder (or smart\n                // contract owner, if a DAO is making the withdrawal).\n                withdrawalERC20.transferFrom(\n                    spvsSettings[spvAddress].currentManager,\n                    msg.sender,\n                    amount\n                );\n\n                // Decrease the deposits after a transferFrom. The transferFrom will\n                // have reverted upon failure, so we can allow this to proceed.\n\n                // Decrease the deposit total for the LP\n                spvsMappings[spvAddress].deposits[msg.sender] -= amount;\n                // Decrease the total deposits. It's *very important* to keep this in\n                // sync with the LP deposits. If these values are out of sync, we cannot\n                // calculate percentage ownership of an SPV properly\n                spvsSettings[spvAddress].totalDeposits -= amount;\n\n                // Emit LP withdrew from SPV event\n                emit lpWithdrewFromSPV(\n                    msg.sender,\n                    spvAddress,\n                    amount,\n                    block.timestamp\n                );\n            }\n        }\n    }\n\n    /// @param userContributions Total user has deposited to the fund\n    /// @param totalContributions Total contributions (from anyone) to the fund\n    /// @param claimedDistributions Value in distribution tokens that user has withdrawn from the fund already\n    /// @param totalDistributions Total distributions available from the fund, claimed or not\n    /// @return Value in distribution tokens that user is eligible to withdraw\n    /// @dev HIGH RISK: If this calculation is incorrect, a user could withdraw more or less than they are entitled to.  NEEDS TESTING on cases where the fund is not frozen (need to make sure a dynamic % ownership cannot result in the same distribution tokens being counted twice). We may need additional checks on @param totalDistributions when calling this function\n    function calculateEligibleWithdrawal(\n        uint256 userContributions,\n        uint256 totalContributions,\n        uint256 claimedDistributions,\n        uint256 totalDistributions\n    ) public pure returns (uint256) {\n        // If the fund is empty, we need to return to prevent division by 0\n        if (totalContributions == 0) return 0;\n        // Solves this equation for eligibleWithdrawal:\n        // userContributions / totalContributions = (eligibleWithdrawal + claimedDistributions) / totalDistributions\n        uint256 eligibleWithdrawal =\n            SafeMathUpgradeable.sub(\n                SafeMathUpgradeable.div(\n                    SafeMathUpgradeable.mul(\n                        userContributions,\n                        totalDistributions\n                    ),\n                    totalContributions\n                ),\n                claimedDistributions\n            );\n        require(eligibleWithdrawal > 0, \"ERR_NO_ELIGIBLE_WITHDRAWAL\");\n        return eligibleWithdrawal;\n    }\n\n    // TODO: Allow managers to set a profit share to Syndicate that they can only raise, not lower\n\n    /// @param withdrawal Total amount to user is sending\n    /// @param profitShareNumerator Establish fractional profit share (decimal\n    /// %'s get messy fast). The profit share denominator is always\n    /// PROFIT_SHARE_DENOMINATOR, which is set to 10000. Examples of different\n    /// percentages can be found in the calculateProfitShare tests\n    /// @return Tuple of (withdrawalToUser, withdrawalToProfitShare) The wthdrawal that the user will\n    /// receive and the amount of the profit share that the Syndicate treasury\n    /// (or, if adapted to asset management, the Syndicate manager) will receive\n    /// during withdrawal\n    function calculateProfitShare(\n        uint256 withdrawal,\n        uint256 profitShareNumerator\n    ) public pure returns (uint256, uint256) {\n        uint256 withdrawalToProfitShare =\n            SafeMathUpgradeable.div(\n                SafeMathUpgradeable.mul(withdrawal, profitShareNumerator),\n                PROFIT_SHARE_DENOMINATOR\n            );\n        uint256 withdrawalToUser = withdrawal - withdrawalToProfitShare;\n        return (withdrawalToUser, withdrawalToProfitShare);\n    }\n\n    /// @notice Emergency pause function that can only be triggered by the\n    /// contract owner\n    /// @notice Its purpose is to pause deposits and withdrawals. All other\n    /// functions will work when paused\n    function pauseContract() public onlyOwner {\n        _pause();\n    }\n\n    /// @notice Emergency unpause function that can only be triggered by the\n    /// contract owner\n    /// @notice Its purpose is to unpause deposits and withdrawals. All other\n    /// functions will work when paused\n    function unPauseContract() public onlyOwner {\n        _unpause();\n    }\n\n    /// @notice Renounce ownership of the contract\n    /// @notice Unpause the contract before ownership is renounced, to ensure\n    /// that deposits/withdrawals are not locked\n    function renounceOwnership() public override onlyOwner {\n        unPauseContract();\n        super.renounceOwnership();\n    }\n\n    // Added a storage gap for future variable additions.\n    // See https://docs.openzeppelin.com/contracts/3.x/upgradeable#storage_gaps\n    uint256[50] __gap;\n}\n",
  "sourcePath": "/home/mbuvi/syndicate/Syndicate-SPV/contracts/SyndicateSPV.sol",
  "compiler": {
    "name": "solc",
    "version": "0.7.6+commit.7338295f.Emscripten.clang"
  },
  "schemaVersion": "3.3.4",
  "updatedAt": "2021-03-17T10:31:00.774Z",
  "devdoc": {
    "author": "Will Papper and Syndicate Inc.",
    "kind": "dev",
    "methods": {
      "calculateEligibleWithdrawal(uint256,uint256,uint256,uint256)": {
        "details": "HIGH RISK: If this calculation is incorrect, a user could withdraw more or less than they are entitled to.  NEEDS TESTING on cases where the fund is not frozen (need to make sure a dynamic % ownership cannot result in the same distribution tokens being counted twice). We may need additional checks on @param totalDistributions when calling this function",
        "params": {
          "claimedDistributions": "Value in distribution tokens that user has withdrawn from the fund already",
          "totalContributions": "Total contributions (from anyone) to the fund",
          "totalDistributions": "Total distributions available from the fund, claimed or not",
          "userContributions": "Total user has deposited to the fund"
        },
        "returns": {
          "_0": "Value in distribution tokens that user is eligible to withdraw"
        }
      },
      "calculateProfitShare(uint256,uint256)": {
        "params": {
          "profitShareNumerator": "Establish fractional profit share (decimal %'s get messy fast). The profit share denominator is always PROFIT_SHARE_DENOMINATOR, which is set to 10000. Examples of different percentages can be found in the calculateProfitShare tests",
          "withdrawal": "Total amount to user is sending"
        },
        "returns": {
          "_0": "Tuple of (withdrawalToUser, withdrawalToProfitShare) The wthdrawal that the user will receive and the amount of the profit share that the Syndicate treasury (or, if adapted to asset management, the Syndicate manager) will receive during withdrawal"
        }
      },
      "createSPV(address,address,uint256,uint256,uint256,uint256,bool)": {
        "details": "The rejectIfNotCurrentManager modifier is not necessary here since the SPV is being initialized and has not been created yetThis function is high risk. If a current SPV can be overwritten, someone could take control of the deposits by changing the current manager",
        "params": {
          "allowlistEnabled": "False allows contributions to be sent without the manager needing to allow them. The manager can always reject a contribution before an SPV closes with rejectLPInvestment()",
          "closeDate": "The date that the SPV will automatically close in UNIX time.",
          "maxDeposit": "The max deposit per wallet address.",
          "maxTotalDeposits": "The max deposit amount for the fund/SPV.",
          "primaryERC20ContractAddress": "The address of the ERC20 used for deposits (e.g. DAI or USDC's contract addresses) and withdrawals. Stablecoins are strongly recommended, especially for funds that are open for an extended period of time. (Otherwise one contributor might contribute one unit when a token is $100, and another contributor might contribute one unit when a token is $200, and they would have the same percentage ownership because they have both contributed one unit of a token. Stablecoins prevent this because the value is consistent.)",
          "secondaryERC20ContractAddress": "An optional secondary address that can be used for project tokens or other token distribution options. If you don't currently know the secondary address, address(0) should be passed in. This can be changed any time before distributions are enabled using setSecondaryERC20ContractAddress() or after distributions are enabled if address(0) is set",
          "syndicateProfitSharePercent": "The Syndicate profit share adjusted by PERCENT_MULTIPLE (set to 1000). For example, the minimum profit share of .30% should be passed in as 300 (since it is .30% * 1000). This means that the max precision is .001%"
        }
      },
      "emitMemo(address,bytes32,bytes32)": {
        "details": "For more on the recommendation to use `blake2b-328` hashes, see https://medium.com/temporal-cloud/efficient-usable-and-cheap-storage-of-ipfs-hashes-in-solidity-smart-contracts-eb3bef129eba"
      },
      "getSPVLPInfo(address,address)": {
        "details": "This function **must** be kept up to date with the web3 UI when making changes. All PRs that change this function **must** be coordinated with an engineer on the Web3 Dashboard.",
        "params": {
          "lpAddress": "The address of the LP",
          "spvAddress": "The address of the SPV"
        },
        "returns": {
          "_0": "Tuple of: spvsMappings[spvAddress].deposits[lpAddress], spvsMappings[spvAddress].claimedPrimaryDistributions[lpAddress], spvsMappings[spvAddress].claimedSecondaryDistributions[lpAddress], spvsMappings[spvAddress].allowedAddresses[lpAddress]"
        }
      },
      "getSPVMetadata(address,string)": {
        "params": {
          "metadataKey": "The string that is the key of the metadata to look up",
          "spvAddress": "The address of the SPV"
        },
        "returns": {
          "_0": "metadataValue as a string"
        }
      },
      "getSPVSettings(address)": {
        "details": "This function **must** be kept up to date with the web3 UI when making changes. All PRs that change this function **must** be coordinated with an engineer on the Web3 Dashboard.",
        "params": {
          "spvAddress": "The address of the SPV"
        },
        "returns": {
          "_0": "SPVSettings struct"
        }
      },
      "lpInvestInSPV(address,uint256,bool)": {
        "details": "Consider removing the onlySPVOpen modifier since the processDeposit function has the same modifier, if you want to save on gas costs. Right now, the duplicate modifiers provide additional safety when developing at the cost of a small increase in gas.",
        "params": {
          "accredited": "Attestation that the LP is an accredited investor. Must be true to continue",
          "amount": "The amount of the investment (note that this is calculated using the primary ERC20 token)",
          "spvAddress": "The address that the LP is investing in"
        }
      },
      "lpWithdrawFromSPV(address,address,uint256)": {
        "details": "Withdrawals are restricted to the primary or secondary ERC20 contract address. If we allowed any arbitrary ERC20 address, we would also need to track percentages for each arbitrary ERC20 address. This is significantly outside of the scope of the SPV contract and should be saved for future asset management contracts"
      },
      "owner()": {
        "details": "Returns the address of the current owner."
      },
      "paused()": {
        "details": "Returns true if the contract is paused, and false otherwise."
      },
      "setSPVInactiveStatus(address,bool)": {
        "params": {
          "inactiveStatus": "Pass in true to mark the SPV as inactive. False (the default value upon SPV initialization) marks the SPV as active.",
          "spvAddress": "The address of the SPV"
        }
      },
      "transferOwnership(address)": {
        "details": "Transfers ownership of the contract to a new account (`newOwner`). Can only be called by the current owner."
      }
    },
    "title": "SPV management contract",
    "version": 1
  },
  "userdoc": {
    "kind": "user",
    "methods": {
      "allowAddress(address,address)": {
        "notice": "Allowing addresses is unnecessary if you pass in setAutoConfirmDeposit(true)"
      },
      "closeSPV(address)": {
        "notice": "Close an SPV to new deposits. An SPV must be closed before distributions can be redeemed.Once an SPV is closed, it cannot be opened again. This is to prevent issues with redeeming distributions interacting with new deposits (e.g. a user with a 10% stake performs a withdrawal, and then a deposit occurs that dilutes them down to a 1% stake. From that point onward, they would only be entitled to 1% of the distributions)"
      },
      "confirmPendingManager(address)": {
        "notice": "Used by the pending manager to claim current manager status"
      },
      "denyAddress(address,address)": {
        "notice": "All addresses are denied by default, so this is only necessary if you want to remove a previously allowed address"
      },
      "emitMemo(address,bytes32,bytes32)": {
        "notice": "Emit an event that references a memo stored as 64 byte hash. IPFS is recommended. If an IPFS hash is used, it must be `blake2b-328` so that it can be stored in 64 bytesThis can be used to store a fund thesis or describe a transaction that a fund manager made in their wallet. This provides transparency by notifying LPs of transactions and allowing them to verify the proper use of funds."
      },
      "getSPVLPInfo(address,address)": {
        "notice": "Return the LP info for an SPV"
      },
      "getSPVMetadata(address,string)": {
        "notice": "Return the metadata for a given key within an SPV"
      },
      "getSPVSettings(address)": {
        "notice": "Return the settings for an SPV"
      },
      "lpInvestInSPV(address,uint256,bool)": {
        "notice": "Allow an LP to invest in an SPV"
      },
      "pauseContract()": {
        "notice": "Emergency pause function that can only be triggered by the contract ownerIts purpose is to pause deposits and withdrawals. All other functions will work when paused"
      },
      "rejectLPInvestment(address,address)": {
        "notice": "This is only used when the allowlist is disabled. When an allowlist is enabled, LPs have already been pre-approved so there is no need to reject investments."
      },
      "renounceOwnership()": {
        "notice": "Renounce ownership of the contractUnpause the contract before ownership is renounced, to ensure that deposits/withdrawals are not locked"
      },
      "setDistributionsEnabled(address)": {
        "notice": "Once distributions are enabled, they cannot be disabled"
      },
      "setPendingManager(address,address)": {
        "notice": "The current manager is pending until they claim the currentManager status. This ensures that the new current manager has control over their wallet and has also agreed to manage the fund.To reset a pendingManager request, just set the pendingManager to be address(0). This is the value that it is initialized at within the SingleSPV struct (it is the default value for all addresses)"
      },
      "setSPVInactiveStatus(address,bool)": {
        "notice": "Mark an SPV as inactive. This signals that the SPV is no longer in use. This only changes the UI that end users see and has no practical implementation. If you would like to shut down a SPV, you should close the SPV and enable distributions instead."
      },
      "setSecondaryERC20ContractAddress(address,address)": {
        "notice": "Once distributions are enabled, this value cannot be changed"
      },
      "unPauseContract()": {
        "notice": "Emergency unpause function that can only be triggered by the contract ownerIts purpose is to unpause deposits and withdrawals. All other functions will work when paused"
      }
    },
    "version": 1
  }
}