{
  "contractName": "SyndicateClosedEndFundStoreV0",
  "abi": [
    {
      "inputs": [],
      "stateMutability": "nonpayable",
      "type": "constructor"
    },
    {
      "anonymous": false,
      "inputs": [
        {
          "indexed": true,
          "internalType": "address",
          "name": "previousOwner",
          "type": "address"
        },
        {
          "indexed": true,
          "internalType": "address",
          "name": "newOwner",
          "type": "address"
        }
      ],
      "name": "OwnershipTransferred",
      "type": "event"
    },
    {
      "anonymous": false,
      "inputs": [
        {
          "indexed": false,
          "internalType": "address",
          "name": "account",
          "type": "address"
        }
      ],
      "name": "Paused",
      "type": "event"
    },
    {
      "anonymous": false,
      "inputs": [
        {
          "indexed": false,
          "internalType": "address",
          "name": "account",
          "type": "address"
        }
      ],
      "name": "Unpaused",
      "type": "event"
    },
    {
      "anonymous": false,
      "inputs": [
        {
          "indexed": false,
          "internalType": "address",
          "name": "logicContractAddress",
          "type": "address"
        },
        {
          "indexed": false,
          "internalType": "uint256",
          "name": "timestamp",
          "type": "uint256"
        }
      ],
      "name": "logicContractAdded",
      "type": "event"
    },
    {
      "anonymous": false,
      "inputs": [
        {
          "indexed": false,
          "internalType": "address",
          "name": "logicContractAddress",
          "type": "address"
        },
        {
          "indexed": false,
          "internalType": "uint256",
          "name": "timestamp",
          "type": "uint256"
        }
      ],
      "name": "logicContractRemoved",
      "type": "event"
    },
    {
      "anonymous": false,
      "inputs": [
        {
          "indexed": false,
          "internalType": "address",
          "name": "owner",
          "type": "address"
        }
      ],
      "name": "ownerRenouncedPause",
      "type": "event"
    },
    {
      "anonymous": false,
      "inputs": [
        {
          "indexed": true,
          "internalType": "address",
          "name": "contractFeeAddress",
          "type": "address"
        },
        {
          "indexed": false,
          "internalType": "uint256",
          "name": "timestamp",
          "type": "uint256"
        }
      ],
      "name": "ownerSetterSyndicateFeeAddress",
      "type": "event"
    },
    {
      "inputs": [],
      "name": "BASIS_POINTS_DENOMINATOR",
      "outputs": [
        {
          "internalType": "uint256",
          "name": "",
          "type": "uint256"
        }
      ],
      "stateMutability": "view",
      "type": "function"
    },
    {
      "inputs": [
        {
          "internalType": "address",
          "name": "",
          "type": "address"
        },
        {
          "internalType": "address",
          "name": "",
          "type": "address"
        }
      ],
      "name": "addressAllowed",
      "outputs": [
        {
          "internalType": "bool",
          "name": "",
          "type": "bool"
        }
      ],
      "stateMutability": "view",
      "type": "function"
    },
    {
      "inputs": [
        {
          "internalType": "address",
          "name": "",
          "type": "address"
        }
      ],
      "name": "allowlistEnabled",
      "outputs": [
        {
          "internalType": "bool",
          "name": "",
          "type": "bool"
        }
      ],
      "stateMutability": "view",
      "type": "function"
    },
    {
      "inputs": [
        {
          "internalType": "address",
          "name": "",
          "type": "address"
        }
      ],
      "name": "dateClose",
      "outputs": [
        {
          "internalType": "uint256",
          "name": "",
          "type": "uint256"
        }
      ],
      "stateMutability": "view",
      "type": "function"
    },
    {
      "inputs": [
        {
          "internalType": "address",
          "name": "",
          "type": "address"
        }
      ],
      "name": "dateCreation",
      "outputs": [
        {
          "internalType": "uint256",
          "name": "",
          "type": "uint256"
        }
      ],
      "stateMutability": "view",
      "type": "function"
    },
    {
      "inputs": [
        {
          "internalType": "address",
          "name": "",
          "type": "address"
        }
      ],
      "name": "depositERC20Address",
      "outputs": [
        {
          "internalType": "address",
          "name": "",
          "type": "address"
        }
      ],
      "stateMutability": "view",
      "type": "function"
    },
    {
      "inputs": [
        {
          "internalType": "address",
          "name": "",
          "type": "address"
        }
      ],
      "name": "depositMaxMember",
      "outputs": [
        {
          "internalType": "uint256",
          "name": "",
          "type": "uint256"
        }
      ],
      "stateMutability": "view",
      "type": "function"
    },
    {
      "inputs": [
        {
          "internalType": "address",
          "name": "",
          "type": "address"
        }
      ],
      "name": "depositMaxTotal",
      "outputs": [
        {
          "internalType": "uint256",
          "name": "",
          "type": "uint256"
        }
      ],
      "stateMutability": "view",
      "type": "function"
    },
    {
      "inputs": [
        {
          "internalType": "address",
          "name": "",
          "type": "address"
        },
        {
          "internalType": "address",
          "name": "",
          "type": "address"
        }
      ],
      "name": "depositMember",
      "outputs": [
        {
          "internalType": "uint256",
          "name": "",
          "type": "uint256"
        }
      ],
      "stateMutability": "view",
      "type": "function"
    },
    {
      "inputs": [
        {
          "internalType": "address",
          "name": "",
          "type": "address"
        }
      ],
      "name": "depositMinMember",
      "outputs": [
        {
          "internalType": "uint256",
          "name": "",
          "type": "uint256"
        }
      ],
      "stateMutability": "view",
      "type": "function"
    },
    {
      "inputs": [
        {
          "internalType": "address",
          "name": "",
          "type": "address"
        }
      ],
      "name": "depositTotal",
      "outputs": [
        {
          "internalType": "uint256",
          "name": "",
          "type": "uint256"
        }
      ],
      "stateMutability": "view",
      "type": "function"
    },
    {
      "inputs": [
        {
          "internalType": "address",
          "name": "",
          "type": "address"
        }
      ],
      "name": "distributing",
      "outputs": [
        {
          "internalType": "bool",
          "name": "",
          "type": "bool"
        }
      ],
      "stateMutability": "view",
      "type": "function"
    },
    {
      "inputs": [
        {
          "internalType": "address",
          "name": "",
          "type": "address"
        },
        {
          "internalType": "address",
          "name": "",
          "type": "address"
        },
        {
          "internalType": "address",
          "name": "",
          "type": "address"
        }
      ],
      "name": "distributionClaimedMember",
      "outputs": [
        {
          "internalType": "uint256",
          "name": "",
          "type": "uint256"
        }
      ],
      "stateMutability": "view",
      "type": "function"
    },
    {
      "inputs": [
        {
          "internalType": "address",
          "name": "",
          "type": "address"
        },
        {
          "internalType": "address",
          "name": "",
          "type": "address"
        }
      ],
      "name": "distributionClaimedTotal",
      "outputs": [
        {
          "internalType": "uint256",
          "name": "",
          "type": "uint256"
        }
      ],
      "stateMutability": "view",
      "type": "function"
    },
    {
      "inputs": [
        {
          "internalType": "address",
          "name": "",
          "type": "address"
        },
        {
          "internalType": "address",
          "name": "",
          "type": "address"
        }
      ],
      "name": "distributionERC20Addresses",
      "outputs": [
        {
          "internalType": "bool",
          "name": "",
          "type": "bool"
        }
      ],
      "stateMutability": "view",
      "type": "function"
    },
    {
      "inputs": [
        {
          "internalType": "address",
          "name": "",
          "type": "address"
        },
        {
          "internalType": "address",
          "name": "",
          "type": "address"
        }
      ],
      "name": "distributionTotal",
      "outputs": [
        {
          "internalType": "uint256",
          "name": "",
          "type": "uint256"
        }
      ],
      "stateMutability": "view",
      "type": "function"
    },
    {
      "inputs": [
        {
          "internalType": "address",
          "name": "",
          "type": "address"
        }
      ],
      "name": "isManager",
      "outputs": [
        {
          "internalType": "bool",
          "name": "",
          "type": "bool"
        }
      ],
      "stateMutability": "view",
      "type": "function"
    },
    {
      "inputs": [
        {
          "internalType": "address",
          "name": "",
          "type": "address"
        }
      ],
      "name": "logicContractAllowed",
      "outputs": [
        {
          "internalType": "bool",
          "name": "",
          "type": "bool"
        }
      ],
      "stateMutability": "view",
      "type": "function"
    },
    {
      "inputs": [
        {
          "internalType": "address",
          "name": "",
          "type": "address"
        }
      ],
      "name": "managerCurrent",
      "outputs": [
        {
          "internalType": "address",
          "name": "",
          "type": "address"
        }
      ],
      "stateMutability": "view",
      "type": "function"
    },
    {
      "inputs": [
        {
          "internalType": "address",
          "name": "",
          "type": "address"
        }
      ],
      "name": "managerFeeAddress",
      "outputs": [
        {
          "internalType": "address",
          "name": "",
          "type": "address"
        }
      ],
      "stateMutability": "view",
      "type": "function"
    },
    {
      "inputs": [
        {
          "internalType": "address",
          "name": "",
          "type": "address"
        }
      ],
      "name": "managerManagementFeeBasisPoints",
      "outputs": [
        {
          "internalType": "uint256",
          "name": "",
          "type": "uint256"
        }
      ],
      "stateMutability": "view",
      "type": "function"
    },
    {
      "inputs": [
        {
          "internalType": "address",
          "name": "",
          "type": "address"
        }
      ],
      "name": "managerPending",
      "outputs": [
        {
          "internalType": "address",
          "name": "",
          "type": "address"
        }
      ],
      "stateMutability": "view",
      "type": "function"
    },
    {
      "inputs": [
        {
          "internalType": "address",
          "name": "",
          "type": "address"
        }
      ],
      "name": "managerPerformanceFeeBasisPoints",
      "outputs": [
        {
          "internalType": "uint256",
          "name": "",
          "type": "uint256"
        }
      ],
      "stateMutability": "view",
      "type": "function"
    },
    {
      "inputs": [
        {
          "internalType": "address",
          "name": "",
          "type": "address"
        },
        {
          "internalType": "string",
          "name": "",
          "type": "string"
        }
      ],
      "name": "metadata",
      "outputs": [
        {
          "internalType": "string",
          "name": "",
          "type": "string"
        }
      ],
      "stateMutability": "view",
      "type": "function"
    },
    {
      "inputs": [
        {
          "internalType": "address",
          "name": "",
          "type": "address"
        }
      ],
      "name": "modifiable",
      "outputs": [
        {
          "internalType": "bool",
          "name": "",
          "type": "bool"
        }
      ],
      "stateMutability": "view",
      "type": "function"
    },
    {
      "inputs": [
        {
          "internalType": "address",
          "name": "",
          "type": "address"
        }
      ],
      "name": "numMembersCurrent",
      "outputs": [
        {
          "internalType": "uint256",
          "name": "",
          "type": "uint256"
        }
      ],
      "stateMutability": "view",
      "type": "function"
    },
    {
      "inputs": [
        {
          "internalType": "address",
          "name": "",
          "type": "address"
        }
      ],
      "name": "numMembersMax",
      "outputs": [
        {
          "internalType": "uint256",
          "name": "",
          "type": "uint256"
        }
      ],
      "stateMutability": "view",
      "type": "function"
    },
    {
      "inputs": [
        {
          "internalType": "address",
          "name": "",
          "type": "address"
        }
      ],
      "name": "open",
      "outputs": [
        {
          "internalType": "bool",
          "name": "",
          "type": "bool"
        }
      ],
      "stateMutability": "view",
      "type": "function"
    },
    {
      "inputs": [],
      "name": "owner",
      "outputs": [
        {
          "internalType": "address",
          "name": "",
          "type": "address"
        }
      ],
      "stateMutability": "view",
      "type": "function"
    },
    {
      "inputs": [],
      "name": "ownerPauseContract",
      "outputs": [],
      "stateMutability": "nonpayable",
      "type": "function"
    },
    {
      "inputs": [],
      "name": "ownerRenounceOwnership",
      "outputs": [],
      "stateMutability": "nonpayable",
      "type": "function"
    },
    {
      "inputs": [],
      "name": "ownerRenouncePause",
      "outputs": [],
      "stateMutability": "nonpayable",
      "type": "function"
    },
    {
      "inputs": [
        {
          "internalType": "address",
          "name": "feeAddress",
          "type": "address"
        }
      ],
      "name": "ownerSetSyndicateFeeAddress",
      "outputs": [],
      "stateMutability": "nonpayable",
      "type": "function"
    },
    {
      "inputs": [
        {
          "internalType": "address",
          "name": "newOwner",
          "type": "address"
        }
      ],
      "name": "ownerTransferOwnership",
      "outputs": [],
      "stateMutability": "nonpayable",
      "type": "function"
    },
    {
      "inputs": [],
      "name": "ownerUnpauseContract",
      "outputs": [],
      "stateMutability": "nonpayable",
      "type": "function"
    },
    {
      "inputs": [],
      "name": "paused",
      "outputs": [
        {
          "internalType": "bool",
          "name": "",
          "type": "bool"
        }
      ],
      "stateMutability": "view",
      "type": "function"
    },
    {
      "inputs": [],
      "name": "renounceOwnership",
      "outputs": [],
      "stateMutability": "nonpayable",
      "type": "function"
    },
    {
      "inputs": [
        {
          "internalType": "address",
          "name": "",
          "type": "address"
        }
      ],
      "name": "syndicateProfitShareBasisPoints",
      "outputs": [
        {
          "internalType": "uint256",
          "name": "",
          "type": "uint256"
        }
      ],
      "stateMutability": "view",
      "type": "function"
    },
    {
      "inputs": [
        {
          "internalType": "address",
          "name": "newOwner",
          "type": "address"
        }
      ],
      "name": "transferOwnership",
      "outputs": [],
      "stateMutability": "nonpayable",
      "type": "function"
    },
    {
      "inputs": [
        {
          "internalType": "address",
          "name": "",
          "type": "address"
        }
      ],
      "name": "transferable",
      "outputs": [
        {
          "internalType": "bool",
          "name": "",
          "type": "bool"
        }
      ],
      "stateMutability": "view",
      "type": "function"
    },
    {
      "inputs": [
        {
          "internalType": "address",
          "name": "logicContractAddress",
          "type": "address"
        }
      ],
      "name": "addLogicContractAllowed",
      "outputs": [],
      "stateMutability": "nonpayable",
      "type": "function"
    },
    {
      "inputs": [
        {
          "internalType": "address",
          "name": "logicContractAddress",
          "type": "address"
        }
      ],
      "name": "removeLogicContractAllowed",
      "outputs": [],
      "stateMutability": "nonpayable",
      "type": "function"
    },
    {
      "inputs": [
        {
          "internalType": "address",
          "name": "manager",
          "type": "address"
        },
        {
          "internalType": "bool",
          "name": "_isManager",
          "type": "bool"
        }
      ],
      "name": "setIsManager",
      "outputs": [],
      "stateMutability": "nonpayable",
      "type": "function"
    },
    {
      "inputs": [
        {
          "internalType": "address",
          "name": "syndicateAddress",
          "type": "address"
        },
        {
          "internalType": "address",
          "name": "currentManager",
          "type": "address"
        }
      ],
      "name": "setManagerCurrent",
      "outputs": [],
      "stateMutability": "nonpayable",
      "type": "function"
    },
    {
      "inputs": [
        {
          "internalType": "address",
          "name": "syndicateAddress",
          "type": "address"
        },
        {
          "internalType": "address",
          "name": "pendingManager",
          "type": "address"
        }
      ],
      "name": "setManagerPending",
      "outputs": [],
      "stateMutability": "nonpayable",
      "type": "function"
    },
    {
      "inputs": [
        {
          "internalType": "address",
          "name": "syndicateAddress",
          "type": "address"
        },
        {
          "internalType": "address",
          "name": "feeAddress",
          "type": "address"
        }
      ],
      "name": "setManagerFeeAddress",
      "outputs": [],
      "stateMutability": "nonpayable",
      "type": "function"
    },
    {
      "inputs": [
        {
          "internalType": "address",
          "name": "syndicateAddress",
          "type": "address"
        },
        {
          "internalType": "uint256",
          "name": "feeBasisPoints",
          "type": "uint256"
        }
      ],
      "name": "setManagerManagementFeeBasisPoints",
      "outputs": [],
      "stateMutability": "nonpayable",
      "type": "function"
    },
    {
      "inputs": [
        {
          "internalType": "address",
          "name": "syndicateAddress",
          "type": "address"
        },
        {
          "internalType": "uint256",
          "name": "feeBasisPoints",
          "type": "uint256"
        }
      ],
      "name": "setManagerPerformanceFeeBasisPoints",
      "outputs": [],
      "stateMutability": "nonpayable",
      "type": "function"
    },
    {
      "inputs": [
        {
          "internalType": "address",
          "name": "syndicateAddress",
          "type": "address"
        },
        {
          "internalType": "uint256",
          "name": "profitShareBasisPoints",
          "type": "uint256"
        }
      ],
      "name": "setSyndicateProfitShareBasisPoints",
      "outputs": [],
      "stateMutability": "nonpayable",
      "type": "function"
    },
    {
      "inputs": [
        {
          "internalType": "address",
          "name": "syndicateAddress",
          "type": "address"
        },
        {
          "internalType": "uint256",
          "name": "maxMembers",
          "type": "uint256"
        }
      ],
      "name": "setNumMembersMax",
      "outputs": [],
      "stateMutability": "nonpayable",
      "type": "function"
    },
    {
      "inputs": [
        {
          "internalType": "address",
          "name": "syndicateAddress",
          "type": "address"
        },
        {
          "internalType": "uint256",
          "name": "currentMembers",
          "type": "uint256"
        }
      ],
      "name": "setNumMembersCurrent",
      "outputs": [],
      "stateMutability": "nonpayable",
      "type": "function"
    },
    {
      "inputs": [
        {
          "internalType": "address",
          "name": "syndicateAddress",
          "type": "address"
        },
        {
          "internalType": "address",
          "name": "depositAddress",
          "type": "address"
        }
      ],
      "name": "setDepositERC20Address",
      "outputs": [],
      "stateMutability": "nonpayable",
      "type": "function"
    },
    {
      "inputs": [
        {
          "internalType": "address",
          "name": "syndicateAddress",
          "type": "address"
        },
        {
          "internalType": "uint256",
          "name": "minDeposit",
          "type": "uint256"
        }
      ],
      "name": "setDepositMinMember",
      "outputs": [],
      "stateMutability": "nonpayable",
      "type": "function"
    },
    {
      "inputs": [
        {
          "internalType": "address",
          "name": "syndicateAddress",
          "type": "address"
        },
        {
          "internalType": "uint256",
          "name": "maxDeposit",
          "type": "uint256"
        }
      ],
      "name": "setDepositMaxMember",
      "outputs": [],
      "stateMutability": "nonpayable",
      "type": "function"
    },
    {
      "inputs": [
        {
          "internalType": "address",
          "name": "syndicateAddress",
          "type": "address"
        },
        {
          "internalType": "uint256",
          "name": "maxDepositTotal",
          "type": "uint256"
        }
      ],
      "name": "setDepositMaxTotal",
      "outputs": [],
      "stateMutability": "nonpayable",
      "type": "function"
    },
    {
      "inputs": [
        {
          "internalType": "address",
          "name": "syndicateAddress",
          "type": "address"
        },
        {
          "internalType": "uint256",
          "name": "total",
          "type": "uint256"
        }
      ],
      "name": "setDepositTotal",
      "outputs": [],
      "stateMutability": "nonpayable",
      "type": "function"
    },
    {
      "inputs": [
        {
          "internalType": "address",
          "name": "syndicateAddress",
          "type": "address"
        },
        {
          "internalType": "uint256",
          "name": "date",
          "type": "uint256"
        }
      ],
      "name": "setDateCreation",
      "outputs": [],
      "stateMutability": "nonpayable",
      "type": "function"
    },
    {
      "inputs": [
        {
          "internalType": "address",
          "name": "syndicateAddress",
          "type": "address"
        },
        {
          "internalType": "uint256",
          "name": "date",
          "type": "uint256"
        }
      ],
      "name": "setDateClose",
      "outputs": [],
      "stateMutability": "nonpayable",
      "type": "function"
    },
    {
      "inputs": [
        {
          "internalType": "address",
          "name": "syndicateAddress",
          "type": "address"
        },
        {
          "internalType": "bool",
          "name": "isOpen",
          "type": "bool"
        }
      ],
      "name": "setOpen",
      "outputs": [],
      "stateMutability": "nonpayable",
      "type": "function"
    },
    {
      "inputs": [
        {
          "internalType": "address",
          "name": "syndicateAddress",
          "type": "address"
        },
        {
          "internalType": "bool",
          "name": "isDistributing",
          "type": "bool"
        }
      ],
      "name": "setDistributing",
      "outputs": [],
      "stateMutability": "nonpayable",
      "type": "function"
    },
    {
      "inputs": [
        {
          "internalType": "address",
          "name": "syndicateAddress",
          "type": "address"
        },
        {
          "internalType": "bool",
          "name": "isEnabled",
          "type": "bool"
        }
      ],
      "name": "setAllowlistEnabled",
      "outputs": [],
      "stateMutability": "nonpayable",
      "type": "function"
    },
    {
      "inputs": [
        {
          "internalType": "address",
          "name": "syndicateAddress",
          "type": "address"
        },
        {
          "internalType": "bool",
          "name": "isModifiable",
          "type": "bool"
        }
      ],
      "name": "setModifiable",
      "outputs": [],
      "stateMutability": "nonpayable",
      "type": "function"
    },
    {
      "inputs": [
        {
          "internalType": "address",
          "name": "syndicateAddress",
          "type": "address"
        },
        {
          "internalType": "bool",
          "name": "isTransferable",
          "type": "bool"
        }
      ],
      "name": "setTransferable",
      "outputs": [],
      "stateMutability": "nonpayable",
      "type": "function"
    },
    {
      "inputs": [
        {
          "internalType": "address",
          "name": "syndicateAddress",
          "type": "address"
        },
        {
          "internalType": "address",
          "name": "memberAddress",
          "type": "address"
        },
        {
          "internalType": "uint256",
          "name": "deposit",
          "type": "uint256"
        }
      ],
      "name": "setDepositMember",
      "outputs": [],
      "stateMutability": "nonpayable",
      "type": "function"
    },
    {
      "inputs": [
        {
          "internalType": "address",
          "name": "syndicateAddress",
          "type": "address"
        },
        {
          "internalType": "address",
          "name": "distributionERC20Address",
          "type": "address"
        },
        {
          "internalType": "bool",
          "name": "isSet",
          "type": "bool"
        }
      ],
      "name": "setDistributionERC20Addresses",
      "outputs": [],
      "stateMutability": "nonpayable",
      "type": "function"
    },
    {
      "inputs": [
        {
          "internalType": "address",
          "name": "syndicateAddress",
          "type": "address"
        },
        {
          "internalType": "address",
          "name": "distributionERC20Address",
          "type": "address"
        },
        {
          "internalType": "uint256",
          "name": "total",
          "type": "uint256"
        }
      ],
      "name": "setDistributionTotal",
      "outputs": [],
      "stateMutability": "nonpayable",
      "type": "function"
    },
    {
      "inputs": [
        {
          "internalType": "address",
          "name": "syndicateAddress",
          "type": "address"
        },
        {
          "internalType": "address",
          "name": "distributionERC20Address",
          "type": "address"
        },
        {
          "internalType": "address",
          "name": "memberAddress",
          "type": "address"
        },
        {
          "internalType": "uint256",
          "name": "amount",
          "type": "uint256"
        }
      ],
      "name": "setDistributionClaimedMember",
      "outputs": [],
      "stateMutability": "nonpayable",
      "type": "function"
    },
    {
      "inputs": [
        {
          "internalType": "address",
          "name": "syndicateAddress",
          "type": "address"
        },
        {
          "internalType": "address",
          "name": "distributionERC20Address",
          "type": "address"
        },
        {
          "internalType": "uint256",
          "name": "total",
          "type": "uint256"
        }
      ],
      "name": "setDistributionClaimedTotal",
      "outputs": [],
      "stateMutability": "nonpayable",
      "type": "function"
    },
    {
      "inputs": [
        {
          "internalType": "address",
          "name": "syndicateAddress",
          "type": "address"
        },
        {
          "internalType": "address",
          "name": "memberAddress",
          "type": "address"
        },
        {
          "internalType": "bool",
          "name": "allowed",
          "type": "bool"
        }
      ],
      "name": "setAddressAllowed",
      "outputs": [],
      "stateMutability": "nonpayable",
      "type": "function"
    },
    {
      "inputs": [
        {
          "internalType": "address",
          "name": "syndicateAddress",
          "type": "address"
        },
        {
          "internalType": "string",
          "name": "metadataKey",
          "type": "string"
        },
        {
          "internalType": "string",
          "name": "metadataValue",
          "type": "string"
        }
      ],
      "name": "setMetadata",
      "outputs": [],
      "stateMutability": "nonpayable",
      "type": "function"
    }
  ],
  "bytecode": "0x6080604052600180546001600160a81b0319167340db79f7f18c468c6552538b488c58b5e72bf4d917905534801561003657600080fd5b50600080546001600160a01b031916339081178255604051909182917f8be0079c531659141344cd1fd0a4f28419497f9722a3daafe3b4186f6b6457e0908290a3506000805460ff60a01b19169055612124806100946000396000f3fe608060405234801561001057600080fd5b50600436106104125760003560e01c80638da5cb5b11610220578063c772ef6c11610130578063e0d612f5116100b8578063e8aef6f011610087578063e8aef6f014610aac578063eb3b0cba14610ad5578063efab5b9614610ae8578063f2fde38b14610b08578063f3ae241514610b1b57600080fd5b8063e0d612f514610a46578063e32bf38d14610a59578063e396ae9b14610a79578063e58eb85c14610a9957600080fd5b8063d63f8663116100ff578063d63f8663146109b4578063da375d17146109d4578063dac128ad146109e7578063dc35bbb0146109ef578063dfbd56f514610a1857600080fd5b8063c772ef6c14610955578063cbf8bf1614610978578063cfa498a31461098b578063cfa5ee961461099457600080fd5b8063acb1e61f116101b3578063b3e15a2311610182578063b3e15a23146108e6578063b50a24a9146108f9578063b95460f81461090c578063ba3cc0791461092f578063bfd9a7e11461094257600080fd5b8063acb1e61f1461086a578063ad74c2991461088d578063adc1017f146108b0578063b1e315bf146108d357600080fd5b8063a09cca93116101ef578063a09cca93146107f3578063a2e1b42e14610806578063a948191b14610819578063aaee68af1461084a57600080fd5b80638da5cb5b146107a95780639643d32c146107ba57806397b80350146107cd5780639f864296146107e057600080fd5b80633e4fae241161032657806362d8decf116102ae5780636b0d3a121161027d5780636b0d3a121461075e578063715018a61461077e578063790b86ad1461078657806379f90d6c1461079957806381abf408146107a157600080fd5b806362d8decf146106ea578063653414e1146106fd5780636587783b1461072b5780636a01efab1461073e57600080fd5b806347bfebde116102f557806347bfebde146106705780635251ba97146106835780635690fe5c146106965780635c975abb146106a957806362249310146106c757600080fd5b80633e4fae24146105e957806342c7102b1461061257806345a13b3814610632578063469102a81461064557600080fd5b806321ca02dc116103a95780632d08d482116103785780632d08d482146105425780632d1dc92a146105555780632f2efee01461057557806336230fee1461058857806338f2423e146105a857600080fd5b806321ca02dc146104e95780632209128414610509578063246643181461051c57806326767f901461052f57600080fd5b806314551a76116103e557806314551a761461045a578063180432e01461046d578063181a99d0146104ab5780631e0dbc9f146104d657600080fd5b806303d457c414610417578063078de6f01461042c5780630ae8c8e21461043f57806312285d4014610452575b600080fd5b61042a610425366004611faf565b610b3e565b005b61042a61043a366004611dcc565b610b95565b61042a61044d366004611e42565b610c01565b61042a610c5e565b61042a610468366004611e06565b610c92565b61049861047b366004611d0b565b601a60209081526000928352604080842090915290825290205481565b6040519081526020015b60405180910390f35b6104986104b9366004611d0b565b601860209081526000928352604080842090915290825290205481565b61042a6104e4366004611e06565b610cf0565b6104fc6104f7366004611eed565b610d4e565b6040516104a29190611fe9565b61042a610517366004611faf565b610e04565b61042a61052a366004611faf565b610e52565b61042a61053d366004611e42565b610ea0565b61042a610550366004611d0b565b610efd565b610498610563366004611ce9565b60086020526000908152604090205481565b61042a610583366004611faf565b610f5d565b610498610596366004611ce9565b600a6020526000908152604090205481565b6105d16105b6366004611ce9565b600c602052600090815260409020546001600160a01b031681565b6040516001600160a01b0390911681526020016104a2565b6105d16105f7366004611ce9565b6005602052600090815260409020546001600160a01b031681565b610498610620366004611ce9565b600e6020526000908152604090205481565b61042a610640366004611ce9565b610fab565b610498610653366004611d0b565b601c60209081526000928352604080842090915290825290205481565b61042a61067e366004611d0b565b611035565b61042a610691366004611faf565b611095565b61042a6106a4366004611d0b565b6110e3565b600054600160a01b900460ff165b60405190151581526020016104a2565b6106b76106d5366004611ce9565b60146020526000908152604090205460ff1681565b61042a6106f8366004611e42565b611143565b6106b761070b366004611d0b565b601960209081526000928352604080842090915290825290205460ff1681565b61042a610739366004611faf565b6111a0565b61049861074c366004611ce9565b60096020526000908152604090205481565b61049861076c366004611ce9565b60106020526000908152604090205481565b61042a6111ee565b61042a610794366004611ce9565b611262565b61042a6112e2565b61042a611360565b6000546001600160a01b03166105d1565b61042a6107c8366004611faf565b6113ac565b61042a6107db366004611faf565b6113fa565b61042a6107ee366004611faf565b611448565b61042a610801366004611ce9565b611496565b61042a610814366004611dcc565b6114cc565b610498610827366004611d3e565b601b60209081526000938452604080852082529284528284209052825290205481565b610498610858366004611ce9565b600d6020526000908152604090205481565b6106b7610878366004611ce9565b60176020526000908152604090205460ff1681565b6106b761089b366004611ce9565b60026020526000908152604090205460ff1681565b6106b76108be366004611ce9565b60166020526000908152604090205460ff1681565b61042a6108e1366004611e42565b611538565b61042a6108f4366004611faf565b611595565b61042a610907366004611e42565b6115e3565b6106b761091a366004611ce9565b60136020526000908152604090205460ff1681565b61042a61093d366004611faf565b611640565b61042a610950366004611ce9565b61168e565b6106b7610963366004611ce9565b60156020526000908152604090205460ff1681565b61042a610986366004611e42565b61170c565b61049861271081565b6104986109a2366004611ce9565b60116020526000908152604090205481565b6104986109c2366004611ce9565b600f6020526000908152604090205481565b61042a6109e2366004611d81565b611769565b61042a6117d0565b6105d16109fd366004611ce9565b6006602052600090815260409020546001600160a01b031681565b6106b7610a26366004611d0b565b601d60209081526000928352604080842090915290825290205460ff1681565b61042a610a54366004611d0b565b61185d565b610498610a67366004611ce9565b60126020526000908152604090205481565b610498610a87366004611ce9565b600b6020526000908152604090205481565b61042a610aa7366004611e06565b6118bd565b6105d1610aba366004611ce9565b6004602052600090815260409020546001600160a01b031681565b61042a610ae3366004611e6c565b61191b565b610498610af6366004611ce9565b60076020526000908152604090205481565b61042a610b16366004611ce9565b61199c565b6106b7610b29366004611ce9565b60036020526000908152604090205460ff1681565b610b46611a86565b600054600160a01b900460ff1615610b795760405162461bcd60e51b8152600401610b709061203e565b60405180910390fd5b6001600160a01b039091166000908152600b6020526040902055565b610b9d611a86565b600054600160a01b900460ff1615610bc75760405162461bcd60e51b8152600401610b709061203e565b6001600160a01b039283166000908152601d6020908152604080832094909516825292909252919020805460ff1916911515919091179055565b610c09611a86565b600054600160a01b900460ff1615610c335760405162461bcd60e51b8152600401610b709061203e565b6001600160a01b03919091166000908152601760205260409020805460ff1916911515919091179055565b6000546001600160a01b03163314610c885760405162461bcd60e51b8152600401610b7090612068565b610c90611ade565b565b610c9a611a86565b600054600160a01b900460ff1615610cc45760405162461bcd60e51b8152600401610b709061203e565b6001600160a01b039283166000908152601a602090815260408083209490951682529290925291902055565b610cf8611a86565b600054600160a01b900460ff1615610d225760405162461bcd60e51b8152600401610b709061203e565b6001600160a01b0392831660009081526018602090815260408083209490951682529290925291902055565b601e602090815260009283526040909220815180830184018051928152908401929093019190912091528054610d839061209d565b80601f0160208091040260200160405190810160405280929190818152602001828054610daf9061209d565b8015610dfc5780601f10610dd157610100808354040283529160200191610dfc565b820191906000526020600020905b815481529060010190602001808311610ddf57829003601f168201915b505050505081565b610e0c611a86565b600054600160a01b900460ff1615610e365760405162461bcd60e51b8152600401610b709061203e565b6001600160a01b03909116600090815260106020526040902055565b610e5a611a86565b600054600160a01b900460ff1615610e845760405162461bcd60e51b8152600401610b709061203e565b6001600160a01b03909116600090815260076020526040902055565b610ea8611a86565b600054600160a01b900460ff1615610ed25760405162461bcd60e51b8152600401610b709061203e565b6001600160a01b03919091166000908152600360205260409020805460ff1916911515919091179055565b610f05611a86565b600054600160a01b900460ff1615610f2f5760405162461bcd60e51b8152600401610b709061203e565b6001600160a01b039182166000908152600c6020526040902080546001600160a01b03191691909216179055565b610f65611a86565b600054600160a01b900460ff1615610f8f5760405162461bcd60e51b8152600401610b709061203e565b6001600160a01b039091166000908152600a6020526040902055565b6000546001600160a01b03163314610fd55760405162461bcd60e51b8152600401610b7090612068565b6001600160a01b038116600081815260026020908152604091829020805460ff19166001179055815192835242908301527fdfb59c50c3a3fcc92cc12382a607a6e7fdfaa9d17495fc8c1cb040ae8b3b152c91015b60405180910390a150565b61103d611a86565b600054600160a01b900460ff16156110675760405162461bcd60e51b8152600401610b709061203e565b6001600160a01b03918216600090815260066020526040902080546001600160a01b03191691909216179055565b61109d611a86565b600054600160a01b900460ff16156110c75760405162461bcd60e51b8152600401610b709061203e565b6001600160a01b039091166000908152600e6020526040902055565b6110eb611a86565b600054600160a01b900460ff16156111155760405162461bcd60e51b8152600401610b709061203e565b6001600160a01b03918216600090815260056020526040902080546001600160a01b03191691909216179055565b61114b611a86565b600054600160a01b900460ff16156111755760405162461bcd60e51b8152600401610b709061203e565b6001600160a01b03919091166000908152601360205260409020805460ff1916911515919091179055565b6111a8611a86565b600054600160a01b900460ff16156111d25760405162461bcd60e51b8152600401610b709061203e565b6001600160a01b03909116600090815260116020526040902055565b6000546001600160a01b031633146112185760405162461bcd60e51b8152600401610b7090612068565b600080546040516001600160a01b03909116907f8be0079c531659141344cd1fd0a4f28419497f9722a3daafe3b4186f6b6457e0908390a3600080546001600160a01b0319169055565b6000546001600160a01b0316331461128c5760405162461bcd60e51b8152600401610b7090612068565b6001600160a01b038116600081815260026020908152604091829020805460ff19169055815192835242908301527f9ab17a7088d80485a41ccff8ce267016fc93eb9081032e3a720783d29ec6e9fd910161102a565b6000546001600160a01b0316331461130c5760405162461bcd60e51b8152600401610b7090612068565b600154600160a01b900460ff16156113585760405162461bcd60e51b815260206004820152600f60248201526e14105554d157d4915393d55390d151608a1b6044820152606401610b70565b610c90611b76565b6000546001600160a01b0316331461138a5760405162461bcd60e51b8152600401610b7090612068565b600054600160a01b900460ff16156113a4576113a4610c5e565b610c906111ee565b6113b4611a86565b600054600160a01b900460ff16156113de5760405162461bcd60e51b8152600401610b709061203e565b6001600160a01b03909116600090815260096020526040902055565b611402611a86565b600054600160a01b900460ff161561142c5760405162461bcd60e51b8152600401610b709061203e565b6001600160a01b039091166000908152600d6020526040902055565b611450611a86565b600054600160a01b900460ff161561147a5760405162461bcd60e51b8152600401610b709061203e565b6001600160a01b03909116600090815260086020526040902055565b6000546001600160a01b031633146114c05760405162461bcd60e51b8152600401610b7090612068565b6114c98161199c565b50565b6114d4611a86565b600054600160a01b900460ff16156114fe5760405162461bcd60e51b8152600401610b709061203e565b6001600160a01b03928316600090815260196020908152604080832094909516825292909252919020805460ff1916911515919091179055565b611540611a86565b600054600160a01b900460ff161561156a5760405162461bcd60e51b8152600401610b709061203e565b6001600160a01b03919091166000908152601560205260409020805460ff1916911515919091179055565b61159d611a86565b600054600160a01b900460ff16156115c75760405162461bcd60e51b8152600401610b709061203e565b6001600160a01b03909116600090815260126020526040902055565b6115eb611a86565b600054600160a01b900460ff16156116155760405162461bcd60e51b8152600401610b709061203e565b6001600160a01b03919091166000908152601660205260409020805460ff1916911515919091179055565b611648611a86565b600054600160a01b900460ff16156116725760405162461bcd60e51b8152600401610b709061203e565b6001600160a01b039091166000908152600f6020526040902055565b6000546001600160a01b031633146116b85760405162461bcd60e51b8152600401610b7090612068565b600180546001600160a01b0319166001600160a01b0383169081179091556040514281527f1a49e1bcd954390033d0a77f7090e458f8d292a5dca5ff1424c84446d37690f99060200160405180910390a250565b611714611a86565b600054600160a01b900460ff161561173e5760405162461bcd60e51b8152600401610b709061203e565b6001600160a01b03919091166000908152601460205260409020805460ff1916911515919091179055565b611771611a86565b600054600160a01b900460ff161561179b5760405162461bcd60e51b8152600401610b709061203e565b6001600160a01b039384166000908152601b602090815260408083209587168352948152848220939095168152919093522055565b6000546001600160a01b031633146117fa5760405162461bcd60e51b8152600401610b7090612068565b600054600160a01b900460ff161561181457611814610c5e565b6001805460ff60a01b1916600160a01b1790556040513381527f8d464c3056e69b8da97814dbfddc04a614af8e35b3f030ba6ac9fbc881f2a35b906020015b60405180910390a1565b611865611a86565b600054600160a01b900460ff161561188f5760405162461bcd60e51b8152600401610b709061203e565b6001600160a01b03918216600090815260046020526040902080546001600160a01b03191691909216179055565b6118c5611a86565b600054600160a01b900460ff16156118ef5760405162461bcd60e51b8152600401610b709061203e565b6001600160a01b039283166000908152601c602090815260408083209490951682529290925291902055565b611923611a86565b600054600160a01b900460ff161561194d5760405162461bcd60e51b8152600401610b709061203e565b6001600160a01b0385166000908152601e60205260409081902090518391839161197a9088908890611fd9565b908152604051908190036020019020611994929091611bdb565b505050505050565b6000546001600160a01b031633146119c65760405162461bcd60e51b8152600401610b7090612068565b6001600160a01b038116611a2b5760405162461bcd60e51b815260206004820152602660248201527f4f776e61626c653a206e6577206f776e657220697320746865207a65726f206160448201526564647265737360d01b6064820152608401610b70565b600080546040516001600160a01b03808516939216917f8be0079c531659141344cd1fd0a4f28419497f9722a3daafe3b4186f6b6457e091a3600080546001600160a01b0319166001600160a01b0392909216919091179055565b3360009081526002602052604090205460ff16610c905760405162461bcd60e51b81526020600482015260166024820152751253959053125117d313d1d250d7d0d3d395149050d560521b6044820152606401610b70565b600054600160a01b900460ff16611b2e5760405162461bcd60e51b815260206004820152601460248201527314185d5cd8589b194e881b9bdd081c185d5cd95960621b6044820152606401610b70565b6000805460ff60a01b191690557f5db9ee0a495bf2e6ff9c91a7834c1ba4fdd244a5e8aa4e537bd38aeae4b073aa335b6040516001600160a01b039091168152602001611853565b600054600160a01b900460ff1615611ba05760405162461bcd60e51b8152600401610b709061203e565b6000805460ff60a01b1916600160a01b1790557f62e78cea01bee320cd4e420270b5ea74000d11b0c9f74754ebdbfc544b05a258611b5e3390565b828054611be79061209d565b90600052602060002090601f016020900481019282611c095760008555611c4f565b82601f10611c225782800160ff19823516178555611c4f565b82800160010185558215611c4f579182015b82811115611c4f578235825591602001919060010190611c34565b50611c5b929150611c5f565b5090565b5b80821115611c5b5760008155600101611c60565b80356001600160a01b0381168114611c8b57600080fd5b919050565b80358015158114611c8b57600080fd5b60008083601f840112611cb257600080fd5b50813567ffffffffffffffff811115611cca57600080fd5b602083019150836020828501011115611ce257600080fd5b9250929050565b600060208284031215611cfb57600080fd5b611d0482611c74565b9392505050565b60008060408385031215611d1e57600080fd5b611d2783611c74565b9150611d3560208401611c74565b90509250929050565b600080600060608486031215611d5357600080fd5b611d5c84611c74565b9250611d6a60208501611c74565b9150611d7860408501611c74565b90509250925092565b60008060008060808587031215611d9757600080fd5b611da085611c74565b9350611dae60208601611c74565b9250611dbc60408601611c74565b9396929550929360600135925050565b600080600060608486031215611de157600080fd5b611dea84611c74565b9250611df860208501611c74565b9150611d7860408501611c90565b600080600060608486031215611e1b57600080fd5b611e2484611c74565b9250611e3260208501611c74565b9150604084013590509250925092565b60008060408385031215611e5557600080fd5b611e5e83611c74565b9150611d3560208401611c90565b600080600080600060608688031215611e8457600080fd5b611e8d86611c74565b9450602086013567ffffffffffffffff80821115611eaa57600080fd5b611eb689838a01611ca0565b90965094506040880135915080821115611ecf57600080fd5b50611edc88828901611ca0565b969995985093965092949392505050565b60008060408385031215611f0057600080fd5b611f0983611c74565b9150602083013567ffffffffffffffff80821115611f2657600080fd5b818501915085601f830112611f3a57600080fd5b813581811115611f4c57611f4c6120d8565b604051601f8201601f19908116603f01168101908382118183101715611f7457611f746120d8565b81604052828152886020848701011115611f8d57600080fd5b8260208601602083013760006020848301015280955050505050509250929050565b60008060408385031215611fc257600080fd5b611fcb83611c74565b946020939093013593505050565b8183823760009101908152919050565b600060208083528351808285015260005b8181101561201657858101830151858201604001528201611ffa565b81811115612028576000604083870101525b50601f01601f1916929092016040019392505050565b60208082526010908201526f14185d5cd8589b194e881c185d5cd95960821b604082015260600190565b6020808252818101527f4f776e61626c653a2063616c6c6572206973206e6f7420746865206f776e6572604082015260600190565b600181811c908216806120b157607f821691505b602082108114156120d257634e487b7160e01b600052602260045260246000fd5b50919050565b634e487b7160e01b600052604160045260246000fdfea2646970667358221220184ad9411d7186c9364c971a3665009c6eff9d3a67e3e692a4a0f42e374bd4e864736f6c63430008050033",
  "immutableReferences": {},
  "source": "// SPDX-License-Identifier: UNLICENSED\n\npragma solidity ^0.8.0;\n\nimport \"./SyndicateOwnerLogic.sol\";\n\n/// @author Syndicate Inc.\n/// @notice Core module for syndicate data\ncontract SyndicateClosedEndFundStoreV0 is SyndicateOwnerLogic {\n    /// @notice Used to initialize the SyndicateClosedEndFundStoreV0 contract.\n    constructor() SyndicateOwnerLogic() {}\n\n    /// Tracks the logic contracts that have write-access to this data contract.\n    /// These addresses should be able to access the setter functions.\n    mapping(address => bool) public logicContractAllowed;\n\n    /// @notice emit an event when a new logic contract is added by the owner.\n    event logicContractAdded(address logicContractAddress, uint256 timestamp);\n\n    /// @notice emit an event when a new logic contract is removed by the owner.\n    event logicContractRemoved(address logicContractAddress, uint256 timestamp);\n\n    /// Modifiers---------------------------------------------------------------\n\n    /// @notice Only proceed if msg.sender is a logic contract that is allowed\n    /// to call this data contract.\n    modifier onlyLogicContractAllowed() {\n        _isLogicContractAllowed();\n        _;\n    }\n\n    function _isLogicContractAllowed() internal view {\n        require(logicContractAllowed[msg.sender], \"INVALID_LOGIC_CONTRACT\");\n    }\n\n    /// Owner functions---------------------------------------------------------\n\n    /// @notice Used by contract owner to grant write access to a logic\n    /// contract.\n    function addLogicContractAllowed(address logicContractAddress)\n        public\n        onlyOwner\n    {\n        logicContractAllowed[logicContractAddress] = true;\n\n        emit logicContractAdded(logicContractAddress, block.timestamp);\n    }\n\n    /// @notice Used by contract owner to remove write access to a logic\n    /// contract.\n    function removeLogicContractAllowed(address logicContractAddress)\n        public\n        onlyOwner\n    {\n        logicContractAllowed[logicContractAddress] = false;\n\n        emit logicContractRemoved(logicContractAddress, block.timestamp);\n    }\n\n    // Contract data------------------------------------------------------------\n\n    // Maps address => true if the wallet at that address is currently managing\n    // a Syndicate. Manager wallets are required to be unique to prevent\n    // commingling of assets between Syndicates and to ensure that transparency\n    // is provided to the members.\n    mapping(address => bool) public isManager;\n\n    // The managerCurrent is the address to which deposited funds are sent.\n    mapping(address => address) public managerCurrent;\n    // Used to transfer ownership of a Syndicate. A new current manager\n    // needs to claim the Syndicate after being nominated pending manager.\n    mapping(address => address) public managerPending;\n    // The manager fee address must be different from the manager's address\n    // in order to avoid commingling the Syndicate's assets with its\n    // manager's profits.\n    mapping(address => address) public managerFeeAddress;\n    // Management fees are currently assessed manually by calling\n    // `managerAssessManagementFee()`. In the future, this will\n    // automatically be assessed yearly when we have asset management built\n    // into the smart contract.\n    // A standard structure would be a 2% management fee (200 basis points)\n    // and a 20% performance fee (2000 basis points). For more info, see:\n    // https://www.investopedia.com/terms/t/two_and_twenty.asp\n    mapping(address => uint256) public managerManagementFeeBasisPoints;\n    // The performance fee is deducted from the distributions withdrawn\n    // from a fund after close, and sent to the managerFeeAddress.\n    mapping(address => uint256) public managerPerformanceFeeBasisPoints;\n    // The profit share to Syndicate Protocol is deducted from the\n    // distributions withdrawn from a fund after close (like the\n    // performance fee). The minimum profit share is 0.50%, or 50 basis\n    // points.\n    mapping(address => uint256) public syndicateProfitShareBasisPoints;\n    // The maximum number of members that can make deposits\n    mapping(address => uint256) public numMembersMax;\n    // Tracks the number of members with nonzero deposits. For accurate\n    // calculation of each member's profit share, this value should NEVER\n    // be modified after the Syndicate is closed.\n    mapping(address => uint256) public numMembersCurrent;\n    // Address of the ERC20 contract used for tracking deposits. A\n    // stablecoin is recommended since this is used to calculate ownership,\n    // and fluctations in value can affect these ownership calculations.\n    mapping(address => address) public depositERC20Address;\n    // The minimum amount that a single address can deposit. This is useful\n    // when you want to restrict the lowest amount that each wallet can\n    // deposit.\n    mapping(address => uint256) public depositMinMember;\n    // The maximum amount that a single address can deposit. This is useful\n    // when you want to restrict the amount that each wallet can deposit\n    // into the fund to ensure that ownership is distributed among many\n    // people. In the future, we can consider having a mapping that allows\n    // you to set per-user deposit thresholds but this is better saved for\n    // the asset management contract.\n    mapping(address => uint256) public depositMaxMember;\n    // The maximum amount that a fund can raise, e.g. an investment target.\n    mapping(address => uint256) public depositMaxTotal;\n    // Tracks total deposits of all members. For accurate calculation of\n    // each member's ownership stake, this value should NEVER be modified\n    // after the Syndicate is closed.\n    mapping(address => uint256) public depositTotal;\n    // Track the creation date in UNIX time. This is also available in the\n    // events but the events are tougher to access on chain. This creation\n    // date should be relied upon as the source of truth, not the timestamp\n    // for the `managerCreatedSyndicate` event.\n    mapping(address => uint256) public dateCreation;\n    // Reflects either the date at which a Syndicate is scheduled to close,\n    // or, if the syndicate was closed early (e.g. manually by a manager, or\n    // automatically because the investment goal was reached), the actual\n    // date of close. This date can be used for calculating management fees.\n    mapping(address => uint256) public dateClose;\n    // True if the Syndicate's deposits have not been finalized by the\n    // manager.\n    mapping(address => bool) public open;\n    // True if the Syndicate has enabled withdrawals of distributions.\n    mapping(address => bool) public distributing;\n    // True if the Syndicate ONLY accepts deposits from allowed\n    // addresses. False if any (accredited) member can deposit.\n    mapping(address => bool) public allowlistEnabled;\n    // True if the manager can adjust deposit and distribution amounts\n    // after initalization. Can only be set on Syndicate creation and\n    // cannot be changed after that point.\n    mapping(address => bool) public modifiable;\n    // True if a member can transfer a portion of their deposit to another\n    // address. All transfers must occur before distributions are set such\n    // that we only update values in deposit mapping structs. A manager's\n    // ability to initiate a transfer is determined by `modifiable` and is\n    // independent to `transferable`. Member-initiated transfers may have\n    // regulatory concerns (e.g. by allowing a transfer to a non-accredited\n    // investor), while manager-initiated transfers are safe for internal\n    // bookkeeping purposes.\n    mapping(address => bool) public transferable;\n\n    // Maps memberAddress => depositAmount, tracking the amount that a\n    // member has contributed to a Syndicate. For accurate calculation of\n    // the member's profit share, this value should NEVER be modified after\n    // the Syndicate is closed.\n    mapping(address => mapping(address => uint256)) public depositMember;\n    // Maps distributionERC20Address => true if the manager has set a\n    // distribution for the specified token, false otherwise\n    mapping(address => mapping(address => bool))\n        public distributionERC20Addresses;\n    // Maps distributionERC20Address => the amount of tokens the manager\n    // has set for distribution\n    mapping(address => mapping(address => uint256)) public distributionTotal;\n    // Maps distributionERC20Address => mapping(memberAddress =>\n    // the distribution in that token claimed by that member)\n    mapping(address => mapping(address => mapping(address => uint256)))\n        public distributionClaimedMember;\n    // Maps distributionERC20Address => the total distributions in that\n    // token claimed by ALL members\n    mapping(address => mapping(address => uint256))\n        public distributionClaimedTotal;\n    // Maps memberAddress => true if members are allowed to deposit to a\n    // Syndicate, false otherwise. Initialized to false at all addresses.\n    // ONLY applied when SyndicateValues.allowlistEnabled is true. Due to\n    // the trivial ease of creating new addresses, it is ineffective to\n    // maintain a list of blocked addresses (blocklist), so we implement an\n    // allowlist instead.\n    mapping(address => mapping(address => bool)) public addressAllowed;\n    // Generic mapping for storing arbitrary data. Maps key => value\n    mapping(address => mapping(string => string)) public metadata;\n\n    /// Setters-----------------------------------------------------------------\n\n    function setIsManager(address manager, bool _isManager)\n        public\n        onlyLogicContractAllowed\n        whenNotPaused\n    {\n        isManager[manager] = _isManager;\n    }\n\n    function setManagerCurrent(address syndicateAddress, address currentManager)\n        public\n        onlyLogicContractAllowed\n        whenNotPaused\n    {\n        managerCurrent[syndicateAddress] = currentManager;\n    }\n\n    function setManagerPending(address syndicateAddress, address pendingManager)\n        public\n        onlyLogicContractAllowed\n        whenNotPaused\n    {\n        managerPending[syndicateAddress] = pendingManager;\n    }\n\n    function setManagerFeeAddress(address syndicateAddress, address feeAddress)\n        public\n        onlyLogicContractAllowed\n        whenNotPaused\n    {\n        managerFeeAddress[syndicateAddress] = feeAddress;\n    }\n\n    function setManagerManagementFeeBasisPoints(\n        address syndicateAddress,\n        uint256 feeBasisPoints\n    ) public onlyLogicContractAllowed whenNotPaused {\n        managerManagementFeeBasisPoints[syndicateAddress] = feeBasisPoints;\n    }\n\n    function setManagerPerformanceFeeBasisPoints(\n        address syndicateAddress,\n        uint256 feeBasisPoints\n    ) public onlyLogicContractAllowed whenNotPaused {\n        managerPerformanceFeeBasisPoints[syndicateAddress] = feeBasisPoints;\n    }\n\n    function setSyndicateProfitShareBasisPoints(\n        address syndicateAddress,\n        uint256 profitShareBasisPoints\n    ) public onlyLogicContractAllowed whenNotPaused {\n        syndicateProfitShareBasisPoints[\n            syndicateAddress\n        ] = profitShareBasisPoints;\n    }\n\n    function setNumMembersMax(address syndicateAddress, uint256 maxMembers)\n        public\n        onlyLogicContractAllowed\n        whenNotPaused\n    {\n        numMembersMax[syndicateAddress] = maxMembers;\n    }\n\n    function setNumMembersCurrent(\n        address syndicateAddress,\n        uint256 currentMembers\n    ) public onlyLogicContractAllowed whenNotPaused {\n        numMembersCurrent[syndicateAddress] = currentMembers;\n    }\n\n    function setDepositERC20Address(\n        address syndicateAddress,\n        address depositAddress\n    ) public onlyLogicContractAllowed whenNotPaused {\n        depositERC20Address[syndicateAddress] = depositAddress;\n    }\n\n    function setDepositMinMember(address syndicateAddress, uint256 minDeposit)\n        public\n        onlyLogicContractAllowed\n        whenNotPaused\n    {\n        depositMinMember[syndicateAddress] = minDeposit;\n    }\n\n    function setDepositMaxMember(address syndicateAddress, uint256 maxDeposit)\n        public\n        onlyLogicContractAllowed\n        whenNotPaused\n    {\n        depositMaxMember[syndicateAddress] = maxDeposit;\n    }\n\n    function setDepositMaxTotal(\n        address syndicateAddress,\n        uint256 maxDepositTotal\n    ) public onlyLogicContractAllowed whenNotPaused {\n        depositMaxTotal[syndicateAddress] = maxDepositTotal;\n    }\n\n    function setDepositTotal(address syndicateAddress, uint256 total)\n        public\n        onlyLogicContractAllowed\n        whenNotPaused\n    {\n        depositTotal[syndicateAddress] = total;\n    }\n\n    function setDateCreation(address syndicateAddress, uint256 date)\n        public\n        onlyLogicContractAllowed\n        whenNotPaused\n    {\n        dateCreation[syndicateAddress] = date;\n    }\n\n    function setDateClose(address syndicateAddress, uint256 date)\n        public\n        onlyLogicContractAllowed\n        whenNotPaused\n    {\n        dateClose[syndicateAddress] = date;\n    }\n\n    function setOpen(address syndicateAddress, bool isOpen)\n        public\n        onlyLogicContractAllowed\n        whenNotPaused\n    {\n        open[syndicateAddress] = isOpen;\n    }\n\n    function setDistributing(address syndicateAddress, bool isDistributing)\n        public\n        onlyLogicContractAllowed\n        whenNotPaused\n    {\n        distributing[syndicateAddress] = isDistributing;\n    }\n\n    function setAllowlistEnabled(address syndicateAddress, bool isEnabled)\n        public\n        onlyLogicContractAllowed\n        whenNotPaused\n    {\n        allowlistEnabled[syndicateAddress] = isEnabled;\n    }\n\n    function setModifiable(address syndicateAddress, bool isModifiable)\n        public\n        onlyLogicContractAllowed\n        whenNotPaused\n    {\n        modifiable[syndicateAddress] = isModifiable;\n    }\n\n    function setTransferable(address syndicateAddress, bool isTransferable)\n        public\n        onlyLogicContractAllowed\n        whenNotPaused\n    {\n        transferable[syndicateAddress] = isTransferable;\n    }\n\n    function setDepositMember(\n        address syndicateAddress,\n        address memberAddress,\n        uint256 deposit\n    ) public onlyLogicContractAllowed whenNotPaused {\n        depositMember[syndicateAddress][memberAddress] = deposit;\n    }\n\n    function setDistributionERC20Addresses(\n        address syndicateAddress,\n        address distributionERC20Address,\n        bool isSet\n    ) public onlyLogicContractAllowed whenNotPaused {\n        distributionERC20Addresses[syndicateAddress][\n            distributionERC20Address\n        ] = isSet;\n    }\n\n    function setDistributionTotal(\n        address syndicateAddress,\n        address distributionERC20Address,\n        uint256 total\n    ) public onlyLogicContractAllowed whenNotPaused {\n        distributionTotal[syndicateAddress][distributionERC20Address] = total;\n    }\n\n    function setDistributionClaimedMember(\n        address syndicateAddress,\n        address distributionERC20Address,\n        address memberAddress,\n        uint256 amount\n    ) public onlyLogicContractAllowed whenNotPaused {\n        distributionClaimedMember[syndicateAddress][distributionERC20Address][\n            memberAddress\n        ] = amount;\n    }\n\n    function setDistributionClaimedTotal(\n        address syndicateAddress,\n        address distributionERC20Address,\n        uint256 total\n    ) public onlyLogicContractAllowed whenNotPaused {\n        distributionClaimedTotal[syndicateAddress][\n            distributionERC20Address\n        ] = total;\n    }\n\n    function setAddressAllowed(\n        address syndicateAddress,\n        address memberAddress,\n        bool allowed\n    ) public onlyLogicContractAllowed whenNotPaused {\n        addressAllowed[syndicateAddress][memberAddress] = allowed;\n    }\n\n    function setMetadata(\n        address syndicateAddress,\n        string calldata metadataKey,\n        string calldata metadataValue\n    ) public onlyLogicContractAllowed whenNotPaused {\n        metadata[syndicateAddress][metadataKey] = metadataValue;\n    }\n}\n",
  "sourcePath": "/home/will/Syndicate/contracts/SyndicateClosedEndFundStoreV0.sol",
  "compiler": {
    "name": "solc",
    "version": "0.8.5+commit.a4f2e591.Emscripten.clang"
  },
  "schemaVersion": "3.4.0",
  "updatedAt": "2021-06-21T04:55:02.401Z",
  "devdoc": {
    "author": "Syndicate Inc.",
    "kind": "dev",
    "methods": {
      "owner()": {
        "details": "Returns the address of the current owner."
      },
      "ownerSetSyndicateFeeAddress(address)": {
        "params": {
          "feeAddress": "The owner's new contract fee address"
        }
      },
      "ownerTransferOwnership(address)": {
        "params": {
          "newOwner": "The new owner's address."
        }
      },
      "paused()": {
        "details": "Returns true if the contract is paused, and false otherwise."
      },
      "renounceOwnership()": {
        "details": "Leaves the contract without owner. It will not be possible to call `onlyOwner` functions anymore. Can only be called by the current owner. NOTE: Renouncing ownership will leave the contract without an owner, thereby removing any functionality that is only available to the owner."
      },
      "transferOwnership(address)": {
        "details": "Transfers ownership of the contract to a new account (`newOwner`). Can only be called by the current owner."
      }
    },
    "version": 1
  },
  "userdoc": {
    "events": {
      "logicContractAdded(address,uint256)": {
        "notice": "emit an event when a new logic contract is added by the owner."
      },
      "logicContractRemoved(address,uint256)": {
        "notice": "emit an event when a new logic contract is removed by the owner."
      },
      "ownerRenouncedPause(address)": {
        "notice": "Emit an event when the owner renounces ability to pause the contract"
      },
      "ownerSetterSyndicateFeeAddress(address,uint256)": {
        "notice": "Emit an event when the owner of the contract sets a new contract fee address"
      }
    },
    "kind": "user",
    "methods": {
      "addLogicContractAllowed(address)": {
        "notice": "Used by contract owner to grant write access to a logic contract."
      },
      "constructor": {
        "notice": "Used to initialize the SyndicateClosedEndFundStoreV0 contract."
      },
      "logicContractAllowed(address)": {
        "notice": "Tracks the logic contracts that have write-access to this data contract. These addresses should be able to access the setter functions."
      },
      "ownerPauseContract()": {
        "notice": "Emergency pause function that can only be triggered by the contract ownerIts purpose is to pause functions with the whenNotPaused() modifier.  All other functions will work when paused"
      },
      "ownerRenounceOwnership()": {
        "notice": "Renounce ownership of the contractIf necessary, unpauses the contract before ownership is renounced to ensure that functions with the whenNotPaused() modifier are not locked"
      },
      "ownerRenouncePause()": {
        "notice": "Used by the owner to renounce ability to pause the contractIf necessary, unpauses the contract before ownership is renounced to ensure that functions with the whenNotPaused() modifier are not locked"
      },
      "ownerSetSyndicateFeeAddress(address)": {
        "notice": "set a new fee address for the contract function that can only be triggered by the contract owner."
      },
      "ownerTransferOwnership(address)": {
        "notice": "Transfers ownership to the provided address."
      },
      "ownerUnpauseContract()": {
        "notice": "Emergency unpause function that can only be triggered by the contract ownerIts purpose is to unpause functions with the whenNotPaused() modifier.  All other functions will work when paused"
      },
      "removeLogicContractAllowed(address)": {
        "notice": "Used by contract owner to remove write access to a logic contract."
      },
      "setIsManager(address,bool)": {
        "notice": "Setters-----------------------------------------------------------------"
      }
    },
    "notice": "Core module for syndicate data",
    "version": 1
  }
}